{
  "contractName": "Controller",
  "abi": [
    {
      "inputs": [
        {
          "internalType": "string",
          "name": "_domain",
          "type": "string"
        },
        {
          "internalType": "string",
          "name": "_ref",
          "type": "string"
        },
        {
          "internalType": "string",
          "name": "_registryType",
          "type": "string"
        },
        {
          "internalType": "string",
          "name": "_tokenName",
          "type": "string"
        },
        {
          "internalType": "string",
          "name": "_tokenSymbol",
          "type": "string"
        },
        {
          "internalType": "uint256",
          "name": "_tokenSupply",
          "type": "uint256"
        },
        {
          "internalType": "uint256",
          "name": "_stakePrice",
          "type": "uint256"
        }
      ],
      "name": "createRegistry",
      "outputs": [],
      "stateMutability": "nonpayable",
      "type": "function"
    }
  ],
  "bytecode": "0x6080604052306000806101000a81548173ffffffffffffffffffffffffffffffffffffffff021916908373ffffffffffffffffffffffffffffffffffffffff16021790555034801561005057600080fd5b506138b1806100606000396000f3fe60806040523480156200001157600080fd5b50600436106200002e5760003560e01c80637a4db35f1462000033575b600080fd5b6200036e600480360360e08110156200004b57600080fd5b81019080803590602001906401000000008111156200006957600080fd5b8201836020820111156200007c57600080fd5b803590602001918460018302840111640100000000831117156200009f57600080fd5b91908080601f016020809104026020016040519081016040528093929190818152602001838380828437600081840152601f19601f820116905080830192505050505050509192919290803590602001906401000000008111156200010357600080fd5b8201836020820111156200011657600080fd5b803590602001918460018302840111640100000000831117156200013957600080fd5b91908080601f016020809104026020016040519081016040528093929190818152602001838380828437600081840152601f19601f820116905080830192505050505050509192919290803590602001906401000000008111156200019d57600080fd5b820183602082011115620001b057600080fd5b80359060200191846001830284011164010000000083111715620001d357600080fd5b91908080601f016020809104026020016040519081016040528093929190818152602001838380828437600081840152601f19601f820116905080830192505050505050509192919290803590602001906401000000008111156200023757600080fd5b8201836020820111156200024a57600080fd5b803590602001918460018302840111640100000000831117156200026d57600080fd5b91908080601f016020809104026020016040519081016040528093929190818152602001838380828437600081840152601f19601f82011690508083019250505050505050919291929080359060200190640100000000811115620002d157600080fd5b820183602082011115620002e457600080fd5b803590602001918460018302840111640100000000831117156200030757600080fd5b91908080601f016020809104026020016040519081016040528093929190818152602001838380828437600081840152601f19601f820116905080830192505050505050509192919290803590602001909291908035906020019092919050505062000370565b005b60008060009054906101000a900473ffffffffffffffffffffffffffffffffffffffff1685858585604051620003a69062000935565b808673ffffffffffffffffffffffffffffffffffffffff1673ffffffffffffffffffffffffffffffffffffffff1681526020018060200180602001858152602001848152602001838103835287818151815260200191508051906020019080838360005b83811015620004275780820151818401526020810190506200040a565b50505050905090810190601f168015620004555780820380516001836020036101000a031916815260200191505b50838103825286818151815260200191508051906020019080838360005b838110156200049057808201518184015260208101905062000473565b50505050905090810190601f168015620004be5780820380516001836020036101000a031916815260200191505b50975050505050505050604051809103906000f080158015620004e5573d6000803e3d6000fd5b5090506000604051620004f89062000943565b604051809103906000f08015801562000515573d6000803e3d6000fd5b5090508073ffffffffffffffffffffffffffffffffffffffff1662b5ec6b8a8a8a8673ffffffffffffffffffffffffffffffffffffffff166338cc48316040518163ffffffff1660e01b815260040160206040518083038186803b1580156200057d57600080fd5b505afa15801562000592573d6000803e3d6000fd5b505050506040513d6020811015620005a957600080fd5b81019080805190602001909291905050506040518563ffffffff1660e01b8152600401808060200180602001806020018573ffffffffffffffffffffffffffffffffffffffff1673ffffffffffffffffffffffffffffffffffffffff168152602001848103845288818151815260200191508051906020019080838360005b838110156200064557808201518184015260208101905062000628565b50505050905090810190601f168015620006735780820380516001836020036101000a031916815260200191505b50848103835287818151815260200191508051906020019080838360005b83811015620006ae57808201518184015260208101905062000691565b50505050905090810190601f168015620006dc5780820380516001836020036101000a031916815260200191505b50848103825286818151815260200191508051906020019080838360005b8381101562000717578082015181840152602081019050620006fa565b50505050905090810190601f168015620007455780820380516001836020036101000a031916815260200191505b50975050505050505050600060405180830381600087803b1580156200076a57600080fd5b505af11580156200077f573d6000803e3d6000fd5b505050506040513d6000823e3d601f19601f820116820180604052506040811015620007aa57600080fd5b8101908080516040519392919084640100000000821115620007cb57600080fd5b83820191506020820185811115620007e257600080fd5b82518660018202830111640100000000821117156200080057600080fd5b8083526020830192505050908051906020019080838360005b838110156200083657808201518184015260208101905062000819565b50505050905090810190601f168015620008645780820380516001836020036101000a031916815260200191505b50604052602001805160405193929190846401000000008211156200088857600080fd5b838201915060208201858111156200089f57600080fd5b8251866001820283011164010000000082111715620008bd57600080fd5b8083526020830192505050908051906020019080838360005b83811015620008f3578082015181840152602081019050620008d6565b50505050905090810190601f168015620009215780820380516001836020036101000a031916815260200191505b506040525050505050505050505050505050565b61288e806200095283390190565b61069c80620031e08339019056fe60806040526605f9ea6541600160065530600760006101000a81548173ffffffffffffffffffffffffffffffffffffffff021916908373ffffffffffffffffffffffffffffffffffffffff160217905550600760009054906101000a900473ffffffffffffffffffffffffffffffffffffffff1673ffffffffffffffffffffffffffffffffffffffff16316008556040516200288e3803806200288e833981810160405260a0811015620000b257600080fd5b810190808051906020019092919080516040519392919084640100000000821115620000dd57600080fd5b83820191506020820185811115620000f457600080fd5b82518660018202830111640100000000821117156200011257600080fd5b8083526020830192505050908051906020019080838360005b83811015620001485780820151818401526020810190506200012b565b50505050905090810190601f168015620001765780820380516001836020036101000a031916815260200191505b50604052602001805160405193929190846401000000008211156200019a57600080fd5b83820191506020820185811115620001b157600080fd5b8251866001820283011164010000000082111715620001cf57600080fd5b8083526020830192505050908051906020019080838360005b8381101562000205578082015181840152602081019050620001e8565b50505050905090810190601f168015620002335780820380516001836020036101000a031916815260200191505b506040526020018051906020019092919080519060200190929190505050838381600390805190602001906200026b929190620005ec565b50806004908051906020019062000284929190620005ec565b506012600560006101000a81548160ff021916908360ff16021790555050506000620002b56200037860201b60201c565b905080600560016101000a81548173ffffffffffffffffffffffffffffffffffffffff021916908373ffffffffffffffffffffffffffffffffffffffff1602179055508073ffffffffffffffffffffffffffffffffffffffff16600073ffffffffffffffffffffffffffffffffffffffff167f8be0079c531659141344cd1fd0a4f28419497f9722a3daafe3b4186f6b6457e060405160405180910390a350806006819055506200036d85836200038060201b60201c565b50505050506200069b565b600033905090565b600073ffffffffffffffffffffffffffffffffffffffff168273ffffffffffffffffffffffffffffffffffffffff16141562000424576040517f08c379a000000000000000000000000000000000000000000000000000000000815260040180806020018281038252601f8152602001807f45524332303a206d696e7420746f20746865207a65726f20616464726573730081525060200191505060405180910390fd5b62000438600083836200055e60201b60201c565b62000454816002546200056360201b62001da81790919060201c565b600281905550620004b2816000808573ffffffffffffffffffffffffffffffffffffffff1673ffffffffffffffffffffffffffffffffffffffff168152602001908152602001600020546200056360201b62001da81790919060201c565b6000808473ffffffffffffffffffffffffffffffffffffffff1673ffffffffffffffffffffffffffffffffffffffff168152602001908152602001600020819055508173ffffffffffffffffffffffffffffffffffffffff16600073ffffffffffffffffffffffffffffffffffffffff167fddf252ad1be2c89b69c2b068fc378daa952ba7f163c4a11628f55a4df523b3ef836040518082815260200191505060405180910390a35050565b505050565b600080828401905083811015620005e2576040517f08c379a000000000000000000000000000000000000000000000000000000000815260040180806020018281038252601b8152602001807f536166654d6174683a206164646974696f6e206f766572666c6f77000000000081525060200191505060405180910390fd5b8091505092915050565b828054600181600116156101000203166002900490600052602060002090601f016020900481019282601f106200062f57805160ff191683800117855562000660565b8280016001018555821562000660579182015b828111156200065f57825182559160200191906001019062000642565b5b5090506200066f919062000673565b5090565b6200069891905b80821115620006945760008160009055506001016200067a565b5090565b90565b6121e380620006ab6000396000f3fe6080604052600436106101445760003560e01c80636f1e8533116100b6578063a457c2d71161006f578063a457c2d7146107a3578063a9059cbb14610816578063b69ef8a814610889578063bed9d861146108b4578063dd62ed3e146108be578063f2fde38b14610943576101b6565b80636f1e85331461057f57806370a08231146105ef578063715018a6146106545780638da5cb5b1461066b57806395d89b41146106c257806396a9fdc014610752576101b6565b80631a5fee57116101085780631a5fee571461037e57806323b872dd146103885780632466696e1461041b578063313ce5671461048457806338cc4831146104b5578063395093511461050c576101b6565b806306fdde03146101c0578063095ea7b31461025057806312065fe0146102c357806314205234146102ee57806318160ddd14610353576101b6565b366101b6577f88a5966d370b9919b20f3e2c13ff65706f196a4e32cc2c12bf57088f885258743334604051808373ffffffffffffffffffffffffffffffffffffffff1673ffffffffffffffffffffffffffffffffffffffff1681526020018281526020019250505060405180910390a1005b6101be610994565b005b3480156101cc57600080fd5b506101d5610a74565b6040518080602001828103825283818151815260200191508051906020019080838360005b838110156102155780820151818401526020810190506101fa565b50505050905090810190601f1680156102425780820380516001836020036101000a031916815260200191505b509250505060405180910390f35b34801561025c57600080fd5b506102a96004803603604081101561027357600080fd5b81019080803573ffffffffffffffffffffffffffffffffffffffff16906020019092919080359060200190929190505050610b16565b604051808215151515815260200191505060405180910390f35b3480156102cf57600080fd5b506102d8610b34565b6040518082815260200191505060405180910390f35b3480156102fa57600080fd5b5061033d6004803603602081101561031157600080fd5b81019080803573ffffffffffffffffffffffffffffffffffffffff169060200190929190505050610b3e565b6040518082815260200191505060405180910390f35b34801561035f57600080fd5b50610368610b87565b6040518082815260200191505060405180910390f35b610386610994565b005b34801561039457600080fd5b50610401600480360360608110156103ab57600080fd5b81019080803573ffffffffffffffffffffffffffffffffffffffff169060200190929190803573ffffffffffffffffffffffffffffffffffffffff16906020019092919080359060200190929190505050610b91565b604051808215151515815260200191505060405180910390f35b34801561042757600080fd5b5061046a6004803603602081101561043e57600080fd5b81019080803573ffffffffffffffffffffffffffffffffffffffff169060200190929190505050610c6a565b604051808215151515815260200191505060405180910390f35b34801561049057600080fd5b50610499610d0f565b604051808260ff1660ff16815260200191505060405180910390f35b3480156104c157600080fd5b506104ca610d26565b604051808273ffffffffffffffffffffffffffffffffffffffff1673ffffffffffffffffffffffffffffffffffffffff16815260200191505060405180910390f35b34801561051857600080fd5b506105656004803603604081101561052f57600080fd5b81019080803573ffffffffffffffffffffffffffffffffffffffff16906020019092919080359060200190929190505050610d2e565b604051808215151515815260200191505060405180910390f35b34801561058b57600080fd5b506105ce600480360360208110156105a257600080fd5b81019080803573ffffffffffffffffffffffffffffffffffffffff169060200190929190505050610de1565b60405180831515151581526020018281526020019250505060405180910390f35b3480156105fb57600080fd5b5061063e6004803603602081101561061257600080fd5b81019080803573ffffffffffffffffffffffffffffffffffffffff169060200190929190505050610e8b565b6040518082815260200191505060405180910390f35b34801561066057600080fd5b50610669610ed3565b005b34801561067757600080fd5b5061068061105e565b604051808273ffffffffffffffffffffffffffffffffffffffff1673ffffffffffffffffffffffffffffffffffffffff16815260200191505060405180910390f35b3480156106ce57600080fd5b506106d7611088565b6040518080602001828103825283818151815260200191508051906020019080838360005b838110156107175780820151818401526020810190506106fc565b50505050905090810190601f1680156107445780820380516001836020036101000a031916815260200191505b509250505060405180910390f35b34801561075e57600080fd5b506107a16004803603602081101561077557600080fd5b81019080803573ffffffffffffffffffffffffffffffffffffffff16906020019092919050505061112a565b005b3480156107af57600080fd5b506107fc600480360360408110156107c657600080fd5b81019080803573ffffffffffffffffffffffffffffffffffffffff1690602001909291908035906020019092919050505061121b565b604051808215151515815260200191505060405180910390f35b34801561082257600080fd5b5061086f6004803603604081101561083957600080fd5b81019080803573ffffffffffffffffffffffffffffffffffffffff169060200190929190803590602001909291905050506112e8565b604051808215151515815260200191505060405180910390f35b34801561089557600080fd5b5061089e611306565b6040518082815260200191505060405180910390f35b6108bc61130c565b005b3480156108ca57600080fd5b5061092d600480360360408110156108e157600080fd5b81019080803573ffffffffffffffffffffffffffffffffffffffff169060200190929190803573ffffffffffffffffffffffffffffffffffffffff1690602001909291905050506113ca565b6040518082815260200191505060405180910390f35b34801561094f57600080fd5b506109926004803603602081101561096657600080fd5b81019080803573ffffffffffffffffffffffffffffffffffffffff169060200190929190505050611451565b005b60065434146109a257600080fd5b6109ac3334611661565b3460086000828254019250508190555034600960003373ffffffffffffffffffffffffffffffffffffffff1673ffffffffffffffffffffffffffffffffffffffff16815260200190815260200160002060008282540192505081905550600760009054906101000a900473ffffffffffffffffffffffffffffffffffffffff1673ffffffffffffffffffffffffffffffffffffffff166108fc349081150290604051600060405180830381858888f19350505050158015610a71573d6000803e3d6000fd5b50565b606060038054600181600116156101000203166002900480601f016020809104026020016040519081016040528092919081815260200182805460018160011615610100020316600290048015610b0c5780601f10610ae157610100808354040283529160200191610b0c565b820191906000526020600020905b815481529060010190602001808311610aef57829003601f168201915b5050505050905090565b6000610b2a610b23611828565b8484611830565b6001905092915050565b6000600854905090565b6000600960008373ffffffffffffffffffffffffffffffffffffffff1673ffffffffffffffffffffffffffffffffffffffff168152602001908152602001600020549050919050565b6000600254905090565b6000610b9e848484611a27565b610c5f84610baa611828565b610c5a856040518060600160405280602881526020016120f760289139600160008b73ffffffffffffffffffffffffffffffffffffffff1673ffffffffffffffffffffffffffffffffffffffff1681526020019081526020016000206000610c10611828565b73ffffffffffffffffffffffffffffffffffffffff1673ffffffffffffffffffffffffffffffffffffffff16815260200190815260200160002054611ce89092919063ffffffff16565b611830565b600190509392505050565b600080610c7683610de1565b5090506000610c8484610b3e565b905081158015610c95575060065481145b15610d0757600a849080600181540180825580915050600190039060005260206000200160009091909190916101000a81548173ffffffffffffffffffffffffffffffffffffffff021916908373ffffffffffffffffffffffffffffffffffffffff1602179055508192505050610d0a565b50505b919050565b6000600560009054906101000a900460ff16905090565b600030905090565b6000610dd7610d3b611828565b84610dd28560016000610d4c611828565b73ffffffffffffffffffffffffffffffffffffffff1673ffffffffffffffffffffffffffffffffffffffff16815260200190815260200160002060008973ffffffffffffffffffffffffffffffffffffffff1673ffffffffffffffffffffffffffffffffffffffff16815260200190815260200160002054611da890919063ffffffff16565b611830565b6001905092915050565b60008060008090505b600a80549050811015610e7a57600a8181548110610e0457fe5b9060005260206000200160009054906101000a900473ffffffffffffffffffffffffffffffffffffffff1673ffffffffffffffffffffffffffffffffffffffff168473ffffffffffffffffffffffffffffffffffffffff161415610e6f576001819250925050610e86565b600181019050610dea565b50600080809050915091505b915091565b60008060008373ffffffffffffffffffffffffffffffffffffffff1673ffffffffffffffffffffffffffffffffffffffff168152602001908152602001600020549050919050565b610edb611828565b73ffffffffffffffffffffffffffffffffffffffff16600560019054906101000a900473ffffffffffffffffffffffffffffffffffffffff1673ffffffffffffffffffffffffffffffffffffffff1614610f9d576040517f08c379a00000000000000000000000000000000000000000000000000000000081526004018080602001828103825260208152602001807f4f776e61626c653a2063616c6c6572206973206e6f7420746865206f776e657281525060200191505060405180910390fd5b600073ffffffffffffffffffffffffffffffffffffffff16600560019054906101000a900473ffffffffffffffffffffffffffffffffffffffff1673ffffffffffffffffffffffffffffffffffffffff167f8be0079c531659141344cd1fd0a4f28419497f9722a3daafe3b4186f6b6457e060405160405180910390a36000600560016101000a81548173ffffffffffffffffffffffffffffffffffffffff021916908373ffffffffffffffffffffffffffffffffffffffff160217905550565b6000600560019054906101000a900473ffffffffffffffffffffffffffffffffffffffff16905090565b606060048054600181600116156101000203166002900480601f0160208091040260200160405190810160405280929190818152602001828054600181600116156101000203166002900480156111205780601f106110f557610100808354040283529160200191611120565b820191906000526020600020905b81548152906001019060200180831161110357829003601f168201915b5050505050905090565b60008061113683610de1565b91509150811561121657600a6001600a80549050038154811061115557fe5b9060005260206000200160009054906101000a900473ffffffffffffffffffffffffffffffffffffffff16600a828154811061118d57fe5b9060005260206000200160006101000a81548173ffffffffffffffffffffffffffffffffffffffff021916908373ffffffffffffffffffffffffffffffffffffffff160217905550600a8054806111e057fe5b6001900381819060005260206000200160006101000a81549073ffffffffffffffffffffffffffffffffffffffff021916905590555b505050565b60006112de611228611828565b846112d9856040518060600160405280602581526020016121896025913960016000611252611828565b73ffffffffffffffffffffffffffffffffffffffff1673ffffffffffffffffffffffffffffffffffffffff16815260200190815260200160002060008a73ffffffffffffffffffffffffffffffffffffffff1673ffffffffffffffffffffffffffffffffffffffff16815260200190815260200160002054611ce89092919063ffffffff16565b611830565b6001905092915050565b60006112fc6112f5611828565b8484611a27565b6001905092915050565b60085481565b600033905061131d81600654611e30565b600654600860008282540392505081905550600654600960008373ffffffffffffffffffffffffffffffffffffffff1673ffffffffffffffffffffffffffffffffffffffff168152602001908152602001600020600082825403925050819055508073ffffffffffffffffffffffffffffffffffffffff166108fc6006549081150290604051600060405180830381858888f193505050501580156113c6573d6000803e3d6000fd5b5050565b6000600160008473ffffffffffffffffffffffffffffffffffffffff1673ffffffffffffffffffffffffffffffffffffffff16815260200190815260200160002060008373ffffffffffffffffffffffffffffffffffffffff1673ffffffffffffffffffffffffffffffffffffffff16815260200190815260200160002054905092915050565b611459611828565b73ffffffffffffffffffffffffffffffffffffffff16600560019054906101000a900473ffffffffffffffffffffffffffffffffffffffff1673ffffffffffffffffffffffffffffffffffffffff161461151b576040517f08c379a00000000000000000000000000000000000000000000000000000000081526004018080602001828103825260208152602001807f4f776e61626c653a2063616c6c6572206973206e6f7420746865206f776e657281525060200191505060405180910390fd5b600073ffffffffffffffffffffffffffffffffffffffff168173ffffffffffffffffffffffffffffffffffffffff1614156115a1576040517f08c379a00000000000000000000000000000000000000000000000000000000081526004018080602001828103825260268152602001806120896026913960400191505060405180910390fd5b8073ffffffffffffffffffffffffffffffffffffffff16600560019054906101000a900473ffffffffffffffffffffffffffffffffffffffff1673ffffffffffffffffffffffffffffffffffffffff167f8be0079c531659141344cd1fd0a4f28419497f9722a3daafe3b4186f6b6457e060405160405180910390a380600560016101000a81548173ffffffffffffffffffffffffffffffffffffffff021916908373ffffffffffffffffffffffffffffffffffffffff16021790555050565b600073ffffffffffffffffffffffffffffffffffffffff168273ffffffffffffffffffffffffffffffffffffffff161415611704576040517f08c379a000000000000000000000000000000000000000000000000000000000815260040180806020018281038252601f8152602001807f45524332303a206d696e7420746f20746865207a65726f20616464726573730081525060200191505060405180910390fd5b61171060008383611ff4565b61172581600254611da890919063ffffffff16565b60028190555061177c816000808573ffffffffffffffffffffffffffffffffffffffff1673ffffffffffffffffffffffffffffffffffffffff16815260200190815260200160002054611da890919063ffffffff16565b6000808473ffffffffffffffffffffffffffffffffffffffff1673ffffffffffffffffffffffffffffffffffffffff168152602001908152602001600020819055508173ffffffffffffffffffffffffffffffffffffffff16600073ffffffffffffffffffffffffffffffffffffffff167fddf252ad1be2c89b69c2b068fc378daa952ba7f163c4a11628f55a4df523b3ef836040518082815260200191505060405180910390a35050565b600033905090565b600073ffffffffffffffffffffffffffffffffffffffff168373ffffffffffffffffffffffffffffffffffffffff1614156118b6576040517f08c379a00000000000000000000000000000000000000000000000000000000081526004018080602001828103825260248152602001806121656024913960400191505060405180910390fd5b600073ffffffffffffffffffffffffffffffffffffffff168273ffffffffffffffffffffffffffffffffffffffff16141561193c576040517f08c379a00000000000000000000000000000000000000000000000000000000081526004018080602001828103825260228152602001806120af6022913960400191505060405180910390fd5b80600160008573ffffffffffffffffffffffffffffffffffffffff1673ffffffffffffffffffffffffffffffffffffffff16815260200190815260200160002060008473ffffffffffffffffffffffffffffffffffffffff1673ffffffffffffffffffffffffffffffffffffffff168152602001908152602001600020819055508173ffffffffffffffffffffffffffffffffffffffff168373ffffffffffffffffffffffffffffffffffffffff167f8c5be1e5ebec7d5bd14f71427d1e84f3dd0314c0f7b2291e5b200ac8c7c3b925836040518082815260200191505060405180910390a3505050565b600073ffffffffffffffffffffffffffffffffffffffff168373ffffffffffffffffffffffffffffffffffffffff161415611aad576040517f08c379a00000000000000000000000000000000000000000000000000000000081526004018080602001828103825260258152602001806121406025913960400191505060405180910390fd5b600073ffffffffffffffffffffffffffffffffffffffff168273ffffffffffffffffffffffffffffffffffffffff161415611b33576040517f08c379a00000000000000000000000000000000000000000000000000000000081526004018080602001828103825260238152602001806120446023913960400191505060405180910390fd5b611b3e838383611ff4565b611ba9816040518060600160405280602681526020016120d1602691396000808773ffffffffffffffffffffffffffffffffffffffff1673ffffffffffffffffffffffffffffffffffffffff16815260200190815260200160002054611ce89092919063ffffffff16565b6000808573ffffffffffffffffffffffffffffffffffffffff1673ffffffffffffffffffffffffffffffffffffffff16815260200190815260200160002081905550611c3c816000808573ffffffffffffffffffffffffffffffffffffffff1673ffffffffffffffffffffffffffffffffffffffff16815260200190815260200160002054611da890919063ffffffff16565b6000808473ffffffffffffffffffffffffffffffffffffffff1673ffffffffffffffffffffffffffffffffffffffff168152602001908152602001600020819055508173ffffffffffffffffffffffffffffffffffffffff168373ffffffffffffffffffffffffffffffffffffffff167fddf252ad1be2c89b69c2b068fc378daa952ba7f163c4a11628f55a4df523b3ef836040518082815260200191505060405180910390a3505050565b6000838311158290611d95576040517f08c379a00000000000000000000000000000000000000000000000000000000081526004018080602001828103825283818151815260200191508051906020019080838360005b83811015611d5a578082015181840152602081019050611d3f565b50505050905090810190601f168015611d875780820380516001836020036101000a031916815260200191505b509250505060405180910390fd5b5060008385039050809150509392505050565b600080828401905083811015611e26576040517f08c379a000000000000000000000000000000000000000000000000000000000815260040180806020018281038252601b8152602001807f536166654d6174683a206164646974696f6e206f766572666c6f77000000000081525060200191505060405180910390fd5b8091505092915050565b600073ffffffffffffffffffffffffffffffffffffffff168273ffffffffffffffffffffffffffffffffffffffff161415611eb6576040517f08c379a000000000000000000000000000000000000000000000000000000000815260040180806020018281038252602181526020018061211f6021913960400191505060405180910390fd5b611ec282600083611ff4565b611f2d81604051806060016040528060228152602001612067602291396000808673ffffffffffffffffffffffffffffffffffffffff1673ffffffffffffffffffffffffffffffffffffffff16815260200190815260200160002054611ce89092919063ffffffff16565b6000808473ffffffffffffffffffffffffffffffffffffffff1673ffffffffffffffffffffffffffffffffffffffff16815260200190815260200160002081905550611f8481600254611ff990919063ffffffff16565b600281905550600073ffffffffffffffffffffffffffffffffffffffff168273ffffffffffffffffffffffffffffffffffffffff167fddf252ad1be2c89b69c2b068fc378daa952ba7f163c4a11628f55a4df523b3ef836040518082815260200191505060405180910390a35050565b505050565b600061203b83836040518060400160405280601e81526020017f536166654d6174683a207375627472616374696f6e206f766572666c6f770000815250611ce8565b90509291505056fe45524332303a207472616e7366657220746f20746865207a65726f206164647265737345524332303a206275726e20616d6f756e7420657863656564732062616c616e63654f776e61626c653a206e6577206f776e657220697320746865207a65726f206164647265737345524332303a20617070726f766520746f20746865207a65726f206164647265737345524332303a207472616e7366657220616d6f756e7420657863656564732062616c616e636545524332303a207472616e7366657220616d6f756e74206578636565647320616c6c6f77616e636545524332303a206275726e2066726f6d20746865207a65726f206164647265737345524332303a207472616e736665722066726f6d20746865207a65726f206164647265737345524332303a20617070726f76652066726f6d20746865207a65726f206164647265737345524332303a2064656372656173656420616c6c6f77616e63652062656c6f77207a65726fa2646970667358221220900811eed564ecdfabd75cf6a66ecb759ff7f9d71433a673fda234697731702664736f6c63430006020033608060405234801561001057600080fd5b5061067c806100206000396000f3fe608060405234801561001057600080fd5b506004361061004b5760003560e01c8062b5ec6b146100505780631d6d32ba1461033e578063209df0fa146103c157806338cc483114610403575b600080fd5b6102576004803603608081101561006657600080fd5b810190808035906020019064010000000081111561008357600080fd5b82018360208201111561009557600080fd5b803590602001918460018302840111640100000000831117156100b757600080fd5b91908080601f016020809104026020016040519081016040528093929190818152602001838380828437600081840152601f19601f8201169050808301925050505050505091929192908035906020019064010000000081111561011a57600080fd5b82018360208201111561012c57600080fd5b8035906020019184600183028401116401000000008311171561014e57600080fd5b91908080601f016020809104026020016040519081016040528093929190818152602001838380828437600081840152601f19601f820116905080830192505050505050509192919290803590602001906401000000008111156101b157600080fd5b8201836020820111156101c357600080fd5b803590602001918460018302840111640100000000831117156101e557600080fd5b91908080601f016020809104026020016040519081016040528093929190818152602001838380828437600081840152601f19601f820116905080830192505050505050509192919290803573ffffffffffffffffffffffffffffffffffffffff16906020019092919050505061044d565b604051808060200180602001838103835285818151815260200191508051906020019080838360005b8381101561029b578082015181840152602081019050610280565b50505050905090810190601f1680156102c85780820380516001836020036101000a031916815260200191505b50838103825284818151815260200191508051906020019080838360005b838110156103015780820151818401526020810190506102e6565b50505050905090810190601f16801561032e5780820380516001836020036101000a031916815260200191505b5094505050505060405180910390f35b6103466104df565b6040518080602001828103825283818151815260200191508051906020019080838360005b8381101561038657808201518184015260208101905061036b565b50505050905090810190601f1680156103b35780820380516001836020036101000a031916815260200191505b509250505060405180910390f35b6103ed600480360360208110156103d757600080fd5b8101908080359060200190929190505050610581565b6040518082815260200191505060405180910390f35b61040b610594565b604051808273ffffffffffffffffffffffffffffffffffffffff1673ffffffffffffffffffffffffffffffffffffffff16815260200191505060405180910390f35b60608085600090805190602001906104669291906105a1565b50846001908051906020019061047d9291906105a1565b5083600290805190602001906104949291906105a1565b5082600360006101000a81548173ffffffffffffffffffffffffffffffffffffffff021916908373ffffffffffffffffffffffffffffffffffffffff16021790555094509492505050565b606060018054600181600116156101000203166002900480601f0160208091040260200160405190810160405280929190818152602001828054600181600116156101000203166002900480156105775780601f1061054c57610100808354040283529160200191610577565b820191906000526020600020905b81548152906001019060200180831161055a57829003601f168201915b5050505050905090565b6000816004819055506004549050919050565b6000803090508091505090565b828054600181600116156101000203166002900490600052602060002090601f016020900481019282601f106105e257805160ff1916838001178555610610565b82800160010185558215610610579182015b8281111561060f5782518255916020019190600101906105f4565b5b50905061061d9190610621565b5090565b61064391905b8082111561063f576000816000905550600101610627565b5090565b9056fea264697066735822122054606abf057314638b9f628bfeccb791cbbe4818f73aa905e5e488cbf31924ac64736f6c63430006020033a264697066735822122013579bcf59ce2981c2167e8201b7caf95d189e55e65727d3cb78951f42fcb7fa64736f6c63430006020033",
  "source": "pragma solidity >=0.4.22 <0.7.0;\n\n/**\n * @title Controller\n * @dev Create and interact with ZNS via the ZNS Controller\n*/\n\nimport './Registry.sol';\nimport './StakeToken.sol';\n\ncontract Controller {\n\n    address controller = address(this);\n\n    // Create Registry\n    function createRegistry(\n        string memory _domain,\n        string memory _ref,\n        string memory _registryType,\n        string memory _tokenName,\n        string memory _tokenSymbol,\n        uint256 _tokenSupply,\n        uint256 _stakePrice\n    )\n        public \n    {\n        StakeToken stakeToken = new StakeToken(controller, _tokenName, _tokenSymbol, _tokenSupply, _stakePrice);\n        Registry registry = new Registry();\n        registry.init(_domain, _ref, _registryType, stakeToken.getAddress());\n    }\n\n    // list Registry\n    // create RegistryEntry\n    // list RegistryEntry\n    // remove RegistryEntry\n    // create registryType\n    // list RegistryTypes\n    // remove registryType\n}",
  "sourcePath": "/Users/neo/Code/ZNS/contracts/Controller.sol",
  "compiler": {
    "name": "solc",
    "version": "0.6.2+commit.bacdbe57.Emscripten.clang"
  },
  "schemaVersion": "3.2.3",
  "updatedAt": "2020-08-28T07:38:16.549Z",
  "devdoc": {
    "methods": {}
  },
  "userdoc": {
    "methods": {}
  }
}