{
  "contractName": "Controller",
  "abi": [
    {
      "anonymous": false,
      "inputs": [
        {
          "indexed": false,
          "internalType": "address",
          "name": "_registryAddress",
          "type": "address"
        },
        {
          "indexed": false,
          "internalType": "uint256",
          "name": "_newStakePrice",
          "type": "uint256"
        }
      ],
      "name": "stakePriceSet",
      "type": "event"
    },
    {
      "inputs": [],
      "name": "registryAddress",
      "outputs": [
        {
          "internalType": "address",
          "name": "",
          "type": "address"
        }
      ],
      "stateMutability": "view",
      "type": "function"
    },
    {
      "inputs": [],
      "name": "stakePrice",
      "outputs": [
        {
          "internalType": "uint256",
          "name": "",
          "type": "uint256"
        }
      ],
      "stateMutability": "view",
      "type": "function"
    },
    {
      "inputs": [
        {
          "internalType": "string",
          "name": "_domain",
          "type": "string"
        },
        {
          "internalType": "string",
          "name": "_ref",
          "type": "string"
        },
        {
          "internalType": "string",
          "name": "_registryType",
          "type": "string"
        },
        {
          "internalType": "string",
          "name": "_tokenName",
          "type": "string"
        },
        {
          "internalType": "string",
          "name": "_tokenSymbol",
          "type": "string"
        },
        {
          "internalType": "uint256",
          "name": "_tokenSupply",
          "type": "uint256"
        },
        {
          "internalType": "uint256",
          "name": "_stakePrice",
          "type": "uint256"
        }
      ],
      "name": "createRegistry",
      "outputs": [
        {
          "internalType": "address",
          "name": "",
          "type": "address"
        }
      ],
      "stateMutability": "nonpayable",
      "type": "function"
    },
    {
      "inputs": [
        {
          "internalType": "address",
          "name": "_registryAddress",
          "type": "address"
        },
        {
          "internalType": "uint256",
          "name": "_newStakePrice",
          "type": "uint256"
        }
      ],
      "name": "setStakePrice",
      "outputs": [],
      "stateMutability": "nonpayable",
      "type": "function"
    }
  ],
  "bytecode": "0x6080604052306000806101000a81548173ffffffffffffffffffffffffffffffffffffffff021916908373ffffffffffffffffffffffffffffffffffffffff16021790555034801561005057600080fd5b50613ddd806100606000396000f3fe60806040523480156200001157600080fd5b5060043610620000525760003560e01c80637a4db35f1462000057578063a023cf6914620003d4578063ea77ae7f14620003f4578063ed9aab511462000445575b600080fd5b62000392600480360360e08110156200006f57600080fd5b81019080803590602001906401000000008111156200008d57600080fd5b820183602082011115620000a057600080fd5b80359060200191846001830284011164010000000083111715620000c357600080fd5b91908080601f016020809104026020016040519081016040528093929190818152602001838380828437600081840152601f19601f820116905080830192505050505050509192919290803590602001906401000000008111156200012757600080fd5b8201836020820111156200013a57600080fd5b803590602001918460018302840111640100000000831117156200015d57600080fd5b91908080601f016020809104026020016040519081016040528093929190818152602001838380828437600081840152601f19601f82011690508083019250505050505050919291929080359060200190640100000000811115620001c157600080fd5b820183602082011115620001d457600080fd5b80359060200191846001830284011164010000000083111715620001f757600080fd5b91908080601f016020809104026020016040519081016040528093929190818152602001838380828437600081840152601f19601f820116905080830192505050505050509192919290803590602001906401000000008111156200025b57600080fd5b8201836020820111156200026e57600080fd5b803590602001918460018302840111640100000000831117156200029157600080fd5b91908080601f016020809104026020016040519081016040528093929190818152602001838380828437600081840152601f19601f82011690508083019250505050505050919291929080359060200190640100000000811115620002f557600080fd5b8201836020820111156200030857600080fd5b803590602001918460018302840111640100000000831117156200032b57600080fd5b91908080601f016020809104026020016040519081016040528093929190818152602001838380828437600081840152601f19601f820116905080830192505050505050509192919290803590602001909291908035906020019092919050505062000491565b604051808273ffffffffffffffffffffffffffffffffffffffff1673ffffffffffffffffffffffffffffffffffffffff16815260200191505060405180910390f35b620003de62000b1d565b6040518082815260200191505060405180910390f35b62000443600480360360408110156200040c57600080fd5b81019080803573ffffffffffffffffffffffffffffffffffffffff1690602001909291908035906020019092919050505062000b23565b005b6200044f62000cf5565b604051808273ffffffffffffffffffffffffffffffffffffffff1673ffffffffffffffffffffffffffffffffffffffff16815260200191505060405180910390f35b6000806000809054906101000a900473ffffffffffffffffffffffffffffffffffffffff1686868686604051620004c89062000d1b565b808673ffffffffffffffffffffffffffffffffffffffff1673ffffffffffffffffffffffffffffffffffffffff1681526020018060200180602001858152602001848152602001838103835287818151815260200191508051906020019080838360005b83811015620005495780820151818401526020810190506200052c565b50505050905090810190601f168015620005775780820380516001836020036101000a031916815260200191505b50838103825286818151815260200191508051906020019080838360005b83811015620005b257808201518184015260208101905062000595565b50505050905090810190601f168015620005e05780820380516001836020036101000a031916815260200191505b50975050505050505050604051809103906000f08015801562000607573d6000803e3d6000fd5b50905060006040516200061a9062000d29565b604051809103906000f08015801562000637573d6000803e3d6000fd5b5090508073ffffffffffffffffffffffffffffffffffffffff1662b5ec6b8b8b8b8673ffffffffffffffffffffffffffffffffffffffff166338cc48316040518163ffffffff1660e01b815260040160206040518083038186803b1580156200069f57600080fd5b505afa158015620006b4573d6000803e3d6000fd5b505050506040513d6020811015620006cb57600080fd5b81019080805190602001909291905050506040518563ffffffff1660e01b8152600401808060200180602001806020018573ffffffffffffffffffffffffffffffffffffffff1673ffffffffffffffffffffffffffffffffffffffff168152602001848103845288818151815260200191508051906020019080838360005b83811015620007675780820151818401526020810190506200074a565b50505050905090810190601f168015620007955780820380516001836020036101000a031916815260200191505b50848103835287818151815260200191508051906020019080838360005b83811015620007d0578082015181840152602081019050620007b3565b50505050905090810190601f168015620007fe5780820380516001836020036101000a031916815260200191505b50848103825286818151815260200191508051906020019080838360005b83811015620008395780820151818401526020810190506200081c565b50505050905090810190601f168015620008675780820380516001836020036101000a031916815260200191505b50975050505050505050600060405180830381600087803b1580156200088c57600080fd5b505af1158015620008a1573d6000803e3d6000fd5b505050506040513d6000823e3d601f19601f820116820180604052506040811015620008cc57600080fd5b8101908080516040519392919084640100000000821115620008ed57600080fd5b838201915060208201858111156200090457600080fd5b82518660018202830111640100000000821117156200092257600080fd5b8083526020830192505050908051906020019080838360005b83811015620009585780820151818401526020810190506200093b565b50505050905090810190601f168015620009865780820380516001836020036101000a031916815260200191505b5060405260200180516040519392919084640100000000821115620009aa57600080fd5b83820191506020820185811115620009c157600080fd5b8251866001820283011164010000000082111715620009df57600080fd5b8083526020830192505050908051906020019080838360005b8381101562000a15578082015181840152602081019050620009f8565b50505050905090810190601f16801562000a435780820380516001836020036101000a031916815260200191505b5060405250505050508073ffffffffffffffffffffffffffffffffffffffff166338cc48316040518163ffffffff1660e01b815260040160206040518083038186803b15801562000a9357600080fd5b505afa15801562000aa8573d6000803e3d6000fd5b505050506040513d602081101562000abf57600080fd5b8101908080519060200190929190505050600160006101000a81548173ffffffffffffffffffffffffffffffffffffffff021916908373ffffffffffffffffffffffffffffffffffffffff1602179055505050979650505050505050565b60025481565b600082905082600160006101000a81548173ffffffffffffffffffffffffffffffffffffffff021916908373ffffffffffffffffffffffffffffffffffffffff1602179055508073ffffffffffffffffffffffffffffffffffffffff1663209df0fa836040518263ffffffff1660e01b815260040180828152602001915050602060405180830381600087803b15801562000bbd57600080fd5b505af115801562000bd2573d6000803e3d6000fd5b505050506040513d602081101562000be957600080fd5b8101908080519060200190929190505050508073ffffffffffffffffffffffffffffffffffffffff1663a023cf696040518163ffffffff1660e01b815260040160206040518083038186803b15801562000c4257600080fd5b505afa15801562000c57573d6000803e3d6000fd5b505050506040513d602081101562000c6e57600080fd5b81019080805190602001909291905050506002819055507f5c8ec934a4a2e21cb461fad893bc745531bdc1b1d855e9663a8955d82b2744728383604051808373ffffffffffffffffffffffffffffffffffffffff1673ffffffffffffffffffffffffffffffffffffffff1681526020018281526020019250505060405180910390a1505050565b600160009054906101000a900473ffffffffffffffffffffffffffffffffffffffff1681565b6129478062000d3883390190565b610729806200367f8339019056fe60806040526605f9ea6541600160065530600760006101000a81548173ffffffffffffffffffffffffffffffffffffffff021916908373ffffffffffffffffffffffffffffffffffffffff160217905550600760009054906101000a900473ffffffffffffffffffffffffffffffffffffffff1673ffffffffffffffffffffffffffffffffffffffff16316008556040516200294738038062002947833981810160405260a0811015620000b257600080fd5b810190808051906020019092919080516040519392919084640100000000821115620000dd57600080fd5b83820191506020820185811115620000f457600080fd5b82518660018202830111640100000000821117156200011257600080fd5b8083526020830192505050908051906020019080838360005b83811015620001485780820151818401526020810190506200012b565b50505050905090810190601f168015620001765780820380516001836020036101000a031916815260200191505b50604052602001805160405193929190846401000000008211156200019a57600080fd5b83820191506020820185811115620001b157600080fd5b8251866001820283011164010000000082111715620001cf57600080fd5b8083526020830192505050908051906020019080838360005b8381101562000205578082015181840152602081019050620001e8565b50505050905090810190601f168015620002335780820380516001836020036101000a031916815260200191505b506040526020018051906020019092919080519060200190929190505050838381600390805190602001906200026b929190620005ec565b50806004908051906020019062000284929190620005ec565b506012600560006101000a81548160ff021916908360ff16021790555050506000620002b56200037860201b60201c565b905080600560016101000a81548173ffffffffffffffffffffffffffffffffffffffff021916908373ffffffffffffffffffffffffffffffffffffffff1602179055508073ffffffffffffffffffffffffffffffffffffffff16600073ffffffffffffffffffffffffffffffffffffffff167f8be0079c531659141344cd1fd0a4f28419497f9722a3daafe3b4186f6b6457e060405160405180910390a350806006819055506200036d85836200038060201b60201c565b50505050506200069b565b600033905090565b600073ffffffffffffffffffffffffffffffffffffffff168273ffffffffffffffffffffffffffffffffffffffff16141562000424576040517f08c379a000000000000000000000000000000000000000000000000000000000815260040180806020018281038252601f8152602001807f45524332303a206d696e7420746f20746865207a65726f20616464726573730081525060200191505060405180910390fd5b62000438600083836200055e60201b60201c565b62000454816002546200056360201b62001e611790919060201c565b600281905550620004b2816000808573ffffffffffffffffffffffffffffffffffffffff1673ffffffffffffffffffffffffffffffffffffffff168152602001908152602001600020546200056360201b62001e611790919060201c565b6000808473ffffffffffffffffffffffffffffffffffffffff1673ffffffffffffffffffffffffffffffffffffffff168152602001908152602001600020819055508173ffffffffffffffffffffffffffffffffffffffff16600073ffffffffffffffffffffffffffffffffffffffff167fddf252ad1be2c89b69c2b068fc378daa952ba7f163c4a11628f55a4df523b3ef836040518082815260200191505060405180910390a35050565b505050565b600080828401905083811015620005e2576040517f08c379a000000000000000000000000000000000000000000000000000000000815260040180806020018281038252601b8152602001807f536166654d6174683a206164646974696f6e206f766572666c6f77000000000081525060200191505060405180910390fd5b8091505092915050565b828054600181600116156101000203166002900490600052602060002090601f016020900481019282601f106200062f57805160ff191683800117855562000660565b8280016001018555821562000660579182015b828111156200065f57825182559160200191906001019062000642565b5b5090506200066f919062000673565b5090565b6200069891905b80821115620006945760008160009055506001016200067a565b5090565b90565b61229c80620006ab6000396000f3fe60806040526004361061016a5760003560e01c80636f1e8533116100d1578063a023cf691161008a578063b69ef8a811610064578063b69ef8a814610929578063bed9d86114610954578063dd62ed3e1461095e578063f2fde38b146109e3576101dc565b8063a023cf6914610818578063a457c2d714610843578063a9059cbb146108b6576101dc565b80636f1e8533146105f457806370a0823114610664578063715018a6146106c95780638da5cb5b146106e057806395d89b411461073757806396a9fdc0146107c7576101dc565b8063209df0fa11610123578063209df0fa146103ae57806323b872dd146103fd5780632466696e14610490578063313ce567146104f957806338cc48311461052a5780633950935114610581576101dc565b806306fdde03146101e6578063095ea7b31461027657806312065fe0146102e9578063142052341461031457806318160ddd146103795780631a5fee57146103a4576101dc565b366101dc577f88a5966d370b9919b20f3e2c13ff65706f196a4e32cc2c12bf57088f885258743334604051808373ffffffffffffffffffffffffffffffffffffffff1673ffffffffffffffffffffffffffffffffffffffff1681526020018281526020019250505060405180910390a1005b6101e4610a34565b005b3480156101f257600080fd5b506101fb610b14565b6040518080602001828103825283818151815260200191508051906020019080838360005b8381101561023b578082015181840152602081019050610220565b50505050905090810190601f1680156102685780820380516001836020036101000a031916815260200191505b509250505060405180910390f35b34801561028257600080fd5b506102cf6004803603604081101561029957600080fd5b81019080803573ffffffffffffffffffffffffffffffffffffffff16906020019092919080359060200190929190505050610bb6565b604051808215151515815260200191505060405180910390f35b3480156102f557600080fd5b506102fe610bd4565b6040518082815260200191505060405180910390f35b34801561032057600080fd5b506103636004803603602081101561033757600080fd5b81019080803573ffffffffffffffffffffffffffffffffffffffff169060200190929190505050610bde565b6040518082815260200191505060405180910390f35b34801561038557600080fd5b5061038e610c27565b6040518082815260200191505060405180910390f35b6103ac610a34565b005b3480156103ba57600080fd5b506103e7600480360360208110156103d157600080fd5b8101908080359060200190929190505050610c31565b6040518082815260200191505060405180910390f35b34801561040957600080fd5b506104766004803603606081101561042057600080fd5b81019080803573ffffffffffffffffffffffffffffffffffffffff169060200190929190803573ffffffffffffffffffffffffffffffffffffffff16906020019092919080359060200190929190505050610c44565b604051808215151515815260200191505060405180910390f35b34801561049c57600080fd5b506104df600480360360208110156104b357600080fd5b81019080803573ffffffffffffffffffffffffffffffffffffffff169060200190929190505050610d1d565b604051808215151515815260200191505060405180910390f35b34801561050557600080fd5b5061050e610dc2565b604051808260ff1660ff16815260200191505060405180910390f35b34801561053657600080fd5b5061053f610dd9565b604051808273ffffffffffffffffffffffffffffffffffffffff1673ffffffffffffffffffffffffffffffffffffffff16815260200191505060405180910390f35b34801561058d57600080fd5b506105da600480360360408110156105a457600080fd5b81019080803573ffffffffffffffffffffffffffffffffffffffff16906020019092919080359060200190929190505050610de1565b604051808215151515815260200191505060405180910390f35b34801561060057600080fd5b506106436004803603602081101561061757600080fd5b81019080803573ffffffffffffffffffffffffffffffffffffffff169060200190929190505050610e94565b60405180831515151581526020018281526020019250505060405180910390f35b34801561067057600080fd5b506106b36004803603602081101561068757600080fd5b81019080803573ffffffffffffffffffffffffffffffffffffffff169060200190929190505050610f3e565b6040518082815260200191505060405180910390f35b3480156106d557600080fd5b506106de610f86565b005b3480156106ec57600080fd5b506106f5611111565b604051808273ffffffffffffffffffffffffffffffffffffffff1673ffffffffffffffffffffffffffffffffffffffff16815260200191505060405180910390f35b34801561074357600080fd5b5061074c61113b565b6040518080602001828103825283818151815260200191508051906020019080838360005b8381101561078c578082015181840152602081019050610771565b50505050905090810190601f1680156107b95780820380516001836020036101000a031916815260200191505b509250505060405180910390f35b3480156107d357600080fd5b50610816600480360360208110156107ea57600080fd5b81019080803573ffffffffffffffffffffffffffffffffffffffff1690602001909291905050506111dd565b005b34801561082457600080fd5b5061082d6112ce565b6040518082815260200191505060405180910390f35b34801561084f57600080fd5b5061089c6004803603604081101561086657600080fd5b81019080803573ffffffffffffffffffffffffffffffffffffffff169060200190929190803590602001909291905050506112d4565b604051808215151515815260200191505060405180910390f35b3480156108c257600080fd5b5061090f600480360360408110156108d957600080fd5b81019080803573ffffffffffffffffffffffffffffffffffffffff169060200190929190803590602001909291905050506113a1565b604051808215151515815260200191505060405180910390f35b34801561093557600080fd5b5061093e6113bf565b6040518082815260200191505060405180910390f35b61095c6113c5565b005b34801561096a57600080fd5b506109cd6004803603604081101561098157600080fd5b81019080803573ffffffffffffffffffffffffffffffffffffffff169060200190929190803573ffffffffffffffffffffffffffffffffffffffff169060200190929190505050611483565b6040518082815260200191505060405180910390f35b3480156109ef57600080fd5b50610a3260048036036020811015610a0657600080fd5b81019080803573ffffffffffffffffffffffffffffffffffffffff16906020019092919050505061150a565b005b6006543414610a4257600080fd5b610a4c333461171a565b3460086000828254019250508190555034600960003373ffffffffffffffffffffffffffffffffffffffff1673ffffffffffffffffffffffffffffffffffffffff16815260200190815260200160002060008282540192505081905550600760009054906101000a900473ffffffffffffffffffffffffffffffffffffffff1673ffffffffffffffffffffffffffffffffffffffff166108fc349081150290604051600060405180830381858888f19350505050158015610b11573d6000803e3d6000fd5b50565b606060038054600181600116156101000203166002900480601f016020809104026020016040519081016040528092919081815260200182805460018160011615610100020316600290048015610bac5780601f10610b8157610100808354040283529160200191610bac565b820191906000526020600020905b815481529060010190602001808311610b8f57829003601f168201915b5050505050905090565b6000610bca610bc36118e1565b84846118e9565b6001905092915050565b6000600854905090565b6000600960008373ffffffffffffffffffffffffffffffffffffffff1673ffffffffffffffffffffffffffffffffffffffff168152602001908152602001600020549050919050565b6000600254905090565b6000816006819055506006549050919050565b6000610c51848484611ae0565b610d1284610c5d6118e1565b610d0d856040518060600160405280602881526020016121b060289139600160008b73ffffffffffffffffffffffffffffffffffffffff1673ffffffffffffffffffffffffffffffffffffffff1681526020019081526020016000206000610cc36118e1565b73ffffffffffffffffffffffffffffffffffffffff1673ffffffffffffffffffffffffffffffffffffffff16815260200190815260200160002054611da19092919063ffffffff16565b6118e9565b600190509392505050565b600080610d2983610e94565b5090506000610d3784610bde565b905081158015610d48575060065481145b15610dba57600a849080600181540180825580915050600190039060005260206000200160009091909190916101000a81548173ffffffffffffffffffffffffffffffffffffffff021916908373ffffffffffffffffffffffffffffffffffffffff1602179055508192505050610dbd565b50505b919050565b6000600560009054906101000a900460ff16905090565b600030905090565b6000610e8a610dee6118e1565b84610e858560016000610dff6118e1565b73ffffffffffffffffffffffffffffffffffffffff1673ffffffffffffffffffffffffffffffffffffffff16815260200190815260200160002060008973ffffffffffffffffffffffffffffffffffffffff1673ffffffffffffffffffffffffffffffffffffffff16815260200190815260200160002054611e6190919063ffffffff16565b6118e9565b6001905092915050565b60008060008090505b600a80549050811015610f2d57600a8181548110610eb757fe5b9060005260206000200160009054906101000a900473ffffffffffffffffffffffffffffffffffffffff1673ffffffffffffffffffffffffffffffffffffffff168473ffffffffffffffffffffffffffffffffffffffff161415610f22576001819250925050610f39565b600181019050610e9d565b50600080809050915091505b915091565b60008060008373ffffffffffffffffffffffffffffffffffffffff1673ffffffffffffffffffffffffffffffffffffffff168152602001908152602001600020549050919050565b610f8e6118e1565b73ffffffffffffffffffffffffffffffffffffffff16600560019054906101000a900473ffffffffffffffffffffffffffffffffffffffff1673ffffffffffffffffffffffffffffffffffffffff1614611050576040517f08c379a00000000000000000000000000000000000000000000000000000000081526004018080602001828103825260208152602001807f4f776e61626c653a2063616c6c6572206973206e6f7420746865206f776e657281525060200191505060405180910390fd5b600073ffffffffffffffffffffffffffffffffffffffff16600560019054906101000a900473ffffffffffffffffffffffffffffffffffffffff1673ffffffffffffffffffffffffffffffffffffffff167f8be0079c531659141344cd1fd0a4f28419497f9722a3daafe3b4186f6b6457e060405160405180910390a36000600560016101000a81548173ffffffffffffffffffffffffffffffffffffffff021916908373ffffffffffffffffffffffffffffffffffffffff160217905550565b6000600560019054906101000a900473ffffffffffffffffffffffffffffffffffffffff16905090565b606060048054600181600116156101000203166002900480601f0160208091040260200160405190810160405280929190818152602001828054600181600116156101000203166002900480156111d35780601f106111a8576101008083540402835291602001916111d3565b820191906000526020600020905b8154815290600101906020018083116111b657829003601f168201915b5050505050905090565b6000806111e983610e94565b9150915081156112c957600a6001600a80549050038154811061120857fe5b9060005260206000200160009054906101000a900473ffffffffffffffffffffffffffffffffffffffff16600a828154811061124057fe5b9060005260206000200160006101000a81548173ffffffffffffffffffffffffffffffffffffffff021916908373ffffffffffffffffffffffffffffffffffffffff160217905550600a80548061129357fe5b6001900381819060005260206000200160006101000a81549073ffffffffffffffffffffffffffffffffffffffff021916905590555b505050565b60065481565b60006113976112e16118e1565b8461139285604051806060016040528060258152602001612242602591396001600061130b6118e1565b73ffffffffffffffffffffffffffffffffffffffff1673ffffffffffffffffffffffffffffffffffffffff16815260200190815260200160002060008a73ffffffffffffffffffffffffffffffffffffffff1673ffffffffffffffffffffffffffffffffffffffff16815260200190815260200160002054611da19092919063ffffffff16565b6118e9565b6001905092915050565b60006113b56113ae6118e1565b8484611ae0565b6001905092915050565b60085481565b60003390506113d681600654611ee9565b600654600860008282540392505081905550600654600960008373ffffffffffffffffffffffffffffffffffffffff1673ffffffffffffffffffffffffffffffffffffffff168152602001908152602001600020600082825403925050819055508073ffffffffffffffffffffffffffffffffffffffff166108fc6006549081150290604051600060405180830381858888f1935050505015801561147f573d6000803e3d6000fd5b5050565b6000600160008473ffffffffffffffffffffffffffffffffffffffff1673ffffffffffffffffffffffffffffffffffffffff16815260200190815260200160002060008373ffffffffffffffffffffffffffffffffffffffff1673ffffffffffffffffffffffffffffffffffffffff16815260200190815260200160002054905092915050565b6115126118e1565b73ffffffffffffffffffffffffffffffffffffffff16600560019054906101000a900473ffffffffffffffffffffffffffffffffffffffff1673ffffffffffffffffffffffffffffffffffffffff16146115d4576040517f08c379a00000000000000000000000000000000000000000000000000000000081526004018080602001828103825260208152602001807f4f776e61626c653a2063616c6c6572206973206e6f7420746865206f776e657281525060200191505060405180910390fd5b600073ffffffffffffffffffffffffffffffffffffffff168173ffffffffffffffffffffffffffffffffffffffff16141561165a576040517f08c379a00000000000000000000000000000000000000000000000000000000081526004018080602001828103825260268152602001806121426026913960400191505060405180910390fd5b8073ffffffffffffffffffffffffffffffffffffffff16600560019054906101000a900473ffffffffffffffffffffffffffffffffffffffff1673ffffffffffffffffffffffffffffffffffffffff167f8be0079c531659141344cd1fd0a4f28419497f9722a3daafe3b4186f6b6457e060405160405180910390a380600560016101000a81548173ffffffffffffffffffffffffffffffffffffffff021916908373ffffffffffffffffffffffffffffffffffffffff16021790555050565b600073ffffffffffffffffffffffffffffffffffffffff168273ffffffffffffffffffffffffffffffffffffffff1614156117bd576040517f08c379a000000000000000000000000000000000000000000000000000000000815260040180806020018281038252601f8152602001807f45524332303a206d696e7420746f20746865207a65726f20616464726573730081525060200191505060405180910390fd5b6117c9600083836120ad565b6117de81600254611e6190919063ffffffff16565b600281905550611835816000808573ffffffffffffffffffffffffffffffffffffffff1673ffffffffffffffffffffffffffffffffffffffff16815260200190815260200160002054611e6190919063ffffffff16565b6000808473ffffffffffffffffffffffffffffffffffffffff1673ffffffffffffffffffffffffffffffffffffffff168152602001908152602001600020819055508173ffffffffffffffffffffffffffffffffffffffff16600073ffffffffffffffffffffffffffffffffffffffff167fddf252ad1be2c89b69c2b068fc378daa952ba7f163c4a11628f55a4df523b3ef836040518082815260200191505060405180910390a35050565b600033905090565b600073ffffffffffffffffffffffffffffffffffffffff168373ffffffffffffffffffffffffffffffffffffffff16141561196f576040517f08c379a000000000000000000000000000000000000000000000000000000000815260040180806020018281038252602481526020018061221e6024913960400191505060405180910390fd5b600073ffffffffffffffffffffffffffffffffffffffff168273ffffffffffffffffffffffffffffffffffffffff1614156119f5576040517f08c379a00000000000000000000000000000000000000000000000000000000081526004018080602001828103825260228152602001806121686022913960400191505060405180910390fd5b80600160008573ffffffffffffffffffffffffffffffffffffffff1673ffffffffffffffffffffffffffffffffffffffff16815260200190815260200160002060008473ffffffffffffffffffffffffffffffffffffffff1673ffffffffffffffffffffffffffffffffffffffff168152602001908152602001600020819055508173ffffffffffffffffffffffffffffffffffffffff168373ffffffffffffffffffffffffffffffffffffffff167f8c5be1e5ebec7d5bd14f71427d1e84f3dd0314c0f7b2291e5b200ac8c7c3b925836040518082815260200191505060405180910390a3505050565b600073ffffffffffffffffffffffffffffffffffffffff168373ffffffffffffffffffffffffffffffffffffffff161415611b66576040517f08c379a00000000000000000000000000000000000000000000000000000000081526004018080602001828103825260258152602001806121f96025913960400191505060405180910390fd5b600073ffffffffffffffffffffffffffffffffffffffff168273ffffffffffffffffffffffffffffffffffffffff161415611bec576040517f08c379a00000000000000000000000000000000000000000000000000000000081526004018080602001828103825260238152602001806120fd6023913960400191505060405180910390fd5b611bf78383836120ad565b611c628160405180606001604052806026815260200161218a602691396000808773ffffffffffffffffffffffffffffffffffffffff1673ffffffffffffffffffffffffffffffffffffffff16815260200190815260200160002054611da19092919063ffffffff16565b6000808573ffffffffffffffffffffffffffffffffffffffff1673ffffffffffffffffffffffffffffffffffffffff16815260200190815260200160002081905550611cf5816000808573ffffffffffffffffffffffffffffffffffffffff1673ffffffffffffffffffffffffffffffffffffffff16815260200190815260200160002054611e6190919063ffffffff16565b6000808473ffffffffffffffffffffffffffffffffffffffff1673ffffffffffffffffffffffffffffffffffffffff168152602001908152602001600020819055508173ffffffffffffffffffffffffffffffffffffffff168373ffffffffffffffffffffffffffffffffffffffff167fddf252ad1be2c89b69c2b068fc378daa952ba7f163c4a11628f55a4df523b3ef836040518082815260200191505060405180910390a3505050565b6000838311158290611e4e576040517f08c379a00000000000000000000000000000000000000000000000000000000081526004018080602001828103825283818151815260200191508051906020019080838360005b83811015611e13578082015181840152602081019050611df8565b50505050905090810190601f168015611e405780820380516001836020036101000a031916815260200191505b509250505060405180910390fd5b5060008385039050809150509392505050565b600080828401905083811015611edf576040517f08c379a000000000000000000000000000000000000000000000000000000000815260040180806020018281038252601b8152602001807f536166654d6174683a206164646974696f6e206f766572666c6f77000000000081525060200191505060405180910390fd5b8091505092915050565b600073ffffffffffffffffffffffffffffffffffffffff168273ffffffffffffffffffffffffffffffffffffffff161415611f6f576040517f08c379a00000000000000000000000000000000000000000000000000000000081526004018080602001828103825260218152602001806121d86021913960400191505060405180910390fd5b611f7b826000836120ad565b611fe681604051806060016040528060228152602001612120602291396000808673ffffffffffffffffffffffffffffffffffffffff1673ffffffffffffffffffffffffffffffffffffffff16815260200190815260200160002054611da19092919063ffffffff16565b6000808473ffffffffffffffffffffffffffffffffffffffff1673ffffffffffffffffffffffffffffffffffffffff1681526020019081526020016000208190555061203d816002546120b290919063ffffffff16565b600281905550600073ffffffffffffffffffffffffffffffffffffffff168273ffffffffffffffffffffffffffffffffffffffff167fddf252ad1be2c89b69c2b068fc378daa952ba7f163c4a11628f55a4df523b3ef836040518082815260200191505060405180910390a35050565b505050565b60006120f483836040518060400160405280601e81526020017f536166654d6174683a207375627472616374696f6e206f766572666c6f770000815250611da1565b90509291505056fe45524332303a207472616e7366657220746f20746865207a65726f206164647265737345524332303a206275726e20616d6f756e7420657863656564732062616c616e63654f776e61626c653a206e6577206f776e657220697320746865207a65726f206164647265737345524332303a20617070726f766520746f20746865207a65726f206164647265737345524332303a207472616e7366657220616d6f756e7420657863656564732062616c616e636545524332303a207472616e7366657220616d6f756e74206578636565647320616c6c6f77616e636545524332303a206275726e2066726f6d20746865207a65726f206164647265737345524332303a207472616e736665722066726f6d20746865207a65726f206164647265737345524332303a20617070726f76652066726f6d20746865207a65726f206164647265737345524332303a2064656372656173656420616c6c6f77616e63652062656c6f77207a65726fa264697066735822122080141ebf7fa371a200167e33cd27d6e7dff9f51ac7790bba5be6a2166fa0b78d64736f6c63430006020033608060405230600560006101000a81548173ffffffffffffffffffffffffffffffffffffffff021916908373ffffffffffffffffffffffffffffffffffffffff16021790555034801561005157600080fd5b506106c8806100616000396000f3fe608060405234801561001057600080fd5b50600436106100565760003560e01c8062b5ec6b1461005b5780631d6d32ba14610349578063209df0fa146103cc57806338cc48311461040e578063a023cf6914610458575b600080fd5b6102626004803603608081101561007157600080fd5b810190808035906020019064010000000081111561008e57600080fd5b8201836020820111156100a057600080fd5b803590602001918460018302840111640100000000831117156100c257600080fd5b91908080601f016020809104026020016040519081016040528093929190818152602001838380828437600081840152601f19601f8201169050808301925050505050505091929192908035906020019064010000000081111561012557600080fd5b82018360208201111561013757600080fd5b8035906020019184600183028401116401000000008311171561015957600080fd5b91908080601f016020809104026020016040519081016040528093929190818152602001838380828437600081840152601f19601f820116905080830192505050505050509192919290803590602001906401000000008111156101bc57600080fd5b8201836020820111156101ce57600080fd5b803590602001918460018302840111640100000000831117156101f057600080fd5b91908080601f016020809104026020016040519081016040528093929190818152602001838380828437600081840152601f19601f820116905080830192505050505050509192919290803573ffffffffffffffffffffffffffffffffffffffff169060200190929190505050610476565b604051808060200180602001838103835285818151815260200191508051906020019080838360005b838110156102a657808201518184015260208101905061028b565b50505050905090810190601f1680156102d35780820380516001836020036101000a031916815260200191505b50838103825284818151815260200191508051906020019080838360005b8381101561030c5780820151818401526020810190506102f1565b50505050905090810190601f1680156103395780820380516001836020036101000a031916815260200191505b5094505050505060405180910390f35b610351610508565b6040518080602001828103825283818151815260200191508051906020019080838360005b83811015610391578082015181840152602081019050610376565b50505050905090810190601f1680156103be5780820380516001836020036101000a031916815260200191505b509250505060405180910390f35b6103f8600480360360208110156103e257600080fd5b81019080803590602001909291905050506105aa565b6040518082815260200191505060405180910390f35b6104166105bd565b604051808273ffffffffffffffffffffffffffffffffffffffff1673ffffffffffffffffffffffffffffffffffffffff16815260200191505060405180910390f35b6104606105e7565b6040518082815260200191505060405180910390f35b606080856000908051906020019061048f9291906105ed565b5084600190805190602001906104a69291906105ed565b5083600290805190602001906104bd9291906105ed565b5082600360006101000a81548173ffffffffffffffffffffffffffffffffffffffff021916908373ffffffffffffffffffffffffffffffffffffffff16021790555094509492505050565b606060018054600181600116156101000203166002900480601f0160208091040260200160405190810160405280929190818152602001828054600181600116156101000203166002900480156105a05780601f10610575576101008083540402835291602001916105a0565b820191906000526020600020905b81548152906001019060200180831161058357829003601f168201915b5050505050905090565b6000816004819055506004549050919050565b6000600560009054906101000a900473ffffffffffffffffffffffffffffffffffffffff16905090565b60045481565b828054600181600116156101000203166002900490600052602060002090601f016020900481019282601f1061062e57805160ff191683800117855561065c565b8280016001018555821561065c579182015b8281111561065b578251825591602001919060010190610640565b5b509050610669919061066d565b5090565b61068f91905b8082111561068b576000816000905550600101610673565b5090565b9056fea264697066735822122034af9318ac598c010bae7fe89e6fde799b81abed7458430f8c6ba3a770d00e6464736f6c63430006020033a26469706673582212201b3468313ff3bbc71b7015d84608094fdaaed31fd06f91454eb0145480fee21964736f6c63430006020033",
  "source": "pragma solidity >=0.4.22 <0.7.0;\n\n/**\n * @title Controller\n * @dev Create and interact with ZNS via the ZNS Controller\n*/\n\nimport './Registry.sol';\nimport './StakeToken.sol';\n\ncontract Controller {\n\n    address controller = address(this);\n    address public registryAddress;\n    uint256 public stakePrice;\n\n    event stakePriceSet(address _registryAddress, uint256 _newStakePrice);\n\n    function createRegistry(\n        string memory _domain,\n        string memory _ref,\n        string memory _registryType,\n        string memory _tokenName,\n        string memory _tokenSymbol,\n        uint256 _tokenSupply,\n        uint256 _stakePrice\n    )\n        public \n    returns(address)\n    {\n        StakeToken stakeToken = new StakeToken(controller, _tokenName, _tokenSymbol, _tokenSupply, _stakePrice);\n        Registry registry = new Registry();\n        registry.init(_domain, _ref, _registryType, stakeToken.getAddress());\n        registryAddress = registry.getAddress();\n    }\n\n    function setStakePrice(address _registryAddress, uint256 _newStakePrice)\n        public\n    {\n        Registry registry = Registry(_registryAddress);\n        registryAddress = _registryAddress;\n        registry.setStakePrice(_newStakePrice);\n        stakePrice = registry.stakePrice();\n\n        emit stakePriceSet(_registryAddress, _newStakePrice);\n    }\n\n    // make sure domain is unique\n    // update ref\n\n    // get Registry\n\n    // list Registry\n    // create RegistryEntry\n    // list RegistryEntry\n    // remove RegistryEntry\n    // create registryType\n    // list RegistryTypes\n    // remove registryType\n}",
  "sourcePath": "/Users/neo/Code/ZNS/contracts/Controller.sol",
  "compiler": {
    "name": "solc",
    "version": "0.6.2+commit.bacdbe57.Emscripten.clang"
  },
  "schemaVersion": "3.2.3",
  "updatedAt": "2020-08-29T08:05:30.476Z",
  "devdoc": {
    "methods": {}
  },
  "userdoc": {
    "methods": {}
  }
}