{
  "contractName": "Controller",
  "abi": [
    {
      "anonymous": false,
      "inputs": [
        {
          "indexed": false,
          "internalType": "address",
          "name": "registrtyAddress",
          "type": "address"
        },
        {
          "indexed": false,
          "internalType": "address",
          "name": "registryTokenAddress",
          "type": "address"
        }
      ],
      "name": "createdRegistry",
      "type": "event"
    },
    {
      "anonymous": false,
      "inputs": [
        {
          "indexed": false,
          "internalType": "string",
          "name": "subdomain",
          "type": "string"
        },
        {
          "indexed": false,
          "internalType": "string",
          "name": "ref",
          "type": "string"
        }
      ],
      "name": "createdRegistryEntry",
      "type": "event"
    },
    {
      "anonymous": false,
      "inputs": [
        {
          "indexed": false,
          "internalType": "string",
          "name": "subdomain",
          "type": "string"
        },
        {
          "indexed": false,
          "internalType": "string",
          "name": "newRef",
          "type": "string"
        }
      ],
      "name": "registryEntryRefUpdated",
      "type": "event"
    },
    {
      "anonymous": false,
      "inputs": [
        {
          "indexed": false,
          "internalType": "string",
          "name": "newRef",
          "type": "string"
        }
      ],
      "name": "registryRefUpdated",
      "type": "event"
    },
    {
      "anonymous": false,
      "inputs": [
        {
          "indexed": false,
          "internalType": "uint256",
          "name": "newStakePrice",
          "type": "uint256"
        }
      ],
      "name": "stakePriceSet",
      "type": "event"
    },
    {
      "inputs": [],
      "name": "registryAddress",
      "outputs": [
        {
          "internalType": "address",
          "name": "",
          "type": "address"
        }
      ],
      "stateMutability": "view",
      "type": "function",
      "constant": true
    },
    {
      "inputs": [],
      "name": "registryTokenAddress",
      "outputs": [
        {
          "internalType": "address payable",
          "name": "",
          "type": "address"
        }
      ],
      "stateMutability": "view",
      "type": "function",
      "constant": true
    },
    {
      "inputs": [],
      "name": "stakePrice",
      "outputs": [
        {
          "internalType": "uint256",
          "name": "",
          "type": "uint256"
        }
      ],
      "stateMutability": "view",
      "type": "function",
      "constant": true
    },
    {
      "inputs": [
        {
          "internalType": "address",
          "name": "_registry",
          "type": "address"
        },
        {
          "internalType": "address payable",
          "name": "_registryToken",
          "type": "address"
        }
      ],
      "name": "init",
      "outputs": [],
      "stateMutability": "nonpayable",
      "type": "function"
    },
    {
      "inputs": [
        {
          "internalType": "uint256",
          "name": "_newStakePrice",
          "type": "uint256"
        }
      ],
      "name": "setStakePrice",
      "outputs": [],
      "stateMutability": "nonpayable",
      "type": "function"
    },
    {
      "inputs": [
        {
          "internalType": "string",
          "name": "_subdomain",
          "type": "string"
        },
        {
          "internalType": "string",
          "name": "_ref",
          "type": "string"
        }
      ],
      "name": "createRegistryEntry",
      "outputs": [],
      "stateMutability": "nonpayable",
      "type": "function"
    },
    {
      "inputs": [
        {
          "internalType": "string",
          "name": "_newRef",
          "type": "string"
        }
      ],
      "name": "setRegistryRef",
      "outputs": [],
      "stateMutability": "nonpayable",
      "type": "function"
    },
    {
      "inputs": [
        {
          "internalType": "string",
          "name": "_subdomain",
          "type": "string"
        },
        {
          "internalType": "string",
          "name": "_newRef",
          "type": "string"
        }
      ],
      "name": "setRegistryEntryRef",
      "outputs": [],
      "stateMutability": "nonpayable",
      "type": "function"
    }
  ],
  "bytecode": "0x608060405234801561001057600080fd5b50611541806100206000396000f3fe608060405234801561001057600080fd5b50600436106100885760003560e01c8063a023cf691161005b578063a023cf69146103a9578063ed9aab51146103c7578063f09a401614610411578063fb3e64441461047557610088565b8063164f25bf1461008d5780631692f21f146101df5780631d8e2f5814610331578063209df0fa1461037b575b600080fd5b6101dd600480360360408110156100a357600080fd5b81019080803590602001906401000000008111156100c057600080fd5b8201836020820111156100d257600080fd5b803590602001918460018302840111640100000000831117156100f457600080fd5b91908080601f016020809104026020016040519081016040528093929190818152602001838380828437600081840152601f19601f8201169050808301925050505050505091929192908035906020019064010000000081111561015757600080fd5b82018360208201111561016957600080fd5b8035906020019184600183028401116401000000008311171561018b57600080fd5b91908080601f016020809104026020016040519081016040528093929190818152602001838380828437600081840152601f19601f820116905080830192505050505050509192919290505050610530565b005b61032f600480360360408110156101f557600080fd5b810190808035906020019064010000000081111561021257600080fd5b82018360208201111561022457600080fd5b8035906020019184600183028401116401000000008311171561024657600080fd5b91908080601f016020809104026020016040519081016040528093929190818152602001838380828437600081840152601f19601f820116905080830192505050505050509192919290803590602001906401000000008111156102a957600080fd5b8201836020820111156102bb57600080fd5b803590602001918460018302840111640100000000831117156102dd57600080fd5b91908080601f016020809104026020016040519081016040528093929190818152602001838380828437600081840152601f19601f820116905080830192505050505050509192919290505050610aa5565b005b610339610ee5565b604051808273ffffffffffffffffffffffffffffffffffffffff1673ffffffffffffffffffffffffffffffffffffffff16815260200191505060405180910390f35b6103a76004803603602081101561039157600080fd5b8101908080359060200190929190505050610f0b565b005b6103b161109f565b6040518082815260200191505060405180910390f35b6103cf6110a5565b604051808273ffffffffffffffffffffffffffffffffffffffff1673ffffffffffffffffffffffffffffffffffffffff16815260200191505060405180910390f35b6104736004803603604081101561042757600080fd5b81019080803573ffffffffffffffffffffffffffffffffffffffff169060200190929190803573ffffffffffffffffffffffffffffffffffffffff1690602001909291905050506110cb565b005b61052e6004803603602081101561048b57600080fd5b81019080803590602001906401000000008111156104a857600080fd5b8201836020820111156104ba57600080fd5b803590602001918460018302840111640100000000831117156104dc57600080fd5b91908080601f016020809104026020016040519081016040528093929190818152602001838380828437600081840152601f19601f820116905080830192505050505050509192919290505050611216565b005b6000809054906101000a900473ffffffffffffffffffffffffffffffffffffffff1673ffffffffffffffffffffffffffffffffffffffff1663164f25bf83836040518363ffffffff1660e01b8152600401808060200180602001838103835285818151815260200191508051906020019080838360005b838110156105c25780820151818401526020810190506105a7565b50505050905090810190601f1680156105ef5780820380516001836020036101000a031916815260200191505b50838103825284818151815260200191508051906020019080838360005b8381101561062857808201518184015260208101905061060d565b50505050905090810190601f1680156106555780820380516001836020036101000a031916815260200191505b50945050505050600060405180830381600087803b15801561067657600080fd5b505af115801561068a573d6000803e3d6000fd5b5050505060008060009054906101000a900473ffffffffffffffffffffffffffffffffffffffff1673ffffffffffffffffffffffffffffffffffffffff1663c822d7f0846040518263ffffffff1660e01b81526004018080602001828103825283818151815260200191508051906020019080838360005b8381101561071d578082015181840152602081019050610702565b50505050905090810190601f16801561074a5780820380516001836020036101000a031916815260200191505b5092505050604080518083038186803b15801561076657600080fd5b505afa15801561077a573d6000803e3d6000fd5b505050506040513d604081101561079057600080fd5b81019080805190602001909291908051906020019092919050505050905060011515811515146107bc57fe5b606083905060606000809054906101000a900473ffffffffffffffffffffffffffffffffffffffff1673ffffffffffffffffffffffffffffffffffffffff1663149adf58866040518263ffffffff1660e01b81526004018080602001828103825283818151815260200191508051906020019080838360005b83811015610850578082015181840152602081019050610835565b50505050905090810190601f16801561087d5780820380516001836020036101000a031916815260200191505b509250505060006040518083038186803b15801561089a57600080fd5b505afa1580156108ae573d6000803e3d6000fd5b505050506040513d6000823e3d601f19601f8201168201806040525060208110156108d857600080fd5b81019080805160405193929190846401000000008211156108f857600080fd5b8382019150602082018581111561090e57600080fd5b825186600182028301116401000000008211171561092b57600080fd5b8083526020830192505050908051906020019080838360005b8381101561095f578082015181840152602081019050610944565b50505050905090810190601f16801561098c5780820380516001836020036101000a031916815260200191505b5060405250505090507f3fdde72950e6d9c53073a94114bea65c19a2076d1d4ff9390a70519dcbff22dd8282604051808060200180602001838103835285818151815260200191508051906020019080838360005b838110156109fc5780820151818401526020810190506109e1565b50505050905090810190601f168015610a295780820380516001836020036101000a031916815260200191505b50838103825284818151815260200191508051906020019080838360005b83811015610a62578082015181840152602081019050610a47565b50505050905090810190601f168015610a8f5780820380516001836020036101000a031916815260200191505b5094505050505060405180910390a15050505050565b6000809054906101000a900473ffffffffffffffffffffffffffffffffffffffff1673ffffffffffffffffffffffffffffffffffffffff16631692f21f83836040518363ffffffff1660e01b8152600401808060200180602001838103835285818151815260200191508051906020019080838360005b83811015610b37578082015181840152602081019050610b1c565b50505050905090810190601f168015610b645780820380516001836020036101000a031916815260200191505b50838103825284818151815260200191508051906020019080838360005b83811015610b9d578082015181840152602081019050610b82565b50505050905090810190601f168015610bca5780820380516001836020036101000a031916815260200191505b50945050505050600060405180830381600087803b158015610beb57600080fd5b505af1158015610bff573d6000803e3d6000fd5b5050505060606000809054906101000a900473ffffffffffffffffffffffffffffffffffffffff1673ffffffffffffffffffffffffffffffffffffffff1663149adf58846040518263ffffffff1660e01b81526004018080602001828103825283818151815260200191508051906020019080838360005b83811015610c92578082015181840152602081019050610c77565b50505050905090810190601f168015610cbf5780820380516001836020036101000a031916815260200191505b509250505060006040518083038186803b158015610cdc57600080fd5b505afa158015610cf0573d6000803e3d6000fd5b505050506040513d6000823e3d601f19601f820116820180604052506020811015610d1a57600080fd5b8101908080516040519392919084640100000000821115610d3a57600080fd5b83820191506020820185811115610d5057600080fd5b8251866001820283011164010000000082111715610d6d57600080fd5b8083526020830192505050908051906020019080838360005b83811015610da1578082015181840152602081019050610d86565b50505050905090810190601f168015610dce5780820380516001836020036101000a031916815260200191505b5060405250505090507fa3560ee2efe796786b53781edf5691ed5900487a522725140e017119fc1ffe138382604051808060200180602001838103835285818151815260200191508051906020019080838360005b83811015610e3e578082015181840152602081019050610e23565b50505050905090810190601f168015610e6b5780820380516001836020036101000a031916815260200191505b50838103825284818151815260200191508051906020019080838360005b83811015610ea4578082015181840152602081019050610e89565b50505050905090810190601f168015610ed15780820380516001836020036101000a031916815260200191505b5094505050505060405180910390a1505050565b600360009054906101000a900473ffffffffffffffffffffffffffffffffffffffff1681565b600260009054906101000a900473ffffffffffffffffffffffffffffffffffffffff1673ffffffffffffffffffffffffffffffffffffffff1663209df0fa826040518263ffffffff1660e01b815260040180828152602001915050602060405180830381600087803b158015610f8057600080fd5b505af1158015610f94573d6000803e3d6000fd5b505050506040513d6020811015610faa57600080fd5b810190808051906020019092919050505050600260009054906101000a900473ffffffffffffffffffffffffffffffffffffffff1673ffffffffffffffffffffffffffffffffffffffff1663a023cf696040518163ffffffff1660e01b815260040160206040518083038186803b15801561102457600080fd5b505afa158015611038573d6000803e3d6000fd5b505050506040513d602081101561104e57600080fd5b81019080805190602001909291905050506004819055507f5443a9b3a4f844af7ea1bbffa88c16f6f6c35f174ae032da718b6285c6be869c816040518082815260200191505060405180910390a150565b60045481565b600160009054906101000a900473ffffffffffffffffffffffffffffffffffffffff1681565b81600160006101000a81548173ffffffffffffffffffffffffffffffffffffffff021916908373ffffffffffffffffffffffffffffffffffffffff160217905550600160009054906101000a900473ffffffffffffffffffffffffffffffffffffffff166000806101000a81548173ffffffffffffffffffffffffffffffffffffffff021916908373ffffffffffffffffffffffffffffffffffffffff16021790555080600360006101000a81548173ffffffffffffffffffffffffffffffffffffffff021916908373ffffffffffffffffffffffffffffffffffffffff160217905550600360009054906101000a900473ffffffffffffffffffffffffffffffffffffffff16600260006101000a81548173ffffffffffffffffffffffffffffffffffffffff021916908373ffffffffffffffffffffffffffffffffffffffff1602179055505050565b6000809054906101000a900473ffffffffffffffffffffffffffffffffffffffff1673ffffffffffffffffffffffffffffffffffffffff1663fb3e6444826040518263ffffffff1660e01b81526004018080602001828103825283818151815260200191508051906020019080838360005b838110156112a3578082015181840152602081019050611288565b50505050905090810190601f1680156112d05780820380516001836020036101000a031916815260200191505b5092505050600060405180830381600087803b1580156112ef57600080fd5b505af1158015611303573d6000803e3d6000fd5b5050505060606000809054906101000a900473ffffffffffffffffffffffffffffffffffffffff1673ffffffffffffffffffffffffffffffffffffffff16631d6d32ba6040518163ffffffff1660e01b815260040160006040518083038186803b15801561137057600080fd5b505afa158015611384573d6000803e3d6000fd5b505050506040513d6000823e3d601f19601f8201168201806040525060208110156113ae57600080fd5b81019080805160405193929190846401000000008211156113ce57600080fd5b838201915060208201858111156113e457600080fd5b825186600182028301116401000000008211171561140157600080fd5b8083526020830192505050908051906020019080838360005b8381101561143557808201518184015260208101905061141a565b50505050905090810190601f1680156114625780820380516001836020036101000a031916815260200191505b5060405250505090507f38f34884b67bf9d0741f654919f99f08b4b7f9809bef14be841cea0c25586dd5816040518080602001828103825283818151815260200191508051906020019080838360005b838110156114cd5780820151818401526020810190506114b2565b50505050905090810190601f1680156114fa5780820380516001836020036101000a031916815260200191505b509250505060405180910390a1505056fea2646970667358221220aa58ad53fac83827a35057fd6254e3b2e7ea0f25c7fa30c4ae80fdc3c99a155264736f6c63430006020033",
  "source": "pragma solidity >=0.4.22 <0.7.0;\n\n/**\n * @title Controller\n * @dev Create and interact with ZNS\n*/\n\nimport './Registry.sol';\nimport './RegistryToken.sol';\n\ncontract Controller {\n\n    Registry registry;\n    address public registryAddress;\n\n    RegistryToken registryToken;\n    address payable public registryTokenAddress;\n    uint256 public stakePrice;\n\n    /// @notice Emitted when a new registry is created\n    event createdRegistry(address registrtyAddress, address registryTokenAddress);\n\n    /// @notice Emitted when a registry's stake price is updated\n    event stakePriceSet(uint256 newStakePrice);\n\n    /// @notice Emitted when a new entry is created in a specific a registry\n    event createdRegistryEntry(string subdomain, string ref);\n\n    /// @notice Emitted when a new a registry ref is updated\n    event registryRefUpdated(string newRef);\n\n    /// @notice Emitted when a new a registry entry ref is updated\n    event registryEntryRefUpdated(string subdomain, string newRef);\n\n    function init(address _registry, address payable _registryToken) \n        public \n    {\n        registryAddress = _registry;\n        registry = Registry(registryAddress);\n        registryTokenAddress = _registryToken;\n        registryToken = RegistryToken(registryTokenAddress);\n    }\n\n    /**\n     * @notice Sets a new stake price for a registries stake token\n     * @param _newStakePrice The new stake price to be used by the registry\n     */\n\n    function setStakePrice(uint256 _newStakePrice)\n        public\n    {\n        registryToken.setStakePrice(_newStakePrice);\n        stakePrice = registryToken.stakePrice();\n\n        emit stakePriceSet(_newStakePrice);\n    }\n\n    /**\n     * @notice Creates a new registry entry within a specific registry\n     * @param _subdomain The subdomain that will be created within the registry entry\n     * @param _ref The user-defined reference (such as a domain) that the subdomain will point to\n     */\n\n    function createRegistryEntry(\n        string memory _subdomain,\n        string memory _ref)\n        public\n    {\n        registry.createRegistryEntry(_subdomain, _ref);\n        (bool isRegistered, ) = registry.isRegistered(_subdomain);\n        assert(isRegistered==true);\n\n        string memory currentRegistrySubdomain = _subdomain;\n        string memory currentRegistryRef = registry.getRegistryEntryRef(_subdomain);\n        \n        emit createdRegistryEntry(currentRegistrySubdomain, currentRegistryRef);\n    }\n\n    /**\n     * @notice Updates a registry's ref value\n     * @param _newRef The new ref value to be updated to\n     */\n\n    function setRegistryRef(\n        string memory _newRef)\n        public\n    {\n        registry.setRegistryRef(_newRef);        \n        string memory currentRegistryRef = registry.getRef();\n\n        emit registryRefUpdated(currentRegistryRef);\n    }\n\n    /**\n     * @notice Updates a registry entries ref value\n     * @param _subdomain The subdomain of the registry entry to be updated\n     * @param _newRef The new ref value to be updated in the registry entry\n     */\n\n    function setRegistryEntryRef(\n        string memory _subdomain,\n        string memory _newRef)\n        public\n    {\n        registry.setRegistryEntryRef(_subdomain, _newRef);\n        string memory currentRegistryEntryRef = registry.getRegistryEntryRef(_subdomain);\n\n        emit registryEntryRefUpdated(_subdomain, currentRegistryEntryRef);\n    }\n}",
  "sourcePath": "/Users/neo/Code/ZNS/contracts/Controller.sol",
  "compiler": {
    "name": "solc",
    "version": "0.6.2+commit.bacdbe57.Emscripten.clang"
  },
  "schemaVersion": "3.2.5",
  "updatedAt": "2020-09-14T05:13:08.295Z",
  "networkType": "ethereum",
  "devdoc": {
    "methods": {
      "createRegistryEntry(string,string)": {
        "params": {
          "_ref": "The user-defined reference (such as a domain) that the subdomain will point to",
          "_subdomain": "The subdomain that will be created within the registry entry"
        }
      },
      "setRegistryEntryRef(string,string)": {
        "params": {
          "_newRef": "The new ref value to be updated in the registry entry",
          "_subdomain": "The subdomain of the registry entry to be updated"
        }
      },
      "setRegistryRef(string)": {
        "params": {
          "_newRef": "The new ref value to be updated to"
        }
      },
      "setStakePrice(uint256)": {
        "params": {
          "_newStakePrice": "The new stake price to be used by the registry"
        }
      }
    }
  },
  "userdoc": {
    "methods": {
      "createRegistryEntry(string,string)": {
        "notice": "Creates a new registry entry within a specific registry"
      },
      "setRegistryEntryRef(string,string)": {
        "notice": "Updates a registry entries ref value"
      },
      "setRegistryRef(string)": {
        "notice": "Updates a registry's ref value"
      },
      "setStakePrice(uint256)": {
        "notice": "Sets a new stake price for a registries stake token"
      }
    }
  }
}