{
  "contractName": "HandleRegistry",
  "abi": [
    {
      "inputs": [],
      "payable": true,
      "stateMutability": "payable",
      "type": "constructor"
    },
    {
      "constant": true,
      "inputs": [
        {
          "internalType": "uint256",
          "name": "",
          "type": "uint256"
        }
      ],
      "name": "handles",
      "outputs": [
        {
          "internalType": "address",
          "name": "owner",
          "type": "address"
        },
        {
          "internalType": "string",
          "name": "handle",
          "type": "string"
        },
        {
          "internalType": "string",
          "name": "zId",
          "type": "string"
        },
        {
          "internalType": "bool",
          "name": "isVerified",
          "type": "bool"
        }
      ],
      "payable": false,
      "stateMutability": "view",
      "type": "function"
    },
    {
      "constant": false,
      "inputs": [
        {
          "internalType": "address payable",
          "name": "_owner",
          "type": "address"
        },
        {
          "internalType": "string",
          "name": "_handle",
          "type": "string"
        },
        {
          "internalType": "string",
          "name": "_zId",
          "type": "string"
        }
      ],
      "name": "registerHandle",
      "outputs": [],
      "payable": false,
      "stateMutability": "nonpayable",
      "type": "function"
    },
    {
      "constant": true,
      "inputs": [
        {
          "internalType": "string",
          "name": "_zId",
          "type": "string"
        }
      ],
      "name": "zIdCheck",
      "outputs": [
        {
          "internalType": "bool",
          "name": "",
          "type": "bool"
        }
      ],
      "payable": false,
      "stateMutability": "pure",
      "type": "function"
    },
    {
      "constant": true,
      "inputs": [
        {
          "internalType": "string",
          "name": "_handle",
          "type": "string"
        }
      ],
      "name": "getHandleAvailability",
      "outputs": [
        {
          "internalType": "bool",
          "name": "",
          "type": "bool"
        }
      ],
      "payable": false,
      "stateMutability": "view",
      "type": "function"
    },
    {
      "constant": true,
      "inputs": [
        {
          "internalType": "string",
          "name": "_handle",
          "type": "string"
        }
      ],
      "name": "getHandleAddress",
      "outputs": [
        {
          "internalType": "address",
          "name": "",
          "type": "address"
        }
      ],
      "payable": false,
      "stateMutability": "view",
      "type": "function"
    },
    {
      "constant": false,
      "inputs": [
        {
          "internalType": "address payable",
          "name": "_owner",
          "type": "address"
        }
      ],
      "name": "stakeInfinity",
      "outputs": [
        {
          "internalType": "bool",
          "name": "",
          "type": "bool"
        }
      ],
      "payable": true,
      "stateMutability": "payable",
      "type": "function"
    }
  ],
  "bytecode": "0x60806040526111af806100136000396000f3fe6080604052600436106100555760003560e01c8063080b09f31461005a57806326331fc81461016257806336d58eec146102e157806363e2996b146103c1578063fdb265b01461041d578063ff2ea3911461057b575b600080fd5b34801561006657600080fd5b506101206004803603602081101561007d57600080fd5b810190808035906020019064010000000081111561009a57600080fd5b8201836020820111156100ac57600080fd5b803590602001918460018302840111640100000000831117156100ce57600080fd5b91908080601f016020809104026020016040519081016040528093929190818152602001838380828437600081840152601f19601f82011690508083019250505050505050919291929050505061065b565b604051808273ffffffffffffffffffffffffffffffffffffffff1673ffffffffffffffffffffffffffffffffffffffff16815260200191505060405180910390f35b34801561016e57600080fd5b506102df6004803603606081101561018557600080fd5b81019080803573ffffffffffffffffffffffffffffffffffffffff169060200190929190803590602001906401000000008111156101c257600080fd5b8201836020820111156101d457600080fd5b803590602001918460018302840111640100000000831117156101f657600080fd5b91908080601f016020809104026020016040519081016040528093929190818152602001838380828437600081840152601f19601f8201169050808301925050505050505091929192908035906020019064010000000081111561025957600080fd5b82018360208201111561026b57600080fd5b8035906020019184600183028401116401000000008311171561028d57600080fd5b91908080601f016020809104026020016040519081016040528093929190818152602001838380828437600081840152601f19601f82011690508083019250505050505050919291929050505061089d565b005b3480156102ed57600080fd5b506103a76004803603602081101561030457600080fd5b810190808035906020019064010000000081111561032157600080fd5b82018360208201111561033357600080fd5b8035906020019184600183028401116401000000008311171561035557600080fd5b91908080601f016020809104026020016040519081016040528093929190818152602001838380828437600081840152601f19601f820116905080830192505050505050509192919290505050610ac7565b604051808215151515815260200191505060405180910390f35b610403600480360360208110156103d757600080fd5b81019080803573ffffffffffffffffffffffffffffffffffffffff169060200190929190505050610b03565b604051808215151515815260200191505060405180910390f35b34801561042957600080fd5b506104566004803603602081101561044057600080fd5b8101908080359060200190929190505050610b96565b604051808573ffffffffffffffffffffffffffffffffffffffff1673ffffffffffffffffffffffffffffffffffffffff168152602001806020018060200184151515158152602001838103835286818151815260200191508051906020019080838360005b838110156104d65780820151818401526020810190506104bb565b50505050905090810190601f1680156105035780820380516001836020036101000a031916815260200191505b50838103825285818151815260200191508051906020019080838360005b8381101561053c578082015181840152602081019050610521565b50505050905090810190601f1680156105695780820380516001836020036101000a031916815260200191505b50965050505050505060405180910390f35b34801561058757600080fd5b506106416004803603602081101561059e57600080fd5b81019080803590602001906401000000008111156105bb57600080fd5b8201836020820111156105cd57600080fd5b803590602001918460018302840111640100000000831117156105ef57600080fd5b91908080601f016020809104026020016040519081016040528093929190818152602001838380828437600081840152601f19601f820116905080830192505050505050509192919290505050610d30565b604051808215151515815260200191505060405180910390f35b6000610665610fe4565b6000836040518082805190602001908083835b6020831061069b5780518252602082019150602081019050602083039250610678565b6001836020036101000a03801982511681845116808217855250505050505090500191505090815260200160405180910390206040518060800160405290816000820160009054906101000a900473ffffffffffffffffffffffffffffffffffffffff1673ffffffffffffffffffffffffffffffffffffffff1673ffffffffffffffffffffffffffffffffffffffff168152602001600182018054600181600116156101000203166002900480601f0160208091040260200160405190810160405280929190818152602001828054600181600116156101000203166002900480156107c85780601f1061079d576101008083540402835291602001916107c8565b820191906000526020600020905b8154815290600101906020018083116107ab57829003601f168201915b50505050508152602001600282018054600181600116156101000203166002900480601f01602080910402602001604051908101604052809291908181526020018280546001816001161561010002031660029004801561086a5780601f1061083f5761010080835404028352916020019161086a565b820191906000526020600020905b81548152906001019060200180831161084d57829003601f168201915b505050505081526020016003820160009054906101000a900460ff16151515158152505090508060000151915050919050565b6108a681610ac7565b6108af57600080fd5b6108b882610d30565b6108c157600080fd5b6108ca83610b03565b50600080836040518082805190602001908083835b6020831061090257805182526020820191506020810190506020830392506108df565b6001836020036101000a03801982511681845116808217855250505050505090500191505090815260200160405180910390209050838160000160006101000a81548173ffffffffffffffffffffffffffffffffffffffff021916908373ffffffffffffffffffffffffffffffffffffffff16021790555082816001019080519060200190610992929190611024565b50818160020190805190602001906109ab929190611024565b50600181908060018154018082558091505090600182039060005260206000209060040201600090919290919091506000820160009054906101000a900473ffffffffffffffffffffffffffffffffffffffff168160000160006101000a81548173ffffffffffffffffffffffffffffffffffffffff021916908373ffffffffffffffffffffffffffffffffffffffff16021790555060018201816001019080546001816001161561010002031660029004610a689291906110a4565b5060028201816002019080546001816001161561010002031660029004610a909291906110a4565b506003820160009054906101000a900460ff168160030160006101000a81548160ff02191690831515021790555050505050505050565b6000610aeb826040518060600160405280602a8152602001611151602a9139610fb6565b15610af95760019050610afe565b600090505b919050565b60008173ffffffffffffffffffffffffffffffffffffffff163373ffffffffffffffffffffffffffffffffffffffff161415610b905760008290508073ffffffffffffffffffffffffffffffffffffffff166108fc60019081150290604051600060405180830381858888f19350505050158015610b85573d6000803e3d6000fd5b506001915050610b91565b5b919050565b60018181548110610ba357fe5b90600052602060002090600402016000915090508060000160009054906101000a900473ffffffffffffffffffffffffffffffffffffffff1690806001018054600181600116156101000203166002900480601f016020809104026020016040519081016040528092919081815260200182805460018160011615610100020316600290048015610c755780601f10610c4a57610100808354040283529160200191610c75565b820191906000526020600020905b815481529060010190602001808311610c5857829003601f168201915b505050505090806002018054600181600116156101000203166002900480601f016020809104026020016040519081016040528092919081815260200182805460018160011615610100020316600290048015610d135780601f10610ce857610100808354040283529160200191610d13565b820191906000526020600020905b815481529060010190602001808311610cf657829003601f168201915b5050505050908060030160009054906101000a900460ff16905084565b6000610d3a610fe4565b6000836040518082805190602001908083835b60208310610d705780518252602082019150602081019050602083039250610d4d565b6001836020036101000a03801982511681845116808217855250505050505090500191505090815260200160405180910390206040518060800160405290816000820160009054906101000a900473ffffffffffffffffffffffffffffffffffffffff1673ffffffffffffffffffffffffffffffffffffffff1673ffffffffffffffffffffffffffffffffffffffff168152602001600182018054600181600116156101000203166002900480601f016020809104026020016040519081016040528092919081815260200182805460018160011615610100020316600290048015610e9d5780601f10610e7257610100808354040283529160200191610e9d565b820191906000526020600020905b815481529060010190602001808311610e8057829003601f168201915b50505050508152602001600282018054600181600116156101000203166002900480601f016020809104026020016040519081016040528092919081815260200182805460018160011615610100020316600290048015610f3f5780601f10610f1457610100808354040283529160200191610f3f565b820191906000526020600020905b815481529060010190602001808311610f2257829003601f168201915b505050505081526020016003820160009054906101000a900460ff1615151515815250509050600081600001519050600073ffffffffffffffffffffffffffffffffffffffff168173ffffffffffffffffffffffffffffffffffffffff161415610fae57600192505050610fb1565b50505b919050565b600060608390506060839050805182511415610fd757600192505050610fde565b6000925050505b92915050565b6040518060800160405280600073ffffffffffffffffffffffffffffffffffffffff16815260200160608152602001606081526020016000151581525090565b828054600181600116156101000203166002900490600052602060002090601f016020900481019282601f1061106557805160ff1916838001178555611093565b82800160010185558215611093579182015b82811115611092578251825591602001919060010190611077565b5b5090506110a0919061112b565b5090565b828054600181600116156101000203166002900490600052602060002090601f016020900481019282601f106110dd578054855561111a565b8280016001018555821561111a57600052602060002091601f016020900482015b828111156111195782548255916001019190600101906110fe565b5b509050611127919061112b565b5090565b61114d91905b80821115611149576000816000905550600101611131565b5090565b9056fe307833364241363863354237313534303541333733433543376142436461363235453235463339313735a265627a7a7231582012e8493b1d7848d94f45cb83c7da6c8de8729490cdffe29bac584fb0fa33e98f64736f6c63430005100032",
  "source": "pragma solidity >=0.4.22 <0.7.0;\n\n/**\n * @title Registry\n * @dev Store & retrieve registered ZNS Handle entries\n*/\n\ncontract HandleRegistry {\n\n    struct HandleRegistration {\n        address owner;\n        string handle;\n        string zId;\n        bool isVerified;\n    }\n\n    mapping (string => HandleRegistration) handleMap;\n    HandleRegistration[] public handles;\n    \n    constructor() public payable { }\n\n    function registerHandle(address payable _owner, string memory _handle, string memory _zId) public {\n        require(zIdCheck(_zId));\n        require(getHandleAvailability(_handle));\n        stakeInfinity(_owner);\n\n        HandleRegistration storage registration = handleMap[_handle];\n        \n        registration.owner = _owner;\n        registration.handle = _handle; \n        registration.zId = _zId;\n        \n        handles.push(registration);\n    }\n \n    function zIdCheck(string memory _zId) public pure returns (bool) {\n        if(stringsEqual(_zId, \"0x36BA68c5B715405A373C5C7aBCda625E25F39175\")) {\n            return true;\n        } else {\n            return false;\n        }\n    }\n    \n    function getHandleAvailability(string memory _handle) public view returns (bool) {\n        HandleRegistration memory registration = handleMap[_handle];\n        address handleAddress = registration.owner;\n        if(handleAddress==address(0)) {\n            return true;\n        }\n    }\n    \n    function getHandleAddress(string memory _handle) public view returns (address) {\n        HandleRegistration memory registration = handleMap[_handle];\n        return registration.owner;\n    }\n    \n    function stakeInfinity(address payable _owner) payable public returns (bool) {\n        if(msg.sender == _owner) {\n            address payable owner = _owner;\n            owner.transfer(1);\n            return true;\n        }\n    }\n    \n    function stringsEqual(string memory _a, string memory _b) internal pure returns (bool) {\n        bytes memory a = bytes(_a);\n        bytes memory b = bytes(_b);\n        if(bytes(a).length==bytes(b).length) {\n            return true;\n        } else {\n            return false;\n        }\n    }\n}\n\n// >> to_do:\n\n// 0. check if entry already exists [DONE]\n// 1. check if zId is valid [semi-DONE]\n// 3. charge xx Infinity in order to enter ... \n// 4. verify from DAO \n\n\n",
  "sourcePath": "/home/s9/code/ZNS/contracts/HandleRegistry.sol",
  "compiler": {
    "name": "solc",
    "version": "0.5.16+commit.9c3226ce.Emscripten.clang"
  },
  "schemaVersion": "3.2.3",
  "updatedAt": "2020-08-19T04:28:57.204Z",
  "devdoc": {
    "details": "Store & retrieve registered ZNS Handle entries",
    "methods": {},
    "title": "Registry"
  },
  "userdoc": {
    "methods": {}
  }
}