{
  "contractName": "HandleRegistry",
  "abi": [
    {
      "inputs": [],
      "stateMutability": "payable",
      "type": "constructor"
    },
    {
      "inputs": [
        {
          "internalType": "uint256",
          "name": "",
          "type": "uint256"
        }
      ],
      "name": "handles",
      "outputs": [
        {
          "internalType": "address",
          "name": "owner",
          "type": "address"
        },
        {
          "internalType": "string",
          "name": "handle",
          "type": "string"
        },
        {
          "internalType": "string",
          "name": "zId",
          "type": "string"
        },
        {
          "internalType": "bool",
          "name": "isVerified",
          "type": "bool"
        }
      ],
      "stateMutability": "view",
      "type": "function"
    },
    {
      "inputs": [
        {
          "internalType": "address payable",
          "name": "_owner",
          "type": "address"
        },
        {
          "internalType": "string",
          "name": "_handle",
          "type": "string"
        },
        {
          "internalType": "string",
          "name": "_zId",
          "type": "string"
        }
      ],
      "name": "registerHandle",
      "outputs": [],
      "stateMutability": "nonpayable",
      "type": "function"
    },
    {
      "inputs": [
        {
          "internalType": "string",
          "name": "_zId",
          "type": "string"
        }
      ],
      "name": "zIdCheck",
      "outputs": [
        {
          "internalType": "bool",
          "name": "",
          "type": "bool"
        }
      ],
      "stateMutability": "pure",
      "type": "function"
    },
    {
      "inputs": [
        {
          "internalType": "string",
          "name": "_handle",
          "type": "string"
        }
      ],
      "name": "getHandleAvailability",
      "outputs": [
        {
          "internalType": "bool",
          "name": "",
          "type": "bool"
        }
      ],
      "stateMutability": "view",
      "type": "function"
    },
    {
      "inputs": [
        {
          "internalType": "string",
          "name": "_handle",
          "type": "string"
        }
      ],
      "name": "getHandleAddress",
      "outputs": [
        {
          "internalType": "address",
          "name": "",
          "type": "address"
        }
      ],
      "stateMutability": "view",
      "type": "function"
    },
    {
      "inputs": [
        {
          "internalType": "address payable",
          "name": "_owner",
          "type": "address"
        }
      ],
      "name": "stakeInfinity",
      "outputs": [
        {
          "internalType": "bool",
          "name": "",
          "type": "bool"
        }
      ],
      "stateMutability": "payable",
      "type": "function"
    }
  ],
  "bytecode": "0x60806040526111ad806100136000396000f3fe6080604052600436106100555760003560e01c8063080b09f31461005a57806326331fc81461016257806336d58eec146102e157806363e2996b146103c1578063fdb265b01461041d578063ff2ea3911461057b575b600080fd5b34801561006657600080fd5b506101206004803603602081101561007d57600080fd5b810190808035906020019064010000000081111561009a57600080fd5b8201836020820111156100ac57600080fd5b803590602001918460018302840111640100000000831117156100ce57600080fd5b91908080601f016020809104026020016040519081016040528093929190818152602001838380828437600081840152601f19601f82011690508083019250505050505050919291929050505061065b565b604051808273ffffffffffffffffffffffffffffffffffffffff1673ffffffffffffffffffffffffffffffffffffffff16815260200191505060405180910390f35b34801561016e57600080fd5b506102df6004803603606081101561018557600080fd5b81019080803573ffffffffffffffffffffffffffffffffffffffff169060200190929190803590602001906401000000008111156101c257600080fd5b8201836020820111156101d457600080fd5b803590602001918460018302840111640100000000831117156101f657600080fd5b91908080601f016020809104026020016040519081016040528093929190818152602001838380828437600081840152601f19601f8201169050808301925050505050505091929192908035906020019064010000000081111561025957600080fd5b82018360208201111561026b57600080fd5b8035906020019184600183028401116401000000008311171561028d57600080fd5b91908080601f016020809104026020016040519081016040528093929190818152602001838380828437600081840152601f19601f82011690508083019250505050505050919291929050505061089d565b005b3480156102ed57600080fd5b506103a76004803603602081101561030457600080fd5b810190808035906020019064010000000081111561032157600080fd5b82018360208201111561033357600080fd5b8035906020019184600183028401116401000000008311171561035557600080fd5b91908080601f016020809104026020016040519081016040528093929190818152602001838380828437600081840152601f19601f820116905080830192505050505050509192919290505050610ac4565b604051808215151515815260200191505060405180910390f35b610403600480360360208110156103d757600080fd5b81019080803573ffffffffffffffffffffffffffffffffffffffff169060200190929190505050610b00565b604051808215151515815260200191505060405180910390f35b34801561042957600080fd5b506104566004803603602081101561044057600080fd5b8101908080359060200190929190505050610b93565b604051808573ffffffffffffffffffffffffffffffffffffffff1673ffffffffffffffffffffffffffffffffffffffff168152602001806020018060200184151515158152602001838103835286818151815260200191508051906020019080838360005b838110156104d65780820151818401526020810190506104bb565b50505050905090810190601f1680156105035780820380516001836020036101000a031916815260200191505b50838103825285818151815260200191508051906020019080838360005b8381101561053c578082015181840152602081019050610521565b50505050905090810190601f1680156105695780820380516001836020036101000a031916815260200191505b50965050505050505060405180910390f35b34801561058757600080fd5b506106416004803603602081101561059e57600080fd5b81019080803590602001906401000000008111156105bb57600080fd5b8201836020820111156105cd57600080fd5b803590602001918460018302840111640100000000831117156105ef57600080fd5b91908080601f016020809104026020016040519081016040528093929190818152602001838380828437600081840152601f19601f820116905080830192505050505050509192919290505050610d2d565b604051808215151515815260200191505060405180910390f35b6000610665610fe1565b6000836040518082805190602001908083835b6020831061069b5780518252602082019150602081019050602083039250610678565b6001836020036101000a03801982511681845116808217855250505050505090500191505090815260200160405180910390206040518060800160405290816000820160009054906101000a900473ffffffffffffffffffffffffffffffffffffffff1673ffffffffffffffffffffffffffffffffffffffff1673ffffffffffffffffffffffffffffffffffffffff168152602001600182018054600181600116156101000203166002900480601f0160208091040260200160405190810160405280929190818152602001828054600181600116156101000203166002900480156107c85780601f1061079d576101008083540402835291602001916107c8565b820191906000526020600020905b8154815290600101906020018083116107ab57829003601f168201915b50505050508152602001600282018054600181600116156101000203166002900480601f01602080910402602001604051908101604052809291908181526020018280546001816001161561010002031660029004801561086a5780601f1061083f5761010080835404028352916020019161086a565b820191906000526020600020905b81548152906001019060200180831161084d57829003601f168201915b505050505081526020016003820160009054906101000a900460ff16151515158152505090508060000151915050919050565b6108a681610ac4565b6108af57600080fd5b6108b882610d2d565b6108c157600080fd5b6108ca83610b00565b50600080836040518082805190602001908083835b6020831061090257805182526020820191506020810190506020830392506108df565b6001836020036101000a03801982511681845116808217855250505050505090500191505090815260200160405180910390209050838160000160006101000a81548173ffffffffffffffffffffffffffffffffffffffff021916908373ffffffffffffffffffffffffffffffffffffffff16021790555082816001019080519060200190610992929190611021565b50818160020190805190602001906109ab929190611021565b5060018190806001815401808255809150506001900390600052602060002090600402016000909190919091506000820160009054906101000a900473ffffffffffffffffffffffffffffffffffffffff168160000160006101000a81548173ffffffffffffffffffffffffffffffffffffffff021916908373ffffffffffffffffffffffffffffffffffffffff16021790555060018201816001019080546001816001161561010002031660029004610a669291906110a1565b5060028201816002019080546001816001161561010002031660029004610a8e9291906110a1565b506003820160009054906101000a900460ff168160030160006101000a81548160ff021916908315150217905550505050505050565b6000610ae8826040518060600160405280602a815260200161114e602a9139610fb3565b15610af65760019050610afb565b600090505b919050565b60008173ffffffffffffffffffffffffffffffffffffffff163373ffffffffffffffffffffffffffffffffffffffff161415610b8d5760008290508073ffffffffffffffffffffffffffffffffffffffff166108fc60019081150290604051600060405180830381858888f19350505050158015610b82573d6000803e3d6000fd5b506001915050610b8e565b5b919050565b60018181548110610ba057fe5b90600052602060002090600402016000915090508060000160009054906101000a900473ffffffffffffffffffffffffffffffffffffffff1690806001018054600181600116156101000203166002900480601f016020809104026020016040519081016040528092919081815260200182805460018160011615610100020316600290048015610c725780601f10610c4757610100808354040283529160200191610c72565b820191906000526020600020905b815481529060010190602001808311610c5557829003601f168201915b505050505090806002018054600181600116156101000203166002900480601f016020809104026020016040519081016040528092919081815260200182805460018160011615610100020316600290048015610d105780601f10610ce557610100808354040283529160200191610d10565b820191906000526020600020905b815481529060010190602001808311610cf357829003601f168201915b5050505050908060030160009054906101000a900460ff16905084565b6000610d37610fe1565b6000836040518082805190602001908083835b60208310610d6d5780518252602082019150602081019050602083039250610d4a565b6001836020036101000a03801982511681845116808217855250505050505090500191505090815260200160405180910390206040518060800160405290816000820160009054906101000a900473ffffffffffffffffffffffffffffffffffffffff1673ffffffffffffffffffffffffffffffffffffffff1673ffffffffffffffffffffffffffffffffffffffff168152602001600182018054600181600116156101000203166002900480601f016020809104026020016040519081016040528092919081815260200182805460018160011615610100020316600290048015610e9a5780601f10610e6f57610100808354040283529160200191610e9a565b820191906000526020600020905b815481529060010190602001808311610e7d57829003601f168201915b50505050508152602001600282018054600181600116156101000203166002900480601f016020809104026020016040519081016040528092919081815260200182805460018160011615610100020316600290048015610f3c5780601f10610f1157610100808354040283529160200191610f3c565b820191906000526020600020905b815481529060010190602001808311610f1f57829003601f168201915b505050505081526020016003820160009054906101000a900460ff1615151515815250509050600081600001519050600073ffffffffffffffffffffffffffffffffffffffff168173ffffffffffffffffffffffffffffffffffffffff161415610fab57600192505050610fae565b50505b919050565b600060608390506060839050805182511415610fd457600192505050610fdb565b6000925050505b92915050565b6040518060800160405280600073ffffffffffffffffffffffffffffffffffffffff16815260200160608152602001606081526020016000151581525090565b828054600181600116156101000203166002900490600052602060002090601f016020900481019282601f1061106257805160ff1916838001178555611090565b82800160010185558215611090579182015b8281111561108f578251825591602001919060010190611074565b5b50905061109d9190611128565b5090565b828054600181600116156101000203166002900490600052602060002090601f016020900481019282601f106110da5780548555611117565b8280016001018555821561111757600052602060002091601f016020900482015b828111156111165782548255916001019190600101906110fb565b5b5090506111249190611128565b5090565b61114a91905b8082111561114657600081600090555060010161112e565b5090565b9056fe307833364241363863354237313534303541333733433543376142436461363235453235463339313735a264697066735822122010f41f7449a6c5b35837345ea89fcb55a75307c318a0d6cb9ce22fe3599cdbb064736f6c63430006020033",
  "source": "pragma solidity >=0.4.22 <0.7.0;\n\n/**\n * @title Registry\n * @dev Store & retrieve registered ZNS Handle entries\n*/\n\ncontract HandleRegistry {\n\n    struct HandleRegistration {\n        address owner;\n        string handle;\n        string zId;\n        bool isVerified;\n    }\n\n    mapping (string => HandleRegistration) handleMap;\n    HandleRegistration[] public handles;\n    \n    constructor() public payable { }\n\n    function registerHandle(address payable _owner, string memory _handle, string memory _zId) public {\n        require(zIdCheck(_zId));\n        require(getHandleAvailability(_handle));\n        stakeInfinity(_owner);\n\n        HandleRegistration storage registration = handleMap[_handle];\n        \n        registration.owner = _owner;\n        registration.handle = _handle; \n        registration.zId = _zId;\n        \n        handles.push(registration);\n    }\n \n    function zIdCheck(string memory _zId) public pure returns (bool) {\n        if(stringsEqual(_zId, \"0x36BA68c5B715405A373C5C7aBCda625E25F39175\")) {\n            return true;\n        } else {\n            return false;\n        }\n    }\n    \n    function getHandleAvailability(string memory _handle) public view returns (bool) {\n        HandleRegistration memory registration = handleMap[_handle];\n        address handleAddress = registration.owner;\n        if(handleAddress==address(0)) {\n            return true;\n        }\n    }\n    \n    function getHandleAddress(string memory _handle) public view returns (address) {\n        HandleRegistration memory registration = handleMap[_handle];\n        return registration.owner;\n    }\n    \n    function stakeInfinity(address payable _owner) payable public returns (bool) {\n        if(msg.sender == _owner) {\n            address payable owner = _owner;\n            owner.transfer(1);\n            return true;\n        }\n    }\n    \n    function stringsEqual(string memory _a, string memory _b) internal pure returns (bool) {\n        bytes memory a = bytes(_a);\n        bytes memory b = bytes(_b);\n        if(bytes(a).length==bytes(b).length) {\n            return true;\n        } else {\n            return false;\n        }\n    }\n}\n\n// >> to_do:\n\n// 0. check if entry already exists [DONE]\n// 1. check if zId is valid [semi-DONE]\n// 3. charge xx Infinity in order to enter ... \n// 4. verify from DAO \n\n\n",
  "sourcePath": "/Users/neo/Code/ZNS/contracts/HandleRegistry.sol",
  "compiler": {
    "name": "solc",
    "version": "0.6.2+commit.bacdbe57.Emscripten.clang"
  },
  "schemaVersion": "3.2.3",
  "updatedAt": "2020-08-28T07:35:23.845Z",
  "devdoc": {
    "details": "Store & retrieve registered ZNS Handle entries",
    "methods": {},
    "title": "Registry"
  },
  "userdoc": {
    "methods": {}
  }
}