{
  "contractName": "ProxyAdmin",
  "abi": [
    {
      "anonymous": false,
      "inputs": [
        {
          "indexed": false,
          "internalType": "address",
          "name": "_owner",
          "type": "address"
        }
      ],
      "name": "Initialized",
      "type": "event"
    },
    {
      "anonymous": false,
      "inputs": [
        {
          "indexed": true,
          "internalType": "address",
          "name": "previousOwner",
          "type": "address"
        },
        {
          "indexed": true,
          "internalType": "address",
          "name": "newOwner",
          "type": "address"
        }
      ],
      "name": "OwnershipTransferred",
      "type": "event"
    },
    {
      "inputs": [],
      "name": "owner",
      "outputs": [
        {
          "internalType": "address",
          "name": "",
          "type": "address"
        }
      ],
      "stateMutability": "view",
      "type": "function",
      "constant": true
    },
    {
      "inputs": [],
      "name": "renounceOwnership",
      "outputs": [],
      "stateMutability": "nonpayable",
      "type": "function"
    },
    {
      "inputs": [
        {
          "internalType": "address",
          "name": "newOwner",
          "type": "address"
        }
      ],
      "name": "transferOwnership",
      "outputs": [],
      "stateMutability": "nonpayable",
      "type": "function"
    },
    {
      "inputs": [
        {
          "internalType": "address",
          "name": "_owner",
          "type": "address"
        }
      ],
      "name": "initialize",
      "outputs": [],
      "stateMutability": "nonpayable",
      "type": "function"
    },
    {
      "inputs": [
        {
          "internalType": "address payable",
          "name": "_transparentProxyAddress",
          "type": "address"
        }
      ],
      "name": "getTransparentProxyAdmin",
      "outputs": [
        {
          "internalType": "address",
          "name": "",
          "type": "address"
        }
      ],
      "stateMutability": "nonpayable",
      "type": "function"
    },
    {
      "inputs": [
        {
          "internalType": "address payable",
          "name": "_transparentProxyAddress",
          "type": "address"
        }
      ],
      "name": "getProxyImplementation",
      "outputs": [
        {
          "internalType": "address",
          "name": "",
          "type": "address"
        }
      ],
      "stateMutability": "nonpayable",
      "type": "function"
    },
    {
      "inputs": [
        {
          "internalType": "address payable",
          "name": "_transparentProxyAddress",
          "type": "address"
        },
        {
          "internalType": "address payable",
          "name": "_transparentProxyUpgradeAddress",
          "type": "address"
        }
      ],
      "name": "upgradeTransparentProxy",
      "outputs": [],
      "stateMutability": "nonpayable",
      "type": "function"
    }
  ],
  "bytecode": "0x608060405234801561001057600080fd5b506109b4806100206000396000f3fe608060405234801561001057600080fd5b506004361061007d5760003560e01c80638da5cb5b1161005b5780638da5cb5b146100f4578063c4d66de8146100fc578063f2fde38b14610122578063fc683a09146101485761007d565b8063204e1c7a146100825780634c2ae66d146100c4578063715018a6146100ea575b600080fd5b6100a86004803603602081101561009857600080fd5b50356001600160a01b0316610176565b604080516001600160a01b039092168252519081900360200190f35b6100a8600480360360208110156100da57600080fd5b50356001600160a01b0316610243565b6100f26102dd565b005b6100a861037f565b6100f26004803603602081101561011257600080fd5b50356001600160a01b031661038e565b6100f26004803603602081101561013857600080fd5b50356001600160a01b03166104fc565b6100f26004803603604081101561015e57600080fd5b506001600160a01b03813581169160200135166105f5565b60006101806106b5565b6065546001600160a01b039081169116146101d0576040805162461bcd60e51b81526020600482018190526024820152600080516020610931833981519152604482015290519081900360640190fd5b6000829050806001600160a01b0316635c60da1b6040518163ffffffff1660e01b8152600401602060405180830381600087803b15801561021057600080fd5b505af1158015610224573d6000803e3d6000fd5b505050506040513d602081101561023a57600080fd5b50519392505050565b600061024d6106b5565b6065546001600160a01b0390811691161461029d576040805162461bcd60e51b81526020600482018190526024820152600080516020610931833981519152604482015290519081900360640190fd5b6000829050806001600160a01b031663f851a4406040518163ffffffff1660e01b8152600401602060405180830381600087803b15801561021057600080fd5b6102e56106b5565b6065546001600160a01b03908116911614610335576040805162461bcd60e51b81526020600482018190526024820152600080516020610931833981519152604482015290519081900360640190fd5b6065546040516000916001600160a01b0316907f8be0079c531659141344cd1fd0a4f28419497f9722a3daafe3b4186f6b6457e0908390a3606580546001600160a01b0319169055565b6065546001600160a01b031690565b600054610100900460ff16806103a757506103a76106b9565b806103b5575060005460ff16155b6103f05760405162461bcd60e51b815260040180806020018281038252602e815260200180610951602e913960400191505060405180910390fd5b600054610100900460ff1615801561041b576000805460ff1961ff0019909116610100171660011790555b6104236106bf565b6001600160a01b038216331461043c5761043c826104fc565b610445826104fc565b7f908408e307fc569b417f6cbec5d5a06f44a0a505ac0479b47d421a4b2fd6a1e6306001600160a01b0316638da5cb5b6040518163ffffffff1660e01b815260040160206040518083038186803b15801561049f57600080fd5b505afa1580156104b3573d6000803e3d6000fd5b505050506040513d60208110156104c957600080fd5b5051604080516001600160a01b039092168252519081900360200190a180156104f8576000805461ff00191690555b5050565b6105046106b5565b6065546001600160a01b03908116911614610554576040805162461bcd60e51b81526020600482018190526024820152600080516020610931833981519152604482015290519081900360640190fd5b6001600160a01b0381166105995760405162461bcd60e51b815260040180806020018281038252602681526020018061090b6026913960400191505060405180910390fd5b6065546040516001600160a01b038084169216907f8be0079c531659141344cd1fd0a4f28419497f9722a3daafe3b4186f6b6457e090600090a3606580546001600160a01b0319166001600160a01b0392909216919091179055565b6105fd6106b5565b6065546001600160a01b0390811691161461064d576040805162461bcd60e51b81526020600482018190526024820152600080516020610931833981519152604482015290519081900360640190fd5b60408051631b2ce7f360e11b81526001600160a01b03838116600483015291518492831691633659cfe691602480830192600092919082900301818387803b15801561069857600080fd5b505af11580156106ac573d6000803e3d6000fd5b50505050505050565b3390565b303b1590565b600054610100900460ff16806106d857506106d86106b9565b806106e6575060005460ff16155b6107215760405162461bcd60e51b815260040180806020018281038252602e815260200180610951602e913960400191505060405180910390fd5b600054610100900460ff1615801561074c576000805460ff1961ff0019909116610100171660011790555b610754610771565b61075c610811565b801561076e576000805461ff00191690555b50565b600054610100900460ff168061078a575061078a6106b9565b80610798575060005460ff16155b6107d35760405162461bcd60e51b815260040180806020018281038252602e815260200180610951602e913960400191505060405180910390fd5b600054610100900460ff1615801561075c576000805460ff1961ff001990911661010017166001179055801561076e576000805461ff001916905550565b600054610100900460ff168061082a575061082a6106b9565b80610838575060005460ff16155b6108735760405162461bcd60e51b815260040180806020018281038252602e815260200180610951602e913960400191505060405180910390fd5b600054610100900460ff1615801561089e576000805460ff1961ff0019909116610100171660011790555b60006108a86106b5565b606580546001600160a01b0319166001600160a01b038316908117909155604051919250906000907f8be0079c531659141344cd1fd0a4f28419497f9722a3daafe3b4186f6b6457e0908290a350801561076e576000805461ff00191690555056fe4f776e61626c653a206e6577206f776e657220697320746865207a65726f20616464726573734f776e61626c653a2063616c6c6572206973206e6f7420746865206f776e6572436f6e747261637420696e7374616e63652068617320616c7265616479206265656e20696e697469616c697a6564a2646970667358221220dbfa142e326dd36d3ee64f12d440e1fe4d02dbce0ef46032df5499bda3af89c664736f6c63430006020033",
  "source": "pragma solidity 0.6.2;\n\n/**\n * @title ProxyAdmin\n * @dev Manages the Upgrade Process for ZNS Contracts\n*/\n\nimport \"../../node_modules/@openzeppelin/contracts-ethereum-package/contracts/access/Ownable.sol\";\nimport \"../../node_modules/@openzeppelin/contracts/proxy/TransparentUpgradeableProxy.sol\";\n\ncontract ProxyAdmin is Initializable, OwnableUpgradeSafe {\n\n    event Initialized(address _owner);\n\n    function initialize(address _owner) external initializer {\n        __Ownable_init();\n        if(_owner != msg.sender) transferOwnership(_owner);\n        transferOwnership(_owner);\n        emit Initialized(this.owner());\n    }\n\n    function getTransparentProxyAdmin(address payable _transparentProxyAddress) external onlyOwner returns (address) {\n        TransparentUpgradeableProxy transparentProxy;\n        transparentProxy = TransparentUpgradeableProxy(_transparentProxyAddress);\n        return transparentProxy.admin();\n    }\n\n    function getProxyImplementation(address payable _transparentProxyAddress) external onlyOwner returns (address) {\n        TransparentUpgradeableProxy transparentProxy;\n        transparentProxy = TransparentUpgradeableProxy(_transparentProxyAddress);\n        return transparentProxy.implementation();\n    }\n\n    function upgradeTransparentProxy(address payable _transparentProxyAddress, address payable _transparentProxyUpgradeAddress) external onlyOwner {\n        TransparentUpgradeableProxy transparentProxy;\n        transparentProxy = TransparentUpgradeableProxy(_transparentProxyAddress);\n        transparentProxy.upgradeTo(_transparentProxyUpgradeAddress);\n    }\n}\n\n",
  "sourcePath": "/Users/neo/Code/ZNS/contracts/ProxyAdmin/ProxyAdmin.sol",
  "compiler": {
    "name": "solc",
    "version": "0.6.2+commit.bacdbe57.Emscripten.clang"
  },
  "schemaVersion": "3.2.3",
  "updatedAt": "2020-09-24T18:37:56.109Z",
  "networkType": "ethereum",
  "devdoc": {
    "methods": {
      "owner()": {
        "details": "Returns the address of the current owner."
      },
      "renounceOwnership()": {
        "details": "Leaves the contract without owner. It will not be possible to call `onlyOwner` functions anymore. Can only be called by the current owner.     * NOTE: Renouncing ownership will leave the contract without an owner, thereby removing any functionality that is only available to the owner."
      },
      "transferOwnership(address)": {
        "details": "Transfers ownership of the contract to a new account (`newOwner`). Can only be called by the current owner."
      }
    }
  },
  "userdoc": {
    "methods": {}
  }
}