{
  "contractName": "RegistryController",
  "abi": [
    {
      "anonymous": false,
      "inputs": [
        {
          "indexed": false,
          "internalType": "address",
          "name": "registrtyAddress",
          "type": "address"
        },
        {
          "indexed": false,
          "internalType": "address",
          "name": "registryTokenAddress",
          "type": "address"
        }
      ],
      "name": "createdRegistry",
      "type": "event"
    },
    {
      "anonymous": false,
      "inputs": [
        {
          "indexed": false,
          "internalType": "string",
          "name": "subdomain",
          "type": "string"
        },
        {
          "indexed": false,
          "internalType": "string",
          "name": "ref",
          "type": "string"
        }
      ],
      "name": "createdRegistryEntry",
      "type": "event"
    },
    {
      "anonymous": false,
      "inputs": [
        {
          "indexed": false,
          "internalType": "address",
          "name": "_registry",
          "type": "address"
        },
        {
          "indexed": false,
          "internalType": "address payable",
          "name": "_registryToken",
          "type": "address"
        }
      ],
      "name": "registryControllerInitialized",
      "type": "event"
    },
    {
      "anonymous": false,
      "inputs": [
        {
          "indexed": false,
          "internalType": "string",
          "name": "subdomain",
          "type": "string"
        },
        {
          "indexed": false,
          "internalType": "string",
          "name": "newRef",
          "type": "string"
        }
      ],
      "name": "registryEntryRefUpdated",
      "type": "event"
    },
    {
      "anonymous": false,
      "inputs": [
        {
          "indexed": false,
          "internalType": "string",
          "name": "newRef",
          "type": "string"
        }
      ],
      "name": "registryRefUpdated",
      "type": "event"
    },
    {
      "anonymous": false,
      "inputs": [
        {
          "indexed": false,
          "internalType": "uint256",
          "name": "newStakePrice",
          "type": "uint256"
        }
      ],
      "name": "stakePriceSet",
      "type": "event"
    },
    {
      "inputs": [],
      "name": "registryAddress",
      "outputs": [
        {
          "internalType": "address",
          "name": "",
          "type": "address"
        }
      ],
      "stateMutability": "view",
      "type": "function"
    },
    {
      "inputs": [],
      "name": "registryTokenAddress",
      "outputs": [
        {
          "internalType": "address payable",
          "name": "",
          "type": "address"
        }
      ],
      "stateMutability": "view",
      "type": "function"
    },
    {
      "inputs": [],
      "name": "stakePrice",
      "outputs": [
        {
          "internalType": "uint256",
          "name": "",
          "type": "uint256"
        }
      ],
      "stateMutability": "view",
      "type": "function"
    },
    {
      "inputs": [
        {
          "internalType": "address",
          "name": "_registry",
          "type": "address"
        },
        {
          "internalType": "address payable",
          "name": "_registryToken",
          "type": "address"
        }
      ],
      "name": "init",
      "outputs": [],
      "stateMutability": "nonpayable",
      "type": "function"
    },
    {
      "inputs": [
        {
          "internalType": "uint256",
          "name": "_newStakePrice",
          "type": "uint256"
        }
      ],
      "name": "setStakePrice",
      "outputs": [],
      "stateMutability": "nonpayable",
      "type": "function"
    },
    {
      "inputs": [
        {
          "internalType": "string",
          "name": "_subdomain",
          "type": "string"
        },
        {
          "internalType": "string",
          "name": "_ref",
          "type": "string"
        }
      ],
      "name": "createRegistryEntry",
      "outputs": [],
      "stateMutability": "nonpayable",
      "type": "function"
    },
    {
      "inputs": [
        {
          "internalType": "string",
          "name": "_newRef",
          "type": "string"
        }
      ],
      "name": "setRegistryRef",
      "outputs": [],
      "stateMutability": "nonpayable",
      "type": "function"
    },
    {
      "inputs": [
        {
          "internalType": "string",
          "name": "_subdomain",
          "type": "string"
        },
        {
          "internalType": "string",
          "name": "_newRef",
          "type": "string"
        }
      ],
      "name": "setRegistryEntryRef",
      "outputs": [],
      "stateMutability": "nonpayable",
      "type": "function"
    },
    {
      "inputs": [],
      "name": "getRef",
      "outputs": [
        {
          "internalType": "string",
          "name": "",
          "type": "string"
        }
      ],
      "stateMutability": "nonpayable",
      "type": "function"
    },
    {
      "inputs": [],
      "name": "getStakePrice",
      "outputs": [
        {
          "internalType": "uint256",
          "name": "",
          "type": "uint256"
        }
      ],
      "stateMutability": "nonpayable",
      "type": "function"
    },
    {
      "inputs": [
        {
          "internalType": "string",
          "name": "_subdomain",
          "type": "string"
        }
      ],
      "name": "getRegistryEntryRef",
      "outputs": [
        {
          "internalType": "string",
          "name": "",
          "type": "string"
        }
      ],
      "stateMutability": "nonpayable",
      "type": "function"
    }
  ],
  "bytecode": "0x608060405234801561001057600080fd5b5061183c806100206000396000f3fe608060405234801561001057600080fd5b50600436106100a95760003560e01c8063209df0fa11610071578063209df0fa146104095780635b999a3814610437578063a023cf6914610455578063ed9aab5114610473578063f09a4016146104bd578063fb3e644414610521576100a9565b8063149adf58146100ae578063164f25bf146101a05780631692f21f1461026e5780631d6d32ba1461033c5780631d8e2f58146103bf575b600080fd5b610125600480360360208110156100c457600080fd5b81019080803590602001906401000000008111156100e157600080fd5b8201836020820111156100f357600080fd5b8035906020019184600183028401116401000000008311171561011557600080fd5b909192939192939050505061059a565b6040518080602001828103825283818151815260200191508051906020019080838360005b8381101561016557808201518184015260208101905061014a565b50505050905090810190601f1680156101925780820380516001836020036101000a031916815260200191505b509250505060405180910390f35b61026c600480360360408110156101b657600080fd5b81019080803590602001906401000000008111156101d357600080fd5b8201836020820111156101e557600080fd5b8035906020019184600183028401116401000000008311171561020757600080fd5b90919293919293908035906020019064010000000081111561022857600080fd5b82018360208201111561023a57600080fd5b8035906020019184600183028401116401000000008311171561025c57600080fd5b909192939192939050505061073b565b005b61033a6004803603604081101561028457600080fd5b81019080803590602001906401000000008111156102a157600080fd5b8201836020820111156102b357600080fd5b803590602001918460018302840111640100000000831117156102d557600080fd5b9091929391929390803590602001906401000000008111156102f657600080fd5b82018360208201111561030857600080fd5b8035906020019184600183028401116401000000008311171561032a57600080fd5b9091929391929390505050610c12565b005b610344610f70565b6040518080602001828103825283818151815260200191508051906020019080838360005b83811015610384578082015181840152602081019050610369565b50505050905090810190601f1680156103b15780820380516001836020036101000a031916815260200191505b509250505060405180910390f35b6103c76110d7565b604051808273ffffffffffffffffffffffffffffffffffffffff1673ffffffffffffffffffffffffffffffffffffffff16815260200191505060405180910390f35b6104356004803603602081101561041f57600080fd5b81019080803590602001909291905050506110fd565b005b61043f611291565b6040518082815260200191505060405180910390f35b61045d61133b565b6040518082815260200191505060405180910390f35b61047b611341565b604051808273ffffffffffffffffffffffffffffffffffffffff1673ffffffffffffffffffffffffffffffffffffffff16815260200191505060405180910390f35b61051f600480360360408110156104d357600080fd5b81019080803573ffffffffffffffffffffffffffffffffffffffff169060200190929190803573ffffffffffffffffffffffffffffffffffffffff169060200190929190505050611367565b005b6105986004803603602081101561053757600080fd5b810190808035906020019064010000000081111561055457600080fd5b82018360208201111561056657600080fd5b8035906020019184600183028401116401000000008311171561058857600080fd5b9091929391929390505050611549565b005b60606000809054906101000a900473ffffffffffffffffffffffffffffffffffffffff1673ffffffffffffffffffffffffffffffffffffffff1663149adf5884846040518363ffffffff1660e01b815260040180806020018281038252848482818152602001925080828437600081840152601f19601f820116905080830192505050935050505060006040518083038186803b15801561063a57600080fd5b505afa15801561064e573d6000803e3d6000fd5b505050506040513d6000823e3d601f19601f82011682018060405250602081101561067857600080fd5b810190808051604051939291908464010000000082111561069857600080fd5b838201915060208201858111156106ae57600080fd5b82518660018202830111640100000000821117156106cb57600080fd5b8083526020830192505050908051906020019080838360005b838110156106ff5780820151818401526020810190506106e4565b50505050905090810190601f16801561072c5780820380516001836020036101000a031916815260200191505b50604052505050905092915050565b6000809054906101000a900473ffffffffffffffffffffffffffffffffffffffff1673ffffffffffffffffffffffffffffffffffffffff1663164f25bf858585856040518563ffffffff1660e01b81526004018080602001806020018381038352878782818152602001925080828437600081840152601f19601f8201169050808301925050508381038252858582818152602001925080828437600081840152601f19601f8201169050808301925050509650505050505050600060405180830381600087803b15801561080f57600080fd5b505af1158015610823573d6000803e3d6000fd5b5050505060008060009054906101000a900473ffffffffffffffffffffffffffffffffffffffff1673ffffffffffffffffffffffffffffffffffffffff1663c822d7f086866040518363ffffffff1660e01b815260040180806020018281038252848482818152602001925080828437600081840152601f19601f8201169050808301925050509350505050604080518083038186803b1580156108c657600080fd5b505afa1580156108da573d6000803e3d6000fd5b505050506040513d60408110156108f057600080fd5b810190808051906020019092919080519060200190929190505050509050600115158115151461091c57fe5b606085858080601f016020809104026020016040519081016040528093929190818152602001838380828437600081840152601f19601f82011690508083019250505050505050905060606000809054906101000a900473ffffffffffffffffffffffffffffffffffffffff1673ffffffffffffffffffffffffffffffffffffffff1663149adf5888886040518363ffffffff1660e01b815260040180806020018281038252848482818152602001925080828437600081840152601f19601f820116905080830192505050935050505060006040518083038186803b158015610a0557600080fd5b505afa158015610a19573d6000803e3d6000fd5b505050506040513d6000823e3d601f19601f820116820180604052506020811015610a4357600080fd5b8101908080516040519392919084640100000000821115610a6357600080fd5b83820191506020820185811115610a7957600080fd5b8251866001820283011164010000000082111715610a9657600080fd5b8083526020830192505050908051906020019080838360005b83811015610aca578082015181840152602081019050610aaf565b50505050905090810190601f168015610af75780820380516001836020036101000a031916815260200191505b5060405250505090507f3fdde72950e6d9c53073a94114bea65c19a2076d1d4ff9390a70519dcbff22dd8282604051808060200180602001838103835285818151815260200191508051906020019080838360005b83811015610b67578082015181840152602081019050610b4c565b50505050905090810190601f168015610b945780820380516001836020036101000a031916815260200191505b50838103825284818151815260200191508051906020019080838360005b83811015610bcd578082015181840152602081019050610bb2565b50505050905090810190601f168015610bfa5780820380516001836020036101000a031916815260200191505b5094505050505060405180910390a150505050505050565b6000809054906101000a900473ffffffffffffffffffffffffffffffffffffffff1673ffffffffffffffffffffffffffffffffffffffff16631692f21f858585856040518563ffffffff1660e01b81526004018080602001806020018381038352878782818152602001925080828437600081840152601f19601f8201169050808301925050508381038252858582818152602001925080828437600081840152601f19601f8201169050808301925050509650505050505050600060405180830381600087803b158015610ce657600080fd5b505af1158015610cfa573d6000803e3d6000fd5b5050505060606000809054906101000a900473ffffffffffffffffffffffffffffffffffffffff1673ffffffffffffffffffffffffffffffffffffffff1663149adf5886866040518363ffffffff1660e01b815260040180806020018281038252848482818152602001925080828437600081840152601f19601f820116905080830192505050935050505060006040518083038186803b158015610d9e57600080fd5b505afa158015610db2573d6000803e3d6000fd5b505050506040513d6000823e3d601f19601f820116820180604052506020811015610ddc57600080fd5b8101908080516040519392919084640100000000821115610dfc57600080fd5b83820191506020820185811115610e1257600080fd5b8251866001820283011164010000000082111715610e2f57600080fd5b8083526020830192505050908051906020019080838360005b83811015610e63578082015181840152602081019050610e48565b50505050905090810190601f168015610e905780820380516001836020036101000a031916815260200191505b5060405250505090507fa3560ee2efe796786b53781edf5691ed5900487a522725140e017119fc1ffe138585836040518080602001806020018381038352868682818152602001925080828437600081840152601f19601f820116905080830192505050838103825284818151815260200191508051906020019080838360005b83811015610f2c578082015181840152602081019050610f11565b50505050905090810190601f168015610f595780820380516001836020036101000a031916815260200191505b509550505050505060405180910390a15050505050565b60606000809054906101000a900473ffffffffffffffffffffffffffffffffffffffff1673ffffffffffffffffffffffffffffffffffffffff16631d6d32ba6040518163ffffffff1660e01b815260040160006040518083038186803b158015610fd957600080fd5b505afa158015610fed573d6000803e3d6000fd5b505050506040513d6000823e3d601f19601f82011682018060405250602081101561101757600080fd5b810190808051604051939291908464010000000082111561103757600080fd5b8382019150602082018581111561104d57600080fd5b825186600182028301116401000000008211171561106a57600080fd5b8083526020830192505050908051906020019080838360005b8381101561109e578082015181840152602081019050611083565b50505050905090810190601f1680156110cb5780820380516001836020036101000a031916815260200191505b50604052505050905090565b600360009054906101000a900473ffffffffffffffffffffffffffffffffffffffff1681565b600260009054906101000a900473ffffffffffffffffffffffffffffffffffffffff1673ffffffffffffffffffffffffffffffffffffffff1663209df0fa826040518263ffffffff1660e01b815260040180828152602001915050602060405180830381600087803b15801561117257600080fd5b505af1158015611186573d6000803e3d6000fd5b505050506040513d602081101561119c57600080fd5b810190808051906020019092919050505050600260009054906101000a900473ffffffffffffffffffffffffffffffffffffffff1673ffffffffffffffffffffffffffffffffffffffff1663a023cf696040518163ffffffff1660e01b815260040160206040518083038186803b15801561121657600080fd5b505afa15801561122a573d6000803e3d6000fd5b505050506040513d602081101561124057600080fd5b81019080805190602001909291905050506004819055507f5443a9b3a4f844af7ea1bbffa88c16f6f6c35f174ae032da718b6285c6be869c816040518082815260200191505060405180910390a150565b6000600260009054906101000a900473ffffffffffffffffffffffffffffffffffffffff1673ffffffffffffffffffffffffffffffffffffffff1663a023cf696040518163ffffffff1660e01b815260040160206040518083038186803b1580156112fb57600080fd5b505afa15801561130f573d6000803e3d6000fd5b505050506040513d602081101561132557600080fd5b8101908080519060200190929190505050905090565b60045481565b600160009054906101000a900473ffffffffffffffffffffffffffffffffffffffff1681565b81600160006101000a81548173ffffffffffffffffffffffffffffffffffffffff021916908373ffffffffffffffffffffffffffffffffffffffff160217905550600160009054906101000a900473ffffffffffffffffffffffffffffffffffffffff166000806101000a81548173ffffffffffffffffffffffffffffffffffffffff021916908373ffffffffffffffffffffffffffffffffffffffff16021790555080600360006101000a81548173ffffffffffffffffffffffffffffffffffffffff021916908373ffffffffffffffffffffffffffffffffffffffff160217905550600360009054906101000a900473ffffffffffffffffffffffffffffffffffffffff16600260006101000a81548173ffffffffffffffffffffffffffffffffffffffff021916908373ffffffffffffffffffffffffffffffffffffffff1602179055507f81bc37599d8daaee75b12342129cc1b062c2f8aa7e7ac6958fba02c558b859898282604051808373ffffffffffffffffffffffffffffffffffffffff1673ffffffffffffffffffffffffffffffffffffffff1681526020018273ffffffffffffffffffffffffffffffffffffffff1673ffffffffffffffffffffffffffffffffffffffff1681526020019250505060405180910390a15050565b6000809054906101000a900473ffffffffffffffffffffffffffffffffffffffff1673ffffffffffffffffffffffffffffffffffffffff1663fb3e644483836040518363ffffffff1660e01b815260040180806020018281038252848482818152602001925080828437600081840152601f19601f8201169050808301925050509350505050600060405180830381600087803b1580156115e957600080fd5b505af11580156115fd573d6000803e3d6000fd5b5050505060606000809054906101000a900473ffffffffffffffffffffffffffffffffffffffff1673ffffffffffffffffffffffffffffffffffffffff16631d6d32ba6040518163ffffffff1660e01b815260040160006040518083038186803b15801561166a57600080fd5b505afa15801561167e573d6000803e3d6000fd5b505050506040513d6000823e3d601f19601f8201168201806040525060208110156116a857600080fd5b81019080805160405193929190846401000000008211156116c857600080fd5b838201915060208201858111156116de57600080fd5b82518660018202830111640100000000821117156116fb57600080fd5b8083526020830192505050908051906020019080838360005b8381101561172f578082015181840152602081019050611714565b50505050905090810190601f16801561175c5780820380516001836020036101000a031916815260200191505b5060405250505090507f38f34884b67bf9d0741f654919f99f08b4b7f9809bef14be841cea0c25586dd5816040518080602001828103825283818151815260200191508051906020019080838360005b838110156117c75780820151818401526020810190506117ac565b50505050905090810190601f1680156117f45780820380516001836020036101000a031916815260200191505b509250505060405180910390a150505056fea2646970667358221220bfd408ef566026ccb18737b134c952e2064d763bbfde7331262b58f52481cacb64736f6c63430006020033",
  "source": "pragma solidity ^0.6.0;\n\n/**\n * @title RegistryController\n * @dev Create and interact with ZNS.\n*/\n\nimport './RegistryControllerI.sol';\nimport '../Registry/Registry.sol';\nimport '../RegistryToken/RegistryToken.sol';\nimport \"../../node_modules/openzeppelin-solidity/contracts/math/SafeMath.sol\";\n\ncontract RegistryController is RegistryControllerI {\n    using SafeMath for uint256;\n\n    Registry registry;\n    address public registryAddress;\n\n    RegistryToken registryToken;\n    address payable public registryTokenAddress;\n    uint256 public stakePrice;\n\n    /// @notice Emitted when the RegistryController is initialized.\n    event registryControllerInitialized(address _registry, address payable _registryToken);\n\n    /// @notice Emitted when a new Registry is created.\n    event createdRegistry(address registrtyAddress, address registryTokenAddress);\n\n    /// @notice Emitted when a Registry's stake price is updated.\n    event stakePriceSet(uint256 newStakePrice);\n\n    /// @notice Emitted when a new entry is created in a Registry.\n    event createdRegistryEntry(string subdomain, string ref);\n\n    /// @notice Emitted when a new a Registry 'ref' is updated.\n    event registryRefUpdated(string newRef);\n\n    /// @notice Emitted when a new a Registry Entry 'ref' is updated.\n    event registryEntryRefUpdated(string subdomain, string newRef);\n\n    /**\n     * @notice Initializes a new RegistryController after construction.\n     * @param _registry The Registry address that the RegistryConroller will manage.\n     * @param _registryToken The RegistryToken address that the RegistryController will manage.\n     */\n\n    function init(address _registry, address payable _registryToken) \n        external \n        override\n    {\n        registryAddress = _registry;\n        registry = Registry(registryAddress);\n        registryTokenAddress = _registryToken;\n        registryToken = RegistryToken(registryTokenAddress);\n\n        emit registryControllerInitialized(_registry, _registryToken);\n    }\n\n    /**\n     * @notice Sets a new stake price for a Registry's RegistryToken.\n     * @param _newStakePrice The new stake price to be used by the registry.\n     */\n\n    function setStakePrice(uint256 _newStakePrice)\n        external\n        override\n    {\n        registryToken.setStakePrice(_newStakePrice);\n        stakePrice = registryToken.stakePrice();\n\n        emit stakePriceSet(_newStakePrice);\n    }\n\n    /**\n     * @notice Creates a new entry within a Registry.\n     * @param _subdomain The subdomain that will be utilized to reference the current Registry entry.\n     * @param _ref The user-defined reference (such as an index or url) that the Registry entry will point to.\n     */\n\n    function createRegistryEntry(\n        string calldata _subdomain,\n        string calldata _ref)\n        external\n        override\n    {\n        registry.createRegistryEntry(_subdomain, _ref);\n        (bool isRegistered, ) = registry.isRegistered(_subdomain);\n        assert(isRegistered==true);\n\n        string memory currentRegistrySubdomain = _subdomain;\n        string memory currentRegistryRef = registry.getRegistryEntryRef(_subdomain);\n        \n        emit createdRegistryEntry(currentRegistrySubdomain, currentRegistryRef);\n    }\n\n    /**\n     * @notice Updates a Registry's referece value.\n     * @param _newRef The new reference value to be updated to.\n     */\n\n    function setRegistryRef(\n        string calldata _newRef)\n        external\n        override\n    {\n        registry.setRegistryRef(_newRef);        \n        string memory currentRegistryRef = registry.getRef();\n\n        emit registryRefUpdated(currentRegistryRef);\n    }\n\n    /**\n     * @notice Updates a Registry entries reference value.\n     * @param _subdomain The subdomain of the Registry entry to be updated.\n     * @param _newRef The new reference value to be updated in the Registry entry.\n     */\n\n    function setRegistryEntryRef(\n        string calldata _subdomain,\n        string calldata _newRef)\n        external\n        override\n    {\n        registry.setRegistryEntryRef(_subdomain, _newRef);\n        string memory currentRegistryEntryRef = registry.getRegistryEntryRef(_subdomain);\n\n        emit registryEntryRefUpdated(_subdomain, currentRegistryEntryRef);\n    }\n    \n    function getRef() override external returns (string memory) {\n        return registry.getRef();\n    }\n\n    function getStakePrice() override external returns (uint256) {\n        return registryToken.stakePrice();\n    }\n\n    function getRegistryEntryRef(string calldata _subdomain) override external returns (string memory) {\n        return registry.getRegistryEntryRef(_subdomain);\n    }\n}",
  "sourcePath": "/Users/neo/Code/ZNS/contracts/RegistryController/RegistryController.sol",
  "compiler": {
    "name": "solc",
    "version": "0.6.2+commit.bacdbe57.Emscripten.clang"
  },
  "schemaVersion": "3.2.3",
  "updatedAt": "2020-09-13T07:37:32.342Z",
  "devdoc": {
    "methods": {
      "createRegistryEntry(string,string)": {
        "params": {
          "_ref": "The user-defined reference (such as an index or url) that the Registry entry will point to.",
          "_subdomain": "The subdomain that will be utilized to reference the current Registry entry."
        }
      },
      "init(address,address)": {
        "params": {
          "_registry": "The Registry address that the RegistryConroller will manage.",
          "_registryToken": "The RegistryToken address that the RegistryController will manage."
        }
      },
      "setRegistryEntryRef(string,string)": {
        "params": {
          "_newRef": "The new reference value to be updated in the Registry entry.",
          "_subdomain": "The subdomain of the Registry entry to be updated."
        }
      },
      "setRegistryRef(string)": {
        "params": {
          "_newRef": "The new reference value to be updated to."
        }
      },
      "setStakePrice(uint256)": {
        "params": {
          "_newStakePrice": "The new stake price to be used by the registry."
        }
      }
    }
  },
  "userdoc": {
    "methods": {
      "createRegistryEntry(string,string)": {
        "notice": "Creates a new entry within a Registry."
      },
      "init(address,address)": {
        "notice": "Initializes a new RegistryController after construction."
      },
      "setRegistryEntryRef(string,string)": {
        "notice": "Updates a Registry entries reference value."
      },
      "setRegistryRef(string)": {
        "notice": "Updates a Registry's referece value."
      },
      "setStakePrice(uint256)": {
        "notice": "Sets a new stake price for a Registry's RegistryToken."
      }
    }
  }
}