{
  "contractName": "RegistryToken",
  "abi": [
    {
      "inputs": [
        {
          "internalType": "address",
          "name": "_owner",
          "type": "address"
        },
        {
          "internalType": "string",
          "name": "_tokenName",
          "type": "string"
        },
        {
          "internalType": "string",
          "name": "_tokenSymbol",
          "type": "string"
        },
        {
          "internalType": "uint256",
          "name": "_tokenSupply",
          "type": "uint256"
        },
        {
          "internalType": "uint256",
          "name": "_stakePrice",
          "type": "uint256"
        }
      ],
      "stateMutability": "payable",
      "type": "constructor"
    },
    {
      "anonymous": false,
      "inputs": [
        {
          "indexed": true,
          "internalType": "address",
          "name": "owner",
          "type": "address"
        },
        {
          "indexed": true,
          "internalType": "address",
          "name": "spender",
          "type": "address"
        },
        {
          "indexed": false,
          "internalType": "uint256",
          "name": "value",
          "type": "uint256"
        }
      ],
      "name": "Approval",
      "type": "event"
    },
    {
      "anonymous": false,
      "inputs": [
        {
          "indexed": true,
          "internalType": "address",
          "name": "previousOwner",
          "type": "address"
        },
        {
          "indexed": true,
          "internalType": "address",
          "name": "newOwner",
          "type": "address"
        }
      ],
      "name": "OwnershipTransferred",
      "type": "event"
    },
    {
      "anonymous": false,
      "inputs": [
        {
          "indexed": false,
          "internalType": "address",
          "name": "_stake",
          "type": "address"
        },
        {
          "indexed": false,
          "internalType": "uint256",
          "name": "_amount",
          "type": "uint256"
        }
      ],
      "name": "Received",
      "type": "event"
    },
    {
      "anonymous": false,
      "inputs": [
        {
          "indexed": false,
          "internalType": "address",
          "name": "_owner",
          "type": "address"
        },
        {
          "indexed": false,
          "internalType": "string",
          "name": "_tokenName",
          "type": "string"
        },
        {
          "indexed": false,
          "internalType": "string",
          "name": "tokenSymbol",
          "type": "string"
        },
        {
          "indexed": false,
          "internalType": "uint256",
          "name": "tokenSupply",
          "type": "uint256"
        },
        {
          "indexed": false,
          "internalType": "uint256",
          "name": "stakePrice",
          "type": "uint256"
        }
      ],
      "name": "RegistryTokenCreated",
      "type": "event"
    },
    {
      "anonymous": false,
      "inputs": [
        {
          "indexed": false,
          "internalType": "uint256",
          "name": "_newStakePrice",
          "type": "uint256"
        }
      ],
      "name": "StakePriceSet",
      "type": "event"
    },
    {
      "anonymous": false,
      "inputs": [
        {
          "indexed": false,
          "internalType": "address",
          "name": "_sender",
          "type": "address"
        },
        {
          "indexed": false,
          "internalType": "uint256",
          "name": "_amount",
          "type": "uint256"
        },
        {
          "indexed": false,
          "internalType": "uint256",
          "name": "_senderBalance",
          "type": "uint256"
        }
      ],
      "name": "StakeReturned",
      "type": "event"
    },
    {
      "anonymous": false,
      "inputs": [
        {
          "indexed": false,
          "internalType": "address",
          "name": "_sender",
          "type": "address"
        },
        {
          "indexed": false,
          "internalType": "uint256",
          "name": "_amount",
          "type": "uint256"
        },
        {
          "indexed": false,
          "internalType": "uint256",
          "name": "_senderBalance",
          "type": "uint256"
        }
      ],
      "name": "StakeSent",
      "type": "event"
    },
    {
      "anonymous": false,
      "inputs": [
        {
          "indexed": false,
          "internalType": "address",
          "name": "_staker",
          "type": "address"
        }
      ],
      "name": "StakerAdded",
      "type": "event"
    },
    {
      "anonymous": false,
      "inputs": [
        {
          "indexed": false,
          "internalType": "address",
          "name": "_staker",
          "type": "address"
        }
      ],
      "name": "StakerRemoved",
      "type": "event"
    },
    {
      "anonymous": false,
      "inputs": [
        {
          "indexed": true,
          "internalType": "address",
          "name": "from",
          "type": "address"
        },
        {
          "indexed": true,
          "internalType": "address",
          "name": "to",
          "type": "address"
        },
        {
          "indexed": false,
          "internalType": "uint256",
          "name": "value",
          "type": "uint256"
        }
      ],
      "name": "Transfer",
      "type": "event"
    },
    {
      "stateMutability": "payable",
      "type": "fallback"
    },
    {
      "inputs": [
        {
          "internalType": "address",
          "name": "owner",
          "type": "address"
        },
        {
          "internalType": "address",
          "name": "spender",
          "type": "address"
        }
      ],
      "name": "allowance",
      "outputs": [
        {
          "internalType": "uint256",
          "name": "",
          "type": "uint256"
        }
      ],
      "stateMutability": "view",
      "type": "function"
    },
    {
      "inputs": [
        {
          "internalType": "address",
          "name": "spender",
          "type": "address"
        },
        {
          "internalType": "uint256",
          "name": "amount",
          "type": "uint256"
        }
      ],
      "name": "approve",
      "outputs": [
        {
          "internalType": "bool",
          "name": "",
          "type": "bool"
        }
      ],
      "stateMutability": "nonpayable",
      "type": "function"
    },
    {
      "inputs": [],
      "name": "balance",
      "outputs": [
        {
          "internalType": "uint256",
          "name": "",
          "type": "uint256"
        }
      ],
      "stateMutability": "view",
      "type": "function"
    },
    {
      "inputs": [
        {
          "internalType": "address",
          "name": "account",
          "type": "address"
        }
      ],
      "name": "balanceOf",
      "outputs": [
        {
          "internalType": "uint256",
          "name": "",
          "type": "uint256"
        }
      ],
      "stateMutability": "view",
      "type": "function"
    },
    {
      "inputs": [],
      "name": "decimals",
      "outputs": [
        {
          "internalType": "uint8",
          "name": "",
          "type": "uint8"
        }
      ],
      "stateMutability": "view",
      "type": "function"
    },
    {
      "inputs": [
        {
          "internalType": "address",
          "name": "spender",
          "type": "address"
        },
        {
          "internalType": "uint256",
          "name": "subtractedValue",
          "type": "uint256"
        }
      ],
      "name": "decreaseAllowance",
      "outputs": [
        {
          "internalType": "bool",
          "name": "",
          "type": "bool"
        }
      ],
      "stateMutability": "nonpayable",
      "type": "function"
    },
    {
      "inputs": [
        {
          "internalType": "address",
          "name": "spender",
          "type": "address"
        },
        {
          "internalType": "uint256",
          "name": "addedValue",
          "type": "uint256"
        }
      ],
      "name": "increaseAllowance",
      "outputs": [
        {
          "internalType": "bool",
          "name": "",
          "type": "bool"
        }
      ],
      "stateMutability": "nonpayable",
      "type": "function"
    },
    {
      "inputs": [],
      "name": "name",
      "outputs": [
        {
          "internalType": "string",
          "name": "",
          "type": "string"
        }
      ],
      "stateMutability": "view",
      "type": "function"
    },
    {
      "inputs": [],
      "name": "owner",
      "outputs": [
        {
          "internalType": "address",
          "name": "",
          "type": "address"
        }
      ],
      "stateMutability": "view",
      "type": "function"
    },
    {
      "inputs": [],
      "name": "renounceOwnership",
      "outputs": [],
      "stateMutability": "nonpayable",
      "type": "function"
    },
    {
      "inputs": [],
      "name": "stakePrice",
      "outputs": [
        {
          "internalType": "uint256",
          "name": "",
          "type": "uint256"
        }
      ],
      "stateMutability": "view",
      "type": "function"
    },
    {
      "inputs": [],
      "name": "symbol",
      "outputs": [
        {
          "internalType": "string",
          "name": "",
          "type": "string"
        }
      ],
      "stateMutability": "view",
      "type": "function"
    },
    {
      "inputs": [],
      "name": "totalSupply",
      "outputs": [
        {
          "internalType": "uint256",
          "name": "",
          "type": "uint256"
        }
      ],
      "stateMutability": "view",
      "type": "function"
    },
    {
      "inputs": [
        {
          "internalType": "address",
          "name": "recipient",
          "type": "address"
        },
        {
          "internalType": "uint256",
          "name": "amount",
          "type": "uint256"
        }
      ],
      "name": "transfer",
      "outputs": [
        {
          "internalType": "bool",
          "name": "",
          "type": "bool"
        }
      ],
      "stateMutability": "nonpayable",
      "type": "function"
    },
    {
      "inputs": [
        {
          "internalType": "address",
          "name": "sender",
          "type": "address"
        },
        {
          "internalType": "address",
          "name": "recipient",
          "type": "address"
        },
        {
          "internalType": "uint256",
          "name": "amount",
          "type": "uint256"
        }
      ],
      "name": "transferFrom",
      "outputs": [
        {
          "internalType": "bool",
          "name": "",
          "type": "bool"
        }
      ],
      "stateMutability": "nonpayable",
      "type": "function"
    },
    {
      "inputs": [
        {
          "internalType": "address",
          "name": "newOwner",
          "type": "address"
        }
      ],
      "name": "transferOwnership",
      "outputs": [],
      "stateMutability": "nonpayable",
      "type": "function"
    },
    {
      "stateMutability": "payable",
      "type": "receive"
    },
    {
      "inputs": [
        {
          "internalType": "address",
          "name": "_staker",
          "type": "address"
        }
      ],
      "name": "addStaker",
      "outputs": [
        {
          "internalType": "bool",
          "name": "",
          "type": "bool"
        }
      ],
      "stateMutability": "nonpayable",
      "type": "function"
    },
    {
      "inputs": [
        {
          "internalType": "address",
          "name": "_staker",
          "type": "address"
        }
      ],
      "name": "removeStaker",
      "outputs": [],
      "stateMutability": "nonpayable",
      "type": "function"
    },
    {
      "inputs": [
        {
          "internalType": "address",
          "name": "_address",
          "type": "address"
        }
      ],
      "name": "isStaker",
      "outputs": [
        {
          "internalType": "bool",
          "name": "",
          "type": "bool"
        },
        {
          "internalType": "uint256",
          "name": "",
          "type": "uint256"
        }
      ],
      "stateMutability": "view",
      "type": "function"
    },
    {
      "inputs": [
        {
          "internalType": "uint256",
          "name": "_newStakePrice",
          "type": "uint256"
        }
      ],
      "name": "setStakePrice",
      "outputs": [
        {
          "internalType": "uint256",
          "name": "",
          "type": "uint256"
        }
      ],
      "stateMutability": "nonpayable",
      "type": "function"
    },
    {
      "inputs": [],
      "name": "sendStake",
      "outputs": [],
      "stateMutability": "payable",
      "type": "function"
    },
    {
      "inputs": [],
      "name": "withdrawStake",
      "outputs": [],
      "stateMutability": "payable",
      "type": "function"
    },
    {
      "inputs": [],
      "name": "getBalance",
      "outputs": [
        {
          "internalType": "uint256",
          "name": "",
          "type": "uint256"
        }
      ],
      "stateMutability": "view",
      "type": "function"
    },
    {
      "inputs": [
        {
          "internalType": "address",
          "name": "_address",
          "type": "address"
        }
      ],
      "name": "getBalanceAddress",
      "outputs": [
        {
          "internalType": "uint256",
          "name": "",
          "type": "uint256"
        }
      ],
      "stateMutability": "view",
      "type": "function"
    },
    {
      "inputs": [],
      "name": "getAddress",
      "outputs": [
        {
          "internalType": "address payable",
          "name": "",
          "type": "address"
        }
      ],
      "stateMutability": "view",
      "type": "function"
    }
  ],
  "bytecode": "0x608060405230600760006101000a81548173ffffffffffffffffffffffffffffffffffffffff021916908373ffffffffffffffffffffffffffffffffffffffff160217905550600760009054906101000a900473ffffffffffffffffffffffffffffffffffffffff1673ffffffffffffffffffffffffffffffffffffffff163160085560405162002d0038038062002d00833981810160405260a0811015620000a757600080fd5b810190808051906020019092919080516040519392919084640100000000821115620000d257600080fd5b83820191506020820185811115620000e957600080fd5b82518660018202830111640100000000821117156200010757600080fd5b8083526020830192505050908051906020019080838360005b838110156200013d57808201518184015260208101905062000120565b50505050905090810190601f1680156200016b5780820380516001836020036101000a031916815260200191505b50604052602001805160405193929190846401000000008211156200018f57600080fd5b83820191506020820185811115620001a657600080fd5b8251866001820283011164010000000082111715620001c457600080fd5b8083526020830192505050908051906020019080838360005b83811015620001fa578082015181840152602081019050620001dd565b50505050905090810190601f168015620002285780820380516001836020036101000a031916815260200191505b506040526020018051906020019092919080519060200190929190505050838381600390805190602001906200026092919062000734565b5080600490805190602001906200027992919062000734565b506012600560006101000a81548160ff021916908360ff16021790555050506000620002aa620004c060201b60201c565b905080600560016101000a81548173ffffffffffffffffffffffffffffffffffffffff021916908373ffffffffffffffffffffffffffffffffffffffff1602179055508073ffffffffffffffffffffffffffffffffffffffff16600073ffffffffffffffffffffffffffffffffffffffff167f8be0079c531659141344cd1fd0a4f28419497f9722a3daafe3b4186f6b6457e060405160405180910390a3506200035b8583620004c860201b60201c565b806006819055507f55941bc9181933cfa95780b91c2bd2114b4bf5286ebfe557a0652991857d59c68585858585604051808673ffffffffffffffffffffffffffffffffffffffff1673ffffffffffffffffffffffffffffffffffffffff1681526020018060200180602001858152602001848152602001838103835287818151815260200191508051906020019080838360005b838110156200040c578082015181840152602081019050620003ef565b50505050905090810190601f1680156200043a5780820380516001836020036101000a031916815260200191505b50838103825286818151815260200191508051906020019080838360005b838110156200047557808201518184015260208101905062000458565b50505050905090810190601f168015620004a35780820380516001836020036101000a031916815260200191505b5097505050505050505060405180910390a15050505050620007e3565b600033905090565b600073ffffffffffffffffffffffffffffffffffffffff168273ffffffffffffffffffffffffffffffffffffffff1614156200056c576040517f08c379a000000000000000000000000000000000000000000000000000000000815260040180806020018281038252601f8152602001807f45524332303a206d696e7420746f20746865207a65726f20616464726573730081525060200191505060405180910390fd5b6200058060008383620006a660201b60201c565b6200059c81600254620006ab60201b620020d21790919060201c565b600281905550620005fa816000808573ffffffffffffffffffffffffffffffffffffffff1673ffffffffffffffffffffffffffffffffffffffff16815260200190815260200160002054620006ab60201b620020d21790919060201c565b6000808473ffffffffffffffffffffffffffffffffffffffff1673ffffffffffffffffffffffffffffffffffffffff168152602001908152602001600020819055508173ffffffffffffffffffffffffffffffffffffffff16600073ffffffffffffffffffffffffffffffffffffffff167fddf252ad1be2c89b69c2b068fc378daa952ba7f163c4a11628f55a4df523b3ef836040518082815260200191505060405180910390a35050565b505050565b6000808284019050838110156200072a576040517f08c379a000000000000000000000000000000000000000000000000000000000815260040180806020018281038252601b8152602001807f536166654d6174683a206164646974696f6e206f766572666c6f77000000000081525060200191505060405180910390fd5b8091505092915050565b828054600181600116156101000203166002900490600052602060002090601f016020900481019282601f106200077757805160ff1916838001178555620007a8565b82800160010185558215620007a8579182015b82811115620007a75782518255916020019190600101906200078a565b5b509050620007b79190620007bb565b5090565b620007e091905b80821115620007dc576000816000905550600101620007c2565b5090565b90565b61250d80620007f36000396000f3fe60806040526004361061016a5760003560e01c80636f1e8533116100d1578063a023cf691161008a578063b69ef8a811610064578063b69ef8a814610929578063bed9d86114610954578063dd62ed3e1461095e578063f2fde38b146109e3576101dc565b8063a023cf6914610818578063a457c2d714610843578063a9059cbb146108b6576101dc565b80636f1e8533146105f457806370a0823114610664578063715018a6146106c95780638da5cb5b146106e057806395d89b411461073757806396a9fdc0146107c7576101dc565b8063209df0fa11610123578063209df0fa146103ae57806323b872dd146103fd5780632466696e14610490578063313ce567146104f957806338cc48311461052a5780633950935114610581576101dc565b806306fdde03146101e6578063095ea7b31461027657806312065fe0146102e9578063142052341461031457806318160ddd146103795780631a5fee57146103a4576101dc565b366101dc577f88a5966d370b9919b20f3e2c13ff65706f196a4e32cc2c12bf57088f885258743334604051808373ffffffffffffffffffffffffffffffffffffffff1673ffffffffffffffffffffffffffffffffffffffff1681526020018281526020019250505060405180910390a1005b6101e4610a34565b005b3480156101f257600080fd5b506101fb610bc6565b6040518080602001828103825283818151815260200191508051906020019080838360005b8381101561023b578082015181840152602081019050610220565b50505050905090810190601f1680156102685780820380516001836020036101000a031916815260200191505b509250505060405180910390f35b34801561028257600080fd5b506102cf6004803603604081101561029957600080fd5b81019080803573ffffffffffffffffffffffffffffffffffffffff16906020019092919080359060200190929190505050610c68565b604051808215151515815260200191505060405180910390f35b3480156102f557600080fd5b506102fe610c86565b6040518082815260200191505060405180910390f35b34801561032057600080fd5b506103636004803603602081101561033757600080fd5b81019080803573ffffffffffffffffffffffffffffffffffffffff169060200190929190505050610c90565b6040518082815260200191505060405180910390f35b34801561038557600080fd5b5061038e610cd9565b6040518082815260200191505060405180910390f35b6103ac610a34565b005b3480156103ba57600080fd5b506103e7600480360360208110156103d157600080fd5b8101908080359060200190929190505050610ce3565b6040518082815260200191505060405180910390f35b34801561040957600080fd5b506104766004803603606081101561042057600080fd5b81019080803573ffffffffffffffffffffffffffffffffffffffff169060200190929190803573ffffffffffffffffffffffffffffffffffffffff16906020019092919080359060200190929190505050610d2f565b604051808215151515815260200191505060405180910390f35b34801561049c57600080fd5b506104df600480360360208110156104b357600080fd5b81019080803573ffffffffffffffffffffffffffffffffffffffff169060200190929190505050610e08565b604051808215151515815260200191505060405180910390f35b34801561050557600080fd5b5061050e610f10565b604051808260ff1660ff16815260200191505060405180910390f35b34801561053657600080fd5b5061053f610f27565b604051808273ffffffffffffffffffffffffffffffffffffffff1673ffffffffffffffffffffffffffffffffffffffff16815260200191505060405180910390f35b34801561058d57600080fd5b506105da600480360360408110156105a457600080fd5b81019080803573ffffffffffffffffffffffffffffffffffffffff16906020019092919080359060200190929190505050610f2f565b604051808215151515815260200191505060405180910390f35b34801561060057600080fd5b506106436004803603602081101561061757600080fd5b81019080803573ffffffffffffffffffffffffffffffffffffffff169060200190929190505050610fe2565b60405180831515151581526020018281526020019250505060405180910390f35b34801561067057600080fd5b506106b36004803603602081101561068757600080fd5b81019080803573ffffffffffffffffffffffffffffffffffffffff16906020019092919050505061108c565b6040518082815260200191505060405180910390f35b3480156106d557600080fd5b506106de6110d4565b005b3480156106ec57600080fd5b506106f561125f565b604051808273ffffffffffffffffffffffffffffffffffffffff1673ffffffffffffffffffffffffffffffffffffffff16815260200191505060405180910390f35b34801561074357600080fd5b5061074c611289565b6040518080602001828103825283818151815260200191508051906020019080838360005b8381101561078c578082015181840152602081019050610771565b50505050905090810190601f1680156107b95780820380516001836020036101000a031916815260200191505b509250505060405180910390f35b3480156107d357600080fd5b50610816600480360360208110156107ea57600080fd5b81019080803573ffffffffffffffffffffffffffffffffffffffff16906020019092919050505061132b565b005b34801561082457600080fd5b5061082d61147f565b6040518082815260200191505060405180910390f35b34801561084f57600080fd5b5061089c6004803603604081101561086657600080fd5b81019080803573ffffffffffffffffffffffffffffffffffffffff16906020019092919080359060200190929190505050611485565b604051808215151515815260200191505060405180910390f35b3480156108c257600080fd5b5061090f600480360360408110156108d957600080fd5b81019080803573ffffffffffffffffffffffffffffffffffffffff16906020019092919080359060200190929190505050611552565b604051808215151515815260200191505060405180910390f35b34801561093557600080fd5b5061093e611570565b6040518082815260200191505060405180910390f35b61095c611576565b005b34801561096a57600080fd5b506109cd6004803603604081101561098157600080fd5b81019080803573ffffffffffffffffffffffffffffffffffffffff169060200190929190803573ffffffffffffffffffffffffffffffffffffffff1690602001909291905050506116f4565b6040518082815260200191505060405180910390f35b3480156109ef57600080fd5b50610a3260048036036020811015610a0657600080fd5b81019080803573ffffffffffffffffffffffffffffffffffffffff16906020019092919050505061177b565b005b6006543414610a4257600080fd5b610a4c333461198b565b3460086000828254019250508190555034600960003373ffffffffffffffffffffffffffffffffffffffff1673ffffffffffffffffffffffffffffffffffffffff16815260200190815260200160002060008282540192505081905550600760009054906101000a900473ffffffffffffffffffffffffffffffffffffffff1673ffffffffffffffffffffffffffffffffffffffff166108fc349081150290604051600060405180830381858888f19350505050158015610b11573d6000803e3d6000fd5b507f6bdcbf937890e4d7c83a6d162066e0954a18d061a635c507d02cfe6b61c529a63334600960003373ffffffffffffffffffffffffffffffffffffffff1673ffffffffffffffffffffffffffffffffffffffff16815260200190815260200160002054604051808473ffffffffffffffffffffffffffffffffffffffff1673ffffffffffffffffffffffffffffffffffffffff168152602001838152602001828152602001935050505060405180910390a1565b606060038054600181600116156101000203166002900480601f016020809104026020016040519081016040528092919081815260200182805460018160011615610100020316600290048015610c5e5780601f10610c3357610100808354040283529160200191610c5e565b820191906000526020600020905b815481529060010190602001808311610c4157829003601f168201915b5050505050905090565b6000610c7c610c75611b52565b8484611b5a565b6001905092915050565b6000600854905090565b6000600960008373ffffffffffffffffffffffffffffffffffffffff1673ffffffffffffffffffffffffffffffffffffffff168152602001908152602001600020549050919050565b6000600254905090565b6000816006819055507f59b026b47a87053c766311bcf7903ea569f503b02471704897eac772fa03eacd6006546040518082815260200191505060405180910390a16006549050919050565b6000610d3c848484611d51565b610dfd84610d48611b52565b610df88560405180606001604052806028815260200161242160289139600160008b73ffffffffffffffffffffffffffffffffffffffff1673ffffffffffffffffffffffffffffffffffffffff1681526020019081526020016000206000610dae611b52565b73ffffffffffffffffffffffffffffffffffffffff1673ffffffffffffffffffffffffffffffffffffffff168152602001908152602001600020546120129092919063ffffffff16565b611b5a565b600190509392505050565b600080610e1483610fe2565b5090506000610e2284610c90565b905081158015610e33575060065481145b15610f0857600a849080600181540180825580915050600190039060005260206000200160009091909190916101000a81548173ffffffffffffffffffffffffffffffffffffffff021916908373ffffffffffffffffffffffffffffffffffffffff1602179055507fc0687b34adb081bf19c87a2a0a5bb56c4a9584ee8c67fce683c3fac163c27eb884604051808273ffffffffffffffffffffffffffffffffffffffff1673ffffffffffffffffffffffffffffffffffffffff16815260200191505060405180910390a18192505050610f0b565b50505b919050565b6000600560009054906101000a900460ff16905090565b600030905090565b6000610fd8610f3c611b52565b84610fd38560016000610f4d611b52565b73ffffffffffffffffffffffffffffffffffffffff1673ffffffffffffffffffffffffffffffffffffffff16815260200190815260200160002060008973ffffffffffffffffffffffffffffffffffffffff1673ffffffffffffffffffffffffffffffffffffffff168152602001908152602001600020546120d290919063ffffffff16565b611b5a565b6001905092915050565b60008060008090505b600a8054905081101561107b57600a818154811061100557fe5b9060005260206000200160009054906101000a900473ffffffffffffffffffffffffffffffffffffffff1673ffffffffffffffffffffffffffffffffffffffff168473ffffffffffffffffffffffffffffffffffffffff161415611070576001819250925050611087565b600181019050610feb565b50600080809050915091505b915091565b60008060008373ffffffffffffffffffffffffffffffffffffffff1673ffffffffffffffffffffffffffffffffffffffff168152602001908152602001600020549050919050565b6110dc611b52565b73ffffffffffffffffffffffffffffffffffffffff16600560019054906101000a900473ffffffffffffffffffffffffffffffffffffffff1673ffffffffffffffffffffffffffffffffffffffff161461119e576040517f08c379a00000000000000000000000000000000000000000000000000000000081526004018080602001828103825260208152602001807f4f776e61626c653a2063616c6c6572206973206e6f7420746865206f776e657281525060200191505060405180910390fd5b600073ffffffffffffffffffffffffffffffffffffffff16600560019054906101000a900473ffffffffffffffffffffffffffffffffffffffff1673ffffffffffffffffffffffffffffffffffffffff167f8be0079c531659141344cd1fd0a4f28419497f9722a3daafe3b4186f6b6457e060405160405180910390a36000600560016101000a81548173ffffffffffffffffffffffffffffffffffffffff021916908373ffffffffffffffffffffffffffffffffffffffff160217905550565b6000600560019054906101000a900473ffffffffffffffffffffffffffffffffffffffff16905090565b606060048054600181600116156101000203166002900480601f0160208091040260200160405190810160405280929190818152602001828054600181600116156101000203166002900480156113215780601f106112f657610100808354040283529160200191611321565b820191906000526020600020905b81548152906001019060200180831161130457829003601f168201915b5050505050905090565b60008061133783610fe2565b91509150811561147a57600a6001600a80549050038154811061135657fe5b9060005260206000200160009054906101000a900473ffffffffffffffffffffffffffffffffffffffff16600a828154811061138e57fe5b9060005260206000200160006101000a81548173ffffffffffffffffffffffffffffffffffffffff021916908373ffffffffffffffffffffffffffffffffffffffff160217905550600a8054806113e157fe5b6001900381819060005260206000200160006101000a81549073ffffffffffffffffffffffffffffffffffffffff021916905590557fb97b17a738bc54faf4f156f2072573525abf5a6f9fe4e3f78a2f159d7a85180583604051808273ffffffffffffffffffffffffffffffffffffffff1673ffffffffffffffffffffffffffffffffffffffff16815260200191505060405180910390a15b505050565b60065481565b6000611548611492611b52565b84611543856040518060600160405280602581526020016124b360259139600160006114bc611b52565b73ffffffffffffffffffffffffffffffffffffffff1673ffffffffffffffffffffffffffffffffffffffff16815260200190815260200160002060008a73ffffffffffffffffffffffffffffffffffffffff1673ffffffffffffffffffffffffffffffffffffffff168152602001908152602001600020546120129092919063ffffffff16565b611b5a565b6001905092915050565b600061156661155f611b52565b8484611d51565b6001905092915050565b60085481565b600654341461158457600080fd5b60003390506115958160065461215a565b600654600860008282540392505081905550600654600960008373ffffffffffffffffffffffffffffffffffffffff1673ffffffffffffffffffffffffffffffffffffffff168152602001908152602001600020600082825403925050819055508073ffffffffffffffffffffffffffffffffffffffff166108fc6006549081150290604051600060405180830381858888f1935050505015801561163e573d6000803e3d6000fd5b507f7231d9b023ca3b1ac4645b261e0e008697318d4181c4630e9cb5e1709493fe523334600960003373ffffffffffffffffffffffffffffffffffffffff1673ffffffffffffffffffffffffffffffffffffffff16815260200190815260200160002054604051808473ffffffffffffffffffffffffffffffffffffffff1673ffffffffffffffffffffffffffffffffffffffff168152602001838152602001828152602001935050505060405180910390a150565b6000600160008473ffffffffffffffffffffffffffffffffffffffff1673ffffffffffffffffffffffffffffffffffffffff16815260200190815260200160002060008373ffffffffffffffffffffffffffffffffffffffff1673ffffffffffffffffffffffffffffffffffffffff16815260200190815260200160002054905092915050565b611783611b52565b73ffffffffffffffffffffffffffffffffffffffff16600560019054906101000a900473ffffffffffffffffffffffffffffffffffffffff1673ffffffffffffffffffffffffffffffffffffffff1614611845576040517f08c379a00000000000000000000000000000000000000000000000000000000081526004018080602001828103825260208152602001807f4f776e61626c653a2063616c6c6572206973206e6f7420746865206f776e657281525060200191505060405180910390fd5b600073ffffffffffffffffffffffffffffffffffffffff168173ffffffffffffffffffffffffffffffffffffffff1614156118cb576040517f08c379a00000000000000000000000000000000000000000000000000000000081526004018080602001828103825260268152602001806123b36026913960400191505060405180910390fd5b8073ffffffffffffffffffffffffffffffffffffffff16600560019054906101000a900473ffffffffffffffffffffffffffffffffffffffff1673ffffffffffffffffffffffffffffffffffffffff167f8be0079c531659141344cd1fd0a4f28419497f9722a3daafe3b4186f6b6457e060405160405180910390a380600560016101000a81548173ffffffffffffffffffffffffffffffffffffffff021916908373ffffffffffffffffffffffffffffffffffffffff16021790555050565b600073ffffffffffffffffffffffffffffffffffffffff168273ffffffffffffffffffffffffffffffffffffffff161415611a2e576040517f08c379a000000000000000000000000000000000000000000000000000000000815260040180806020018281038252601f8152602001807f45524332303a206d696e7420746f20746865207a65726f20616464726573730081525060200191505060405180910390fd5b611a3a6000838361231e565b611a4f816002546120d290919063ffffffff16565b600281905550611aa6816000808573ffffffffffffffffffffffffffffffffffffffff1673ffffffffffffffffffffffffffffffffffffffff168152602001908152602001600020546120d290919063ffffffff16565b6000808473ffffffffffffffffffffffffffffffffffffffff1673ffffffffffffffffffffffffffffffffffffffff168152602001908152602001600020819055508173ffffffffffffffffffffffffffffffffffffffff16600073ffffffffffffffffffffffffffffffffffffffff167fddf252ad1be2c89b69c2b068fc378daa952ba7f163c4a11628f55a4df523b3ef836040518082815260200191505060405180910390a35050565b600033905090565b600073ffffffffffffffffffffffffffffffffffffffff168373ffffffffffffffffffffffffffffffffffffffff161415611be0576040517f08c379a000000000000000000000000000000000000000000000000000000000815260040180806020018281038252602481526020018061248f6024913960400191505060405180910390fd5b600073ffffffffffffffffffffffffffffffffffffffff168273ffffffffffffffffffffffffffffffffffffffff161415611c66576040517f08c379a00000000000000000000000000000000000000000000000000000000081526004018080602001828103825260228152602001806123d96022913960400191505060405180910390fd5b80600160008573ffffffffffffffffffffffffffffffffffffffff1673ffffffffffffffffffffffffffffffffffffffff16815260200190815260200160002060008473ffffffffffffffffffffffffffffffffffffffff1673ffffffffffffffffffffffffffffffffffffffff168152602001908152602001600020819055508173ffffffffffffffffffffffffffffffffffffffff168373ffffffffffffffffffffffffffffffffffffffff167f8c5be1e5ebec7d5bd14f71427d1e84f3dd0314c0f7b2291e5b200ac8c7c3b925836040518082815260200191505060405180910390a3505050565b600073ffffffffffffffffffffffffffffffffffffffff168373ffffffffffffffffffffffffffffffffffffffff161415611dd7576040517f08c379a000000000000000000000000000000000000000000000000000000000815260040180806020018281038252602581526020018061246a6025913960400191505060405180910390fd5b600073ffffffffffffffffffffffffffffffffffffffff168273ffffffffffffffffffffffffffffffffffffffff161415611e5d576040517f08c379a000000000000000000000000000000000000000000000000000000000815260040180806020018281038252602381526020018061236e6023913960400191505060405180910390fd5b611e6883838361231e565b611ed3816040518060600160405280602681526020016123fb602691396000808773ffffffffffffffffffffffffffffffffffffffff1673ffffffffffffffffffffffffffffffffffffffff168152602001908152602001600020546120129092919063ffffffff16565b6000808573ffffffffffffffffffffffffffffffffffffffff1673ffffffffffffffffffffffffffffffffffffffff16815260200190815260200160002081905550611f66816000808573ffffffffffffffffffffffffffffffffffffffff1673ffffffffffffffffffffffffffffffffffffffff168152602001908152602001600020546120d290919063ffffffff16565b6000808473ffffffffffffffffffffffffffffffffffffffff1673ffffffffffffffffffffffffffffffffffffffff168152602001908152602001600020819055508173ffffffffffffffffffffffffffffffffffffffff168373ffffffffffffffffffffffffffffffffffffffff167fddf252ad1be2c89b69c2b068fc378daa952ba7f163c4a11628f55a4df523b3ef836040518082815260200191505060405180910390a3505050565b60008383111582906120bf576040517f08c379a00000000000000000000000000000000000000000000000000000000081526004018080602001828103825283818151815260200191508051906020019080838360005b83811015612084578082015181840152602081019050612069565b50505050905090810190601f1680156120b15780820380516001836020036101000a031916815260200191505b509250505060405180910390fd5b5060008385039050809150509392505050565b600080828401905083811015612150576040517f08c379a000000000000000000000000000000000000000000000000000000000815260040180806020018281038252601b8152602001807f536166654d6174683a206164646974696f6e206f766572666c6f77000000000081525060200191505060405180910390fd5b8091505092915050565b600073ffffffffffffffffffffffffffffffffffffffff168273ffffffffffffffffffffffffffffffffffffffff1614156121e0576040517f08c379a00000000000000000000000000000000000000000000000000000000081526004018080602001828103825260218152602001806124496021913960400191505060405180910390fd5b6121ec8260008361231e565b61225781604051806060016040528060228152602001612391602291396000808673ffffffffffffffffffffffffffffffffffffffff1673ffffffffffffffffffffffffffffffffffffffff168152602001908152602001600020546120129092919063ffffffff16565b6000808473ffffffffffffffffffffffffffffffffffffffff1673ffffffffffffffffffffffffffffffffffffffff168152602001908152602001600020819055506122ae8160025461232390919063ffffffff16565b600281905550600073ffffffffffffffffffffffffffffffffffffffff168273ffffffffffffffffffffffffffffffffffffffff167fddf252ad1be2c89b69c2b068fc378daa952ba7f163c4a11628f55a4df523b3ef836040518082815260200191505060405180910390a35050565b505050565b600061236583836040518060400160405280601e81526020017f536166654d6174683a207375627472616374696f6e206f766572666c6f770000815250612012565b90509291505056fe45524332303a207472616e7366657220746f20746865207a65726f206164647265737345524332303a206275726e20616d6f756e7420657863656564732062616c616e63654f776e61626c653a206e6577206f776e657220697320746865207a65726f206164647265737345524332303a20617070726f766520746f20746865207a65726f206164647265737345524332303a207472616e7366657220616d6f756e7420657863656564732062616c616e636545524332303a207472616e7366657220616d6f756e74206578636565647320616c6c6f77616e636545524332303a206275726e2066726f6d20746865207a65726f206164647265737345524332303a207472616e736665722066726f6d20746865207a65726f206164647265737345524332303a20617070726f76652066726f6d20746865207a65726f206164647265737345524332303a2064656372656173656420616c6c6f77616e63652062656c6f77207a65726fa2646970667358221220377fe7526d4e179d61dae3bf5b787b76fdb7ef9fa94c678578f7a54aa90cb47b64736f6c63430006020033",
  "source": "pragma solidity ^0.6.0;\n\nimport \"../../node_modules/openzeppelin-solidity/contracts/token/ERC20/ERC20.sol\";\nimport \"../../node_modules/openzeppelin-solidity/contracts/math/SafeMath.sol\";\nimport \"../../node_modules/openzeppelin-solidity/contracts/access/Ownable.sol\";\n\n/**\n* @title Staking Token\n* @notice Implements an ERC20 staking token that is connected to a registry.\n*/\n\ncontract RegistryToken is ERC20, Ownable {\n    using SafeMath for uint256;\n\n    uint256 public stakePrice;\n    address payable wallet = payable(address(this));\n    uint256 public balance = wallet.balance;\n    mapping (address => uint256) private _balances;\n    address[] internal stakers;    \n\n    /// @notice Emitted when a new RegistryToken is created.\n    event RegistryTokenCreated(address _owner, string _tokenName, string tokenSymbol, uint256 tokenSupply, uint256 stakePrice);\n\n    /// @notice Emitted when tokens are received by RegistryToken.\n    event Received(address _stake, uint256 _amount);\n\n    /// @notice Emitted when a new staker is added to RegistryToken.\n    event StakerAdded(address _staker);\n\n    /// @notice Emitted when a new staker is removed to RegistryToken.\n    event StakerRemoved(address _staker);\n\n    /// @notice Emitted when a new stake price is set.\n    event StakePriceSet(uint256 _newStakePrice);\n\n    /// @notice Emitted when new tokens are staked and minted to `msg.sender`.\n    event StakeSent(address _sender, uint256 _amount, uint256 _senderBalance);\n\n    /// @notice Emitted when new tokens are returned and burned to `msg.sender`.\n    event StakeReturned(address _sender, uint256 _amount, uint256 _senderBalance);\n\n    /**\n     * @notice Constructs a new RegistryToken.\n     * @param _owner The address that will own and control the RegistryToken contract.\n     * @param _tokenName The token name for the RegistryToken.\n     * @param _tokenSymbol The RegistryToken's symbol (e.g. 'INI').\n     * @param _tokenSupply The initial total supply for the RegistryToken.\n     * @param _stakePrice The initial amount/price to add an Entry to the Registry, denominated in Infinity Token.\n     */\n\n    constructor(\n        address _owner, \n        string memory _tokenName, \n        string memory _tokenSymbol, \n        uint256 _tokenSupply,\n        uint256 _stakePrice) \n    ERC20(_tokenName, _tokenSymbol) \n        public\n        payable\n    { \n        _mint(_owner, _tokenSupply);\n        stakePrice = _stakePrice;\n        emit RegistryTokenCreated(_owner, _tokenName, _tokenSymbol, _tokenSupply, _stakePrice);\n    }\n\n    /**\n     * @notice Adds a new staker to the RegistryToken.\n     * @param _staker The address of the staker to be added. \n     * @return boolean on whether or not staker is addedd successfully.\n     */\n\n    function addStaker(address _staker)\n        public \n    returns(bool)\n    {\n        (bool _isStaker, ) = isStaker(_staker);\n        uint256 stakerBalance = getBalanceAddress(_staker);\n        if((!_isStaker) && (stakerBalance==stakePrice)) {\n            stakers.push(_staker);\n            emit StakerAdded(_staker);\n            return(_isStaker);\n        }\n    }\n\n    /**\n     * @notice Removes a staker from the RegistryToken.\n     * @param _staker The address of the staker to be removed. \n     */\n\n    function removeStaker(address _staker)\n        public\n    {\n        (bool _isStaker, uint256 s) = isStaker(_staker);\n        if(_isStaker){\n            stakers[s] = stakers[stakers.length - 1];\n            stakers.pop();\n            emit StakerRemoved(_staker);\n        }\n    }\n\n    /**\n     * @notice Returns if a staker exists in the Registry and their total number of registry tokens.\n     * @param _address The address of the staker.\n     * @return boolean representing if staker exists in the Registry and uint256 of total numbers of Registry tokens assigned to `_address`.\n     */\n\n    function isStaker(address _address)\n       public\n       view\n    returns(bool, uint256)\n    {\n        for (uint256 i = 0; i < stakers.length; i += 1){\n            if (_address == stakers[i]) return (true, i);\n        }\n        return (false, 0);\n    }\n\n    /**\n     * @notice Sets the stake price for a RegistryToken.\n     * @param _newStakePrice The new stake price to be used for adding registry entries.\n     * @return uint256 representing the new stake price, denominated in Infinity.\n     */\n\n    function setStakePrice(uint256 _newStakePrice) public returns (uint256) {\n        stakePrice = _newStakePrice;\n        emit StakePriceSet(stakePrice);\n        return stakePrice;\n    }\n\n    /**\n     * @notice Mints new registry tokens `msg.sender` upon sending Infinity to RegistryToken equal to `stakePrice`.\n     * Requires `msg.sender` sends a valid `msg.value` in the transaction.\n     */\n\n    function sendStake()\n        public\n        payable\n    {\n        require(msg.value == stakePrice);\n        _mint(msg.sender, msg.value);\n        balance += msg.value;\n        _balances[msg.sender] += msg.value;\n        wallet.transfer(msg.value);\n        \n        emit StakeSent(msg.sender, msg.value, _balances[msg.sender]);\n    }\n\n    /**\n     * @notice Withdraws registry tokens held by `msg.sender`, burns the associated number of registry tokens and returns the current amount of Infinity staked.\n     * Requires `msg.sender` sends a valid `msg.value` in the transaction.\n     */\n\n    function withdrawStake()\n        public\n        payable\n    {\n        require(msg.value == stakePrice);\n        address payable sender = msg.sender;\n        _burn(sender, stakePrice);\n        balance -= stakePrice;\n        _balances[sender] -= stakePrice;\n        sender.transfer(stakePrice);\n\n        emit StakeReturned(msg.sender, msg.value, _balances[msg.sender]);\n    }\n\n    /**\n     * @notice Returns the balance of all tokens in the RegistryToken.\n     * @return uint256 reprenting the balance \n     */\n\n    function getBalance() \n        public \n        view\n    returns (uint256) \n    {\n        return balance;\n    }\n\n    /**\n     * @notice Returns the balance of tokens for a particular address.\n     * @param _address The total number of registry tokens held by an address.\n     * @return uint256 reprenting the address balance \n     */\n\n    function getBalanceAddress(address _address)\n        public\n        view\n    returns (uint256)\n    {\n        return _balances[_address];\n    }\n\n     /**\n     * @notice Returns a `payable` address of the RegistryToken.\n     */\n\n    function getAddress()\n        public\n        view\n    returns(address payable)\n    {\n        return payable(address(this));\n    }\n\n    /**\n     * @notice Method is executed if tokens are transfered to RegistryContract without a proper call.\n     */\n\n    fallback() external payable {\n        sendStake();\n    }\n\n    /**\n     * @notice Method is executed when tokens are sent to RegistryContract.\n     */\n\n    receive() external payable {\n        emit Received(msg.sender, msg.value);\n    }\n}",
  "sourcePath": "/Users/neo/Code/ZNS/contracts/RegistryToken/RegistryToken.sol",
  "compiler": {
    "name": "solc",
    "version": "0.6.2+commit.bacdbe57.Emscripten.clang"
  },
  "schemaVersion": "3.2.3",
  "updatedAt": "2020-09-14T05:17:20.810Z",
  "devdoc": {
    "methods": {
      "addStaker(address)": {
        "params": {
          "_staker": "The address of the staker to be added. "
        },
        "returns": {
          "_0": "boolean on whether or not staker is addedd successfully."
        }
      },
      "allowance(address,address)": {
        "details": "See {IERC20-allowance}."
      },
      "approve(address,uint256)": {
        "details": "See {IERC20-approve}.     * Requirements:     * - `spender` cannot be the zero address."
      },
      "balanceOf(address)": {
        "details": "See {IERC20-balanceOf}."
      },
      "constructor": {
        "params": {
          "_owner": "The address that will own and control the RegistryToken contract.",
          "_stakePrice": "The initial amount/price to add an Entry to the Registry, denominated in Infinity Token.",
          "_tokenName": "The token name for the RegistryToken.",
          "_tokenSupply": "The initial total supply for the RegistryToken.",
          "_tokenSymbol": "The RegistryToken's symbol (e.g. 'INI')."
        }
      },
      "decimals()": {
        "details": "Returns the number of decimals used to get its user representation. For example, if `decimals` equals `2`, a balance of `505` tokens should be displayed to a user as `5,05` (`505 / 10 ** 2`).     * Tokens usually opt for a value of 18, imitating the relationship between Ether and Wei. This is the value {ERC20} uses, unless {_setupDecimals} is called.     * NOTE: This information is only used for _display_ purposes: it in no way affects any of the arithmetic of the contract, including {IERC20-balanceOf} and {IERC20-transfer}."
      },
      "decreaseAllowance(address,uint256)": {
        "details": "Atomically decreases the allowance granted to `spender` by the caller.     * This is an alternative to {approve} that can be used as a mitigation for problems described in {IERC20-approve}.     * Emits an {Approval} event indicating the updated allowance.     * Requirements:     * - `spender` cannot be the zero address. - `spender` must have allowance for the caller of at least `subtractedValue`."
      },
      "getBalanceAddress(address)": {
        "params": {
          "_address": "The total number of registry tokens held by an address."
        },
        "returns": {
          "_0": "uint256 reprenting the address balance "
        }
      },
      "increaseAllowance(address,uint256)": {
        "details": "Atomically increases the allowance granted to `spender` by the caller.     * This is an alternative to {approve} that can be used as a mitigation for problems described in {IERC20-approve}.     * Emits an {Approval} event indicating the updated allowance.     * Requirements:     * - `spender` cannot be the zero address."
      },
      "isStaker(address)": {
        "params": {
          "_address": "The address of the staker."
        },
        "returns": {
          "_0": "boolean representing if staker exists in the Registry and uint256 of total numbers of Registry tokens assigned to `_address`."
        }
      },
      "name()": {
        "details": "Returns the name of the token."
      },
      "owner()": {
        "details": "Returns the address of the current owner."
      },
      "removeStaker(address)": {
        "params": {
          "_staker": "The address of the staker to be removed. "
        }
      },
      "renounceOwnership()": {
        "details": "Leaves the contract without owner. It will not be possible to call `onlyOwner` functions anymore. Can only be called by the current owner.     * NOTE: Renouncing ownership will leave the contract without an owner, thereby removing any functionality that is only available to the owner."
      },
      "setStakePrice(uint256)": {
        "params": {
          "_newStakePrice": "The new stake price to be used for adding registry entries."
        },
        "returns": {
          "_0": "uint256 representing the new stake price, denominated in Infinity."
        }
      },
      "symbol()": {
        "details": "Returns the symbol of the token, usually a shorter version of the name."
      },
      "totalSupply()": {
        "details": "See {IERC20-totalSupply}."
      },
      "transfer(address,uint256)": {
        "details": "See {IERC20-transfer}.     * Requirements:     * - `recipient` cannot be the zero address. - the caller must have a balance of at least `amount`."
      },
      "transferFrom(address,address,uint256)": {
        "details": "See {IERC20-transferFrom}.     * Emits an {Approval} event indicating the updated allowance. This is not required by the EIP. See the note at the beginning of {ERC20};     * Requirements: - `sender` and `recipient` cannot be the zero address. - `sender` must have a balance of at least `amount`. - the caller must have allowance for ``sender``'s tokens of at least `amount`."
      },
      "transferOwnership(address)": {
        "details": "Transfers ownership of the contract to a new account (`newOwner`). Can only be called by the current owner."
      }
    },
    "title": "Staking Token"
  },
  "userdoc": {
    "methods": {
      "addStaker(address)": {
        "notice": "Adds a new staker to the RegistryToken."
      },
      "constructor": "Constructs a new RegistryToken.",
      "getAddress()": {
        "notice": "Returns a `payable` address of the RegistryToken."
      },
      "getBalance()": {
        "notice": "Returns the balance of all tokens in the RegistryToken."
      },
      "getBalanceAddress(address)": {
        "notice": "Returns the balance of tokens for a particular address."
      },
      "isStaker(address)": {
        "notice": "Returns if a staker exists in the Registry and their total number of registry tokens."
      },
      "removeStaker(address)": {
        "notice": "Removes a staker from the RegistryToken."
      },
      "sendStake()": {
        "notice": "Mints new registry tokens `msg.sender` upon sending Infinity to RegistryToken equal to `stakePrice`. Requires `msg.sender` sends a valid `msg.value` in the transaction."
      },
      "setStakePrice(uint256)": {
        "notice": "Sets the stake price for a RegistryToken."
      },
      "withdrawStake()": {
        "notice": "Withdraws registry tokens held by `msg.sender`, burns the associated number of registry tokens and returns the current amount of Infinity staked. Requires `msg.sender` sends a valid `msg.value` in the transaction."
      }
    },
    "notice": "Implements an ERC20 staking token that is connected to a registry."
  }
}