{
  "contractName": "Registrar",
  "abi": [
    {
      "anonymous": false,
      "inputs": [
        {
          "indexed": false,
          "internalType": "string",
          "name": "domain",
          "type": "string"
        },
        {
          "indexed": false,
          "internalType": "string",
          "name": "ref",
          "type": "string"
        },
        {
          "indexed": false,
          "internalType": "string",
          "name": "registryType",
          "type": "string"
        },
        {
          "indexed": false,
          "internalType": "uint256",
          "name": "stakePrice",
          "type": "uint256"
        },
        {
          "indexed": false,
          "internalType": "address",
          "name": "registryToken",
          "type": "address"
        },
        {
          "indexed": false,
          "internalType": "address",
          "name": "registry",
          "type": "address"
        },
        {
          "indexed": false,
          "internalType": "address",
          "name": "registryController",
          "type": "address"
        }
      ],
      "name": "RegistryCreated",
      "type": "event"
    },
    {
      "inputs": [
        {
          "internalType": "uint256",
          "name": "",
          "type": "uint256"
        }
      ],
      "name": "registrar",
      "outputs": [
        {
          "internalType": "address",
          "name": "",
          "type": "address"
        }
      ],
      "stateMutability": "view",
      "type": "function",
      "constant": true
    },
    {
      "inputs": [
        {
          "internalType": "string",
          "name": "_domain",
          "type": "string"
        },
        {
          "internalType": "string",
          "name": "_ref",
          "type": "string"
        },
        {
          "internalType": "string",
          "name": "_registryType",
          "type": "string"
        },
        {
          "internalType": "uint256",
          "name": "_stakePrice",
          "type": "uint256"
        },
        {
          "internalType": "address payable",
          "name": "_registryTokenProxyAddress",
          "type": "address"
        }
      ],
      "name": "createRegistry",
      "outputs": [],
      "stateMutability": "nonpayable",
      "type": "function"
    },
    {
      "inputs": [],
      "name": "getRegistryOwner",
      "outputs": [
        {
          "internalType": "address",
          "name": "",
          "type": "address"
        }
      ],
      "stateMutability": "view",
      "type": "function",
      "constant": true
    },
    {
      "inputs": [],
      "name": "getRegistrarLength",
      "outputs": [
        {
          "internalType": "uint256",
          "name": "",
          "type": "uint256"
        }
      ],
      "stateMutability": "view",
      "type": "function",
      "constant": true
    },
    {
      "inputs": [
        {
          "internalType": "string",
          "name": "_domain",
          "type": "string"
        }
      ],
      "name": "getRegistryController",
      "outputs": [
        {
          "internalType": "address",
          "name": "",
          "type": "address"
        }
      ],
      "stateMutability": "view",
      "type": "function",
      "constant": true
    },
    {
      "inputs": [
        {
          "internalType": "string",
          "name": "_domain",
          "type": "string"
        }
      ],
      "name": "getRegistryType",
      "outputs": [
        {
          "internalType": "string",
          "name": "",
          "type": "string"
        }
      ],
      "stateMutability": "view",
      "type": "function",
      "constant": true
    }
  ],
  "bytecode": "0x608060405234801561001057600080fd5b506146a3806100206000396000f3fe60806040523480156200001157600080fd5b50600436106200006a5760003560e01c8063132a77ee146200006f57806337c3a7da14620001355780637ab77e4a14620001515780639433fcbc146200015b578063d31097da146200017b578063ef08989d1462000345575b600080fd5b62000119600480360360208110156200008757600080fd5b810190602081018135600160201b811115620000a257600080fd5b820183602082011115620000b557600080fd5b803590602001918460018302840111600160201b83111715620000d757600080fd5b91908080601f01602080910402602001604051908101604052809392919081815260200183838082843760009201919091525092955062000467945050505050565b604080516001600160a01b039092168252519081900360200190f35b6200013f620004da565b60408051918252519081900360200190f35b62000119620004e1565b62000119600480360360208110156200017357600080fd5b50356200055a565b62000343600480360360a08110156200019357600080fd5b810190602081018135600160201b811115620001ae57600080fd5b820183602082011115620001c157600080fd5b803590602001918460018302840111600160201b83111715620001e357600080fd5b91908080601f0160208091040260200160405190810160405280939291908181526020018383808284376000920191909152509295949360208101935035915050600160201b8111156200023657600080fd5b8201836020820111156200024957600080fd5b803590602001918460018302840111600160201b831117156200026b57600080fd5b91908080601f0160208091040260200160405190810160405280939291908181526020018383808284376000920191909152509295949360208101935035915050600160201b811115620002be57600080fd5b820183602082011115620002d157600080fd5b803590602001918460018302840111600160201b83111715620002f357600080fd5b91908080601f01602080910402602001604051908101604052809392919081815260200183838082843760009201919091525092955050823593505050602001356001600160a01b031662000582565b005b620003ef600480360360208110156200035d57600080fd5b810190602081018135600160201b8111156200037857600080fd5b8201836020820111156200038b57600080fd5b803590602001918460018302840111600160201b83111715620003ad57600080fd5b91908080601f01602080910402602001604051908101604052809392919081815260200183838082843760009201919091525092955062000eab945050505050565b6040805160208082528351818301528351919283929083019185019080838360005b838110156200042b57818101518382015260200162000411565b50505050905090810190601f168015620004595780820380516001836020036101000a031916815260200191505b509250505060405180910390f35b60006006826040518082805190602001908083835b602083106200049d5780518252601f1990920191602091820191016200047c565b51815160209384036101000a60001901801990921691161790529201948552506040519384900301909220546001600160a01b0316949350505050565b6007545b90565b60025460408051638da5cb5b60e01b815290516000926001600160a01b031691638da5cb5b916004808301926020929190829003018186803b1580156200052757600080fd5b505afa1580156200053c573d6000803e3d6000fd5b505050506040513d60208110156200055357600080fd5b5051905090565b600781815481106200056857fe5b6000918252602090912001546001600160a01b0316905081565b600380546001600160a01b0319166001600160a01b038316179055604051620005ab9062000fa8565b604051809103906000f080158015620005c8573d6000803e3d6000fd5b50600080546001600160a01b0319166001600160a01b03928316178155600354604051921660848301819052608060248401908152885160a485015288516060948a948a948a949093909283926044820192606483019260c4019160208b0191908190849084905b838110156200064a57818101518382015260200162000630565b50505050905090810190601f168015620006785780820380516001836020036101000a031916815260200191505b50848103835287518152875160209182019189019080838360005b83811015620006ad57818101518382015260200162000693565b50505050905090810190601f168015620006db5780820380516001836020036101000a031916815260200191505b50848103825286518152865160209182019188019080838360005b8381101562000710578181015183820152602001620006f6565b50505050905090810190601f1680156200073e5780820380516001836020036101000a031916815260200191505b5060408051601f198184030181529181526020820180516001600160e01b0316635c6d8da160e01b1790526000549051919a506001600160a01b03169850339750899650620007949550935062000fb692505050565b80846001600160a01b03166001600160a01b03168152602001836001600160a01b03166001600160a01b0316815260200180602001828103825283818151815260200191508051906020019080838360005b8381101562000800578181015183820152602001620007e6565b50505050905090810190601f1680156200082e5780820380516001836020036101000a031916815260200191505b50945050505050604051809103906000f08015801562000852573d6000803e3d6000fd5b50600180546001600160a01b0319166001600160a01b0392909216919091179055604051620008819062000fc4565b604051809103906000f0801580156200089e573d6000803e3d6000fd5b50600480546001600160a01b039283166001600160a01b0319909116179081905560015460035460408051928516602484015290841660448084019190915281518084039091018152606490920181526020820180516001600160e01b031663485cc95560e01b1790525190929190911690339083906200091f9062000fb6565b80846001600160a01b03166001600160a01b03168152602001836001600160a01b03166001600160a01b0316815260200180602001828103825283818151815260200191508051906020019080838360005b838110156200098b57818101518382015260200162000971565b50505050905090810190601f168015620009b95780820380516001836020036101000a031916815260200191505b50945050505050604051809103906000f080158015620009dd573d6000803e3d6000fd5b50600580546001600160a01b039283166001600160a01b031991821617918290556001546002805490921690841617908190556040805163f2fde38b60e01b815292841660048401525192169163f2fde38b9160248082019260009290919082900301818387803b15801562000a5257600080fd5b505af115801562000a67573d6000803e3d6000fd5b50506005546040518a516001600160a01b039092169350600692508a91819060208401908083835b6020831062000ab05780518252601f19909201916020918201910162000a8f565b51815160209384036101000a6000190180199092169116179052920194855250604051938490038101842080546001600160a01b0319166001600160a01b039690961695909517909455505088518992600692849290918291908401908083835b6020831062000b325780518252601f19909201916020918201910162000b11565b6001836020036101000a0380198251168184511680821785525050505050509050019150509081526020016040518091039020600101908051906020019062000b7d92919062000fd2565b50846006886040518082805190602001908083835b6020831062000bb35780518252601f19909201916020918201910162000b92565b51815160209384036101000a6000190180199092169116179052920194855250604051938490038101909320845162000bfa95600290920194919091019250905062000fd2565b5060076006886040518082805190602001908083835b6020831062000c315780518252601f19909201916020918201910162000c10565b51815160001960209485036101000a019081169019919091161790529201948552506040519384900381018420548554600181810188556000978852968390200180546001600160a01b0319166001600160a01b0392831617905560035495548d517f3f061e93054eec612830c0d96f30ae527e2f4793adb104a8003b904d2d4c1818978f978f97508e96508d9591851694939093169260069289928291908401908083835b6020831062000cf85780518252601f19909201916020918201910162000cd7565b518151600019602094850361010090810a91909101918216911992909216179091529390910195865260408051968790038201872054606088018b90526001600160a01b038a811660808a015289811660a08a01521660c0880181905260e08089528e51908901528d5190979650869550858301949186019350908501918d019080838360005b8381101562000d9957818101518382015260200162000d7f565b50505050905090810190601f16801562000dc75780820380516001836020036101000a031916815260200191505b5084810383528a5181528a516020918201918c019080838360005b8381101562000dfc57818101518382015260200162000de2565b50505050905090810190601f16801562000e2a5780820380516001836020036101000a031916815260200191505b5084810382528951815289516020918201918b019080838360005b8381101562000e5f57818101518382015260200162000e45565b50505050905090810190601f16801562000e8d5780820380516001836020036101000a031916815260200191505b509a505050505050505050505060405180910390a150505050505050565b60606006826040518082805190602001908083835b6020831062000ee15780518252601f19909201916020918201910162000ec0565b518151600019602094850361010090810a8201928316921993909316919091179092529490920196875260408051978890038201882060029081018054601f60018216159098029095019094160494850182900482028801820190528387529094509192505083018282801562000f9c5780601f1062000f705761010080835404028352916020019162000f9c565b820191906000526020600020905b81548152906001019060200180831162000f7e57829003601f168201915b50505050509050919050565b61146c806200107583390190565b610a0a80620024e183390190565b6117838062002eeb83390190565b828054600181600116156101000203166002900490600052602060002090601f016020900481019282601f106200101557805160ff191683800117855562001045565b8280016001018555821562001045579182015b828111156200104557825182559160200191906001019062001028565b506200105392915062001057565b5090565b620004de91905b808211156200105357600081556001016200105e56fe608060405234801561001057600080fd5b5061144c806100206000396000f3fe608060405234801561001057600080fd5b50600436106100b45760003560e01c80635c6d8da1116100715780635c6d8da1146104a1578063715018a6146105b85780638da5cb5b146105c0578063c822d7f0146105c8578063f2fde38b14610687578063fb3e6444146106ad576100b4565b8063149adf58146100b9578063164f25bf1461019c5780631692f21f1461025c5780631d6d32ba1461031a5780631d8e2f58146103225780635ab1bd5314610346575b600080fd5b610127600480360360208110156100cf57600080fd5b810190602081018135600160201b8111156100e957600080fd5b8201836020820111156100fb57600080fd5b803590602001918460018302840111600160201b8311171561011c57600080fd5b50909250905061071b565b6040805160208082528351818301528351919283929083019185019080838360005b83811015610161578181015183820152602001610149565b50505050905090810190601f16801561018e5780820380516001836020036101000a031916815260200191505b509250505060405180910390f35b61025a600480360360408110156101b257600080fd5b810190602081018135600160201b8111156101cc57600080fd5b8201836020820111156101de57600080fd5b803590602001918460018302840111600160201b831117156101ff57600080fd5b919390929091602081019035600160201b81111561021c57600080fd5b82018360208201111561022e57600080fd5b803590602001918460018302840111600160201b8311171561024f57600080fd5b5090925090506107d0565b005b61025a6004803603604081101561027257600080fd5b810190602081018135600160201b81111561028c57600080fd5b82018360208201111561029e57600080fd5b803590602001918460018302840111600160201b831117156102bf57600080fd5b919390929091602081019035600160201b8111156102dc57600080fd5b8201836020820111156102ee57600080fd5b803590602001918460018302840111600160201b8311171561030f57600080fd5b5090925090506109b5565b610127610b16565b61032a610bad565b604080516001600160a01b039092168252519081900360200190f35b61034e610bbc565b604080516001600160a01b0383166060820152608080825286519082015285519091829160208084019284019160a08501918a019080838360005b838110156103a1578181015183820152602001610389565b50505050905090810190601f1680156103ce5780820380516001836020036101000a031916815260200191505b50848103835287518152875160209182019189019080838360005b838110156104015781810151838201526020016103e9565b50505050905090810190601f16801561042e5780820380516001836020036101000a031916815260200191505b50848103825286518152865160209182019188019080838360005b83811015610461578181015183820152602001610449565b50505050905090810190601f16801561048e5780820380516001836020036101000a031916815260200191505b5097505050505050505060405180910390f35b61025a600480360360808110156104b757600080fd5b810190602081018135600160201b8111156104d157600080fd5b8201836020820111156104e357600080fd5b803590602001918460018302840111600160201b8311171561050457600080fd5b919390929091602081019035600160201b81111561052157600080fd5b82018360208201111561053357600080fd5b803590602001918460018302840111600160201b8311171561055457600080fd5b919390929091602081019035600160201b81111561057157600080fd5b82018360208201111561058357600080fd5b803590602001918460018302840111600160201b831117156105a457600080fd5b9193509150356001600160a01b0316610d96565b61025a610e89565b61032a610f2b565b61066c600480360360208110156105de57600080fd5b810190602081018135600160201b8111156105f857600080fd5b82018360208201111561060a57600080fd5b803590602001918460018302840111600160201b8311171561062b57600080fd5b91908080601f016020809104026020016040519081016040528093929190818152602001838380828437600092019190915250929550610f3a945050505050565b60408051921515835260208301919091528051918290030190f35b61025a6004803603602081101561069d57600080fd5b50356001600160a01b0316610ff7565b61025a600480360360208110156106c357600080fd5b810190602081018135600160201b8111156106dd57600080fd5b8201836020820111156106ef57600080fd5b803590602001918460018302840111600160201b8311171561071057600080fd5b5090925090506110f0565b6060609c8383604051808383808284379190910194855250506040805160209481900385018120805460026001821615610100026000190190911604601f810187900487028301870190935282825290949093509091508301828280156107c35780601f10610798576101008083540402835291602001916107c3565b820191906000526020600020905b8154815290600101906020018083116107a657829003601f168201915b5050505050905092915050565b6107d8611206565b6065546001600160a01b03908116911614610828576040805162461bcd60e51b815260206004820181905260248201526000805160206113c9833981519152604482015290519081900360640190fd5b600061086985858080601f016020809104026020016040519081016040528093929190818152602001838380828437600092019190915250610f3a92505050565b509050806109ae578282609c878760405180838380828437919091019485525050604051928390036020019092206108a7949093909250905061130a565b506000609c868660405180838380828437919091019485525050604051928390036020019092206001908101805494151560ff19909516949094179093555050609d80549182018155600052610920907fd26e832454299e9fabb89e0e5fffdc046d4e14431bc1bf607ffb2e8a1ddecf7b01868661130a565b507ff49f5d228081cdcb24c2f4939e0f2236ab3121fd710df20a22d9e2130244b61d858585856040518080602001806020018381038352878782818152602001925080828437600083820152601f01601f191690910184810383528581526020019050858580828437600083820152604051601f909101601f19169092018290039850909650505050505050a15b5050505050565b6109bd611206565b6065546001600160a01b03908116911614610a0d576040805162461bcd60e51b815260206004820181905260248201526000805160206113c9833981519152604482015290519081900360640190fd5b8181609c86866040518083838082843791909101948552505060405192839003602001909220610a43949093909250905061130a565b507fe4bc8abccea03a84d1974cb45f8445c3bed2c0d18e9e38396166ff6f8a95875b609c8585604051808383808284379190910194855250506040805193849003602090810185208186528054600260001961010060018416150201909116049186018290529493508392509082019084908015610b025780601f10610ad757610100808354040283529160200191610b02565b820191906000526020600020905b815481529060010190602001808311610ae557829003601f168201915b50509250505060405180910390a150505050565b60988054604080516020601f6002600019610100600188161502019095169490940493840181900481028201810190925282815260609390929091830182828015610ba25780601f10610b7757610100808354040283529160200191610ba2565b820191906000526020600020905b815481529060010190602001808311610b8557829003601f168201915b505050505090505b90565b609b546001600160a01b031681565b609b5460978054604080516020601f600260001960018716156101000201909516949094049384018190048102820181019092528281526060948594859460009491936098936099936001600160a01b03909116928691830182828015610c645780601f10610c3957610100808354040283529160200191610c64565b820191906000526020600020905b815481529060010190602001808311610c4757829003601f168201915b5050865460408051602060026001851615610100026000190190941693909304601f810184900484028201840190925281815295995088945092508401905082828015610cf25780601f10610cc757610100808354040283529160200191610cf2565b820191906000526020600020905b815481529060010190602001808311610cd557829003601f168201915b5050855460408051602060026001851615610100026000190190941693909304601f810184900484028201840190925281815295985087945092508401905082828015610d805780601f10610d5557610100808354040283529160200191610d80565b820191906000526020600020905b815481529060010190602001808311610d6357829003601f168201915b50979c969b509299509297509395505050505050565b600054610100900460ff1680610daf5750610daf61120a565b80610dbd575060005460ff16155b610df85760405162461bcd60e51b815260040180806020018281038252602e8152602001806113e9602e913960400191505060405180910390fd5b600054610100900460ff16158015610e23576000805460ff1961ff0019909116610100171660011790555b610e2b611210565b610e376097898961130a565b50610e446098878761130a565b50610e516099858561130a565b50609a80546001600160a01b0319166001600160a01b0384161790558015610e7f576000805461ff00191690555b5050505050505050565b610e91611206565b6065546001600160a01b03908116911614610ee1576040805162461bcd60e51b815260206004820181905260248201526000805160206113c9833981519152604482015290519081900360640190fd5b6065546040516000916001600160a01b0316907f8be0079c531659141344cd1fd0a4f28419497f9722a3daafe3b4186f6b6457e0908390a3606580546001600160a01b0319169055565b6065546001600160a01b031690565b600080805b609d54811015610fe957609d8181548110610f5657fe5b906000526020600020016040518082805460018160011615610100020316600290048015610fbb5780601f10610f99576101008083540402835291820191610fbb565b820191906000526020600020905b815481529060010190602001808311610fa7575b5050915050604051809103902084805190602001201415610fe157600192509050610ff2565b600101610f3f565b50600091508190505b915091565b610fff611206565b6065546001600160a01b0390811691161461104f576040805162461bcd60e51b815260206004820181905260248201526000805160206113c9833981519152604482015290519081900360640190fd5b6001600160a01b0381166110945760405162461bcd60e51b81526004018080602001828103825260268152602001806113a36026913960400191505060405180910390fd5b6065546040516001600160a01b038084169216907f8be0079c531659141344cd1fd0a4f28419497f9722a3daafe3b4186f6b6457e090600090a3606580546001600160a01b0319166001600160a01b0392909216919091179055565b6110f8611206565b6065546001600160a01b03908116911614611148576040805162461bcd60e51b815260206004820181905260248201526000805160206113c9833981519152604482015290519081900360640190fd5b6111546098838361130a565b5060408051602080825260988054600260001961010060018416150201909116049183018290527fe6a3d4ec4f69ac853579fb0336181042ec4d0a21b32de1a92b6dd6a2f904f5a0939092918291820190849080156111f45780601f106111c9576101008083540402835291602001916111f4565b820191906000526020600020905b8154815290600101906020018083116111d757829003601f168201915b50509250505060405180910390a15050565b3390565b303b1590565b600054610100900460ff1680611229575061122961120a565b80611237575060005460ff16155b6112725760405162461bcd60e51b815260040180806020018281038252602e8152602001806113e9602e913960400191505060405180910390fd5b600054610100900460ff1615801561129d576000805460ff1961ff0019909116610100171660011790555b60006112a7611206565b606580546001600160a01b0319166001600160a01b038316908117909155604051919250906000907f8be0079c531659141344cd1fd0a4f28419497f9722a3daafe3b4186f6b6457e0908290a3508015611307576000805461ff00191690555b50565b828054600181600116156101000203166002900490600052602060002090601f016020900481019282601f1061134b5782800160ff19823516178555611378565b82800160010185558215611378579182015b8281111561137857823582559160200191906001019061135d565b50611384929150611388565b5090565b610baa91905b80821115611384576000815560010161138e56fe4f776e61626c653a206e6577206f776e657220697320746865207a65726f20616464726573734f776e61626c653a2063616c6c6572206973206e6f7420746865206f776e6572436f6e747261637420696e7374616e63652068617320616c7265616479206265656e20696e697469616c697a6564a26469706673582212204cc8a1a7628365116d5ab69acceab26f9f9dfe472544321d120055eb5c05f25864736f6c634300060200336080604052604051610a0a380380610a0a8339818101604052606081101561002657600080fd5b8151602083015160408085018051915193959294830192918464010000000082111561005157600080fd5b90830190602082018581111561006657600080fd5b825164010000000081118282018810171561008057600080fd5b82525081516020918201929091019080838360005b838110156100ad578181015183820152602001610095565b50505050905090810190601f1680156100da5780820380516001836020036101000a031916815260200191505b5060408181527f656970313936372e70726f78792e696d706c656d656e746174696f6e0000000082525190819003601c0190208693508492506000805160206109b483398151915260001990910114905061013157fe5b610143826001600160e01b0361026516565b8051156101fb576000826001600160a01b0316826040518082805190602001908083835b602083106101865780518252601f199092019160209182019101610167565b6001836020036101000a038019825116818451168082178552505050505050905001915050600060405180830381855af49150503d80600081146101e6576040519150601f19603f3d011682016040523d82523d6000602084013e6101eb565b606091505b50509050806101f957600080fd5b505b5050604080517f656970313936372e70726f78792e61646d696e00000000000000000000000000815290519081900360130190206000805160206109948339815191526000199091011461024b57fe5b61025d826001600160e01b036102c516565b505050610313565b610278816102d760201b61054e1760201c565b6102b35760405162461bcd60e51b81526004018080602001828103825260368152602001806109d46036913960400191505060405180910390fd5b6000805160206109b483398151915255565b60008051602061099483398151915255565b6000813f7fc5d2460186f7233c927e7db2dcc703c0e500b653ca82273b7bfad8045d85a47081811480159061030b57508115155b949350505050565b610672806103226000396000f3fe60806040526004361061004e5760003560e01c80633659cfe6146100655780634f1ef286146100985780635c60da1b146101185780638f28397014610149578063f851a4401461017c5761005d565b3661005d5761005b610191565b005b61005b610191565b34801561007157600080fd5b5061005b6004803603602081101561008857600080fd5b50356001600160a01b03166101ab565b61005b600480360360408110156100ae57600080fd5b6001600160a01b0382351691908101906040810160208201356401000000008111156100d957600080fd5b8201836020820111156100eb57600080fd5b8035906020019184600183028401116401000000008311171561010d57600080fd5b5090925090506101e5565b34801561012457600080fd5b5061012d610292565b604080516001600160a01b039092168252519081900360200190f35b34801561015557600080fd5b5061005b6004803603602081101561016c57600080fd5b50356001600160a01b03166102cf565b34801561018857600080fd5b5061012d610389565b6101996103b4565b6101a96101a4610414565b610439565b565b6101b361045d565b6001600160a01b0316336001600160a01b031614156101da576101d581610482565b6101e2565b6101e2610191565b50565b6101ed61045d565b6001600160a01b0316336001600160a01b031614156102855761020f83610482565b6000836001600160a01b031683836040518083838082843760405192019450600093509091505080830381855af49150503d806000811461026c576040519150601f19603f3d011682016040523d82523d6000602084013e610271565b606091505b505090508061027f57600080fd5b5061028d565b61028d610191565b505050565b600061029c61045d565b6001600160a01b0316336001600160a01b031614156102c4576102bd610414565b90506102cc565b6102cc610191565b90565b6102d761045d565b6001600160a01b0316336001600160a01b031614156101da576001600160a01b0381166103355760405162461bcd60e51b815260040180806020018281038252603a81526020018061058b603a913960400191505060405180910390fd5b7f7e644d79422f17c01e4894b5f4f588d331ebfa28653d42ae832dc59e38c9798f61035e61045d565b604080516001600160a01b03928316815291841660208301528051918290030190a16101d5816104c2565b600061039361045d565b6001600160a01b0316336001600160a01b031614156102c4576102bd61045d565b6103bc61045d565b6001600160a01b0316336001600160a01b0316141561040c5760405162461bcd60e51b81526004018080602001828103825260428152602001806105fb6042913960600191505060405180910390fd5b6101a96101a9565b7f360894a13ba1a3210667c828492db98dca3e2076cc3735a920a3ca505d382bbc5490565b3660008037600080366000845af43d6000803e808015610458573d6000f35b3d6000fd5b7fb53127684a568b3173ae13b9f8a6016e243e63b6e8ee1178d6a717850b5d61035490565b61048b816104e6565b6040516001600160a01b038216907fbc7cd75a20ee27fd9adebab32041f755214dbc6bffa90cc0225b39da2e5c2d3b90600090a250565b7fb53127684a568b3173ae13b9f8a6016e243e63b6e8ee1178d6a717850b5d610355565b6104ef8161054e565b61052a5760405162461bcd60e51b81526004018080602001828103825260368152602001806105c56036913960400191505060405180910390fd5b7f360894a13ba1a3210667c828492db98dca3e2076cc3735a920a3ca505d382bbc55565b6000813f7fc5d2460186f7233c927e7db2dcc703c0e500b653ca82273b7bfad8045d85a47081811480159061058257508115155b94935050505056fe5472616e73706172656e745570677261646561626c6550726f78793a206e65772061646d696e20697320746865207a65726f20616464726573735570677261646561626c6550726f78793a206e657720696d706c656d656e746174696f6e206973206e6f74206120636f6e74726163745472616e73706172656e745570677261646561626c6550726f78793a2061646d696e2063616e6e6f742066616c6c6261636b20746f2070726f787920746172676574a2646970667358221220a9d49c3c9d5ca2168de62e73e4a4e56a3b251465184315a5b9c96dd1237d4b6964736f6c63430006020033b53127684a568b3173ae13b9f8a6016e243e63b6e8ee1178d6a717850b5d6103360894a13ba1a3210667c828492db98dca3e2076cc3735a920a3ca505d382bbc5570677261646561626c6550726f78793a206e657720696d706c656d656e746174696f6e206973206e6f74206120636f6e7472616374608060405234801561001057600080fd5b50611763806100206000396000f3fe608060405234801561001057600080fd5b50600436106100ea5760003560e01c8063485cc9551161008c5780638da5cb5b116100665780638da5cb5b146103f1578063a023cf69146103f9578063c73e835c14610401578063f2fde38b1461046f576100ea565b8063485cc955146103a15780635b999a38146103cf578063715018a6146103e9576100ea565b80631692f21f116100c85780631692f21f146102b65780631d6d32ba146103745780631d8e2f581461037c578063209df0fa14610384576100ea565b80630cc78476146100ef578063149adf5814610113578063164f25bf146101f6575b600080fd5b6100f7610495565b604080516001600160a01b039092168252519081900360200190f35b6101816004803603602081101561012957600080fd5b810190602081018135600160201b81111561014357600080fd5b82018360208201111561015557600080fd5b803590602001918460018302840111600160201b8311171561017657600080fd5b5090925090506104a4565b6040805160208082528351818301528351919283929083019185019080838360005b838110156101bb5781810151838201526020016101a3565b50505050905090810190601f1680156101e85780820380516001836020036101000a031916815260200191505b509250505060405180910390f35b6102b46004803603604081101561020c57600080fd5b810190602081018135600160201b81111561022657600080fd5b82018360208201111561023857600080fd5b803590602001918460018302840111600160201b8311171561025957600080fd5b919390929091602081019035600160201b81111561027657600080fd5b82018360208201111561028857600080fd5b803590602001918460018302840111600160201b831117156102a957600080fd5b50909250905061060e565b005b6102b4600480360360408110156102cc57600080fd5b810190602081018135600160201b8111156102e657600080fd5b8201836020820111156102f857600080fd5b803590602001918460018302840111600160201b8311171561031957600080fd5b919390929091602081019035600160201b81111561033657600080fd5b82018360208201111561034857600080fd5b803590602001918460018302840111600160201b8311171561036957600080fd5b509092509050610a27565b610181610d1d565b6100f7610e52565b6102b46004803603602081101561039a57600080fd5b5035610e61565b6102b4600480360360408110156103b757600080fd5b506001600160a01b0381358116916020013516610fef565b6103d7611121565b60408051918252519081900360200190f35b6102b4611197565b6100f761124b565b6103d761125a565b6102b46004803603602081101561041757600080fd5b810190602081018135600160201b81111561043157600080fd5b82018360208201111561044357600080fd5b803590602001918460018302840111600160201b8311171561046457600080fd5b509092509050611260565b6102b46004803603602081101561048557600080fd5b50356001600160a01b03166114ca565b6099546001600160a01b031681565b6098546040516302935beb60e31b8152602060048201908152602482018490526060926001600160a01b03169163149adf589186918691908190604401848480828437600081840152601f19601f820116905080830192505050935050505060006040518083038186803b15801561051b57600080fd5b505afa15801561052f573d6000803e3d6000fd5b505050506040513d6000823e601f3d908101601f19168201604052602081101561055857600080fd5b8101908080516040519392919084600160201b82111561057757600080fd5b90830190602082018581111561058c57600080fd5b8251600160201b8111828201881017156105a557600080fd5b82525081516020918201929091019080838360005b838110156105d25781810151838201526020016105ba565b50505050905090810190601f1680156105ff5780820380516001836020036101000a031916815260200191505b50604052505050905092915050565b6098546040805163164f25bf60e01b815260048101918252604481018690526001600160a01b039092169163164f25bf9187918791879187919081906024810190606401878780828437600083820152601f01601f191690910184810383528581526020019050858580828437600081840152601f19601f8201169050808301925050509650505050505050600060405180830381600087803b1580156106b457600080fd5b505af11580156106c8573d6000803e3d6000fd5b5050609854604051630c822d7f60e41b815260206004820190815260248201889052600094506001600160a01b03909216925063c822d7f0918891889190819060440184848082843760008382015260408051601f909201601f1916909301965091945090925050508083038186803b15801561074457600080fd5b505afa158015610758573d6000803e3d6000fd5b505050506040513d604081101561076e57600080fd5b5051905060018115151461077e57fe5b606085858080601f016020809104026020016040519081016040528093929190818152602001838380828437600092019190915250506098546040516302935beb60e31b8152602060048201908152602482018b90529495506060946001600160a01b03909216935063149adf5892508a918a918190604401848480828437600081840152601f19601f820116905080830192505050935050505060006040518083038186803b15801561083157600080fd5b505afa158015610845573d6000803e3d6000fd5b505050506040513d6000823e601f3d908101601f19168201604052602081101561086e57600080fd5b8101908080516040519392919084600160201b82111561088d57600080fd5b9083019060208201858111156108a257600080fd5b8251600160201b8111828201881017156108bb57600080fd5b82525081516020918201929091019080838360005b838110156108e85781810151838201526020016108d0565b50505050905090810190601f1680156109155780820380516001836020036101000a031916815260200191505b5060405250505090507f3fdde72950e6d9c53073a94114bea65c19a2076d1d4ff9390a70519dcbff22dd8282604051808060200180602001838103835285818151815260200191508051906020019080838360005b8381101561098257818101518382015260200161096a565b50505050905090810190601f1680156109af5780820380516001836020036101000a031916815260200191505b50838103825284518152845160209182019186019080838360005b838110156109e25781810151838201526020016109ca565b50505050905090810190601f168015610a0f5780820380516001836020036101000a031916815260200191505b5094505050505060405180910390a150505050505050565b60985460408051631692f21f60e01b815260048101918252604481018690526001600160a01b0390921691631692f21f9187918791879187919081906024810190606401878780828437600083820152601f01601f191690910184810383528581526020019050858580828437600081840152601f19601f8201169050808301925050509650505050505050600060405180830381600087803b158015610acd57600080fd5b505af1158015610ae1573d6000803e3d6000fd5b50506098546040516302935beb60e31b815260206004820190815260248201889052606094506001600160a01b03909216925063149adf589188918891908190604401848480828437600081840152601f19601f820116905080830192505050935050505060006040518083038186803b158015610b5e57600080fd5b505afa158015610b72573d6000803e3d6000fd5b505050506040513d6000823e601f3d908101601f191682016040526020811015610b9b57600080fd5b8101908080516040519392919084600160201b821115610bba57600080fd5b908301906020820185811115610bcf57600080fd5b8251600160201b811182820188101715610be857600080fd5b82525081516020918201929091019080838360005b83811015610c15578181015183820152602001610bfd565b50505050905090810190601f168015610c425780820380516001836020036101000a031916815260200191505b5060405250505090507f031e185f158a37b9e948528f98430fe8a62eec8309644711b009aa0bfae965c185858360405180806020018060200183810383528686828181526020019250808284376000838201819052601f909101601f191690920185810384528651815286516020918201939188019250908190849084905b83811015610cd9578181015183820152602001610cc1565b50505050905090810190601f168015610d065780820380516001836020036101000a031916815260200191505b509550505050505060405180910390a15050505050565b60985460408051630eb6995d60e11b815290516060926001600160a01b031691631d6d32ba916004808301926000929190829003018186803b158015610d6257600080fd5b505afa158015610d76573d6000803e3d6000fd5b505050506040513d6000823e601f3d908101601f191682016040526020811015610d9f57600080fd5b8101908080516040519392919084600160201b821115610dbe57600080fd5b908301906020820185811115610dd357600080fd5b8251600160201b811182820188101715610dec57600080fd5b82525081516020918201929091019080838360005b83811015610e19578181015183820152602001610e01565b50505050905090810190601f168015610e465780820380516001836020036101000a031916815260200191505b50604052505050905090565b609b546001600160a01b031681565b610e696115d5565b6065546001600160a01b03908116911614610ecb576040805162461bcd60e51b815260206004820181905260248201527f4f776e61626c653a2063616c6c6572206973206e6f7420746865206f776e6572604482015290519081900360640190fd5b609a546040805163104ef87d60e11b81526004810184905290516001600160a01b039092169163209df0fa916024808201926020929091908290030181600087803b158015610f1957600080fd5b505af1158015610f2d573d6000803e3d6000fd5b505050506040513d6020811015610f4357600080fd5b5050609a546040805163a023cf6960e01b815290516001600160a01b039092169163a023cf6991600480820192602092909190829003018186803b158015610f8a57600080fd5b505afa158015610f9e573d6000803e3d6000fd5b505050506040513d6020811015610fb457600080fd5b5051609c556040805182815290517f5443a9b3a4f844af7ea1bbffa88c16f6f6c35f174ae032da718b6285c6be869c9181900360200190a150565b600054610100900460ff168061100857506110086115d9565b80611016575060005460ff16155b6110515760405162461bcd60e51b815260040180806020018281038252602e815260200180611700602e913960400191505060405180910390fd5b600054610100900460ff1615801561107c576000805460ff1961ff0019909116610100171660011790555b6110846115df565b609980546001600160a01b038086166001600160a01b031992831681179384905560988054841694831694909417909355609b805491861691831682179055609a8054909216811790915560408051928352602083019190915280517f81bc37599d8daaee75b12342129cc1b062c2f8aa7e7ac6958fba02c558b859899281900390910190a1801561111c576000805461ff00191690555b505050565b609a546040805163a023cf6960e01b815290516000926001600160a01b03169163a023cf69916004808301926020929190829003018186803b15801561116657600080fd5b505afa15801561117a573d6000803e3d6000fd5b505050506040513d602081101561119057600080fd5b5051905090565b61119f6115d5565b6065546001600160a01b03908116911614611201576040805162461bcd60e51b815260206004820181905260248201527f4f776e61626c653a2063616c6c6572206973206e6f7420746865206f776e6572604482015290519081900360640190fd5b6065546040516000916001600160a01b0316907f8be0079c531659141344cd1fd0a4f28419497f9722a3daafe3b4186f6b6457e0908390a3606580546001600160a01b0319169055565b6065546001600160a01b031690565b609c5481565b609854604051633ecf991160e21b8152602060048201908152602482018490526001600160a01b039092169163fb3e644491859185918190604401848480828437600081840152601f19601f8201169050808301925050509350505050600060405180830381600087803b1580156112d757600080fd5b505af11580156112eb573d6000803e3d6000fd5b505050506060609860009054906101000a90046001600160a01b03166001600160a01b0316631d6d32ba6040518163ffffffff1660e01b815260040160006040518083038186803b15801561133f57600080fd5b505afa158015611353573d6000803e3d6000fd5b505050506040513d6000823e601f3d908101601f19168201604052602081101561137c57600080fd5b8101908080516040519392919084600160201b82111561139b57600080fd5b9083019060208201858111156113b057600080fd5b8251600160201b8111828201881017156113c957600080fd5b82525081516020918201929091019080838360005b838110156113f65781810151838201526020016113de565b50505050905090810190601f1680156114235780820380516001836020036101000a031916815260200191505b5060405250505090507f365ad25db963c5dbd43d3f4aa610e4a9ffd3bb23dae3841d9dbad208c212bee1816040518080602001828103825283818151815260200191508051906020019080838360005b8381101561148b578181015183820152602001611473565b50505050905090810190601f1680156114b85780820380516001836020036101000a031916815260200191505b509250505060405180910390a1505050565b6114d26115d5565b6065546001600160a01b03908116911614611534576040805162461bcd60e51b815260206004820181905260248201527f4f776e61626c653a2063616c6c6572206973206e6f7420746865206f776e6572604482015290519081900360640190fd5b6001600160a01b0381166115795760405162461bcd60e51b81526004018080602001828103825260268152602001806116da6026913960400191505060405180910390fd5b6065546040516001600160a01b038084169216907f8be0079c531659141344cd1fd0a4f28419497f9722a3daafe3b4186f6b6457e090600090a3606580546001600160a01b0319166001600160a01b0392909216919091179055565b3390565b303b1590565b600054610100900460ff16806115f857506115f86115d9565b80611606575060005460ff16155b6116415760405162461bcd60e51b815260040180806020018281038252602e815260200180611700602e913960400191505060405180910390fd5b600054610100900460ff1615801561166c576000805460ff1961ff0019909116610100171660011790555b60006116766115d5565b606580546001600160a01b0319166001600160a01b038316908117909155604051919250906000907f8be0079c531659141344cd1fd0a4f28419497f9722a3daafe3b4186f6b6457e0908290a35080156116d6576000805461ff00191690555b5056fe4f776e61626c653a206e6577206f776e657220697320746865207a65726f2061646472657373436f6e747261637420696e7374616e63652068617320616c7265616479206265656e20696e697469616c697a6564a2646970667358221220ad02c189d78ddbf88b86a08fabec42819a71481b84e36ceac83689ee6ace8b3064736f6c63430006020033a2646970667358221220722362a328ea9580d56a578364428b659da34b713b927b7d1b1218f6deabdfb864736f6c63430006020033",
  "source": "pragma solidity 0.6.2;\n\n/**\n * @title Registrar\n * @dev Create and interact with Registries.\n*/\n\nimport '../Registry/Registry.sol';\nimport '../RegistryToken/RegistryToken.sol';\nimport '../RegistryController/RegistryController.sol';\nimport \"../../node_modules/@openzeppelin/contracts-ethereum-package/contracts/math/SafeMath.sol\";\nimport \"../../node_modules/@openzeppelin/contracts/proxy/TransparentUpgradeableProxy.sol\";\n\ncontract Registrar { \n    using SafeMath for uint256;\n\n    struct RegistrarEntry {\n        address controller;\n        string domain;\n        string registryType;\n    }\n\n    Registry registryLogic;\n    TransparentUpgradeableProxy registryProxy;\n    Registry registryProxyInstance;\n\n    RegistryToken registryTokenProxy;\n    \n    RegistryController registryControllerLogic;\n    TransparentUpgradeableProxy registryControllerProxy;\n\n    mapping (string => RegistrarEntry) registryMap;\n    address[] public registrar;\n\n    /// @notice Emitted when a new Registry is added to the Registrar.\n    event RegistryCreated(string domain, string ref, string registryType, uint256 stakePrice, address registryToken, address registry, address registryController);\n\n    /**\n     * @notice Creates a new Registry and associated Entry in the Registrar.\n     * @param _domain The primary name used to represent a particular Registry. \n     * @param _ref The primary reference that a Registry links to. This can be any type of content and is typically used to reference an index or url.\n     * @param _registryType The Registry's Type. Registry Types are defined globally at the Registrar and used to categorize Registries.\n     * @param _stakePrice The amount of Infinity Token required to register a new Entry in the Registry. \n     * @param _registryTokenProxyAddress The address of the Registry's Token. Registry Tokens are issued upon staking Infinity Token to transfer the ownership of a Registry Entry.\n     */\n\n    function createRegistry (\n        string memory _domain,\n        string memory _ref,\n        string memory _registryType,\n        uint256 _stakePrice,\n        address payable _registryTokenProxyAddress)\n        public\n    {\n        registryTokenProxy = RegistryToken(_registryTokenProxyAddress);\n\n        registryLogic = new Registry();\n        bytes memory registryData = abi.encodeWithSignature(\"initialize(string,string,string,address)\",_domain,_ref,_registryType,address(registryTokenProxy));\n        registryProxy = new TransparentUpgradeableProxy(\n            address(registryLogic),\n            msg.sender,\n            registryData\n        );\n\n        registryControllerLogic = new RegistryController();\n        bytes memory controllerData = abi.encodeWithSignature(\"initialize(address,address)\",address(registryProxy), address(registryTokenProxy));\n        registryControllerProxy = new TransparentUpgradeableProxy(\n            address(registryControllerLogic),\n            msg.sender,\n            controllerData\n        );\n\n        registryProxyInstance = Registry(address(registryProxy));\n        registryProxyInstance.transferOwnership(address(registryControllerProxy));\n        \n        registryMap[_domain].controller = address(registryControllerProxy);\n        registryMap[_domain].domain = _domain;\n        registryMap[_domain].registryType = _registryType;\n\n        registrar.push(registryMap[_domain].controller);\n\n        emit RegistryCreated( _domain, _ref, _registryType, _stakePrice, address(registryTokenProxy), address(registryProxy), registryMap[_domain].controller);\n    }\n\n    function getRegistryOwner() external view returns(address) {\n        return registryProxyInstance.owner();\n    }\n\n    /**\n     * @notice Returns the the number of Registries in the Registrar as an interger. \n     */\n\n    function getRegistrarLength() public view returns (uint256) {\n        return registrar.length;\n    }\n\n    /**\n     * @notice Returns the address of a Registry Controller by providing its domain as a string.\n     * @param _domain The primary name used to represent a particular Registry. \n     */\n\n    function getRegistryController(string memory _domain) public view returns (address) {\n        return registryMap[_domain].controller;\n    }\n\n    /**\n     * @notice Returns the Type of a Registry by providing its domain as a string.\n     * @param _domain The primary name used to represent a particular Registry. \n     */\n\n    function getRegistryType(string memory _domain) public view returns (string memory) {\n        return registryMap[_domain].registryType;\n    }\n}",
  "sourcePath": "/Users/neo/Code/ZNS/contracts/Registrar/Registrar.sol",
  "compiler": {
    "name": "solc",
    "version": "0.6.2+commit.bacdbe57.Emscripten.clang"
  },
  "schemaVersion": "3.2.3",
  "updatedAt": "2020-09-23T00:24:40.801Z",
  "networkType": "ethereum",
  "devdoc": {
    "methods": {
      "createRegistry(string,string,string,uint256,address)": {
        "params": {
          "_domain": "The primary name used to represent a particular Registry. ",
          "_ref": "The primary reference that a Registry links to. This can be any type of content and is typically used to reference an index or url.",
          "_registryTokenProxyAddress": "The address of the Registry's Token. Registry Tokens are issued upon staking Infinity Token to transfer the ownership of a Registry Entry.",
          "_registryType": "The Registry's Type. Registry Types are defined globally at the Registrar and used to categorize Registries.",
          "_stakePrice": "The amount of Infinity Token required to register a new Entry in the Registry. "
        }
      },
      "getRegistryController(string)": {
        "params": {
          "_domain": "The primary name used to represent a particular Registry. "
        }
      },
      "getRegistryType(string)": {
        "params": {
          "_domain": "The primary name used to represent a particular Registry. "
        }
      }
    }
  },
  "userdoc": {
    "methods": {
      "createRegistry(string,string,string,uint256,address)": {
        "notice": "Creates a new Registry and associated Entry in the Registrar."
      },
      "getRegistrarLength()": {
        "notice": "Returns the the number of Registries in the Registrar as an interger. "
      },
      "getRegistryController(string)": {
        "notice": "Returns the address of a Registry Controller by providing its domain as a string."
      },
      "getRegistryType(string)": {
        "notice": "Returns the Type of a Registry by providing its domain as a string."
      }
    }
  }
}