{
  "contractName": "Registry",
  "abi": [
    {
      "inputs": [
        {
          "internalType": "string",
          "name": "_registryName",
          "type": "string"
        },
        {
          "internalType": "string",
          "name": "_registryType",
          "type": "string"
        }
      ],
      "name": "init",
      "outputs": [
        {
          "internalType": "string",
          "name": "",
          "type": "string"
        },
        {
          "internalType": "string",
          "name": "",
          "type": "string"
        }
      ],
      "stateMutability": "nonpayable",
      "type": "function"
    },
    {
      "inputs": [
        {
          "internalType": "uint256",
          "name": "_stakePrice",
          "type": "uint256"
        }
      ],
      "name": "setStakePrice",
      "outputs": [
        {
          "internalType": "uint256",
          "name": "",
          "type": "uint256"
        }
      ],
      "stateMutability": "nonpayable",
      "type": "function"
    },
    {
      "inputs": [],
      "name": "getAddress",
      "outputs": [
        {
          "internalType": "address",
          "name": "",
          "type": "address"
        }
      ],
      "stateMutability": "view",
      "type": "function"
    }
  ],
  "bytecode": "0x608060405234801561001057600080fd5b5061057c806100206000396000f3fe608060405234801561001057600080fd5b50600436106100415760003560e01c8063209df0fa1461004657806338cc4831146100885780637029144c146100d2575b600080fd5b6100726004803603602081101561005c57600080fd5b8101908080359060200190929190505050610309565b6040518082815260200191505060405180910390f35b61009061031c565b604051808273ffffffffffffffffffffffffffffffffffffffff1673ffffffffffffffffffffffffffffffffffffffff16815260200191505060405180910390f35b610222600480360360408110156100e857600080fd5b810190808035906020019064010000000081111561010557600080fd5b82018360208201111561011757600080fd5b8035906020019184600183028401116401000000008311171561013957600080fd5b91908080601f016020809104026020016040519081016040528093929190818152602001838380828437600081840152601f19601f8201169050808301925050505050505091929192908035906020019064010000000081111561019c57600080fd5b8201836020820111156101ae57600080fd5b803590602001918460018302840111640100000000831117156101d057600080fd5b91908080601f016020809104026020016040519081016040528093929190818152602001838380828437600081840152601f19601f820116905080830192505050505050509192919290505050610329565b604051808060200180602001838103835285818151815260200191508051906020019080838360005b8381101561026657808201518184015260208101905061024b565b50505050905090810190601f1680156102935780820380516001836020036101000a031916815260200191505b50838103825284818151815260200191508051906020019080838360005b838110156102cc5780820151818401526020810190506102b1565b50505050905090810190601f1680156102f95780820380516001836020036101000a031916815260200191505b5094505050505060405180910390f35b6000816002819055506002549050919050565b6000803090508091505090565b60608083600090805190602001906103429291906104a1565b5082600190805190602001906103599291906104a1565b5060006001818054600181600116156101000203166002900480601f0160208091040260200160405190810160405280929190818152602001828054600181600116156101000203166002900480156103f35780601f106103c8576101008083540402835291602001916103f3565b820191906000526020600020905b8154815290600101906020018083116103d657829003601f168201915b50505050509150808054600181600116156101000203166002900480601f01602080910402602001604051908101604052809291908181526020018280546001816001161561010002031660029004801561048f5780601f106104645761010080835404028352916020019161048f565b820191906000526020600020905b81548152906001019060200180831161047257829003601f168201915b50505050509050915091509250929050565b828054600181600116156101000203166002900490600052602060002090601f016020900481019282601f106104e257805160ff1916838001178555610510565b82800160010185558215610510579182015b8281111561050f5782518255916020019190600101906104f4565b5b50905061051d9190610521565b5090565b61054391905b8082111561053f576000816000905550600101610527565b5090565b9056fea2646970667358221220c783a911129dd527daf34a53fe20ee168fe8ce1a79aa727ea607885e820da1ab64736f6c63430006020033",
  "source": "pragma solidity ^0.6.0;\n\n/**\n * @title Registry\n * @dev Manage individual Registry Entries\n*/\n\ncontract Registry {\n    string registryName;\n    string registryType;\n    uint256 stakePrice;\n\n    function init(string memory _registryName, string memory _registryType) public returns (string memory, string memory) {\n        registryName = _registryName;\n        registryType = _registryType;\n        return (registryName, registryType);\n    }\n\n    function setStakePrice(uint256 _stakePrice) public returns(uint256) {\n        stakePrice = _stakePrice;\n        return stakePrice;\n    } \n\n    function getAddress() public view returns (address) {  \n       address contractAddress = address(this);\n       return contractAddress;\n    }\n}",
  "sourcePath": "/Users/neo/Code/ZNS/contracts/Registry.sol",
  "compiler": {
    "name": "solc",
    "version": "0.6.2+commit.bacdbe57.Emscripten.clang"
  },
  "schemaVersion": "3.2.3",
  "updatedAt": "2020-08-25T20:06:11.675Z",
  "devdoc": {
    "details": "Manage individual Registry Entries",
    "methods": {},
    "title": "Registry"
  },
  "userdoc": {
    "methods": {}
  }
}