{
  "contractName": "Registry",
  "abi": [
    {
      "inputs": [],
      "name": "stakePrice",
      "outputs": [
        {
          "internalType": "uint256",
          "name": "",
          "type": "uint256"
        }
      ],
      "stateMutability": "view",
      "type": "function"
    },
    {
      "inputs": [
        {
          "internalType": "string",
          "name": "_domain",
          "type": "string"
        },
        {
          "internalType": "string",
          "name": "_ref",
          "type": "string"
        },
        {
          "internalType": "string",
          "name": "_registryType",
          "type": "string"
        },
        {
          "internalType": "address",
          "name": "_stakeTokenAddress",
          "type": "address"
        }
      ],
      "name": "init",
      "outputs": [
        {
          "internalType": "string",
          "name": "",
          "type": "string"
        },
        {
          "internalType": "string",
          "name": "",
          "type": "string"
        }
      ],
      "stateMutability": "nonpayable",
      "type": "function"
    },
    {
      "inputs": [
        {
          "internalType": "uint256",
          "name": "_stakePrice",
          "type": "uint256"
        }
      ],
      "name": "setStakePrice",
      "outputs": [
        {
          "internalType": "uint256",
          "name": "",
          "type": "uint256"
        }
      ],
      "stateMutability": "nonpayable",
      "type": "function"
    },
    {
      "inputs": [],
      "name": "getAddress",
      "outputs": [
        {
          "internalType": "address",
          "name": "",
          "type": "address"
        }
      ],
      "stateMutability": "view",
      "type": "function"
    },
    {
      "inputs": [],
      "name": "getRef",
      "outputs": [
        {
          "internalType": "string",
          "name": "",
          "type": "string"
        }
      ],
      "stateMutability": "view",
      "type": "function"
    }
  ],
  "bytecode": "0x608060405230600560006101000a81548173ffffffffffffffffffffffffffffffffffffffff021916908373ffffffffffffffffffffffffffffffffffffffff16021790555034801561005157600080fd5b506106c8806100616000396000f3fe608060405234801561001057600080fd5b50600436106100565760003560e01c8062b5ec6b1461005b5780631d6d32ba14610349578063209df0fa146103cc57806338cc48311461040e578063a023cf6914610458575b600080fd5b6102626004803603608081101561007157600080fd5b810190808035906020019064010000000081111561008e57600080fd5b8201836020820111156100a057600080fd5b803590602001918460018302840111640100000000831117156100c257600080fd5b91908080601f016020809104026020016040519081016040528093929190818152602001838380828437600081840152601f19601f8201169050808301925050505050505091929192908035906020019064010000000081111561012557600080fd5b82018360208201111561013757600080fd5b8035906020019184600183028401116401000000008311171561015957600080fd5b91908080601f016020809104026020016040519081016040528093929190818152602001838380828437600081840152601f19601f820116905080830192505050505050509192919290803590602001906401000000008111156101bc57600080fd5b8201836020820111156101ce57600080fd5b803590602001918460018302840111640100000000831117156101f057600080fd5b91908080601f016020809104026020016040519081016040528093929190818152602001838380828437600081840152601f19601f820116905080830192505050505050509192919290803573ffffffffffffffffffffffffffffffffffffffff169060200190929190505050610476565b604051808060200180602001838103835285818151815260200191508051906020019080838360005b838110156102a657808201518184015260208101905061028b565b50505050905090810190601f1680156102d35780820380516001836020036101000a031916815260200191505b50838103825284818151815260200191508051906020019080838360005b8381101561030c5780820151818401526020810190506102f1565b50505050905090810190601f1680156103395780820380516001836020036101000a031916815260200191505b5094505050505060405180910390f35b610351610508565b6040518080602001828103825283818151815260200191508051906020019080838360005b83811015610391578082015181840152602081019050610376565b50505050905090810190601f1680156103be5780820380516001836020036101000a031916815260200191505b509250505060405180910390f35b6103f8600480360360208110156103e257600080fd5b81019080803590602001909291905050506105aa565b6040518082815260200191505060405180910390f35b6104166105bd565b604051808273ffffffffffffffffffffffffffffffffffffffff1673ffffffffffffffffffffffffffffffffffffffff16815260200191505060405180910390f35b6104606105e7565b6040518082815260200191505060405180910390f35b606080856000908051906020019061048f9291906105ed565b5084600190805190602001906104a69291906105ed565b5083600290805190602001906104bd9291906105ed565b5082600360006101000a81548173ffffffffffffffffffffffffffffffffffffffff021916908373ffffffffffffffffffffffffffffffffffffffff16021790555094509492505050565b606060018054600181600116156101000203166002900480601f0160208091040260200160405190810160405280929190818152602001828054600181600116156101000203166002900480156105a05780601f10610575576101008083540402835291602001916105a0565b820191906000526020600020905b81548152906001019060200180831161058357829003601f168201915b5050505050905090565b6000816004819055506004549050919050565b6000600560009054906101000a900473ffffffffffffffffffffffffffffffffffffffff16905090565b60045481565b828054600181600116156101000203166002900490600052602060002090601f016020900481019282601f1061062e57805160ff191683800117855561065c565b8280016001018555821561065c579182015b8281111561065b578251825591602001919060010190610640565b5b509050610669919061066d565b5090565b61068f91905b8082111561068b576000816000905550600101610673565b5090565b9056fea264697066735822122034af9318ac598c010bae7fe89e6fde799b81abed7458430f8c6ba3a770d00e6464736f6c63430006020033",
  "source": "pragma solidity ^0.6.0;\n\n/**\n * @title Registry\n * @dev Manage Registry Entries\n*/\n\nimport './StakeToken.sol';\n\ncontract Registry {\n    string domain;\n    string ref;\n    string registryType;\n    address stakeTokenAddress;\n    uint256 public stakePrice;\n\n    address registryAddress = address(this);\n\n    function init(\n        string memory _domain,\n        string memory _ref, \n        string memory _registryType, \n        address _stakeTokenAddress) \n    public \n    returns (string memory, string memory) \n    {\n        domain = _domain;\n        ref = _ref;\n        registryType = _registryType;\n        stakeTokenAddress = _stakeTokenAddress;\n    }\n\n    function setStakePrice(uint256 _stakePrice) \n        public \n    returns(uint256) \n    {\n        // StakeToken stakeToken = StakeToken.at(stakeTokenAddress);\n        stakePrice = _stakePrice;\n        return stakePrice;\n    } \n\n    function getAddress() \n        public \n        view \n    returns (address) \n    {  \n       return registryAddress;\n    }\n\n    function getRef()\n        public\n        view\n    returns (string memory)\n    {\n        return ref;\n    }\n}",
  "sourcePath": "/Users/neo/Code/ZNS/contracts/Registry.sol",
  "compiler": {
    "name": "solc",
    "version": "0.6.2+commit.bacdbe57.Emscripten.clang"
  },
  "schemaVersion": "3.2.3",
  "updatedAt": "2020-08-29T08:05:30.483Z",
  "devdoc": {
    "methods": {}
  },
  "userdoc": {
    "methods": {}
  }
}