{
  "contractName": "Registrar",
  "abi": [
    {
      "anonymous": false,
      "inputs": [
        {
          "indexed": false,
          "internalType": "address",
          "name": "registryContract",
          "type": "address"
        },
        {
          "indexed": false,
          "internalType": "string",
          "name": "registryName",
          "type": "string"
        },
        {
          "indexed": false,
          "internalType": "string",
          "name": "registryType",
          "type": "string"
        }
      ],
      "name": "registryAdded",
      "type": "event"
    },
    {
      "inputs": [
        {
          "internalType": "uint256",
          "name": "",
          "type": "uint256"
        }
      ],
      "name": "registrar",
      "outputs": [
        {
          "internalType": "address",
          "name": "",
          "type": "address"
        }
      ],
      "stateMutability": "view",
      "type": "function",
      "constant": true
    },
    {
      "inputs": [
        {
          "internalType": "string",
          "name": "_registryName",
          "type": "string"
        },
        {
          "internalType": "string",
          "name": "_registryType",
          "type": "string"
        },
        {
          "internalType": "uint256",
          "name": "_stakePrice",
          "type": "uint256"
        }
      ],
      "name": "createRegistry",
      "outputs": [
        {
          "internalType": "address",
          "name": "",
          "type": "address"
        },
        {
          "internalType": "string",
          "name": "",
          "type": "string"
        },
        {
          "internalType": "string",
          "name": "",
          "type": "string"
        }
      ],
      "stateMutability": "nonpayable",
      "type": "function"
    },
    {
      "inputs": [],
      "name": "getRegistrarLength",
      "outputs": [
        {
          "internalType": "uint256",
          "name": "",
          "type": "uint256"
        }
      ],
      "stateMutability": "view",
      "type": "function",
      "constant": true
    },
    {
      "inputs": [
        {
          "internalType": "string",
          "name": "_name",
          "type": "string"
        }
      ],
      "name": "getRegistryAddress",
      "outputs": [
        {
          "internalType": "address",
          "name": "",
          "type": "address"
        }
      ],
      "stateMutability": "view",
      "type": "function",
      "constant": true
    },
    {
      "inputs": [
        {
          "internalType": "string",
          "name": "_name",
          "type": "string"
        }
      ],
      "name": "getRegistryType",
      "outputs": [
        {
          "internalType": "string",
          "name": "",
          "type": "string"
        }
      ],
      "stateMutability": "view",
      "type": "function",
      "constant": true
    }
  ],
  "bytecode": "0x608060405234801561001057600080fd5b50613b9d806100206000396000f3fe60806040523480156200001157600080fd5b50600436106200005e5760003560e01c806337c3a7da146200006357806374b9982c14620000835780639433fcbc1462000184578063bffee76314620001f5578063ef08989d1462000478575b600080fd5b6200006d620005b5565b6040518082815260200191505060405180910390f35b62000142600480360360208110156200009b57600080fd5b8101908080359060200190640100000000811115620000b957600080fd5b820183602082011115620000cc57600080fd5b80359060200191846001830284011164010000000083111715620000ef57600080fd5b91908080601f016020809104026020016040519081016040528093929190818152602001838380828437600081840152601f19601f820116905080830192505050505050509192919290505050620005c2565b604051808273ffffffffffffffffffffffffffffffffffffffff1673ffffffffffffffffffffffffffffffffffffffff16815260200191505060405180910390f35b620001b3600480360360208110156200019c57600080fd5b810190808035906020019092919050505062000659565b604051808273ffffffffffffffffffffffffffffffffffffffff1673ffffffffffffffffffffffffffffffffffffffff16815260200191505060405180910390f35b62000358600480360360608110156200020d57600080fd5b81019080803590602001906401000000008111156200022b57600080fd5b8201836020820111156200023e57600080fd5b803590602001918460018302840111640100000000831117156200026157600080fd5b91908080601f016020809104026020016040519081016040528093929190818152602001838380828437600081840152601f19601f82011690508083019250505050505050919291929080359060200190640100000000811115620002c557600080fd5b820183602082011115620002d857600080fd5b80359060200191846001830284011164010000000083111715620002fb57600080fd5b91908080601f016020809104026020016040519081016040528093929190818152602001838380828437600081840152601f19601f8201169050808301925050505050505091929192908035906020019092919050505062000696565b604051808473ffffffffffffffffffffffffffffffffffffffff1673ffffffffffffffffffffffffffffffffffffffff1681526020018060200180602001838103835285818151815260200191508051906020019080838360005b83811015620003d0578082015181840152602081019050620003b3565b50505050905090810190601f168015620003fe5780820380516001836020036101000a031916815260200191505b50838103825284818151815260200191508051906020019080838360005b83811015620004395780820151818401526020810190506200041c565b50505050905090810190601f168015620004675780820380516001836020036101000a031916815260200191505b509550505050505060405180910390f35b62000537600480360360208110156200049057600080fd5b8101908080359060200190640100000000811115620004ae57600080fd5b820183602082011115620004c157600080fd5b80359060200191846001830284011164010000000083111715620004e457600080fd5b91908080601f016020809104026020016040519081016040528093929190818152602001838380828437600081840152601f19601f820116905080830192505050505050509192919290505050620012a5565b6040518080602001828103825283818151815260200191508051906020019080838360005b83811015620005795780820151818401526020810190506200055c565b50505050905090810190601f168015620005a75780820380516001836020036101000a031916815260200191505b509250505060405180910390f35b6000600180549050905090565b600080826040518082805190602001908083835b60208310620005fb5780518252602082019150602081019050602083039250620005d6565b6001836020036101000a038019825116818451168082178552505050505050905001915050908152602001604051809103902060000160009054906101000a900473ffffffffffffffffffffffffffffffffffffffff169050919050565b600181815481106200066757fe5b906000526020600020016000915054906101000a900473ffffffffffffffffffffffffffffffffffffffff1681565b60006060806000604051620006ab90620013b9565b604051809103906000f080158015620006c8573d6000803e3d6000fd5b50905060003360fa604051620006de90620013c7565b808373ffffffffffffffffffffffffffffffffffffffff1673ffffffffffffffffffffffffffffffffffffffff16815260200182815260200192505050604051809103906000f08015801562000738573d6000803e3d6000fd5b5090508173ffffffffffffffffffffffffffffffffffffffff16636ee5741a8989846040518463ffffffff1660e01b81526004018080602001806020018473ffffffffffffffffffffffffffffffffffffffff1673ffffffffffffffffffffffffffffffffffffffff168152602001838103835286818151815260200191508051906020019080838360005b83811015620007e1578082015181840152602081019050620007c4565b50505050905090810190601f1680156200080f5780820380516001836020036101000a031916815260200191505b50838103825285818151815260200191508051906020019080838360005b838110156200084a5780820151818401526020810190506200082d565b50505050905090810190601f168015620008785780820380516001836020036101000a031916815260200191505b5095505050505050600060405180830381600087803b1580156200089b57600080fd5b505af1158015620008b0573d6000803e3d6000fd5b505050506040513d6000823e3d601f19601f820116820180604052506040811015620008db57600080fd5b8101908080516040519392919084640100000000821115620008fc57600080fd5b838201915060208201858111156200091357600080fd5b82518660018202830111640100000000821117156200093157600080fd5b8083526020830192505050908051906020019080838360005b83811015620009675780820151818401526020810190506200094a565b50505050905090810190601f168015620009955780820380516001836020036101000a031916815260200191505b5060405260200180516040519392919084640100000000821115620009b957600080fd5b83820191506020820185811115620009d057600080fd5b8251866001820283011164010000000082111715620009ee57600080fd5b8083526020830192505050908051906020019080838360005b8381101562000a2457808201518184015260208101905062000a07565b50505050905090810190601f16801562000a525780820380516001836020036101000a031916815260200191505b5060405250505050508173ffffffffffffffffffffffffffffffffffffffff1663209df0fa876040518263ffffffff1660e01b815260040180828152602001915050602060405180830381600087803b15801562000aaf57600080fd5b505af115801562000ac4573d6000803e3d6000fd5b505050506040513d602081101562000adb57600080fd5b8101908080519060200190929190505050508173ffffffffffffffffffffffffffffffffffffffff166338cc48316040518163ffffffff1660e01b815260040160206040518083038186803b15801562000b3457600080fd5b505afa15801562000b49573d6000803e3d6000fd5b505050506040513d602081101562000b6057600080fd5b81019080805190602001909291905050506000896040518082805190602001908083835b6020831062000ba9578051825260208201915060208101905060208303925062000b84565b6001836020036101000a038019825116818451168082178552505050505050905001915050908152602001604051809103902060000160006101000a81548173ffffffffffffffffffffffffffffffffffffffff021916908373ffffffffffffffffffffffffffffffffffffffff160217905550876000896040518082805190602001908083835b6020831062000c56578051825260208201915060208101905060208303925062000c31565b6001836020036101000a0380198251168184511680821785525050505050509050019150509081526020016040518091039020600101908051906020019062000ca1929190620013d5565b50866000896040518082805190602001908083835b6020831062000cdb578051825260208201915060208101905060208303925062000cb6565b6001836020036101000a0380198251168184511680821785525050505050509050019150509081526020016040518091039020600201908051906020019062000d26929190620013d5565b5060016000896040518082805190602001908083835b6020831062000d61578051825260208201915060208101905060208303925062000d3c565b6001836020036101000a038019825116818451168082178552505050505050905001915050908152602001604051809103902060000160009054906101000a900473ffffffffffffffffffffffffffffffffffffffff169080600181540180825580915050600190039060005260206000200160009091909190916101000a81548173ffffffffffffffffffffffffffffffffffffffff021916908373ffffffffffffffffffffffffffffffffffffffff1602179055507f1db9576dbbdd63cc0e73a6a1055164d40d9ffcec8ec56a8c352e94fb5a66e10c6000896040518082805190602001908083835b6020831062000e71578051825260208201915060208101905060208303925062000e4c565b6001836020036101000a038019825116818451168082178552505050505050905001915050908152602001604051809103902060000160009054906101000a900473ffffffffffffffffffffffffffffffffffffffff168989604051808473ffffffffffffffffffffffffffffffffffffffff1673ffffffffffffffffffffffffffffffffffffffff1681526020018060200180602001838103835285818151815260200191508051906020019080838360005b8381101562000f4257808201518184015260208101905062000f25565b50505050905090810190601f16801562000f705780820380516001836020036101000a031916815260200191505b50838103825284818151815260200191508051906020019080838360005b8381101562000fab57808201518184015260208101905062000f8e565b50505050905090810190601f16801562000fd95780820380516001836020036101000a031916815260200191505b509550505050505060405180910390a16000886040518082805190602001908083835b6020831062001021578051825260208201915060208101905060208303925062000ffc565b6001836020036101000a038019825116818451168082178552505050505050905001915050908152602001604051809103902060000160009054906101000a900473ffffffffffffffffffffffffffffffffffffffff166000896040518082805190602001908083835b60208310620010b057805182526020820191506020810190506020830392506200108b565b6001836020036101000a038019825116818451168082178552505050505050905001915050908152602001604051809103902060010160008a6040518082805190602001908083835b602083106200111e5780518252602082019150602081019050602083039250620010f9565b6001836020036101000a0380198251168184511680821785525050505050509050019150509081526020016040518091039020600201818054600181600116156101000203166002900480601f016020809104026020016040519081016040528092919081815260200182805460018160011615610100020316600290048015620011ed5780601f10620011c157610100808354040283529160200191620011ed565b820191906000526020600020905b815481529060010190602001808311620011cf57829003601f168201915b50505050509150808054600181600116156101000203166002900480601f0160208091040260200160405190810160405280929190818152602001828054600181600116156101000203166002900480156200128d5780601f1062001261576101008083540402835291602001916200128d565b820191906000526020600020905b8154815290600101906020018083116200126f57829003601f168201915b50505050509050945094509450505093509350939050565b60606000826040518082805190602001908083835b60208310620012df5780518252602082019150602081019050602083039250620012ba565b6001836020036101000a03801982511681845116808217855250505050505090500191505090815260200160405180910390206002018054600181600116156101000203166002900480601f016020809104026020016040519081016040528092919081815260200182805460018160011615610100020316600290048015620013ad5780601f106200138157610100808354040283529160200191620013ad565b820191906000526020600020905b8154815290600101906020018083116200138f57829003601f168201915b50505050509050919050565b6105fe806200148583390190565b6120e58062001a8383390190565b828054600181600116156101000203166002900490600052602060002090601f016020900481019282601f106200141857805160ff191683800117855562001449565b8280016001018555821562001449579182015b82811115620014485782518255916020019190600101906200142b565b5b5090506200145891906200145c565b5090565b6200148191905b808211156200147d57600081600090555060010162001463565b5090565b9056fe608060405234801561001057600080fd5b506105de806100206000396000f3fe608060405234801561001057600080fd5b50600436106100415760003560e01c8063209df0fa1461004657806338cc4831146100885780636ee5741a146100d2575b600080fd5b6100726004803603602081101561005c57600080fd5b8101908080359060200190929190505050610329565b6040518082815260200191505060405180910390f35b61009061033c565b604051808273ffffffffffffffffffffffffffffffffffffffff1673ffffffffffffffffffffffffffffffffffffffff16815260200191505060405180910390f35b610242600480360360608110156100e857600080fd5b810190808035906020019064010000000081111561010557600080fd5b82018360208201111561011757600080fd5b8035906020019184600183028401116401000000008311171561013957600080fd5b91908080601f016020809104026020016040519081016040528093929190818152602001838380828437600081840152601f19601f8201169050808301925050505050505091929192908035906020019064010000000081111561019c57600080fd5b8201836020820111156101ae57600080fd5b803590602001918460018302840111640100000000831117156101d057600080fd5b91908080601f016020809104026020016040519081016040528093929190818152602001838380828437600081840152601f19601f820116905080830192505050505050509192919290803573ffffffffffffffffffffffffffffffffffffffff169060200190929190505050610349565b604051808060200180602001838103835285818151815260200191508051906020019080838360005b8381101561028657808201518184015260208101905061026b565b50505050905090810190601f1680156102b35780820380516001836020036101000a031916815260200191505b50838103825284818151815260200191508051906020019080838360005b838110156102ec5780820151818401526020810190506102d1565b50505050905090810190601f1680156103195780820380516001836020036101000a031916815260200191505b5094505050505060405180910390f35b6000816003819055506003549050919050565b6000803090508091505090565b6060808460009080519060200190610362929190610503565b508360019080519060200190610379929190610503565b5082600260006101000a81548173ffffffffffffffffffffffffffffffffffffffff021916908373ffffffffffffffffffffffffffffffffffffffff16021790555060006001818054600181600116156101000203166002900480601f0160208091040260200160405190810160405280929190818152602001828054600181600116156101000203166002900480156104545780601f1061042957610100808354040283529160200191610454565b820191906000526020600020905b81548152906001019060200180831161043757829003601f168201915b50505050509150808054600181600116156101000203166002900480601f0160208091040260200160405190810160405280929190818152602001828054600181600116156101000203166002900480156104f05780601f106104c5576101008083540402835291602001916104f0565b820191906000526020600020905b8154815290600101906020018083116104d357829003601f168201915b5050505050905091509150935093915050565b828054600181600116156101000203166002900490600052602060002090601f016020900481019282601f1061054457805160ff1916838001178555610572565b82800160010185558215610572579182015b82811115610571578251825591602001919060010190610556565b5b50905061057f9190610583565b5090565b6105a591905b808211156105a1576000816000905550600101610589565b5090565b9056fea26469706673582212209071a07c95d38213a054476cf93e4c1dd92e17d4e480effb69ed4c71d9b57ac664736f6c63430006020033608060405230600660006101000a81548173ffffffffffffffffffffffffffffffffffffffff021916908373ffffffffffffffffffffffffffffffffffffffff160217905550600660009054906101000a900473ffffffffffffffffffffffffffffffffffffffff1673ffffffffffffffffffffffffffffffffffffffff16316007556104e2600855604051620020e5380380620020e583398181016040526040811015620000ad57600080fd5b8101908080519060200190929190805190602001909291905050506040518060400160405280600481526020017f4d656f77000000000000000000000000000000000000000000000000000000008152506040518060400160405280600381526020017f4d324d000000000000000000000000000000000000000000000000000000000081525081600390805190602001906200014c929190620004c3565b50806004908051906020019062000165929190620004c3565b506012600560006101000a81548160ff021916908360ff16021790555050506000620001966200024f60201b60201c565b905080600560016101000a81548173ffffffffffffffffffffffffffffffffffffffff021916908373ffffffffffffffffffffffffffffffffffffffff1602179055508073ffffffffffffffffffffffffffffffffffffffff16600073ffffffffffffffffffffffffffffffffffffffff167f8be0079c531659141344cd1fd0a4f28419497f9722a3daafe3b4186f6b6457e060405160405180910390a3506200024782826200025760201b60201c565b505062000572565b600033905090565b600073ffffffffffffffffffffffffffffffffffffffff168273ffffffffffffffffffffffffffffffffffffffff161415620002fb576040517f08c379a000000000000000000000000000000000000000000000000000000000815260040180806020018281038252601f8152602001807f45524332303a206d696e7420746f20746865207a65726f20616464726573730081525060200191505060405180910390fd5b6200030f600083836200043560201b60201c565b6200032b816002546200043a60201b620019791790919060201c565b60028190555062000389816000808573ffffffffffffffffffffffffffffffffffffffff1673ffffffffffffffffffffffffffffffffffffffff168152602001908152602001600020546200043a60201b620019791790919060201c565b6000808473ffffffffffffffffffffffffffffffffffffffff1673ffffffffffffffffffffffffffffffffffffffff168152602001908152602001600020819055508173ffffffffffffffffffffffffffffffffffffffff16600073ffffffffffffffffffffffffffffffffffffffff167fddf252ad1be2c89b69c2b068fc378daa952ba7f163c4a11628f55a4df523b3ef836040518082815260200191505060405180910390a35050565b505050565b600080828401905083811015620004b9576040517f08c379a000000000000000000000000000000000000000000000000000000000815260040180806020018281038252601b8152602001807f536166654d6174683a206164646974696f6e206f766572666c6f77000000000081525060200191505060405180910390fd5b8091505092915050565b828054600181600116156101000203166002900490600052602060002090601f016020900481019282601f106200050657805160ff191683800117855562000537565b8280016001018555821562000537579182015b828111156200053657825182559160200191906001019062000519565b5b5090506200054691906200054a565b5090565b6200056f91905b808211156200056b57600081600090555060010162000551565b5090565b90565b611b6380620005826000396000f3fe6080604052600436106101235760003560e01c806370a08231116100a0578063a457c2d711610064578063a457c2d7146106e9578063a9059cbb1461075c578063b69ef8a8146107cf578063dd62ed3e146107fa578063f2fde38b1461087f576101a5565b806370a0823114610535578063715018a61461059a5780638da5cb5b146105b157806395d89b411461060857806396a9fdc014610698576101a5565b806323b872dd116100e757806323b872dd146103255780632466696e146103b8578063313ce5671461042157806339509351146104525780636f1e8533146104c5576101a5565b806306fdde03146101aa578063095ea7b31461023a57806312065fe0146102ad57806318160ddd146102d85780631a5fee5714610303576101a5565b366101a5577f88a5966d370b9919b20f3e2c13ff65706f196a4e32cc2c12bf57088f885258743334604051808373ffffffffffffffffffffffffffffffffffffffff1673ffffffffffffffffffffffffffffffffffffffff1681526020018281526020019250505060405180910390a134600760008282540192505081905550005b600080fd5b3480156101b657600080fd5b506101bf6108d0565b6040518080602001828103825283818151815260200191508051906020019080838360005b838110156101ff5780820151818401526020810190506101e4565b50505050905090810190601f16801561022c5780820380516001836020036101000a031916815260200191505b509250505060405180910390f35b34801561024657600080fd5b506102936004803603604081101561025d57600080fd5b81019080803573ffffffffffffffffffffffffffffffffffffffff16906020019092919080359060200190929190505050610972565b604051808215151515815260200191505060405180910390f35b3480156102b957600080fd5b506102c2610990565b6040518082815260200191505060405180910390f35b3480156102e457600080fd5b506102ed61099a565b6040518082815260200191505060405180910390f35b61030b6109a4565b604051808215151515815260200191505060405180910390f35b34801561033157600080fd5b5061039e6004803603606081101561034857600080fd5b81019080803573ffffffffffffffffffffffffffffffffffffffff169060200190929190803573ffffffffffffffffffffffffffffffffffffffff16906020019092919080359060200190929190505050610a13565b604051808215151515815260200191505060405180910390f35b3480156103c457600080fd5b50610407600480360360208110156103db57600080fd5b81019080803573ffffffffffffffffffffffffffffffffffffffff169060200190929190505050610aec565b604051808215151515815260200191505060405180910390f35b34801561042d57600080fd5b50610436610b6d565b604051808260ff1660ff16815260200191505060405180910390f35b34801561045e57600080fd5b506104ab6004803603604081101561047557600080fd5b81019080803573ffffffffffffffffffffffffffffffffffffffff16906020019092919080359060200190929190505050610b84565b604051808215151515815260200191505060405180910390f35b3480156104d157600080fd5b50610514600480360360208110156104e857600080fd5b81019080803573ffffffffffffffffffffffffffffffffffffffff169060200190929190505050610c37565b60405180831515151581526020018281526020019250505060405180910390f35b34801561054157600080fd5b506105846004803603602081101561055857600080fd5b81019080803573ffffffffffffffffffffffffffffffffffffffff169060200190929190505050610ce1565b6040518082815260200191505060405180910390f35b3480156105a657600080fd5b506105af610d29565b005b3480156105bd57600080fd5b506105c6610eb4565b604051808273ffffffffffffffffffffffffffffffffffffffff1673ffffffffffffffffffffffffffffffffffffffff16815260200191505060405180910390f35b34801561061457600080fd5b5061061d610ede565b6040518080602001828103825283818151815260200191508051906020019080838360005b8381101561065d578082015181840152602081019050610642565b50505050905090810190601f16801561068a5780820380516001836020036101000a031916815260200191505b509250505060405180910390f35b3480156106a457600080fd5b506106e7600480360360208110156106bb57600080fd5b81019080803573ffffffffffffffffffffffffffffffffffffffff169060200190929190505050610f80565b005b3480156106f557600080fd5b506107426004803603604081101561070c57600080fd5b81019080803573ffffffffffffffffffffffffffffffffffffffff16906020019092919080359060200190929190505050611071565b604051808215151515815260200191505060405180910390f35b34801561076857600080fd5b506107b56004803603604081101561077f57600080fd5b81019080803573ffffffffffffffffffffffffffffffffffffffff1690602001909291908035906020019092919050505061113e565b604051808215151515815260200191505060405180910390f35b3480156107db57600080fd5b506107e461115c565b6040518082815260200191505060405180910390f35b34801561080657600080fd5b506108696004803603604081101561081d57600080fd5b81019080803573ffffffffffffffffffffffffffffffffffffffff169060200190929190803573ffffffffffffffffffffffffffffffffffffffff169060200190929190505050611162565b6040518082815260200191505060405180910390f35b34801561088b57600080fd5b506108ce600480360360208110156108a257600080fd5b81019080803573ffffffffffffffffffffffffffffffffffffffff1690602001909291905050506111e9565b005b606060038054600181600116156101000203166002900480601f0160208091040260200160405190810160405280929190818152602001828054600181600116156101000203166002900480156109685780601f1061093d57610100808354040283529160200191610968565b820191906000526020600020905b81548152906001019060200180831161094b57829003601f168201915b5050505050905090565b600061098661097f6113f9565b8484611401565b6001905092915050565b6000600754905090565b6000600254905090565b6000600660009054906101000a900473ffffffffffffffffffffffffffffffffffffffff1673ffffffffffffffffffffffffffffffffffffffff166108fc6008549081150290604051600060405180830381858888f19350505050503460076000828254019250508190555090565b6000610a208484846115f8565b610ae184610a2c6113f9565b610adc85604051806060016040528060288152602001611a9860289139600160008b73ffffffffffffffffffffffffffffffffffffffff1673ffffffffffffffffffffffffffffffffffffffff1681526020019081526020016000206000610a926113f9565b73ffffffffffffffffffffffffffffffffffffffff1673ffffffffffffffffffffffffffffffffffffffff168152602001908152602001600020546118b99092919063ffffffff16565b611401565b600190509392505050565b600080610af883610c37565b50905080610b64576009839080600181540180825580915050600190039060005260206000200160009091909190916101000a81548173ffffffffffffffffffffffffffffffffffffffff021916908373ffffffffffffffffffffffffffffffffffffffff1602179055505b80915050919050565b6000600560009054906101000a900460ff16905090565b6000610c2d610b916113f9565b84610c288560016000610ba26113f9565b73ffffffffffffffffffffffffffffffffffffffff1673ffffffffffffffffffffffffffffffffffffffff16815260200190815260200160002060008973ffffffffffffffffffffffffffffffffffffffff1673ffffffffffffffffffffffffffffffffffffffff1681526020019081526020016000205461197990919063ffffffff16565b611401565b6001905092915050565b60008060008090505b600980549050811015610cd05760098181548110610c5a57fe5b9060005260206000200160009054906101000a900473ffffffffffffffffffffffffffffffffffffffff1673ffffffffffffffffffffffffffffffffffffffff168473ffffffffffffffffffffffffffffffffffffffff161415610cc5576001819250925050610cdc565b600181019050610c40565b50600080809050915091505b915091565b60008060008373ffffffffffffffffffffffffffffffffffffffff1673ffffffffffffffffffffffffffffffffffffffff168152602001908152602001600020549050919050565b610d316113f9565b73ffffffffffffffffffffffffffffffffffffffff16600560019054906101000a900473ffffffffffffffffffffffffffffffffffffffff1673ffffffffffffffffffffffffffffffffffffffff1614610df3576040517f08c379a00000000000000000000000000000000000000000000000000000000081526004018080602001828103825260208152602001807f4f776e61626c653a2063616c6c6572206973206e6f7420746865206f776e657281525060200191505060405180910390fd5b600073ffffffffffffffffffffffffffffffffffffffff16600560019054906101000a900473ffffffffffffffffffffffffffffffffffffffff1673ffffffffffffffffffffffffffffffffffffffff167f8be0079c531659141344cd1fd0a4f28419497f9722a3daafe3b4186f6b6457e060405160405180910390a36000600560016101000a81548173ffffffffffffffffffffffffffffffffffffffff021916908373ffffffffffffffffffffffffffffffffffffffff160217905550565b6000600560019054906101000a900473ffffffffffffffffffffffffffffffffffffffff16905090565b606060048054600181600116156101000203166002900480601f016020809104026020016040519081016040528092919081815260200182805460018160011615610100020316600290048015610f765780601f10610f4b57610100808354040283529160200191610f76565b820191906000526020600020905b815481529060010190602001808311610f5957829003601f168201915b5050505050905090565b600080610f8c83610c37565b91509150811561106c57600960016009805490500381548110610fab57fe5b9060005260206000200160009054906101000a900473ffffffffffffffffffffffffffffffffffffffff1660098281548110610fe357fe5b9060005260206000200160006101000a81548173ffffffffffffffffffffffffffffffffffffffff021916908373ffffffffffffffffffffffffffffffffffffffff160217905550600980548061103657fe5b6001900381819060005260206000200160006101000a81549073ffffffffffffffffffffffffffffffffffffffff021916905590555b505050565b600061113461107e6113f9565b8461112f85604051806060016040528060258152602001611b0960259139600160006110a86113f9565b73ffffffffffffffffffffffffffffffffffffffff1673ffffffffffffffffffffffffffffffffffffffff16815260200190815260200160002060008a73ffffffffffffffffffffffffffffffffffffffff1673ffffffffffffffffffffffffffffffffffffffff168152602001908152602001600020546118b99092919063ffffffff16565b611401565b6001905092915050565b600061115261114b6113f9565b84846115f8565b6001905092915050565b60075481565b6000600160008473ffffffffffffffffffffffffffffffffffffffff1673ffffffffffffffffffffffffffffffffffffffff16815260200190815260200160002060008373ffffffffffffffffffffffffffffffffffffffff1673ffffffffffffffffffffffffffffffffffffffff16815260200190815260200160002054905092915050565b6111f16113f9565b73ffffffffffffffffffffffffffffffffffffffff16600560019054906101000a900473ffffffffffffffffffffffffffffffffffffffff1673ffffffffffffffffffffffffffffffffffffffff16146112b3576040517f08c379a00000000000000000000000000000000000000000000000000000000081526004018080602001828103825260208152602001807f4f776e61626c653a2063616c6c6572206973206e6f7420746865206f776e657281525060200191505060405180910390fd5b600073ffffffffffffffffffffffffffffffffffffffff168173ffffffffffffffffffffffffffffffffffffffff161415611339576040517f08c379a0000000000000000000000000000000000000000000000000000000008152600401808060200182810382526026815260200180611a2a6026913960400191505060405180910390fd5b8073ffffffffffffffffffffffffffffffffffffffff16600560019054906101000a900473ffffffffffffffffffffffffffffffffffffffff1673ffffffffffffffffffffffffffffffffffffffff167f8be0079c531659141344cd1fd0a4f28419497f9722a3daafe3b4186f6b6457e060405160405180910390a380600560016101000a81548173ffffffffffffffffffffffffffffffffffffffff021916908373ffffffffffffffffffffffffffffffffffffffff16021790555050565b600033905090565b600073ffffffffffffffffffffffffffffffffffffffff168373ffffffffffffffffffffffffffffffffffffffff161415611487576040517f08c379a0000000000000000000000000000000000000000000000000000000008152600401808060200182810382526024815260200180611ae56024913960400191505060405180910390fd5b600073ffffffffffffffffffffffffffffffffffffffff168273ffffffffffffffffffffffffffffffffffffffff16141561150d576040517f08c379a0000000000000000000000000000000000000000000000000000000008152600401808060200182810382526022815260200180611a506022913960400191505060405180910390fd5b80600160008573ffffffffffffffffffffffffffffffffffffffff1673ffffffffffffffffffffffffffffffffffffffff16815260200190815260200160002060008473ffffffffffffffffffffffffffffffffffffffff1673ffffffffffffffffffffffffffffffffffffffff168152602001908152602001600020819055508173ffffffffffffffffffffffffffffffffffffffff168373ffffffffffffffffffffffffffffffffffffffff167f8c5be1e5ebec7d5bd14f71427d1e84f3dd0314c0f7b2291e5b200ac8c7c3b925836040518082815260200191505060405180910390a3505050565b600073ffffffffffffffffffffffffffffffffffffffff168373ffffffffffffffffffffffffffffffffffffffff16141561167e576040517f08c379a0000000000000000000000000000000000000000000000000000000008152600401808060200182810382526025815260200180611ac06025913960400191505060405180910390fd5b600073ffffffffffffffffffffffffffffffffffffffff168273ffffffffffffffffffffffffffffffffffffffff161415611704576040517f08c379a0000000000000000000000000000000000000000000000000000000008152600401808060200182810382526023815260200180611a076023913960400191505060405180910390fd5b61170f838383611a01565b61177a81604051806060016040528060268152602001611a72602691396000808773ffffffffffffffffffffffffffffffffffffffff1673ffffffffffffffffffffffffffffffffffffffff168152602001908152602001600020546118b99092919063ffffffff16565b6000808573ffffffffffffffffffffffffffffffffffffffff1673ffffffffffffffffffffffffffffffffffffffff1681526020019081526020016000208190555061180d816000808573ffffffffffffffffffffffffffffffffffffffff1673ffffffffffffffffffffffffffffffffffffffff1681526020019081526020016000205461197990919063ffffffff16565b6000808473ffffffffffffffffffffffffffffffffffffffff1673ffffffffffffffffffffffffffffffffffffffff168152602001908152602001600020819055508173ffffffffffffffffffffffffffffffffffffffff168373ffffffffffffffffffffffffffffffffffffffff167fddf252ad1be2c89b69c2b068fc378daa952ba7f163c4a11628f55a4df523b3ef836040518082815260200191505060405180910390a3505050565b6000838311158290611966576040517f08c379a00000000000000000000000000000000000000000000000000000000081526004018080602001828103825283818151815260200191508051906020019080838360005b8381101561192b578082015181840152602081019050611910565b50505050905090810190601f1680156119585780820380516001836020036101000a031916815260200191505b509250505060405180910390fd5b5060008385039050809150509392505050565b6000808284019050838110156119f7576040517f08c379a000000000000000000000000000000000000000000000000000000000815260040180806020018281038252601b8152602001807f536166654d6174683a206164646974696f6e206f766572666c6f77000000000081525060200191505060405180910390fd5b8091505092915050565b50505056fe45524332303a207472616e7366657220746f20746865207a65726f20616464726573734f776e61626c653a206e6577206f776e657220697320746865207a65726f206164647265737345524332303a20617070726f766520746f20746865207a65726f206164647265737345524332303a207472616e7366657220616d6f756e7420657863656564732062616c616e636545524332303a207472616e7366657220616d6f756e74206578636565647320616c6c6f77616e636545524332303a207472616e736665722066726f6d20746865207a65726f206164647265737345524332303a20617070726f76652066726f6d20746865207a65726f206164647265737345524332303a2064656372656173656420616c6c6f77616e63652062656c6f77207a65726fa264697066735822122069c0ca1b36568ac318ac47897c1639ec01165597755fcac7c39cd7a1f7bf4f8064736f6c63430006020033a2646970667358221220634d5b0b5cd7f0c87e6eb9c414462ba73c790987abc298fcb6890aee1034428d64736f6c63430006020033",
  "source": "pragma solidity ^0.6.0;\n\n/**\n * @title Registrar\n * @dev Create and interact with Registries\n*/\n\nimport './Registry.sol';\nimport './StakeToken.sol';\n\ncontract Registrar { \n\n    event registryAdded(address registryContract, string registryName, string registryType);\n\n    struct RegistrarEntry {\n        address registryContract;\n        string registryName;\n        string registryType;\n    }\n\n    mapping (string => RegistrarEntry) registryMap;\n    address[] public registrar;\n\n    function createRegistry (\n        string memory _registryName,\n        string memory _registryType,\n        uint256 _stakePrice\n    ) public returns (address, string memory, string memory) {\n                \n        Registry registryContract = new Registry();\n        StakeToken stakeToken = new StakeToken(msg.sender, 250); // change static initial supply to var\n        registryContract.init(_registryName, _registryType, address(stakeToken));\n        registryContract.setStakePrice(_stakePrice);\n\n        registryMap[_registryName].registryContract = registryContract.getAddress();\n        registryMap[_registryName].registryName = _registryName;\n        registryMap[_registryName].registryType = _registryType;\n\n        registrar.push(registryMap[_registryName].registryContract);\n        emit registryAdded(registryMap[_registryName].registryContract, _registryName, _registryType);\n\n        return (registryMap[_registryName].registryContract, registryMap[_registryName].registryName, registryMap[_registryName].registryType);\n    }\n\n    function getRegistrarLength() public view returns (uint256) {\n        return registrar.length;\n    }\n\n    function getRegistryAddress(string memory _name) public view returns (address) {\n        return registryMap[_name].registryContract;\n    }\n\n    function getRegistryType(string memory _name) public view returns (string memory) {\n        return registryMap[_name].registryType;\n    }\n}  ",
  "sourcePath": "/Users/neo/Code/ZNS/contracts/Registrar.sol",
  "compiler": {
    "name": "solc",
    "version": "0.6.2+commit.bacdbe57.Emscripten.clang"
  },
  "schemaVersion": "3.2.3",
  "updatedAt": "2020-08-26T08:02:15.791Z",
  "networkType": "ethereum",
  "devdoc": {
    "methods": {}
  },
  "userdoc": {
    "methods": {}
  }
}