{
  "contractName": "Registrar",
  "abi": [
    {
      "constant": true,
      "inputs": [
        {
          "name": "",
          "type": "uint256"
        }
      ],
      "name": "registrar",
      "outputs": [
        {
          "name": "",
          "type": "address"
        }
      ],
      "payable": false,
      "stateMutability": "view",
      "type": "function"
    },
    {
      "anonymous": false,
      "inputs": [
        {
          "indexed": false,
          "name": "registryContract",
          "type": "address"
        },
        {
          "indexed": false,
          "name": "registryName",
          "type": "string"
        },
        {
          "indexed": false,
          "name": "registryType",
          "type": "string"
        }
      ],
      "name": "registryAdded",
      "type": "event"
    },
    {
      "constant": false,
      "inputs": [
        {
          "name": "_registryName",
          "type": "string"
        },
        {
          "name": "_registryType",
          "type": "string"
        }
      ],
      "name": "createRegistry",
      "outputs": [
        {
          "name": "",
          "type": "address"
        },
        {
          "name": "",
          "type": "string"
        },
        {
          "name": "",
          "type": "string"
        }
      ],
      "payable": false,
      "stateMutability": "nonpayable",
      "type": "function"
    },
    {
      "constant": true,
      "inputs": [],
      "name": "getRegistrarLength",
      "outputs": [
        {
          "name": "",
          "type": "uint256"
        }
      ],
      "payable": false,
      "stateMutability": "view",
      "type": "function"
    },
    {
      "constant": true,
      "inputs": [
        {
          "name": "_name",
          "type": "string"
        }
      ],
      "name": "getRegistryAddress",
      "outputs": [
        {
          "name": "",
          "type": "address"
        }
      ],
      "payable": false,
      "stateMutability": "view",
      "type": "function"
    },
    {
      "constant": true,
      "inputs": [
        {
          "name": "_name",
          "type": "string"
        }
      ],
      "name": "getRegistryType",
      "outputs": [
        {
          "name": "",
          "type": "string"
        }
      ],
      "payable": false,
      "stateMutability": "view",
      "type": "function"
    }
  ],
  "bytecode": "0x608060405234801561001057600080fd5b506113c8806100206000396000f3fe608060405234801561001057600080fd5b50600436106100575760003560e01c806337c3a7da1461005c57806374b9982c1461007a5780639433fcbc1461017557806394541af0146101e3578063ef08989d1461044d575b600080fd5b610064610581565b6040518082815260200191505060405180910390f35b6101336004803603602081101561009057600080fd5b81019080803590602001906401000000008111156100ad57600080fd5b8201836020820111156100bf57600080fd5b803590602001918460018302840111640100000000831117156100e157600080fd5b91908080601f016020809104026020016040519081016040528093929190818152602001838380828437600081840152601f19601f82011690508083019250505050505050919291929050505061058e565b604051808273ffffffffffffffffffffffffffffffffffffffff1673ffffffffffffffffffffffffffffffffffffffff16815260200191505060405180910390f35b6101a16004803603602081101561018b57600080fd5b8101908080359060200190929190505050610623565b604051808273ffffffffffffffffffffffffffffffffffffffff1673ffffffffffffffffffffffffffffffffffffffff16815260200191505060405180910390f35b610333600480360360408110156101f957600080fd5b810190808035906020019064010000000081111561021657600080fd5b82018360208201111561022857600080fd5b8035906020019184600183028401116401000000008311171561024a57600080fd5b91908080601f016020809104026020016040519081016040528093929190818152602001838380828437600081840152601f19601f820116905080830192505050505050509192919290803590602001906401000000008111156102ad57600080fd5b8201836020820111156102bf57600080fd5b803590602001918460018302840111640100000000831117156102e157600080fd5b91908080601f016020809104026020016040519081016040528093929190818152602001838380828437600081840152601f19601f82011690508083019250505050505050919291929050505061065f565b604051808473ffffffffffffffffffffffffffffffffffffffff1673ffffffffffffffffffffffffffffffffffffffff1681526020018060200180602001838103835285818151815260200191508051906020019080838360005b838110156103a957808201518184015260208101905061038e565b50505050905090810190601f1680156103d65780820380516001836020036101000a031916815260200191505b50838103825284818151815260200191508051906020019080838360005b8381101561040f5780820151818401526020810190506103f4565b50505050905090810190601f16801561043c5780820380516001836020036101000a031916815260200191505b509550505050505060405180910390f35b6105066004803603602081101561046357600080fd5b810190808035906020019064010000000081111561048057600080fd5b82018360208201111561049257600080fd5b803590602001918460018302840111640100000000831117156104b457600080fd5b91908080601f016020809104026020016040519081016040528093929190818152602001838380828437600081840152601f19601f820116905080830192505050505050509192919290505050610ed5565b6040518080602001828103825283818151815260200191508051906020019080838360005b8381101561054657808201518184015260208101905061052b565b50505050905090810190601f1680156105735780820380516001836020036101000a031916815260200191505b509250505060405180910390f35b6000600180549050905090565b600080826040518082805190602001908083835b602083106105c557805182526020820191506020810190506020830392506105a2565b6001836020036101000a038019825116818451168082178552505050505050905001915050908152602001604051809103902060000160009054906101000a900473ffffffffffffffffffffffffffffffffffffffff169050919050565b6001818154811061063057fe5b906000526020600020016000915054906101000a900473ffffffffffffffffffffffffffffffffffffffff1681565b6000606080600060405161067290610fe3565b604051809103906000f08015801561068e573d6000803e3d6000fd5b5090508073ffffffffffffffffffffffffffffffffffffffff16637029144c87876040518363ffffffff1660e01b8152600401808060200180602001838103835285818151815260200191508051906020019080838360005b838110156107025780820151818401526020810190506106e7565b50505050905090810190601f16801561072f5780820380516001836020036101000a031916815260200191505b50838103825284818151815260200191508051906020019080838360005b8381101561076857808201518184015260208101905061074d565b50505050905090810190601f1680156107955780820380516001836020036101000a031916815260200191505b50945050505050600060405180830381600087803b1580156107b657600080fd5b505af11580156107ca573d6000803e3d6000fd5b505050508073ffffffffffffffffffffffffffffffffffffffff166338cc48316040518163ffffffff1660e01b815260040160206040518083038186803b15801561081457600080fd5b505afa158015610828573d6000803e3d6000fd5b505050506040513d602081101561083e57600080fd5b81019080805190602001909291905050506000876040518082805190602001908083835b602083106108855780518252602082019150602081019050602083039250610862565b6001836020036101000a038019825116818451168082178552505050505050905001915050908152602001604051809103902060000160006101000a81548173ffffffffffffffffffffffffffffffffffffffff021916908373ffffffffffffffffffffffffffffffffffffffff160217905550856000876040518082805190602001908083835b60208310610930578051825260208201915060208101905060208303925061090d565b6001836020036101000a03801982511681845116808217855250505050505090500191505090815260200160405180910390206001019080519060200190610979929190610ff0565b50846000876040518082805190602001908083835b602083106109b1578051825260208201915060208101905060208303925061098e565b6001836020036101000a038019825116818451168082178552505050505050905001915050908152602001604051809103902060020190805190602001906109fa929190610ff0565b5060013090806001815401808255809150509060018203906000526020600020016000909192909190916101000a81548173ffffffffffffffffffffffffffffffffffffffff021916908373ffffffffffffffffffffffffffffffffffffffff160217905550507f1db9576dbbdd63cc0e73a6a1055164d40d9ffcec8ec56a8c352e94fb5a66e10c6000876040518082805190602001908083835b60208310610ab85780518252602082019150602081019050602083039250610a95565b6001836020036101000a038019825116818451168082178552505050505050905001915050908152602001604051809103902060000160009054906101000a900473ffffffffffffffffffffffffffffffffffffffff168787604051808473ffffffffffffffffffffffffffffffffffffffff1673ffffffffffffffffffffffffffffffffffffffff1681526020018060200180602001838103835285818151815260200191508051906020019080838360005b83811015610b87578082015181840152602081019050610b6c565b50505050905090810190601f168015610bb45780820380516001836020036101000a031916815260200191505b50838103825284818151815260200191508051906020019080838360005b83811015610bed578082015181840152602081019050610bd2565b50505050905090810190601f168015610c1a5780820380516001836020036101000a031916815260200191505b509550505050505060405180910390a16000866040518082805190602001908083835b60208310610c605780518252602082019150602081019050602083039250610c3d565b6001836020036101000a038019825116818451168082178552505050505050905001915050908152602001604051809103902060000160009054906101000a900473ffffffffffffffffffffffffffffffffffffffff166000876040518082805190602001908083835b60208310610ced5780518252602082019150602081019050602083039250610cca565b6001836020036101000a03801982511681845116808217855250505050505090500191505090815260200160405180910390206001016000886040518082805190602001908083835b60208310610d595780518252602082019150602081019050602083039250610d36565b6001836020036101000a0380198251168184511680821785525050505050509050019150509081526020016040518091039020600201818054600181600116156101000203166002900480601f016020809104026020016040519081016040528092919081815260200182805460018160011615610100020316600290048015610e245780601f10610df957610100808354040283529160200191610e24565b820191906000526020600020905b815481529060010190602001808311610e0757829003601f168201915b50505050509150808054600181600116156101000203166002900480601f016020809104026020016040519081016040528092919081815260200182805460018160011615610100020316600290048015610ec05780601f10610e9557610100808354040283529160200191610ec0565b820191906000526020600020905b815481529060010190602001808311610ea357829003601f168201915b50505050509050935093509350509250925092565b60606000826040518082805190602001908083835b60208310610f0d5780518252602082019150602081019050602083039250610eea565b6001836020036101000a03801982511681845116808217855250505050505090500191505090815260200160405180910390206002018054600181600116156101000203166002900480601f016020809104026020016040519081016040528092919081815260200182805460018160011615610100020316600290048015610fd75780601f10610fac57610100808354040283529160200191610fd7565b820191906000526020600020905b815481529060010190602001808311610fba57829003601f168201915b50505050509050919050565b6103078061109683390190565b828054600181600116156101000203166002900490600052602060002090601f016020900481019282601f1061103157805160ff191683800117855561105f565b8280016001018555821561105f579182015b8281111561105e578251825591602001919060010190611043565b5b50905061106c9190611070565b5090565b61109291905b8082111561108e576000816000905550600101611076565b5090565b9056fe608060405234801561001057600080fd5b506102e7806100206000396000f3fe608060405234801561001057600080fd5b50600436106100365760003560e01c806338cc48311461003b5780637029144c14610085575b600080fd5b6100436101d7565b604051808273ffffffffffffffffffffffffffffffffffffffff1673ffffffffffffffffffffffffffffffffffffffff16815260200191505060405180910390f35b6101d56004803603604081101561009b57600080fd5b81019080803590602001906401000000008111156100b857600080fd5b8201836020820111156100ca57600080fd5b803590602001918460018302840111640100000000831117156100ec57600080fd5b91908080601f016020809104026020016040519081016040528093929190818152602001838380828437600081840152601f19601f8201169050808301925050505050505091929192908035906020019064010000000081111561014f57600080fd5b82018360208201111561016157600080fd5b8035906020019184600183028401116401000000008311171561018357600080fd5b91908080601f016020809104026020016040519081016040528093929190818152602001838380828437600081840152601f19601f8201169050808301925050505050505091929192905050506101e4565b005b6000803090508091505090565b81600090805190602001906101fa929190610216565b508060019080519060200190610211929190610216565b505050565b828054600181600116156101000203166002900490600052602060002090601f016020900481019282601f1061025757805160ff1916838001178555610285565b82800160010185558215610285579182015b82811115610284578251825591602001919060010190610269565b5b5090506102929190610296565b5090565b6102b891905b808211156102b457600081600090555060010161029c565b5090565b9056fea165627a7a72305820db0e28aa9e1d32309dc1f0171ede0a92d53ab248df3c2df3b2ef56e8d2421a370029a165627a7a723058203dcecb7183b237bf4af70c843bce442fc0f3f7a23502be326b480156c1c74d620029",
  "source": "pragma solidity >=0.4.22 <0.7.0;\n\n/**\n * @title Registrar\n * @dev Create and interact with Registries\n*/\n\nimport './Registry.sol';\n\ncontract Registrar { \n\n    event registryAdded(address registryContract, string registryName, string registryType);\n\n    struct RegistrarEntry {\n        address registryContract;\n        string registryName;\n        string registryType;\n    }\n\n    mapping (string => RegistrarEntry) registryMap;\n    address[] public registrar;\n\n    function createRegistry (\n        string memory _registryName,\n        string memory _registryType\n    ) public returns (\n        address,    \n        string memory, \n        string memory\n        ) {\n                \n        Registry registryContract = new Registry();\n        registryContract.init(_registryName, _registryType);\n\n        registryMap[_registryName].registryContract = registryContract.getAddress();\n        registryMap[_registryName].registryName = _registryName;\n        registryMap[_registryName].registryType = _registryType;\n\n        registrar.push(address(this));\n        emit registryAdded(registryMap[_registryName].registryContract, _registryName, _registryType);\n\n        return (registryMap[_registryName].registryContract, registryMap[_registryName].registryName, registryMap[_registryName].registryType);\n    }\n\n    function getRegistrarLength() public view returns (uint256) {\n        return registrar.length;\n    }\n\n    function getRegistryAddress(string memory _name) public view returns (address) {\n        return registryMap[_name].registryContract;\n    }\n\n    function getRegistryType(string memory _name) public view returns (string memory) {\n        return registryMap[_name].registryType;\n    }\n}   ",
  "sourcePath": "/Users/neo/Code/ZNS/contracts/Registrar.sol",
  "compiler": {
    "name": "solc",
    "version": "0.5.8+commit.23d335f2.Emscripten.clang"
  },
  "schemaVersion": "3.0.16",
  "updatedAt": "2020-08-25T04:22:13.848Z",
  "devdoc": {
    "methods": {}
  },
  "userdoc": {
    "methods": {}
  }
}