{
  "contractName": "Registrar",
  "abi": [
    {
      "anonymous": false,
      "inputs": [
        {
          "indexed": false,
          "internalType": "string",
          "name": "_domain",
          "type": "string"
        },
        {
          "indexed": false,
          "internalType": "string",
          "name": "_ref",
          "type": "string"
        },
        {
          "indexed": false,
          "internalType": "string",
          "name": "_registryType",
          "type": "string"
        },
        {
          "indexed": false,
          "internalType": "uint256",
          "name": "_stakePrice",
          "type": "uint256"
        },
        {
          "indexed": false,
          "internalType": "address",
          "name": "_registryTokenProxy",
          "type": "address"
        },
        {
          "indexed": false,
          "internalType": "address",
          "name": "_registryProxy",
          "type": "address"
        },
        {
          "indexed": false,
          "internalType": "address",
          "name": "_registryControllerProxy",
          "type": "address"
        }
      ],
      "name": "RegistryCreated",
      "type": "event"
    },
    {
      "inputs": [
        {
          "internalType": "uint256",
          "name": "",
          "type": "uint256"
        }
      ],
      "name": "registrar",
      "outputs": [
        {
          "internalType": "address",
          "name": "",
          "type": "address"
        }
      ],
      "stateMutability": "view",
      "type": "function",
      "constant": true
    },
    {
      "inputs": [
        {
          "internalType": "string",
          "name": "_domain",
          "type": "string"
        },
        {
          "internalType": "string",
          "name": "_ref",
          "type": "string"
        },
        {
          "internalType": "string",
          "name": "_registryType",
          "type": "string"
        },
        {
          "internalType": "uint256",
          "name": "_stakePrice",
          "type": "uint256"
        },
        {
          "internalType": "address",
          "name": "_owner",
          "type": "address"
        },
        {
          "internalType": "address payable",
          "name": "_registryTokenProxyAddress",
          "type": "address"
        }
      ],
      "name": "createRegistry",
      "outputs": [],
      "stateMutability": "nonpayable",
      "type": "function"
    },
    {
      "inputs": [],
      "name": "getRegistryOwner",
      "outputs": [
        {
          "internalType": "address",
          "name": "",
          "type": "address"
        }
      ],
      "stateMutability": "view",
      "type": "function",
      "constant": true
    },
    {
      "inputs": [],
      "name": "getRegistrarLength",
      "outputs": [
        {
          "internalType": "uint256",
          "name": "",
          "type": "uint256"
        }
      ],
      "stateMutability": "view",
      "type": "function",
      "constant": true
    },
    {
      "inputs": [
        {
          "internalType": "string",
          "name": "_domain",
          "type": "string"
        }
      ],
      "name": "getRegistryController",
      "outputs": [
        {
          "internalType": "address",
          "name": "",
          "type": "address"
        }
      ],
      "stateMutability": "view",
      "type": "function",
      "constant": true
    },
    {
      "inputs": [
        {
          "internalType": "string",
          "name": "_domain",
          "type": "string"
        }
      ],
      "name": "getRegistryType",
      "outputs": [
        {
          "internalType": "string",
          "name": "",
          "type": "string"
        }
      ],
      "stateMutability": "view",
      "type": "function",
      "constant": true
    },
    {
      "inputs": [
        {
          "internalType": "address payable",
          "name": "_transparentProxyAddress",
          "type": "address"
        }
      ],
      "name": "getTransparentProxyAdmin",
      "outputs": [
        {
          "internalType": "address",
          "name": "",
          "type": "address"
        }
      ],
      "stateMutability": "nonpayable",
      "type": "function"
    }
  ],
  "bytecode": "0x608060405234801561001057600080fd5b50614982806100206000396000f3fe60806040523480156200001157600080fd5b5060043610620000885760003560e01c80637ab77e4a11620000635780637ab77e4a14620001985780639433fcbc14620001a2578063ef08989d14620001c2578063f52474e514620002e45762000088565b8063132a77ee146200008d57806337c3a7da14620001535780634c2ae66d146200016f575b600080fd5b6200013760048036036020811015620000a557600080fd5b810190602081018135600160201b811115620000c057600080fd5b820183602082011115620000d357600080fd5b803590602001918460018302840111600160201b83111715620000f557600080fd5b91908080601f016020809104026020016040519081016040528093929190818152602001838380828437600092019190915250929550620004b7945050505050565b604080516001600160a01b039092168252519081900360200190f35b6200015d6200052a565b60408051918252519081900360200190f35b62000137600480360360208110156200018757600080fd5b50356001600160a01b031662000531565b62000137620005a8565b6200013760048036036020811015620001ba57600080fd5b503562000621565b6200026c60048036036020811015620001da57600080fd5b810190602081018135600160201b811115620001f557600080fd5b8201836020820111156200020857600080fd5b803590602001918460018302840111600160201b831117156200022a57600080fd5b91908080601f01602080910402602001604051908101604052809392919081815260200183838082843760009201919091525092955062000649945050505050565b6040805160208082528351818301528351919283929083019185019080838360005b83811015620002a85781810151838201526020016200028e565b50505050905090810190601f168015620002d65780820380516001836020036101000a031916815260200191505b509250505060405180910390f35b620004b5600480360360c0811015620002fc57600080fd5b810190602081018135600160201b8111156200031757600080fd5b8201836020820111156200032a57600080fd5b803590602001918460018302840111600160201b831117156200034c57600080fd5b91908080601f0160208091040260200160405190810160405280939291908181526020018383808284376000920191909152509295949360208101935035915050600160201b8111156200039f57600080fd5b820183602082011115620003b257600080fd5b803590602001918460018302840111600160201b83111715620003d457600080fd5b91908080601f0160208091040260200160405190810160405280939291908181526020018383808284376000920191909152509295949360208101935035915050600160201b8111156200042757600080fd5b8201836020820111156200043a57600080fd5b803590602001918460018302840111600160201b831117156200045c57600080fd5b91908080601f0160208091040260200160405190810160405280939291908181526020018383808284376000920191909152509295505082359350506001600160a01b0360208301358116926040013516905062000746565b005b60006006826040518082805190602001908083835b60208310620004ed5780518252601f199092019160209182019101620004cc565b51815160209384036101000a60001901801990921691161790529201948552506040519384900301909220546001600160a01b0316949350505050565b6007545b90565b600080829050806001600160a01b031663f851a4406040518163ffffffff1660e01b8152600401602060405180830381600087803b1580156200057357600080fd5b505af115801562000588573d6000803e3d6000fd5b505050506040513d60208110156200059f57600080fd5b50519392505050565b60025460408051638da5cb5b60e01b815290516000926001600160a01b031691638da5cb5b916004808301926020929190829003018186803b158015620005ee57600080fd5b505afa15801562000603573d6000803e3d6000fd5b505050506040513d60208110156200061a57600080fd5b5051905090565b600781815481106200062f57fe5b6000918252602090912001546001600160a01b0316905081565b60606006826040518082805190602001908083835b602083106200067f5780518252601f1990920191602091820191016200065e565b518151600019602094850361010090810a8201928316921993909316919091179092529490920196875260408051978890038201882060029081018054601f6001821615909802909501909416049485018290048202880182019052838752909450919250508301828280156200073a5780601f106200070e576101008083540402835291602001916200073a565b820191906000526020600020905b8154815290600101906020018083116200071c57829003601f168201915b50505050509050919050565b600380546001600160a01b0319166001600160a01b0383161790556040516200076f906200109c565b604051809103906000f0801580156200078c573d6000803e3d6000fd5b50600080546001600160a01b0319166001600160a01b03928316178155600354604051921660848301819052608060248401908152895160a485015289516060948b948b948b949093909283926044820192606483019260c4019160208b0191908190849084905b838110156200080e578181015183820152602001620007f4565b50505050905090810190601f1680156200083c5780820380516001836020036101000a031916815260200191505b50848103835287518152875160209182019189019080838360005b838110156200087157818101518382015260200162000857565b50505050905090810190601f1680156200089f5780820380516001836020036101000a031916815260200191505b50848103825286518152865160209182019188019080838360005b83811015620008d4578181015183820152602001620008ba565b50505050905090810190601f168015620009025780820380516001836020036101000a031916815260200191505b5060408051601f198184030181529181526020820180516001600160e01b0316635c6d8da160e01b1790526000549051919a506001600160a01b031698503397508996506200095895509350620010aa92505050565b80846001600160a01b03166001600160a01b03168152602001836001600160a01b03166001600160a01b0316815260200180602001828103825283818151815260200191508051906020019080838360005b83811015620009c4578181015183820152602001620009aa565b50505050905090810190601f168015620009f25780820380516001836020036101000a031916815260200191505b50945050505050604051809103906000f08015801562000a16573d6000803e3d6000fd5b50600180546001600160a01b0319166001600160a01b039290921691909117905560405162000a4590620010b8565b604051809103906000f08015801562000a62573d6000803e3d6000fd5b50600480546001600160a01b039283166001600160a01b03199091161790819055600154600354604080519285166024840152908416604483015286841660648084019190915281518084039091018152608490920181526020820180516001600160e01b031663c0c53b8b60e01b17905251909291909116903390839062000aeb90620010aa565b80846001600160a01b03166001600160a01b03168152602001836001600160a01b03166001600160a01b0316815260200180602001828103825283818151815260200191508051906020019080838360005b8381101562000b5757818101518382015260200162000b3d565b50505050905090810190601f16801562000b855780820380516001836020036101000a031916815260200191505b50945050505050604051809103906000f08015801562000ba9573d6000803e3d6000fd5b50600580546001600160a01b039283166001600160a01b031991821617918290556001546002805490921690841617908190556040805163f2fde38b60e01b815292841660048401525192169163f2fde38b9160248082019260009290919082900301818387803b15801562000c1e57600080fd5b505af115801562000c33573d6000803e3d6000fd5b50506005546040518b516001600160a01b039092169350600692508b91819060208401908083835b6020831062000c7c5780518252601f19909201916020918201910162000c5b565b51815160209384036101000a6000190180199092169116179052920194855250604051938490038101842080546001600160a01b0319166001600160a01b039690961695909517909455505089518a92600692849290918291908401908083835b6020831062000cfe5780518252601f19909201916020918201910162000cdd565b6001836020036101000a0380198251168184511680821785525050505050509050019150509081526020016040518091039020600101908051906020019062000d49929190620010c6565b50856006896040518082805190602001908083835b6020831062000d7f5780518252601f19909201916020918201910162000d5e565b51815160209384036101000a6000190180199092169116179052920194855250604051938490038101909320845162000dc6956002909201949190910192509050620010c6565b5060076006896040518082805190602001908083835b6020831062000dfd5780518252601f19909201916020918201910162000ddc565b6001836020036101000a038019825116818451168082178552505050505050905001915050908152602001604051809103902060000160009054906101000a90046001600160a01b03169080600181540180825580915050600190039060005260206000200160009091909190916101000a8154816001600160a01b0302191690836001600160a01b031602179055507f3f061e93054eec612830c0d96f30ae527e2f4793adb104a8003b904d2d4c181888888888600360009054906101000a90046001600160a01b0316600160009054906101000a90046001600160a01b0316600560009054906101000a90046001600160a01b031660405180806020018060200180602001888152602001876001600160a01b03166001600160a01b03168152602001866001600160a01b03166001600160a01b03168152602001856001600160a01b03166001600160a01b0316815260200184810384528b818151815260200191508051906020019080838360005b8381101562000f8957818101518382015260200162000f6f565b50505050905090810190601f16801562000fb75780820380516001836020036101000a031916815260200191505b5084810383528a5181528a516020918201918c019080838360005b8381101562000fec57818101518382015260200162000fd2565b50505050905090810190601f1680156200101a5780820380516001836020036101000a031916815260200191505b5084810382528951815289516020918201918b019080838360005b838110156200104f57818101518382015260200162001035565b50505050905090810190601f1680156200107d5780820380516001836020036101000a031916815260200191505b509a505050505050505050505060405180910390a15050505050505050565b61146c806200116983390190565b61099e80620025d583390190565b6119da8062002f7383390190565b828054600181600116156101000203166002900490600052602060002090601f016020900481019282601f106200110957805160ff191683800117855562001139565b8280016001018555821562001139579182015b82811115620011395782518255916020019190600101906200111c565b50620011479291506200114b565b5090565b6200052e91905b808211156200114757600081556001016200115256fe608060405234801561001057600080fd5b5061144c806100206000396000f3fe608060405234801561001057600080fd5b50600436106100b45760003560e01c80635c6d8da1116100715780635c6d8da1146104a1578063715018a6146105b85780638da5cb5b146105c0578063c822d7f0146105c8578063f2fde38b14610687578063fb3e6444146106ad576100b4565b8063149adf58146100b9578063164f25bf1461019c5780631692f21f1461025c5780631d6d32ba1461031a5780631d8e2f58146103225780635ab1bd5314610346575b600080fd5b610127600480360360208110156100cf57600080fd5b810190602081018135600160201b8111156100e957600080fd5b8201836020820111156100fb57600080fd5b803590602001918460018302840111600160201b8311171561011c57600080fd5b50909250905061071b565b6040805160208082528351818301528351919283929083019185019080838360005b83811015610161578181015183820152602001610149565b50505050905090810190601f16801561018e5780820380516001836020036101000a031916815260200191505b509250505060405180910390f35b61025a600480360360408110156101b257600080fd5b810190602081018135600160201b8111156101cc57600080fd5b8201836020820111156101de57600080fd5b803590602001918460018302840111600160201b831117156101ff57600080fd5b919390929091602081019035600160201b81111561021c57600080fd5b82018360208201111561022e57600080fd5b803590602001918460018302840111600160201b8311171561024f57600080fd5b5090925090506107d0565b005b61025a6004803603604081101561027257600080fd5b810190602081018135600160201b81111561028c57600080fd5b82018360208201111561029e57600080fd5b803590602001918460018302840111600160201b831117156102bf57600080fd5b919390929091602081019035600160201b8111156102dc57600080fd5b8201836020820111156102ee57600080fd5b803590602001918460018302840111600160201b8311171561030f57600080fd5b5090925090506109b5565b610127610b16565b61032a610bad565b604080516001600160a01b039092168252519081900360200190f35b61034e610bbc565b604080516001600160a01b0383166060820152608080825286519082015285519091829160208084019284019160a08501918a019080838360005b838110156103a1578181015183820152602001610389565b50505050905090810190601f1680156103ce5780820380516001836020036101000a031916815260200191505b50848103835287518152875160209182019189019080838360005b838110156104015781810151838201526020016103e9565b50505050905090810190601f16801561042e5780820380516001836020036101000a031916815260200191505b50848103825286518152865160209182019188019080838360005b83811015610461578181015183820152602001610449565b50505050905090810190601f16801561048e5780820380516001836020036101000a031916815260200191505b5097505050505050505060405180910390f35b61025a600480360360808110156104b757600080fd5b810190602081018135600160201b8111156104d157600080fd5b8201836020820111156104e357600080fd5b803590602001918460018302840111600160201b8311171561050457600080fd5b919390929091602081019035600160201b81111561052157600080fd5b82018360208201111561053357600080fd5b803590602001918460018302840111600160201b8311171561055457600080fd5b919390929091602081019035600160201b81111561057157600080fd5b82018360208201111561058357600080fd5b803590602001918460018302840111600160201b831117156105a457600080fd5b9193509150356001600160a01b0316610d96565b61025a610e89565b61032a610f2b565b61066c600480360360208110156105de57600080fd5b810190602081018135600160201b8111156105f857600080fd5b82018360208201111561060a57600080fd5b803590602001918460018302840111600160201b8311171561062b57600080fd5b91908080601f016020809104026020016040519081016040528093929190818152602001838380828437600092019190915250929550610f3a945050505050565b60408051921515835260208301919091528051918290030190f35b61025a6004803603602081101561069d57600080fd5b50356001600160a01b0316610ff7565b61025a600480360360208110156106c357600080fd5b810190602081018135600160201b8111156106dd57600080fd5b8201836020820111156106ef57600080fd5b803590602001918460018302840111600160201b8311171561071057600080fd5b5090925090506110f0565b6060606a8383604051808383808284379190910194855250506040805160209481900385018120805460026001821615610100026000190190911604601f810187900487028301870190935282825290949093509091508301828280156107c35780601f10610798576101008083540402835291602001916107c3565b820191906000526020600020905b8154815290600101906020018083116107a657829003601f168201915b5050505050905092915050565b6107d8611206565b6033546001600160a01b03908116911614610828576040805162461bcd60e51b815260206004820181905260248201526000805160206113f7833981519152604482015290519081900360640190fd5b600061086985858080601f016020809104026020016040519081016040528093929190818152602001838380828437600092019190915250610f3a92505050565b509050806109ae578282606a878760405180838380828437919091019485525050604051928390036020019092206108a7949093909250905061130a565b506000606a868660405180838380828437919091019485525050604051928390036020019092206001908101805494151560ff19909516949094179093555050606b80549182018155600052610920907fbd43cb8ece8cd1863bcd6082d65c5b0d25665b1ce17980f0da43c0ed545f98b401868661130a565b507ff49f5d228081cdcb24c2f4939e0f2236ab3121fd710df20a22d9e2130244b61d858585856040518080602001806020018381038352878782818152602001925080828437600083820152601f01601f191690910184810383528581526020019050858580828437600083820152604051601f909101601f19169092018290039850909650505050505050a15b5050505050565b6109bd611206565b6033546001600160a01b03908116911614610a0d576040805162461bcd60e51b815260206004820181905260248201526000805160206113f7833981519152604482015290519081900360640190fd5b8181606a86866040518083838082843791909101948552505060405192839003602001909220610a43949093909250905061130a565b507fe4bc8abccea03a84d1974cb45f8445c3bed2c0d18e9e38396166ff6f8a95875b606a8585604051808383808284379190910194855250506040805193849003602090810185208186528054600260001961010060018416150201909116049186018290529493508392509082019084908015610b025780601f10610ad757610100808354040283529160200191610b02565b820191906000526020600020905b815481529060010190602001808311610ae557829003601f168201915b50509250505060405180910390a150505050565b60668054604080516020601f6002600019610100600188161502019095169490940493840181900481028201810190925282815260609390929091830182828015610ba25780601f10610b7757610100808354040283529160200191610ba2565b820191906000526020600020905b815481529060010190602001808311610b8557829003601f168201915b505050505090505b90565b6069546001600160a01b031681565b60695460658054604080516020601f600260001960018716156101000201909516949094049384018190048102820181019092528281526060948594859460009491936066936067936001600160a01b03909116928691830182828015610c645780601f10610c3957610100808354040283529160200191610c64565b820191906000526020600020905b815481529060010190602001808311610c4757829003601f168201915b5050865460408051602060026001851615610100026000190190941693909304601f810184900484028201840190925281815295995088945092508401905082828015610cf25780601f10610cc757610100808354040283529160200191610cf2565b820191906000526020600020905b815481529060010190602001808311610cd557829003601f168201915b5050855460408051602060026001851615610100026000190190941693909304601f810184900484028201840190925281815295985087945092508401905082828015610d805780601f10610d5557610100808354040283529160200191610d80565b820191906000526020600020905b815481529060010190602001808311610d6357829003601f168201915b50979c969b509299509297509395505050505050565b600054610100900460ff1680610daf5750610daf61120a565b80610dbd575060005460ff16155b610df85760405162461bcd60e51b815260040180806020018281038252602e8152602001806113c9602e913960400191505060405180910390fd5b600054610100900460ff16158015610e23576000805460ff1961ff0019909116610100171660011790555b610e2b611210565b610e376065898961130a565b50610e446066878761130a565b50610e516067858561130a565b50606880546001600160a01b0319166001600160a01b0384161790558015610e7f576000805461ff00191690555b5050505050505050565b610e91611206565b6033546001600160a01b03908116911614610ee1576040805162461bcd60e51b815260206004820181905260248201526000805160206113f7833981519152604482015290519081900360640190fd5b6033546040516000916001600160a01b0316907f8be0079c531659141344cd1fd0a4f28419497f9722a3daafe3b4186f6b6457e0908390a3603380546001600160a01b0319169055565b6033546001600160a01b031690565b600080805b606b54811015610fe957606b8181548110610f5657fe5b906000526020600020016040518082805460018160011615610100020316600290048015610fbb5780601f10610f99576101008083540402835291820191610fbb565b820191906000526020600020905b815481529060010190602001808311610fa7575b5050915050604051809103902084805190602001201415610fe157600192509050610ff2565b600101610f3f565b50600091508190505b915091565b610fff611206565b6033546001600160a01b0390811691161461104f576040805162461bcd60e51b815260206004820181905260248201526000805160206113f7833981519152604482015290519081900360640190fd5b6001600160a01b0381166110945760405162461bcd60e51b81526004018080602001828103825260268152602001806113a36026913960400191505060405180910390fd5b6033546040516001600160a01b038084169216907f8be0079c531659141344cd1fd0a4f28419497f9722a3daafe3b4186f6b6457e090600090a3603380546001600160a01b0319166001600160a01b0392909216919091179055565b6110f8611206565b6033546001600160a01b03908116911614611148576040805162461bcd60e51b815260206004820181905260248201526000805160206113f7833981519152604482015290519081900360640190fd5b6111546066838361130a565b5060408051602080825260668054600260001961010060018416150201909116049183018290527fe6a3d4ec4f69ac853579fb0336181042ec4d0a21b32de1a92b6dd6a2f904f5a0939092918291820190849080156111f45780601f106111c9576101008083540402835291602001916111f4565b820191906000526020600020905b8154815290600101906020018083116111d757829003601f168201915b50509250505060405180910390a15050565b3390565b303b1590565b600054610100900460ff1680611229575061122961120a565b80611237575060005460ff16155b6112725760405162461bcd60e51b815260040180806020018281038252602e8152602001806113c9602e913960400191505060405180910390fd5b600054610100900460ff1615801561129d576000805460ff1961ff0019909116610100171660011790555b60006112a7611206565b603380546001600160a01b0319166001600160a01b038316908117909155604051919250906000907f8be0079c531659141344cd1fd0a4f28419497f9722a3daafe3b4186f6b6457e0908290a3508015611307576000805461ff00191690555b50565b828054600181600116156101000203166002900490600052602060002090601f016020900481019282601f1061134b5782800160ff19823516178555611378565b82800160010185558215611378579182015b8281111561137857823582559160200191906001019061135d565b50611384929150611388565b5090565b610baa91905b80821115611384576000815560010161138e56fe4f776e61626c653a206e6577206f776e657220697320746865207a65726f2061646472657373496e697469616c697a61626c653a20636f6e747261637420697320616c726561647920696e697469616c697a65644f776e61626c653a2063616c6c6572206973206e6f7420746865206f776e6572a2646970667358221220fc40e226feb1be5c96fa86f5c2e3072b1ebf486136f862bad2ebf53065fb5c1d64736f6c63430006020033608060405260405161099e38038061099e8339818101604052606081101561002657600080fd5b8151602083015160408085018051915193959294830192918464010000000082111561005157600080fd5b90830190602082018581111561006657600080fd5b825164010000000081118282018810171561008057600080fd5b82525081516020918201929091019080838360005b838110156100ad578181015183820152602001610095565b50505050905090810190601f1680156100da5780820380516001836020036101000a031916815260200191505b5060408181527f656970313936372e70726f78792e696d706c656d656e746174696f6e0000000082525190819003601c01902086935084925060008051602061094883398151915260001990910114905061013157fe5b610143826001600160e01b0361026516565b8051156101fb576000826001600160a01b0316826040518082805190602001908083835b602083106101865780518252601f199092019160209182019101610167565b6001836020036101000a038019825116818451168082178552505050505050905001915050600060405180830381855af49150503d80600081146101e6576040519150601f19603f3d011682016040523d82523d6000602084013e6101eb565b606091505b50509050806101f957600080fd5b505b5050604080517f656970313936372e70726f78792e61646d696e00000000000000000000000000815290519081900360130190206000805160206109288339815191526000199091011461024b57fe5b61025d826001600160e01b036102c516565b5050506102dd565b610278816102d760201b61054e1760201c565b6102b35760405162461bcd60e51b81526004018080602001828103825260368152602001806109686036913960400191505060405180910390fd5b60008051602061094883398151915255565b60008051602061092883398151915255565b3b151590565b61063c806102ec6000396000f3fe60806040526004361061004e5760003560e01c80633659cfe6146100655780634f1ef286146100985780635c60da1b146101185780638f28397014610149578063f851a4401461017c5761005d565b3661005d5761005b610191565b005b61005b610191565b34801561007157600080fd5b5061005b6004803603602081101561008857600080fd5b50356001600160a01b03166101ab565b61005b600480360360408110156100ae57600080fd5b6001600160a01b0382351691908101906040810160208201356401000000008111156100d957600080fd5b8201836020820111156100eb57600080fd5b8035906020019184600183028401116401000000008311171561010d57600080fd5b5090925090506101e5565b34801561012457600080fd5b5061012d610292565b604080516001600160a01b039092168252519081900360200190f35b34801561015557600080fd5b5061005b6004803603602081101561016c57600080fd5b50356001600160a01b03166102cf565b34801561018857600080fd5b5061012d610389565b6101996103b4565b6101a96101a4610414565b610439565b565b6101b361045d565b6001600160a01b0316336001600160a01b031614156101da576101d581610482565b6101e2565b6101e2610191565b50565b6101ed61045d565b6001600160a01b0316336001600160a01b031614156102855761020f83610482565b6000836001600160a01b031683836040518083838082843760405192019450600093509091505080830381855af49150503d806000811461026c576040519150601f19603f3d011682016040523d82523d6000602084013e610271565b606091505b505090508061027f57600080fd5b5061028d565b61028d610191565b505050565b600061029c61045d565b6001600160a01b0316336001600160a01b031614156102c4576102bd610414565b90506102cc565b6102cc610191565b90565b6102d761045d565b6001600160a01b0316336001600160a01b031614156101da576001600160a01b0381166103355760405162461bcd60e51b815260040180806020018281038252603a815260200180610555603a913960400191505060405180910390fd5b7f7e644d79422f17c01e4894b5f4f588d331ebfa28653d42ae832dc59e38c9798f61035e61045d565b604080516001600160a01b03928316815291841660208301528051918290030190a16101d5816104c2565b600061039361045d565b6001600160a01b0316336001600160a01b031614156102c4576102bd61045d565b6103bc61045d565b6001600160a01b0316336001600160a01b0316141561040c5760405162461bcd60e51b81526004018080602001828103825260428152602001806105c56042913960600191505060405180910390fd5b6101a96101a9565b7f360894a13ba1a3210667c828492db98dca3e2076cc3735a920a3ca505d382bbc5490565b3660008037600080366000845af43d6000803e808015610458573d6000f35b3d6000fd5b7fb53127684a568b3173ae13b9f8a6016e243e63b6e8ee1178d6a717850b5d61035490565b61048b816104e6565b6040516001600160a01b038216907fbc7cd75a20ee27fd9adebab32041f755214dbc6bffa90cc0225b39da2e5c2d3b90600090a250565b7fb53127684a568b3173ae13b9f8a6016e243e63b6e8ee1178d6a717850b5d610355565b6104ef8161054e565b61052a5760405162461bcd60e51b815260040180806020018281038252603681526020018061058f6036913960400191505060405180910390fd5b7f360894a13ba1a3210667c828492db98dca3e2076cc3735a920a3ca505d382bbc55565b3b15159056fe5472616e73706172656e745570677261646561626c6550726f78793a206e65772061646d696e20697320746865207a65726f20616464726573735570677261646561626c6550726f78793a206e657720696d706c656d656e746174696f6e206973206e6f74206120636f6e74726163745472616e73706172656e745570677261646561626c6550726f78793a2061646d696e2063616e6e6f742066616c6c6261636b20746f2070726f787920746172676574a264697066735822122092e3bb8bbf7e2668901e21fcf9d01f3de9567d8cc16aad75cdfb06bfd67016ef64736f6c63430006020033b53127684a568b3173ae13b9f8a6016e243e63b6e8ee1178d6a717850b5d6103360894a13ba1a3210667c828492db98dca3e2076cc3735a920a3ca505d382bbc5570677261646561626c6550726f78793a206e657720696d706c656d656e746174696f6e206973206e6f74206120636f6e7472616374608060405234801561001057600080fd5b506119ba806100206000396000f3fe608060405234801561001057600080fd5b50600436106100ea5760003560e01c80635b999a381161008c578063a023cf6911610066578063a023cf69146103cb578063c0c53b8b146103d3578063c73e835c1461040b578063f2fde38b14610479576100ea565b80635b999a38146103a1578063715018a6146103bb5780638da5cb5b146103c3576100ea565b80631692f21f116100c85780631692f21f146102b65780631d6d32ba146103745780631d8e2f581461037c578063209df0fa14610384576100ea565b80630cc78476146100ef578063149adf5814610113578063164f25bf146101f6575b600080fd5b6100f761049f565b604080516001600160a01b039092168252519081900360200190f35b6101816004803603602081101561012957600080fd5b810190602081018135600160201b81111561014357600080fd5b82018360208201111561015557600080fd5b803590602001918460018302840111600160201b8311171561017657600080fd5b5090925090506104ae565b6040805160208082528351818301528351919283929083019185019080838360005b838110156101bb5781810151838201526020016101a3565b50505050905090810190601f1680156101e85780820380516001836020036101000a031916815260200191505b509250505060405180910390f35b6102b46004803603604081101561020c57600080fd5b810190602081018135600160201b81111561022657600080fd5b82018360208201111561023857600080fd5b803590602001918460018302840111600160201b8311171561025957600080fd5b919390929091602081019035600160201b81111561027657600080fd5b82018360208201111561028857600080fd5b803590602001918460018302840111600160201b831117156102a957600080fd5b509092509050610618565b005b6102b4600480360360408110156102cc57600080fd5b810190602081018135600160201b8111156102e657600080fd5b8201836020820111156102f857600080fd5b803590602001918460018302840111600160201b8311171561031957600080fd5b919390929091602081019035600160201b81111561033657600080fd5b82018360208201111561034857600080fd5b803590602001918460018302840111600160201b8311171561036957600080fd5b509092509050610a89565b610181610dd7565b6100f7610f0c565b6102b46004803603602081101561039a57600080fd5b5035610f1b565b6103a9611097565b60408051918252519081900360200190f35b6102b461110d565b6100f76111af565b6103a96111be565b6102b4600480360360608110156103e957600080fd5b506001600160a01b0381358116916020810135821691604090910135166111c4565b6102b46004803603602081101561042157600080fd5b810190602081018135600160201b81111561043b57600080fd5b82018360208201111561044d57600080fd5b803590602001918460018302840111600160201b8311171561046e57600080fd5b509092509050611300565b6102b46004803603602081101561048f57600080fd5b50356001600160a01b03166115c2565b6067546001600160a01b031681565b6066546040516302935beb60e31b8152602060048201908152602482018490526060926001600160a01b03169163149adf589186918691908190604401848480828437600081840152601f19601f820116905080830192505050935050505060006040518083038186803b15801561052557600080fd5b505afa158015610539573d6000803e3d6000fd5b505050506040513d6000823e601f3d908101601f19168201604052602081101561056257600080fd5b8101908080516040519392919084600160201b82111561058157600080fd5b90830190602082018581111561059657600080fd5b8251600160201b8111828201881017156105af57600080fd5b82525081516020918201929091019080838360005b838110156105dc5781810151838201526020016105c4565b50505050905090810190601f1680156106095780820380516001836020036101000a031916815260200191505b50604052505050905092915050565b6106206116bb565b6033546001600160a01b03908116911614610670576040805162461bcd60e51b81526020600482018190526024820152600080516020611965833981519152604482015290519081900360640190fd5b6066546040805163164f25bf60e01b815260048101918252604481018690526001600160a01b039092169163164f25bf9187918791879187919081906024810190606401878780828437600083820152601f01601f191690910184810383528581526020019050858580828437600081840152601f19601f8201169050808301925050509650505050505050600060405180830381600087803b15801561071657600080fd5b505af115801561072a573d6000803e3d6000fd5b5050606654604051630c822d7f60e41b815260206004820190815260248201889052600094506001600160a01b03909216925063c822d7f0918891889190819060440184848082843760008382015260408051601f909201601f1916909301965091945090925050508083038186803b1580156107a657600080fd5b505afa1580156107ba573d6000803e3d6000fd5b505050506040513d60408110156107d057600080fd5b505190506001811515146107e057fe5b606085858080601f016020809104026020016040519081016040528093929190818152602001838380828437600092019190915250506066546040516302935beb60e31b8152602060048201908152602482018b90529495506060946001600160a01b03909216935063149adf5892508a918a918190604401848480828437600081840152601f19601f820116905080830192505050935050505060006040518083038186803b15801561089357600080fd5b505afa1580156108a7573d6000803e3d6000fd5b505050506040513d6000823e601f3d908101601f1916820160405260208110156108d057600080fd5b8101908080516040519392919084600160201b8211156108ef57600080fd5b90830190602082018581111561090457600080fd5b8251600160201b81118282018810171561091d57600080fd5b82525081516020918201929091019080838360005b8381101561094a578181015183820152602001610932565b50505050905090810190601f1680156109775780820380516001836020036101000a031916815260200191505b5060405250505090507fc37bb6160ff34dd9db7b491c89af3a2b774a1896e2403831c879dac0710dfc728282604051808060200180602001838103835285818151815260200191508051906020019080838360005b838110156109e45781810151838201526020016109cc565b50505050905090810190601f168015610a115780820380516001836020036101000a031916815260200191505b50838103825284518152845160209182019186019080838360005b83811015610a44578181015183820152602001610a2c565b50505050905090810190601f168015610a715780820380516001836020036101000a031916815260200191505b5094505050505060405180910390a150505050505050565b610a916116bb565b6033546001600160a01b03908116911614610ae1576040805162461bcd60e51b81526020600482018190526024820152600080516020611965833981519152604482015290519081900360640190fd5b60665460408051631692f21f60e01b815260048101918252604481018690526001600160a01b0390921691631692f21f9187918791879187919081906024810190606401878780828437600083820152601f01601f191690910184810383528581526020019050858580828437600081840152601f19601f8201169050808301925050509650505050505050600060405180830381600087803b158015610b8757600080fd5b505af1158015610b9b573d6000803e3d6000fd5b50506066546040516302935beb60e31b815260206004820190815260248201889052606094506001600160a01b03909216925063149adf589188918891908190604401848480828437600081840152601f19601f820116905080830192505050935050505060006040518083038186803b158015610c1857600080fd5b505afa158015610c2c573d6000803e3d6000fd5b505050506040513d6000823e601f3d908101601f191682016040526020811015610c5557600080fd5b8101908080516040519392919084600160201b821115610c7457600080fd5b908301906020820185811115610c8957600080fd5b8251600160201b811182820188101715610ca257600080fd5b82525081516020918201929091019080838360005b83811015610ccf578181015183820152602001610cb7565b50505050905090810190601f168015610cfc5780820380516001836020036101000a031916815260200191505b5060405250505090507fff4960b4a54429205a8c3dc005334a3daabb0f3ad515ef46123f74e079abfc1a85858360405180806020018060200183810383528686828181526020019250808284376000838201819052601f909101601f191690920185810384528651815286516020918201939188019250908190849084905b83811015610d93578181015183820152602001610d7b565b50505050905090810190601f168015610dc05780820380516001836020036101000a031916815260200191505b509550505050505060405180910390a15050505050565b60665460408051630eb6995d60e11b815290516060926001600160a01b031691631d6d32ba916004808301926000929190829003018186803b158015610e1c57600080fd5b505afa158015610e30573d6000803e3d6000fd5b505050506040513d6000823e601f3d908101601f191682016040526020811015610e5957600080fd5b8101908080516040519392919084600160201b821115610e7857600080fd5b908301906020820185811115610e8d57600080fd5b8251600160201b811182820188101715610ea657600080fd5b82525081516020918201929091019080838360005b83811015610ed3578181015183820152602001610ebb565b50505050905090810190601f168015610f005780820380516001836020036101000a031916815260200191505b50604052505050905090565b6069546001600160a01b031681565b610f236116bb565b6033546001600160a01b03908116911614610f73576040805162461bcd60e51b81526020600482018190526024820152600080516020611965833981519152604482015290519081900360640190fd5b6068546040805163104ef87d60e11b81526004810184905290516001600160a01b039092169163209df0fa916024808201926020929091908290030181600087803b158015610fc157600080fd5b505af1158015610fd5573d6000803e3d6000fd5b505050506040513d6020811015610feb57600080fd5b50506068546040805163a023cf6960e01b815290516001600160a01b039092169163a023cf6991600480820192602092909190829003018186803b15801561103257600080fd5b505afa158015611046573d6000803e3d6000fd5b505050506040513d602081101561105c57600080fd5b5051606a556040805182815290517f59b026b47a87053c766311bcf7903ea569f503b02471704897eac772fa03eacd9181900360200190a150565b6068546040805163a023cf6960e01b815290516000926001600160a01b03169163a023cf69916004808301926020929190829003018186803b1580156110dc57600080fd5b505afa1580156110f0573d6000803e3d6000fd5b505050506040513d602081101561110657600080fd5b5051905090565b6111156116bb565b6033546001600160a01b03908116911614611165576040805162461bcd60e51b81526020600482018190526024820152600080516020611965833981519152604482015290519081900360640190fd5b6033546040516000916001600160a01b0316907f8be0079c531659141344cd1fd0a4f28419497f9722a3daafe3b4186f6b6457e0908390a3603380546001600160a01b0319169055565b6033546001600160a01b031690565b606a5481565b600054610100900460ff16806111dd57506111dd6116bf565b806111eb575060005460ff16155b6112265760405162461bcd60e51b815260040180806020018281038252602e815260200180611937602e913960400191505060405180910390fd5b600054610100900460ff16158015611251576000805460ff1961ff0019909116610100171660011790555b6112596116c5565b611262826115c2565b606780546001600160a01b038087166001600160a01b031992831681179384905560668054841694831694909417909355606980549187169183168217905560688054909216811790915560408051928352602083019190915280517fdcdd2e9fad0d6d7ee3a5ecdc777668645858146ee4b8f33ee0edf553aef4983c9281900390910190a180156112fa576000805461ff00191690555b50505050565b6113086116bb565b6033546001600160a01b03908116911614611358576040805162461bcd60e51b81526020600482018190526024820152600080516020611965833981519152604482015290519081900360640190fd5b606654604051633ecf991160e21b8152602060048201908152602482018490526001600160a01b039092169163fb3e644491859185918190604401848480828437600081840152601f19601f8201169050808301925050509350505050600060405180830381600087803b1580156113cf57600080fd5b505af11580156113e3573d6000803e3d6000fd5b505050506060606660009054906101000a90046001600160a01b03166001600160a01b0316631d6d32ba6040518163ffffffff1660e01b815260040160006040518083038186803b15801561143757600080fd5b505afa15801561144b573d6000803e3d6000fd5b505050506040513d6000823e601f3d908101601f19168201604052602081101561147457600080fd5b8101908080516040519392919084600160201b82111561149357600080fd5b9083019060208201858111156114a857600080fd5b8251600160201b8111828201881017156114c157600080fd5b82525081516020918201929091019080838360005b838110156114ee5781810151838201526020016114d6565b50505050905090810190601f16801561151b5780820380516001836020036101000a031916815260200191505b5060405250505090507fe6a3d4ec4f69ac853579fb0336181042ec4d0a21b32de1a92b6dd6a2f904f5a0816040518080602001828103825283818151815260200191508051906020019080838360005b8381101561158357818101518382015260200161156b565b50505050905090810190601f1680156115b05780820380516001836020036101000a031916815260200191505b509250505060405180910390a1505050565b6115ca6116bb565b6033546001600160a01b0390811691161461161a576040805162461bcd60e51b81526020600482018190526024820152600080516020611965833981519152604482015290519081900360640190fd5b6001600160a01b03811661165f5760405162461bcd60e51b81526004018080602001828103825260268152602001806119116026913960400191505060405180910390fd5b6033546040516001600160a01b038084169216907f8be0079c531659141344cd1fd0a4f28419497f9722a3daafe3b4186f6b6457e090600090a3603380546001600160a01b0319166001600160a01b0392909216919091179055565b3390565b303b1590565b600054610100900460ff16806116de57506116de6116bf565b806116ec575060005460ff16155b6117275760405162461bcd60e51b815260040180806020018281038252602e815260200180611937602e913960400191505060405180910390fd5b600054610100900460ff16158015611752576000805460ff1961ff0019909116610100171660011790555b61175a611777565b611762611817565b8015611774576000805461ff00191690555b50565b600054610100900460ff168061179057506117906116bf565b8061179e575060005460ff16155b6117d95760405162461bcd60e51b815260040180806020018281038252602e815260200180611937602e913960400191505060405180910390fd5b600054610100900460ff16158015611762576000805460ff1961ff0019909116610100171660011790558015611774576000805461ff001916905550565b600054610100900460ff168061183057506118306116bf565b8061183e575060005460ff16155b6118795760405162461bcd60e51b815260040180806020018281038252602e815260200180611937602e913960400191505060405180910390fd5b600054610100900460ff161580156118a4576000805460ff1961ff0019909116610100171660011790555b60006118ae6116bb565b603380546001600160a01b0319166001600160a01b038316908117909155604051919250906000907f8be0079c531659141344cd1fd0a4f28419497f9722a3daafe3b4186f6b6457e0908290a3508015611774576000805461ff00191690555056fe4f776e61626c653a206e6577206f776e657220697320746865207a65726f2061646472657373496e697469616c697a61626c653a20636f6e747261637420697320616c726561647920696e697469616c697a65644f776e61626c653a2063616c6c6572206973206e6f7420746865206f776e6572a264697066735822122054901720157198cc43930bcc5cfca1225a5edf17d48f1d36e224a5217a1f7d6a64736f6c63430006020033a2646970667358221220edc6f55b89a7ee0e88e1f9a11d07cba5cac73a00dceff2941dbf384364ea48b364736f6c63430006020033",
  "source": "pragma solidity 0.6.2;\n\n/**\n * @title Registrar\n * @dev Create and interact with Registries.\n*/\n\nimport '../Registry/Registry.sol';\nimport '../RegistryToken/RegistryToken.sol';\nimport '../RegistryController/RegistryController.sol';\nimport \"../../node_modules/@openzeppelin/contracts-upgradeable/math/SafeMathUpgradeable.sol\";\nimport \"../../node_modules/@openzeppelin/contracts/proxy/TransparentUpgradeableProxy.sol\";\n\ncontract Registrar { \n    using SafeMathUpgradeable for uint256;\n\n    struct RegistrarEntry {\n        address controller;\n        string domain;\n        string registryType;\n    }\n\n    Registry private registryLogic;\n    TransparentUpgradeableProxy private registryProxy;\n    Registry private registryProxyInstance;\n\n    RegistryToken private registryTokenProxy;\n    \n    RegistryController private registryControllerLogic;\n    TransparentUpgradeableProxy private registryControllerProxy;\n\n    mapping (string => RegistrarEntry) private registryMap;\n    address[] public registrar;\n\n    /// @notice Emitted when a new Registry is added to the Registrar.\n    event RegistryCreated(string _domain, string _ref, string _registryType, uint256 _stakePrice, address _registryTokenProxy, address _registryProxy, address _registryControllerProxy);\n\n    /**\n     * @notice Creates a new Registry and associated Entry in the Registrar.\n     * @param _domain The primary name used to represent a particular Registry. \n     * @param _ref The primary reference that a Registry links to. This can be any type of content and is typically used to reference an index or url.\n     * @param _registryType The Registry's Type. Registry Types are defined globally at the Registrar and used to categorize Registries.\n     * @param _stakePrice The amount of Infinity Token required to register a new Entry in the Registry. \n     * @param _registryTokenProxyAddress The address of the Registry's Token. Registry Tokens are issued upon staking Infinity Token to transfer the ownership of a Registry Entry.\n     */\n\n    function createRegistry (\n        string memory _domain,\n        string memory _ref,\n        string memory _registryType,\n        uint256 _stakePrice,\n        address _owner,\n        address payable _registryTokenProxyAddress)\n        public\n    {\n        registryTokenProxy = RegistryToken(_registryTokenProxyAddress);\n\n        registryLogic = new Registry();\n        bytes memory registryData = abi.encodeWithSignature(\"initialize(string,string,string,address)\",_domain,_ref,_registryType,address(registryTokenProxy));\n        registryProxy = new TransparentUpgradeableProxy(\n            address(registryLogic),\n            msg.sender,\n            registryData\n        );\n\n        registryControllerLogic = new RegistryController();\n        bytes memory controllerData = abi.encodeWithSignature(\"initialize(address,address,address)\",address(registryProxy),address(registryTokenProxy),_owner);\n        registryControllerProxy = new TransparentUpgradeableProxy(\n            address(registryControllerLogic),\n            msg.sender,\n            controllerData\n        );\n\n        registryProxyInstance = Registry(address(registryProxy));\n        registryProxyInstance.transferOwnership(address(registryControllerProxy));\n        \n        registryMap[_domain].controller = address(registryControllerProxy);\n        registryMap[_domain].domain = _domain;\n        registryMap[_domain].registryType = _registryType;\n\n        registrar.push(registryMap[_domain].controller);\n\n        emit RegistryCreated( _domain, _ref, _registryType, _stakePrice, address(registryTokenProxy), address(registryProxy), address(registryControllerProxy));\n    }\n\n    function getRegistryOwner() external view returns(address) {\n        return registryProxyInstance.owner();\n    }\n\n    /**\n     * @notice Returns the the number of Registries in the Registrar as an interger. \n     */\n\n    function getRegistrarLength() public view returns (uint256) {\n        return registrar.length;\n    }\n\n    /**\n     * @notice Returns the address of a Registry Controller by providing its domain as a string.\n     * @param _domain The primary name used to represent a particular Registry. \n     */\n\n    function getRegistryController(string memory _domain) public view returns (address) {\n        return registryMap[_domain].controller;\n    }\n\n    /**\n     * @notice Returns the Type of a Registry by providing its domain as a string.\n     * @param _domain The primary name used to represent a particular Registry. \n     */\n\n    function getRegistryType(string memory _domain) public view returns (string memory) {\n        return registryMap[_domain].registryType;\n    }\n\n    function getTransparentProxyAdmin(address payable _transparentProxyAddress) public returns (address) {\n        TransparentUpgradeableProxy transparentProxy;\n        transparentProxy = TransparentUpgradeableProxy(_transparentProxyAddress);\n        return transparentProxy.admin();\n    }\n}",
  "sourcePath": "/Users/neo/Code/ZNS/contracts/Registrar/Registrar.sol",
  "compiler": {
    "name": "solc",
    "version": "0.6.2+commit.bacdbe57.Emscripten.clang"
  },
  "schemaVersion": "3.2.3",
  "updatedAt": "2020-12-05T00:07:10.048Z",
  "networkType": "ethereum",
  "devdoc": {
    "methods": {
      "createRegistry(string,string,string,uint256,address,address)": {
        "params": {
          "_domain": "The primary name used to represent a particular Registry. ",
          "_ref": "The primary reference that a Registry links to. This can be any type of content and is typically used to reference an index or url.",
          "_registryTokenProxyAddress": "The address of the Registry's Token. Registry Tokens are issued upon staking Infinity Token to transfer the ownership of a Registry Entry.",
          "_registryType": "The Registry's Type. Registry Types are defined globally at the Registrar and used to categorize Registries.",
          "_stakePrice": "The amount of Infinity Token required to register a new Entry in the Registry. "
        }
      },
      "getRegistryController(string)": {
        "params": {
          "_domain": "The primary name used to represent a particular Registry. "
        }
      },
      "getRegistryType(string)": {
        "params": {
          "_domain": "The primary name used to represent a particular Registry. "
        }
      }
    }
  },
  "userdoc": {
    "methods": {
      "createRegistry(string,string,string,uint256,address,address)": {
        "notice": "Creates a new Registry and associated Entry in the Registrar."
      },
      "getRegistrarLength()": {
        "notice": "Returns the the number of Registries in the Registrar as an interger. "
      },
      "getRegistryController(string)": {
        "notice": "Returns the address of a Registry Controller by providing its domain as a string."
      },
      "getRegistryType(string)": {
        "notice": "Returns the Type of a Registry by providing its domain as a string."
      }
    }
  }
}