{
  "contractName": "Registry",
  "abi": [
    {
      "inputs": [],
      "payable": false,
      "stateMutability": "nonpayable",
      "type": "constructor"
    },
    {
      "constant": false,
      "inputs": [
        {
          "name": "_registryName",
          "type": "string"
        },
        {
          "name": "_registryType",
          "type": "string"
        }
      ],
      "name": "init",
      "outputs": [],
      "payable": false,
      "stateMutability": "nonpayable",
      "type": "function"
    },
    {
      "constant": true,
      "inputs": [],
      "name": "getAddress",
      "outputs": [
        {
          "name": "",
          "type": "address"
        }
      ],
      "payable": false,
      "stateMutability": "view",
      "type": "function"
    }
  ],
  "bytecode": "0x608060405234801561001057600080fd5b506102e7806100206000396000f3fe608060405234801561001057600080fd5b50600436106100365760003560e01c806338cc48311461003b5780637029144c14610085575b600080fd5b6100436101d7565b604051808273ffffffffffffffffffffffffffffffffffffffff1673ffffffffffffffffffffffffffffffffffffffff16815260200191505060405180910390f35b6101d56004803603604081101561009b57600080fd5b81019080803590602001906401000000008111156100b857600080fd5b8201836020820111156100ca57600080fd5b803590602001918460018302840111640100000000831117156100ec57600080fd5b91908080601f016020809104026020016040519081016040528093929190818152602001838380828437600081840152601f19601f8201169050808301925050505050505091929192908035906020019064010000000081111561014f57600080fd5b82018360208201111561016157600080fd5b8035906020019184600183028401116401000000008311171561018357600080fd5b91908080601f016020809104026020016040519081016040528093929190818152602001838380828437600081840152601f19601f8201169050808301925050505050505091929192905050506101e4565b005b6000803090508091505090565b81600090805190602001906101fa929190610216565b508060019080519060200190610211929190610216565b505050565b828054600181600116156101000203166002900490600052602060002090601f016020900481019282601f1061025757805160ff1916838001178555610285565b82800160010185558215610285579182015b82811115610284578251825591602001919060010190610269565b5b5090506102929190610296565b5090565b6102b891905b808211156102b457600081600090555060010161029c565b5090565b9056fea165627a7a72305820db0e28aa9e1d32309dc1f0171ede0a92d53ab248df3c2df3b2ef56e8d2421a370029",
  "source": "pragma solidity >=0.4.22 <0.7.0;\n\n/**\n * @title Registry\n * @dev Manage individual Registry Entries\n*/\n\ncontract Registry {\n    string registryName;\n    string registryType;\n\n    constructor() public {}\n\n    function init(string memory _registryName, string memory _registryType) public {\n        registryName = _registryName;\n        registryType = _registryType;\n    }\n\n    function getAddress() public view returns (address) {  \n       address contractAddress = address(this);\n       return contractAddress;\n    }\n}",
  "sourcePath": "/Users/neo/Code/ZNS/contracts/Registry.sol",
  "compiler": {
    "name": "solc",
    "version": "0.5.8+commit.23d335f2.Emscripten.clang"
  },
  "schemaVersion": "3.0.16",
  "updatedAt": "2020-08-23T10:04:44.028Z",
  "devdoc": {
    "details": "Manage individual Registry Entries",
    "methods": {},
    "title": "Registry"
  },
  "userdoc": {
    "methods": {}
  }
}