{
  "contractName": "Registry",
  "abi": [
    {
      "anonymous": false,
      "inputs": [
        {
          "indexed": false,
          "internalType": "string",
          "name": "subdomain",
          "type": "string"
        },
        {
          "indexed": false,
          "internalType": "string",
          "name": "ref",
          "type": "string"
        }
      ],
      "name": "RegistryEntryAdded",
      "type": "event"
    },
    {
      "inputs": [],
      "name": "registryTokenAddress",
      "outputs": [
        {
          "internalType": "address payable",
          "name": "",
          "type": "address"
        }
      ],
      "stateMutability": "view",
      "type": "function"
    },
    {
      "inputs": [
        {
          "internalType": "string",
          "name": "_domain",
          "type": "string"
        },
        {
          "internalType": "string",
          "name": "_ref",
          "type": "string"
        },
        {
          "internalType": "string",
          "name": "_registryType",
          "type": "string"
        },
        {
          "internalType": "address payable",
          "name": "_registryToken",
          "type": "address"
        }
      ],
      "name": "init",
      "outputs": [
        {
          "internalType": "string",
          "name": "",
          "type": "string"
        },
        {
          "internalType": "string",
          "name": "",
          "type": "string"
        }
      ],
      "stateMutability": "nonpayable",
      "type": "function"
    },
    {
      "inputs": [],
      "name": "getRegistry",
      "outputs": [
        {
          "internalType": "string",
          "name": "",
          "type": "string"
        },
        {
          "internalType": "string",
          "name": "",
          "type": "string"
        },
        {
          "internalType": "string",
          "name": "",
          "type": "string"
        },
        {
          "internalType": "address",
          "name": "",
          "type": "address"
        }
      ],
      "stateMutability": "view",
      "type": "function"
    },
    {
      "inputs": [],
      "name": "getAddress",
      "outputs": [
        {
          "internalType": "address",
          "name": "",
          "type": "address"
        }
      ],
      "stateMutability": "view",
      "type": "function"
    },
    {
      "inputs": [],
      "name": "getRef",
      "outputs": [
        {
          "internalType": "string",
          "name": "",
          "type": "string"
        }
      ],
      "stateMutability": "view",
      "type": "function"
    },
    {
      "inputs": [
        {
          "internalType": "string",
          "name": "_subdomain",
          "type": "string"
        },
        {
          "internalType": "string",
          "name": "_ref",
          "type": "string"
        }
      ],
      "name": "createRegistryEntry",
      "outputs": [],
      "stateMutability": "nonpayable",
      "type": "function"
    },
    {
      "inputs": [
        {
          "internalType": "string",
          "name": "_subdomain",
          "type": "string"
        }
      ],
      "name": "getRegistryEntryRef",
      "outputs": [
        {
          "internalType": "string",
          "name": "",
          "type": "string"
        }
      ],
      "stateMutability": "view",
      "type": "function"
    },
    {
      "inputs": [
        {
          "internalType": "string",
          "name": "_subdomain",
          "type": "string"
        }
      ],
      "name": "isRegistered",
      "outputs": [
        {
          "internalType": "bool",
          "name": "",
          "type": "bool"
        },
        {
          "internalType": "uint256",
          "name": "",
          "type": "uint256"
        }
      ],
      "stateMutability": "view",
      "type": "function"
    },
    {
      "inputs": [
        {
          "internalType": "string",
          "name": "_newRef",
          "type": "string"
        }
      ],
      "name": "setRegistryRef",
      "outputs": [],
      "stateMutability": "nonpayable",
      "type": "function"
    },
    {
      "inputs": [
        {
          "internalType": "string",
          "name": "_subdomain",
          "type": "string"
        },
        {
          "internalType": "string",
          "name": "_newRef",
          "type": "string"
        }
      ],
      "name": "setRegistryEntryRef",
      "outputs": [],
      "stateMutability": "nonpayable",
      "type": "function"
    }
  ],
  "bytecode": "0x608060405230600560006101000a81548173ffffffffffffffffffffffffffffffffffffffff021916908373ffffffffffffffffffffffffffffffffffffffff16021790555034801561005157600080fd5b506114b1806100616000396000f3fe608060405234801561001057600080fd5b506004361061009d5760003560e01c80631d8e2f58116100665780631d8e2f58146107eb57806338cc4831146108355780635ab1bd531461087f578063c822d7f014610a0d578063fb3e644414610ae75761009d565b8062b5ec6b146100a2578063149adf5814610390578063164f25bf146104c45780631692f21f146106165780631d6d32ba14610768575b600080fd5b6102a9600480360360808110156100b857600080fd5b81019080803590602001906401000000008111156100d557600080fd5b8201836020820111156100e757600080fd5b8035906020019184600183028401116401000000008311171561010957600080fd5b91908080601f016020809104026020016040519081016040528093929190818152602001838380828437600081840152601f19601f8201169050808301925050505050505091929192908035906020019064010000000081111561016c57600080fd5b82018360208201111561017e57600080fd5b803590602001918460018302840111640100000000831117156101a057600080fd5b91908080601f016020809104026020016040519081016040528093929190818152602001838380828437600081840152601f19601f8201169050808301925050505050505091929192908035906020019064010000000081111561020357600080fd5b82018360208201111561021557600080fd5b8035906020019184600183028401116401000000008311171561023757600080fd5b91908080601f016020809104026020016040519081016040528093929190818152602001838380828437600081840152601f19601f820116905080830192505050505050509192919290803573ffffffffffffffffffffffffffffffffffffffff169060200190929190505050610ba2565b604051808060200180602001838103835285818151815260200191508051906020019080838360005b838110156102ed5780820151818401526020810190506102d2565b50505050905090810190601f16801561031a5780820380516001836020036101000a031916815260200191505b50838103825284818151815260200191508051906020019080838360005b83811015610353578082015181840152602081019050610338565b50505050905090810190601f1680156103805780820380516001836020036101000a031916815260200191505b5094505050505060405180910390f35b610449600480360360208110156103a657600080fd5b81019080803590602001906401000000008111156103c357600080fd5b8201836020820111156103d557600080fd5b803590602001918460018302840111640100000000831117156103f757600080fd5b91908080601f016020809104026020016040519081016040528093929190818152602001838380828437600081840152601f19601f820116905080830192505050505050509192919290505050610bf3565b6040518080602001828103825283818151815260200191508051906020019080838360005b8381101561048957808201518184015260208101905061046e565b50505050905090810190601f1680156104b65780820380516001836020036101000a031916815260200191505b509250505060405180910390f35b610614600480360360408110156104da57600080fd5b81019080803590602001906401000000008111156104f757600080fd5b82018360208201111561050957600080fd5b8035906020019184600183028401116401000000008311171561052b57600080fd5b91908080601f016020809104026020016040519081016040528093929190818152602001838380828437600081840152601f19601f8201169050808301925050505050505091929192908035906020019064010000000081111561058e57600080fd5b8201836020820111156105a057600080fd5b803590602001918460018302840111640100000000831117156105c257600080fd5b91908080601f016020809104026020016040519081016040528093929190818152602001838380828437600081840152601f19601f820116905080830192505050505050509192919290505050610d01565b005b6107666004803603604081101561062c57600080fd5b810190808035906020019064010000000081111561064957600080fd5b82018360208201111561065b57600080fd5b8035906020019184600183028401116401000000008311171561067d57600080fd5b91908080601f016020809104026020016040519081016040528093929190818152602001838380828437600081840152601f19601f820116905080830192505050505050509192919290803590602001906401000000008111156106e057600080fd5b8201836020820111156106f257600080fd5b8035906020019184600183028401116401000000008311171561071457600080fd5b91908080601f016020809104026020016040519081016040528093929190818152602001838380828437600081840152601f19601f820116905080830192505050505050509192919290505050610f65565b005b610770610fea565b6040518080602001828103825283818151815260200191508051906020019080838360005b838110156107b0578082015181840152602081019050610795565b50505050905090810190601f1680156107dd5780820380516001836020036101000a031916815260200191505b509250505060405180910390f35b6107f361108c565b604051808273ffffffffffffffffffffffffffffffffffffffff1673ffffffffffffffffffffffffffffffffffffffff16815260200191505060405180910390f35b61083d6110b2565b604051808273ffffffffffffffffffffffffffffffffffffffff1673ffffffffffffffffffffffffffffffffffffffff16815260200191505060405180910390f35b6108876110dc565b604051808060200180602001806020018573ffffffffffffffffffffffffffffffffffffffff1673ffffffffffffffffffffffffffffffffffffffff168152602001848103845288818151815260200191508051906020019080838360005b838110156109015780820151818401526020810190506108e6565b50505050905090810190601f16801561092e5780820380516001836020036101000a031916815260200191505b50848103835287818151815260200191508051906020019080838360005b8381101561096757808201518184015260208101905061094c565b50505050905090810190601f1680156109945780820380516001836020036101000a031916815260200191505b50848103825286818151815260200191508051906020019080838360005b838110156109cd5780820151818401526020810190506109b2565b50505050905090810190601f1680156109fa5780820380516001836020036101000a031916815260200191505b5097505050505050505060405180910390f35b610ac660048036036020811015610a2357600080fd5b8101908080359060200190640100000000811115610a4057600080fd5b820183602082011115610a5257600080fd5b80359060200191846001830284011164010000000083111715610a7457600080fd5b91908080601f016020809104026020016040519081016040528093929190818152602001838380828437600081840152601f19601f8201169050808301925050505050505091929192905050506112f0565b60405180831515151581526020018281526020019250505060405180910390f35b610ba060048036036020811015610afd57600080fd5b8101908080359060200190640100000000811115610b1a57600080fd5b820183602082011115610b2c57600080fd5b80359060200191846001830284011164010000000083111715610b4e57600080fd5b91908080601f016020809104026020016040519081016040528093929190818152602001838380828437600081840152601f19601f8201169050808301925050505050505091929192905050506113bc565b005b6060808560009080519060200190610bbb9291906113d6565b508460019080519060200190610bd29291906113d6565b508360029080519060200190610be99291906113d6565b5094509492505050565b60606006826040518082805190602001908083835b60208310610c2b5780518252602082019150602081019050602083039250610c08565b6001836020036101000a03801982511681845116808217855250505050505090500191505090815260200160405180910390206000018054600181600116156101000203166002900480601f016020809104026020016040519081016040528092919081815260200182805460018160011615610100020316600290048015610cf55780601f10610cca57610100808354040283529160200191610cf5565b820191906000526020600020905b815481529060010190602001808311610cd857829003601f168201915b50505050509050919050565b6000610d0c836112f0565b50905080610f6057816006846040518082805190602001908083835b60208310610d4b5780518252602082019150602081019050602083039250610d28565b6001836020036101000a03801982511681845116808217855250505050505090500191505090815260200160405180910390206000019080519060200190610d949291906113d6565b5060006006846040518082805190602001908083835b60208310610dcd5780518252602082019150602081019050602083039250610daa565b6001836020036101000a038019825116818451168082178552505050505050905001915050908152602001604051809103902060010160006101000a81548160ff021916908315150217905550600783908060018154018082558091505060019003906000526020600020016000909190919091509080519060200190610e559291906113d6565b507f41c4f392f71202c78d308fbc45ab94e8f063f44378221db67025f82f6322e3768383604051808060200180602001838103835285818151815260200191508051906020019080838360005b83811015610ebd578082015181840152602081019050610ea2565b50505050905090810190601f168015610eea5780820380516001836020036101000a031916815260200191505b50838103825284818151815260200191508051906020019080838360005b83811015610f23578082015181840152602081019050610f08565b50505050905090810190601f168015610f505780820380516001836020036101000a031916815260200191505b5094505050505060405180910390a15b505050565b806006836040518082805190602001908083835b60208310610f9c5780518252602082019150602081019050602083039250610f79565b6001836020036101000a03801982511681845116808217855250505050505090500191505090815260200160405180910390206000019080519060200190610fe59291906113d6565b505050565b606060018054600181600116156101000203166002900480601f0160208091040260200160405190810160405280929190818152602001828054600181600116156101000203166002900480156110825780601f1061105757610100808354040283529160200191611082565b820191906000526020600020905b81548152906001019060200180831161106557829003601f168201915b5050505050905090565b600360009054906101000a900473ffffffffffffffffffffffffffffffffffffffff1681565b6000600560009054906101000a900473ffffffffffffffffffffffffffffffffffffffff16905090565b606080606060008060016002600360009054906101000a900473ffffffffffffffffffffffffffffffffffffffff16838054600181600116156101000203166002900480601f0160208091040260200160405190810160405280929190818152602001828054600181600116156101000203166002900480156111a05780601f10611175576101008083540402835291602001916111a0565b820191906000526020600020905b81548152906001019060200180831161118357829003601f168201915b50505050509350828054600181600116156101000203166002900480601f01602080910402602001604051908101604052809291908181526020018280546001816001161561010002031660029004801561123c5780601f106112115761010080835404028352916020019161123c565b820191906000526020600020905b81548152906001019060200180831161121f57829003601f168201915b50505050509250818054600181600116156101000203166002900480601f0160208091040260200160405190810160405280929190818152602001828054600181600116156101000203166002900480156112d85780601f106112ad576101008083540402835291602001916112d8565b820191906000526020600020905b8154815290600101906020018083116112bb57829003601f168201915b50505050509150809050935093509350935090919293565b60008060008090505b6007805490508110156113ab576007818154811061131357fe5b9060005260206000200160405180828054600181600116156101000203166002900480156113785780601f10611356576101008083540402835291820191611378565b820191906000526020600020905b815481529060010190602001808311611364575b50509150506040518091039020848051906020012014156113a05760018192509250506113b7565b6001810190506112f9565b50600080809050915091505b915091565b80600190805190602001906113d29291906113d6565b5050565b828054600181600116156101000203166002900490600052602060002090601f016020900481019282601f1061141757805160ff1916838001178555611445565b82800160010185558215611445579182015b82811115611444578251825591602001919060010190611429565b5b5090506114529190611456565b5090565b61147891905b8082111561147457600081600090555060010161145c565b5090565b9056fea26469706673582212201bf5efcbc265fe94781a39498ffac2e6a92d052521b63e231939341c94d8580e64736f6c63430006020033",
  "source": "pragma solidity ^0.6.0;\n\n/**\n * @title Registry\n * @dev Manage Registry Entries\n*/\n\nimport './RegistryToken.sol';\nimport './Registry.sol';\n\ncontract Registry {\n    string domain;\n    string ref;\n    string registryType;\n    address payable public registryTokenAddress;\n\n    RegistryToken registryToken;\n\n    address registryAddress = payable(address(this));\n\n    event RegistryEntryAdded(string subdomain, string ref);\n\n    struct RegistryEntry {\n        string ref;\n        bool isHuman;\n    }\n\n    mapping(string => RegistryEntry) registryEntryMap;\n    string[] registryEntries;\n\n    function init(\n        string memory _domain,\n        string memory _ref, \n        string memory _registryType, \n        address payable _registryToken)\n        public \n    returns (string memory, string memory) \n    {\n        domain = _domain;\n        ref = _ref;\n        registryType = _registryType;\n        // registryToken = _registryToken;\n    }\n\n    function getRegistry() \n        public\n        view\n    returns(string memory, string memory, string memory, address)\n    {\n        // uint256 stakePrice = 10;\n        return(domain, ref, registryType, registryTokenAddress);\n    }\n\n    function getAddress() \n        public \n        view \n    returns (address) \n    {  \n       return registryAddress;\n    }\n\n    function getRef()\n        public\n        view\n    returns (string memory)\n    {\n        return ref;\n    }\n\n    // Add staking checks/logic here\n\n    function createRegistryEntry (\n        string memory _subdomain, \n        string memory _ref)\n        public\n    {\n        (bool _isRegistered, ) = isRegistered(_subdomain);\n        if(!_isRegistered) {\n            registryEntryMap[_subdomain].ref = _ref;\n            registryEntryMap[_subdomain].isHuman = false;\n            registryEntries.push(_subdomain);\n            emit RegistryEntryAdded(_subdomain, _ref);\n        }\n    }\n\n    function getRegistryEntryRef (string memory _subdomain) \n        public \n        view \n    returns (string memory) {\n        return registryEntryMap[_subdomain].ref;\n    }\n\n    function isRegistered(string memory _subdomain)\n       public\n       view\n    returns(bool, uint256)\n    {\n        for (uint256 i = 0; i < registryEntries.length; i += 1){\n            if (keccak256(bytes(_subdomain)) == keccak256(bytes(registryEntries[i]))) return (true, i);\n        }\n        return (false, 0);\n    }\n\n    function setRegistryRef (string memory _newRef) public {\n        ref = _newRef;\n    }\n\n    function setRegistryEntryRef (string memory _subdomain, string memory _newRef) public {\n        registryEntryMap[_subdomain].ref = _newRef;\n    }\n}",
  "sourcePath": "/Users/neo/Code/ZNS/contracts/Registry.sol",
  "compiler": {
    "name": "solc",
    "version": "0.6.2+commit.bacdbe57.Emscripten.clang"
  },
  "schemaVersion": "3.2.3",
  "updatedAt": "2020-09-10T22:35:23.980Z",
  "devdoc": {
    "methods": {}
  },
  "userdoc": {
    "methods": {}
  }
}