{
  "contractName": "RegistryController",
  "abi": [
    {
      "anonymous": false,
      "inputs": [
        {
          "indexed": true,
          "internalType": "address",
          "name": "previousOwner",
          "type": "address"
        },
        {
          "indexed": true,
          "internalType": "address",
          "name": "newOwner",
          "type": "address"
        }
      ],
      "name": "OwnershipTransferred",
      "type": "event"
    },
    {
      "anonymous": false,
      "inputs": [
        {
          "indexed": false,
          "internalType": "address",
          "name": "registryAddress",
          "type": "address"
        },
        {
          "indexed": false,
          "internalType": "contract RegistryToken",
          "name": "registryToken",
          "type": "address"
        }
      ],
      "name": "createdRegistry",
      "type": "event"
    },
    {
      "anonymous": false,
      "inputs": [
        {
          "indexed": false,
          "internalType": "string",
          "name": "subdomain",
          "type": "string"
        },
        {
          "indexed": false,
          "internalType": "string",
          "name": "ref",
          "type": "string"
        }
      ],
      "name": "createdRegistryEntry",
      "type": "event"
    },
    {
      "anonymous": false,
      "inputs": [
        {
          "indexed": false,
          "internalType": "address",
          "name": "registryProxy",
          "type": "address"
        },
        {
          "indexed": false,
          "internalType": "contract RegistryToken",
          "name": "registryTokenProxy",
          "type": "address"
        }
      ],
      "name": "registryControllerInitialized",
      "type": "event"
    },
    {
      "anonymous": false,
      "inputs": [
        {
          "indexed": false,
          "internalType": "string",
          "name": "subdomain",
          "type": "string"
        },
        {
          "indexed": false,
          "internalType": "string",
          "name": "newRef",
          "type": "string"
        }
      ],
      "name": "registryEntryRefSet",
      "type": "event"
    },
    {
      "anonymous": false,
      "inputs": [
        {
          "indexed": false,
          "internalType": "string",
          "name": "newRef",
          "type": "string"
        }
      ],
      "name": "registryRefSet",
      "type": "event"
    },
    {
      "anonymous": false,
      "inputs": [
        {
          "indexed": false,
          "internalType": "uint256",
          "name": "newStakePrice",
          "type": "uint256"
        }
      ],
      "name": "stakePriceSet",
      "type": "event"
    },
    {
      "inputs": [],
      "name": "owner",
      "outputs": [
        {
          "internalType": "address",
          "name": "",
          "type": "address"
        }
      ],
      "stateMutability": "view",
      "type": "function"
    },
    {
      "inputs": [],
      "name": "registryProxyAddress",
      "outputs": [
        {
          "internalType": "address",
          "name": "",
          "type": "address"
        }
      ],
      "stateMutability": "view",
      "type": "function"
    },
    {
      "inputs": [],
      "name": "registryTokenAddress",
      "outputs": [
        {
          "internalType": "address payable",
          "name": "",
          "type": "address"
        }
      ],
      "stateMutability": "view",
      "type": "function"
    },
    {
      "inputs": [],
      "name": "renounceOwnership",
      "outputs": [],
      "stateMutability": "nonpayable",
      "type": "function"
    },
    {
      "inputs": [],
      "name": "stakePrice",
      "outputs": [
        {
          "internalType": "uint256",
          "name": "",
          "type": "uint256"
        }
      ],
      "stateMutability": "view",
      "type": "function"
    },
    {
      "inputs": [
        {
          "internalType": "address",
          "name": "newOwner",
          "type": "address"
        }
      ],
      "name": "transferOwnership",
      "outputs": [],
      "stateMutability": "nonpayable",
      "type": "function"
    },
    {
      "inputs": [
        {
          "internalType": "address",
          "name": "_registryProxy",
          "type": "address"
        },
        {
          "internalType": "contract RegistryToken",
          "name": "_registryTokenProxy",
          "type": "address"
        },
        {
          "internalType": "address",
          "name": "_owner",
          "type": "address"
        }
      ],
      "name": "initialize",
      "outputs": [],
      "stateMutability": "nonpayable",
      "type": "function"
    },
    {
      "inputs": [
        {
          "internalType": "uint256",
          "name": "_newStakePrice",
          "type": "uint256"
        }
      ],
      "name": "setStakePrice",
      "outputs": [],
      "stateMutability": "nonpayable",
      "type": "function"
    },
    {
      "inputs": [
        {
          "internalType": "string",
          "name": "_subdomain",
          "type": "string"
        },
        {
          "internalType": "string",
          "name": "_ref",
          "type": "string"
        }
      ],
      "name": "createRegistryEntry",
      "outputs": [],
      "stateMutability": "nonpayable",
      "type": "function"
    },
    {
      "inputs": [
        {
          "internalType": "string",
          "name": "_newRef",
          "type": "string"
        }
      ],
      "name": "setRef",
      "outputs": [],
      "stateMutability": "nonpayable",
      "type": "function"
    },
    {
      "inputs": [
        {
          "internalType": "string",
          "name": "_subdomain",
          "type": "string"
        },
        {
          "internalType": "string",
          "name": "_newRef",
          "type": "string"
        }
      ],
      "name": "setRegistryEntryRef",
      "outputs": [],
      "stateMutability": "nonpayable",
      "type": "function"
    },
    {
      "inputs": [],
      "name": "getRef",
      "outputs": [
        {
          "internalType": "string",
          "name": "",
          "type": "string"
        }
      ],
      "stateMutability": "nonpayable",
      "type": "function"
    },
    {
      "inputs": [],
      "name": "getStakePrice",
      "outputs": [
        {
          "internalType": "uint256",
          "name": "",
          "type": "uint256"
        }
      ],
      "stateMutability": "nonpayable",
      "type": "function"
    },
    {
      "inputs": [
        {
          "internalType": "string",
          "name": "_subdomain",
          "type": "string"
        }
      ],
      "name": "getRegistryEntryRef",
      "outputs": [
        {
          "internalType": "string",
          "name": "",
          "type": "string"
        }
      ],
      "stateMutability": "nonpayable",
      "type": "function"
    },
    {
      "inputs": [
        {
          "internalType": "address payable",
          "name": "_transparentProxyAddress",
          "type": "address"
        }
      ],
      "name": "getTransparentProxyAdmin",
      "outputs": [
        {
          "internalType": "address",
          "name": "",
          "type": "address"
        }
      ],
      "stateMutability": "nonpayable",
      "type": "function"
    }
  ],
  "bytecode": "0x608060405234801561001057600080fd5b506119f0806100206000396000f3fe608060405234801561001057600080fd5b50600436106100f55760003560e01c80634c2ae66d11610097578063a023cf6911610066578063a023cf69146103fc578063c0c53b8b14610404578063c73e835c1461043c578063f2fde38b146104aa576100f5565b80634c2ae66d146103ac5780635b999a38146103d2578063715018a6146103ec5780638da5cb5b146103f4576100f5565b80631692f21f116100d35780631692f21f146102c15780631d6d32ba1461037f5780631d8e2f5814610387578063209df0fa1461038f576100f5565b80630cc78476146100fa578063149adf581461011e578063164f25bf14610201575b600080fd5b6101026104d0565b604080516001600160a01b039092168252519081900360200190f35b61018c6004803603602081101561013457600080fd5b810190602081018135600160201b81111561014e57600080fd5b82018360208201111561016057600080fd5b803590602001918460018302840111600160201b8311171561018157600080fd5b5090925090506104df565b6040805160208082528351818301528351919283929083019185019080838360005b838110156101c65781810151838201526020016101ae565b50505050905090810190601f1680156101f35780820380516001836020036101000a031916815260200191505b509250505060405180910390f35b6102bf6004803603604081101561021757600080fd5b810190602081018135600160201b81111561023157600080fd5b82018360208201111561024357600080fd5b803590602001918460018302840111600160201b8311171561026457600080fd5b919390929091602081019035600160201b81111561028157600080fd5b82018360208201111561029357600080fd5b803590602001918460018302840111600160201b831117156102b457600080fd5b509092509050610649565b005b6102bf600480360360408110156102d757600080fd5b810190602081018135600160201b8111156102f157600080fd5b82018360208201111561030357600080fd5b803590602001918460018302840111600160201b8311171561032457600080fd5b919390929091602081019035600160201b81111561034157600080fd5b82018360208201111561035357600080fd5b803590602001918460018302840111600160201b8311171561037457600080fd5b509092509050610aba565b61018c610e08565b610102610f3d565b6102bf600480360360208110156103a557600080fd5b5035610f4c565b610102600480360360208110156103c257600080fd5b50356001600160a01b03166110c8565b6103da6110cd565b60408051918252519081900360200190f35b6102bf611143565b6101026111e5565b6103da6111f4565b6102bf6004803603606081101561041a57600080fd5b506001600160a01b0381358116916020810135821691604090910135166111fa565b6102bf6004803603602081101561045257600080fd5b810190602081018135600160201b81111561046c57600080fd5b82018360208201111561047e57600080fd5b803590602001918460018302840111600160201b8311171561049f57600080fd5b509092509050611336565b6102bf600480360360208110156104c057600080fd5b50356001600160a01b03166115f8565b6099546001600160a01b031681565b6098546040516302935beb60e31b8152602060048201908152602482018490526060926001600160a01b03169163149adf589186918691908190604401848480828437600081840152601f19601f820116905080830192505050935050505060006040518083038186803b15801561055657600080fd5b505afa15801561056a573d6000803e3d6000fd5b505050506040513d6000823e601f3d908101601f19168201604052602081101561059357600080fd5b8101908080516040519392919084600160201b8211156105b257600080fd5b9083019060208201858111156105c757600080fd5b8251600160201b8111828201881017156105e057600080fd5b82525081516020918201929091019080838360005b8381101561060d5781810151838201526020016105f5565b50505050905090810190601f16801561063a5780820380516001836020036101000a031916815260200191505b50604052505050905092915050565b6106516116f1565b6065546001600160a01b039081169116146106a1576040805162461bcd60e51b8152602060048201819052602482015260008051602061196d833981519152604482015290519081900360640190fd5b6098546040805163164f25bf60e01b815260048101918252604481018690526001600160a01b039092169163164f25bf9187918791879187919081906024810190606401878780828437600083820152601f01601f191690910184810383528581526020019050858580828437600081840152601f19601f8201169050808301925050509650505050505050600060405180830381600087803b15801561074757600080fd5b505af115801561075b573d6000803e3d6000fd5b5050609854604051630c822d7f60e41b815260206004820190815260248201889052600094506001600160a01b03909216925063c822d7f0918891889190819060440184848082843760008382015260408051601f909201601f1916909301965091945090925050508083038186803b1580156107d757600080fd5b505afa1580156107eb573d6000803e3d6000fd5b505050506040513d604081101561080157600080fd5b5051905060018115151461081157fe5b606085858080601f016020809104026020016040519081016040528093929190818152602001838380828437600092019190915250506098546040516302935beb60e31b8152602060048201908152602482018b90529495506060946001600160a01b03909216935063149adf5892508a918a918190604401848480828437600081840152601f19601f820116905080830192505050935050505060006040518083038186803b1580156108c457600080fd5b505afa1580156108d8573d6000803e3d6000fd5b505050506040513d6000823e601f3d908101601f19168201604052602081101561090157600080fd5b8101908080516040519392919084600160201b82111561092057600080fd5b90830190602082018581111561093557600080fd5b8251600160201b81118282018810171561094e57600080fd5b82525081516020918201929091019080838360005b8381101561097b578181015183820152602001610963565b50505050905090810190601f1680156109a85780820380516001836020036101000a031916815260200191505b5060405250505090507f3fdde72950e6d9c53073a94114bea65c19a2076d1d4ff9390a70519dcbff22dd8282604051808060200180602001838103835285818151815260200191508051906020019080838360005b83811015610a155781810151838201526020016109fd565b50505050905090810190601f168015610a425780820380516001836020036101000a031916815260200191505b50838103825284518152845160209182019186019080838360005b83811015610a75578181015183820152602001610a5d565b50505050905090810190601f168015610aa25780820380516001836020036101000a031916815260200191505b5094505050505060405180910390a150505050505050565b610ac26116f1565b6065546001600160a01b03908116911614610b12576040805162461bcd60e51b8152602060048201819052602482015260008051602061196d833981519152604482015290519081900360640190fd5b60985460408051631692f21f60e01b815260048101918252604481018690526001600160a01b0390921691631692f21f9187918791879187919081906024810190606401878780828437600083820152601f01601f191690910184810383528581526020019050858580828437600081840152601f19601f8201169050808301925050509650505050505050600060405180830381600087803b158015610bb857600080fd5b505af1158015610bcc573d6000803e3d6000fd5b50506098546040516302935beb60e31b815260206004820190815260248201889052606094506001600160a01b03909216925063149adf589188918891908190604401848480828437600081840152601f19601f820116905080830192505050935050505060006040518083038186803b158015610c4957600080fd5b505afa158015610c5d573d6000803e3d6000fd5b505050506040513d6000823e601f3d908101601f191682016040526020811015610c8657600080fd5b8101908080516040519392919084600160201b821115610ca557600080fd5b908301906020820185811115610cba57600080fd5b8251600160201b811182820188101715610cd357600080fd5b82525081516020918201929091019080838360005b83811015610d00578181015183820152602001610ce8565b50505050905090810190601f168015610d2d5780820380516001836020036101000a031916815260200191505b5060405250505090507f031e185f158a37b9e948528f98430fe8a62eec8309644711b009aa0bfae965c185858360405180806020018060200183810383528686828181526020019250808284376000838201819052601f909101601f191690920185810384528651815286516020918201939188019250908190849084905b83811015610dc4578181015183820152602001610dac565b50505050905090810190601f168015610df15780820380516001836020036101000a031916815260200191505b509550505050505060405180910390a15050505050565b60985460408051630eb6995d60e11b815290516060926001600160a01b031691631d6d32ba916004808301926000929190829003018186803b158015610e4d57600080fd5b505afa158015610e61573d6000803e3d6000fd5b505050506040513d6000823e601f3d908101601f191682016040526020811015610e8a57600080fd5b8101908080516040519392919084600160201b821115610ea957600080fd5b908301906020820185811115610ebe57600080fd5b8251600160201b811182820188101715610ed757600080fd5b82525081516020918201929091019080838360005b83811015610f04578181015183820152602001610eec565b50505050905090810190601f168015610f315780820380516001836020036101000a031916815260200191505b50604052505050905090565b609b546001600160a01b031681565b610f546116f1565b6065546001600160a01b03908116911614610fa4576040805162461bcd60e51b8152602060048201819052602482015260008051602061196d833981519152604482015290519081900360640190fd5b609a546040805163104ef87d60e11b81526004810184905290516001600160a01b039092169163209df0fa916024808201926020929091908290030181600087803b158015610ff257600080fd5b505af1158015611006573d6000803e3d6000fd5b505050506040513d602081101561101c57600080fd5b5050609a546040805163a023cf6960e01b815290516001600160a01b039092169163a023cf6991600480820192602092909190829003018186803b15801561106357600080fd5b505afa158015611077573d6000803e3d6000fd5b505050506040513d602081101561108d57600080fd5b5051609c556040805182815290517f5443a9b3a4f844af7ea1bbffa88c16f6f6c35f174ae032da718b6285c6be869c9181900360200190a150565b503390565b609a546040805163a023cf6960e01b815290516000926001600160a01b03169163a023cf69916004808301926020929190829003018186803b15801561111257600080fd5b505afa158015611126573d6000803e3d6000fd5b505050506040513d602081101561113c57600080fd5b5051905090565b61114b6116f1565b6065546001600160a01b0390811691161461119b576040805162461bcd60e51b8152602060048201819052602482015260008051602061196d833981519152604482015290519081900360640190fd5b6065546040516000916001600160a01b0316907f8be0079c531659141344cd1fd0a4f28419497f9722a3daafe3b4186f6b6457e0908390a3606580546001600160a01b0319169055565b6065546001600160a01b031690565b609c5481565b600054610100900460ff168061121357506112136116f5565b80611221575060005460ff16155b61125c5760405162461bcd60e51b815260040180806020018281038252602e81526020018061198d602e913960400191505060405180910390fd5b600054610100900460ff16158015611287576000805460ff1961ff0019909116610100171660011790555b61128f6116fb565b611298826115f8565b609980546001600160a01b038087166001600160a01b031992831681179384905560988054841694831694909417909355609b805491871691831682179055609a8054909216811790915560408051928352602083019190915280517f81bc37599d8daaee75b12342129cc1b062c2f8aa7e7ac6958fba02c558b859899281900390910190a18015611330576000805461ff00191690555b50505050565b61133e6116f1565b6065546001600160a01b0390811691161461138e576040805162461bcd60e51b8152602060048201819052602482015260008051602061196d833981519152604482015290519081900360640190fd5b609854604051633ecf991160e21b8152602060048201908152602482018490526001600160a01b039092169163fb3e644491859185918190604401848480828437600081840152601f19601f8201169050808301925050509350505050600060405180830381600087803b15801561140557600080fd5b505af1158015611419573d6000803e3d6000fd5b505050506060609860009054906101000a90046001600160a01b03166001600160a01b0316631d6d32ba6040518163ffffffff1660e01b815260040160006040518083038186803b15801561146d57600080fd5b505afa158015611481573d6000803e3d6000fd5b505050506040513d6000823e601f3d908101601f1916820160405260208110156114aa57600080fd5b8101908080516040519392919084600160201b8211156114c957600080fd5b9083019060208201858111156114de57600080fd5b8251600160201b8111828201881017156114f757600080fd5b82525081516020918201929091019080838360005b8381101561152457818101518382015260200161150c565b50505050905090810190601f1680156115515780820380516001836020036101000a031916815260200191505b5060405250505090507f365ad25db963c5dbd43d3f4aa610e4a9ffd3bb23dae3841d9dbad208c212bee1816040518080602001828103825283818151815260200191508051906020019080838360005b838110156115b95781810151838201526020016115a1565b50505050905090810190601f1680156115e65780820380516001836020036101000a031916815260200191505b509250505060405180910390a1505050565b6116006116f1565b6065546001600160a01b03908116911614611650576040805162461bcd60e51b8152602060048201819052602482015260008051602061196d833981519152604482015290519081900360640190fd5b6001600160a01b0381166116955760405162461bcd60e51b81526004018080602001828103825260268152602001806119476026913960400191505060405180910390fd5b6065546040516001600160a01b038084169216907f8be0079c531659141344cd1fd0a4f28419497f9722a3daafe3b4186f6b6457e090600090a3606580546001600160a01b0319166001600160a01b0392909216919091179055565b3390565b303b1590565b600054610100900460ff168061171457506117146116f5565b80611722575060005460ff16155b61175d5760405162461bcd60e51b815260040180806020018281038252602e81526020018061198d602e913960400191505060405180910390fd5b600054610100900460ff16158015611788576000805460ff1961ff0019909116610100171660011790555b6117906117ad565b61179861184d565b80156117aa576000805461ff00191690555b50565b600054610100900460ff16806117c657506117c66116f5565b806117d4575060005460ff16155b61180f5760405162461bcd60e51b815260040180806020018281038252602e81526020018061198d602e913960400191505060405180910390fd5b600054610100900460ff16158015611798576000805460ff1961ff00199091166101001716600117905580156117aa576000805461ff001916905550565b600054610100900460ff168061186657506118666116f5565b80611874575060005460ff16155b6118af5760405162461bcd60e51b815260040180806020018281038252602e81526020018061198d602e913960400191505060405180910390fd5b600054610100900460ff161580156118da576000805460ff1961ff0019909116610100171660011790555b60006118e46116f1565b606580546001600160a01b0319166001600160a01b038316908117909155604051919250906000907f8be0079c531659141344cd1fd0a4f28419497f9722a3daafe3b4186f6b6457e0908290a35080156117aa576000805461ff00191690555056fe4f776e61626c653a206e6577206f776e657220697320746865207a65726f20616464726573734f776e61626c653a2063616c6c6572206973206e6f7420746865206f776e6572436f6e747261637420696e7374616e63652068617320616c7265616479206265656e20696e697469616c697a6564a2646970667358221220d9dcea2ac8771ed662d8f5d32c36e9d3df8443aa3254d6ee2722f2c5c14d5c3064736f6c63430006020033",
  "source": "pragma solidity 0.6.2;\n\n/**\n * @title RegistryController\n * @dev Create and interact with ZNS.\n*/\n\nimport './RegistryControllerI.sol';\nimport '../Registry/Registry.sol';\nimport '../RegistryToken/RegistryToken.sol';\nimport \"../../node_modules/@openzeppelin/contracts-ethereum-package/contracts/math/SafeMath.sol\";\nimport \"../../node_modules/@openzeppelin/contracts/proxy/TransparentUpgradeableProxy.sol\";\nimport \"../../node_modules/@openzeppelin/contracts-ethereum-package/contracts/access/Ownable.sol\";\n\ncontract RegistryController is RegistryControllerI, Initializable, OwnableUpgradeSafe {\n    using SafeMath for uint256;\n\n    Registry private registryFactory;\n\n    Registry private registryProxy;\n    address public registryProxyAddress;\n\n    RegistryToken private registryToken;\n    address payable public registryTokenAddress;\n\n    uint256 public stakePrice;\n\n    /// @notice Emitted when the RegistryController is initialized.\n    event registryControllerInitialized(address registryProxy, RegistryToken registryTokenProxy);\n\n    /// @notice Emitted when a new Registry is created.\n    event createdRegistry(address registryAddress, RegistryToken registryToken);\n\n    /// @notice Emitted when a Registry's stake price is updated.\n    event stakePriceSet(uint256 newStakePrice);\n\n    /// @notice Emitted when a new entry is created in a Registry.\n    event createdRegistryEntry(string subdomain, string ref);\n\n    /// @notice Emitted when a new a Registry 'ref' is updated.\n    event registryRefSet(string newRef);\n\n    /// @notice Emitted when a new a Registry Entry 'ref' is updated.\n    event registryEntryRefSet(string subdomain, string newRef);\n\n    /**\n     * @notice Initializes a new RegistryController after construction.\n     * @param _registryProxy The Registry address that the RegistryConroller will manage.\n     * @param _registryTokenProxy The RegistryToken address that the RegistryController will manage.\n     */\n\n    function initialize(address _registryProxy, RegistryToken _registryTokenProxy, address _owner)\n        external\n        override\n        initializer\n    {\n        __Ownable_init();\n        transferOwnership(_owner);\n        registryProxyAddress = _registryProxy;\n        registryProxy = Registry(registryProxyAddress);\n        \n        registryTokenAddress = payable(address(_registryTokenProxy));\n        registryToken = _registryTokenProxy;\n\n        emit registryControllerInitialized(_registryProxy, _registryTokenProxy);\n    }\n\n    /**\n     * @notice Sets a new stake price for a Registry's RegistryToken.\n     * @param _newStakePrice The new stake price to be used by the registry.\n     */\n\n    function setStakePrice(uint256 _newStakePrice)\n        external\n        override\n        onlyOwner\n    {\n        registryToken.setStakePrice(_newStakePrice);\n        stakePrice = registryToken.stakePrice();\n\n        emit stakePriceSet(_newStakePrice);\n    }\n\n    /**\n     * @notice Creates a new entry within a Registry.\n     * @param _subdomain The subdomain that will be utilized to reference the current Registry entry.\n     * @param _ref The user-defined reference (such as an index or url) that the Registry entry will point to.\n     */\n\n    function createRegistryEntry(\n        string calldata _subdomain,\n        string calldata _ref)\n        external\n        override\n        onlyOwner\n    {\n        registryProxy.createRegistryEntry(_subdomain, _ref);\n        (bool isRegistered, ) = registryProxy.isRegistered(_subdomain);\n        assert(isRegistered==true);\n\n        string memory currentRegistrySubdomain = _subdomain;\n        string memory currentRegistryRef = registryProxy.getRegistryEntryRef(_subdomain);\n        \n        emit createdRegistryEntry(currentRegistrySubdomain, currentRegistryRef);\n    }\n\n    /**\n     * @notice Updates a Registry's referece value.\n     * @param _newRef The new reference value to be updated to.\n     */\n\n    function setRef(\n        string calldata _newRef)\n        external\n        override\n        onlyOwner\n    {\n        registryProxy.setRegistryRef(_newRef);        \n        string memory currentRegistryRef = registryProxy.getRef();\n\n        emit registryRefSet(currentRegistryRef);\n    }\n\n    /**\n     * @notice Updates a Registry entries reference value.\n     * @param _subdomain The subdomain of the Registry entry to be updated.\n     * @param _newRef The new reference value to be updated in the Registry entry.\n     */\n\n    function setRegistryEntryRef(\n        string calldata _subdomain,\n        string calldata _newRef)\n        external\n        override\n        onlyOwner\n    {\n        registryProxy.setRegistryEntryRef(_subdomain, _newRef);\n        string memory currentRegistryEntryRef = registryProxy.getRegistryEntryRef(_subdomain);\n\n        emit registryEntryRefSet(_subdomain, currentRegistryEntryRef);\n    }\n    \n    function getRef() override external returns (string memory) {\n        return registryProxy.getRef();\n    }\n\n    function getStakePrice() override external returns (uint256) {\n        return registryToken.stakePrice();\n    }\n\n    function getRegistryEntryRef(string calldata _subdomain) override external returns (string memory) {\n        return registryProxy.getRegistryEntryRef(_subdomain);\n    }\n\n    function getTransparentProxyAdmin(address payable _transparentProxyAddress) external override returns (address) {\n        // TransparentUpgradeableProxy transparentProxy;\n        // transparentProxy = TransparentUpgradeableProxy(_transparentProxyAddress);\n        // return transparentProxy.admin();\n        return msg.sender;\n    }\n}",
  "sourcePath": "/Users/neo/Code/ZNS/contracts/RegistryController/RegistryController.sol",
  "compiler": {
    "name": "solc",
    "version": "0.6.2+commit.bacdbe57.Emscripten.clang"
  },
  "schemaVersion": "3.2.3",
  "updatedAt": "2020-09-23T17:59:11.745Z",
  "devdoc": {
    "methods": {
      "createRegistryEntry(string,string)": {
        "params": {
          "_ref": "The user-defined reference (such as an index or url) that the Registry entry will point to.",
          "_subdomain": "The subdomain that will be utilized to reference the current Registry entry."
        }
      },
      "initialize(address,address,address)": {
        "params": {
          "_registryProxy": "The Registry address that the RegistryConroller will manage.",
          "_registryTokenProxy": "The RegistryToken address that the RegistryController will manage."
        }
      },
      "owner()": {
        "details": "Returns the address of the current owner."
      },
      "renounceOwnership()": {
        "details": "Leaves the contract without owner. It will not be possible to call `onlyOwner` functions anymore. Can only be called by the current owner.     * NOTE: Renouncing ownership will leave the contract without an owner, thereby removing any functionality that is only available to the owner."
      },
      "setRef(string)": {
        "params": {
          "_newRef": "The new reference value to be updated to."
        }
      },
      "setRegistryEntryRef(string,string)": {
        "params": {
          "_newRef": "The new reference value to be updated in the Registry entry.",
          "_subdomain": "The subdomain of the Registry entry to be updated."
        }
      },
      "setStakePrice(uint256)": {
        "params": {
          "_newStakePrice": "The new stake price to be used by the registry."
        }
      },
      "transferOwnership(address)": {
        "details": "Transfers ownership of the contract to a new account (`newOwner`). Can only be called by the current owner."
      }
    }
  },
  "userdoc": {
    "methods": {
      "createRegistryEntry(string,string)": {
        "notice": "Creates a new entry within a Registry."
      },
      "initialize(address,address,address)": {
        "notice": "Initializes a new RegistryController after construction."
      },
      "setRef(string)": {
        "notice": "Updates a Registry's referece value."
      },
      "setRegistryEntryRef(string,string)": {
        "notice": "Updates a Registry entries reference value."
      },
      "setStakePrice(uint256)": {
        "notice": "Sets a new stake price for a Registry's RegistryToken."
      }
    }
  }
}