{
  "contractName": "Registrar",
  "abi": [
    {
      "anonymous": false,
      "inputs": [
        {
          "indexed": false,
          "internalType": "string",
          "name": "domain",
          "type": "string"
        },
        {
          "indexed": false,
          "internalType": "string",
          "name": "ref",
          "type": "string"
        },
        {
          "indexed": false,
          "internalType": "string",
          "name": "registryType",
          "type": "string"
        },
        {
          "indexed": false,
          "internalType": "uint256",
          "name": "stakePrice",
          "type": "uint256"
        },
        {
          "indexed": false,
          "internalType": "address",
          "name": "registryToken",
          "type": "address"
        },
        {
          "indexed": false,
          "internalType": "address",
          "name": "registry",
          "type": "address"
        },
        {
          "indexed": false,
          "internalType": "address",
          "name": "registryController",
          "type": "address"
        }
      ],
      "name": "RegistryCreated",
      "type": "event"
    },
    {
      "inputs": [
        {
          "internalType": "uint256",
          "name": "",
          "type": "uint256"
        }
      ],
      "name": "registrar",
      "outputs": [
        {
          "internalType": "address",
          "name": "",
          "type": "address"
        }
      ],
      "stateMutability": "view",
      "type": "function",
      "constant": true
    },
    {
      "inputs": [
        {
          "internalType": "string",
          "name": "_domain",
          "type": "string"
        },
        {
          "internalType": "string",
          "name": "_ref",
          "type": "string"
        },
        {
          "internalType": "string",
          "name": "_registryType",
          "type": "string"
        },
        {
          "internalType": "uint256",
          "name": "_stakePrice",
          "type": "uint256"
        },
        {
          "internalType": "address",
          "name": "_owner",
          "type": "address"
        },
        {
          "internalType": "address payable",
          "name": "_registryTokenProxyAddress",
          "type": "address"
        }
      ],
      "name": "createRegistry",
      "outputs": [],
      "stateMutability": "nonpayable",
      "type": "function"
    },
    {
      "inputs": [],
      "name": "getRegistryOwner",
      "outputs": [
        {
          "internalType": "address",
          "name": "",
          "type": "address"
        }
      ],
      "stateMutability": "view",
      "type": "function",
      "constant": true
    },
    {
      "inputs": [],
      "name": "getRegistrarLength",
      "outputs": [
        {
          "internalType": "uint256",
          "name": "",
          "type": "uint256"
        }
      ],
      "stateMutability": "view",
      "type": "function",
      "constant": true
    },
    {
      "inputs": [
        {
          "internalType": "string",
          "name": "_domain",
          "type": "string"
        }
      ],
      "name": "getRegistryController",
      "outputs": [
        {
          "internalType": "address",
          "name": "",
          "type": "address"
        }
      ],
      "stateMutability": "view",
      "type": "function",
      "constant": true
    },
    {
      "inputs": [
        {
          "internalType": "string",
          "name": "_domain",
          "type": "string"
        }
      ],
      "name": "getRegistryType",
      "outputs": [
        {
          "internalType": "string",
          "name": "",
          "type": "string"
        }
      ],
      "stateMutability": "view",
      "type": "function",
      "constant": true
    },
    {
      "inputs": [
        {
          "internalType": "address payable",
          "name": "_transparentProxyAddress",
          "type": "address"
        }
      ],
      "name": "getTransparentProxyAdmin",
      "outputs": [
        {
          "internalType": "address",
          "name": "",
          "type": "address"
        }
      ],
      "stateMutability": "nonpayable",
      "type": "function"
    }
  ],
  "bytecode": "0x608060405234801561001057600080fd5b50614b4e806100206000396000f3fe60806040523480156200001157600080fd5b5060043610620000885760003560e01c80637ab77e4a11620000635780637ab77e4a14620001985780639433fcbc14620001a2578063ef08989d14620001c2578063f52474e514620002e45762000088565b8063132a77ee146200008d57806337c3a7da14620001535780634c2ae66d146200016f575b600080fd5b6200013760048036036020811015620000a557600080fd5b810190602081018135600160201b811115620000c057600080fd5b820183602082011115620000d357600080fd5b803590602001918460018302840111600160201b83111715620000f557600080fd5b91908080601f016020809104026020016040519081016040528093929190818152602001838380828437600092019190915250929550620004b7945050505050565b604080516001600160a01b039092168252519081900360200190f35b6200015d6200052a565b60408051918252519081900360200190f35b62000137600480360360208110156200018757600080fd5b50356001600160a01b031662000531565b62000137620005a8565b6200013760048036036020811015620001ba57600080fd5b503562000621565b6200026c60048036036020811015620001da57600080fd5b810190602081018135600160201b811115620001f557600080fd5b8201836020820111156200020857600080fd5b803590602001918460018302840111600160201b831117156200022a57600080fd5b91908080601f01602080910402602001604051908101604052809392919081815260200183838082843760009201919091525092955062000649945050505050565b6040805160208082528351818301528351919283929083019185019080838360005b83811015620002a85781810151838201526020016200028e565b50505050905090810190601f168015620002d65780820380516001836020036101000a031916815260200191505b509250505060405180910390f35b620004b5600480360360c0811015620002fc57600080fd5b810190602081018135600160201b8111156200031757600080fd5b8201836020820111156200032a57600080fd5b803590602001918460018302840111600160201b831117156200034c57600080fd5b91908080601f0160208091040260200160405190810160405280939291908181526020018383808284376000920191909152509295949360208101935035915050600160201b8111156200039f57600080fd5b820183602082011115620003b257600080fd5b803590602001918460018302840111600160201b83111715620003d457600080fd5b91908080601f0160208091040260200160405190810160405280939291908181526020018383808284376000920191909152509295949360208101935035915050600160201b8111156200042757600080fd5b8201836020820111156200043a57600080fd5b803590602001918460018302840111600160201b831117156200045c57600080fd5b91908080601f0160208091040260200160405190810160405280939291908181526020018383808284376000920191909152509295505082359350506001600160a01b0360208301358116926040013516905062000746565b005b60006006826040518082805190602001908083835b60208310620004ed5780518252601f199092019160209182019101620004cc565b51815160209384036101000a60001901801990921691161790529201948552506040519384900301909220546001600160a01b0316949350505050565b6007545b90565b600080829050806001600160a01b031663f851a4406040518163ffffffff1660e01b8152600401602060405180830381600087803b1580156200057357600080fd5b505af115801562000588573d6000803e3d6000fd5b505050506040513d60208110156200059f57600080fd5b50519392505050565b60025460408051638da5cb5b60e01b815290516000926001600160a01b031691638da5cb5b916004808301926020929190829003018186803b158015620005ee57600080fd5b505afa15801562000603573d6000803e3d6000fd5b505050506040513d60208110156200061a57600080fd5b5051905090565b600781815481106200062f57fe5b6000918252602090912001546001600160a01b0316905081565b60606006826040518082805190602001908083835b602083106200067f5780518252601f1990920191602091820191016200065e565b518151600019602094850361010090810a8201928316921993909316919091179092529490920196875260408051978890038201882060029081018054601f6001821615909802909501909416049485018290048202880182019052838752909450919250508301828280156200073a5780601f106200070e576101008083540402835291602001916200073a565b820191906000526020600020905b8154815290600101906020018083116200071c57829003601f168201915b50505050509050919050565b600380546001600160a01b0319166001600160a01b0383161790556040516200076f906200109c565b604051809103906000f0801580156200078c573d6000803e3d6000fd5b50600080546001600160a01b0319166001600160a01b03928316178155600354604051921660848301819052608060248401908152895160a485015289516060948b948b948b949093909283926044820192606483019260c4019160208b0191908190849084905b838110156200080e578181015183820152602001620007f4565b50505050905090810190601f1680156200083c5780820380516001836020036101000a031916815260200191505b50848103835287518152875160209182019189019080838360005b838110156200087157818101518382015260200162000857565b50505050905090810190601f1680156200089f5780820380516001836020036101000a031916815260200191505b50848103825286518152865160209182019188019080838360005b83811015620008d4578181015183820152602001620008ba565b50505050905090810190601f168015620009025780820380516001836020036101000a031916815260200191505b5060408051601f198184030181529181526020820180516001600160e01b0316635c6d8da160e01b1790526000549051919a506001600160a01b031698503397508996506200095895509350620010aa92505050565b80846001600160a01b03166001600160a01b03168152602001836001600160a01b03166001600160a01b0316815260200180602001828103825283818151815260200191508051906020019080838360005b83811015620009c4578181015183820152602001620009aa565b50505050905090810190601f168015620009f25780820380516001836020036101000a031916815260200191505b50945050505050604051809103906000f08015801562000a16573d6000803e3d6000fd5b50600180546001600160a01b0319166001600160a01b039290921691909117905560405162000a4590620010b8565b604051809103906000f08015801562000a62573d6000803e3d6000fd5b50600480546001600160a01b039283166001600160a01b03199091161790819055600154600354604080519285166024840152908416604483015286841660648084019190915281518084039091018152608490920181526020820180516001600160e01b031663c0c53b8b60e01b17905251909291909116903390839062000aeb90620010aa565b80846001600160a01b03166001600160a01b03168152602001836001600160a01b03166001600160a01b0316815260200180602001828103825283818151815260200191508051906020019080838360005b8381101562000b5757818101518382015260200162000b3d565b50505050905090810190601f16801562000b855780820380516001836020036101000a031916815260200191505b50945050505050604051809103906000f08015801562000ba9573d6000803e3d6000fd5b50600580546001600160a01b039283166001600160a01b031991821617918290556001546002805490921690841617908190556040805163f2fde38b60e01b815292841660048401525192169163f2fde38b9160248082019260009290919082900301818387803b15801562000c1e57600080fd5b505af115801562000c33573d6000803e3d6000fd5b50506005546040518b516001600160a01b039092169350600692508b91819060208401908083835b6020831062000c7c5780518252601f19909201916020918201910162000c5b565b51815160209384036101000a6000190180199092169116179052920194855250604051938490038101842080546001600160a01b0319166001600160a01b039690961695909517909455505089518a92600692849290918291908401908083835b6020831062000cfe5780518252601f19909201916020918201910162000cdd565b6001836020036101000a0380198251168184511680821785525050505050509050019150509081526020016040518091039020600101908051906020019062000d49929190620010c6565b50856006896040518082805190602001908083835b6020831062000d7f5780518252601f19909201916020918201910162000d5e565b51815160209384036101000a6000190180199092169116179052920194855250604051938490038101909320845162000dc6956002909201949190910192509050620010c6565b5060076006896040518082805190602001908083835b6020831062000dfd5780518252601f19909201916020918201910162000ddc565b6001836020036101000a038019825116818451168082178552505050505050905001915050908152602001604051809103902060000160009054906101000a90046001600160a01b03169080600181540180825580915050600190039060005260206000200160009091909190916101000a8154816001600160a01b0302191690836001600160a01b031602179055507f3f061e93054eec612830c0d96f30ae527e2f4793adb104a8003b904d2d4c181888888888600360009054906101000a90046001600160a01b0316600160009054906101000a90046001600160a01b0316600560009054906101000a90046001600160a01b031660405180806020018060200180602001888152602001876001600160a01b03166001600160a01b03168152602001866001600160a01b03166001600160a01b03168152602001856001600160a01b03166001600160a01b0316815260200184810384528b818151815260200191508051906020019080838360005b8381101562000f8957818101518382015260200162000f6f565b50505050905090810190601f16801562000fb75780820380516001836020036101000a031916815260200191505b5084810383528a5181528a516020918201918c019080838360005b8381101562000fec57818101518382015260200162000fd2565b50505050905090810190601f1680156200101a5780820380516001836020036101000a031916815260200191505b5084810382528951815289516020918201918b019080838360005b838110156200104f57818101518382015260200162001035565b50505050905090810190601f1680156200107d5780820380516001836020036101000a031916815260200191505b509a505050505050505050505060405180910390a15050505050505050565b61146c806200116983390190565b610a0a80620025d583390190565b611b3a8062002fdf83390190565b828054600181600116156101000203166002900490600052602060002090601f016020900481019282601f106200110957805160ff191683800117855562001139565b8280016001018555821562001139579182015b82811115620011395782518255916020019190600101906200111c565b50620011479291506200114b565b5090565b6200052e91905b808211156200114757600081556001016200115256fe608060405234801561001057600080fd5b5061144c806100206000396000f3fe608060405234801561001057600080fd5b50600436106100b45760003560e01c80635c6d8da1116100715780635c6d8da1146104a1578063715018a6146105b85780638da5cb5b146105c0578063c822d7f0146105c8578063f2fde38b14610687578063fb3e6444146106ad576100b4565b8063149adf58146100b9578063164f25bf1461019c5780631692f21f1461025c5780631d6d32ba1461031a5780631d8e2f58146103225780635ab1bd5314610346575b600080fd5b610127600480360360208110156100cf57600080fd5b810190602081018135600160201b8111156100e957600080fd5b8201836020820111156100fb57600080fd5b803590602001918460018302840111600160201b8311171561011c57600080fd5b50909250905061071b565b6040805160208082528351818301528351919283929083019185019080838360005b83811015610161578181015183820152602001610149565b50505050905090810190601f16801561018e5780820380516001836020036101000a031916815260200191505b509250505060405180910390f35b61025a600480360360408110156101b257600080fd5b810190602081018135600160201b8111156101cc57600080fd5b8201836020820111156101de57600080fd5b803590602001918460018302840111600160201b831117156101ff57600080fd5b919390929091602081019035600160201b81111561021c57600080fd5b82018360208201111561022e57600080fd5b803590602001918460018302840111600160201b8311171561024f57600080fd5b5090925090506107d0565b005b61025a6004803603604081101561027257600080fd5b810190602081018135600160201b81111561028c57600080fd5b82018360208201111561029e57600080fd5b803590602001918460018302840111600160201b831117156102bf57600080fd5b919390929091602081019035600160201b8111156102dc57600080fd5b8201836020820111156102ee57600080fd5b803590602001918460018302840111600160201b8311171561030f57600080fd5b5090925090506109b5565b610127610b16565b61032a610bad565b604080516001600160a01b039092168252519081900360200190f35b61034e610bbc565b604080516001600160a01b0383166060820152608080825286519082015285519091829160208084019284019160a08501918a019080838360005b838110156103a1578181015183820152602001610389565b50505050905090810190601f1680156103ce5780820380516001836020036101000a031916815260200191505b50848103835287518152875160209182019189019080838360005b838110156104015781810151838201526020016103e9565b50505050905090810190601f16801561042e5780820380516001836020036101000a031916815260200191505b50848103825286518152865160209182019188019080838360005b83811015610461578181015183820152602001610449565b50505050905090810190601f16801561048e5780820380516001836020036101000a031916815260200191505b5097505050505050505060405180910390f35b61025a600480360360808110156104b757600080fd5b810190602081018135600160201b8111156104d157600080fd5b8201836020820111156104e357600080fd5b803590602001918460018302840111600160201b8311171561050457600080fd5b919390929091602081019035600160201b81111561052157600080fd5b82018360208201111561053357600080fd5b803590602001918460018302840111600160201b8311171561055457600080fd5b919390929091602081019035600160201b81111561057157600080fd5b82018360208201111561058357600080fd5b803590602001918460018302840111600160201b831117156105a457600080fd5b9193509150356001600160a01b0316610d96565b61025a610e89565b61032a610f2b565b61066c600480360360208110156105de57600080fd5b810190602081018135600160201b8111156105f857600080fd5b82018360208201111561060a57600080fd5b803590602001918460018302840111600160201b8311171561062b57600080fd5b91908080601f016020809104026020016040519081016040528093929190818152602001838380828437600092019190915250929550610f3a945050505050565b60408051921515835260208301919091528051918290030190f35b61025a6004803603602081101561069d57600080fd5b50356001600160a01b0316610ff7565b61025a600480360360208110156106c357600080fd5b810190602081018135600160201b8111156106dd57600080fd5b8201836020820111156106ef57600080fd5b803590602001918460018302840111600160201b8311171561071057600080fd5b5090925090506110f0565b6060609c8383604051808383808284379190910194855250506040805160209481900385018120805460026001821615610100026000190190911604601f810187900487028301870190935282825290949093509091508301828280156107c35780601f10610798576101008083540402835291602001916107c3565b820191906000526020600020905b8154815290600101906020018083116107a657829003601f168201915b5050505050905092915050565b6107d8611206565b6065546001600160a01b03908116911614610828576040805162461bcd60e51b815260206004820181905260248201526000805160206113c9833981519152604482015290519081900360640190fd5b600061086985858080601f016020809104026020016040519081016040528093929190818152602001838380828437600092019190915250610f3a92505050565b509050806109ae578282609c878760405180838380828437919091019485525050604051928390036020019092206108a7949093909250905061130a565b506000609c868660405180838380828437919091019485525050604051928390036020019092206001908101805494151560ff19909516949094179093555050609d80549182018155600052610920907fd26e832454299e9fabb89e0e5fffdc046d4e14431bc1bf607ffb2e8a1ddecf7b01868661130a565b507ff49f5d228081cdcb24c2f4939e0f2236ab3121fd710df20a22d9e2130244b61d858585856040518080602001806020018381038352878782818152602001925080828437600083820152601f01601f191690910184810383528581526020019050858580828437600083820152604051601f909101601f19169092018290039850909650505050505050a15b5050505050565b6109bd611206565b6065546001600160a01b03908116911614610a0d576040805162461bcd60e51b815260206004820181905260248201526000805160206113c9833981519152604482015290519081900360640190fd5b8181609c86866040518083838082843791909101948552505060405192839003602001909220610a43949093909250905061130a565b507fe4bc8abccea03a84d1974cb45f8445c3bed2c0d18e9e38396166ff6f8a95875b609c8585604051808383808284379190910194855250506040805193849003602090810185208186528054600260001961010060018416150201909116049186018290529493508392509082019084908015610b025780601f10610ad757610100808354040283529160200191610b02565b820191906000526020600020905b815481529060010190602001808311610ae557829003601f168201915b50509250505060405180910390a150505050565b60988054604080516020601f6002600019610100600188161502019095169490940493840181900481028201810190925282815260609390929091830182828015610ba25780601f10610b7757610100808354040283529160200191610ba2565b820191906000526020600020905b815481529060010190602001808311610b8557829003601f168201915b505050505090505b90565b609b546001600160a01b031681565b609b5460978054604080516020601f600260001960018716156101000201909516949094049384018190048102820181019092528281526060948594859460009491936098936099936001600160a01b03909116928691830182828015610c645780601f10610c3957610100808354040283529160200191610c64565b820191906000526020600020905b815481529060010190602001808311610c4757829003601f168201915b5050865460408051602060026001851615610100026000190190941693909304601f810184900484028201840190925281815295995088945092508401905082828015610cf25780601f10610cc757610100808354040283529160200191610cf2565b820191906000526020600020905b815481529060010190602001808311610cd557829003601f168201915b5050855460408051602060026001851615610100026000190190941693909304601f810184900484028201840190925281815295985087945092508401905082828015610d805780601f10610d5557610100808354040283529160200191610d80565b820191906000526020600020905b815481529060010190602001808311610d6357829003601f168201915b50979c969b509299509297509395505050505050565b600054610100900460ff1680610daf5750610daf61120a565b80610dbd575060005460ff16155b610df85760405162461bcd60e51b815260040180806020018281038252602e8152602001806113e9602e913960400191505060405180910390fd5b600054610100900460ff16158015610e23576000805460ff1961ff0019909116610100171660011790555b610e2b611210565b610e376097898961130a565b50610e446098878761130a565b50610e516099858561130a565b50609a80546001600160a01b0319166001600160a01b0384161790558015610e7f576000805461ff00191690555b5050505050505050565b610e91611206565b6065546001600160a01b03908116911614610ee1576040805162461bcd60e51b815260206004820181905260248201526000805160206113c9833981519152604482015290519081900360640190fd5b6065546040516000916001600160a01b0316907f8be0079c531659141344cd1fd0a4f28419497f9722a3daafe3b4186f6b6457e0908390a3606580546001600160a01b0319169055565b6065546001600160a01b031690565b600080805b609d54811015610fe957609d8181548110610f5657fe5b906000526020600020016040518082805460018160011615610100020316600290048015610fbb5780601f10610f99576101008083540402835291820191610fbb565b820191906000526020600020905b815481529060010190602001808311610fa7575b5050915050604051809103902084805190602001201415610fe157600192509050610ff2565b600101610f3f565b50600091508190505b915091565b610fff611206565b6065546001600160a01b0390811691161461104f576040805162461bcd60e51b815260206004820181905260248201526000805160206113c9833981519152604482015290519081900360640190fd5b6001600160a01b0381166110945760405162461bcd60e51b81526004018080602001828103825260268152602001806113a36026913960400191505060405180910390fd5b6065546040516001600160a01b038084169216907f8be0079c531659141344cd1fd0a4f28419497f9722a3daafe3b4186f6b6457e090600090a3606580546001600160a01b0319166001600160a01b0392909216919091179055565b6110f8611206565b6065546001600160a01b03908116911614611148576040805162461bcd60e51b815260206004820181905260248201526000805160206113c9833981519152604482015290519081900360640190fd5b6111546098838361130a565b5060408051602080825260988054600260001961010060018416150201909116049183018290527fe6a3d4ec4f69ac853579fb0336181042ec4d0a21b32de1a92b6dd6a2f904f5a0939092918291820190849080156111f45780601f106111c9576101008083540402835291602001916111f4565b820191906000526020600020905b8154815290600101906020018083116111d757829003601f168201915b50509250505060405180910390a15050565b3390565b303b1590565b600054610100900460ff1680611229575061122961120a565b80611237575060005460ff16155b6112725760405162461bcd60e51b815260040180806020018281038252602e8152602001806113e9602e913960400191505060405180910390fd5b600054610100900460ff1615801561129d576000805460ff1961ff0019909116610100171660011790555b60006112a7611206565b606580546001600160a01b0319166001600160a01b038316908117909155604051919250906000907f8be0079c531659141344cd1fd0a4f28419497f9722a3daafe3b4186f6b6457e0908290a3508015611307576000805461ff00191690555b50565b828054600181600116156101000203166002900490600052602060002090601f016020900481019282601f1061134b5782800160ff19823516178555611378565b82800160010185558215611378579182015b8281111561137857823582559160200191906001019061135d565b50611384929150611388565b5090565b610baa91905b80821115611384576000815560010161138e56fe4f776e61626c653a206e6577206f776e657220697320746865207a65726f20616464726573734f776e61626c653a2063616c6c6572206973206e6f7420746865206f776e6572436f6e747261637420696e7374616e63652068617320616c7265616479206265656e20696e697469616c697a6564a264697066735822122035613324a5fd01afd83b270ea7bb1e99a267e1051d0efbcbdc4b59889800295864736f6c634300060200336080604052604051610a0a380380610a0a8339818101604052606081101561002657600080fd5b8151602083015160408085018051915193959294830192918464010000000082111561005157600080fd5b90830190602082018581111561006657600080fd5b825164010000000081118282018810171561008057600080fd5b82525081516020918201929091019080838360005b838110156100ad578181015183820152602001610095565b50505050905090810190601f1680156100da5780820380516001836020036101000a031916815260200191505b5060408181527f656970313936372e70726f78792e696d706c656d656e746174696f6e0000000082525190819003601c0190208693508492506000805160206109b483398151915260001990910114905061013157fe5b610143826001600160e01b0361026516565b8051156101fb576000826001600160a01b0316826040518082805190602001908083835b602083106101865780518252601f199092019160209182019101610167565b6001836020036101000a038019825116818451168082178552505050505050905001915050600060405180830381855af49150503d80600081146101e6576040519150601f19603f3d011682016040523d82523d6000602084013e6101eb565b606091505b50509050806101f957600080fd5b505b5050604080517f656970313936372e70726f78792e61646d696e00000000000000000000000000815290519081900360130190206000805160206109948339815191526000199091011461024b57fe5b61025d826001600160e01b036102c516565b505050610313565b610278816102d760201b61054e1760201c565b6102b35760405162461bcd60e51b81526004018080602001828103825260368152602001806109d46036913960400191505060405180910390fd5b6000805160206109b483398151915255565b60008051602061099483398151915255565b6000813f7fc5d2460186f7233c927e7db2dcc703c0e500b653ca82273b7bfad8045d85a47081811480159061030b57508115155b949350505050565b610672806103226000396000f3fe60806040526004361061004e5760003560e01c80633659cfe6146100655780634f1ef286146100985780635c60da1b146101185780638f28397014610149578063f851a4401461017c5761005d565b3661005d5761005b610191565b005b61005b610191565b34801561007157600080fd5b5061005b6004803603602081101561008857600080fd5b50356001600160a01b03166101ab565b61005b600480360360408110156100ae57600080fd5b6001600160a01b0382351691908101906040810160208201356401000000008111156100d957600080fd5b8201836020820111156100eb57600080fd5b8035906020019184600183028401116401000000008311171561010d57600080fd5b5090925090506101e5565b34801561012457600080fd5b5061012d610292565b604080516001600160a01b039092168252519081900360200190f35b34801561015557600080fd5b5061005b6004803603602081101561016c57600080fd5b50356001600160a01b03166102cf565b34801561018857600080fd5b5061012d610389565b6101996103b4565b6101a96101a4610414565b610439565b565b6101b361045d565b6001600160a01b0316336001600160a01b031614156101da576101d581610482565b6101e2565b6101e2610191565b50565b6101ed61045d565b6001600160a01b0316336001600160a01b031614156102855761020f83610482565b6000836001600160a01b031683836040518083838082843760405192019450600093509091505080830381855af49150503d806000811461026c576040519150601f19603f3d011682016040523d82523d6000602084013e610271565b606091505b505090508061027f57600080fd5b5061028d565b61028d610191565b505050565b600061029c61045d565b6001600160a01b0316336001600160a01b031614156102c4576102bd610414565b90506102cc565b6102cc610191565b90565b6102d761045d565b6001600160a01b0316336001600160a01b031614156101da576001600160a01b0381166103355760405162461bcd60e51b815260040180806020018281038252603a81526020018061058b603a913960400191505060405180910390fd5b7f7e644d79422f17c01e4894b5f4f588d331ebfa28653d42ae832dc59e38c9798f61035e61045d565b604080516001600160a01b03928316815291841660208301528051918290030190a16101d5816104c2565b600061039361045d565b6001600160a01b0316336001600160a01b031614156102c4576102bd61045d565b6103bc61045d565b6001600160a01b0316336001600160a01b0316141561040c5760405162461bcd60e51b81526004018080602001828103825260428152602001806105fb6042913960600191505060405180910390fd5b6101a96101a9565b7f360894a13ba1a3210667c828492db98dca3e2076cc3735a920a3ca505d382bbc5490565b3660008037600080366000845af43d6000803e808015610458573d6000f35b3d6000fd5b7fb53127684a568b3173ae13b9f8a6016e243e63b6e8ee1178d6a717850b5d61035490565b61048b816104e6565b6040516001600160a01b038216907fbc7cd75a20ee27fd9adebab32041f755214dbc6bffa90cc0225b39da2e5c2d3b90600090a250565b7fb53127684a568b3173ae13b9f8a6016e243e63b6e8ee1178d6a717850b5d610355565b6104ef8161054e565b61052a5760405162461bcd60e51b81526004018080602001828103825260368152602001806105c56036913960400191505060405180910390fd5b7f360894a13ba1a3210667c828492db98dca3e2076cc3735a920a3ca505d382bbc55565b6000813f7fc5d2460186f7233c927e7db2dcc703c0e500b653ca82273b7bfad8045d85a47081811480159061058257508115155b94935050505056fe5472616e73706172656e745570677261646561626c6550726f78793a206e65772061646d696e20697320746865207a65726f20616464726573735570677261646561626c6550726f78793a206e657720696d706c656d656e746174696f6e206973206e6f74206120636f6e74726163745472616e73706172656e745570677261646561626c6550726f78793a2061646d696e2063616e6e6f742066616c6c6261636b20746f2070726f787920746172676574a2646970667358221220a9d49c3c9d5ca2168de62e73e4a4e56a3b251465184315a5b9c96dd1237d4b6964736f6c63430006020033b53127684a568b3173ae13b9f8a6016e243e63b6e8ee1178d6a717850b5d6103360894a13ba1a3210667c828492db98dca3e2076cc3735a920a3ca505d382bbc5570677261646561626c6550726f78793a206e657720696d706c656d656e746174696f6e206973206e6f74206120636f6e7472616374608060405234801561001057600080fd5b50611b1a806100206000396000f3fe608060405234801561001057600080fd5b506004361061010b5760003560e01c80634c2ae66d116100a2578063a023cf6911610071578063a023cf6914610438578063c0c53b8b14610440578063c73e835c14610478578063f2fde38b146104e6578063fc683a091461050c5761010b565b80634c2ae66d146103e85780635b999a381461040e578063715018a6146104285780638da5cb5b146104305761010b565b80631d6d32ba116100de5780631d6d32ba146103955780631d8e2f581461039d578063204e1c7a146103a5578063209df0fa146103cb5761010b565b80630cc7847614610110578063149adf5814610134578063164f25bf146102175780631692f21f146102d7575b600080fd5b61011861053a565b604080516001600160a01b039092168252519081900360200190f35b6101a26004803603602081101561014a57600080fd5b810190602081018135600160201b81111561016457600080fd5b82018360208201111561017657600080fd5b803590602001918460018302840111600160201b8311171561019757600080fd5b509092509050610549565b6040805160208082528351818301528351919283929083019185019080838360005b838110156101dc5781810151838201526020016101c4565b50505050905090810190601f1680156102095780820380516001836020036101000a031916815260200191505b509250505060405180910390f35b6102d56004803603604081101561022d57600080fd5b810190602081018135600160201b81111561024757600080fd5b82018360208201111561025957600080fd5b803590602001918460018302840111600160201b8311171561027a57600080fd5b919390929091602081019035600160201b81111561029757600080fd5b8201836020820111156102a957600080fd5b803590602001918460018302840111600160201b831117156102ca57600080fd5b5090925090506106b3565b005b6102d5600480360360408110156102ed57600080fd5b810190602081018135600160201b81111561030757600080fd5b82018360208201111561031957600080fd5b803590602001918460018302840111600160201b8311171561033a57600080fd5b919390929091602081019035600160201b81111561035757600080fd5b82018360208201111561036957600080fd5b803590602001918460018302840111600160201b8311171561038a57600080fd5b509092509050610b24565b6101a2610e72565b610118610fa7565b610118600480360360208110156103bb57600080fd5b50356001600160a01b0316610fb6565b6102d5600480360360208110156103e157600080fd5b503561102a565b610118600480360360208110156103fe57600080fd5b50356001600160a01b03166111a6565b6104166111e7565b60408051918252519081900360200190f35b6102d561125d565b6101186112ff565b61041661130e565b6102d56004803603606081101561045657600080fd5b506001600160a01b038135811691602081013582169160409091013516611314565b6102d56004803603602081101561048e57600080fd5b810190602081018135600160201b8111156104a857600080fd5b8201836020820111156104ba57600080fd5b803590602001918460018302840111600160201b831117156104db57600080fd5b509092509050611450565b6102d5600480360360208110156104fc57600080fd5b50356001600160a01b03166116ba565b6102d56004803603604081101561052257600080fd5b506001600160a01b03813581169160200135166117b3565b6099546001600160a01b031681565b6098546040516302935beb60e31b8152602060048201908152602482018490526060926001600160a01b03169163149adf589186918691908190604401848480828437600081840152601f19601f820116905080830192505050935050505060006040518083038186803b1580156105c057600080fd5b505afa1580156105d4573d6000803e3d6000fd5b505050506040513d6000823e601f3d908101601f1916820160405260208110156105fd57600080fd5b8101908080516040519392919084600160201b82111561061c57600080fd5b90830190602082018581111561063157600080fd5b8251600160201b81118282018810171561064a57600080fd5b82525081516020918201929091019080838360005b8381101561067757818101518382015260200161065f565b50505050905090810190601f1680156106a45780820380516001836020036101000a031916815260200191505b50604052505050905092915050565b6106bb61181b565b6065546001600160a01b0390811691161461070b576040805162461bcd60e51b81526020600482018190526024820152600080516020611a97833981519152604482015290519081900360640190fd5b6098546040805163164f25bf60e01b815260048101918252604481018690526001600160a01b039092169163164f25bf9187918791879187919081906024810190606401878780828437600083820152601f01601f191690910184810383528581526020019050858580828437600081840152601f19601f8201169050808301925050509650505050505050600060405180830381600087803b1580156107b157600080fd5b505af11580156107c5573d6000803e3d6000fd5b5050609854604051630c822d7f60e41b815260206004820190815260248201889052600094506001600160a01b03909216925063c822d7f0918891889190819060440184848082843760008382015260408051601f909201601f1916909301965091945090925050508083038186803b15801561084157600080fd5b505afa158015610855573d6000803e3d6000fd5b505050506040513d604081101561086b57600080fd5b5051905060018115151461087b57fe5b606085858080601f016020809104026020016040519081016040528093929190818152602001838380828437600092019190915250506098546040516302935beb60e31b8152602060048201908152602482018b90529495506060946001600160a01b03909216935063149adf5892508a918a918190604401848480828437600081840152601f19601f820116905080830192505050935050505060006040518083038186803b15801561092e57600080fd5b505afa158015610942573d6000803e3d6000fd5b505050506040513d6000823e601f3d908101601f19168201604052602081101561096b57600080fd5b8101908080516040519392919084600160201b82111561098a57600080fd5b90830190602082018581111561099f57600080fd5b8251600160201b8111828201881017156109b857600080fd5b82525081516020918201929091019080838360005b838110156109e55781810151838201526020016109cd565b50505050905090810190601f168015610a125780820380516001836020036101000a031916815260200191505b5060405250505090507f3fdde72950e6d9c53073a94114bea65c19a2076d1d4ff9390a70519dcbff22dd8282604051808060200180602001838103835285818151815260200191508051906020019080838360005b83811015610a7f578181015183820152602001610a67565b50505050905090810190601f168015610aac5780820380516001836020036101000a031916815260200191505b50838103825284518152845160209182019186019080838360005b83811015610adf578181015183820152602001610ac7565b50505050905090810190601f168015610b0c5780820380516001836020036101000a031916815260200191505b5094505050505060405180910390a150505050505050565b610b2c61181b565b6065546001600160a01b03908116911614610b7c576040805162461bcd60e51b81526020600482018190526024820152600080516020611a97833981519152604482015290519081900360640190fd5b60985460408051631692f21f60e01b815260048101918252604481018690526001600160a01b0390921691631692f21f9187918791879187919081906024810190606401878780828437600083820152601f01601f191690910184810383528581526020019050858580828437600081840152601f19601f8201169050808301925050509650505050505050600060405180830381600087803b158015610c2257600080fd5b505af1158015610c36573d6000803e3d6000fd5b50506098546040516302935beb60e31b815260206004820190815260248201889052606094506001600160a01b03909216925063149adf589188918891908190604401848480828437600081840152601f19601f820116905080830192505050935050505060006040518083038186803b158015610cb357600080fd5b505afa158015610cc7573d6000803e3d6000fd5b505050506040513d6000823e601f3d908101601f191682016040526020811015610cf057600080fd5b8101908080516040519392919084600160201b821115610d0f57600080fd5b908301906020820185811115610d2457600080fd5b8251600160201b811182820188101715610d3d57600080fd5b82525081516020918201929091019080838360005b83811015610d6a578181015183820152602001610d52565b50505050905090810190601f168015610d975780820380516001836020036101000a031916815260200191505b5060405250505090507f031e185f158a37b9e948528f98430fe8a62eec8309644711b009aa0bfae965c185858360405180806020018060200183810383528686828181526020019250808284376000838201819052601f909101601f191690920185810384528651815286516020918201939188019250908190849084905b83811015610e2e578181015183820152602001610e16565b50505050905090810190601f168015610e5b5780820380516001836020036101000a031916815260200191505b509550505050505060405180910390a15050505050565b60985460408051630eb6995d60e11b815290516060926001600160a01b031691631d6d32ba916004808301926000929190829003018186803b158015610eb757600080fd5b505afa158015610ecb573d6000803e3d6000fd5b505050506040513d6000823e601f3d908101601f191682016040526020811015610ef457600080fd5b8101908080516040519392919084600160201b821115610f1357600080fd5b908301906020820185811115610f2857600080fd5b8251600160201b811182820188101715610f4157600080fd5b82525081516020918201929091019080838360005b83811015610f6e578181015183820152602001610f56565b50505050905090810190601f168015610f9b5780820380516001836020036101000a031916815260200191505b50604052505050905090565b609b546001600160a01b031681565b600080829050806001600160a01b0316635c60da1b6040518163ffffffff1660e01b8152600401602060405180830381600087803b158015610ff757600080fd5b505af115801561100b573d6000803e3d6000fd5b505050506040513d602081101561102157600080fd5b50519392505050565b61103261181b565b6065546001600160a01b03908116911614611082576040805162461bcd60e51b81526020600482018190526024820152600080516020611a97833981519152604482015290519081900360640190fd5b609a546040805163104ef87d60e11b81526004810184905290516001600160a01b039092169163209df0fa916024808201926020929091908290030181600087803b1580156110d057600080fd5b505af11580156110e4573d6000803e3d6000fd5b505050506040513d60208110156110fa57600080fd5b5050609a546040805163a023cf6960e01b815290516001600160a01b039092169163a023cf6991600480820192602092909190829003018186803b15801561114157600080fd5b505afa158015611155573d6000803e3d6000fd5b505050506040513d602081101561116b57600080fd5b5051609c556040805182815290517f5443a9b3a4f844af7ea1bbffa88c16f6f6c35f174ae032da718b6285c6be869c9181900360200190a150565b600080829050806001600160a01b031663f851a4406040518163ffffffff1660e01b8152600401602060405180830381600087803b158015610ff757600080fd5b609a546040805163a023cf6960e01b815290516000926001600160a01b03169163a023cf69916004808301926020929190829003018186803b15801561122c57600080fd5b505afa158015611240573d6000803e3d6000fd5b505050506040513d602081101561125657600080fd5b5051905090565b61126561181b565b6065546001600160a01b039081169116146112b5576040805162461bcd60e51b81526020600482018190526024820152600080516020611a97833981519152604482015290519081900360640190fd5b6065546040516000916001600160a01b0316907f8be0079c531659141344cd1fd0a4f28419497f9722a3daafe3b4186f6b6457e0908390a3606580546001600160a01b0319169055565b6065546001600160a01b031690565b609c5481565b600054610100900460ff168061132d575061132d61181f565b8061133b575060005460ff16155b6113765760405162461bcd60e51b815260040180806020018281038252602e815260200180611ab7602e913960400191505060405180910390fd5b600054610100900460ff161580156113a1576000805460ff1961ff0019909116610100171660011790555b6113a9611825565b6113b2826116ba565b609980546001600160a01b038087166001600160a01b031992831681179384905560988054841694831694909417909355609b805491871691831682179055609a8054909216811790915560408051928352602083019190915280517f81bc37599d8daaee75b12342129cc1b062c2f8aa7e7ac6958fba02c558b859899281900390910190a1801561144a576000805461ff00191690555b50505050565b609854604051633ecf991160e21b8152602060048201908152602482018490526001600160a01b039092169163fb3e644491859185918190604401848480828437600081840152601f19601f8201169050808301925050509350505050600060405180830381600087803b1580156114c757600080fd5b505af11580156114db573d6000803e3d6000fd5b505050506060609860009054906101000a90046001600160a01b03166001600160a01b0316631d6d32ba6040518163ffffffff1660e01b815260040160006040518083038186803b15801561152f57600080fd5b505afa158015611543573d6000803e3d6000fd5b505050506040513d6000823e601f3d908101601f19168201604052602081101561156c57600080fd5b8101908080516040519392919084600160201b82111561158b57600080fd5b9083019060208201858111156115a057600080fd5b8251600160201b8111828201881017156115b957600080fd5b82525081516020918201929091019080838360005b838110156115e65781810151838201526020016115ce565b50505050905090810190601f1680156116135780820380516001836020036101000a031916815260200191505b5060405250505090507f365ad25db963c5dbd43d3f4aa610e4a9ffd3bb23dae3841d9dbad208c212bee1816040518080602001828103825283818151815260200191508051906020019080838360005b8381101561167b578181015183820152602001611663565b50505050905090810190601f1680156116a85780820380516001836020036101000a031916815260200191505b509250505060405180910390a1505050565b6116c261181b565b6065546001600160a01b03908116911614611712576040805162461bcd60e51b81526020600482018190526024820152600080516020611a97833981519152604482015290519081900360640190fd5b6001600160a01b0381166117575760405162461bcd60e51b8152600401808060200182810382526026815260200180611a716026913960400191505060405180910390fd5b6065546040516001600160a01b038084169216907f8be0079c531659141344cd1fd0a4f28419497f9722a3daafe3b4186f6b6457e090600090a3606580546001600160a01b0319166001600160a01b0392909216919091179055565b60408051631b2ce7f360e11b81526001600160a01b03838116600483015291518492831691633659cfe691602480830192600092919082900301818387803b1580156117fe57600080fd5b505af1158015611812573d6000803e3d6000fd5b50505050505050565b3390565b303b1590565b600054610100900460ff168061183e575061183e61181f565b8061184c575060005460ff16155b6118875760405162461bcd60e51b815260040180806020018281038252602e815260200180611ab7602e913960400191505060405180910390fd5b600054610100900460ff161580156118b2576000805460ff1961ff0019909116610100171660011790555b6118ba6118d7565b6118c2611977565b80156118d4576000805461ff00191690555b50565b600054610100900460ff16806118f057506118f061181f565b806118fe575060005460ff16155b6119395760405162461bcd60e51b815260040180806020018281038252602e815260200180611ab7602e913960400191505060405180910390fd5b600054610100900460ff161580156118c2576000805460ff1961ff00199091166101001716600117905580156118d4576000805461ff001916905550565b600054610100900460ff1680611990575061199061181f565b8061199e575060005460ff16155b6119d95760405162461bcd60e51b815260040180806020018281038252602e815260200180611ab7602e913960400191505060405180910390fd5b600054610100900460ff16158015611a04576000805460ff1961ff0019909116610100171660011790555b6000611a0e61181b565b606580546001600160a01b0319166001600160a01b038316908117909155604051919250906000907f8be0079c531659141344cd1fd0a4f28419497f9722a3daafe3b4186f6b6457e0908290a35080156118d4576000805461ff00191690555056fe4f776e61626c653a206e6577206f776e657220697320746865207a65726f20616464726573734f776e61626c653a2063616c6c6572206973206e6f7420746865206f776e6572436f6e747261637420696e7374616e63652068617320616c7265616479206265656e20696e697469616c697a6564a26469706673582212202faf04f29f0fd4cee7f2eba8a4e833ffa78bddf75e680c94932d8fb0107e3dbb64736f6c63430006020033a2646970667358221220c894978c4f3381e27eee3ca66e70c6776b004134c97c411bb30438fc0b54a28c64736f6c63430006020033",
  "source": "pragma solidity 0.6.2;\n\n/**\n * @title Registrar\n * @dev Create and interact with Registries.\n*/\n\nimport '../Registry/Registry.sol';\nimport '../RegistryToken/RegistryToken.sol';\nimport '../RegistryController/RegistryController.sol';\nimport \"../../node_modules/@openzeppelin/contracts-ethereum-package/contracts/math/SafeMath.sol\";\nimport \"../../node_modules/@openzeppelin/contracts/proxy/TransparentUpgradeableProxy.sol\";\n\ncontract Registrar { \n    using SafeMath for uint256;\n\n    struct RegistrarEntry {\n        address controller;\n        string domain;\n        string registryType;\n    }\n\n    Registry private registryLogic;\n    TransparentUpgradeableProxy private registryProxy;\n    Registry private registryProxyInstance;\n\n    RegistryToken private registryTokenProxy;\n    \n    RegistryController private registryControllerLogic;\n    TransparentUpgradeableProxy private registryControllerProxy;\n\n    mapping (string => RegistrarEntry) private registryMap;\n    address[] public registrar;\n\n    /// @notice Emitted when a new Registry is added to the Registrar.\n    event RegistryCreated(string domain, string ref, string registryType, uint256 stakePrice, address registryToken, address registry, address registryController);\n\n    /**\n     * @notice Creates a new Registry and associated Entry in the Registrar.\n     * @param _domain The primary name used to represent a particular Registry. \n     * @param _ref The primary reference that a Registry links to. This can be any type of content and is typically used to reference an index or url.\n     * @param _registryType The Registry's Type. Registry Types are defined globally at the Registrar and used to categorize Registries.\n     * @param _stakePrice The amount of Infinity Token required to register a new Entry in the Registry. \n     * @param _registryTokenProxyAddress The address of the Registry's Token. Registry Tokens are issued upon staking Infinity Token to transfer the ownership of a Registry Entry.\n     */\n\n    function createRegistry (\n        string memory _domain,\n        string memory _ref,\n        string memory _registryType,\n        uint256 _stakePrice,\n        address _owner,\n        address payable _registryTokenProxyAddress)\n        public\n    {\n        registryTokenProxy = RegistryToken(_registryTokenProxyAddress);\n\n        registryLogic = new Registry();\n        bytes memory registryData = abi.encodeWithSignature(\"initialize(string,string,string,address)\",_domain,_ref,_registryType,address(registryTokenProxy));\n        registryProxy = new TransparentUpgradeableProxy(\n            address(registryLogic),\n            msg.sender,\n            registryData\n        );\n\n        registryControllerLogic = new RegistryController();\n        bytes memory controllerData = abi.encodeWithSignature(\"initialize(address,address,address)\",address(registryProxy),address(registryTokenProxy),_owner);\n        registryControllerProxy = new TransparentUpgradeableProxy(\n            address(registryControllerLogic),\n            msg.sender,\n            controllerData\n        );\n\n        registryProxyInstance = Registry(address(registryProxy));\n        registryProxyInstance.transferOwnership(address(registryControllerProxy));\n        \n        registryMap[_domain].controller = address(registryControllerProxy);\n        registryMap[_domain].domain = _domain;\n        registryMap[_domain].registryType = _registryType;\n\n        registrar.push(registryMap[_domain].controller);\n\n        emit RegistryCreated( _domain, _ref, _registryType, _stakePrice, address(registryTokenProxy), address(registryProxy), address(registryControllerProxy));\n    }\n\n    function getRegistryOwner() external view returns(address) {\n        return registryProxyInstance.owner();\n    }\n\n    /**\n     * @notice Returns the the number of Registries in the Registrar as an interger. \n     */\n\n    function getRegistrarLength() public view returns (uint256) {\n        return registrar.length;\n    }\n\n    /**\n     * @notice Returns the address of a Registry Controller by providing its domain as a string.\n     * @param _domain The primary name used to represent a particular Registry. \n     */\n\n    function getRegistryController(string memory _domain) public view returns (address) {\n        return registryMap[_domain].controller;\n    }\n\n    /**\n     * @notice Returns the Type of a Registry by providing its domain as a string.\n     * @param _domain The primary name used to represent a particular Registry. \n     */\n\n    function getRegistryType(string memory _domain) public view returns (string memory) {\n        return registryMap[_domain].registryType;\n    }\n\n    function getTransparentProxyAdmin(address payable _transparentProxyAddress) public returns (address) {\n        TransparentUpgradeableProxy transparentProxy;\n        transparentProxy = TransparentUpgradeableProxy(_transparentProxyAddress);\n        return transparentProxy.admin();\n    }\n}",
  "sourcePath": "/Users/neo/Code/ZNS/contracts/Registrar/Registrar.sol",
  "compiler": {
    "name": "solc",
    "version": "0.6.2+commit.bacdbe57.Emscripten.clang"
  },
  "schemaVersion": "3.2.3",
  "updatedAt": "2020-09-24T17:02:54.492Z",
  "networkType": "ethereum",
  "devdoc": {
    "methods": {
      "createRegistry(string,string,string,uint256,address,address)": {
        "params": {
          "_domain": "The primary name used to represent a particular Registry. ",
          "_ref": "The primary reference that a Registry links to. This can be any type of content and is typically used to reference an index or url.",
          "_registryTokenProxyAddress": "The address of the Registry's Token. Registry Tokens are issued upon staking Infinity Token to transfer the ownership of a Registry Entry.",
          "_registryType": "The Registry's Type. Registry Types are defined globally at the Registrar and used to categorize Registries.",
          "_stakePrice": "The amount of Infinity Token required to register a new Entry in the Registry. "
        }
      },
      "getRegistryController(string)": {
        "params": {
          "_domain": "The primary name used to represent a particular Registry. "
        }
      },
      "getRegistryType(string)": {
        "params": {
          "_domain": "The primary name used to represent a particular Registry. "
        }
      }
    }
  },
  "userdoc": {
    "methods": {
      "createRegistry(string,string,string,uint256,address,address)": {
        "notice": "Creates a new Registry and associated Entry in the Registrar."
      },
      "getRegistrarLength()": {
        "notice": "Returns the the number of Registries in the Registrar as an interger. "
      },
      "getRegistryController(string)": {
        "notice": "Returns the address of a Registry Controller by providing its domain as a string."
      },
      "getRegistryType(string)": {
        "notice": "Returns the Type of a Registry by providing its domain as a string."
      }
    }
  }
}