{
  "contractName": "Registrar",
  "abi": [
    {
      "constant": true,
      "inputs": [
        {
          "name": "",
          "type": "uint256"
        }
      ],
      "name": "registrar",
      "outputs": [
        {
          "name": "registryContract",
          "type": "address"
        },
        {
          "name": "registryName",
          "type": "string"
        },
        {
          "name": "registryType",
          "type": "string"
        }
      ],
      "payable": false,
      "stateMutability": "view",
      "type": "function"
    },
    {
      "anonymous": false,
      "inputs": [
        {
          "indexed": false,
          "name": "registryContract",
          "type": "address"
        },
        {
          "indexed": false,
          "name": "registryName",
          "type": "string"
        },
        {
          "indexed": false,
          "name": "registryType",
          "type": "string"
        }
      ],
      "name": "registryAdded",
      "type": "event"
    },
    {
      "constant": false,
      "inputs": [
        {
          "name": "_registryName",
          "type": "string"
        },
        {
          "name": "_registryType",
          "type": "string"
        }
      ],
      "name": "createRegistry",
      "outputs": [
        {
          "name": "",
          "type": "address"
        },
        {
          "name": "",
          "type": "string"
        },
        {
          "name": "",
          "type": "string"
        }
      ],
      "payable": false,
      "stateMutability": "nonpayable",
      "type": "function"
    },
    {
      "constant": true,
      "inputs": [],
      "name": "getRegistrarLength",
      "outputs": [
        {
          "name": "",
          "type": "uint256"
        }
      ],
      "payable": false,
      "stateMutability": "view",
      "type": "function"
    },
    {
      "constant": true,
      "inputs": [],
      "name": "getRegistrarList",
      "outputs": [
        {
          "name": "",
          "type": "string"
        }
      ],
      "payable": false,
      "stateMutability": "view",
      "type": "function"
    }
  ],
  "bytecode": "0x608060405234801561001057600080fd5b50611213806100206000396000f3fe608060405234801561001057600080fd5b506004361061004c5760003560e01c806336368fb41461005157806337c3a7da146100d45780639433fcbc146100f257806394541af014610238575b600080fd5b6100596104a2565b6040518080602001828103825283818151815260200191508051906020019080838360005b8381101561009957808201518184015260208101905061007e565b50505050905090810190601f1680156100c65780820380516001836020036101000a031916815260200191505b509250505060405180910390f35b6100dc610586565b6040518082815260200191505060405180910390f35b61011e6004803603602081101561010857600080fd5b8101908080359060200190929190505050610593565b604051808473ffffffffffffffffffffffffffffffffffffffff1673ffffffffffffffffffffffffffffffffffffffff1681526020018060200180602001838103835285818151815260200191508051906020019080838360005b83811015610194578082015181840152602081019050610179565b50505050905090810190601f1680156101c15780820380516001836020036101000a031916815260200191505b50838103825284818151815260200191508051906020019080838360005b838110156101fa5780820151818401526020810190506101df565b50505050905090810190601f1680156102275780820380516001836020036101000a031916815260200191505b509550505050505060405180910390f35b6103886004803603604081101561024e57600080fd5b810190808035906020019064010000000081111561026b57600080fd5b82018360208201111561027d57600080fd5b8035906020019184600183028401116401000000008311171561029f57600080fd5b91908080601f016020809104026020016040519081016040528093929190818152602001838380828437600081840152601f19601f8201169050808301925050505050505091929192908035906020019064010000000081111561030257600080fd5b82018360208201111561031457600080fd5b8035906020019184600183028401116401000000008311171561033657600080fd5b91908080601f016020809104026020016040519081016040528093929190818152602001838380828437600081840152601f19601f82011690508083019250505050505050919291929050505061071a565b604051808473ffffffffffffffffffffffffffffffffffffffff1673ffffffffffffffffffffffffffffffffffffffff1681526020018060200180602001838103835285818151815260200191508051906020019080838360005b838110156103fe5780820151818401526020810190506103e3565b50505050905090810190601f16801561042b5780820380516001836020036101000a031916815260200191505b50838103825284818151815260200191508051906020019080838360005b83811015610464578082015181840152602081019050610449565b50505050905090810190601f1680156104915780820380516001836020036101000a031916815260200191505b509550505050505060405180910390f35b60608060008090505b60018054905081101561057e57600181815481106104c557fe5b90600052602060002090600302016001018054600181600116156101000203166002900480601f01602080910402602001604051908101604052809291908181526020018280546001816001161561010002031660029004801561056a5780601f1061053f5761010080835404028352916020019161056a565b820191906000526020600020905b81548152906001019060200180831161054d57829003601f168201915b5050505050915080806001019150506104ab565b508091505090565b6000600180549050905090565b600181815481106105a057fe5b90600052602060002090600302016000915090508060000160009054906101000a900473ffffffffffffffffffffffffffffffffffffffff1690806001018054600181600116156101000203166002900480601f0160208091040260200160405190810160405280929190818152602001828054600181600116156101000203166002900480156106725780601f1061064757610100808354040283529160200191610672565b820191906000526020600020905b81548152906001019060200180831161065557829003601f168201915b505050505090806002018054600181600116156101000203166002900480601f0160208091040260200160405190810160405280929190818152602001828054600181600116156101000203166002900480156107105780601f106106e557610100808354040283529160200191610710565b820191906000526020600020905b8154815290600101906020018083116106f357829003601f168201915b5050505050905083565b6000606080600080866040518082805190602001908083835b602083106107565780518252602082019150602081019050602083039250610733565b6001836020036101000a03801982511681845116808217855250505050505090500191505090815260200160405180910390209050600060405161079990610da7565b604051809103906000f0801580156107b5573d6000803e3d6000fd5b5090508073ffffffffffffffffffffffffffffffffffffffff16637029144c88886040518363ffffffff1660e01b8152600401808060200180602001838103835285818151815260200191508051906020019080838360005b8381101561082957808201518184015260208101905061080e565b50505050905090810190601f1680156108565780820380516001836020036101000a031916815260200191505b50838103825284818151815260200191508051906020019080838360005b8381101561088f578082015181840152602081019050610874565b50505050905090810190601f1680156108bc5780820380516001836020036101000a031916815260200191505b50945050505050600060405180830381600087803b1580156108dd57600080fd5b505af11580156108f1573d6000803e3d6000fd5b505050508073ffffffffffffffffffffffffffffffffffffffff166338cc48316040518163ffffffff1660e01b815260040160206040518083038186803b15801561093b57600080fd5b505afa15801561094f573d6000803e3d6000fd5b505050506040513d602081101561096557600080fd5b81019080805190602001909291905050508260000160006101000a81548173ffffffffffffffffffffffffffffffffffffffff021916908373ffffffffffffffffffffffffffffffffffffffff160217905550868260010190805190602001906109d0929190610db4565b50858260020190805190602001906109e9929190610db4565b50600182908060018154018082558091505090600182039060005260206000209060030201600090919290919091506000820160009054906101000a900473ffffffffffffffffffffffffffffffffffffffff168160000160006101000a81548173ffffffffffffffffffffffffffffffffffffffff021916908373ffffffffffffffffffffffffffffffffffffffff16021790555060018201816001019080546001816001161561010002031660029004610aa6929190610e34565b5060028201816002019080546001816001161561010002031660029004610ace929190610e34565b505050507f1db9576dbbdd63cc0e73a6a1055164d40d9ffcec8ec56a8c352e94fb5a66e10c8260000160009054906101000a900473ffffffffffffffffffffffffffffffffffffffff168888604051808473ffffffffffffffffffffffffffffffffffffffff1673ffffffffffffffffffffffffffffffffffffffff1681526020018060200180602001838103835285818151815260200191508051906020019080838360005b83811015610b90578082015181840152602081019050610b75565b50505050905090810190601f168015610bbd5780820380516001836020036101000a031916815260200191505b50838103825284818151815260200191508051906020019080838360005b83811015610bf6578082015181840152602081019050610bdb565b50505050905090810190601f168015610c235780820380516001836020036101000a031916815260200191505b509550505050505060405180910390a18160000160009054906101000a900473ffffffffffffffffffffffffffffffffffffffff168260010183600201818054600181600116156101000203166002900480601f016020809104026020016040519081016040528092919081815260200182805460018160011615610100020316600290048015610cf55780601f10610cca57610100808354040283529160200191610cf5565b820191906000526020600020905b815481529060010190602001808311610cd857829003601f168201915b50505050509150808054600181600116156101000203166002900480601f016020809104026020016040519081016040528092919081815260200182805460018160011615610100020316600290048015610d915780601f10610d6657610100808354040283529160200191610d91565b820191906000526020600020905b815481529060010190602001808311610d7457829003601f168201915b5050505050905094509450945050509250925092565b61030780610ee183390190565b828054600181600116156101000203166002900490600052602060002090601f016020900481019282601f10610df557805160ff1916838001178555610e23565b82800160010185558215610e23579182015b82811115610e22578251825591602001919060010190610e07565b5b509050610e309190610ebb565b5090565b828054600181600116156101000203166002900490600052602060002090601f016020900481019282601f10610e6d5780548555610eaa565b82800160010185558215610eaa57600052602060002091601f016020900482015b82811115610ea9578254825591600101919060010190610e8e565b5b509050610eb79190610ebb565b5090565b610edd91905b80821115610ed9576000816000905550600101610ec1565b5090565b9056fe608060405234801561001057600080fd5b506102e7806100206000396000f3fe608060405234801561001057600080fd5b50600436106100365760003560e01c806338cc48311461003b5780637029144c14610085575b600080fd5b6100436101d7565b604051808273ffffffffffffffffffffffffffffffffffffffff1673ffffffffffffffffffffffffffffffffffffffff16815260200191505060405180910390f35b6101d56004803603604081101561009b57600080fd5b81019080803590602001906401000000008111156100b857600080fd5b8201836020820111156100ca57600080fd5b803590602001918460018302840111640100000000831117156100ec57600080fd5b91908080601f016020809104026020016040519081016040528093929190818152602001838380828437600081840152601f19601f8201169050808301925050505050505091929192908035906020019064010000000081111561014f57600080fd5b82018360208201111561016157600080fd5b8035906020019184600183028401116401000000008311171561018357600080fd5b91908080601f016020809104026020016040519081016040528093929190818152602001838380828437600081840152601f19601f8201169050808301925050505050505091929192905050506101e4565b005b6000803090508091505090565b81600090805190602001906101fa929190610216565b508060019080519060200190610211929190610216565b505050565b828054600181600116156101000203166002900490600052602060002090601f016020900481019282601f1061025757805160ff1916838001178555610285565b82800160010185558215610285579182015b82811115610284578251825591602001919060010190610269565b5b5090506102929190610296565b5090565b6102b891905b808211156102b457600081600090555060010161029c565b5090565b9056fea165627a7a723058205e5d855760071ecc5843caebe1fd63d0274ed346953fde6ef24dd31d87fe509b0029a165627a7a7230582064c1e6633f9e0068cc98f7a724d0e740f92d23b0ed3d8a9a4b7ed00c8497d8590029",
  "source": "pragma solidity >=0.4.22 <0.7.0;\n\n/**\n * @title Registrar\n * @dev Create and interact with Registries\n*/\n\nimport './Registry.sol';\n\ncontract Registrar { \n\n    event registryAdded(address registryContract, string registryName, string registryType);\n\n    struct RegistrarEntry {\n        address registryContract;\n        string registryName;\n        string registryType;\n    }\n\n    mapping (string => RegistrarEntry) registryMap;\n    RegistrarEntry[] public registrar;\n\n    function createRegistry (\n        string memory _registryName,\n        string memory _registryType\n    ) public returns (address, string memory, string memory) {\n        RegistrarEntry storage registry = registryMap[_registryName];\n        \n        Registry registryContract = new Registry();\n        registryContract.init(_registryName, _registryType);\n\n        registry.registryContract = registryContract.getAddress();\n        registry.registryName = _registryName;\n        registry.registryType = _registryType;\n\n        registrar.push(registry);\n        emit registryAdded(registry.registryContract, _registryName, _registryType);\n\n        return (registry.registryContract, registry.registryName, registry.registryType);\n    }\n\n    function getRegistrarLength() public view returns (uint256) {\n        return registrar.length;\n    }\n\n    function getRegistrarList() public view returns (string memory) {\n        string memory result;\n        for (uint256 i=0; i<registrar.length; i++) {\n            result = registrar[i].registryName;\n        }\n        \n        return result;\n    }\n}",
  "sourcePath": "/Users/neo/Code/ZNS/contracts/Registrar.sol",
  "compiler": {
    "name": "solc",
    "version": "0.5.8+commit.23d335f2.Emscripten.clang"
  },
  "schemaVersion": "3.0.16",
  "updatedAt": "2020-08-23T04:56:26.014Z",
  "devdoc": {
    "methods": {}
  },
  "userdoc": {
    "methods": {}
  }
}