{
  "contractName": "Registry",
  "abi": [
    {
      "anonymous": false,
      "inputs": [
        {
          "indexed": false,
          "internalType": "string",
          "name": "subdomain",
          "type": "string"
        },
        {
          "indexed": false,
          "internalType": "string",
          "name": "ref",
          "type": "string"
        }
      ],
      "name": "RegistryEntryCreated",
      "type": "event"
    },
    {
      "anonymous": false,
      "inputs": [
        {
          "indexed": false,
          "internalType": "string",
          "name": "ref",
          "type": "string"
        }
      ],
      "name": "RegistryEntryRefSet",
      "type": "event"
    },
    {
      "anonymous": false,
      "inputs": [
        {
          "indexed": false,
          "internalType": "string",
          "name": "ref",
          "type": "string"
        }
      ],
      "name": "RegistryRefSet",
      "type": "event"
    },
    {
      "inputs": [],
      "name": "registryTokenAddress",
      "outputs": [
        {
          "internalType": "address payable",
          "name": "",
          "type": "address"
        }
      ],
      "stateMutability": "view",
      "type": "function"
    },
    {
      "inputs": [
        {
          "internalType": "string",
          "name": "_domain",
          "type": "string"
        },
        {
          "internalType": "string",
          "name": "_ref",
          "type": "string"
        },
        {
          "internalType": "string",
          "name": "_registryType",
          "type": "string"
        },
        {
          "internalType": "address payable",
          "name": "_registryToken",
          "type": "address"
        }
      ],
      "name": "init",
      "outputs": [
        {
          "internalType": "string",
          "name": "",
          "type": "string"
        },
        {
          "internalType": "string",
          "name": "",
          "type": "string"
        }
      ],
      "stateMutability": "nonpayable",
      "type": "function"
    },
    {
      "inputs": [
        {
          "internalType": "string",
          "name": "_subdomain",
          "type": "string"
        },
        {
          "internalType": "string",
          "name": "_ref",
          "type": "string"
        }
      ],
      "name": "createRegistryEntry",
      "outputs": [],
      "stateMutability": "nonpayable",
      "type": "function"
    },
    {
      "inputs": [
        {
          "internalType": "string",
          "name": "_newRef",
          "type": "string"
        }
      ],
      "name": "setRegistryRef",
      "outputs": [],
      "stateMutability": "nonpayable",
      "type": "function"
    },
    {
      "inputs": [
        {
          "internalType": "string",
          "name": "_subdomain",
          "type": "string"
        },
        {
          "internalType": "string",
          "name": "_newRef",
          "type": "string"
        }
      ],
      "name": "setRegistryEntryRef",
      "outputs": [],
      "stateMutability": "nonpayable",
      "type": "function"
    },
    {
      "inputs": [],
      "name": "getRegistry",
      "outputs": [
        {
          "internalType": "string",
          "name": "",
          "type": "string"
        },
        {
          "internalType": "string",
          "name": "",
          "type": "string"
        },
        {
          "internalType": "string",
          "name": "",
          "type": "string"
        },
        {
          "internalType": "address",
          "name": "",
          "type": "address"
        }
      ],
      "stateMutability": "view",
      "type": "function"
    },
    {
      "inputs": [],
      "name": "getRef",
      "outputs": [
        {
          "internalType": "string",
          "name": "",
          "type": "string"
        }
      ],
      "stateMutability": "view",
      "type": "function"
    },
    {
      "inputs": [
        {
          "internalType": "string",
          "name": "_subdomain",
          "type": "string"
        }
      ],
      "name": "getRegistryEntryRef",
      "outputs": [
        {
          "internalType": "string",
          "name": "",
          "type": "string"
        }
      ],
      "stateMutability": "view",
      "type": "function"
    },
    {
      "inputs": [
        {
          "internalType": "string",
          "name": "_subdomain",
          "type": "string"
        }
      ],
      "name": "isRegistered",
      "outputs": [
        {
          "internalType": "bool",
          "name": "",
          "type": "bool"
        },
        {
          "internalType": "uint256",
          "name": "",
          "type": "uint256"
        }
      ],
      "stateMutability": "view",
      "type": "function"
    }
  ],
  "bytecode": "0x608060405234801561001057600080fd5b50611651806100206000396000f3fe608060405234801561001057600080fd5b50600436106100925760003560e01c80631d6d32ba116100665780631d6d32ba1461075d5780631d8e2f58146107e05780635ab1bd531461082a578063c822d7f0146109b8578063fb3e644414610a9257610092565b8062b5ec6b14610097578063149adf5814610385578063164f25bf146104b95780631692f21f1461060b575b600080fd5b61029e600480360360808110156100ad57600080fd5b81019080803590602001906401000000008111156100ca57600080fd5b8201836020820111156100dc57600080fd5b803590602001918460018302840111640100000000831117156100fe57600080fd5b91908080601f016020809104026020016040519081016040528093929190818152602001838380828437600081840152601f19601f8201169050808301925050505050505091929192908035906020019064010000000081111561016157600080fd5b82018360208201111561017357600080fd5b8035906020019184600183028401116401000000008311171561019557600080fd5b91908080601f016020809104026020016040519081016040528093929190818152602001838380828437600081840152601f19601f820116905080830192505050505050509192919290803590602001906401000000008111156101f857600080fd5b82018360208201111561020a57600080fd5b8035906020019184600183028401116401000000008311171561022c57600080fd5b91908080601f016020809104026020016040519081016040528093929190818152602001838380828437600081840152601f19601f820116905080830192505050505050509192919290803573ffffffffffffffffffffffffffffffffffffffff169060200190929190505050610b4d565b604051808060200180602001838103835285818151815260200191508051906020019080838360005b838110156102e25780820151818401526020810190506102c7565b50505050905090810190601f16801561030f5780820380516001836020036101000a031916815260200191505b50838103825284818151815260200191508051906020019080838360005b8381101561034857808201518184015260208101905061032d565b50505050905090810190601f1680156103755780820380516001836020036101000a031916815260200191505b5094505050505060405180910390f35b61043e6004803603602081101561039b57600080fd5b81019080803590602001906401000000008111156103b857600080fd5b8201836020820111156103ca57600080fd5b803590602001918460018302840111640100000000831117156103ec57600080fd5b91908080601f016020809104026020016040519081016040528093929190818152602001838380828437600081840152601f19601f820116905080830192505050505050509192919290505050610bdf565b6040518080602001828103825283818151815260200191508051906020019080838360005b8381101561047e578082015181840152602081019050610463565b50505050905090810190601f1680156104ab5780820380516001836020036101000a031916815260200191505b509250505060405180910390f35b610609600480360360408110156104cf57600080fd5b81019080803590602001906401000000008111156104ec57600080fd5b8201836020820111156104fe57600080fd5b8035906020019184600183028401116401000000008311171561052057600080fd5b91908080601f016020809104026020016040519081016040528093929190818152602001838380828437600081840152601f19601f8201169050808301925050505050505091929192908035906020019064010000000081111561058357600080fd5b82018360208201111561059557600080fd5b803590602001918460018302840111640100000000831117156105b757600080fd5b91908080601f016020809104026020016040519081016040528093929190818152602001838380828437600081840152601f19601f820116905080830192505050505050509192919290505050610ced565b005b61075b6004803603604081101561062157600080fd5b810190808035906020019064010000000081111561063e57600080fd5b82018360208201111561065057600080fd5b8035906020019184600183028401116401000000008311171561067257600080fd5b91908080601f016020809104026020016040519081016040528093929190818152602001838380828437600081840152601f19601f820116905080830192505050505050509192919290803590602001906401000000008111156106d557600080fd5b8201836020820111156106e757600080fd5b8035906020019184600183028401116401000000008311171561070957600080fd5b91908080601f016020809104026020016040519081016040528093929190818152602001838380828437600081840152601f19601f820116905080830192505050505050509192919290505050610f51565b005b6107656110fa565b6040518080602001828103825283818151815260200191508051906020019080838360005b838110156107a557808201518184015260208101905061078a565b50505050905090810190601f1680156107d25780820380516001836020036101000a031916815260200191505b509250505060405180910390f35b6107e861119c565b604051808273ffffffffffffffffffffffffffffffffffffffff1673ffffffffffffffffffffffffffffffffffffffff16815260200191505060405180910390f35b6108326111c2565b604051808060200180602001806020018573ffffffffffffffffffffffffffffffffffffffff1673ffffffffffffffffffffffffffffffffffffffff168152602001848103845288818151815260200191508051906020019080838360005b838110156108ac578082015181840152602081019050610891565b50505050905090810190601f1680156108d95780820380516001836020036101000a031916815260200191505b50848103835287818151815260200191508051906020019080838360005b838110156109125780820151818401526020810190506108f7565b50505050905090810190601f16801561093f5780820380516001836020036101000a031916815260200191505b50848103825286818151815260200191508051906020019080838360005b8381101561097857808201518184015260208101905061095d565b50505050905090810190601f1680156109a55780820380516001836020036101000a031916815260200191505b5097505050505050505060405180910390f35b610a71600480360360208110156109ce57600080fd5b81019080803590602001906401000000008111156109eb57600080fd5b8201836020820111156109fd57600080fd5b80359060200191846001830284011164010000000083111715610a1f57600080fd5b91908080601f016020809104026020016040519081016040528093929190818152602001838380828437600081840152601f19601f8201169050808301925050505050505091929192905050506113d6565b60405180831515151581526020018281526020019250505060405180910390f35b610b4b60048036036020811015610aa857600080fd5b8101908080359060200190640100000000811115610ac557600080fd5b820183602082011115610ad757600080fd5b80359060200191846001830284011164010000000083111715610af957600080fd5b91908080601f016020809104026020016040519081016040528093929190818152602001838380828437600081840152601f19601f8201169050808301925050505050505091929192905050506114a2565b005b6060808560009080519060200190610b66929190611576565b508460019080519060200190610b7d929190611576565b508360029080519060200190610b94929190611576565b5082600360006101000a81548173ffffffffffffffffffffffffffffffffffffffff021916908373ffffffffffffffffffffffffffffffffffffffff16021790555094509492505050565b60606004826040518082805190602001908083835b60208310610c175780518252602082019150602081019050602083039250610bf4565b6001836020036101000a03801982511681845116808217855250505050505090500191505090815260200160405180910390206000018054600181600116156101000203166002900480601f016020809104026020016040519081016040528092919081815260200182805460018160011615610100020316600290048015610ce15780601f10610cb657610100808354040283529160200191610ce1565b820191906000526020600020905b815481529060010190602001808311610cc457829003601f168201915b50505050509050919050565b6000610cf8836113d6565b50905080610f4c57816004846040518082805190602001908083835b60208310610d375780518252602082019150602081019050602083039250610d14565b6001836020036101000a03801982511681845116808217855250505050505090500191505090815260200160405180910390206000019080519060200190610d80929190611576565b5060006004846040518082805190602001908083835b60208310610db95780518252602082019150602081019050602083039250610d96565b6001836020036101000a038019825116818451168082178552505050505050905001915050908152602001604051809103902060010160006101000a81548160ff021916908315150217905550600583908060018154018082558091505060019003906000526020600020016000909190919091509080519060200190610e41929190611576565b507ff49f5d228081cdcb24c2f4939e0f2236ab3121fd710df20a22d9e2130244b61d8383604051808060200180602001838103835285818151815260200191508051906020019080838360005b83811015610ea9578082015181840152602081019050610e8e565b50505050905090810190601f168015610ed65780820380516001836020036101000a031916815260200191505b50838103825284818151815260200191508051906020019080838360005b83811015610f0f578082015181840152602081019050610ef4565b50505050905090810190601f168015610f3c5780820380516001836020036101000a031916815260200191505b5094505050505060405180910390a15b505050565b806004836040518082805190602001908083835b60208310610f885780518252602082019150602081019050602083039250610f65565b6001836020036101000a03801982511681845116808217855250505050505090500191505090815260200160405180910390206000019080519060200190610fd1929190611576565b507fe4bc8abccea03a84d1974cb45f8445c3bed2c0d18e9e38396166ff6f8a95875b6004836040518082805190602001908083835b602083106110295780518252602082019150602081019050602083039250611006565b6001836020036101000a038019825116818451168082178552505050505050905001915050908152602001604051809103902060000160405180806020018281038252838181546001816001161561010002031660029004815260200191508054600181600116156101000203166002900480156110e85780601f106110bd576101008083540402835291602001916110e8565b820191906000526020600020905b8154815290600101906020018083116110cb57829003601f168201915b50509250505060405180910390a15050565b606060018054600181600116156101000203166002900480601f0160208091040260200160405190810160405280929190818152602001828054600181600116156101000203166002900480156111925780601f1061116757610100808354040283529160200191611192565b820191906000526020600020905b81548152906001019060200180831161117557829003601f168201915b5050505050905090565b600360009054906101000a900473ffffffffffffffffffffffffffffffffffffffff1681565b606080606060008060016002600360009054906101000a900473ffffffffffffffffffffffffffffffffffffffff16838054600181600116156101000203166002900480601f0160208091040260200160405190810160405280929190818152602001828054600181600116156101000203166002900480156112865780601f1061125b57610100808354040283529160200191611286565b820191906000526020600020905b81548152906001019060200180831161126957829003601f168201915b50505050509350828054600181600116156101000203166002900480601f0160208091040260200160405190810160405280929190818152602001828054600181600116156101000203166002900480156113225780601f106112f757610100808354040283529160200191611322565b820191906000526020600020905b81548152906001019060200180831161130557829003601f168201915b50505050509250818054600181600116156101000203166002900480601f0160208091040260200160405190810160405280929190818152602001828054600181600116156101000203166002900480156113be5780601f10611393576101008083540402835291602001916113be565b820191906000526020600020905b8154815290600101906020018083116113a157829003601f168201915b50505050509150809050935093509350935090919293565b60008060008090505b60058054905081101561149157600581815481106113f957fe5b90600052602060002001604051808280546001816001161561010002031660029004801561145e5780601f1061143c57610100808354040283529182019161145e565b820191906000526020600020905b81548152906001019060200180831161144a575b505091505060405180910390208480519060200120141561148657600181925092505061149d565b6001810190506113df565b50600080809050915091505b915091565b80600190805190602001906114b8929190611576565b507fe6a3d4ec4f69ac853579fb0336181042ec4d0a21b32de1a92b6dd6a2f904f5a0600160405180806020018281038252838181546001816001161561010002031660029004815260200191508054600181600116156101000203166002900480156115655780601f1061153a57610100808354040283529160200191611565565b820191906000526020600020905b81548152906001019060200180831161154857829003601f168201915b50509250505060405180910390a150565b828054600181600116156101000203166002900490600052602060002090601f016020900481019282601f106115b757805160ff19168380011785556115e5565b828001600101855582156115e5579182015b828111156115e45782518255916020019190600101906115c9565b5b5090506115f291906115f6565b5090565b61161891905b808211156116145760008160009055506001016115fc565b5090565b9056fea26469706673582212208f95b891beb723e265264f26dc004e26ba7a45fedb8eefd94cea86d566ac266664736f6c63430006020033",
  "source": "pragma solidity ^0.6.0;\n\n/**\n * @title Registry\n * @dev Manages a Registry and it's entries.\n*/\n\nimport '../RegistryToken/RegistryToken.sol';\nimport '../Registry/Registry.sol';\nimport \"../../node_modules/openzeppelin-solidity/contracts/math/SafeMath.sol\";\n\ncontract Registry {\n    using SafeMath for uint256;\n\n    string domain;\n    string ref;\n    string registryType;\n    address payable public registryTokenAddress;\n\n    /// @notice Emitted when a new Registry is created.\n    event RegistryEntryCreated(string subdomain, string ref);\n\n    /// @notice Emitted when the Registry ref is set.\n    event RegistryRefSet(string ref);\n\n    /// @notice Emitted when the Registry entry ref is set.\n    event RegistryEntryRefSet(string ref);\n\n    struct RegistryEntry {\n        string ref;\n        bool isHuman;\n    }\n\n    mapping(string => RegistryEntry) registryEntryMap;\n    string[] registryEntries;\n\n    /**\n     * @notice Initializes a new Registry after construction.\n     * @param _domain The primary name used to represent the Registry. \n     * @param _ref The primary reference that a Registry links to. This can be any type of content and is typically used to reference an index or url.\n     * @param _registryType The Registry's Type. Registry Types are defined globally at the Registrar and used to categorize Registries.\n     * @param _registryToken The address of the Registry's Token. Registry Tokens are issued upon staking Infinity Token to transfer the ownership of a Registry Entry.\n     */\n\n    function init(\n        string memory _domain,\n        string memory _ref, \n        string memory _registryType, \n        address payable _registryToken)\n        public \n    returns (string memory, string memory) \n    {\n        domain = _domain;\n        ref = _ref;\n        registryType = _registryType;\n        registryTokenAddress = _registryToken;\n    }\n\n    // Add staking checks/logic here\n\n    /**\n     * @notice Creates a new entry in the Registry.\n     * @param _subdomain The subdomain to index the Registry.\n     * @param _ref The reference the Registry entry will point to.\n     */\n\n    function createRegistryEntry (\n        string memory _subdomain, \n        string memory _ref)\n        public\n    {\n        (bool _isRegistered, ) = isRegistered(_subdomain);\n        if(!_isRegistered) {\n            registryEntryMap[_subdomain].ref = _ref;\n            registryEntryMap[_subdomain].isHuman = false;\n            registryEntries.push(_subdomain);\n\n            emit RegistryEntryCreated(_subdomain, _ref);\n        }\n    }\n\n    /**\n     * @notice Sets the reference for the Registry.\n     * @param _newRef The new reference used for the Registry.\n     */\n\n    function setRegistryRef (string memory _newRef) public {\n        ref = _newRef;\n        emit RegistryRefSet(ref);\n    }\n\n    /**\n     * @notice Sets the subdomain for a Registry entry.\n     * @param _subdomain The subdomain to index the Registry entry.\n     */\n\n\n    function setRegistryEntryRef (string memory _subdomain, string memory _newRef) public {\n        registryEntryMap[_subdomain].ref = _newRef;\n        emit RegistryEntryRefSet(registryEntryMap[_subdomain].ref);\n    }\n\n    /**\n     * @notice Returns the domain, reference, type and RegistryToken address for a Registry. \n     */\n\n    function getRegistry() \n        public\n        view\n    returns(string memory, string memory, string memory, address)\n    {\n        return(domain, ref, registryType, registryTokenAddress);\n    }\n\n    /**\n     * @notice Returns the reference of a Registry.\n     */\n\n    function getRef()\n        public\n        view\n    returns (string memory)\n    {\n        return ref;\n    }\n\n    /**\n     * @notice Returns the Reference for an entry in the Registry.\n     * @param _subdomain The subdomain to index the Registry entry.\n     */\n\n    function getRegistryEntryRef (string memory _subdomain) \n        public \n        view \n    returns (string memory) {\n        return registryEntryMap[_subdomain].ref;\n    }\n\n    /**\n     * @notice Returns a boolean representing whether a subdomain is registered within the Registry.\n     * @param _subdomain The subdomain to index the Registry entry.\n     */\n\n    function isRegistered(string memory _subdomain)\n       public\n       view\n    returns(bool, uint256)\n    {\n        for (uint256 i = 0; i < registryEntries.length; i += 1){\n            if (keccak256(bytes(_subdomain)) == keccak256(bytes(registryEntries[i]))) return (true, i);\n        }\n        return (false, 0);\n    }\n}",
  "sourcePath": "/Users/neo/Code/ZNS/contracts/Registry/Registry.sol",
  "compiler": {
    "name": "solc",
    "version": "0.6.2+commit.bacdbe57.Emscripten.clang"
  },
  "schemaVersion": "3.2.3",
  "updatedAt": "2020-09-13T07:05:31.360Z",
  "devdoc": {
    "methods": {
      "createRegistryEntry(string,string)": {
        "params": {
          "_ref": "The reference the Registry entry will point to.",
          "_subdomain": "The subdomain to index the Registry."
        }
      },
      "getRegistryEntryRef(string)": {
        "params": {
          "_subdomain": "The subdomain to index the Registry entry."
        }
      },
      "init(string,string,string,address)": {
        "params": {
          "_domain": "The primary name used to represent the Registry. ",
          "_ref": "The primary reference that a Registry links to. This can be any type of content and is typically used to reference an index or url.",
          "_registryToken": "The address of the Registry's Token. Registry Tokens are issued upon staking Infinity Token to transfer the ownership of a Registry Entry.",
          "_registryType": "The Registry's Type. Registry Types are defined globally at the Registrar and used to categorize Registries."
        }
      },
      "isRegistered(string)": {
        "params": {
          "_subdomain": "The subdomain to index the Registry entry."
        }
      },
      "setRegistryEntryRef(string,string)": {
        "params": {
          "_subdomain": "The subdomain to index the Registry entry."
        }
      },
      "setRegistryRef(string)": {
        "params": {
          "_newRef": "The new reference used for the Registry."
        }
      }
    }
  },
  "userdoc": {
    "methods": {
      "createRegistryEntry(string,string)": {
        "notice": "Creates a new entry in the Registry."
      },
      "getRef()": {
        "notice": "Returns the reference of a Registry."
      },
      "getRegistry()": {
        "notice": "Returns the domain, reference, type and RegistryToken address for a Registry. "
      },
      "getRegistryEntryRef(string)": {
        "notice": "Returns the Reference for an entry in the Registry."
      },
      "init(string,string,string,address)": {
        "notice": "Initializes a new Registry after construction."
      },
      "isRegistered(string)": {
        "notice": "Returns a boolean representing whether a subdomain is registered within the Registry."
      },
      "setRegistryEntryRef(string,string)": {
        "notice": "Sets the subdomain for a Registry entry."
      },
      "setRegistryRef(string)": {
        "notice": "Sets the reference for the Registry."
      }
    }
  }
}