{
  "contractName": "Registry",
  "abi": [
    {
      "anonymous": false,
      "inputs": [
        {
          "indexed": false,
          "internalType": "string",
          "name": "subdomain",
          "type": "string"
        },
        {
          "indexed": false,
          "internalType": "string",
          "name": "ref",
          "type": "string"
        }
      ],
      "name": "RegistryEntryCreated",
      "type": "event"
    },
    {
      "anonymous": false,
      "inputs": [
        {
          "indexed": false,
          "internalType": "string",
          "name": "ref",
          "type": "string"
        }
      ],
      "name": "RegistryEntryRefSet",
      "type": "event"
    },
    {
      "anonymous": false,
      "inputs": [
        {
          "indexed": false,
          "internalType": "string",
          "name": "ref",
          "type": "string"
        }
      ],
      "name": "RegistryRefSet",
      "type": "event"
    },
    {
      "inputs": [],
      "name": "registryTokenAddress",
      "outputs": [
        {
          "internalType": "address payable",
          "name": "",
          "type": "address"
        }
      ],
      "stateMutability": "view",
      "type": "function"
    },
    {
      "inputs": [
        {
          "internalType": "string",
          "name": "_domain",
          "type": "string"
        },
        {
          "internalType": "string",
          "name": "_ref",
          "type": "string"
        },
        {
          "internalType": "string",
          "name": "_registryType",
          "type": "string"
        },
        {
          "internalType": "address payable",
          "name": "_registryToken",
          "type": "address"
        }
      ],
      "name": "init",
      "outputs": [
        {
          "internalType": "string",
          "name": "",
          "type": "string"
        },
        {
          "internalType": "string",
          "name": "",
          "type": "string"
        }
      ],
      "stateMutability": "nonpayable",
      "type": "function"
    },
    {
      "inputs": [
        {
          "internalType": "string",
          "name": "_subdomain",
          "type": "string"
        },
        {
          "internalType": "string",
          "name": "_ref",
          "type": "string"
        }
      ],
      "name": "createRegistryEntry",
      "outputs": [],
      "stateMutability": "nonpayable",
      "type": "function"
    },
    {
      "inputs": [
        {
          "internalType": "string",
          "name": "_newRef",
          "type": "string"
        }
      ],
      "name": "setRegistryRef",
      "outputs": [],
      "stateMutability": "nonpayable",
      "type": "function"
    },
    {
      "inputs": [
        {
          "internalType": "string",
          "name": "_subdomain",
          "type": "string"
        },
        {
          "internalType": "string",
          "name": "_newRef",
          "type": "string"
        }
      ],
      "name": "setRegistryEntryRef",
      "outputs": [],
      "stateMutability": "nonpayable",
      "type": "function"
    },
    {
      "inputs": [],
      "name": "getRegistry",
      "outputs": [
        {
          "internalType": "string",
          "name": "",
          "type": "string"
        },
        {
          "internalType": "string",
          "name": "",
          "type": "string"
        },
        {
          "internalType": "string",
          "name": "",
          "type": "string"
        },
        {
          "internalType": "address",
          "name": "",
          "type": "address"
        }
      ],
      "stateMutability": "view",
      "type": "function"
    },
    {
      "inputs": [],
      "name": "getRef",
      "outputs": [
        {
          "internalType": "string",
          "name": "",
          "type": "string"
        }
      ],
      "stateMutability": "view",
      "type": "function"
    },
    {
      "inputs": [
        {
          "internalType": "string",
          "name": "_subdomain",
          "type": "string"
        }
      ],
      "name": "getRegistryEntryRef",
      "outputs": [
        {
          "internalType": "string",
          "name": "",
          "type": "string"
        }
      ],
      "stateMutability": "view",
      "type": "function"
    },
    {
      "inputs": [
        {
          "internalType": "string",
          "name": "_subdomain",
          "type": "string"
        }
      ],
      "name": "isRegistered",
      "outputs": [
        {
          "internalType": "bool",
          "name": "",
          "type": "bool"
        },
        {
          "internalType": "uint256",
          "name": "",
          "type": "uint256"
        }
      ],
      "stateMutability": "view",
      "type": "function"
    },
    {
      "inputs": [],
      "name": "testFunction1",
      "outputs": [
        {
          "internalType": "string",
          "name": "",
          "type": "string"
        }
      ],
      "stateMutability": "view",
      "type": "function"
    },
    {
      "inputs": [],
      "name": "testFunction2",
      "outputs": [
        {
          "internalType": "string",
          "name": "",
          "type": "string"
        }
      ],
      "stateMutability": "view",
      "type": "function"
    },
    {
      "inputs": [],
      "name": "testFunction4",
      "outputs": [
        {
          "internalType": "string",
          "name": "",
          "type": "string"
        }
      ],
      "stateMutability": "view",
      "type": "function"
    }
  ],
  "bytecode": "0x608060405234801561001057600080fd5b5061197c806100206000396000f3fe608060405234801561001057600080fd5b50600436106100b35760003560e01c80633c289b53116100715780633c289b531461084b578063428b89f0146108ce5780635ab1bd5314610951578063b8fb063e14610adf578063c822d7f014610b62578063fb3e644414610c3c576100b3565b8062b5ec6b146100b8578063149adf58146103a6578063164f25bf146104da5780631692f21f1461062c5780631d6d32ba1461077e5780631d8e2f5814610801575b600080fd5b6102bf600480360360808110156100ce57600080fd5b81019080803590602001906401000000008111156100eb57600080fd5b8201836020820111156100fd57600080fd5b8035906020019184600183028401116401000000008311171561011f57600080fd5b91908080601f016020809104026020016040519081016040528093929190818152602001838380828437600081840152601f19601f8201169050808301925050505050505091929192908035906020019064010000000081111561018257600080fd5b82018360208201111561019457600080fd5b803590602001918460018302840111640100000000831117156101b657600080fd5b91908080601f016020809104026020016040519081016040528093929190818152602001838380828437600081840152601f19601f8201169050808301925050505050505091929192908035906020019064010000000081111561021957600080fd5b82018360208201111561022b57600080fd5b8035906020019184600183028401116401000000008311171561024d57600080fd5b91908080601f016020809104026020016040519081016040528093929190818152602001838380828437600081840152601f19601f820116905080830192505050505050509192919290803573ffffffffffffffffffffffffffffffffffffffff169060200190929190505050610cf7565b604051808060200180602001838103835285818151815260200191508051906020019080838360005b838110156103035780820151818401526020810190506102e8565b50505050905090810190601f1680156103305780820380516001836020036101000a031916815260200191505b50838103825284818151815260200191508051906020019080838360005b8381101561036957808201518184015260208101905061034e565b50505050905090810190601f1680156103965780820380516001836020036101000a031916815260200191505b5094505050505060405180910390f35b61045f600480360360208110156103bc57600080fd5b81019080803590602001906401000000008111156103d957600080fd5b8201836020820111156103eb57600080fd5b8035906020019184600183028401116401000000008311171561040d57600080fd5b91908080601f016020809104026020016040519081016040528093929190818152602001838380828437600081840152601f19601f820116905080830192505050505050509192919290505050610d89565b6040518080602001828103825283818151815260200191508051906020019080838360005b8381101561049f578082015181840152602081019050610484565b50505050905090810190601f1680156104cc5780820380516001836020036101000a031916815260200191505b509250505060405180910390f35b61062a600480360360408110156104f057600080fd5b810190808035906020019064010000000081111561050d57600080fd5b82018360208201111561051f57600080fd5b8035906020019184600183028401116401000000008311171561054157600080fd5b91908080601f016020809104026020016040519081016040528093929190818152602001838380828437600081840152601f19601f820116905080830192505050505050509192919290803590602001906401000000008111156105a457600080fd5b8201836020820111156105b657600080fd5b803590602001918460018302840111640100000000831117156105d857600080fd5b91908080601f016020809104026020016040519081016040528093929190818152602001838380828437600081840152601f19601f820116905080830192505050505050509192919290505050610e97565b005b61077c6004803603604081101561064257600080fd5b810190808035906020019064010000000081111561065f57600080fd5b82018360208201111561067157600080fd5b8035906020019184600183028401116401000000008311171561069357600080fd5b91908080601f016020809104026020016040519081016040528093929190818152602001838380828437600081840152601f19601f820116905080830192505050505050509192919290803590602001906401000000008111156106f657600080fd5b82018360208201111561070857600080fd5b8035906020019184600183028401116401000000008311171561072a57600080fd5b91908080601f016020809104026020016040519081016040528093929190818152602001838380828437600081840152601f19601f8201169050808301925050505050505091929192905050506110fb565b005b6107866112a4565b6040518080602001828103825283818151815260200191508051906020019080838360005b838110156107c65780820151818401526020810190506107ab565b50505050905090810190601f1680156107f35780820380516001836020036101000a031916815260200191505b509250505060405180910390f35b610809611346565b604051808273ffffffffffffffffffffffffffffffffffffffff1673ffffffffffffffffffffffffffffffffffffffff16815260200191505060405180910390f35b61085361136c565b6040518080602001828103825283818151815260200191508051906020019080838360005b83811015610893578082015181840152602081019050610878565b50505050905090810190601f1680156108c05780820380516001836020036101000a031916815260200191505b509250505060405180910390f35b6108d661140e565b6040518080602001828103825283818151815260200191508051906020019080838360005b838110156109165780820151818401526020810190506108fb565b50505050905090810190601f1680156109435780820380516001836020036101000a031916815260200191505b509250505060405180910390f35b61095961144b565b604051808060200180602001806020018573ffffffffffffffffffffffffffffffffffffffff1673ffffffffffffffffffffffffffffffffffffffff168152602001848103845288818151815260200191508051906020019080838360005b838110156109d35780820151818401526020810190506109b8565b50505050905090810190601f168015610a005780820380516001836020036101000a031916815260200191505b50848103835287818151815260200191508051906020019080838360005b83811015610a39578082015181840152602081019050610a1e565b50505050905090810190601f168015610a665780820380516001836020036101000a031916815260200191505b50848103825286818151815260200191508051906020019080838360005b83811015610a9f578082015181840152602081019050610a84565b50505050905090810190601f168015610acc5780820380516001836020036101000a031916815260200191505b5097505050505050505060405180910390f35b610ae761165f565b6040518080602001828103825283818151815260200191508051906020019080838360005b83811015610b27578082015181840152602081019050610b0c565b50505050905090810190601f168015610b545780820380516001836020036101000a031916815260200191505b509250505060405180910390f35b610c1b60048036036020811015610b7857600080fd5b8101908080359060200190640100000000811115610b9557600080fd5b820183602082011115610ba757600080fd5b80359060200191846001830284011164010000000083111715610bc957600080fd5b91908080601f016020809104026020016040519081016040528093929190818152602001838380828437600081840152601f19601f820116905080830192505050505050509192919290505050611701565b60405180831515151581526020018281526020019250505060405180910390f35b610cf560048036036020811015610c5257600080fd5b8101908080359060200190640100000000811115610c6f57600080fd5b820183602082011115610c8157600080fd5b80359060200191846001830284011164010000000083111715610ca357600080fd5b91908080601f016020809104026020016040519081016040528093929190818152602001838380828437600081840152601f19601f8201169050808301925050505050505091929192905050506117cd565b005b6060808560009080519060200190610d109291906118a1565b508460019080519060200190610d279291906118a1565b508360029080519060200190610d3e9291906118a1565b5082600360006101000a81548173ffffffffffffffffffffffffffffffffffffffff021916908373ffffffffffffffffffffffffffffffffffffffff16021790555094509492505050565b60606004826040518082805190602001908083835b60208310610dc15780518252602082019150602081019050602083039250610d9e565b6001836020036101000a03801982511681845116808217855250505050505090500191505090815260200160405180910390206000018054600181600116156101000203166002900480601f016020809104026020016040519081016040528092919081815260200182805460018160011615610100020316600290048015610e8b5780601f10610e6057610100808354040283529160200191610e8b565b820191906000526020600020905b815481529060010190602001808311610e6e57829003601f168201915b50505050509050919050565b6000610ea283611701565b509050806110f657816004846040518082805190602001908083835b60208310610ee15780518252602082019150602081019050602083039250610ebe565b6001836020036101000a03801982511681845116808217855250505050505090500191505090815260200160405180910390206000019080519060200190610f2a9291906118a1565b5060006004846040518082805190602001908083835b60208310610f635780518252602082019150602081019050602083039250610f40565b6001836020036101000a038019825116818451168082178552505050505050905001915050908152602001604051809103902060010160006101000a81548160ff021916908315150217905550600583908060018154018082558091505060019003906000526020600020016000909190919091509080519060200190610feb9291906118a1565b507ff49f5d228081cdcb24c2f4939e0f2236ab3121fd710df20a22d9e2130244b61d8383604051808060200180602001838103835285818151815260200191508051906020019080838360005b83811015611053578082015181840152602081019050611038565b50505050905090810190601f1680156110805780820380516001836020036101000a031916815260200191505b50838103825284818151815260200191508051906020019080838360005b838110156110b957808201518184015260208101905061109e565b50505050905090810190601f1680156110e65780820380516001836020036101000a031916815260200191505b5094505050505060405180910390a15b505050565b806004836040518082805190602001908083835b60208310611132578051825260208201915060208101905060208303925061110f565b6001836020036101000a0380198251168184511680821785525050505050509050019150509081526020016040518091039020600001908051906020019061117b9291906118a1565b507fe4bc8abccea03a84d1974cb45f8445c3bed2c0d18e9e38396166ff6f8a95875b6004836040518082805190602001908083835b602083106111d357805182526020820191506020810190506020830392506111b0565b6001836020036101000a038019825116818451168082178552505050505050905001915050908152602001604051809103902060000160405180806020018281038252838181546001816001161561010002031660029004815260200191508054600181600116156101000203166002900480156112925780601f1061126757610100808354040283529160200191611292565b820191906000526020600020905b81548152906001019060200180831161127557829003601f168201915b50509250505060405180910390a15050565b606060018054600181600116156101000203166002900480601f01602080910402602001604051908101604052809291908181526020018280546001816001161561010002031660029004801561133c5780601f106113115761010080835404028352916020019161133c565b820191906000526020600020905b81548152906001019060200180831161131f57829003601f168201915b5050505050905090565b600360009054906101000a900473ffffffffffffffffffffffffffffffffffffffff1681565b606060018054600181600116156101000203166002900480601f0160208091040260200160405190810160405280929190818152602001828054600181600116156101000203166002900480156114045780601f106113d957610100808354040283529160200191611404565b820191906000526020600020905b8154815290600101906020018083116113e757829003601f168201915b5050505050905090565b60606040518060400160405280600481526020017f6d656f7700000000000000000000000000000000000000000000000000000000815250905090565b606080606060008060016002600360009054906101000a900473ffffffffffffffffffffffffffffffffffffffff16838054600181600116156101000203166002900480601f01602080910402602001604051908101604052809291908181526020018280546001816001161561010002031660029004801561150f5780601f106114e45761010080835404028352916020019161150f565b820191906000526020600020905b8154815290600101906020018083116114f257829003601f168201915b50505050509350828054600181600116156101000203166002900480601f0160208091040260200160405190810160405280929190818152602001828054600181600116156101000203166002900480156115ab5780601f10611580576101008083540402835291602001916115ab565b820191906000526020600020905b81548152906001019060200180831161158e57829003601f168201915b50505050509250818054600181600116156101000203166002900480601f0160208091040260200160405190810160405280929190818152602001828054600181600116156101000203166002900480156116475780601f1061161c57610100808354040283529160200191611647565b820191906000526020600020905b81548152906001019060200180831161162a57829003601f168201915b50505050509150809050935093509350935090919293565b606060008054600181600116156101000203166002900480601f0160208091040260200160405190810160405280929190818152602001828054600181600116156101000203166002900480156116f75780601f106116cc576101008083540402835291602001916116f7565b820191906000526020600020905b8154815290600101906020018083116116da57829003601f168201915b5050505050905090565b60008060008090505b6005805490508110156117bc576005818154811061172457fe5b9060005260206000200160405180828054600181600116156101000203166002900480156117895780601f10611767576101008083540402835291820191611789565b820191906000526020600020905b815481529060010190602001808311611775575b50509150506040518091039020848051906020012014156117b15760018192509250506117c8565b60018101905061170a565b50600080809050915091505b915091565b80600190805190602001906117e39291906118a1565b507fe6a3d4ec4f69ac853579fb0336181042ec4d0a21b32de1a92b6dd6a2f904f5a0600160405180806020018281038252838181546001816001161561010002031660029004815260200191508054600181600116156101000203166002900480156118905780601f1061186557610100808354040283529160200191611890565b820191906000526020600020905b81548152906001019060200180831161187357829003601f168201915b50509250505060405180910390a150565b828054600181600116156101000203166002900490600052602060002090601f016020900481019282601f106118e257805160ff1916838001178555611910565b82800160010185558215611910579182015b8281111561190f5782518255916020019190600101906118f4565b5b50905061191d9190611921565b5090565b61194391905b8082111561193f576000816000905550600101611927565b5090565b9056fea2646970667358221220e5f1982ba723ff9d5d5f36088c3a6afb1a8164a5a82c3a30bf3ddcb60f5fef8664736f6c63430006020033",
  "source": "pragma solidity ^0.6.0;\n\n/**\n * @title Registry\n * @dev Manages a Registry and it's entries.\n*/\n\nimport '../RegistryToken/RegistryToken.sol';\nimport '../Registry/Registry.sol';\nimport \"../../node_modules/openzeppelin-solidity/contracts/math/SafeMath.sol\";\n\ncontract Registry {\n    using SafeMath for uint256;\n\n    string domain;\n    string ref;\n    string registryType;\n    address payable public registryTokenAddress;\n\n    /// @notice Emitted when a new Registry is created.\n    event RegistryEntryCreated(string subdomain, string ref);\n\n    /// @notice Emitted when the Registry ref is set.\n    event RegistryRefSet(string ref);\n\n    /// @notice Emitted when the Registry entry ref is set.\n    event RegistryEntryRefSet(string ref);\n\n    struct RegistryEntry {\n        string ref;\n        bool isHuman;\n    }\n\n    mapping(string => RegistryEntry) registryEntryMap;\n    string[] registryEntries;\n\n    /**\n     * @notice Initializes a new Registry after construction.\n     * @param _domain The primary name used to represent the Registry. \n     * @param _ref The primary reference that a Registry links to. This can be any type of content and is typically used to reference an index or url.\n     * @param _registryType The Registry's Type. Registry Types are defined globally at the Registrar and used to categorize Registries.\n     * @param _registryToken The address of the Registry's Token. Registry Tokens are issued upon staking Infinity Token to transfer the ownership of a Registry Entry.\n     */\n\n    function init(\n        string memory _domain,\n        string memory _ref, \n        string memory _registryType, \n        address payable _registryToken)\n        public \n    returns (string memory, string memory) \n    {\n        domain = _domain;\n        ref = _ref;\n        registryType = _registryType;\n        registryTokenAddress = _registryToken;\n    }\n\n    // Add staking checks/logic here\n\n    /**\n     * @notice Creates a new entry in the Registry.\n     * @param _subdomain The subdomain to index the Registry.\n     * @param _ref The reference the Registry entry will point to.\n     */\n\n    function createRegistryEntry (\n        string memory _subdomain, \n        string memory _ref)\n        public\n    {\n        (bool _isRegistered, ) = isRegistered(_subdomain);\n        if(!_isRegistered) {\n            registryEntryMap[_subdomain].ref = _ref;\n            registryEntryMap[_subdomain].isHuman = false;\n            registryEntries.push(_subdomain);\n\n            emit RegistryEntryCreated(_subdomain, _ref);\n        }\n    }\n\n    /**\n     * @notice Sets the reference for the Registry.\n     * @param _newRef The new reference used for the Registry.\n     */\n\n    function setRegistryRef (string memory _newRef) public {\n        ref = _newRef;\n        emit RegistryRefSet(ref);\n    }\n\n    /**\n     * @notice Sets the subdomain for a Registry entry.\n     * @param _subdomain The subdomain to index the Registry entry.\n     */\n\n\n    function setRegistryEntryRef (string memory _subdomain, string memory _newRef) public {\n        registryEntryMap[_subdomain].ref = _newRef;\n        emit RegistryEntryRefSet(registryEntryMap[_subdomain].ref);\n    }\n\n    /**\n     * @notice Returns the domain, reference, type and RegistryToken address for a Registry. \n     */\n\n    function getRegistry() \n        public\n        view\n    returns(string memory, string memory, string memory, address)\n    {\n        return(domain, ref, registryType, registryTokenAddress);\n    }\n\n    /**\n     * @notice Returns the reference of a Registry.\n     */\n\n    function getRef()\n        public\n        view\n    returns (string memory)\n    {\n        return ref;\n    }\n\n    /**\n     * @notice Returns the Reference for an entry in the Registry.\n     * @param _subdomain The subdomain to index the Registry entry.\n     */\n\n    function getRegistryEntryRef (string memory _subdomain) \n        public \n        view \n    returns (string memory) {\n        return registryEntryMap[_subdomain].ref;\n    }\n\n    /**s\n     * @notice Returns a boolean representing whether a subdomain is registered within the Registry.\n     * @param _subdomain The subdomain to index the Registry entry.\n     */\n\n    function isRegistered(string memory _subdomain)\n       public\n       view\n    returns(bool, uint256)\n    {\n        for (uint256 i = 0; i < registryEntries.length; i += 1){\n            if (keccak256(bytes(_subdomain)) == keccak256(bytes(registryEntries[i]))) return (true, i);\n        }\n        return (false, 0);\n    }\n\n    function testFunction1() public view returns (string memory) {\n        return ref;\n    }\n\n    function testFunction2() public view returns (string memory) {\n        return domain;\n    }\n\n    function testFunction4() public view returns (string memory) {\n        return 'meow';\n    }\n}",
  "sourcePath": "/Users/neo/Code/ZNS/contracts/Registry/Registry.sol",
  "compiler": {
    "name": "solc",
    "version": "0.6.2+commit.bacdbe57.Emscripten.clang"
  },
  "schemaVersion": "3.2.3",
  "updatedAt": "2020-09-14T05:17:20.722Z",
  "devdoc": {
    "methods": {
      "createRegistryEntry(string,string)": {
        "params": {
          "_ref": "The reference the Registry entry will point to.",
          "_subdomain": "The subdomain to index the Registry."
        }
      },
      "getRegistryEntryRef(string)": {
        "params": {
          "_subdomain": "The subdomain to index the Registry entry."
        }
      },
      "init(string,string,string,address)": {
        "params": {
          "_domain": "The primary name used to represent the Registry. ",
          "_ref": "The primary reference that a Registry links to. This can be any type of content and is typically used to reference an index or url.",
          "_registryToken": "The address of the Registry's Token. Registry Tokens are issued upon staking Infinity Token to transfer the ownership of a Registry Entry.",
          "_registryType": "The Registry's Type. Registry Types are defined globally at the Registrar and used to categorize Registries."
        }
      },
      "isRegistered(string)": {
        "params": {
          "_subdomain": "The subdomain to index the Registry entry."
        }
      },
      "setRegistryEntryRef(string,string)": {
        "params": {
          "_subdomain": "The subdomain to index the Registry entry."
        }
      },
      "setRegistryRef(string)": {
        "params": {
          "_newRef": "The new reference used for the Registry."
        }
      }
    }
  },
  "userdoc": {
    "methods": {
      "createRegistryEntry(string,string)": {
        "notice": "Creates a new entry in the Registry."
      },
      "getRef()": {
        "notice": "Returns the reference of a Registry."
      },
      "getRegistry()": {
        "notice": "Returns the domain, reference, type and RegistryToken address for a Registry. "
      },
      "getRegistryEntryRef(string)": {
        "notice": "Returns the Reference for an entry in the Registry."
      },
      "init(string,string,string,address)": {
        "notice": "Initializes a new Registry after construction."
      },
      "isRegistered(string)": {
        "notice": "sReturns a boolean representing whether a subdomain is registered within the Registry."
      },
      "setRegistryEntryRef(string,string)": {
        "notice": "Sets the subdomain for a Registry entry."
      },
      "setRegistryRef(string)": {
        "notice": "Sets the reference for the Registry."
      }
    }
  }
}