{
  "contractName": "Registrar",
  "abi": [
    {
      "constant": true,
      "inputs": [
        {
          "name": "",
          "type": "uint256"
        }
      ],
      "name": "registrar",
      "outputs": [
        {
          "name": "owner",
          "type": "address"
        },
        {
          "name": "registryName",
          "type": "string"
        },
        {
          "name": "registryType",
          "type": "string"
        }
      ],
      "payable": false,
      "stateMutability": "view",
      "type": "function"
    },
    {
      "anonymous": false,
      "inputs": [
        {
          "indexed": false,
          "name": "owner",
          "type": "address"
        },
        {
          "indexed": false,
          "name": "registryName",
          "type": "string"
        },
        {
          "indexed": false,
          "name": "registryType",
          "type": "string"
        }
      ],
      "name": "registryAdded",
      "type": "event"
    },
    {
      "constant": false,
      "inputs": [
        {
          "name": "_owner",
          "type": "address"
        },
        {
          "name": "_registryName",
          "type": "string"
        },
        {
          "name": "_registryType",
          "type": "string"
        }
      ],
      "name": "createRegistry",
      "outputs": [
        {
          "name": "",
          "type": "address"
        },
        {
          "name": "",
          "type": "string"
        },
        {
          "name": "",
          "type": "string"
        }
      ],
      "payable": false,
      "stateMutability": "nonpayable",
      "type": "function"
    },
    {
      "constant": true,
      "inputs": [],
      "name": "getRegistries",
      "outputs": [
        {
          "name": "",
          "type": "string"
        }
      ],
      "payable": false,
      "stateMutability": "view",
      "type": "function"
    }
  ],
  "bytecode": "0x608060405234801561001057600080fd5b50610d14806100206000396000f3fe608060405234801561001057600080fd5b50600436106100415760003560e01c806335884e5a146100465780639433fcbc146100c9578063f7aac9511461020f575b600080fd5b61004e610499565b6040518080602001828103825283818151815260200191508051906020019080838360005b8381101561008e578082015181840152602081019050610073565b50505050905090810190601f1680156100bb5780820380516001836020036101000a031916815260200191505b509250505060405180910390f35b6100f5600480360360208110156100df57600080fd5b81019080803590602001909291905050506105b5565b604051808473ffffffffffffffffffffffffffffffffffffffff1673ffffffffffffffffffffffffffffffffffffffff1681526020018060200180602001838103835285818151815260200191508051906020019080838360005b8381101561016b578082015181840152602081019050610150565b50505050905090810190601f1680156101985780820380516001836020036101000a031916815260200191505b50838103825284818151815260200191508051906020019080838360005b838110156101d15780820151818401526020810190506101b6565b50505050905090810190601f1680156101fe5780820380516001836020036101000a031916815260200191505b509550505050505060405180910390f35b61037f6004803603606081101561022557600080fd5b81019080803573ffffffffffffffffffffffffffffffffffffffff1690602001909291908035906020019064010000000081111561026257600080fd5b82018360208201111561027457600080fd5b8035906020019184600183028401116401000000008311171561029657600080fd5b91908080601f016020809104026020016040519081016040528093929190818152602001838380828437600081840152601f19601f820116905080830192505050505050509192919290803590602001906401000000008111156102f957600080fd5b82018360208201111561030b57600080fd5b8035906020019184600183028401116401000000008311171561032d57600080fd5b91908080601f016020809104026020016040519081016040528093929190818152602001838380828437600081840152601f19601f82011690508083019250505050505050919291929050505061073c565b604051808473ffffffffffffffffffffffffffffffffffffffff1673ffffffffffffffffffffffffffffffffffffffff1681526020018060200180602001838103835285818151815260200191508051906020019080838360005b838110156103f55780820151818401526020810190506103da565b50505050905090810190601f1680156104225780820380516001836020036101000a031916815260200191505b50838103825284818151815260200191508051906020019080838360005b8381101561045b578082015181840152602081019050610440565b50505050905090810190601f1680156104885780820380516001836020036101000a031916815260200191505b509550505050505060405180910390f35b60608060008090505b60018054905081101561057557600181815481106104bc57fe5b90600052602060002090600302016001018054600181600116156101000203166002900480601f0160208091040260200160405190810160405280929190818152602001828054600181600116156101000203166002900480156105615780601f1061053657610100808354040283529160200191610561565b820191906000526020600020905b81548152906001019060200180831161054457829003601f168201915b5050505050915080806001019150506104a2565b506040518060400160405280600181526020017f610000000000000000000000000000000000000000000000000000000000000081525090508091505090565b600181815481106105c257fe5b90600052602060002090600302016000915090508060000160009054906101000a900473ffffffffffffffffffffffffffffffffffffffff1690806001018054600181600116156101000203166002900480601f0160208091040260200160405190810160405280929190818152602001828054600181600116156101000203166002900480156106945780601f1061066957610100808354040283529160200191610694565b820191906000526020600020905b81548152906001019060200180831161067757829003601f168201915b505050505090806002018054600181600116156101000203166002900480601f0160208091040260200160405190810160405280929190818152602001828054600181600116156101000203166002900480156107325780601f1061070757610100808354040283529160200191610732565b820191906000526020600020905b81548152906001019060200180831161071557829003601f168201915b5050505050905083565b6000606080600080866040518082805190602001908083835b602083106107785780518252602082019150602081019050602083039250610755565b6001836020036101000a03801982511681845116808217855250505050505090500191505090815260200160405180910390209050868160000160006101000a81548173ffffffffffffffffffffffffffffffffffffffff021916908373ffffffffffffffffffffffffffffffffffffffff16021790555085816001019080519060200190610808929190610bbc565b5084816002019080519060200190610821929190610bbc565b50600181908060018154018082558091505090600182039060005260206000209060030201600090919290919091506000820160009054906101000a900473ffffffffffffffffffffffffffffffffffffffff168160000160006101000a81548173ffffffffffffffffffffffffffffffffffffffff021916908373ffffffffffffffffffffffffffffffffffffffff160217905550600182018160010190805460018160011615610100020316600290046108de929190610c3c565b5060028201816002019080546001816001161561010002031660029004610906929190610c3c565b505050507f1db9576dbbdd63cc0e73a6a1055164d40d9ffcec8ec56a8c352e94fb5a66e10c878787604051808473ffffffffffffffffffffffffffffffffffffffff1673ffffffffffffffffffffffffffffffffffffffff1681526020018060200180602001838103835285818151815260200191508051906020019080838360005b838110156109a4578082015181840152602081019050610989565b50505050905090810190601f1680156109d15780820380516001836020036101000a031916815260200191505b50838103825284818151815260200191508051906020019080838360005b83811015610a0a5780820151818401526020810190506109ef565b50505050905090810190601f168015610a375780820380516001836020036101000a031916815260200191505b509550505050505060405180910390a18060000160009054906101000a900473ffffffffffffffffffffffffffffffffffffffff168160010182600201818054600181600116156101000203166002900480601f016020809104026020016040519081016040528092919081815260200182805460018160011615610100020316600290048015610b095780601f10610ade57610100808354040283529160200191610b09565b820191906000526020600020905b815481529060010190602001808311610aec57829003601f168201915b50505050509150808054600181600116156101000203166002900480601f016020809104026020016040519081016040528092919081815260200182805460018160011615610100020316600290048015610ba55780601f10610b7a57610100808354040283529160200191610ba5565b820191906000526020600020905b815481529060010190602001808311610b8857829003601f168201915b505050505090509350935093505093509350939050565b828054600181600116156101000203166002900490600052602060002090601f016020900481019282601f10610bfd57805160ff1916838001178555610c2b565b82800160010185558215610c2b579182015b82811115610c2a578251825591602001919060010190610c0f565b5b509050610c389190610cc3565b5090565b828054600181600116156101000203166002900490600052602060002090601f016020900481019282601f10610c755780548555610cb2565b82800160010185558215610cb257600052602060002091601f016020900482015b82811115610cb1578254825591600101919060010190610c96565b5b509050610cbf9190610cc3565b5090565b610ce591905b80821115610ce1576000816000905550600101610cc9565b5090565b9056fea165627a7a7230582044f5a29395382b9e4ee04d8070a0b55b3d0b23c915d19b78f8d1c410b64418a80029",
  "source": "pragma solidity >=0.4.22 <0.7.0;\n\n/**\n * @title Registrar\n * @dev Create and interact with Registries\n*/\n\ncontract Registrar {\n\n    event registryAdded(address owner, string registryName, string registryType);\n\n    struct Registry {\n        address owner;\n        string registryName;\n        string registryType;\n    }\n\n    mapping (string => Registry) registryMap;\n    Registry[] public registrar;\n\n    function createRegistry (\n        address _owner, \n        string memory _registryName,\n        string memory _registryType\n    ) public returns (address, string memory, string memory) {\n        Registry storage registry = registryMap[_registryName];\n\n        registry.owner = _owner;\n        registry.registryName = _registryName;\n        registry.registryType = _registryType;\n\n        registrar.push(registry);\n        emit registryAdded(_owner, _registryName, _registryType);\n\n        return (registry.owner, registry.registryName, registry.registryType);\n    }\n\n    function getRegistries() public view returns (string memory) {\n        string memory registries;\n\n        for(uint256 a=0; a<registrar.length; a++) {\n            registries = registrar[a].registryName;\n        }\n\n        registries = 'a';\n\n        return registries;\n    }\n}\n",
  "sourcePath": "/Users/neo/Code/ZNS/contracts/Registrar.sol",
  "compiler": {
    "name": "solc",
    "version": "0.5.8+commit.23d335f2.Emscripten.clang"
  },
  "schemaVersion": "3.0.16",
  "updatedAt": "2020-08-23T02:34:55.232Z",
  "devdoc": {
    "details": "Create and interact with Registries",
    "methods": {},
    "title": "Registrar"
  },
  "userdoc": {
    "methods": {}
  }
}