{
  "contractName": "Registry",
  "abi": [
    {
      "inputs": [
        {
          "internalType": "string",
          "name": "_domain",
          "type": "string"
        },
        {
          "internalType": "string",
          "name": "_ref",
          "type": "string"
        },
        {
          "internalType": "string",
          "name": "_registryType",
          "type": "string"
        },
        {
          "internalType": "address",
          "name": "_stakeTokenAddress",
          "type": "address"
        }
      ],
      "name": "init",
      "outputs": [
        {
          "internalType": "string",
          "name": "",
          "type": "string"
        },
        {
          "internalType": "string",
          "name": "",
          "type": "string"
        }
      ],
      "stateMutability": "nonpayable",
      "type": "function"
    },
    {
      "inputs": [
        {
          "internalType": "uint256",
          "name": "_stakePrice",
          "type": "uint256"
        }
      ],
      "name": "setStakePrice",
      "outputs": [
        {
          "internalType": "uint256",
          "name": "",
          "type": "uint256"
        }
      ],
      "stateMutability": "nonpayable",
      "type": "function"
    },
    {
      "inputs": [],
      "name": "getAddress",
      "outputs": [
        {
          "internalType": "address",
          "name": "",
          "type": "address"
        }
      ],
      "stateMutability": "view",
      "type": "function"
    },
    {
      "inputs": [],
      "name": "getRef",
      "outputs": [
        {
          "internalType": "string",
          "name": "",
          "type": "string"
        }
      ],
      "stateMutability": "view",
      "type": "function"
    }
  ],
  "bytecode": "0x608060405234801561001057600080fd5b5061067c806100206000396000f3fe608060405234801561001057600080fd5b506004361061004b5760003560e01c8062b5ec6b146100505780631d6d32ba1461033e578063209df0fa146103c157806338cc483114610403575b600080fd5b6102576004803603608081101561006657600080fd5b810190808035906020019064010000000081111561008357600080fd5b82018360208201111561009557600080fd5b803590602001918460018302840111640100000000831117156100b757600080fd5b91908080601f016020809104026020016040519081016040528093929190818152602001838380828437600081840152601f19601f8201169050808301925050505050505091929192908035906020019064010000000081111561011a57600080fd5b82018360208201111561012c57600080fd5b8035906020019184600183028401116401000000008311171561014e57600080fd5b91908080601f016020809104026020016040519081016040528093929190818152602001838380828437600081840152601f19601f820116905080830192505050505050509192919290803590602001906401000000008111156101b157600080fd5b8201836020820111156101c357600080fd5b803590602001918460018302840111640100000000831117156101e557600080fd5b91908080601f016020809104026020016040519081016040528093929190818152602001838380828437600081840152601f19601f820116905080830192505050505050509192919290803573ffffffffffffffffffffffffffffffffffffffff16906020019092919050505061044d565b604051808060200180602001838103835285818151815260200191508051906020019080838360005b8381101561029b578082015181840152602081019050610280565b50505050905090810190601f1680156102c85780820380516001836020036101000a031916815260200191505b50838103825284818151815260200191508051906020019080838360005b838110156103015780820151818401526020810190506102e6565b50505050905090810190601f16801561032e5780820380516001836020036101000a031916815260200191505b5094505050505060405180910390f35b6103466104df565b6040518080602001828103825283818151815260200191508051906020019080838360005b8381101561038657808201518184015260208101905061036b565b50505050905090810190601f1680156103b35780820380516001836020036101000a031916815260200191505b509250505060405180910390f35b6103ed600480360360208110156103d757600080fd5b8101908080359060200190929190505050610581565b6040518082815260200191505060405180910390f35b61040b610594565b604051808273ffffffffffffffffffffffffffffffffffffffff1673ffffffffffffffffffffffffffffffffffffffff16815260200191505060405180910390f35b60608085600090805190602001906104669291906105a1565b50846001908051906020019061047d9291906105a1565b5083600290805190602001906104949291906105a1565b5082600360006101000a81548173ffffffffffffffffffffffffffffffffffffffff021916908373ffffffffffffffffffffffffffffffffffffffff16021790555094509492505050565b606060018054600181600116156101000203166002900480601f0160208091040260200160405190810160405280929190818152602001828054600181600116156101000203166002900480156105775780601f1061054c57610100808354040283529160200191610577565b820191906000526020600020905b81548152906001019060200180831161055a57829003601f168201915b5050505050905090565b6000816004819055506004549050919050565b6000803090508091505090565b828054600181600116156101000203166002900490600052602060002090601f016020900481019282601f106105e257805160ff1916838001178555610610565b82800160010185558215610610579182015b8281111561060f5782518255916020019190600101906105f4565b5b50905061061d9190610621565b5090565b61064391905b8082111561063f576000816000905550600101610627565b5090565b9056fea264697066735822122054606abf057314638b9f628bfeccb791cbbe4818f73aa905e5e488cbf31924ac64736f6c63430006020033",
  "source": "pragma solidity ^0.6.0;\n\n/**\n * @title Registry\n * @dev Manage Registry Entries\n*/\n\ncontract Registry {\n    string domain;\n    string ref;\n    string registryType;\n    address stakeTokenAddress;\n    uint256 stakePrice;\n\n    function init(\n        string memory _domain, \n        string memory _ref, \n        string memory _registryType, \n        address _stakeTokenAddress) \n    public \n    returns (string memory, string memory) \n    {\n        domain = _domain;\n        ref = _ref;\n        registryType = _registryType;\n        stakeTokenAddress = _stakeTokenAddress;\n    }\n\n    function setStakePrice(uint256 _stakePrice) \n        public \n    returns(uint256) \n    {\n        stakePrice = _stakePrice;\n        return stakePrice;\n    } \n\n    function getAddress() \n        public \n        view \n    returns (address) \n    {  \n       address contractAddress = address(this);\n       return contractAddress;\n    }\n\n    function getRef()\n        public\n        view\n    returns (string memory)\n    {\n        return ref;\n    }\n}",
  "sourcePath": "/Users/neo/Code/ZNS/contracts/Registry.sol",
  "compiler": {
    "name": "solc",
    "version": "0.6.2+commit.bacdbe57.Emscripten.clang"
  },
  "schemaVersion": "3.2.3",
  "updatedAt": "2020-08-28T07:35:24.114Z",
  "devdoc": {
    "details": "Manage Registry Entries",
    "methods": {},
    "title": "Registry"
  },
  "userdoc": {
    "methods": {}
  }
}