{
  "contractName": "RegistryControllerV2Mock",
  "abi": [
    {
      "anonymous": false,
      "inputs": [
        {
          "indexed": false,
          "internalType": "address",
          "name": "_registryAddress",
          "type": "address"
        },
        {
          "indexed": false,
          "internalType": "contract RegistryToken",
          "name": "_registryToken",
          "type": "address"
        }
      ],
      "name": "CreatedRegistry",
      "type": "event"
    },
    {
      "anonymous": false,
      "inputs": [
        {
          "indexed": false,
          "internalType": "string",
          "name": "_subdomain",
          "type": "string"
        },
        {
          "indexed": false,
          "internalType": "string",
          "name": "_ref",
          "type": "string"
        }
      ],
      "name": "CreatedRegistryEntry",
      "type": "event"
    },
    {
      "anonymous": false,
      "inputs": [
        {
          "indexed": false,
          "internalType": "string",
          "name": "_newUpgradeVar",
          "type": "string"
        }
      ],
      "name": "NewUpgradeVarSet",
      "type": "event"
    },
    {
      "anonymous": false,
      "inputs": [
        {
          "indexed": true,
          "internalType": "address",
          "name": "previousOwner",
          "type": "address"
        },
        {
          "indexed": true,
          "internalType": "address",
          "name": "newOwner",
          "type": "address"
        }
      ],
      "name": "OwnershipTransferred",
      "type": "event"
    },
    {
      "anonymous": false,
      "inputs": [
        {
          "indexed": false,
          "internalType": "address",
          "name": "_registryProxy",
          "type": "address"
        },
        {
          "indexed": false,
          "internalType": "contract RegistryToken",
          "name": "_registryTokenProxy",
          "type": "address"
        }
      ],
      "name": "RegistryControllerInitialized",
      "type": "event"
    },
    {
      "anonymous": false,
      "inputs": [
        {
          "indexed": false,
          "internalType": "string",
          "name": "_subdomain",
          "type": "string"
        },
        {
          "indexed": false,
          "internalType": "string",
          "name": "_newRef",
          "type": "string"
        }
      ],
      "name": "RegistryEntryRefSet",
      "type": "event"
    },
    {
      "anonymous": false,
      "inputs": [
        {
          "indexed": false,
          "internalType": "string",
          "name": "_newRef",
          "type": "string"
        }
      ],
      "name": "RegistryRefSet",
      "type": "event"
    },
    {
      "anonymous": false,
      "inputs": [
        {
          "indexed": false,
          "internalType": "uint256",
          "name": "_newStakePrice",
          "type": "uint256"
        }
      ],
      "name": "StakePriceSet",
      "type": "event"
    },
    {
      "inputs": [],
      "name": "newUpgradeVar",
      "outputs": [
        {
          "internalType": "string",
          "name": "",
          "type": "string"
        }
      ],
      "stateMutability": "view",
      "type": "function"
    },
    {
      "inputs": [],
      "name": "owner",
      "outputs": [
        {
          "internalType": "address",
          "name": "",
          "type": "address"
        }
      ],
      "stateMutability": "view",
      "type": "function"
    },
    {
      "inputs": [],
      "name": "registryProxyAddress",
      "outputs": [
        {
          "internalType": "address",
          "name": "",
          "type": "address"
        }
      ],
      "stateMutability": "view",
      "type": "function"
    },
    {
      "inputs": [],
      "name": "registryTokenAddress",
      "outputs": [
        {
          "internalType": "address payable",
          "name": "",
          "type": "address"
        }
      ],
      "stateMutability": "view",
      "type": "function"
    },
    {
      "inputs": [],
      "name": "renounceOwnership",
      "outputs": [],
      "stateMutability": "nonpayable",
      "type": "function"
    },
    {
      "inputs": [],
      "name": "stakePrice",
      "outputs": [
        {
          "internalType": "uint256",
          "name": "",
          "type": "uint256"
        }
      ],
      "stateMutability": "view",
      "type": "function"
    },
    {
      "inputs": [
        {
          "internalType": "address",
          "name": "newOwner",
          "type": "address"
        }
      ],
      "name": "transferOwnership",
      "outputs": [],
      "stateMutability": "nonpayable",
      "type": "function"
    },
    {
      "inputs": [
        {
          "internalType": "address",
          "name": "_registryProxy",
          "type": "address"
        },
        {
          "internalType": "contract RegistryToken",
          "name": "_registryTokenProxy",
          "type": "address"
        },
        {
          "internalType": "address",
          "name": "_owner",
          "type": "address"
        }
      ],
      "name": "initialize",
      "outputs": [],
      "stateMutability": "nonpayable",
      "type": "function"
    },
    {
      "inputs": [
        {
          "internalType": "uint256",
          "name": "_newStakePrice",
          "type": "uint256"
        }
      ],
      "name": "setStakePrice",
      "outputs": [],
      "stateMutability": "nonpayable",
      "type": "function"
    },
    {
      "inputs": [
        {
          "internalType": "string",
          "name": "_subdomain",
          "type": "string"
        },
        {
          "internalType": "string",
          "name": "_ref",
          "type": "string"
        }
      ],
      "name": "createRegistryEntry",
      "outputs": [],
      "stateMutability": "nonpayable",
      "type": "function"
    },
    {
      "inputs": [
        {
          "internalType": "string",
          "name": "_newRef",
          "type": "string"
        }
      ],
      "name": "setRef",
      "outputs": [],
      "stateMutability": "nonpayable",
      "type": "function"
    },
    {
      "inputs": [
        {
          "internalType": "string",
          "name": "_subdomain",
          "type": "string"
        },
        {
          "internalType": "string",
          "name": "_newRef",
          "type": "string"
        }
      ],
      "name": "setRegistryEntryRef",
      "outputs": [],
      "stateMutability": "nonpayable",
      "type": "function"
    },
    {
      "inputs": [],
      "name": "getRef",
      "outputs": [
        {
          "internalType": "string",
          "name": "",
          "type": "string"
        }
      ],
      "stateMutability": "nonpayable",
      "type": "function"
    },
    {
      "inputs": [],
      "name": "getStakePrice",
      "outputs": [
        {
          "internalType": "uint256",
          "name": "",
          "type": "uint256"
        }
      ],
      "stateMutability": "nonpayable",
      "type": "function"
    },
    {
      "inputs": [
        {
          "internalType": "string",
          "name": "_subdomain",
          "type": "string"
        }
      ],
      "name": "getRegistryEntryRef",
      "outputs": [
        {
          "internalType": "string",
          "name": "",
          "type": "string"
        }
      ],
      "stateMutability": "nonpayable",
      "type": "function"
    },
    {
      "inputs": [
        {
          "internalType": "string",
          "name": "_newUpgradeVar",
          "type": "string"
        }
      ],
      "name": "setNewUpgradeVar",
      "outputs": [],
      "stateMutability": "nonpayable",
      "type": "function"
    },
    {
      "inputs": [],
      "name": "getNewUpgradeVar",
      "outputs": [
        {
          "internalType": "string",
          "name": "",
          "type": "string"
        }
      ],
      "stateMutability": "view",
      "type": "function"
    }
  ],
  "bytecode": "0x608060405234801561001057600080fd5b50611cfc806100206000396000f3fe608060405234801561001057600080fd5b506004361061010b5760003560e01c806360506ea6116100a2578063c0c53b8b11610071578063c0c53b8b146103fc578063c3b3ec9014610434578063c73e835c1461043c578063c7ca86b2146104aa578063f2fde38b1461054e5761010b565b806360506ea6146103dc578063715018a6146103e45780638da5cb5b146103ec578063a023cf69146103f45761010b565b80631d6d32ba116100de5780631d6d32ba146103955780631d8e2f581461039d578063209df0fa146103a55780635b999a38146103c25761010b565b80630cc7847614610110578063149adf5814610134578063164f25bf146102175780631692f21f146102d7575b600080fd5b610118610574565b604080516001600160a01b039092168252519081900360200190f35b6101a26004803603602081101561014a57600080fd5b810190602081018135600160201b81111561016457600080fd5b82018360208201111561017657600080fd5b803590602001918460018302840111600160201b8311171561019757600080fd5b509092509050610583565b6040805160208082528351818301528351919283929083019185019080838360005b838110156101dc5781810151838201526020016101c4565b50505050905090810190601f1680156102095780820380516001836020036101000a031916815260200191505b509250505060405180910390f35b6102d56004803603604081101561022d57600080fd5b810190602081018135600160201b81111561024757600080fd5b82018360208201111561025957600080fd5b803590602001918460018302840111600160201b8311171561027a57600080fd5b919390929091602081019035600160201b81111561029757600080fd5b8201836020820111156102a957600080fd5b803590602001918460018302840111600160201b831117156102ca57600080fd5b5090925090506106ed565b005b6102d5600480360360408110156102ed57600080fd5b810190602081018135600160201b81111561030757600080fd5b82018360208201111561031957600080fd5b803590602001918460018302840111600160201b8311171561033a57600080fd5b919390929091602081019035600160201b81111561035757600080fd5b82018360208201111561036957600080fd5b803590602001918460018302840111600160201b8311171561038a57600080fd5b509092509050610b5e565b6101a2610eac565b610118610fe2565b6102d5600480360360208110156103bb57600080fd5b5035610ff1565b6103ca61116d565b60408051918252519081900360200190f35b6101a26111e3565b6102d5611279565b61011861131b565b6103ca61132a565b6102d56004803603606081101561041257600080fd5b506001600160a01b038135811691602081013582169160409091013516611330565b6101a261146c565b6102d56004803603602081101561045257600080fd5b810190602081018135600160201b81111561046c57600080fd5b82018360208201111561047e57600080fd5b803590602001918460018302840111600160201b8311171561049f57600080fd5b5090925090506114fa565b6102d5600480360360208110156104c057600080fd5b810190602081018135600160201b8111156104da57600080fd5b8201836020820111156104ec57600080fd5b803590602001918460018302840111600160201b8311171561050d57600080fd5b91908080601f0160208091040260200160405190810160405280939291908181526020018383808284376000920191909152509295506117bc945050505050565b6102d56004803603602081101561056457600080fd5b50356001600160a01b031661186c565b6099546001600160a01b031681565b6098546040516302935beb60e31b8152602060048201908152602482018490526060926001600160a01b03169163149adf589186918691908190604401848480828437600081840152601f19601f820116905080830192505050935050505060006040518083038186803b1580156105fa57600080fd5b505afa15801561060e573d6000803e3d6000fd5b505050506040513d6000823e601f3d908101601f19168201604052602081101561063757600080fd5b8101908080516040519392919084600160201b82111561065657600080fd5b90830190602082018581111561066b57600080fd5b8251600160201b81118282018810171561068457600080fd5b82525081516020918201929091019080838360005b838110156106b1578181015183820152602001610699565b50505050905090810190601f1680156106de5780820380516001836020036101000a031916815260200191505b50604052505050905092915050565b6106f5611965565b6065546001600160a01b03908116911614610745576040805162461bcd60e51b81526020600482018190526024820152600080516020611c79833981519152604482015290519081900360640190fd5b6098546040805163164f25bf60e01b815260048101918252604481018690526001600160a01b039092169163164f25bf9187918791879187919081906024810190606401878780828437600083820152601f01601f191690910184810383528581526020019050858580828437600081840152601f19601f8201169050808301925050509650505050505050600060405180830381600087803b1580156107eb57600080fd5b505af11580156107ff573d6000803e3d6000fd5b5050609854604051630c822d7f60e41b815260206004820190815260248201889052600094506001600160a01b03909216925063c822d7f0918891889190819060440184848082843760008382015260408051601f909201601f1916909301965091945090925050508083038186803b15801561087b57600080fd5b505afa15801561088f573d6000803e3d6000fd5b505050506040513d60408110156108a557600080fd5b505190506001811515146108b557fe5b606085858080601f016020809104026020016040519081016040528093929190818152602001838380828437600092019190915250506098546040516302935beb60e31b8152602060048201908152602482018b90529495506060946001600160a01b03909216935063149adf5892508a918a918190604401848480828437600081840152601f19601f820116905080830192505050935050505060006040518083038186803b15801561096857600080fd5b505afa15801561097c573d6000803e3d6000fd5b505050506040513d6000823e601f3d908101601f1916820160405260208110156109a557600080fd5b8101908080516040519392919084600160201b8211156109c457600080fd5b9083019060208201858111156109d957600080fd5b8251600160201b8111828201881017156109f257600080fd5b82525081516020918201929091019080838360005b83811015610a1f578181015183820152602001610a07565b50505050905090810190601f168015610a4c5780820380516001836020036101000a031916815260200191505b5060405250505090507fc37bb6160ff34dd9db7b491c89af3a2b774a1896e2403831c879dac0710dfc728282604051808060200180602001838103835285818151815260200191508051906020019080838360005b83811015610ab9578181015183820152602001610aa1565b50505050905090810190601f168015610ae65780820380516001836020036101000a031916815260200191505b50838103825284518152845160209182019186019080838360005b83811015610b19578181015183820152602001610b01565b50505050905090810190601f168015610b465780820380516001836020036101000a031916815260200191505b5094505050505060405180910390a150505050505050565b610b66611965565b6065546001600160a01b03908116911614610bb6576040805162461bcd60e51b81526020600482018190526024820152600080516020611c79833981519152604482015290519081900360640190fd5b60985460408051631692f21f60e01b815260048101918252604481018690526001600160a01b0390921691631692f21f9187918791879187919081906024810190606401878780828437600083820152601f01601f191690910184810383528581526020019050858580828437600081840152601f19601f8201169050808301925050509650505050505050600060405180830381600087803b158015610c5c57600080fd5b505af1158015610c70573d6000803e3d6000fd5b50506098546040516302935beb60e31b815260206004820190815260248201889052606094506001600160a01b03909216925063149adf589188918891908190604401848480828437600081840152601f19601f820116905080830192505050935050505060006040518083038186803b158015610ced57600080fd5b505afa158015610d01573d6000803e3d6000fd5b505050506040513d6000823e601f3d908101601f191682016040526020811015610d2a57600080fd5b8101908080516040519392919084600160201b821115610d4957600080fd5b908301906020820185811115610d5e57600080fd5b8251600160201b811182820188101715610d7757600080fd5b82525081516020918201929091019080838360005b83811015610da4578181015183820152602001610d8c565b50505050905090810190601f168015610dd15780820380516001836020036101000a031916815260200191505b5060405250505090507fff4960b4a54429205a8c3dc005334a3daabb0f3ad515ef46123f74e079abfc1a85858360405180806020018060200183810383528686828181526020019250808284376000838201819052601f909101601f191690920185810384528651815286516020918201939188019250908190849084905b83811015610e68578181015183820152602001610e50565b50505050905090810190601f168015610e955780820380516001836020036101000a031916815260200191505b509550505050505060405180910390a15050505050565b60985460408051630eb6995d60e11b815290516060926001600160a01b031691631d6d32ba916004808301926000929190829003018186803b158015610ef157600080fd5b505afa158015610f05573d6000803e3d6000fd5b505050506040513d6000823e601f3d908101601f191682016040526020811015610f2e57600080fd5b8101908080516040519392919084600160201b821115610f4d57600080fd5b908301906020820185811115610f6257600080fd5b8251600160201b811182820188101715610f7b57600080fd5b82525081516020918201929091019080838360005b83811015610fa8578181015183820152602001610f90565b50505050905090810190601f168015610fd55780820380516001836020036101000a031916815260200191505b5060405250505090505b90565b609b546001600160a01b031681565b610ff9611965565b6065546001600160a01b03908116911614611049576040805162461bcd60e51b81526020600482018190526024820152600080516020611c79833981519152604482015290519081900360640190fd5b609a546040805163104ef87d60e11b81526004810184905290516001600160a01b039092169163209df0fa916024808201926020929091908290030181600087803b15801561109757600080fd5b505af11580156110ab573d6000803e3d6000fd5b505050506040513d60208110156110c157600080fd5b5050609a546040805163a023cf6960e01b815290516001600160a01b039092169163a023cf6991600480820192602092909190829003018186803b15801561110857600080fd5b505afa15801561111c573d6000803e3d6000fd5b505050506040513d602081101561113257600080fd5b5051609c556040805182815290517f59b026b47a87053c766311bcf7903ea569f503b02471704897eac772fa03eacd9181900360200190a150565b609a546040805163a023cf6960e01b815290516000926001600160a01b03169163a023cf69916004808301926020929190829003018186803b1580156111b257600080fd5b505afa1580156111c6573d6000803e3d6000fd5b505050506040513d60208110156111dc57600080fd5b5051905090565b609d8054604080516020601f600260001961010060018816150201909516949094049384018190048102820181019092528281526060939092909183018282801561126f5780601f106112445761010080835404028352916020019161126f565b820191906000526020600020905b81548152906001019060200180831161125257829003601f168201915b5050505050905090565b611281611965565b6065546001600160a01b039081169116146112d1576040805162461bcd60e51b81526020600482018190526024820152600080516020611c79833981519152604482015290519081900360640190fd5b6065546040516000916001600160a01b0316907f8be0079c531659141344cd1fd0a4f28419497f9722a3daafe3b4186f6b6457e0908390a3606580546001600160a01b0319169055565b6065546001600160a01b031690565b609c5481565b600054610100900460ff16806113495750611349611969565b80611357575060005460ff16155b6113925760405162461bcd60e51b815260040180806020018281038252602e815260200180611c99602e913960400191505060405180910390fd5b600054610100900460ff161580156113bd576000805460ff1961ff0019909116610100171660011790555b6113c561196f565b6113ce8261186c565b609980546001600160a01b038087166001600160a01b031992831681179384905560988054841694831694909417909355609b805491871691831682179055609a8054909216811790915560408051928352602083019190915280517fdcdd2e9fad0d6d7ee3a5ecdc777668645858146ee4b8f33ee0edf553aef4983c9281900390910190a18015611466576000805461ff00191690555b50505050565b609d805460408051602060026001851615610100026000190190941693909304601f810184900484028201840190925281815292918301828280156114f25780601f106114c7576101008083540402835291602001916114f2565b820191906000526020600020905b8154815290600101906020018083116114d557829003601f168201915b505050505081565b611502611965565b6065546001600160a01b03908116911614611552576040805162461bcd60e51b81526020600482018190526024820152600080516020611c79833981519152604482015290519081900360640190fd5b609854604051633ecf991160e21b8152602060048201908152602482018490526001600160a01b039092169163fb3e644491859185918190604401848480828437600081840152601f19601f8201169050808301925050509350505050600060405180830381600087803b1580156115c957600080fd5b505af11580156115dd573d6000803e3d6000fd5b505050506060609860009054906101000a90046001600160a01b03166001600160a01b0316631d6d32ba6040518163ffffffff1660e01b815260040160006040518083038186803b15801561163157600080fd5b505afa158015611645573d6000803e3d6000fd5b505050506040513d6000823e601f3d908101601f19168201604052602081101561166e57600080fd5b8101908080516040519392919084600160201b82111561168d57600080fd5b9083019060208201858111156116a257600080fd5b8251600160201b8111828201881017156116bb57600080fd5b82525081516020918201929091019080838360005b838110156116e85781810151838201526020016116d0565b50505050905090810190601f1680156117155780820380516001836020036101000a031916815260200191505b5060405250505090507fe6a3d4ec4f69ac853579fb0336181042ec4d0a21b32de1a92b6dd6a2f904f5a0816040518080602001828103825283818151815260200191508051906020019080838360005b8381101561177d578181015183820152602001611765565b50505050905090810190601f1680156117aa5780820380516001836020036101000a031916815260200191505b509250505060405180910390a1505050565b80516117cf90609d906020840190611bba565b507fa26dd01080f49b8368e858cda84b2d959288ad7f9b73af10f2eeaa1fdf198551816040518080602001828103825283818151815260200191508051906020019080838360005b8381101561182f578181015183820152602001611817565b50505050905090810190601f16801561185c5780820380516001836020036101000a031916815260200191505b509250505060405180910390a150565b611874611965565b6065546001600160a01b039081169116146118c4576040805162461bcd60e51b81526020600482018190526024820152600080516020611c79833981519152604482015290519081900360640190fd5b6001600160a01b0381166119095760405162461bcd60e51b8152600401808060200182810382526026815260200180611c536026913960400191505060405180910390fd5b6065546040516001600160a01b038084169216907f8be0079c531659141344cd1fd0a4f28419497f9722a3daafe3b4186f6b6457e090600090a3606580546001600160a01b0319166001600160a01b0392909216919091179055565b3390565b303b1590565b600054610100900460ff16806119885750611988611969565b80611996575060005460ff16155b6119d15760405162461bcd60e51b815260040180806020018281038252602e815260200180611c99602e913960400191505060405180910390fd5b600054610100900460ff161580156119fc576000805460ff1961ff0019909116610100171660011790555b611a04611a21565b611a0c611ac1565b8015611a1e576000805461ff00191690555b50565b600054610100900460ff1680611a3a5750611a3a611969565b80611a48575060005460ff16155b611a835760405162461bcd60e51b815260040180806020018281038252602e815260200180611c99602e913960400191505060405180910390fd5b600054610100900460ff16158015611a0c576000805460ff1961ff0019909116610100171660011790558015611a1e576000805461ff001916905550565b600054610100900460ff1680611ada5750611ada611969565b80611ae8575060005460ff16155b611b235760405162461bcd60e51b815260040180806020018281038252602e815260200180611c99602e913960400191505060405180910390fd5b600054610100900460ff16158015611b4e576000805460ff1961ff0019909116610100171660011790555b6000611b58611965565b606580546001600160a01b0319166001600160a01b038316908117909155604051919250906000907f8be0079c531659141344cd1fd0a4f28419497f9722a3daafe3b4186f6b6457e0908290a3508015611a1e576000805461ff001916905550565b828054600181600116156101000203166002900490600052602060002090601f016020900481019282601f10611bfb57805160ff1916838001178555611c28565b82800160010185558215611c28579182015b82811115611c28578251825591602001919060010190611c0d565b50611c34929150611c38565b5090565b610fdf91905b80821115611c345760008155600101611c3e56fe4f776e61626c653a206e6577206f776e657220697320746865207a65726f20616464726573734f776e61626c653a2063616c6c6572206973206e6f7420746865206f776e6572436f6e747261637420696e7374616e63652068617320616c7265616479206265656e20696e697469616c697a6564a264697066735822122085a6ef6c20124ef9c48a5f07513cf989ce66ef0e9a21788167d5e8becc02790664736f6c63430006020033",
  "source": "pragma solidity 0.6.2;\n\n/**\n * @title RegistryControllerV2Mock\n * @dev Create and interact with ZNS.\n*/\n\nimport '../../Registry/Registry.sol';\nimport '../../RegistryController/RegistryControllerI.sol';\nimport '../../RegistryToken/RegistryToken.sol';\nimport \"../../../node_modules/@openzeppelin/contracts-ethereum-package/contracts/math/SafeMath.sol\";\nimport \"../../../node_modules/@openzeppelin/contracts-ethereum-package/contracts/access/Ownable.sol\";\nimport \"../../../node_modules/@openzeppelin/contracts/proxy/TransparentUpgradeableProxy.sol\";\n\ncontract RegistryControllerV2Mock is RegistryControllerI, Initializable, OwnableUpgradeSafe {\n    using SafeMath for uint256;\n\n    Registry private registryFactory;\n\n    Registry private registryProxy;\n    address public registryProxyAddress;\n\n    RegistryToken private registryToken;\n    address payable public registryTokenAddress;\n\n    uint256 public stakePrice;\n\n    string public newUpgradeVar;\n\n    /// @notice Emitted when the RegistryController is initialized.\n    event RegistryControllerInitialized(address _registryProxy, RegistryToken _registryTokenProxy);\n\n    /// @notice Emitted when a new Registry is created.\n    event CreatedRegistry(address _registryAddress, RegistryToken _registryToken);\n\n    /// @notice Emitted when a Registry's stake price is updated.\n    event StakePriceSet(uint256 _newStakePrice);\n\n    /// @notice Emitted when a new entry is created in a Registry.\n    event CreatedRegistryEntry(string _subdomain, string _ref);\n\n    /// @notice Emitted when a new a Registry 'ref' is updated.\n    event RegistryRefSet(string _newRef);\n\n    /// @notice Emitted when a new a Registry Entry 'ref' is updated.\n    event RegistryEntryRefSet(string _subdomain, string _newRef);\n\n    /// @notice Emitted when newUpgradeVar is set.\n    event NewUpgradeVarSet(string _newUpgradeVar);\n\n    /**\n     * @notice Initializes a new RegistryController after construction.\n     * @param _registryProxy The Registry address that the RegistryConroller will manage.\n     * @param _registryTokenProxy The RegistryToken address that the RegistryController will manage.\n     */\n\n    function initialize(address _registryProxy, RegistryToken _registryTokenProxy, address _owner)\n        external\n        override\n        initializer\n    {\n        __Ownable_init();\n        transferOwnership(_owner);\n        registryProxyAddress = _registryProxy;\n        registryProxy = Registry(registryProxyAddress);\n        \n        registryTokenAddress = payable(address(_registryTokenProxy));\n        registryToken = _registryTokenProxy;\n\n        emit RegistryControllerInitialized(_registryProxy, _registryTokenProxy);\n    }\n\n    /**\n     * @notice Sets a new stake price for a Registry's RegistryToken.\n     * @param _newStakePrice The new stake price to be used by the registry.\n     */\n\n    function setStakePrice(uint256 _newStakePrice)\n        external\n        override\n        onlyOwner\n    {\n        registryToken.setStakePrice(_newStakePrice);\n        stakePrice = registryToken.stakePrice();\n\n        emit StakePriceSet(_newStakePrice);\n    }\n\n    /**\n     * @notice Creates a new entry within a Registry.\n     * @param _subdomain The subdomain that will be utilized to reference the current Registry entry.\n     * @param _ref The user-defined reference (such as an index or url) that the Registry entry will point to.\n     */\n\n    function createRegistryEntry(\n        string calldata _subdomain,\n        string calldata _ref)\n        external\n        override\n        onlyOwner\n    {\n        registryProxy.createRegistryEntry(_subdomain, _ref);\n        (bool isRegistered, ) = registryProxy.isRegistered(_subdomain);\n        assert(isRegistered==true);\n\n        string memory currentRegistrySubdomain = _subdomain;\n        string memory currentRegistryRef = registryProxy.getRegistryEntryRef(_subdomain);\n        \n        emit CreatedRegistryEntry(currentRegistrySubdomain, currentRegistryRef);\n    }\n\n    /**\n     * @notice Updates a Registry's referece value.\n     * @param _newRef The new reference value to be updated to.\n     */\n\n    function setRef(\n        string calldata _newRef)\n        external\n        override\n        onlyOwner\n    {\n        registryProxy.setRegistryRef(_newRef);        \n        string memory currentRegistryRef = registryProxy.getRef();\n\n        emit RegistryRefSet(currentRegistryRef);\n    }\n\n    /**\n     * @notice Updates a Registry entries reference value.\n     * @param _subdomain The subdomain of the Registry entry to be updated.\n     * @param _newRef The new reference value to be updated in the Registry entry.\n     */\n\n    function setRegistryEntryRef(\n        string calldata _subdomain,\n        string calldata _newRef)\n        external\n        override\n        onlyOwner\n    {\n        registryProxy.setRegistryEntryRef(_subdomain, _newRef);\n        string memory currentRegistryEntryRef = registryProxy.getRegistryEntryRef(_subdomain);\n\n        emit RegistryEntryRefSet(_subdomain, currentRegistryEntryRef);\n    }\n    \n    function getRef() override external returns (string memory) {\n        return registryProxy.getRef();\n    }\n\n    function getStakePrice() override external returns (uint256) {\n        return registryToken.stakePrice();\n    }\n\n    function getRegistryEntryRef(string calldata _subdomain) override external returns (string memory) {\n        return registryProxy.getRegistryEntryRef(_subdomain);\n    }\n\n    function setNewUpgradeVar(string memory _newUpgradeVar) public {\n        newUpgradeVar = _newUpgradeVar;\n        emit NewUpgradeVarSet(_newUpgradeVar);\n    }\n\n    function getNewUpgradeVar() public view returns (string memory) {\n        return newUpgradeVar;\n    }\n}",
  "sourcePath": "/Users/neo/Code/ZNS/contracts/test/TransparentUpgradeProxy/RegistryControllerV2Mock.sol",
  "compiler": {
    "name": "solc",
    "version": "0.6.2+commit.bacdbe57.Emscripten.clang"
  },
  "schemaVersion": "3.2.3",
  "updatedAt": "2020-12-01T16:15:48.686Z",
  "devdoc": {
    "methods": {
      "createRegistryEntry(string,string)": {
        "params": {
          "_ref": "The user-defined reference (such as an index or url) that the Registry entry will point to.",
          "_subdomain": "The subdomain that will be utilized to reference the current Registry entry."
        }
      },
      "initialize(address,address,address)": {
        "params": {
          "_registryProxy": "The Registry address that the RegistryConroller will manage.",
          "_registryTokenProxy": "The RegistryToken address that the RegistryController will manage."
        }
      },
      "owner()": {
        "details": "Returns the address of the current owner."
      },
      "renounceOwnership()": {
        "details": "Leaves the contract without owner. It will not be possible to call `onlyOwner` functions anymore. Can only be called by the current owner.     * NOTE: Renouncing ownership will leave the contract without an owner, thereby removing any functionality that is only available to the owner."
      },
      "setRef(string)": {
        "params": {
          "_newRef": "The new reference value to be updated to."
        }
      },
      "setRegistryEntryRef(string,string)": {
        "params": {
          "_newRef": "The new reference value to be updated in the Registry entry.",
          "_subdomain": "The subdomain of the Registry entry to be updated."
        }
      },
      "setStakePrice(uint256)": {
        "params": {
          "_newStakePrice": "The new stake price to be used by the registry."
        }
      },
      "transferOwnership(address)": {
        "details": "Transfers ownership of the contract to a new account (`newOwner`). Can only be called by the current owner."
      }
    }
  },
  "userdoc": {
    "methods": {
      "createRegistryEntry(string,string)": {
        "notice": "Creates a new entry within a Registry."
      },
      "initialize(address,address,address)": {
        "notice": "Initializes a new RegistryController after construction."
      },
      "setRef(string)": {
        "notice": "Updates a Registry's referece value."
      },
      "setRegistryEntryRef(string,string)": {
        "notice": "Updates a Registry entries reference value."
      },
      "setStakePrice(uint256)": {
        "notice": "Sets a new stake price for a Registry's RegistryToken."
      }
    }
  }
}