{
  "contractName": "RegistryV2Mock",
  "abi": [
    {
      "anonymous": false,
      "inputs": [
        {
          "indexed": true,
          "internalType": "address",
          "name": "previousOwner",
          "type": "address"
        },
        {
          "indexed": true,
          "internalType": "address",
          "name": "newOwner",
          "type": "address"
        }
      ],
      "name": "OwnershipTransferred",
      "type": "event"
    },
    {
      "anonymous": false,
      "inputs": [
        {
          "indexed": false,
          "internalType": "string",
          "name": "subdomain",
          "type": "string"
        },
        {
          "indexed": false,
          "internalType": "string",
          "name": "ref",
          "type": "string"
        }
      ],
      "name": "RegistryEntryCreated",
      "type": "event"
    },
    {
      "anonymous": false,
      "inputs": [
        {
          "indexed": false,
          "internalType": "string",
          "name": "ref",
          "type": "string"
        }
      ],
      "name": "RegistryEntryRefSet",
      "type": "event"
    },
    {
      "anonymous": false,
      "inputs": [
        {
          "indexed": false,
          "internalType": "string",
          "name": "ref",
          "type": "string"
        }
      ],
      "name": "RegistryRefSet",
      "type": "event"
    },
    {
      "inputs": [],
      "name": "newUpgradeVar",
      "outputs": [
        {
          "internalType": "string",
          "name": "",
          "type": "string"
        }
      ],
      "stateMutability": "view",
      "type": "function"
    },
    {
      "inputs": [],
      "name": "owner",
      "outputs": [
        {
          "internalType": "address",
          "name": "",
          "type": "address"
        }
      ],
      "stateMutability": "view",
      "type": "function"
    },
    {
      "inputs": [],
      "name": "registryTokenAddress",
      "outputs": [
        {
          "internalType": "address payable",
          "name": "",
          "type": "address"
        }
      ],
      "stateMutability": "view",
      "type": "function"
    },
    {
      "inputs": [],
      "name": "renounceOwnership",
      "outputs": [],
      "stateMutability": "nonpayable",
      "type": "function"
    },
    {
      "inputs": [
        {
          "internalType": "address",
          "name": "newOwner",
          "type": "address"
        }
      ],
      "name": "transferOwnership",
      "outputs": [],
      "stateMutability": "nonpayable",
      "type": "function"
    },
    {
      "inputs": [
        {
          "internalType": "string",
          "name": "_domain",
          "type": "string"
        },
        {
          "internalType": "string",
          "name": "_ref",
          "type": "string"
        },
        {
          "internalType": "string",
          "name": "_registryType",
          "type": "string"
        },
        {
          "internalType": "address",
          "name": "_registryToken",
          "type": "address"
        }
      ],
      "name": "initialize",
      "outputs": [],
      "stateMutability": "nonpayable",
      "type": "function"
    },
    {
      "inputs": [
        {
          "internalType": "string",
          "name": "_subdomain",
          "type": "string"
        },
        {
          "internalType": "string",
          "name": "_ref",
          "type": "string"
        }
      ],
      "name": "createRegistryEntry",
      "outputs": [],
      "stateMutability": "nonpayable",
      "type": "function"
    },
    {
      "inputs": [
        {
          "internalType": "string",
          "name": "_newRef",
          "type": "string"
        }
      ],
      "name": "setRegistryRef",
      "outputs": [],
      "stateMutability": "nonpayable",
      "type": "function"
    },
    {
      "inputs": [
        {
          "internalType": "string",
          "name": "_subdomain",
          "type": "string"
        },
        {
          "internalType": "string",
          "name": "_newRef",
          "type": "string"
        }
      ],
      "name": "setRegistryEntryRef",
      "outputs": [],
      "stateMutability": "nonpayable",
      "type": "function"
    },
    {
      "inputs": [],
      "name": "getRegistry",
      "outputs": [
        {
          "internalType": "string",
          "name": "",
          "type": "string"
        },
        {
          "internalType": "string",
          "name": "",
          "type": "string"
        },
        {
          "internalType": "string",
          "name": "",
          "type": "string"
        },
        {
          "internalType": "address",
          "name": "",
          "type": "address"
        }
      ],
      "stateMutability": "view",
      "type": "function"
    },
    {
      "inputs": [],
      "name": "getRef",
      "outputs": [
        {
          "internalType": "string",
          "name": "",
          "type": "string"
        }
      ],
      "stateMutability": "view",
      "type": "function"
    },
    {
      "inputs": [
        {
          "internalType": "string",
          "name": "_subdomain",
          "type": "string"
        }
      ],
      "name": "getRegistryEntryRef",
      "outputs": [
        {
          "internalType": "string",
          "name": "",
          "type": "string"
        }
      ],
      "stateMutability": "view",
      "type": "function"
    },
    {
      "inputs": [
        {
          "internalType": "string",
          "name": "_subdomain",
          "type": "string"
        }
      ],
      "name": "isRegistered",
      "outputs": [
        {
          "internalType": "bool",
          "name": "",
          "type": "bool"
        },
        {
          "internalType": "uint256",
          "name": "",
          "type": "uint256"
        }
      ],
      "stateMutability": "view",
      "type": "function"
    },
    {
      "inputs": [
        {
          "internalType": "string",
          "name": "_newUpgradeVar",
          "type": "string"
        }
      ],
      "name": "setNewUpgradeVar",
      "outputs": [],
      "stateMutability": "nonpayable",
      "type": "function"
    }
  ],
  "bytecode": "0x608060405234801561001057600080fd5b50611641806100206000396000f3fe608060405234801561001057600080fd5b50600436106100ea5760003560e01c8063715018a61161008c578063c7ca86b211610066578063c7ca86b214610606578063c822d7f0146106aa578063f2fde38b14610769578063fb3e64441461078f576100ea565b8063715018a6146105ee5780638da5cb5b146105f6578063c3b3ec90146105fe576100ea565b80631d6d32ba116100c85780631d6d32ba146103505780631d8e2f58146103585780635ab1bd531461037c5780635c6d8da1146104d7576100ea565b8063149adf58146100ef578063164f25bf146101d25780631692f21f14610292575b600080fd5b61015d6004803603602081101561010557600080fd5b810190602081018135600160201b81111561011f57600080fd5b82018360208201111561013157600080fd5b803590602001918460018302840111600160201b8311171561015257600080fd5b5090925090506107fd565b6040805160208082528351818301528351919283929083019185019080838360005b8381101561019757818101518382015260200161017f565b50505050905090810190601f1680156101c45780820380516001836020036101000a031916815260200191505b509250505060405180910390f35b610290600480360360408110156101e857600080fd5b810190602081018135600160201b81111561020257600080fd5b82018360208201111561021457600080fd5b803590602001918460018302840111600160201b8311171561023557600080fd5b919390929091602081019035600160201b81111561025257600080fd5b82018360208201111561026457600080fd5b803590602001918460018302840111600160201b8311171561028557600080fd5b5090925090506108b2565b005b610290600480360360408110156102a857600080fd5b810190602081018135600160201b8111156102c257600080fd5b8201836020820111156102d457600080fd5b803590602001918460018302840111600160201b831117156102f557600080fd5b919390929091602081019035600160201b81111561031257600080fd5b82018360208201111561032457600080fd5b803590602001918460018302840111600160201b8311171561034557600080fd5b509092509050610a97565b61015d610bf8565b610360610c8f565b604080516001600160a01b039092168252519081900360200190f35b610384610c9e565b604080516001600160a01b0383166060820152608080825286519082015285519091829160208084019284019160a08501918a019080838360005b838110156103d75781810151838201526020016103bf565b50505050905090810190601f1680156104045780820380516001836020036101000a031916815260200191505b50848103835287518152875160209182019189019080838360005b8381101561043757818101518382015260200161041f565b50505050905090810190601f1680156104645780820380516001836020036101000a031916815260200191505b50848103825286518152865160209182019188019080838360005b8381101561049757818101518382015260200161047f565b50505050905090810190601f1680156104c45780820380516001836020036101000a031916815260200191505b5097505050505050505060405180910390f35b610290600480360360808110156104ed57600080fd5b810190602081018135600160201b81111561050757600080fd5b82018360208201111561051957600080fd5b803590602001918460018302840111600160201b8311171561053a57600080fd5b919390929091602081019035600160201b81111561055757600080fd5b82018360208201111561056957600080fd5b803590602001918460018302840111600160201b8311171561058a57600080fd5b919390929091602081019035600160201b8111156105a757600080fd5b8201836020820111156105b957600080fd5b803590602001918460018302840111600160201b831117156105da57600080fd5b9193509150356001600160a01b0316610e78565b610290610f6b565b61036061100d565b61015d61101c565b6102906004803603602081101561061c57600080fd5b810190602081018135600160201b81111561063657600080fd5b82018360208201111561064857600080fd5b803590602001918460018302840111600160201b8311171561066957600080fd5b91908080601f0160208091040260200160405190810160405280939291908181526020018383808284376000920191909152509295506110aa945050505050565b61074e600480360360208110156106c057600080fd5b810190602081018135600160201b8111156106da57600080fd5b8201836020820111156106ec57600080fd5b803590602001918460018302840111600160201b8311171561070d57600080fd5b91908080601f0160208091040260200160405190810160405280939291908181526020018383808284376000920191909152509295506110c1945050505050565b60408051921515835260208301919091528051918290030190f35b6102906004803603602081101561077f57600080fd5b50356001600160a01b031661117e565b610290600480360360208110156107a557600080fd5b810190602081018135600160201b8111156107bf57600080fd5b8201836020820111156107d157600080fd5b803590602001918460018302840111600160201b831117156107f257600080fd5b509092509050611277565b6060609d8383604051808383808284379190910194855250506040805160209481900385018120805460026001821615610100026000190190911604601f810187900487028301870190935282825290949093509091508301828280156108a55780601f1061087a576101008083540402835291602001916108a5565b820191906000526020600020905b81548152906001019060200180831161088857829003601f168201915b5050505050905092915050565b6108ba61138d565b6065546001600160a01b0390811691161461090a576040805162461bcd60e51b815260206004820181905260248201526000805160206115be833981519152604482015290519081900360640190fd5b600061094b85858080601f0160208091040260200160405190810160405280939291908181526020018383808284376000920191909152506110c192505050565b50905080610a90578282609d878760405180838380828437919091019485525050604051928390036020019092206109899490939092509050611491565b506000609d868660405180838380828437919091019485525050604051928390036020019092206001908101805494151560ff19909516949094179093555050609e80549182018155600052610a02907fcfe2a20ff701a1f3e14f63bd70d6c6bc6fba8172ec6d5a505cdab3927c0a9de6018686611491565b507ff49f5d228081cdcb24c2f4939e0f2236ab3121fd710df20a22d9e2130244b61d858585856040518080602001806020018381038352878782818152602001925080828437600083820152601f01601f191690910184810383528581526020019050858580828437600083820152604051601f909101601f19169092018290039850909650505050505050a15b5050505050565b610a9f61138d565b6065546001600160a01b03908116911614610aef576040805162461bcd60e51b815260206004820181905260248201526000805160206115be833981519152604482015290519081900360640190fd5b8181609d86866040518083838082843791909101948552505060405192839003602001909220610b259490939092509050611491565b507fe4bc8abccea03a84d1974cb45f8445c3bed2c0d18e9e38396166ff6f8a95875b609d8585604051808383808284379190910194855250506040805193849003602090810185208186528054600260001961010060018416150201909116049186018290529493508392509082019084908015610be45780601f10610bb957610100808354040283529160200191610be4565b820191906000526020600020905b815481529060010190602001808311610bc757829003601f168201915b50509250505060405180910390a150505050565b60988054604080516020601f6002600019610100600188161502019095169490940493840181900481028201810190925282815260609390929091830182828015610c845780601f10610c5957610100808354040283529160200191610c84565b820191906000526020600020905b815481529060010190602001808311610c6757829003601f168201915b505050505090505b90565b609b546001600160a01b031681565b609b5460978054604080516020601f600260001960018716156101000201909516949094049384018190048102820181019092528281526060948594859460009491936098936099936001600160a01b03909116928691830182828015610d465780601f10610d1b57610100808354040283529160200191610d46565b820191906000526020600020905b815481529060010190602001808311610d2957829003601f168201915b5050865460408051602060026001851615610100026000190190941693909304601f810184900484028201840190925281815295995088945092508401905082828015610dd45780601f10610da957610100808354040283529160200191610dd4565b820191906000526020600020905b815481529060010190602001808311610db757829003601f168201915b5050855460408051602060026001851615610100026000190190941693909304601f810184900484028201840190925281815295985087945092508401905082828015610e625780601f10610e3757610100808354040283529160200191610e62565b820191906000526020600020905b815481529060010190602001808311610e4557829003601f168201915b50979c969b509299509297509395505050505050565b600054610100900460ff1680610e915750610e91611391565b80610e9f575060005460ff16155b610eda5760405162461bcd60e51b815260040180806020018281038252602e8152602001806115de602e913960400191505060405180910390fd5b600054610100900460ff16158015610f05576000805460ff1961ff0019909116610100171660011790555b610f0d611397565b610f1960978989611491565b50610f2660988787611491565b50610f3360998585611491565b50609a80546001600160a01b0319166001600160a01b0384161790558015610f61576000805461ff00191690555b5050505050505050565b610f7361138d565b6065546001600160a01b03908116911614610fc3576040805162461bcd60e51b815260206004820181905260248201526000805160206115be833981519152604482015290519081900360640190fd5b6065546040516000916001600160a01b0316907f8be0079c531659141344cd1fd0a4f28419497f9722a3daafe3b4186f6b6457e0908390a3606580546001600160a01b0319169055565b6065546001600160a01b031690565b609c805460408051602060026001851615610100026000190190941693909304601f810184900484028201840190925281815292918301828280156110a25780601f10611077576101008083540402835291602001916110a2565b820191906000526020600020905b81548152906001019060200180831161108557829003601f168201915b505050505081565b80516110bd90609c90602084019061150f565b5050565b600080805b609e5481101561117057609e81815481106110dd57fe5b9060005260206000200160405180828054600181600116156101000203166002900480156111425780601f10611120576101008083540402835291820191611142565b820191906000526020600020905b81548152906001019060200180831161112e575b505091505060405180910390208480519060200120141561116857600192509050611179565b6001016110c6565b50600091508190505b915091565b61118661138d565b6065546001600160a01b039081169116146111d6576040805162461bcd60e51b815260206004820181905260248201526000805160206115be833981519152604482015290519081900360640190fd5b6001600160a01b03811661121b5760405162461bcd60e51b81526004018080602001828103825260268152602001806115986026913960400191505060405180910390fd5b6065546040516001600160a01b038084169216907f8be0079c531659141344cd1fd0a4f28419497f9722a3daafe3b4186f6b6457e090600090a3606580546001600160a01b0319166001600160a01b0392909216919091179055565b61127f61138d565b6065546001600160a01b039081169116146112cf576040805162461bcd60e51b815260206004820181905260248201526000805160206115be833981519152604482015290519081900360640190fd5b6112db60988383611491565b5060408051602080825260988054600260001961010060018416150201909116049183018290527fe6a3d4ec4f69ac853579fb0336181042ec4d0a21b32de1a92b6dd6a2f904f5a09390929182918201908490801561137b5780601f106113505761010080835404028352916020019161137b565b820191906000526020600020905b81548152906001019060200180831161135e57829003601f168201915b50509250505060405180910390a15050565b3390565b303b1590565b600054610100900460ff16806113b057506113b0611391565b806113be575060005460ff16155b6113f95760405162461bcd60e51b815260040180806020018281038252602e8152602001806115de602e913960400191505060405180910390fd5b600054610100900460ff16158015611424576000805460ff1961ff0019909116610100171660011790555b600061142e61138d565b606580546001600160a01b0319166001600160a01b038316908117909155604051919250906000907f8be0079c531659141344cd1fd0a4f28419497f9722a3daafe3b4186f6b6457e0908290a350801561148e576000805461ff00191690555b50565b828054600181600116156101000203166002900490600052602060002090601f016020900481019282601f106114d25782800160ff198235161785556114ff565b828001600101855582156114ff579182015b828111156114ff5782358255916020019190600101906114e4565b5061150b92915061157d565b5090565b828054600181600116156101000203166002900490600052602060002090601f016020900481019282601f1061155057805160ff19168380011785556114ff565b828001600101855582156114ff579182015b828111156114ff578251825591602001919060010190611562565b610c8c91905b8082111561150b576000815560010161158356fe4f776e61626c653a206e6577206f776e657220697320746865207a65726f20616464726573734f776e61626c653a2063616c6c6572206973206e6f7420746865206f776e6572436f6e747261637420696e7374616e63652068617320616c7265616479206265656e20696e697469616c697a6564a26469706673582212208673f58e36ce91ee70e477c5b3d35e0ab31a314be6270c48c42b99bae981938d64736f6c63430006020033",
  "source": "pragma solidity 0.6.2;\n\n/**\n * @title Registry V2 Mock\n * @dev Manages a Registry and it's entries.\n*/\n\nimport '../../RegistryToken/RegistryToken.sol';\nimport '../../Registry/RegistryI.sol';\nimport \"../../../node_modules/@openzeppelin/contracts-ethereum-package/contracts/math/SafeMath.sol\";\nimport \"../../../node_modules/@openzeppelin/contracts-ethereum-package/contracts/access/Ownable.sol\";\n\ncontract RegistryV2Mock is RegistryI, Initializable, OwnableUpgradeSafe {\n    using SafeMath for uint256;\n\n    string private domain;\n    string private ref;\n    string private registryType;\n    address private registryToken;\n    address payable public registryTokenAddress;\n    string public newUpgradeVar;\n\n    struct RegistryEntry {\n        string ref;\n        bool isHuman;\n    }\n\n    mapping(string => RegistryEntry) registryEntryMap;\n    string[] registryEntries;\n\n    /// @notice Emitted when a new Registry is created.\n    event RegistryEntryCreated(string subdomain, string ref);\n\n    /// @notice Emitted when the Registry ref is set.\n    event RegistryRefSet(string ref);\n\n    /// @notice Emitted when the Registry entry ref is set.\n    event RegistryEntryRefSet(string ref);\n\n    /**\n     * @notice Initializes a new Registry after construction.\n     * @param _domain The primary name used to represent the Registry. \n     * @param _ref The primary reference that a Registry links to. This can be any type of content and is typically used to reference an index or url.\n     * @param _registryType The Registry's Type. Registry Types are defined globally at the Registrar and used to categorize Registries.\n     * @param _registryToken The address of the Registry's Token. Registry Tokens are issued upon staking Infinity Token to transfer the ownership of a Registry Entry.\n     */\n\n    function initialize(\n        string calldata _domain,\n        string calldata _ref, \n        string calldata _registryType, \n        address _registryToken)\n        external \n        initializer\n        override\n    {\n        __Ownable_init_unchained();\n        domain = _domain;\n        ref = _ref;\n        registryType = _registryType;\n        registryToken = _registryToken;\n    }\n\n    // Add staking checks/logic here\n\n    /**\n     * @notice Creates a new entry in the Registry.\n     * @param _subdomain The subdomain to index the Registry.\n     * @param _ref The reference the Registry entry will point to.\n     */\n\n    function createRegistryEntry (\n        string calldata _subdomain, \n        string calldata _ref)\n        external\n        override\n        onlyOwner\n    {\n        (bool _isRegistered, ) = isRegistered(_subdomain);\n        if(!_isRegistered) {\n            registryEntryMap[_subdomain].ref = _ref;\n            registryEntryMap[_subdomain].isHuman = false;\n            registryEntries.push(_subdomain);\n\n            emit RegistryEntryCreated(_subdomain, _ref);\n        }\n    }\n\n    /**\n     * @notice Sets the reference for the Registry.\n     * @param _newRef The new reference used for the Registry.\n     */\n\n    function setRegistryRef (string calldata _newRef) external override onlyOwner {\n        ref = _newRef;\n        emit RegistryRefSet(ref);\n    }\n\n    /**\n     * @notice Sets the subdomain for a Registry entry.\n     * @param _subdomain The subdomain to index the Registry entry.\n     */\n\n\n    function setRegistryEntryRef (string calldata _subdomain, string calldata _newRef) external override onlyOwner {\n        registryEntryMap[_subdomain].ref = _newRef;\n        emit RegistryEntryRefSet(registryEntryMap[_subdomain].ref);\n    }\n\n    /**\n     * @notice Returns the domain, reference, type and RegistryToken address for a Registry. \n     */\n\n    function getRegistry() \n        external\n        override\n        view\n    returns (string memory, string memory, string memory, address)\n    {\n        return(domain, ref, registryType, registryTokenAddress);\n    }\n\n    /**\n     * @notice Returns the reference of a Registry.\n     */\n\n    function getRef()\n        external\n        override\n        view\n    returns (string memory)\n    {\n        return ref;\n    }\n\n    /**\n     * @notice Returns the Reference for an entry in the Registry.\n     * @param _subdomain The subdomain to index the Registry entry.\n     */\n\n    function getRegistryEntryRef (string calldata _subdomain) \n        external \n        override\n        view \n    returns (string memory) {\n        return registryEntryMap[_subdomain].ref;\n    }\n\n    /**s\n     * @notice Returns a boolean representing whether a subdomain is registered within the Registry.\n     * @param _subdomain The subdomain to index the Registry entry.\n     */\n\n    function isRegistered(string memory _subdomain)\n       public\n       override\n       view\n    returns(bool, uint256)\n    {\n        for (uint256 i = 0; i < registryEntries.length; i += 1){\n            if (keccak256(bytes(_subdomain)) == keccak256(bytes(registryEntries[i]))) return (true, i);\n        }\n        return (false, 0);\n    }\n\n    function setNewUpgradeVar(string memory _newUpgradeVar) public {\n        newUpgradeVar = _newUpgradeVar;\n    }\n}",
  "sourcePath": "/Users/neo/Code/ZNS/contracts/test/TransparentUpgradeProxy/RegistryV2Mock.sol",
  "compiler": {
    "name": "solc",
    "version": "0.6.2+commit.bacdbe57.Emscripten.clang"
  },
  "schemaVersion": "3.2.3",
  "updatedAt": "2020-09-23T17:59:11.761Z",
  "devdoc": {
    "methods": {
      "createRegistryEntry(string,string)": {
        "params": {
          "_ref": "The reference the Registry entry will point to.",
          "_subdomain": "The subdomain to index the Registry."
        }
      },
      "getRegistryEntryRef(string)": {
        "params": {
          "_subdomain": "The subdomain to index the Registry entry."
        }
      },
      "initialize(string,string,string,address)": {
        "params": {
          "_domain": "The primary name used to represent the Registry. ",
          "_ref": "The primary reference that a Registry links to. This can be any type of content and is typically used to reference an index or url.",
          "_registryToken": "The address of the Registry's Token. Registry Tokens are issued upon staking Infinity Token to transfer the ownership of a Registry Entry.",
          "_registryType": "The Registry's Type. Registry Types are defined globally at the Registrar and used to categorize Registries."
        }
      },
      "isRegistered(string)": {
        "params": {
          "_subdomain": "The subdomain to index the Registry entry."
        }
      },
      "owner()": {
        "details": "Returns the address of the current owner."
      },
      "renounceOwnership()": {
        "details": "Leaves the contract without owner. It will not be possible to call `onlyOwner` functions anymore. Can only be called by the current owner.     * NOTE: Renouncing ownership will leave the contract without an owner, thereby removing any functionality that is only available to the owner."
      },
      "setRegistryEntryRef(string,string)": {
        "params": {
          "_subdomain": "The subdomain to index the Registry entry."
        }
      },
      "setRegistryRef(string)": {
        "params": {
          "_newRef": "The new reference used for the Registry."
        }
      },
      "transferOwnership(address)": {
        "details": "Transfers ownership of the contract to a new account (`newOwner`). Can only be called by the current owner."
      }
    }
  },
  "userdoc": {
    "methods": {
      "createRegistryEntry(string,string)": {
        "notice": "Creates a new entry in the Registry."
      },
      "getRef()": {
        "notice": "Returns the reference of a Registry."
      },
      "getRegistry()": {
        "notice": "Returns the domain, reference, type and RegistryToken address for a Registry. "
      },
      "getRegistryEntryRef(string)": {
        "notice": "Returns the Reference for an entry in the Registry."
      },
      "initialize(string,string,string,address)": {
        "notice": "Initializes a new Registry after construction."
      },
      "isRegistered(string)": {
        "notice": "sReturns a boolean representing whether a subdomain is registered within the Registry."
      },
      "setRegistryEntryRef(string,string)": {
        "notice": "Sets the subdomain for a Registry entry."
      },
      "setRegistryRef(string)": {
        "notice": "Sets the reference for the Registry."
      }
    }
  }
}