{
  "contractName": "RegistryV2Mock",
  "abi": [
    {
      "anonymous": false,
      "inputs": [
        {
          "indexed": false,
          "internalType": "string",
          "name": "_newUpgradeVar",
          "type": "string"
        }
      ],
      "name": "NewUpgradeVarSet",
      "type": "event"
    },
    {
      "anonymous": false,
      "inputs": [
        {
          "indexed": true,
          "internalType": "address",
          "name": "previousOwner",
          "type": "address"
        },
        {
          "indexed": true,
          "internalType": "address",
          "name": "newOwner",
          "type": "address"
        }
      ],
      "name": "OwnershipTransferred",
      "type": "event"
    },
    {
      "anonymous": false,
      "inputs": [
        {
          "indexed": false,
          "internalType": "string",
          "name": "_subdomain",
          "type": "string"
        },
        {
          "indexed": false,
          "internalType": "string",
          "name": "_ref",
          "type": "string"
        }
      ],
      "name": "RegistryEntryCreated",
      "type": "event"
    },
    {
      "anonymous": false,
      "inputs": [
        {
          "indexed": false,
          "internalType": "string",
          "name": "_ref",
          "type": "string"
        }
      ],
      "name": "RegistryEntryRefSet",
      "type": "event"
    },
    {
      "anonymous": false,
      "inputs": [
        {
          "indexed": false,
          "internalType": "string",
          "name": "_ref",
          "type": "string"
        }
      ],
      "name": "RegistryRefSet",
      "type": "event"
    },
    {
      "inputs": [],
      "name": "newUpgradeVar",
      "outputs": [
        {
          "internalType": "string",
          "name": "",
          "type": "string"
        }
      ],
      "stateMutability": "view",
      "type": "function"
    },
    {
      "inputs": [],
      "name": "owner",
      "outputs": [
        {
          "internalType": "address",
          "name": "",
          "type": "address"
        }
      ],
      "stateMutability": "view",
      "type": "function"
    },
    {
      "inputs": [],
      "name": "registryTokenAddress",
      "outputs": [
        {
          "internalType": "address payable",
          "name": "",
          "type": "address"
        }
      ],
      "stateMutability": "view",
      "type": "function"
    },
    {
      "inputs": [],
      "name": "renounceOwnership",
      "outputs": [],
      "stateMutability": "nonpayable",
      "type": "function"
    },
    {
      "inputs": [
        {
          "internalType": "address",
          "name": "newOwner",
          "type": "address"
        }
      ],
      "name": "transferOwnership",
      "outputs": [],
      "stateMutability": "nonpayable",
      "type": "function"
    },
    {
      "inputs": [
        {
          "internalType": "string",
          "name": "_domain",
          "type": "string"
        },
        {
          "internalType": "string",
          "name": "_ref",
          "type": "string"
        },
        {
          "internalType": "string",
          "name": "_registryType",
          "type": "string"
        },
        {
          "internalType": "address",
          "name": "_registryToken",
          "type": "address"
        }
      ],
      "name": "initialize",
      "outputs": [],
      "stateMutability": "nonpayable",
      "type": "function"
    },
    {
      "inputs": [
        {
          "internalType": "string",
          "name": "_subdomain",
          "type": "string"
        },
        {
          "internalType": "string",
          "name": "_ref",
          "type": "string"
        }
      ],
      "name": "createRegistryEntry",
      "outputs": [],
      "stateMutability": "nonpayable",
      "type": "function"
    },
    {
      "inputs": [
        {
          "internalType": "string",
          "name": "_newRef",
          "type": "string"
        }
      ],
      "name": "setRegistryRef",
      "outputs": [],
      "stateMutability": "nonpayable",
      "type": "function"
    },
    {
      "inputs": [
        {
          "internalType": "string",
          "name": "_subdomain",
          "type": "string"
        },
        {
          "internalType": "string",
          "name": "_newRef",
          "type": "string"
        }
      ],
      "name": "setRegistryEntryRef",
      "outputs": [],
      "stateMutability": "nonpayable",
      "type": "function"
    },
    {
      "inputs": [],
      "name": "getRegistry",
      "outputs": [
        {
          "internalType": "string",
          "name": "",
          "type": "string"
        },
        {
          "internalType": "string",
          "name": "",
          "type": "string"
        },
        {
          "internalType": "string",
          "name": "",
          "type": "string"
        },
        {
          "internalType": "address",
          "name": "",
          "type": "address"
        }
      ],
      "stateMutability": "view",
      "type": "function"
    },
    {
      "inputs": [],
      "name": "getRef",
      "outputs": [
        {
          "internalType": "string",
          "name": "",
          "type": "string"
        }
      ],
      "stateMutability": "view",
      "type": "function"
    },
    {
      "inputs": [
        {
          "internalType": "string",
          "name": "_subdomain",
          "type": "string"
        }
      ],
      "name": "getRegistryEntryRef",
      "outputs": [
        {
          "internalType": "string",
          "name": "",
          "type": "string"
        }
      ],
      "stateMutability": "view",
      "type": "function"
    },
    {
      "inputs": [
        {
          "internalType": "string",
          "name": "_subdomain",
          "type": "string"
        }
      ],
      "name": "isRegistered",
      "outputs": [
        {
          "internalType": "bool",
          "name": "",
          "type": "bool"
        },
        {
          "internalType": "uint256",
          "name": "",
          "type": "uint256"
        }
      ],
      "stateMutability": "view",
      "type": "function"
    },
    {
      "inputs": [
        {
          "internalType": "string",
          "name": "_newUpgradeVar",
          "type": "string"
        }
      ],
      "name": "setNewUpgradeVar",
      "outputs": [],
      "stateMutability": "nonpayable",
      "type": "function"
    },
    {
      "inputs": [],
      "name": "getNewUpgradeVar",
      "outputs": [
        {
          "internalType": "string",
          "name": "",
          "type": "string"
        }
      ],
      "stateMutability": "view",
      "type": "function"
    }
  ],
  "bytecode": "0x608060405234801561001057600080fd5b5061174e806100206000396000f3fe608060405234801561001057600080fd5b50600436106100f55760003560e01c806360506ea611610097578063c7ca86b211610066578063c7ca86b214610619578063c822d7f0146106bd578063f2fde38b1461077c578063fb3e6444146107a2576100f5565b806360506ea6146105f9578063715018a6146106015780638da5cb5b14610609578063c3b3ec9014610611576100f5565b80631d6d32ba116100d35780631d6d32ba1461035b5780631d8e2f58146103635780635ab1bd53146103875780635c6d8da1146104e2576100f5565b8063149adf58146100fa578063164f25bf146101dd5780631692f21f1461029d575b600080fd5b6101686004803603602081101561011057600080fd5b810190602081018135600160201b81111561012a57600080fd5b82018360208201111561013c57600080fd5b803590602001918460018302840111600160201b8311171561015d57600080fd5b509092509050610810565b6040805160208082528351818301528351919283929083019185019080838360005b838110156101a257818101518382015260200161018a565b50505050905090810190601f1680156101cf5780820380516001836020036101000a031916815260200191505b509250505060405180910390f35b61029b600480360360408110156101f357600080fd5b810190602081018135600160201b81111561020d57600080fd5b82018360208201111561021f57600080fd5b803590602001918460018302840111600160201b8311171561024057600080fd5b919390929091602081019035600160201b81111561025d57600080fd5b82018360208201111561026f57600080fd5b803590602001918460018302840111600160201b8311171561029057600080fd5b5090925090506108c5565b005b61029b600480360360408110156102b357600080fd5b810190602081018135600160201b8111156102cd57600080fd5b8201836020820111156102df57600080fd5b803590602001918460018302840111600160201b8311171561030057600080fd5b919390929091602081019035600160201b81111561031d57600080fd5b82018360208201111561032f57600080fd5b803590602001918460018302840111600160201b8311171561035057600080fd5b509092509050610aaa565b610168610c0b565b61036b610ca2565b604080516001600160a01b039092168252519081900360200190f35b61038f610cb1565b604080516001600160a01b0383166060820152608080825286519082015285519091829160208084019284019160a08501918a019080838360005b838110156103e25781810151838201526020016103ca565b50505050905090810190601f16801561040f5780820380516001836020036101000a031916815260200191505b50848103835287518152875160209182019189019080838360005b8381101561044257818101518382015260200161042a565b50505050905090810190601f16801561046f5780820380516001836020036101000a031916815260200191505b50848103825286518152865160209182019188019080838360005b838110156104a257818101518382015260200161048a565b50505050905090810190601f1680156104cf5780820380516001836020036101000a031916815260200191505b5097505050505050505060405180910390f35b61029b600480360360808110156104f857600080fd5b810190602081018135600160201b81111561051257600080fd5b82018360208201111561052457600080fd5b803590602001918460018302840111600160201b8311171561054557600080fd5b919390929091602081019035600160201b81111561056257600080fd5b82018360208201111561057457600080fd5b803590602001918460018302840111600160201b8311171561059557600080fd5b919390929091602081019035600160201b8111156105b257600080fd5b8201836020820111156105c457600080fd5b803590602001918460018302840111600160201b831117156105e557600080fd5b9193509150356001600160a01b0316610e8b565b610168610f7e565b61029b610fdf565b61036b611081565b610168611090565b61029b6004803603602081101561062f57600080fd5b810190602081018135600160201b81111561064957600080fd5b82018360208201111561065b57600080fd5b803590602001918460018302840111600160201b8311171561067c57600080fd5b91908080601f01602080910402602001604051908101604052809392919081815260200183838082843760009201919091525092955061111e945050505050565b610761600480360360208110156106d357600080fd5b810190602081018135600160201b8111156106ed57600080fd5b8201836020820111156106ff57600080fd5b803590602001918460018302840111600160201b8311171561072057600080fd5b91908080601f0160208091040260200160405190810160405280939291908181526020018383808284376000920191909152509295506111ce945050505050565b60408051921515835260208301919091528051918290030190f35b61029b6004803603602081101561079257600080fd5b50356001600160a01b031661128b565b61029b600480360360208110156107b857600080fd5b810190602081018135600160201b8111156107d257600080fd5b8201836020820111156107e457600080fd5b803590602001918460018302840111600160201b8311171561080557600080fd5b509092509050611384565b6060609d8383604051808383808284379190910194855250506040805160209481900385018120805460026001821615610100026000190190911604601f810187900487028301870190935282825290949093509091508301828280156108b85780601f1061088d576101008083540402835291602001916108b8565b820191906000526020600020905b81548152906001019060200180831161089b57829003601f168201915b5050505050905092915050565b6108cd61149a565b6065546001600160a01b0390811691161461091d576040805162461bcd60e51b815260206004820181905260248201526000805160206116cb833981519152604482015290519081900360640190fd5b600061095e85858080601f0160208091040260200160405190810160405280939291908181526020018383808284376000920191909152506111ce92505050565b50905080610aa3578282609d8787604051808383808284379190910194855250506040519283900360200190922061099c949093909250905061159e565b506000609d868660405180838380828437919091019485525050604051928390036020019092206001908101805494151560ff19909516949094179093555050609e80549182018155600052610a15907fcfe2a20ff701a1f3e14f63bd70d6c6bc6fba8172ec6d5a505cdab3927c0a9de601868661159e565b507ff49f5d228081cdcb24c2f4939e0f2236ab3121fd710df20a22d9e2130244b61d858585856040518080602001806020018381038352878782818152602001925080828437600083820152601f01601f191690910184810383528581526020019050858580828437600083820152604051601f909101601f19169092018290039850909650505050505050a15b5050505050565b610ab261149a565b6065546001600160a01b03908116911614610b02576040805162461bcd60e51b815260206004820181905260248201526000805160206116cb833981519152604482015290519081900360640190fd5b8181609d86866040518083838082843791909101948552505060405192839003602001909220610b38949093909250905061159e565b507fe4bc8abccea03a84d1974cb45f8445c3bed2c0d18e9e38396166ff6f8a95875b609d8585604051808383808284379190910194855250506040805193849003602090810185208186528054600260001961010060018416150201909116049186018290529493508392509082019084908015610bf75780601f10610bcc57610100808354040283529160200191610bf7565b820191906000526020600020905b815481529060010190602001808311610bda57829003601f168201915b50509250505060405180910390a150505050565b60988054604080516020601f6002600019610100600188161502019095169490940493840181900481028201810190925282815260609390929091830182828015610c975780601f10610c6c57610100808354040283529160200191610c97565b820191906000526020600020905b815481529060010190602001808311610c7a57829003601f168201915b505050505090505b90565b609b546001600160a01b031681565b609b5460978054604080516020601f600260001960018716156101000201909516949094049384018190048102820181019092528281526060948594859460009491936098936099936001600160a01b03909116928691830182828015610d595780601f10610d2e57610100808354040283529160200191610d59565b820191906000526020600020905b815481529060010190602001808311610d3c57829003601f168201915b5050865460408051602060026001851615610100026000190190941693909304601f810184900484028201840190925281815295995088945092508401905082828015610de75780601f10610dbc57610100808354040283529160200191610de7565b820191906000526020600020905b815481529060010190602001808311610dca57829003601f168201915b5050855460408051602060026001851615610100026000190190941693909304601f810184900484028201840190925281815295985087945092508401905082828015610e755780601f10610e4a57610100808354040283529160200191610e75565b820191906000526020600020905b815481529060010190602001808311610e5857829003601f168201915b50979c969b509299509297509395505050505050565b600054610100900460ff1680610ea45750610ea461149e565b80610eb2575060005460ff16155b610eed5760405162461bcd60e51b815260040180806020018281038252602e8152602001806116eb602e913960400191505060405180910390fd5b600054610100900460ff16158015610f18576000805460ff1961ff0019909116610100171660011790555b610f206114a4565b610f2c6097898961159e565b50610f396098878761159e565b50610f466099858561159e565b50609a80546001600160a01b0319166001600160a01b0384161790558015610f74576000805461ff00191690555b5050505050505050565b609c8054604080516020601f6002600019610100600188161502019095169490940493840181900481028201810190925282815260609390929091830182828015610c975780601f10610c6c57610100808354040283529160200191610c97565b610fe761149a565b6065546001600160a01b03908116911614611037576040805162461bcd60e51b815260206004820181905260248201526000805160206116cb833981519152604482015290519081900360640190fd5b6065546040516000916001600160a01b0316907f8be0079c531659141344cd1fd0a4f28419497f9722a3daafe3b4186f6b6457e0908390a3606580546001600160a01b0319169055565b6065546001600160a01b031690565b609c805460408051602060026001851615610100026000190190941693909304601f810184900484028201840190925281815292918301828280156111165780601f106110eb57610100808354040283529160200191611116565b820191906000526020600020905b8154815290600101906020018083116110f957829003601f168201915b505050505081565b805161113190609c90602084019061161c565b507fa26dd01080f49b8368e858cda84b2d959288ad7f9b73af10f2eeaa1fdf198551816040518080602001828103825283818151815260200191508051906020019080838360005b83811015611191578181015183820152602001611179565b50505050905090810190601f1680156111be5780820380516001836020036101000a031916815260200191505b509250505060405180910390a150565b600080805b609e5481101561127d57609e81815481106111ea57fe5b90600052602060002001604051808280546001816001161561010002031660029004801561124f5780601f1061122d57610100808354040283529182019161124f565b820191906000526020600020905b81548152906001019060200180831161123b575b505091505060405180910390208480519060200120141561127557600192509050611286565b6001016111d3565b50600091508190505b915091565b61129361149a565b6065546001600160a01b039081169116146112e3576040805162461bcd60e51b815260206004820181905260248201526000805160206116cb833981519152604482015290519081900360640190fd5b6001600160a01b0381166113285760405162461bcd60e51b81526004018080602001828103825260268152602001806116a56026913960400191505060405180910390fd5b6065546040516001600160a01b038084169216907f8be0079c531659141344cd1fd0a4f28419497f9722a3daafe3b4186f6b6457e090600090a3606580546001600160a01b0319166001600160a01b0392909216919091179055565b61138c61149a565b6065546001600160a01b039081169116146113dc576040805162461bcd60e51b815260206004820181905260248201526000805160206116cb833981519152604482015290519081900360640190fd5b6113e86098838361159e565b5060408051602080825260988054600260001961010060018416150201909116049183018290527fe6a3d4ec4f69ac853579fb0336181042ec4d0a21b32de1a92b6dd6a2f904f5a0939092918291820190849080156114885780601f1061145d57610100808354040283529160200191611488565b820191906000526020600020905b81548152906001019060200180831161146b57829003601f168201915b50509250505060405180910390a15050565b3390565b303b1590565b600054610100900460ff16806114bd57506114bd61149e565b806114cb575060005460ff16155b6115065760405162461bcd60e51b815260040180806020018281038252602e8152602001806116eb602e913960400191505060405180910390fd5b600054610100900460ff16158015611531576000805460ff1961ff0019909116610100171660011790555b600061153b61149a565b606580546001600160a01b0319166001600160a01b038316908117909155604051919250906000907f8be0079c531659141344cd1fd0a4f28419497f9722a3daafe3b4186f6b6457e0908290a350801561159b576000805461ff00191690555b50565b828054600181600116156101000203166002900490600052602060002090601f016020900481019282601f106115df5782800160ff1982351617855561160c565b8280016001018555821561160c579182015b8281111561160c5782358255916020019190600101906115f1565b5061161892915061168a565b5090565b828054600181600116156101000203166002900490600052602060002090601f016020900481019282601f1061165d57805160ff191683800117855561160c565b8280016001018555821561160c579182015b8281111561160c57825182559160200191906001019061166f565b610c9f91905b80821115611618576000815560010161169056fe4f776e61626c653a206e6577206f776e657220697320746865207a65726f20616464726573734f776e61626c653a2063616c6c6572206973206e6f7420746865206f776e6572436f6e747261637420696e7374616e63652068617320616c7265616479206265656e20696e697469616c697a6564a2646970667358221220af06e71d4af5dafc8c420a87e07f06501496738f884dbdd045b7f596c97e2ef664736f6c63430006020033",
  "source": "pragma solidity 0.6.2;\n\n/**\n * @title Registry V2 Mock\n * @dev Manages a Registry and it's entries.\n*/\n\nimport '../../RegistryToken/RegistryToken.sol';\nimport '../../Registry/RegistryI.sol';\nimport \"../../../node_modules/@openzeppelin/contracts-ethereum-package/contracts/math/SafeMath.sol\";\nimport \"../../../node_modules/@openzeppelin/contracts-ethereum-package/contracts/access/Ownable.sol\";\n\ncontract RegistryV2Mock is RegistryI, Initializable, OwnableUpgradeSafe {\n    using SafeMath for uint256;\n\n    string private domain;\n    string private ref;\n    string private registryType;\n    address private registryToken;\n    address payable public registryTokenAddress;\n    string public newUpgradeVar;\n\n    struct RegistryEntry {\n        string ref;\n        bool isHuman;\n    }\n\n    mapping(string => RegistryEntry) registryEntryMap;\n    string[] registryEntries;\n\n    /// @notice Emitted when a new Registry is created.\n    event RegistryEntryCreated(string _subdomain, string _ref);\n\n    /// @notice Emitted when the Registry ref is set.\n    event RegistryRefSet(string _ref);\n\n    /// @notice Emitted when the Registry entry ref is set.\n    event RegistryEntryRefSet(string _ref);\n\n    /// @notice Emitted when newUpgradeVar is set.\n    event NewUpgradeVarSet(string _newUpgradeVar);\n\n    /**\n     * @notice Initializes a new Registry after construction.\n     * @param _domain The primary name used to represent the Registry. \n     * @param _ref The primary reference that a Registry links to. This can be any type of content and is typically used to reference an index or url.\n     * @param _registryType The Registry's Type. Registry Types are defined globally at the Registrar and used to categorize Registries.\n     * @param _registryToken The address of the Registry's Token. Registry Tokens are issued upon staking Infinity Token to transfer the ownership of a Registry Entry.\n     */\n\n    function initialize(\n        string calldata _domain,\n        string calldata _ref, \n        string calldata _registryType, \n        address _registryToken)\n        external \n        initializer\n        override\n    {\n        __Ownable_init_unchained();\n        domain = _domain;\n        ref = _ref;\n        registryType = _registryType;\n        registryToken = _registryToken;\n    }\n\n    // Add staking checks/logic here\n\n    /**\n     * @notice Creates a new entry in the Registry.\n     * @param _subdomain The subdomain to index the Registry.\n     * @param _ref The reference the Registry entry will point to.\n     */\n\n    function createRegistryEntry (\n        string calldata _subdomain, \n        string calldata _ref)\n        external\n        override\n        onlyOwner\n    {\n        (bool _isRegistered, ) = isRegistered(_subdomain);\n        if(!_isRegistered) {\n            registryEntryMap[_subdomain].ref = _ref;\n            registryEntryMap[_subdomain].isHuman = false;\n            registryEntries.push(_subdomain);\n\n            emit RegistryEntryCreated(_subdomain, _ref);\n        }\n    }\n\n    /**\n     * @notice Sets the reference for the Registry.\n     * @param _newRef The new reference used for the Registry.\n     */\n\n    function setRegistryRef (string calldata _newRef) external override onlyOwner {\n        ref = _newRef;\n        emit RegistryRefSet(ref);\n    }\n\n    /**\n     * @notice Sets the subdomain for a Registry entry.\n     * @param _subdomain The subdomain to index the Registry entry.\n     */\n\n\n    function setRegistryEntryRef (string calldata _subdomain, string calldata _newRef) external override onlyOwner {\n        registryEntryMap[_subdomain].ref = _newRef;\n        emit RegistryEntryRefSet(registryEntryMap[_subdomain].ref);\n    }\n\n    /**\n     * @notice Returns the domain, reference, type and RegistryToken address for a Registry. \n     */\n\n    function getRegistry() \n        external\n        override\n        view\n    returns (string memory, string memory, string memory, address)\n    {\n        return(domain, ref, registryType, registryTokenAddress);\n    }\n\n    /**\n     * @notice Returns the reference of a Registry.\n     */\n\n    function getRef()\n        external\n        override\n        view\n    returns (string memory)\n    {\n        return ref;\n    }\n\n    /**\n     * @notice Returns the Reference for an entry in the Registry.\n     * @param _subdomain The subdomain to index the Registry entry.\n     */\n\n    function getRegistryEntryRef (string calldata _subdomain) \n        external \n        override\n        view \n    returns (string memory) {\n        return registryEntryMap[_subdomain].ref;\n    }\n\n    /**s\n     * @notice Returns a boolean representing whether a subdomain is registered within the Registry.\n     * @param _subdomain The subdomain to index the Registry entry.\n     */\n\n    function isRegistered(string memory _subdomain)\n       public\n       override\n       view\n    returns(bool, uint256)\n    {\n        for (uint256 i = 0; i < registryEntries.length; i += 1){\n            if (keccak256(bytes(_subdomain)) == keccak256(bytes(registryEntries[i]))) return (true, i);\n        }\n        return (false, 0);\n    }\n\n    function setNewUpgradeVar(string memory _newUpgradeVar) public {\n        newUpgradeVar = _newUpgradeVar;\n        emit NewUpgradeVarSet(_newUpgradeVar);\n    }\n\n    function getNewUpgradeVar() public view returns (string memory) {\n        return newUpgradeVar;\n    }\n}",
  "sourcePath": "/Users/neo/Code/ZNS/contracts/test/TransparentUpgradeProxy/RegistryV2Mock.sol",
  "compiler": {
    "name": "solc",
    "version": "0.6.2+commit.bacdbe57.Emscripten.clang"
  },
  "schemaVersion": "3.2.3",
  "updatedAt": "2020-09-24T18:37:53.375Z",
  "devdoc": {
    "methods": {
      "createRegistryEntry(string,string)": {
        "params": {
          "_ref": "The reference the Registry entry will point to.",
          "_subdomain": "The subdomain to index the Registry."
        }
      },
      "getRegistryEntryRef(string)": {
        "params": {
          "_subdomain": "The subdomain to index the Registry entry."
        }
      },
      "initialize(string,string,string,address)": {
        "params": {
          "_domain": "The primary name used to represent the Registry. ",
          "_ref": "The primary reference that a Registry links to. This can be any type of content and is typically used to reference an index or url.",
          "_registryToken": "The address of the Registry's Token. Registry Tokens are issued upon staking Infinity Token to transfer the ownership of a Registry Entry.",
          "_registryType": "The Registry's Type. Registry Types are defined globally at the Registrar and used to categorize Registries."
        }
      },
      "isRegistered(string)": {
        "params": {
          "_subdomain": "The subdomain to index the Registry entry."
        }
      },
      "owner()": {
        "details": "Returns the address of the current owner."
      },
      "renounceOwnership()": {
        "details": "Leaves the contract without owner. It will not be possible to call `onlyOwner` functions anymore. Can only be called by the current owner.     * NOTE: Renouncing ownership will leave the contract without an owner, thereby removing any functionality that is only available to the owner."
      },
      "setRegistryEntryRef(string,string)": {
        "params": {
          "_subdomain": "The subdomain to index the Registry entry."
        }
      },
      "setRegistryRef(string)": {
        "params": {
          "_newRef": "The new reference used for the Registry."
        }
      },
      "transferOwnership(address)": {
        "details": "Transfers ownership of the contract to a new account (`newOwner`). Can only be called by the current owner."
      }
    }
  },
  "userdoc": {
    "methods": {
      "createRegistryEntry(string,string)": {
        "notice": "Creates a new entry in the Registry."
      },
      "getRef()": {
        "notice": "Returns the reference of a Registry."
      },
      "getRegistry()": {
        "notice": "Returns the domain, reference, type and RegistryToken address for a Registry. "
      },
      "getRegistryEntryRef(string)": {
        "notice": "Returns the Reference for an entry in the Registry."
      },
      "initialize(string,string,string,address)": {
        "notice": "Initializes a new Registry after construction."
      },
      "isRegistered(string)": {
        "notice": "sReturns a boolean representing whether a subdomain is registered within the Registry."
      },
      "setRegistryEntryRef(string,string)": {
        "notice": "Sets the subdomain for a Registry entry."
      },
      "setRegistryRef(string)": {
        "notice": "Sets the reference for the Registry."
      }
    }
  }
}