{
  "contractName": "Registrar",
  "abi": [
    {
      "constant": true,
      "inputs": [
        {
          "internalType": "uint256",
          "name": "",
          "type": "uint256"
        }
      ],
      "name": "registrar",
      "outputs": [
        {
          "internalType": "address",
          "name": "owner",
          "type": "address"
        },
        {
          "internalType": "string",
          "name": "registryName",
          "type": "string"
        },
        {
          "internalType": "string",
          "name": "registryType",
          "type": "string"
        }
      ],
      "payable": false,
      "stateMutability": "view",
      "type": "function"
    },
    {
      "constant": false,
      "inputs": [
        {
          "internalType": "address",
          "name": "_owner",
          "type": "address"
        },
        {
          "internalType": "string",
          "name": "_registryName",
          "type": "string"
        },
        {
          "internalType": "string",
          "name": "_registryType",
          "type": "string"
        }
      ],
      "name": "createRegistry",
      "outputs": [],
      "payable": false,
      "stateMutability": "nonpayable",
      "type": "function"
    },
    {
      "constant": true,
      "inputs": [],
      "name": "getRegistries",
      "outputs": [
        {
          "internalType": "string",
          "name": "",
          "type": "string"
        }
      ],
      "payable": false,
      "stateMutability": "view",
      "type": "function"
    }
  ],
  "bytecode": "0x608060405234801561001057600080fd5b5061091c806100206000396000f3fe608060405234801561001057600080fd5b50600436106100415760003560e01c806335884e5a146100465780639433fcbc146100c9578063f7aac9511461020f575b600080fd5b61004e610381565b6040518080602001828103825283818151815260200191508051906020019080838360005b8381101561008e578082015181840152602081019050610073565b50505050905090810190601f1680156100bb5780820380516001836020036101000a031916815260200191505b509250505060405180910390f35b6100f5600480360360208110156100df57600080fd5b8101908080359060200190929190505050610465565b604051808473ffffffffffffffffffffffffffffffffffffffff1673ffffffffffffffffffffffffffffffffffffffff1681526020018060200180602001838103835285818151815260200191508051906020019080838360005b8381101561016b578082015181840152602081019050610150565b50505050905090810190601f1680156101985780820380516001836020036101000a031916815260200191505b50838103825284818151815260200191508051906020019080838360005b838110156101d15780820151818401526020810190506101b6565b50505050905090810190601f1680156101fe5780820380516001836020036101000a031916815260200191505b509550505050505060405180910390f35b61037f6004803603606081101561022557600080fd5b81019080803573ffffffffffffffffffffffffffffffffffffffff1690602001909291908035906020019064010000000081111561026257600080fd5b82018360208201111561027457600080fd5b8035906020019184600183028401116401000000008311171561029657600080fd5b91908080601f016020809104026020016040519081016040528093929190818152602001838380828437600081840152601f19601f820116905080830192505050505050509192919290803590602001906401000000008111156102f957600080fd5b82018360208201111561030b57600080fd5b8035906020019184600183028401116401000000008311171561032d57600080fd5b91908080601f016020809104026020016040519081016040528093929190818152602001838380828437600081840152601f19601f8201169050808301925050505050505091929192905050506105ec565b005b60608060008090505b60018054905081101561045d57600181815481106103a457fe5b90600052602060002090600302016001018054600181600116156101000203166002900480601f0160208091040260200160405190810160405280929190818152602001828054600181600116156101000203166002900480156104495780601f1061041e57610100808354040283529160200191610449565b820191906000526020600020905b81548152906001019060200180831161042c57829003601f168201915b50505050509150808060010191505061038a565b508091505090565b6001818154811061047257fe5b90600052602060002090600302016000915090508060000160009054906101000a900473ffffffffffffffffffffffffffffffffffffffff1690806001018054600181600116156101000203166002900480601f0160208091040260200160405190810160405280929190818152602001828054600181600116156101000203166002900480156105445780601f1061051957610100808354040283529160200191610544565b820191906000526020600020905b81548152906001019060200180831161052757829003601f168201915b505050505090806002018054600181600116156101000203166002900480601f0160208091040260200160405190810160405280929190818152602001828054600181600116156101000203166002900480156105e25780601f106105b7576101008083540402835291602001916105e2565b820191906000526020600020905b8154815290600101906020018083116105c557829003601f168201915b5050505050905083565b600080836040518082805190602001908083835b602083106106235780518252602082019150602081019050602083039250610600565b6001836020036101000a03801982511681845116808217855250505050505090500191505090815260200160405180910390209050838160000160006101000a81548173ffffffffffffffffffffffffffffffffffffffff021916908373ffffffffffffffffffffffffffffffffffffffff160217905550828160010190805190602001906106b39291906107bb565b50818160020190805190602001906106cc9291906107bb565b50600181908060018154018082558091505090600182039060005260206000209060030201600090919290919091506000820160009054906101000a900473ffffffffffffffffffffffffffffffffffffffff168160000160006101000a81548173ffffffffffffffffffffffffffffffffffffffff021916908373ffffffffffffffffffffffffffffffffffffffff1602179055506001820181600101908054600181600116156101000203166002900461078992919061083b565b50600282018160020190805460018160011615610100020316600290046107b192919061083b565b5050505050505050565b828054600181600116156101000203166002900490600052602060002090601f016020900481019282601f106107fc57805160ff191683800117855561082a565b8280016001018555821561082a579182015b8281111561082957825182559160200191906001019061080e565b5b50905061083791906108c2565b5090565b828054600181600116156101000203166002900490600052602060002090601f016020900481019282601f1061087457805485556108b1565b828001600101855582156108b157600052602060002091601f016020900482015b828111156108b0578254825591600101919060010190610895565b5b5090506108be91906108c2565b5090565b6108e491905b808211156108e05760008160009055506001016108c8565b5090565b9056fea265627a7a72315820234540c5c900312133d282c701f8e7d8da1b7c5547910553f9419859eb8e7f3064736f6c63430005100032",
  "source": "pragma solidity >=0.4.22 <0.7.0;\n\n/**\n * @title Registry\n * @dev Create and interact with Registries\n*/\n\ncontract Registrar {\n\n    struct Registry {\n        address owner;\n        string registryName;\n        string registryType;\n    }\n\n    mapping (string => Registry) registryMap;\n    Registry[] public registrar;\n\n    function createRegistry (\n        address _owner, \n        string memory _registryName,\n        string memory _registryType\n    ) public {\n        Registry storage registry = registryMap[_registryName];\n\n        registry.owner = _owner;\n        registry.registryName = _registryName;\n        registry.registryType = _registryType;\n\n        registrar.push(registry);\n    }\n\n    function getRegistries() public view returns (string memory) {\n        string memory registries;\n        for(uint256 a=0; a<registrar.length; a++) {\n            registries = registrar[a].registryName;\n        }\n\n        return registries;\n    }\n}\n",
  "sourcePath": "/home/s9/code/ZNS/contracts/Registry.sol",
  "compiler": {
    "name": "solc",
    "version": "0.5.16+commit.9c3226ce.Emscripten.clang"
  },
  "schemaVersion": "3.2.3",
  "updatedAt": "2020-08-19T05:36:32.987Z",
  "devdoc": {
    "details": "Create and interact with Registries",
    "methods": {},
    "title": "Registry"
  },
  "userdoc": {
    "methods": {}
  }
}