{
  "contractName": "Registrar",
  "abi": [
    {
      "constant": true,
      "inputs": [
        {
          "internalType": "uint256",
          "name": "",
          "type": "uint256"
        }
      ],
      "name": "registrar",
      "outputs": [
        {
          "internalType": "address",
          "name": "owner",
          "type": "address"
        },
        {
          "internalType": "string",
          "name": "registryName",
          "type": "string"
        },
        {
          "internalType": "string",
          "name": "registryType",
          "type": "string"
        }
      ],
      "payable": false,
      "stateMutability": "view",
      "type": "function"
    },
    {
      "constant": false,
      "inputs": [
        {
          "internalType": "address",
          "name": "_owner",
          "type": "address"
        },
        {
          "internalType": "string",
          "name": "_registryName",
          "type": "string"
        },
        {
          "internalType": "string",
          "name": "_registryType",
          "type": "string"
        }
      ],
      "name": "createRegistry",
      "outputs": [],
      "payable": false,
      "stateMutability": "nonpayable",
      "type": "function"
    }
  ],
  "bytecode": "0x608060405234801561001057600080fd5b506107aa806100206000396000f3fe608060405234801561001057600080fd5b50600436106100365760003560e01c80639433fcbc1461003b578063f7aac95114610181575b600080fd5b6100676004803603602081101561005157600080fd5b81019080803590602001909291905050506102f3565b604051808473ffffffffffffffffffffffffffffffffffffffff1673ffffffffffffffffffffffffffffffffffffffff1681526020018060200180602001838103835285818151815260200191508051906020019080838360005b838110156100dd5780820151818401526020810190506100c2565b50505050905090810190601f16801561010a5780820380516001836020036101000a031916815260200191505b50838103825284818151815260200191508051906020019080838360005b83811015610143578082015181840152602081019050610128565b50505050905090810190601f1680156101705780820380516001836020036101000a031916815260200191505b509550505050505060405180910390f35b6102f16004803603606081101561019757600080fd5b81019080803573ffffffffffffffffffffffffffffffffffffffff169060200190929190803590602001906401000000008111156101d457600080fd5b8201836020820111156101e657600080fd5b8035906020019184600183028401116401000000008311171561020857600080fd5b91908080601f016020809104026020016040519081016040528093929190818152602001838380828437600081840152601f19601f8201169050808301925050505050505091929192908035906020019064010000000081111561026b57600080fd5b82018360208201111561027d57600080fd5b8035906020019184600183028401116401000000008311171561029f57600080fd5b91908080601f016020809104026020016040519081016040528093929190818152602001838380828437600081840152601f19601f82011690508083019250505050505050919291929050505061047a565b005b6001818154811061030057fe5b90600052602060002090600302016000915090508060000160009054906101000a900473ffffffffffffffffffffffffffffffffffffffff1690806001018054600181600116156101000203166002900480601f0160208091040260200160405190810160405280929190818152602001828054600181600116156101000203166002900480156103d25780601f106103a7576101008083540402835291602001916103d2565b820191906000526020600020905b8154815290600101906020018083116103b557829003601f168201915b505050505090806002018054600181600116156101000203166002900480601f0160208091040260200160405190810160405280929190818152602001828054600181600116156101000203166002900480156104705780601f1061044557610100808354040283529160200191610470565b820191906000526020600020905b81548152906001019060200180831161045357829003601f168201915b5050505050905083565b600080836040518082805190602001908083835b602083106104b1578051825260208201915060208101905060208303925061048e565b6001836020036101000a03801982511681845116808217855250505050505090500191505090815260200160405180910390209050838160000160006101000a81548173ffffffffffffffffffffffffffffffffffffffff021916908373ffffffffffffffffffffffffffffffffffffffff16021790555082816001019080519060200190610541929190610649565b508181600201908051906020019061055a929190610649565b50600181908060018154018082558091505090600182039060005260206000209060030201600090919290919091506000820160009054906101000a900473ffffffffffffffffffffffffffffffffffffffff168160000160006101000a81548173ffffffffffffffffffffffffffffffffffffffff021916908373ffffffffffffffffffffffffffffffffffffffff160217905550600182018160010190805460018160011615610100020316600290046106179291906106c9565b506002820181600201908054600181600116156101000203166002900461063f9291906106c9565b5050505050505050565b828054600181600116156101000203166002900490600052602060002090601f016020900481019282601f1061068a57805160ff19168380011785556106b8565b828001600101855582156106b8579182015b828111156106b757825182559160200191906001019061069c565b5b5090506106c59190610750565b5090565b828054600181600116156101000203166002900490600052602060002090601f016020900481019282601f10610702578054855561073f565b8280016001018555821561073f57600052602060002091601f016020900482015b8281111561073e578254825591600101919060010190610723565b5b50905061074c9190610750565b5090565b61077291905b8082111561076e576000816000905550600101610756565b5090565b9056fea265627a7a72315820ac7557990944e3a11f73371caf78a7f176aba3ae1583bcde9b20c63ef6ab22e464736f6c63430005100032",
  "source": "pragma solidity >=0.4.22 <0.7.0;\n\n/**\n * @title Registry\n * @dev Create and interact with Registries\n*/\n\ncontract Registrar {\n\n    struct Registry {\n        address owner;\n        string registryName;\n        string registryType;\n    }\n\n    mapping (string => Registry) registryMap;\n    Registry[] public registrar;\n\n    function createRegistry (\n        address _owner, \n        string memory _registryName,\n        string memory _registryType\n    ) public {\n        Registry storage registry = registryMap[_registryName];\n\n        registry.owner = _owner;\n        registry.registryName = _registryName;\n        registry.registryType = _registryType;\n\n        registrar.push(registry);\n    }\n\n}\n",
  "sourcePath": "/home/s9/code/ZNS/contracts/Registry.sol",
  "compiler": {
    "name": "solc",
    "version": "0.5.16+commit.9c3226ce.Emscripten.clang"
  },
  "schemaVersion": "3.2.3",
  "updatedAt": "2020-08-19T04:47:13.334Z",
  "devdoc": {
    "details": "Create and interact with Registries",
    "methods": {},
    "title": "Registry"
  },
  "userdoc": {
    "methods": {}
  }
}