{
  "contractName": "Registrar",
  "abi": [
    {
      "anonymous": false,
      "inputs": [
        {
          "indexed": false,
          "internalType": "address",
          "name": "registryContract",
          "type": "address"
        },
        {
          "indexed": false,
          "internalType": "string",
          "name": "_domain",
          "type": "string"
        },
        {
          "indexed": false,
          "internalType": "string",
          "name": "registryType",
          "type": "string"
        }
      ],
      "name": "registryAdded",
      "type": "event"
    },
    {
      "inputs": [
        {
          "internalType": "uint256",
          "name": "",
          "type": "uint256"
        }
      ],
      "name": "registrar",
      "outputs": [
        {
          "internalType": "address",
          "name": "",
          "type": "address"
        }
      ],
      "stateMutability": "view",
      "type": "function"
    },
    {
      "inputs": [
        {
          "internalType": "string",
          "name": "_domain",
          "type": "string"
        },
        {
          "internalType": "string",
          "name": "_ref",
          "type": "string"
        },
        {
          "internalType": "string",
          "name": "_registryType",
          "type": "string"
        },
        {
          "internalType": "string",
          "name": "_tokenName",
          "type": "string"
        },
        {
          "internalType": "string",
          "name": "_tokenSymbol",
          "type": "string"
        },
        {
          "internalType": "uint256",
          "name": "_tokenSupply",
          "type": "uint256"
        },
        {
          "internalType": "uint256",
          "name": "_stakePrice",
          "type": "uint256"
        }
      ],
      "name": "createRegistry",
      "outputs": [
        {
          "internalType": "address",
          "name": "",
          "type": "address"
        },
        {
          "internalType": "string",
          "name": "",
          "type": "string"
        },
        {
          "internalType": "string",
          "name": "",
          "type": "string"
        }
      ],
      "stateMutability": "nonpayable",
      "type": "function"
    },
    {
      "inputs": [],
      "name": "getRegistrarLength",
      "outputs": [
        {
          "internalType": "uint256",
          "name": "",
          "type": "uint256"
        }
      ],
      "stateMutability": "view",
      "type": "function"
    },
    {
      "inputs": [
        {
          "internalType": "string",
          "name": "_domain",
          "type": "string"
        }
      ],
      "name": "getRegistryAddress",
      "outputs": [
        {
          "internalType": "address",
          "name": "",
          "type": "address"
        }
      ],
      "stateMutability": "view",
      "type": "function"
    },
    {
      "inputs": [
        {
          "internalType": "string",
          "name": "_domain",
          "type": "string"
        }
      ],
      "name": "getRegistryType",
      "outputs": [
        {
          "internalType": "string",
          "name": "",
          "type": "string"
        }
      ],
      "stateMutability": "view",
      "type": "function"
    }
  ],
  "bytecode": "0x608060405234801561001057600080fd5b50614716806100206000396000f3fe60806040523480156200001157600080fd5b50600436106200005e5760003560e01c806337c3a7da146200006357806374b9982c14620000835780637a4db35f14620001845780639433fcbc14620005df578063ef08989d1462000650575b600080fd5b6200006d6200078d565b6040518082815260200191505060405180910390f35b62000142600480360360208110156200009b57600080fd5b8101908080359060200190640100000000811115620000b957600080fd5b820183602082011115620000cc57600080fd5b80359060200191846001830284011164010000000083111715620000ef57600080fd5b91908080601f016020809104026020016040519081016040528093929190818152602001838380828437600081840152601f19601f8201169050808301925050505050505091929192905050506200079a565b604051808273ffffffffffffffffffffffffffffffffffffffff1673ffffffffffffffffffffffffffffffffffffffff16815260200191505060405180910390f35b620004bf600480360360e08110156200019c57600080fd5b8101908080359060200190640100000000811115620001ba57600080fd5b820183602082011115620001cd57600080fd5b80359060200191846001830284011164010000000083111715620001f057600080fd5b91908080601f016020809104026020016040519081016040528093929190818152602001838380828437600081840152601f19601f820116905080830192505050505050509192919290803590602001906401000000008111156200025457600080fd5b8201836020820111156200026757600080fd5b803590602001918460018302840111640100000000831117156200028a57600080fd5b91908080601f016020809104026020016040519081016040528093929190818152602001838380828437600081840152601f19601f82011690508083019250505050505050919291929080359060200190640100000000811115620002ee57600080fd5b8201836020820111156200030157600080fd5b803590602001918460018302840111640100000000831117156200032457600080fd5b91908080601f016020809104026020016040519081016040528093929190818152602001838380828437600081840152601f19601f820116905080830192505050505050509192919290803590602001906401000000008111156200038857600080fd5b8201836020820111156200039b57600080fd5b80359060200191846001830284011164010000000083111715620003be57600080fd5b91908080601f016020809104026020016040519081016040528093929190818152602001838380828437600081840152601f19601f820116905080830192505050505050509192919290803590602001906401000000008111156200042257600080fd5b8201836020820111156200043557600080fd5b803590602001918460018302840111640100000000831117156200045857600080fd5b91908080601f016020809104026020016040519081016040528093929190818152602001838380828437600081840152601f19601f820116905080830192505050505050509192919290803590602001909291908035906020019092919050505062000831565b604051808473ffffffffffffffffffffffffffffffffffffffff1673ffffffffffffffffffffffffffffffffffffffff1681526020018060200180602001838103835285818151815260200191508051906020019080838360005b83811015620005375780820151818401526020810190506200051a565b50505050905090810190601f168015620005655780820380516001836020036101000a031916815260200191505b50838103825284818151815260200191508051906020019080838360005b83811015620005a057808201518184015260208101905062000583565b50505050905090810190601f168015620005ce5780820380516001836020036101000a031916815260200191505b509550505050505060405180910390f35b6200060e60048036036020811015620005f757600080fd5b81019080803590602001909291905050506200159a565b604051808273ffffffffffffffffffffffffffffffffffffffff1673ffffffffffffffffffffffffffffffffffffffff16815260200191505060405180910390f35b6200070f600480360360208110156200066857600080fd5b81019080803590602001906401000000008111156200068657600080fd5b8201836020820111156200069957600080fd5b80359060200191846001830284011164010000000083111715620006bc57600080fd5b91908080601f016020809104026020016040519081016040528093929190818152602001838380828437600081840152601f19601f820116905080830192505050505050509192919290505050620015d7565b6040518080602001828103825283818151815260200191508051906020019080838360005b838110156200075157808201518184015260208101905062000734565b50505050905090810190601f1680156200077f5780820380516001836020036101000a031916815260200191505b509250505060405180910390f35b6000600180549050905090565b600080826040518082805190602001908083835b60208310620007d35780518252602082019150602081019050602083039250620007ae565b6001836020036101000a038019825116818451168082178552505050505050905001915050908152602001604051809103902060000160009054906101000a900473ffffffffffffffffffffffffffffffffffffffff169050919050565b600060608060006040516200084690620016eb565b604051809103906000f08015801562000863573d6000803e3d6000fd5b509050600033898989896040516200087b90620016f9565b808673ffffffffffffffffffffffffffffffffffffffff1673ffffffffffffffffffffffffffffffffffffffff1681526020018060200180602001858152602001848152602001838103835287818151815260200191508051906020019080838360005b83811015620008fc578082015181840152602081019050620008df565b50505050905090810190601f1680156200092a5780820380516001836020036101000a031916815260200191505b50838103825286818151815260200191508051906020019080838360005b838110156200096557808201518184015260208101905062000948565b50505050905090810190601f168015620009935780820380516001836020036101000a031916815260200191505b50975050505050505050604051809103906000f080158015620009ba573d6000803e3d6000fd5b5090508173ffffffffffffffffffffffffffffffffffffffff1662b5ec6b8d8d8d856040518563ffffffff1660e01b8152600401808060200180602001806020018573ffffffffffffffffffffffffffffffffffffffff1673ffffffffffffffffffffffffffffffffffffffff168152602001848103845288818151815260200191508051906020019080838360005b8381101562000a6757808201518184015260208101905062000a4a565b50505050905090810190601f16801562000a955780820380516001836020036101000a031916815260200191505b50848103835287818151815260200191508051906020019080838360005b8381101562000ad057808201518184015260208101905062000ab3565b50505050905090810190601f16801562000afe5780820380516001836020036101000a031916815260200191505b50848103825286818151815260200191508051906020019080838360005b8381101562000b3957808201518184015260208101905062000b1c565b50505050905090810190601f16801562000b675780820380516001836020036101000a031916815260200191505b50975050505050505050600060405180830381600087803b15801562000b8c57600080fd5b505af115801562000ba1573d6000803e3d6000fd5b505050506040513d6000823e3d601f19601f82011682018060405250604081101562000bcc57600080fd5b810190808051604051939291908464010000000082111562000bed57600080fd5b8382019150602082018581111562000c0457600080fd5b825186600182028301116401000000008211171562000c2257600080fd5b8083526020830192505050908051906020019080838360005b8381101562000c5857808201518184015260208101905062000c3b565b50505050905090810190601f16801562000c865780820380516001836020036101000a031916815260200191505b506040526020018051604051939291908464010000000082111562000caa57600080fd5b8382019150602082018581111562000cc157600080fd5b825186600182028301116401000000008211171562000cdf57600080fd5b8083526020830192505050908051906020019080838360005b8381101562000d1557808201518184015260208101905062000cf8565b50505050905090810190601f16801562000d435780820380516001836020036101000a031916815260200191505b5060405250505050508173ffffffffffffffffffffffffffffffffffffffff1663209df0fa876040518263ffffffff1660e01b815260040180828152602001915050602060405180830381600087803b15801562000da057600080fd5b505af115801562000db5573d6000803e3d6000fd5b505050506040513d602081101562000dcc57600080fd5b8101908080519060200190929190505050508173ffffffffffffffffffffffffffffffffffffffff166338cc48316040518163ffffffff1660e01b815260040160206040518083038186803b15801562000e2557600080fd5b505afa15801562000e3a573d6000803e3d6000fd5b505050506040513d602081101562000e5157600080fd5b810190808051906020019092919050505060008d6040518082805190602001908083835b6020831062000e9a578051825260208201915060208101905060208303925062000e75565b6001836020036101000a038019825116818451168082178552505050505050905001915050908152602001604051809103902060000160006101000a81548173ffffffffffffffffffffffffffffffffffffffff021916908373ffffffffffffffffffffffffffffffffffffffff1602179055508b60008d6040518082805190602001908083835b6020831062000f47578051825260208201915060208101905060208303925062000f22565b6001836020036101000a0380198251168184511680821785525050505050509050019150509081526020016040518091039020600101908051906020019062000f9292919062001707565b508960008d6040518082805190602001908083835b6020831062000fcc578051825260208201915060208101905060208303925062000fa7565b6001836020036101000a038019825116818451168082178552505050505050905001915050908152602001604051809103902060020190805190602001906200101792919062001707565b50600160008d6040518082805190602001908083835b602083106200105257805182526020820191506020810190506020830392506200102d565b6001836020036101000a038019825116818451168082178552505050505050905001915050908152602001604051809103902060000160009054906101000a900473ffffffffffffffffffffffffffffffffffffffff169080600181540180825580915050600190039060005260206000200160009091909190916101000a81548173ffffffffffffffffffffffffffffffffffffffff021916908373ffffffffffffffffffffffffffffffffffffffff1602179055507f1db9576dbbdd63cc0e73a6a1055164d40d9ffcec8ec56a8c352e94fb5a66e10c60008d6040518082805190602001908083835b602083106200116257805182526020820191506020810190506020830392506200113d565b6001836020036101000a038019825116818451168082178552505050505050905001915050908152602001604051809103902060000160009054906101000a900473ffffffffffffffffffffffffffffffffffffffff168d8c604051808473ffffffffffffffffffffffffffffffffffffffff1673ffffffffffffffffffffffffffffffffffffffff1681526020018060200180602001838103835285818151815260200191508051906020019080838360005b838110156200123357808201518184015260208101905062001216565b50505050905090810190601f168015620012615780820380516001836020036101000a031916815260200191505b50838103825284818151815260200191508051906020019080838360005b838110156200129c5780820151818401526020810190506200127f565b50505050905090810190601f168015620012ca5780820380516001836020036101000a031916815260200191505b509550505050505060405180910390a160008c6040518082805190602001908083835b60208310620013125780518252602082019150602081019050602083039250620012ed565b6001836020036101000a038019825116818451168082178552505050505050905001915050908152602001604051809103902060000160009054906101000a900473ffffffffffffffffffffffffffffffffffffffff1660008d6040518082805190602001908083835b60208310620013a157805182526020820191506020810190506020830392506200137c565b6001836020036101000a038019825116818451168082178552505050505050905001915050908152602001604051809103902060010160008e6040518082805190602001908083835b602083106200140f5780518252602082019150602081019050602083039250620013ea565b6001836020036101000a0380198251168184511680821785525050505050509050019150509081526020016040518091039020600201818054600181600116156101000203166002900480601f016020809104026020016040519081016040528092919081815260200182805460018160011615610100020316600290048015620014de5780601f10620014b257610100808354040283529160200191620014de565b820191906000526020600020905b815481529060010190602001808311620014c057829003601f168201915b50505050509150808054600181600116156101000203166002900480601f0160208091040260200160405190810160405280929190818152602001828054600181600116156101000203166002900480156200157e5780601f1062001552576101008083540402835291602001916200157e565b820191906000526020600020905b8154815290600101906020018083116200156057829003601f168201915b5050505050905094509450945050509750975097945050505050565b60018181548110620015a857fe5b906000526020600020016000915054906101000a900473ffffffffffffffffffffffffffffffffffffffff1681565b60606000826040518082805190602001908083835b60208310620016115780518252602082019150602081019050602083039250620015ec565b6001836020036101000a03801982511681845116808217855250505050505090500191505090815260200160405180910390206002018054600181600116156101000203166002900480601f016020809104026020016040519081016040528092919081815260200182805460018160011615610100020316600290048015620016df5780601f10620016b357610100808354040283529160200191620016df565b820191906000526020600020905b815481529060010190602001808311620016c157829003601f168201915b50505050509050919050565b61069c80620017b783390190565b61288e8062001e5383390190565b828054600181600116156101000203166002900490600052602060002090601f016020900481019282601f106200174a57805160ff19168380011785556200177b565b828001600101855582156200177b579182015b828111156200177a5782518255916020019190600101906200175d565b5b5090506200178a91906200178e565b5090565b620017b391905b80821115620017af57600081600090555060010162001795565b5090565b9056fe608060405234801561001057600080fd5b5061067c806100206000396000f3fe608060405234801561001057600080fd5b506004361061004b5760003560e01c8062b5ec6b146100505780631d6d32ba1461033e578063209df0fa146103c157806338cc483114610403575b600080fd5b6102576004803603608081101561006657600080fd5b810190808035906020019064010000000081111561008357600080fd5b82018360208201111561009557600080fd5b803590602001918460018302840111640100000000831117156100b757600080fd5b91908080601f016020809104026020016040519081016040528093929190818152602001838380828437600081840152601f19601f8201169050808301925050505050505091929192908035906020019064010000000081111561011a57600080fd5b82018360208201111561012c57600080fd5b8035906020019184600183028401116401000000008311171561014e57600080fd5b91908080601f016020809104026020016040519081016040528093929190818152602001838380828437600081840152601f19601f820116905080830192505050505050509192919290803590602001906401000000008111156101b157600080fd5b8201836020820111156101c357600080fd5b803590602001918460018302840111640100000000831117156101e557600080fd5b91908080601f016020809104026020016040519081016040528093929190818152602001838380828437600081840152601f19601f820116905080830192505050505050509192919290803573ffffffffffffffffffffffffffffffffffffffff16906020019092919050505061044d565b604051808060200180602001838103835285818151815260200191508051906020019080838360005b8381101561029b578082015181840152602081019050610280565b50505050905090810190601f1680156102c85780820380516001836020036101000a031916815260200191505b50838103825284818151815260200191508051906020019080838360005b838110156103015780820151818401526020810190506102e6565b50505050905090810190601f16801561032e5780820380516001836020036101000a031916815260200191505b5094505050505060405180910390f35b6103466104df565b6040518080602001828103825283818151815260200191508051906020019080838360005b8381101561038657808201518184015260208101905061036b565b50505050905090810190601f1680156103b35780820380516001836020036101000a031916815260200191505b509250505060405180910390f35b6103ed600480360360208110156103d757600080fd5b8101908080359060200190929190505050610581565b6040518082815260200191505060405180910390f35b61040b610594565b604051808273ffffffffffffffffffffffffffffffffffffffff1673ffffffffffffffffffffffffffffffffffffffff16815260200191505060405180910390f35b60608085600090805190602001906104669291906105a1565b50846001908051906020019061047d9291906105a1565b5083600290805190602001906104949291906105a1565b5082600360006101000a81548173ffffffffffffffffffffffffffffffffffffffff021916908373ffffffffffffffffffffffffffffffffffffffff16021790555094509492505050565b606060018054600181600116156101000203166002900480601f0160208091040260200160405190810160405280929190818152602001828054600181600116156101000203166002900480156105775780601f1061054c57610100808354040283529160200191610577565b820191906000526020600020905b81548152906001019060200180831161055a57829003601f168201915b5050505050905090565b6000816004819055506004549050919050565b6000803090508091505090565b828054600181600116156101000203166002900490600052602060002090601f016020900481019282601f106105e257805160ff1916838001178555610610565b82800160010185558215610610579182015b8281111561060f5782518255916020019190600101906105f4565b5b50905061061d9190610621565b5090565b61064391905b8082111561063f576000816000905550600101610627565b5090565b9056fea264697066735822122054606abf057314638b9f628bfeccb791cbbe4818f73aa905e5e488cbf31924ac64736f6c6343000602003360806040526605f9ea6541600160065530600760006101000a81548173ffffffffffffffffffffffffffffffffffffffff021916908373ffffffffffffffffffffffffffffffffffffffff160217905550600760009054906101000a900473ffffffffffffffffffffffffffffffffffffffff1673ffffffffffffffffffffffffffffffffffffffff16316008556040516200288e3803806200288e833981810160405260a0811015620000b257600080fd5b810190808051906020019092919080516040519392919084640100000000821115620000dd57600080fd5b83820191506020820185811115620000f457600080fd5b82518660018202830111640100000000821117156200011257600080fd5b8083526020830192505050908051906020019080838360005b83811015620001485780820151818401526020810190506200012b565b50505050905090810190601f168015620001765780820380516001836020036101000a031916815260200191505b50604052602001805160405193929190846401000000008211156200019a57600080fd5b83820191506020820185811115620001b157600080fd5b8251866001820283011164010000000082111715620001cf57600080fd5b8083526020830192505050908051906020019080838360005b8381101562000205578082015181840152602081019050620001e8565b50505050905090810190601f168015620002335780820380516001836020036101000a031916815260200191505b506040526020018051906020019092919080519060200190929190505050838381600390805190602001906200026b929190620005ec565b50806004908051906020019062000284929190620005ec565b506012600560006101000a81548160ff021916908360ff16021790555050506000620002b56200037860201b60201c565b905080600560016101000a81548173ffffffffffffffffffffffffffffffffffffffff021916908373ffffffffffffffffffffffffffffffffffffffff1602179055508073ffffffffffffffffffffffffffffffffffffffff16600073ffffffffffffffffffffffffffffffffffffffff167f8be0079c531659141344cd1fd0a4f28419497f9722a3daafe3b4186f6b6457e060405160405180910390a350806006819055506200036d85836200038060201b60201c565b50505050506200069b565b600033905090565b600073ffffffffffffffffffffffffffffffffffffffff168273ffffffffffffffffffffffffffffffffffffffff16141562000424576040517f08c379a000000000000000000000000000000000000000000000000000000000815260040180806020018281038252601f8152602001807f45524332303a206d696e7420746f20746865207a65726f20616464726573730081525060200191505060405180910390fd5b62000438600083836200055e60201b60201c565b62000454816002546200056360201b62001da81790919060201c565b600281905550620004b2816000808573ffffffffffffffffffffffffffffffffffffffff1673ffffffffffffffffffffffffffffffffffffffff168152602001908152602001600020546200056360201b62001da81790919060201c565b6000808473ffffffffffffffffffffffffffffffffffffffff1673ffffffffffffffffffffffffffffffffffffffff168152602001908152602001600020819055508173ffffffffffffffffffffffffffffffffffffffff16600073ffffffffffffffffffffffffffffffffffffffff167fddf252ad1be2c89b69c2b068fc378daa952ba7f163c4a11628f55a4df523b3ef836040518082815260200191505060405180910390a35050565b505050565b600080828401905083811015620005e2576040517f08c379a000000000000000000000000000000000000000000000000000000000815260040180806020018281038252601b8152602001807f536166654d6174683a206164646974696f6e206f766572666c6f77000000000081525060200191505060405180910390fd5b8091505092915050565b828054600181600116156101000203166002900490600052602060002090601f016020900481019282601f106200062f57805160ff191683800117855562000660565b8280016001018555821562000660579182015b828111156200065f57825182559160200191906001019062000642565b5b5090506200066f919062000673565b5090565b6200069891905b80821115620006945760008160009055506001016200067a565b5090565b90565b6121e380620006ab6000396000f3fe6080604052600436106101445760003560e01c80636f1e8533116100b6578063a457c2d71161006f578063a457c2d7146107a3578063a9059cbb14610816578063b69ef8a814610889578063bed9d861146108b4578063dd62ed3e146108be578063f2fde38b14610943576101b6565b80636f1e85331461057f57806370a08231146105ef578063715018a6146106545780638da5cb5b1461066b57806395d89b41146106c257806396a9fdc014610752576101b6565b80631a5fee57116101085780631a5fee571461037e57806323b872dd146103885780632466696e1461041b578063313ce5671461048457806338cc4831146104b5578063395093511461050c576101b6565b806306fdde03146101c0578063095ea7b31461025057806312065fe0146102c357806314205234146102ee57806318160ddd14610353576101b6565b366101b6577f88a5966d370b9919b20f3e2c13ff65706f196a4e32cc2c12bf57088f885258743334604051808373ffffffffffffffffffffffffffffffffffffffff1673ffffffffffffffffffffffffffffffffffffffff1681526020018281526020019250505060405180910390a1005b6101be610994565b005b3480156101cc57600080fd5b506101d5610a74565b6040518080602001828103825283818151815260200191508051906020019080838360005b838110156102155780820151818401526020810190506101fa565b50505050905090810190601f1680156102425780820380516001836020036101000a031916815260200191505b509250505060405180910390f35b34801561025c57600080fd5b506102a96004803603604081101561027357600080fd5b81019080803573ffffffffffffffffffffffffffffffffffffffff16906020019092919080359060200190929190505050610b16565b604051808215151515815260200191505060405180910390f35b3480156102cf57600080fd5b506102d8610b34565b6040518082815260200191505060405180910390f35b3480156102fa57600080fd5b5061033d6004803603602081101561031157600080fd5b81019080803573ffffffffffffffffffffffffffffffffffffffff169060200190929190505050610b3e565b6040518082815260200191505060405180910390f35b34801561035f57600080fd5b50610368610b87565b6040518082815260200191505060405180910390f35b610386610994565b005b34801561039457600080fd5b50610401600480360360608110156103ab57600080fd5b81019080803573ffffffffffffffffffffffffffffffffffffffff169060200190929190803573ffffffffffffffffffffffffffffffffffffffff16906020019092919080359060200190929190505050610b91565b604051808215151515815260200191505060405180910390f35b34801561042757600080fd5b5061046a6004803603602081101561043e57600080fd5b81019080803573ffffffffffffffffffffffffffffffffffffffff169060200190929190505050610c6a565b604051808215151515815260200191505060405180910390f35b34801561049057600080fd5b50610499610d0f565b604051808260ff1660ff16815260200191505060405180910390f35b3480156104c157600080fd5b506104ca610d26565b604051808273ffffffffffffffffffffffffffffffffffffffff1673ffffffffffffffffffffffffffffffffffffffff16815260200191505060405180910390f35b34801561051857600080fd5b506105656004803603604081101561052f57600080fd5b81019080803573ffffffffffffffffffffffffffffffffffffffff16906020019092919080359060200190929190505050610d2e565b604051808215151515815260200191505060405180910390f35b34801561058b57600080fd5b506105ce600480360360208110156105a257600080fd5b81019080803573ffffffffffffffffffffffffffffffffffffffff169060200190929190505050610de1565b60405180831515151581526020018281526020019250505060405180910390f35b3480156105fb57600080fd5b5061063e6004803603602081101561061257600080fd5b81019080803573ffffffffffffffffffffffffffffffffffffffff169060200190929190505050610e8b565b6040518082815260200191505060405180910390f35b34801561066057600080fd5b50610669610ed3565b005b34801561067757600080fd5b5061068061105e565b604051808273ffffffffffffffffffffffffffffffffffffffff1673ffffffffffffffffffffffffffffffffffffffff16815260200191505060405180910390f35b3480156106ce57600080fd5b506106d7611088565b6040518080602001828103825283818151815260200191508051906020019080838360005b838110156107175780820151818401526020810190506106fc565b50505050905090810190601f1680156107445780820380516001836020036101000a031916815260200191505b509250505060405180910390f35b34801561075e57600080fd5b506107a16004803603602081101561077557600080fd5b81019080803573ffffffffffffffffffffffffffffffffffffffff16906020019092919050505061112a565b005b3480156107af57600080fd5b506107fc600480360360408110156107c657600080fd5b81019080803573ffffffffffffffffffffffffffffffffffffffff1690602001909291908035906020019092919050505061121b565b604051808215151515815260200191505060405180910390f35b34801561082257600080fd5b5061086f6004803603604081101561083957600080fd5b81019080803573ffffffffffffffffffffffffffffffffffffffff169060200190929190803590602001909291905050506112e8565b604051808215151515815260200191505060405180910390f35b34801561089557600080fd5b5061089e611306565b6040518082815260200191505060405180910390f35b6108bc61130c565b005b3480156108ca57600080fd5b5061092d600480360360408110156108e157600080fd5b81019080803573ffffffffffffffffffffffffffffffffffffffff169060200190929190803573ffffffffffffffffffffffffffffffffffffffff1690602001909291905050506113ca565b6040518082815260200191505060405180910390f35b34801561094f57600080fd5b506109926004803603602081101561096657600080fd5b81019080803573ffffffffffffffffffffffffffffffffffffffff169060200190929190505050611451565b005b60065434146109a257600080fd5b6109ac3334611661565b3460086000828254019250508190555034600960003373ffffffffffffffffffffffffffffffffffffffff1673ffffffffffffffffffffffffffffffffffffffff16815260200190815260200160002060008282540192505081905550600760009054906101000a900473ffffffffffffffffffffffffffffffffffffffff1673ffffffffffffffffffffffffffffffffffffffff166108fc349081150290604051600060405180830381858888f19350505050158015610a71573d6000803e3d6000fd5b50565b606060038054600181600116156101000203166002900480601f016020809104026020016040519081016040528092919081815260200182805460018160011615610100020316600290048015610b0c5780601f10610ae157610100808354040283529160200191610b0c565b820191906000526020600020905b815481529060010190602001808311610aef57829003601f168201915b5050505050905090565b6000610b2a610b23611828565b8484611830565b6001905092915050565b6000600854905090565b6000600960008373ffffffffffffffffffffffffffffffffffffffff1673ffffffffffffffffffffffffffffffffffffffff168152602001908152602001600020549050919050565b6000600254905090565b6000610b9e848484611a27565b610c5f84610baa611828565b610c5a856040518060600160405280602881526020016120f760289139600160008b73ffffffffffffffffffffffffffffffffffffffff1673ffffffffffffffffffffffffffffffffffffffff1681526020019081526020016000206000610c10611828565b73ffffffffffffffffffffffffffffffffffffffff1673ffffffffffffffffffffffffffffffffffffffff16815260200190815260200160002054611ce89092919063ffffffff16565b611830565b600190509392505050565b600080610c7683610de1565b5090506000610c8484610b3e565b905081158015610c95575060065481145b15610d0757600a849080600181540180825580915050600190039060005260206000200160009091909190916101000a81548173ffffffffffffffffffffffffffffffffffffffff021916908373ffffffffffffffffffffffffffffffffffffffff1602179055508192505050610d0a565b50505b919050565b6000600560009054906101000a900460ff16905090565b600030905090565b6000610dd7610d3b611828565b84610dd28560016000610d4c611828565b73ffffffffffffffffffffffffffffffffffffffff1673ffffffffffffffffffffffffffffffffffffffff16815260200190815260200160002060008973ffffffffffffffffffffffffffffffffffffffff1673ffffffffffffffffffffffffffffffffffffffff16815260200190815260200160002054611da890919063ffffffff16565b611830565b6001905092915050565b60008060008090505b600a80549050811015610e7a57600a8181548110610e0457fe5b9060005260206000200160009054906101000a900473ffffffffffffffffffffffffffffffffffffffff1673ffffffffffffffffffffffffffffffffffffffff168473ffffffffffffffffffffffffffffffffffffffff161415610e6f576001819250925050610e86565b600181019050610dea565b50600080809050915091505b915091565b60008060008373ffffffffffffffffffffffffffffffffffffffff1673ffffffffffffffffffffffffffffffffffffffff168152602001908152602001600020549050919050565b610edb611828565b73ffffffffffffffffffffffffffffffffffffffff16600560019054906101000a900473ffffffffffffffffffffffffffffffffffffffff1673ffffffffffffffffffffffffffffffffffffffff1614610f9d576040517f08c379a00000000000000000000000000000000000000000000000000000000081526004018080602001828103825260208152602001807f4f776e61626c653a2063616c6c6572206973206e6f7420746865206f776e657281525060200191505060405180910390fd5b600073ffffffffffffffffffffffffffffffffffffffff16600560019054906101000a900473ffffffffffffffffffffffffffffffffffffffff1673ffffffffffffffffffffffffffffffffffffffff167f8be0079c531659141344cd1fd0a4f28419497f9722a3daafe3b4186f6b6457e060405160405180910390a36000600560016101000a81548173ffffffffffffffffffffffffffffffffffffffff021916908373ffffffffffffffffffffffffffffffffffffffff160217905550565b6000600560019054906101000a900473ffffffffffffffffffffffffffffffffffffffff16905090565b606060048054600181600116156101000203166002900480601f0160208091040260200160405190810160405280929190818152602001828054600181600116156101000203166002900480156111205780601f106110f557610100808354040283529160200191611120565b820191906000526020600020905b81548152906001019060200180831161110357829003601f168201915b5050505050905090565b60008061113683610de1565b91509150811561121657600a6001600a80549050038154811061115557fe5b9060005260206000200160009054906101000a900473ffffffffffffffffffffffffffffffffffffffff16600a828154811061118d57fe5b9060005260206000200160006101000a81548173ffffffffffffffffffffffffffffffffffffffff021916908373ffffffffffffffffffffffffffffffffffffffff160217905550600a8054806111e057fe5b6001900381819060005260206000200160006101000a81549073ffffffffffffffffffffffffffffffffffffffff021916905590555b505050565b60006112de611228611828565b846112d9856040518060600160405280602581526020016121896025913960016000611252611828565b73ffffffffffffffffffffffffffffffffffffffff1673ffffffffffffffffffffffffffffffffffffffff16815260200190815260200160002060008a73ffffffffffffffffffffffffffffffffffffffff1673ffffffffffffffffffffffffffffffffffffffff16815260200190815260200160002054611ce89092919063ffffffff16565b611830565b6001905092915050565b60006112fc6112f5611828565b8484611a27565b6001905092915050565b60085481565b600033905061131d81600654611e30565b600654600860008282540392505081905550600654600960008373ffffffffffffffffffffffffffffffffffffffff1673ffffffffffffffffffffffffffffffffffffffff168152602001908152602001600020600082825403925050819055508073ffffffffffffffffffffffffffffffffffffffff166108fc6006549081150290604051600060405180830381858888f193505050501580156113c6573d6000803e3d6000fd5b5050565b6000600160008473ffffffffffffffffffffffffffffffffffffffff1673ffffffffffffffffffffffffffffffffffffffff16815260200190815260200160002060008373ffffffffffffffffffffffffffffffffffffffff1673ffffffffffffffffffffffffffffffffffffffff16815260200190815260200160002054905092915050565b611459611828565b73ffffffffffffffffffffffffffffffffffffffff16600560019054906101000a900473ffffffffffffffffffffffffffffffffffffffff1673ffffffffffffffffffffffffffffffffffffffff161461151b576040517f08c379a00000000000000000000000000000000000000000000000000000000081526004018080602001828103825260208152602001807f4f776e61626c653a2063616c6c6572206973206e6f7420746865206f776e657281525060200191505060405180910390fd5b600073ffffffffffffffffffffffffffffffffffffffff168173ffffffffffffffffffffffffffffffffffffffff1614156115a1576040517f08c379a00000000000000000000000000000000000000000000000000000000081526004018080602001828103825260268152602001806120896026913960400191505060405180910390fd5b8073ffffffffffffffffffffffffffffffffffffffff16600560019054906101000a900473ffffffffffffffffffffffffffffffffffffffff1673ffffffffffffffffffffffffffffffffffffffff167f8be0079c531659141344cd1fd0a4f28419497f9722a3daafe3b4186f6b6457e060405160405180910390a380600560016101000a81548173ffffffffffffffffffffffffffffffffffffffff021916908373ffffffffffffffffffffffffffffffffffffffff16021790555050565b600073ffffffffffffffffffffffffffffffffffffffff168273ffffffffffffffffffffffffffffffffffffffff161415611704576040517f08c379a000000000000000000000000000000000000000000000000000000000815260040180806020018281038252601f8152602001807f45524332303a206d696e7420746f20746865207a65726f20616464726573730081525060200191505060405180910390fd5b61171060008383611ff4565b61172581600254611da890919063ffffffff16565b60028190555061177c816000808573ffffffffffffffffffffffffffffffffffffffff1673ffffffffffffffffffffffffffffffffffffffff16815260200190815260200160002054611da890919063ffffffff16565b6000808473ffffffffffffffffffffffffffffffffffffffff1673ffffffffffffffffffffffffffffffffffffffff168152602001908152602001600020819055508173ffffffffffffffffffffffffffffffffffffffff16600073ffffffffffffffffffffffffffffffffffffffff167fddf252ad1be2c89b69c2b068fc378daa952ba7f163c4a11628f55a4df523b3ef836040518082815260200191505060405180910390a35050565b600033905090565b600073ffffffffffffffffffffffffffffffffffffffff168373ffffffffffffffffffffffffffffffffffffffff1614156118b6576040517f08c379a00000000000000000000000000000000000000000000000000000000081526004018080602001828103825260248152602001806121656024913960400191505060405180910390fd5b600073ffffffffffffffffffffffffffffffffffffffff168273ffffffffffffffffffffffffffffffffffffffff16141561193c576040517f08c379a00000000000000000000000000000000000000000000000000000000081526004018080602001828103825260228152602001806120af6022913960400191505060405180910390fd5b80600160008573ffffffffffffffffffffffffffffffffffffffff1673ffffffffffffffffffffffffffffffffffffffff16815260200190815260200160002060008473ffffffffffffffffffffffffffffffffffffffff1673ffffffffffffffffffffffffffffffffffffffff168152602001908152602001600020819055508173ffffffffffffffffffffffffffffffffffffffff168373ffffffffffffffffffffffffffffffffffffffff167f8c5be1e5ebec7d5bd14f71427d1e84f3dd0314c0f7b2291e5b200ac8c7c3b925836040518082815260200191505060405180910390a3505050565b600073ffffffffffffffffffffffffffffffffffffffff168373ffffffffffffffffffffffffffffffffffffffff161415611aad576040517f08c379a00000000000000000000000000000000000000000000000000000000081526004018080602001828103825260258152602001806121406025913960400191505060405180910390fd5b600073ffffffffffffffffffffffffffffffffffffffff168273ffffffffffffffffffffffffffffffffffffffff161415611b33576040517f08c379a00000000000000000000000000000000000000000000000000000000081526004018080602001828103825260238152602001806120446023913960400191505060405180910390fd5b611b3e838383611ff4565b611ba9816040518060600160405280602681526020016120d1602691396000808773ffffffffffffffffffffffffffffffffffffffff1673ffffffffffffffffffffffffffffffffffffffff16815260200190815260200160002054611ce89092919063ffffffff16565b6000808573ffffffffffffffffffffffffffffffffffffffff1673ffffffffffffffffffffffffffffffffffffffff16815260200190815260200160002081905550611c3c816000808573ffffffffffffffffffffffffffffffffffffffff1673ffffffffffffffffffffffffffffffffffffffff16815260200190815260200160002054611da890919063ffffffff16565b6000808473ffffffffffffffffffffffffffffffffffffffff1673ffffffffffffffffffffffffffffffffffffffff168152602001908152602001600020819055508173ffffffffffffffffffffffffffffffffffffffff168373ffffffffffffffffffffffffffffffffffffffff167fddf252ad1be2c89b69c2b068fc378daa952ba7f163c4a11628f55a4df523b3ef836040518082815260200191505060405180910390a3505050565b6000838311158290611d95576040517f08c379a00000000000000000000000000000000000000000000000000000000081526004018080602001828103825283818151815260200191508051906020019080838360005b83811015611d5a578082015181840152602081019050611d3f565b50505050905090810190601f168015611d875780820380516001836020036101000a031916815260200191505b509250505060405180910390fd5b5060008385039050809150509392505050565b600080828401905083811015611e26576040517f08c379a000000000000000000000000000000000000000000000000000000000815260040180806020018281038252601b8152602001807f536166654d6174683a206164646974696f6e206f766572666c6f77000000000081525060200191505060405180910390fd5b8091505092915050565b600073ffffffffffffffffffffffffffffffffffffffff168273ffffffffffffffffffffffffffffffffffffffff161415611eb6576040517f08c379a000000000000000000000000000000000000000000000000000000000815260040180806020018281038252602181526020018061211f6021913960400191505060405180910390fd5b611ec282600083611ff4565b611f2d81604051806060016040528060228152602001612067602291396000808673ffffffffffffffffffffffffffffffffffffffff1673ffffffffffffffffffffffffffffffffffffffff16815260200190815260200160002054611ce89092919063ffffffff16565b6000808473ffffffffffffffffffffffffffffffffffffffff1673ffffffffffffffffffffffffffffffffffffffff16815260200190815260200160002081905550611f8481600254611ff990919063ffffffff16565b600281905550600073ffffffffffffffffffffffffffffffffffffffff168273ffffffffffffffffffffffffffffffffffffffff167fddf252ad1be2c89b69c2b068fc378daa952ba7f163c4a11628f55a4df523b3ef836040518082815260200191505060405180910390a35050565b505050565b600061203b83836040518060400160405280601e81526020017f536166654d6174683a207375627472616374696f6e206f766572666c6f770000815250611ce8565b90509291505056fe45524332303a207472616e7366657220746f20746865207a65726f206164647265737345524332303a206275726e20616d6f756e7420657863656564732062616c616e63654f776e61626c653a206e6577206f776e657220697320746865207a65726f206164647265737345524332303a20617070726f766520746f20746865207a65726f206164647265737345524332303a207472616e7366657220616d6f756e7420657863656564732062616c616e636545524332303a207472616e7366657220616d6f756e74206578636565647320616c6c6f77616e636545524332303a206275726e2066726f6d20746865207a65726f206164647265737345524332303a207472616e736665722066726f6d20746865207a65726f206164647265737345524332303a20617070726f76652066726f6d20746865207a65726f206164647265737345524332303a2064656372656173656420616c6c6f77616e63652062656c6f77207a65726fa2646970667358221220900811eed564ecdfabd75cf6a66ecb759ff7f9d71433a673fda234697731702664736f6c63430006020033a264697066735822122075578e5b7c6ac2312c99f7018f85b47d96eff89622dfeb4b794aeb5e159a3a4c64736f6c63430006020033",
  "source": "pragma solidity ^0.6.0;\n\n/**\n * @title Registrar\n * @dev Create and interact with Registries\n*/\n\nimport './Registry.sol';\nimport './StakeToken.sol';\n\ncontract Registrar { \n\n    event registryAdded(address registryContract, string _domain, string registryType);\n\n    struct RegistrarEntry {\n        address registryContract;\n        string domain;\n        string registryType;\n    }\n\n    mapping (string => RegistrarEntry) registryMap;\n    address[] public registrar;\n\n    function createRegistry (\n        string memory _domain,\n        string memory _ref,\n        string memory _registryType,\n        string memory _tokenName,\n        string memory _tokenSymbol,\n        uint256 _tokenSupply,\n        uint256 _stakePrice\n    ) public returns (address, string memory, string memory) {\n        Registry registryContract = new Registry();\n        StakeToken stakeToken = new StakeToken(msg.sender, _tokenName, _tokenSymbol, _tokenSupply, _stakePrice);\n        registryContract.init(_domain, _ref, _registryType, address(stakeToken));\n        registryContract.setStakePrice(_stakePrice);\n\n        registryMap[_domain].registryContract = registryContract.getAddress();\n        registryMap[_domain].domain = _domain;\n        registryMap[_domain].registryType = _registryType;\n\n        registrar.push(registryMap[_domain].registryContract);\n        emit registryAdded(registryMap[_domain].registryContract, _domain, _registryType);\n\n        return (registryMap[_domain].registryContract, registryMap[_domain].domain, registryMap[_domain].registryType);\n    }\n\n    function getRegistrarLength() public view returns (uint256) {\n        return registrar.length;\n    }\n\n    function getRegistryAddress(string memory _domain) public view returns (address) {\n        return registryMap[_domain].registryContract;\n    }\n\n    function getRegistryType(string memory _domain) public view returns (string memory) {\n        return registryMap[_domain].registryType;\n    }\n}  ",
  "sourcePath": "/Users/neo/Code/ZNS/contracts/Registrar.sol",
  "compiler": {
    "name": "solc",
    "version": "0.6.2+commit.bacdbe57.Emscripten.clang"
  },
  "schemaVersion": "3.2.3",
  "updatedAt": "2020-08-28T07:38:16.559Z",
  "devdoc": {
    "methods": {}
  },
  "userdoc": {
    "methods": {}
  }
}