{
  "contractName": "Registry",
  "abi": [
    {
      "anonymous": false,
      "inputs": [
        {
          "indexed": true,
          "internalType": "address",
          "name": "previousOwner",
          "type": "address"
        },
        {
          "indexed": true,
          "internalType": "address",
          "name": "newOwner",
          "type": "address"
        }
      ],
      "name": "OwnershipTransferred",
      "type": "event"
    },
    {
      "anonymous": false,
      "inputs": [
        {
          "indexed": false,
          "internalType": "string",
          "name": "_subdomain",
          "type": "string"
        },
        {
          "indexed": false,
          "internalType": "string",
          "name": "_ref",
          "type": "string"
        }
      ],
      "name": "RegistryEntryCreated",
      "type": "event"
    },
    {
      "anonymous": false,
      "inputs": [
        {
          "indexed": false,
          "internalType": "string",
          "name": "_ref",
          "type": "string"
        }
      ],
      "name": "RegistryEntryRefSet",
      "type": "event"
    },
    {
      "anonymous": false,
      "inputs": [
        {
          "indexed": false,
          "internalType": "string",
          "name": "_ref",
          "type": "string"
        }
      ],
      "name": "RegistryRefSet",
      "type": "event"
    },
    {
      "inputs": [],
      "name": "owner",
      "outputs": [
        {
          "internalType": "address",
          "name": "",
          "type": "address"
        }
      ],
      "stateMutability": "view",
      "type": "function"
    },
    {
      "inputs": [],
      "name": "registryTokenAddress",
      "outputs": [
        {
          "internalType": "address payable",
          "name": "",
          "type": "address"
        }
      ],
      "stateMutability": "view",
      "type": "function"
    },
    {
      "inputs": [],
      "name": "renounceOwnership",
      "outputs": [],
      "stateMutability": "nonpayable",
      "type": "function"
    },
    {
      "inputs": [
        {
          "internalType": "address",
          "name": "newOwner",
          "type": "address"
        }
      ],
      "name": "transferOwnership",
      "outputs": [],
      "stateMutability": "nonpayable",
      "type": "function"
    },
    {
      "inputs": [
        {
          "internalType": "string",
          "name": "_domain",
          "type": "string"
        },
        {
          "internalType": "string",
          "name": "_ref",
          "type": "string"
        },
        {
          "internalType": "string",
          "name": "_registryType",
          "type": "string"
        },
        {
          "internalType": "address",
          "name": "_registryToken",
          "type": "address"
        }
      ],
      "name": "initialize",
      "outputs": [],
      "stateMutability": "nonpayable",
      "type": "function"
    },
    {
      "inputs": [
        {
          "internalType": "string",
          "name": "_subdomain",
          "type": "string"
        },
        {
          "internalType": "string",
          "name": "_ref",
          "type": "string"
        }
      ],
      "name": "createRegistryEntry",
      "outputs": [],
      "stateMutability": "nonpayable",
      "type": "function"
    },
    {
      "inputs": [
        {
          "internalType": "string",
          "name": "_newRef",
          "type": "string"
        }
      ],
      "name": "setRegistryRef",
      "outputs": [],
      "stateMutability": "nonpayable",
      "type": "function"
    },
    {
      "inputs": [
        {
          "internalType": "string",
          "name": "_subdomain",
          "type": "string"
        },
        {
          "internalType": "string",
          "name": "_newRef",
          "type": "string"
        }
      ],
      "name": "setRegistryEntryRef",
      "outputs": [],
      "stateMutability": "nonpayable",
      "type": "function"
    },
    {
      "inputs": [],
      "name": "getRegistry",
      "outputs": [
        {
          "internalType": "string",
          "name": "",
          "type": "string"
        },
        {
          "internalType": "string",
          "name": "",
          "type": "string"
        },
        {
          "internalType": "string",
          "name": "",
          "type": "string"
        },
        {
          "internalType": "address",
          "name": "",
          "type": "address"
        }
      ],
      "stateMutability": "view",
      "type": "function"
    },
    {
      "inputs": [],
      "name": "getRef",
      "outputs": [
        {
          "internalType": "string",
          "name": "",
          "type": "string"
        }
      ],
      "stateMutability": "view",
      "type": "function"
    },
    {
      "inputs": [
        {
          "internalType": "string",
          "name": "_subdomain",
          "type": "string"
        }
      ],
      "name": "getRegistryEntryRef",
      "outputs": [
        {
          "internalType": "string",
          "name": "",
          "type": "string"
        }
      ],
      "stateMutability": "view",
      "type": "function"
    },
    {
      "inputs": [
        {
          "internalType": "string",
          "name": "_subdomain",
          "type": "string"
        }
      ],
      "name": "isRegistered",
      "outputs": [
        {
          "internalType": "bool",
          "name": "",
          "type": "bool"
        },
        {
          "internalType": "uint256",
          "name": "",
          "type": "uint256"
        }
      ],
      "stateMutability": "view",
      "type": "function"
    }
  ],
  "bytecode": "0x608060405234801561001057600080fd5b5061144c806100206000396000f3fe608060405234801561001057600080fd5b50600436106100b45760003560e01c80635c6d8da1116100715780635c6d8da1146104a1578063715018a6146105b85780638da5cb5b146105c0578063c822d7f0146105c8578063f2fde38b14610687578063fb3e6444146106ad576100b4565b8063149adf58146100b9578063164f25bf1461019c5780631692f21f1461025c5780631d6d32ba1461031a5780631d8e2f58146103225780635ab1bd5314610346575b600080fd5b610127600480360360208110156100cf57600080fd5b810190602081018135600160201b8111156100e957600080fd5b8201836020820111156100fb57600080fd5b803590602001918460018302840111600160201b8311171561011c57600080fd5b50909250905061071b565b6040805160208082528351818301528351919283929083019185019080838360005b83811015610161578181015183820152602001610149565b50505050905090810190601f16801561018e5780820380516001836020036101000a031916815260200191505b509250505060405180910390f35b61025a600480360360408110156101b257600080fd5b810190602081018135600160201b8111156101cc57600080fd5b8201836020820111156101de57600080fd5b803590602001918460018302840111600160201b831117156101ff57600080fd5b919390929091602081019035600160201b81111561021c57600080fd5b82018360208201111561022e57600080fd5b803590602001918460018302840111600160201b8311171561024f57600080fd5b5090925090506107d0565b005b61025a6004803603604081101561027257600080fd5b810190602081018135600160201b81111561028c57600080fd5b82018360208201111561029e57600080fd5b803590602001918460018302840111600160201b831117156102bf57600080fd5b919390929091602081019035600160201b8111156102dc57600080fd5b8201836020820111156102ee57600080fd5b803590602001918460018302840111600160201b8311171561030f57600080fd5b5090925090506109b5565b610127610b16565b61032a610bad565b604080516001600160a01b039092168252519081900360200190f35b61034e610bbc565b604080516001600160a01b0383166060820152608080825286519082015285519091829160208084019284019160a08501918a019080838360005b838110156103a1578181015183820152602001610389565b50505050905090810190601f1680156103ce5780820380516001836020036101000a031916815260200191505b50848103835287518152875160209182019189019080838360005b838110156104015781810151838201526020016103e9565b50505050905090810190601f16801561042e5780820380516001836020036101000a031916815260200191505b50848103825286518152865160209182019188019080838360005b83811015610461578181015183820152602001610449565b50505050905090810190601f16801561048e5780820380516001836020036101000a031916815260200191505b5097505050505050505060405180910390f35b61025a600480360360808110156104b757600080fd5b810190602081018135600160201b8111156104d157600080fd5b8201836020820111156104e357600080fd5b803590602001918460018302840111600160201b8311171561050457600080fd5b919390929091602081019035600160201b81111561052157600080fd5b82018360208201111561053357600080fd5b803590602001918460018302840111600160201b8311171561055457600080fd5b919390929091602081019035600160201b81111561057157600080fd5b82018360208201111561058357600080fd5b803590602001918460018302840111600160201b831117156105a457600080fd5b9193509150356001600160a01b0316610d96565b61025a610e89565b61032a610f2b565b61066c600480360360208110156105de57600080fd5b810190602081018135600160201b8111156105f857600080fd5b82018360208201111561060a57600080fd5b803590602001918460018302840111600160201b8311171561062b57600080fd5b91908080601f016020809104026020016040519081016040528093929190818152602001838380828437600092019190915250929550610f3a945050505050565b60408051921515835260208301919091528051918290030190f35b61025a6004803603602081101561069d57600080fd5b50356001600160a01b0316610ff7565b61025a600480360360208110156106c357600080fd5b810190602081018135600160201b8111156106dd57600080fd5b8201836020820111156106ef57600080fd5b803590602001918460018302840111600160201b8311171561071057600080fd5b5090925090506110f0565b6060606a8383604051808383808284379190910194855250506040805160209481900385018120805460026001821615610100026000190190911604601f810187900487028301870190935282825290949093509091508301828280156107c35780601f10610798576101008083540402835291602001916107c3565b820191906000526020600020905b8154815290600101906020018083116107a657829003601f168201915b5050505050905092915050565b6107d8611206565b6033546001600160a01b03908116911614610828576040805162461bcd60e51b815260206004820181905260248201526000805160206113f7833981519152604482015290519081900360640190fd5b600061086985858080601f016020809104026020016040519081016040528093929190818152602001838380828437600092019190915250610f3a92505050565b509050806109ae578282606a878760405180838380828437919091019485525050604051928390036020019092206108a7949093909250905061130a565b506000606a868660405180838380828437919091019485525050604051928390036020019092206001908101805494151560ff19909516949094179093555050606b80549182018155600052610920907fbd43cb8ece8cd1863bcd6082d65c5b0d25665b1ce17980f0da43c0ed545f98b401868661130a565b507ff49f5d228081cdcb24c2f4939e0f2236ab3121fd710df20a22d9e2130244b61d858585856040518080602001806020018381038352878782818152602001925080828437600083820152601f01601f191690910184810383528581526020019050858580828437600083820152604051601f909101601f19169092018290039850909650505050505050a15b5050505050565b6109bd611206565b6033546001600160a01b03908116911614610a0d576040805162461bcd60e51b815260206004820181905260248201526000805160206113f7833981519152604482015290519081900360640190fd5b8181606a86866040518083838082843791909101948552505060405192839003602001909220610a43949093909250905061130a565b507fe4bc8abccea03a84d1974cb45f8445c3bed2c0d18e9e38396166ff6f8a95875b606a8585604051808383808284379190910194855250506040805193849003602090810185208186528054600260001961010060018416150201909116049186018290529493508392509082019084908015610b025780601f10610ad757610100808354040283529160200191610b02565b820191906000526020600020905b815481529060010190602001808311610ae557829003601f168201915b50509250505060405180910390a150505050565b60668054604080516020601f6002600019610100600188161502019095169490940493840181900481028201810190925282815260609390929091830182828015610ba25780601f10610b7757610100808354040283529160200191610ba2565b820191906000526020600020905b815481529060010190602001808311610b8557829003601f168201915b505050505090505b90565b6069546001600160a01b031681565b60695460658054604080516020601f600260001960018716156101000201909516949094049384018190048102820181019092528281526060948594859460009491936066936067936001600160a01b03909116928691830182828015610c645780601f10610c3957610100808354040283529160200191610c64565b820191906000526020600020905b815481529060010190602001808311610c4757829003601f168201915b5050865460408051602060026001851615610100026000190190941693909304601f810184900484028201840190925281815295995088945092508401905082828015610cf25780601f10610cc757610100808354040283529160200191610cf2565b820191906000526020600020905b815481529060010190602001808311610cd557829003601f168201915b5050855460408051602060026001851615610100026000190190941693909304601f810184900484028201840190925281815295985087945092508401905082828015610d805780601f10610d5557610100808354040283529160200191610d80565b820191906000526020600020905b815481529060010190602001808311610d6357829003601f168201915b50979c969b509299509297509395505050505050565b600054610100900460ff1680610daf5750610daf61120a565b80610dbd575060005460ff16155b610df85760405162461bcd60e51b815260040180806020018281038252602e8152602001806113c9602e913960400191505060405180910390fd5b600054610100900460ff16158015610e23576000805460ff1961ff0019909116610100171660011790555b610e2b611210565b610e376065898961130a565b50610e446066878761130a565b50610e516067858561130a565b50606880546001600160a01b0319166001600160a01b0384161790558015610e7f576000805461ff00191690555b5050505050505050565b610e91611206565b6033546001600160a01b03908116911614610ee1576040805162461bcd60e51b815260206004820181905260248201526000805160206113f7833981519152604482015290519081900360640190fd5b6033546040516000916001600160a01b0316907f8be0079c531659141344cd1fd0a4f28419497f9722a3daafe3b4186f6b6457e0908390a3603380546001600160a01b0319169055565b6033546001600160a01b031690565b600080805b606b54811015610fe957606b8181548110610f5657fe5b906000526020600020016040518082805460018160011615610100020316600290048015610fbb5780601f10610f99576101008083540402835291820191610fbb565b820191906000526020600020905b815481529060010190602001808311610fa7575b5050915050604051809103902084805190602001201415610fe157600192509050610ff2565b600101610f3f565b50600091508190505b915091565b610fff611206565b6033546001600160a01b0390811691161461104f576040805162461bcd60e51b815260206004820181905260248201526000805160206113f7833981519152604482015290519081900360640190fd5b6001600160a01b0381166110945760405162461bcd60e51b81526004018080602001828103825260268152602001806113a36026913960400191505060405180910390fd5b6033546040516001600160a01b038084169216907f8be0079c531659141344cd1fd0a4f28419497f9722a3daafe3b4186f6b6457e090600090a3603380546001600160a01b0319166001600160a01b0392909216919091179055565b6110f8611206565b6033546001600160a01b03908116911614611148576040805162461bcd60e51b815260206004820181905260248201526000805160206113f7833981519152604482015290519081900360640190fd5b6111546066838361130a565b5060408051602080825260668054600260001961010060018416150201909116049183018290527fe6a3d4ec4f69ac853579fb0336181042ec4d0a21b32de1a92b6dd6a2f904f5a0939092918291820190849080156111f45780601f106111c9576101008083540402835291602001916111f4565b820191906000526020600020905b8154815290600101906020018083116111d757829003601f168201915b50509250505060405180910390a15050565b3390565b303b1590565b600054610100900460ff1680611229575061122961120a565b80611237575060005460ff16155b6112725760405162461bcd60e51b815260040180806020018281038252602e8152602001806113c9602e913960400191505060405180910390fd5b600054610100900460ff1615801561129d576000805460ff1961ff0019909116610100171660011790555b60006112a7611206565b603380546001600160a01b0319166001600160a01b038316908117909155604051919250906000907f8be0079c531659141344cd1fd0a4f28419497f9722a3daafe3b4186f6b6457e0908290a3508015611307576000805461ff00191690555b50565b828054600181600116156101000203166002900490600052602060002090601f016020900481019282601f1061134b5782800160ff19823516178555611378565b82800160010185558215611378579182015b8281111561137857823582559160200191906001019061135d565b50611384929150611388565b5090565b610baa91905b80821115611384576000815560010161138e56fe4f776e61626c653a206e6577206f776e657220697320746865207a65726f2061646472657373496e697469616c697a61626c653a20636f6e747261637420697320616c726561647920696e697469616c697a65644f776e61626c653a2063616c6c6572206973206e6f7420746865206f776e6572a2646970667358221220fc40e226feb1be5c96fa86f5c2e3072b1ebf486136f862bad2ebf53065fb5c1d64736f6c63430006020033",
  "source": "pragma solidity 0.6.2;\n\n/**\n * @title Registry\n * @dev Manages a Registry and it's entries.\n*/\n\nimport '../RegistryToken/RegistryToken.sol';\nimport './RegistryI.sol';\nimport \"../../node_modules/@openzeppelin/contracts-upgradeable/math/SafeMathUpgradeable.sol\";\nimport \"../../node_modules/@openzeppelin/contracts-upgradeable/access/OwnableUpgradeable.sol\";\n\ncontract Registry is RegistryI, Initializable, OwnableUpgradeable {\n    using SafeMathUpgradeable for uint256;\n\n    string private domain;\n    string private ref;\n    string private registryType;\n    address private registryToken;\n    address payable public registryTokenAddress;\n\n    struct RegistryEntry {\n        string ref;\n        bool isHuman;\n    }\n\n    mapping(string => RegistryEntry) registryEntryMap;\n    string[] registryEntries;\n\n    /// @notice Emitted when a new Registry is created.\n    event RegistryEntryCreated(string _subdomain, string _ref);\n\n    /// @notice Emitted when the Registry ref is set.\n    event RegistryRefSet(string _ref);\n\n    /// @notice Emitted when the Registry entry ref is set.\n    event RegistryEntryRefSet(string _ref);\n\n    /**\n     * @notice Initializes a new Registry after construction.\n     * @param _domain The primary name used to represent the Registry. \n     * @param _ref The primary reference that a Registry links to. This can be any type of content and is typically used to reference an index or url.\n     * @param _registryType The Registry's Type. Registry Types are defined globally at the Registrar and used to categorize Registries.\n     * @param _registryToken The address of the Registry's Token. Registry Tokens are issued upon staking Infinity Token to transfer the ownership of a Registry Entry.\n     */\n\n    function initialize(\n        string calldata _domain,\n        string calldata _ref, \n        string calldata _registryType, \n        address _registryToken)\n        external \n        initializer\n        override\n    {\n        __Ownable_init_unchained();\n        domain = _domain;\n        ref = _ref;\n        registryType = _registryType;\n        registryToken = _registryToken;\n    }\n\n    // Add staking checks/logic here\n\n    /**\n     * @notice Creates a new entry in the Registry.\n     * @param _subdomain The subdomain to index the Registry.\n     * @param _ref The reference the Registry entry will point to.\n     */\n\n    function createRegistryEntry (\n        string calldata _subdomain, \n        string calldata _ref)\n        external\n        override\n        onlyOwner\n    {\n        (bool _isRegistered, ) = isRegistered(_subdomain);\n        if(!_isRegistered) {\n            registryEntryMap[_subdomain].ref = _ref;\n            registryEntryMap[_subdomain].isHuman = false;\n            registryEntries.push(_subdomain);\n\n            emit RegistryEntryCreated(_subdomain, _ref);\n        }\n    }\n\n    /**\n     * @notice Sets the reference for the Registry.\n     * @param _newRef The new reference used for the Registry.\n     */\n\n    function setRegistryRef (string calldata _newRef) external override onlyOwner {\n        ref = _newRef;\n        emit RegistryRefSet(ref);\n    }\n\n    /**\n     * @notice Sets the subdomain for a Registry entry.\n     * @param _subdomain The subdomain to index the Registry entry.\n     */\n\n\n    function setRegistryEntryRef (string calldata _subdomain, string calldata _newRef) external override onlyOwner {\n        registryEntryMap[_subdomain].ref = _newRef;\n        emit RegistryEntryRefSet(registryEntryMap[_subdomain].ref);\n    }\n\n    /**\n     * @notice Returns the domain, reference, type and RegistryToken address for a Registry. \n     */\n\n    function getRegistry() \n        external\n        override\n        view\n    returns (string memory, string memory, string memory, address)\n    {\n        return(domain, ref, registryType, registryTokenAddress);\n    }\n\n    /**\n     * @notice Returns the reference of a Registry.\n     */\n\n    function getRef()\n        external\n        override\n        view\n    returns (string memory)\n    {\n        return ref;\n    }\n\n    /**\n     * @notice Returns the Reference for an entry in the Registry.\n     * @param _subdomain The subdomain to index the Registry entry.\n     */\n\n    function getRegistryEntryRef (string calldata _subdomain) \n        external \n        override\n        view \n    returns (string memory) {\n        return registryEntryMap[_subdomain].ref;\n    }\n\n    /**s\n     * @notice Returns a boolean representing whether a subdomain is registered within the Registry.\n     * @param _subdomain The subdomain to index the Registry entry.\n     */\n\n    function isRegistered(string memory _subdomain)\n       public\n       override\n       view\n    returns(bool, uint256)\n    {\n        for (uint256 i = 0; i < registryEntries.length; i += 1){\n            if (keccak256(bytes(_subdomain)) == keccak256(bytes(registryEntries[i]))) return (true, i);\n        }\n        return (false, 0);\n    }\n}",
  "sourcePath": "/Users/neo/Code/ZNS/contracts/Registry/Registry.sol",
  "compiler": {
    "name": "solc",
    "version": "0.6.2+commit.bacdbe57.Emscripten.clang"
  },
  "schemaVersion": "3.2.3",
  "updatedAt": "2020-12-05T00:06:52.884Z",
  "devdoc": {
    "methods": {
      "createRegistryEntry(string,string)": {
        "params": {
          "_ref": "The reference the Registry entry will point to.",
          "_subdomain": "The subdomain to index the Registry."
        }
      },
      "getRegistryEntryRef(string)": {
        "params": {
          "_subdomain": "The subdomain to index the Registry entry."
        }
      },
      "initialize(string,string,string,address)": {
        "params": {
          "_domain": "The primary name used to represent the Registry. ",
          "_ref": "The primary reference that a Registry links to. This can be any type of content and is typically used to reference an index or url.",
          "_registryToken": "The address of the Registry's Token. Registry Tokens are issued upon staking Infinity Token to transfer the ownership of a Registry Entry.",
          "_registryType": "The Registry's Type. Registry Types are defined globally at the Registrar and used to categorize Registries."
        }
      },
      "isRegistered(string)": {
        "params": {
          "_subdomain": "The subdomain to index the Registry entry."
        }
      },
      "owner()": {
        "details": "Returns the address of the current owner."
      },
      "renounceOwnership()": {
        "details": "Leaves the contract without owner. It will not be possible to call `onlyOwner` functions anymore. Can only be called by the current owner.     * NOTE: Renouncing ownership will leave the contract without an owner, thereby removing any functionality that is only available to the owner."
      },
      "setRegistryEntryRef(string,string)": {
        "params": {
          "_subdomain": "The subdomain to index the Registry entry."
        }
      },
      "setRegistryRef(string)": {
        "params": {
          "_newRef": "The new reference used for the Registry."
        }
      },
      "transferOwnership(address)": {
        "details": "Transfers ownership of the contract to a new account (`newOwner`). Can only be called by the current owner."
      }
    }
  },
  "userdoc": {
    "methods": {
      "createRegistryEntry(string,string)": {
        "notice": "Creates a new entry in the Registry."
      },
      "getRef()": {
        "notice": "Returns the reference of a Registry."
      },
      "getRegistry()": {
        "notice": "Returns the domain, reference, type and RegistryToken address for a Registry. "
      },
      "getRegistryEntryRef(string)": {
        "notice": "Returns the Reference for an entry in the Registry."
      },
      "initialize(string,string,string,address)": {
        "notice": "Initializes a new Registry after construction."
      },
      "isRegistered(string)": {
        "notice": "sReturns a boolean representing whether a subdomain is registered within the Registry."
      },
      "setRegistryEntryRef(string,string)": {
        "notice": "Sets the subdomain for a Registry entry."
      },
      "setRegistryRef(string)": {
        "notice": "Sets the reference for the Registry."
      }
    }
  }
}