{
  "contractName": "RegistryToken",
  "abi": [
    {
      "anonymous": false,
      "inputs": [
        {
          "indexed": true,
          "internalType": "address",
          "name": "owner",
          "type": "address"
        },
        {
          "indexed": true,
          "internalType": "address",
          "name": "spender",
          "type": "address"
        },
        {
          "indexed": false,
          "internalType": "uint256",
          "name": "value",
          "type": "uint256"
        }
      ],
      "name": "Approval",
      "type": "event"
    },
    {
      "anonymous": false,
      "inputs": [
        {
          "indexed": true,
          "internalType": "address",
          "name": "previousOwner",
          "type": "address"
        },
        {
          "indexed": true,
          "internalType": "address",
          "name": "newOwner",
          "type": "address"
        }
      ],
      "name": "OwnershipTransferred",
      "type": "event"
    },
    {
      "anonymous": false,
      "inputs": [
        {
          "indexed": false,
          "internalType": "address",
          "name": "_stake",
          "type": "address"
        },
        {
          "indexed": false,
          "internalType": "uint256",
          "name": "_amount",
          "type": "uint256"
        }
      ],
      "name": "Received",
      "type": "event"
    },
    {
      "anonymous": false,
      "inputs": [
        {
          "indexed": false,
          "internalType": "address",
          "name": "_owner",
          "type": "address"
        },
        {
          "indexed": false,
          "internalType": "string",
          "name": "_tokenName",
          "type": "string"
        },
        {
          "indexed": false,
          "internalType": "string",
          "name": "tokenSymbol",
          "type": "string"
        },
        {
          "indexed": false,
          "internalType": "uint256",
          "name": "tokenSupply",
          "type": "uint256"
        },
        {
          "indexed": false,
          "internalType": "uint256",
          "name": "stakePrice",
          "type": "uint256"
        }
      ],
      "name": "RegistryTokenCreated",
      "type": "event"
    },
    {
      "anonymous": false,
      "inputs": [
        {
          "indexed": false,
          "internalType": "address",
          "name": "_sender",
          "type": "address"
        },
        {
          "indexed": false,
          "internalType": "uint256",
          "name": "_amount",
          "type": "uint256"
        },
        {
          "indexed": false,
          "internalType": "uint256",
          "name": "_senderBalance",
          "type": "uint256"
        }
      ],
      "name": "StakeDeposited",
      "type": "event"
    },
    {
      "anonymous": false,
      "inputs": [
        {
          "indexed": false,
          "internalType": "uint256",
          "name": "_newStakePrice",
          "type": "uint256"
        }
      ],
      "name": "StakePriceSet",
      "type": "event"
    },
    {
      "anonymous": false,
      "inputs": [
        {
          "indexed": false,
          "internalType": "address",
          "name": "_sender",
          "type": "address"
        },
        {
          "indexed": false,
          "internalType": "uint256",
          "name": "_amount",
          "type": "uint256"
        },
        {
          "indexed": false,
          "internalType": "uint256",
          "name": "_senderBalance",
          "type": "uint256"
        }
      ],
      "name": "StakeReturned",
      "type": "event"
    },
    {
      "anonymous": false,
      "inputs": [
        {
          "indexed": false,
          "internalType": "address",
          "name": "_staker",
          "type": "address"
        }
      ],
      "name": "StakerAdded",
      "type": "event"
    },
    {
      "anonymous": false,
      "inputs": [
        {
          "indexed": false,
          "internalType": "address",
          "name": "_staker",
          "type": "address"
        }
      ],
      "name": "StakerRemoved",
      "type": "event"
    },
    {
      "anonymous": false,
      "inputs": [
        {
          "indexed": true,
          "internalType": "address",
          "name": "from",
          "type": "address"
        },
        {
          "indexed": true,
          "internalType": "address",
          "name": "to",
          "type": "address"
        },
        {
          "indexed": false,
          "internalType": "uint256",
          "name": "value",
          "type": "uint256"
        }
      ],
      "name": "Transfer",
      "type": "event"
    },
    {
      "stateMutability": "payable",
      "type": "fallback",
      "payable": true
    },
    {
      "inputs": [
        {
          "internalType": "address",
          "name": "owner",
          "type": "address"
        },
        {
          "internalType": "address",
          "name": "spender",
          "type": "address"
        }
      ],
      "name": "allowance",
      "outputs": [
        {
          "internalType": "uint256",
          "name": "",
          "type": "uint256"
        }
      ],
      "stateMutability": "view",
      "type": "function",
      "constant": true
    },
    {
      "inputs": [
        {
          "internalType": "address",
          "name": "spender",
          "type": "address"
        },
        {
          "internalType": "uint256",
          "name": "amount",
          "type": "uint256"
        }
      ],
      "name": "approve",
      "outputs": [
        {
          "internalType": "bool",
          "name": "",
          "type": "bool"
        }
      ],
      "stateMutability": "nonpayable",
      "type": "function"
    },
    {
      "inputs": [],
      "name": "balance",
      "outputs": [
        {
          "internalType": "uint256",
          "name": "",
          "type": "uint256"
        }
      ],
      "stateMutability": "view",
      "type": "function",
      "constant": true
    },
    {
      "inputs": [
        {
          "internalType": "address",
          "name": "account",
          "type": "address"
        }
      ],
      "name": "balanceOf",
      "outputs": [
        {
          "internalType": "uint256",
          "name": "",
          "type": "uint256"
        }
      ],
      "stateMutability": "view",
      "type": "function",
      "constant": true
    },
    {
      "inputs": [],
      "name": "decimals",
      "outputs": [
        {
          "internalType": "uint8",
          "name": "",
          "type": "uint8"
        }
      ],
      "stateMutability": "view",
      "type": "function",
      "constant": true
    },
    {
      "inputs": [
        {
          "internalType": "address",
          "name": "spender",
          "type": "address"
        },
        {
          "internalType": "uint256",
          "name": "subtractedValue",
          "type": "uint256"
        }
      ],
      "name": "decreaseAllowance",
      "outputs": [
        {
          "internalType": "bool",
          "name": "",
          "type": "bool"
        }
      ],
      "stateMutability": "nonpayable",
      "type": "function"
    },
    {
      "inputs": [
        {
          "internalType": "address",
          "name": "spender",
          "type": "address"
        },
        {
          "internalType": "uint256",
          "name": "addedValue",
          "type": "uint256"
        }
      ],
      "name": "increaseAllowance",
      "outputs": [
        {
          "internalType": "bool",
          "name": "",
          "type": "bool"
        }
      ],
      "stateMutability": "nonpayable",
      "type": "function"
    },
    {
      "inputs": [],
      "name": "name",
      "outputs": [
        {
          "internalType": "string",
          "name": "",
          "type": "string"
        }
      ],
      "stateMutability": "view",
      "type": "function",
      "constant": true
    },
    {
      "inputs": [],
      "name": "owner",
      "outputs": [
        {
          "internalType": "address",
          "name": "",
          "type": "address"
        }
      ],
      "stateMutability": "view",
      "type": "function",
      "constant": true
    },
    {
      "inputs": [],
      "name": "renounceOwnership",
      "outputs": [],
      "stateMutability": "nonpayable",
      "type": "function"
    },
    {
      "inputs": [],
      "name": "stakePrice",
      "outputs": [
        {
          "internalType": "uint256",
          "name": "",
          "type": "uint256"
        }
      ],
      "stateMutability": "view",
      "type": "function",
      "constant": true
    },
    {
      "inputs": [],
      "name": "symbol",
      "outputs": [
        {
          "internalType": "string",
          "name": "",
          "type": "string"
        }
      ],
      "stateMutability": "view",
      "type": "function",
      "constant": true
    },
    {
      "inputs": [],
      "name": "totalSupply",
      "outputs": [
        {
          "internalType": "uint256",
          "name": "",
          "type": "uint256"
        }
      ],
      "stateMutability": "view",
      "type": "function",
      "constant": true
    },
    {
      "inputs": [
        {
          "internalType": "address",
          "name": "recipient",
          "type": "address"
        },
        {
          "internalType": "uint256",
          "name": "amount",
          "type": "uint256"
        }
      ],
      "name": "transfer",
      "outputs": [
        {
          "internalType": "bool",
          "name": "",
          "type": "bool"
        }
      ],
      "stateMutability": "nonpayable",
      "type": "function"
    },
    {
      "inputs": [
        {
          "internalType": "address",
          "name": "sender",
          "type": "address"
        },
        {
          "internalType": "address",
          "name": "recipient",
          "type": "address"
        },
        {
          "internalType": "uint256",
          "name": "amount",
          "type": "uint256"
        }
      ],
      "name": "transferFrom",
      "outputs": [
        {
          "internalType": "bool",
          "name": "",
          "type": "bool"
        }
      ],
      "stateMutability": "nonpayable",
      "type": "function"
    },
    {
      "inputs": [
        {
          "internalType": "address",
          "name": "newOwner",
          "type": "address"
        }
      ],
      "name": "transferOwnership",
      "outputs": [],
      "stateMutability": "nonpayable",
      "type": "function"
    },
    {
      "stateMutability": "payable",
      "type": "receive",
      "payable": true
    },
    {
      "inputs": [
        {
          "internalType": "address",
          "name": "_owner",
          "type": "address"
        },
        {
          "internalType": "string",
          "name": "_tokenName",
          "type": "string"
        },
        {
          "internalType": "string",
          "name": "_tokenSymbol",
          "type": "string"
        },
        {
          "internalType": "uint256",
          "name": "_tokenSupply",
          "type": "uint256"
        },
        {
          "internalType": "uint256",
          "name": "_stakePrice",
          "type": "uint256"
        }
      ],
      "name": "initialize",
      "outputs": [],
      "stateMutability": "nonpayable",
      "type": "function"
    },
    {
      "inputs": [
        {
          "internalType": "address",
          "name": "_address",
          "type": "address"
        }
      ],
      "name": "isStaker",
      "outputs": [
        {
          "internalType": "bool",
          "name": "",
          "type": "bool"
        },
        {
          "internalType": "uint256",
          "name": "",
          "type": "uint256"
        }
      ],
      "stateMutability": "view",
      "type": "function",
      "constant": true
    },
    {
      "inputs": [
        {
          "internalType": "uint256",
          "name": "_newStakePrice",
          "type": "uint256"
        }
      ],
      "name": "setStakePrice",
      "outputs": [
        {
          "internalType": "uint256",
          "name": "",
          "type": "uint256"
        }
      ],
      "stateMutability": "nonpayable",
      "type": "function"
    },
    {
      "inputs": [],
      "name": "depositStake",
      "outputs": [],
      "stateMutability": "payable",
      "type": "function",
      "payable": true
    },
    {
      "inputs": [],
      "name": "withdrawStake",
      "outputs": [],
      "stateMutability": "payable",
      "type": "function",
      "payable": true
    },
    {
      "inputs": [],
      "name": "getBalance",
      "outputs": [
        {
          "internalType": "uint256",
          "name": "",
          "type": "uint256"
        }
      ],
      "stateMutability": "view",
      "type": "function",
      "constant": true
    },
    {
      "inputs": [
        {
          "internalType": "address",
          "name": "_address",
          "type": "address"
        }
      ],
      "name": "getBalanceAddress",
      "outputs": [
        {
          "internalType": "uint256",
          "name": "",
          "type": "uint256"
        }
      ],
      "stateMutability": "view",
      "type": "function",
      "constant": true
    }
  ],
  "bytecode": "0x6080604052609880546001600160a01b0319163017908190556001600160a01b03163160995534801561003157600080fd5b50611e15806100416000396000f3fe6080604052600436106101445760003560e01c80636f1e8533116100b6578063a457c2d71161006f578063a457c2d71461057c578063a9059cbb146105b5578063b69ef8a8146105ee578063bed9d86114610603578063dd62ed3e1461060b578063f2fde38b1461064657610185565b80636f1e85331461048b57806370a08231146104d9578063715018a61461050c5780638da5cb5b1461052157806395d89b4114610552578063a023cf691461056757610185565b806318160ddd1161010857806318160ddd146102c05780631ca29139146102d5578063209df0fa146103ba57806323b872dd146103e4578063313ce56714610427578063395093511461045257610185565b806306fdde031461018f578063095ea7b3146102195780630d2d76a21461018557806312065fe014610266578063142052341461028d57610185565b36610185576040805133815234602082015281517f88a5966d370b9919b20f3e2c13ff65706f196a4e32cc2c12bf57088f88525874929181900390910190a1005b61018d610679565b005b34801561019b57600080fd5b506101a46107ad565b6040805160208082528351818301528351919283929083019185019080838360005b838110156101de5781810151838201526020016101c6565b50505050905090810190601f16801561020b5780820380516001836020036101000a031916815260200191505b509250505060405180910390f35b34801561022557600080fd5b506102526004803603604081101561023c57600080fd5b506001600160a01b038135169060200135610844565b604080519115158252519081900360200190f35b34801561027257600080fd5b5061027b610861565b60408051918252519081900360200190f35b34801561029957600080fd5b5061027b600480360360208110156102b057600080fd5b50356001600160a01b0316610867565b3480156102cc57600080fd5b5061027b610886565b3480156102e157600080fd5b5061018d600480360360a08110156102f857600080fd5b6001600160a01b03823516919081019060408101602082013564010000000081111561032357600080fd5b82018360208201111561033557600080fd5b8035906020019184600183028401116401000000008311171561035757600080fd5b91939092909160208101903564010000000081111561037557600080fd5b82018360208201111561038757600080fd5b803590602001918460018302840111640100000000831117156103a957600080fd5b91935091508035906020013561088c565b3480156103c657600080fd5b5061027b600480360360208110156103dd57600080fd5b5035610a6d565b3480156103f057600080fd5b506102526004803603606081101561040757600080fd5b506001600160a01b03813581169160208101359091169060400135610b07565b34801561043357600080fd5b5061043c610b94565b6040805160ff9092168252519081900360200190f35b34801561045e57600080fd5b506102526004803603604081101561047557600080fd5b506001600160a01b038135169060200135610b9d565b34801561049757600080fd5b506104be600480360360208110156104ae57600080fd5b50356001600160a01b0316610bf1565b60408051921515835260208301919091528051918290030190f35b3480156104e557600080fd5b5061027b600480360360208110156104fc57600080fd5b50356001600160a01b0316610c4d565b34801561051857600080fd5b5061018d610c68565b34801561052d57600080fd5b50610536610d0a565b604080516001600160a01b039092168252519081900360200190f35b34801561055e57600080fd5b506101a4610d19565b34801561057357600080fd5b5061027b610d7a565b34801561058857600080fd5b506102526004803603604081101561059f57600080fd5b506001600160a01b038135169060200135610d80565b3480156105c157600080fd5b50610252600480360360408110156105d857600080fd5b506001600160a01b038135169060200135610dee565b3480156105fa57600080fd5b5061027b610e02565b61018d610e08565b34801561061757600080fd5b5061027b6004803603604081101561062e57600080fd5b506001600160a01b0381358116916020013516610f42565b34801561065257600080fd5b5061018d6004803603602081101561066957600080fd5b50356001600160a01b0316610f6d565b609754341461068757600080fd5b604051600090339034908381818185875af1925050503d80600081146106c9576040519150601f19603f3d011682016040523d82523d6000602084013e6106ce565b606091505b5050905080610724576040805162461bcd60e51b815260206004820152601860248201527f4465706f736974207472616e73666572206661696c65642e0000000000000000604482015290519081900360640190fd5b61072e3334611066565b6099805434908101909155336000818152609a60205260409020805490920190915561075990611164565b50336000818152609a6020908152604091829020548251938452349184019190915282820152517f05cce4a371bf9816b1a7594f1d76c98eba4ed025ff3e471234ae598f17899bd49181900360600190a150565b60368054604080516020601f60026000196101006001881615020190951694909404938401819004810282018101909252828152606093909290918301828280156108395780601f1061080e57610100808354040283529160200191610839565b820191906000526020600020905b81548152906001019060200180831161081c57829003601f168201915b505050505090505b90565b600061085861085161127d565b8484611281565b50600192915050565b60995490565b6001600160a01b0381166000908152609a60205260409020545b919050565b60355490565b600054610100900460ff16806108a557506108a561136d565b806108b3575060005460ff16155b6108ee5760405162461bcd60e51b815260040180806020018281038252602e815260200180611cdb602e913960400191505060405180910390fd5b600054610100900460ff16158015610919576000805460ff1961ff0019909116610100171660011790555b610921611373565b61099487878080601f01602080910402602001604051908101604052809392919081815260200183838082843760009201919091525050604080516020601f8b01819004810282018101909252898152925089915088908190840183828082843760009201919091525061146d92505050565b816097819055507f55941bc9181933cfa95780b91c2bd2114b4bf5286ebfe557a0652991857d59c68888888888888860405180886001600160a01b03166001600160a01b0316815260200180602001806020018581526020018481526020018381038352898982818152602001925080828437600083820152601f01601f191690910184810383528781526020019050878780828437600083820152604051601f909101601f19169092018290039b50909950505050505050505050a18015610a63576000805461ff00191690555b5050505050505050565b6000610a7761127d565b6065546001600160a01b03908116911614610ac7576040805162461bcd60e51b81526020600482018190526024820152600080516020611d31833981519152604482015290519081900360640190fd5b60978290556040805183815290517f59b026b47a87053c766311bcf7903ea569f503b02471704897eac772fa03eacd9181900360200190a1505060975490565b6000610b14848484611523565b610b8a84610b2061127d565b610b8585604051806060016040528060288152602001611d09602891396001600160a01b038a16600090815260346020526040812090610b5e61127d565b6001600160a01b03168152602081019190915260400160002054919063ffffffff61168c16565b611281565b5060019392505050565b60385460ff1690565b6000610858610baa61127d565b84610b858560346000610bbb61127d565b6001600160a01b03908116825260208083019390935260409182016000908120918c16815292529020549063ffffffff61172316565b600080805b609b54811015610c3f57609b8181548110610c0d57fe5b6000918252602090912001546001600160a01b0385811691161415610c3757600192509050610c48565b600101610bf6565b50600091508190505b915091565b6001600160a01b031660009081526033602052604090205490565b610c7061127d565b6065546001600160a01b03908116911614610cc0576040805162461bcd60e51b81526020600482018190526024820152600080516020611d31833981519152604482015290519081900360640190fd5b6065546040516000916001600160a01b0316907f8be0079c531659141344cd1fd0a4f28419497f9722a3daafe3b4186f6b6457e0908390a3606580546001600160a01b0319169055565b6065546001600160a01b031690565b60378054604080516020601f60026000196101006001881615020190951694909404938401819004810282018101909252828152606093909290918301828280156108395780601f1061080e57610100808354040283529160200191610839565b60975481565b6000610858610d8d61127d565b84610b8585604051806060016040528060258152602001611dbb6025913960346000610db761127d565b6001600160a01b03908116825260208083019390935260409182016000908120918d1681529252902054919063ffffffff61168c16565b6000610858610dfb61127d565b8484611523565b60995481565b6097543414610e1657600080fd5b60978054609980548290039055336000818152609a602052604090208054929092039091559054610e48908290611784565b604051600090339034908381818185875af1925050503d8060008114610e8a576040519150601f19603f3d011682016040523d82523d6000602084013e610e8f565b606091505b5050905080610ee5576040805162461bcd60e51b815260206004820152601960248201527f5769746864726177207472616e73666572206661696c65642e00000000000000604482015290519081900360640190fd5b610eee3361188c565b336000818152609a6020908152604091829020548251938452349184019190915282820152517f7231d9b023ca3b1ac4645b261e0e008697318d4181c4630e9cb5e1709493fe529181900360600190a15050565b6001600160a01b03918216600090815260346020908152604080832093909416825291909152205490565b610f7561127d565b6065546001600160a01b03908116911614610fc5576040805162461bcd60e51b81526020600482018190526024820152600080516020611d31833981519152604482015290519081900360640190fd5b6001600160a01b03811661100a5760405162461bcd60e51b8152600401808060200182810382526026815260200180611c6d6026913960400191505060405180910390fd5b6065546040516001600160a01b038084169216907f8be0079c531659141344cd1fd0a4f28419497f9722a3daafe3b4186f6b6457e090600090a3606580546001600160a01b0319166001600160a01b0392909216919091179055565b6001600160a01b0382166110c1576040805162461bcd60e51b815260206004820152601f60248201527f45524332303a206d696e7420746f20746865207a65726f206164647265737300604482015290519081900360640190fd5b6110cd6000838361151e565b6035546110e0908263ffffffff61172316565b6035556001600160a01b03821660009081526033602052604090205461110c908263ffffffff61172316565b6001600160a01b03831660008181526033602090815260408083209490945583518581529351929391927fddf252ad1be2c89b69c2b068fc378daa952ba7f163c4a11628f55a4df523b3ef9281900390910190a35050565b600061116e61127d565b6065546001600160a01b039081169116146111be576040805162461bcd60e51b81526020600482018190526024820152600080516020611d31833981519152604482015290519081900360640190fd5b60006111c983610bf1565b50905060006111d784610867565b9050811580156111e8575060975481145b1561127657609b80546001810182556000919091527fbba9db4cdbea0a37c207bbb83e20f828cd4441c49891101dc94fd20dc8efc3490180546001600160a01b0386166001600160a01b0319909116811790915560408051918252517fc0687b34adb081bf19c87a2a0a5bb56c4a9584ee8c67fce683c3fac163c27eb89181900360200190a1509050610881565b5050919050565b3390565b6001600160a01b0383166112c65760405162461bcd60e51b8152600401808060200182810382526024815260200180611d976024913960400191505060405180910390fd5b6001600160a01b03821661130b5760405162461bcd60e51b8152600401808060200182810382526022815260200180611c936022913960400191505060405180910390fd5b6001600160a01b03808416600081815260346020908152604080832094871680845294825291829020859055815185815291517f8c5be1e5ebec7d5bd14f71427d1e84f3dd0314c0f7b2291e5b200ac8c7c3b9259281900390910190a3505050565b303b1590565b600054610100900460ff168061138c575061138c61136d565b8061139a575060005460ff16155b6113d55760405162461bcd60e51b815260040180806020018281038252602e815260200180611cdb602e913960400191505060405180910390fd5b600054610100900460ff16158015611400576000805460ff1961ff0019909116610100171660011790555b600061140a61127d565b606580546001600160a01b0319166001600160a01b038316908117909155604051919250906000907f8be0079c531659141344cd1fd0a4f28419497f9722a3daafe3b4186f6b6457e0908290a350801561146a576000805461ff00191690555b50565b600054610100900460ff1680611486575061148661136d565b80611494575060005460ff16155b6114cf5760405162461bcd60e51b815260040180806020018281038252602e815260200180611cdb602e913960400191505060405180910390fd5b600054610100900460ff161580156114fa576000805460ff1961ff0019909116610100171660011790555b6115026119d4565b61150c8383611a75565b801561151e576000805461ff00191690555b505050565b6001600160a01b0383166115685760405162461bcd60e51b8152600401808060200182810382526025815260200180611d726025913960400191505060405180910390fd5b6001600160a01b0382166115ad5760405162461bcd60e51b8152600401808060200182810382526023815260200180611c286023913960400191505060405180910390fd5b6115b883838361151e565b6115fb81604051806060016040528060268152602001611cb5602691396001600160a01b038616600090815260336020526040902054919063ffffffff61168c16565b6001600160a01b038085166000908152603360205260408082209390935590841681522054611630908263ffffffff61172316565b6001600160a01b0380841660008181526033602090815260409182902094909455805185815290519193928716927fddf252ad1be2c89b69c2b068fc378daa952ba7f163c4a11628f55a4df523b3ef92918290030190a3505050565b6000818484111561171b5760405162461bcd60e51b81526004018080602001828103825283818151815260200191508051906020019080838360005b838110156116e05781810151838201526020016116c8565b50505050905090810190601f16801561170d5780820380516001836020036101000a031916815260200191505b509250505060405180910390fd5b505050900390565b60008282018381101561177d576040805162461bcd60e51b815260206004820152601b60248201527f536166654d6174683a206164646974696f6e206f766572666c6f770000000000604482015290519081900360640190fd5b9392505050565b6001600160a01b0382166117c95760405162461bcd60e51b8152600401808060200182810382526021815260200180611d516021913960400191505060405180910390fd5b6117d58260008361151e565b61181881604051806060016040528060228152602001611c4b602291396001600160a01b038516600090815260336020526040902054919063ffffffff61168c16565b6001600160a01b038316600090815260336020526040902055603554611844908263ffffffff611b4d16565b6035556040805182815290516000916001600160a01b038516917fddf252ad1be2c89b69c2b068fc378daa952ba7f163c4a11628f55a4df523b3ef9181900360200190a35050565b61189461127d565b6065546001600160a01b039081169116146118e4576040805162461bcd60e51b81526020600482018190526024820152600080516020611d31833981519152604482015290519081900360640190fd5b6000806118f083610bf1565b91509150811561151e57609b8054600019810190811061190c57fe5b600091825260209091200154609b80546001600160a01b03909216918390811061193257fe5b9060005260206000200160006101000a8154816001600160a01b0302191690836001600160a01b03160217905550609b80548061196b57fe5b6000828152602090819020820160001990810180546001600160a01b0319169055909101909155604080516001600160a01b038616815290517fb97b17a738bc54faf4f156f2072573525abf5a6f9fe4e3f78a2f159d7a851805929181900390910190a1505050565b600054610100900460ff16806119ed57506119ed61136d565b806119fb575060005460ff16155b611a365760405162461bcd60e51b815260040180806020018281038252602e815260200180611cdb602e913960400191505060405180910390fd5b600054610100900460ff16158015611a61576000805460ff1961ff0019909116610100171660011790555b801561146a576000805461ff001916905550565b600054610100900460ff1680611a8e5750611a8e61136d565b80611a9c575060005460ff16155b611ad75760405162461bcd60e51b815260040180806020018281038252602e815260200180611cdb602e913960400191505060405180910390fd5b600054610100900460ff16158015611b02576000805460ff1961ff0019909116610100171660011790555b8251611b15906036906020860190611b8f565b508151611b29906037906020850190611b8f565b506038805460ff19166012179055801561151e576000805461ff0019169055505050565b600061177d83836040518060400160405280601e81526020017f536166654d6174683a207375627472616374696f6e206f766572666c6f77000081525061168c565b828054600181600116156101000203166002900490600052602060002090601f016020900481019282601f10611bd057805160ff1916838001178555611bfd565b82800160010185558215611bfd579182015b82811115611bfd578251825591602001919060010190611be2565b50611c09929150611c0d565b5090565b61084191905b80821115611c095760008155600101611c1356fe45524332303a207472616e7366657220746f20746865207a65726f206164647265737345524332303a206275726e20616d6f756e7420657863656564732062616c616e63654f776e61626c653a206e6577206f776e657220697320746865207a65726f206164647265737345524332303a20617070726f766520746f20746865207a65726f206164647265737345524332303a207472616e7366657220616d6f756e7420657863656564732062616c616e6365496e697469616c697a61626c653a20636f6e747261637420697320616c726561647920696e697469616c697a656445524332303a207472616e7366657220616d6f756e74206578636565647320616c6c6f77616e63654f776e61626c653a2063616c6c6572206973206e6f7420746865206f776e657245524332303a206275726e2066726f6d20746865207a65726f206164647265737345524332303a207472616e736665722066726f6d20746865207a65726f206164647265737345524332303a20617070726f76652066726f6d20746865207a65726f206164647265737345524332303a2064656372656173656420616c6c6f77616e63652062656c6f77207a65726fa26469706673582212203802957e60e04c636dd5d8c6f513760f3550b38e4dc14698674cccb147cfbd9b64736f6c63430006020033",
  "source": "pragma solidity 0.6.2;\n\nimport \"../../node_modules/@openzeppelin/contracts-upgradeable/token/ERC20/ERC20Upgradeable.sol\";\nimport \"../../node_modules/@openzeppelin/contracts-upgradeable/math/SafeMathUpgradeable.sol\";\nimport \"../../node_modules/@openzeppelin/contracts-upgradeable/access/OwnableUpgradeable.sol\";\nimport './RegistryTokenI.sol';\n\n/**\n* @title Registry Token\n* @notice Implements an ERC20 staking token that is connected to a registry.\n*/\n\ncontract RegistryToken is RegistryTokenI, ERC20Upgradeable, OwnableUpgradeable {\n    using SafeMathUpgradeable for uint256;\n\n    uint256 public stakePrice;\n    address payable wallet = payable(address(this));\n    uint256 public balance = wallet.balance;\n    mapping (address => uint256) private _balances;\n    address[] private stakers;    \n\n    /// @notice Emitted when a new RegistryToken is created.\n    event RegistryTokenCreated(address _owner, string _tokenName, string tokenSymbol, uint256 tokenSupply, uint256 stakePrice);\n\n    /// @notice Emitted when tokens are received by RegistryToken.\n    event Received(address _stake, uint256 _amount);\n\n    /// @notice Emitted when a new staker is added to RegistryToken.\n    event StakerAdded(address _staker);\n\n    /// @notice Emitted when a new staker is removed to RegistryToken.\n    event StakerRemoved(address _staker);\n\n    /// @notice Emitted when a new stake price is set.\n    event StakePriceSet(uint256 _newStakePrice);\n\n    /// @notice Emitted when new tokens are staked and minted to `msg.sender`.\n    event StakeDeposited(address _sender, uint256 _amount, uint256 _senderBalance);\n\n    /// @notice Emitted when new tokens are returned and burned to `msg.sender`.\n    event StakeReturned(address _sender, uint256 _amount, uint256 _senderBalance);\n\n    /**\n     * @notice Constructs a new RegistryToken.\n     * @param _owner The address that will own and control the RegistryToken contract.\n     * @param _tokenName The token name for the RegistryToken.\n     * @param _tokenSymbol The RegistryToken's symbol (e.g. 'INI').\n     * @param _tokenSupply The initial total supply for the RegistryToken.\n     * @param _stakePrice The initial amount/price to add an Entry to the Registry, denominated in Infinity Token.\n     */\n\n    function initialize(\n        address _owner, \n        string calldata _tokenName, \n        string calldata _tokenSymbol, \n        uint256 _tokenSupply,\n        uint256 _stakePrice\n    ) \n        external\n        override \n        initializer\n    {\n        __Ownable_init_unchained();\n        ERC20Upgradeable.__ERC20_init(_tokenName, _tokenSymbol);\n        stakePrice = _stakePrice;\n        emit RegistryTokenCreated(_owner, _tokenName, _tokenSymbol, _tokenSupply, _stakePrice);\n    }\n\n    /**\n     * @notice Adds a new staker to the RegistryToken.\n     * @param _staker The address of the staker to be added. \n     * @return boolean on whether or not staker is addedd successfully.\n     */\n\n    function addStaker(address _staker)\n        internal \n        onlyOwner\n    returns(bool)\n    {\n        (bool _isStaker, ) = isStaker(_staker);\n        uint256 stakerBalance = getBalanceAddress(_staker);\n        if((!_isStaker) && (stakerBalance==stakePrice)) {\n            stakers.push(_staker);\n            emit StakerAdded(_staker);\n            return(_isStaker);\n        }\n    }\n\n    /**\n     * @notice Removes a staker from the RegistryToken.\n     * @param _staker The address of the staker to be removed. \n     */\n\n    function removeStaker(address _staker)\n        internal\n        onlyOwner\n    {\n        (bool _isStaker, uint256 s) = isStaker(_staker);\n        if(_isStaker){\n            stakers[s] = stakers[stakers.length - 1];\n            stakers.pop();\n            emit StakerRemoved(_staker);\n        }\n    }\n\n    /**\n     * @notice Returns if a staker exists in the Registry and their total number of registry tokens.\n     * @param _address The address of the staker.\n     * @return boolean representing if staker exists in the Registry and uint256 of total numbers of Registry tokens assigned to `_address`.\n     */\n\n    function isStaker(address _address)\n       public\n       override\n       view\n    returns(bool, uint256)\n    {\n        for (uint256 i = 0; i < stakers.length; i += 1){\n            if (_address == stakers[i]) return (true, i);\n        }\n        return (false, 0);\n    }\n\n    /**\n     * @notice Sets the stake price for a RegistryToken.\n     * @param _newStakePrice The new stake price to be used for adding registry entries.\n     * @return uint256 representing the new stake price, denominated in Infinity.\n     */\n\n    function setStakePrice(uint256 _newStakePrice) \n        external \n        override\n        onlyOwner\n    returns (uint256) {\n        stakePrice = _newStakePrice;\n        emit StakePriceSet(stakePrice);\n        return stakePrice;\n    }\n\n    /**\n     * @notice Mints new registry tokens `msg.sender` upon sending Infinity to RegistryToken equal to `stakePrice`.\n     * Requires `msg.sender` sends a valid `msg.value` in the transaction.\n     */\n\n    function depositStake()\n        public\n        override\n        payable\n    {\n        require(msg.value == stakePrice);\n\n        (bool success, ) = msg.sender.call.value(msg.value)(\"\");\n        require(success, \"Deposit transfer failed.\");\n\n        _mint(msg.sender, msg.value);\n        balance += msg.value;\n        _balances[msg.sender] += msg.value;\n        \n        addStaker(msg.sender);\n\n        emit StakeDeposited(msg.sender, msg.value, _balances[msg.sender]);\n    }\n\n    /**\n     * @notice Withdraws registry tokens held by `msg.sender`, burns the associated number of registry tokens and returns the current amount of Infinity staked.\n     * Requires `msg.sender` sends a valid `msg.value` in the transaction.\n     */\n\n    function withdrawStake()\n        external\n        override\n        payable\n    {\n        require(msg.value == stakePrice);\n\n        address payable sender = msg.sender;\n        balance -= stakePrice;\n        _balances[sender] -= stakePrice;\n        _burn(sender, stakePrice);\n\n        (bool success, ) = msg.sender.call.value(msg.value)(\"\");\n        require(success, \"Withdraw transfer failed.\");\n\n       removeStaker(msg.sender);\n\n        emit StakeReturned(msg.sender, msg.value, _balances[msg.sender]);\n    }\n\n    /**\n     * @notice Returns the balance of all tokens in the RegistryToken.\n     * @return uint256 reprenting the balance \n     */\n\n    function getBalance() \n        external \n        override\n        view\n    returns (uint256) \n    {\n        return balance;\n    }\n\n    /**\n     * @notice Returns the balance of tokens for a particular address.\n     * @param _address The total number of registry tokens held by an address.\n     * @return uint256 reprenting the address balance \n     */\n\n    function getBalanceAddress(address _address)\n        public\n        override\n        view\n    returns (uint256)\n    {\n        return _balances[_address];\n    }\n\n    /**\n     * @notice Method is executed if tokens are transfered to RegistryContract without a proper call.\n     */\n\n    fallback() external override payable {\n        depositStake();\n    }\n\n    /**\n     * @notice Method is executed when tokens are sent to RegistryContract.\n     */\n\n    receive() external override payable {\n        emit Received(msg.sender, msg.value);\n    }\n}",
  "sourcePath": "/Users/neo/Code/ZNS/contracts/RegistryToken/RegistryToken.sol",
  "compiler": {
    "name": "solc",
    "version": "0.6.2+commit.bacdbe57.Emscripten.clang"
  },
  "schemaVersion": "3.2.3",
  "updatedAt": "2020-12-05T00:07:10.064Z",
  "networkType": "ethereum",
  "devdoc": {
    "methods": {
      "allowance(address,address)": {
        "details": "See {IERC20-allowance}."
      },
      "approve(address,uint256)": {
        "details": "See {IERC20-approve}.     * Requirements:     * - `spender` cannot be the zero address."
      },
      "balanceOf(address)": {
        "details": "See {IERC20-balanceOf}."
      },
      "decimals()": {
        "details": "Returns the number of decimals used to get its user representation. For example, if `decimals` equals `2`, a balance of `505` tokens should be displayed to a user as `5,05` (`505 / 10 ** 2`).     * Tokens usually opt for a value of 18, imitating the relationship between Ether and Wei. This is the value {ERC20} uses, unless {_setupDecimals} is called.     * NOTE: This information is only used for _display_ purposes: it in no way affects any of the arithmetic of the contract, including {IERC20-balanceOf} and {IERC20-transfer}."
      },
      "decreaseAllowance(address,uint256)": {
        "details": "Atomically decreases the allowance granted to `spender` by the caller.     * This is an alternative to {approve} that can be used as a mitigation for problems described in {IERC20-approve}.     * Emits an {Approval} event indicating the updated allowance.     * Requirements:     * - `spender` cannot be the zero address. - `spender` must have allowance for the caller of at least `subtractedValue`."
      },
      "getBalanceAddress(address)": {
        "params": {
          "_address": "The total number of registry tokens held by an address."
        },
        "returns": {
          "_0": "uint256 reprenting the address balance "
        }
      },
      "increaseAllowance(address,uint256)": {
        "details": "Atomically increases the allowance granted to `spender` by the caller.     * This is an alternative to {approve} that can be used as a mitigation for problems described in {IERC20-approve}.     * Emits an {Approval} event indicating the updated allowance.     * Requirements:     * - `spender` cannot be the zero address."
      },
      "initialize(address,string,string,uint256,uint256)": {
        "params": {
          "_owner": "The address that will own and control the RegistryToken contract.",
          "_stakePrice": "The initial amount/price to add an Entry to the Registry, denominated in Infinity Token.",
          "_tokenName": "The token name for the RegistryToken.",
          "_tokenSupply": "The initial total supply for the RegistryToken.",
          "_tokenSymbol": "The RegistryToken's symbol (e.g. 'INI')."
        }
      },
      "isStaker(address)": {
        "params": {
          "_address": "The address of the staker."
        },
        "returns": {
          "_0": "boolean representing if staker exists in the Registry and uint256 of total numbers of Registry tokens assigned to `_address`."
        }
      },
      "name()": {
        "details": "Returns the name of the token."
      },
      "owner()": {
        "details": "Returns the address of the current owner."
      },
      "renounceOwnership()": {
        "details": "Leaves the contract without owner. It will not be possible to call `onlyOwner` functions anymore. Can only be called by the current owner.     * NOTE: Renouncing ownership will leave the contract without an owner, thereby removing any functionality that is only available to the owner."
      },
      "setStakePrice(uint256)": {
        "params": {
          "_newStakePrice": "The new stake price to be used for adding registry entries."
        },
        "returns": {
          "_0": "uint256 representing the new stake price, denominated in Infinity."
        }
      },
      "symbol()": {
        "details": "Returns the symbol of the token, usually a shorter version of the name."
      },
      "totalSupply()": {
        "details": "See {IERC20-totalSupply}."
      },
      "transfer(address,uint256)": {
        "details": "See {IERC20-transfer}.     * Requirements:     * - `recipient` cannot be the zero address. - the caller must have a balance of at least `amount`."
      },
      "transferFrom(address,address,uint256)": {
        "details": "See {IERC20-transferFrom}.     * Emits an {Approval} event indicating the updated allowance. This is not required by the EIP. See the note at the beginning of {ERC20}.     * Requirements:     * - `sender` and `recipient` cannot be the zero address. - `sender` must have a balance of at least `amount`. - the caller must have allowance for ``sender``'s tokens of at least `amount`."
      },
      "transferOwnership(address)": {
        "details": "Transfers ownership of the contract to a new account (`newOwner`). Can only be called by the current owner."
      }
    },
    "title": "Registry Token"
  },
  "userdoc": {
    "methods": {
      "depositStake()": {
        "notice": "Mints new registry tokens `msg.sender` upon sending Infinity to RegistryToken equal to `stakePrice`. Requires `msg.sender` sends a valid `msg.value` in the transaction."
      },
      "getBalance()": {
        "notice": "Returns the balance of all tokens in the RegistryToken."
      },
      "getBalanceAddress(address)": {
        "notice": "Returns the balance of tokens for a particular address."
      },
      "initialize(address,string,string,uint256,uint256)": {
        "notice": "Constructs a new RegistryToken."
      },
      "isStaker(address)": {
        "notice": "Returns if a staker exists in the Registry and their total number of registry tokens."
      },
      "setStakePrice(uint256)": {
        "notice": "Sets the stake price for a RegistryToken."
      },
      "withdrawStake()": {
        "notice": "Withdraws registry tokens held by `msg.sender`, burns the associated number of registry tokens and returns the current amount of Infinity staked. Requires `msg.sender` sends a valid `msg.value` in the transaction."
      }
    },
    "notice": "Implements an ERC20 staking token that is connected to a registry."
  }
}