{
  "contractName": "RegistryController",
  "abi": [
    {
      "anonymous": false,
      "inputs": [
        {
          "indexed": false,
          "internalType": "address",
          "name": "registryAddress",
          "type": "address"
        },
        {
          "indexed": false,
          "internalType": "contract RegistryToken",
          "name": "registryToken",
          "type": "address"
        }
      ],
      "name": "CreatedRegistry",
      "type": "event"
    },
    {
      "anonymous": false,
      "inputs": [
        {
          "indexed": false,
          "internalType": "string",
          "name": "subdomain",
          "type": "string"
        },
        {
          "indexed": false,
          "internalType": "string",
          "name": "ref",
          "type": "string"
        }
      ],
      "name": "CreatedRegistryEntry",
      "type": "event"
    },
    {
      "anonymous": false,
      "inputs": [
        {
          "indexed": true,
          "internalType": "address",
          "name": "previousOwner",
          "type": "address"
        },
        {
          "indexed": true,
          "internalType": "address",
          "name": "newOwner",
          "type": "address"
        }
      ],
      "name": "OwnershipTransferred",
      "type": "event"
    },
    {
      "anonymous": false,
      "inputs": [
        {
          "indexed": false,
          "internalType": "address",
          "name": "registryProxy",
          "type": "address"
        },
        {
          "indexed": false,
          "internalType": "contract RegistryToken",
          "name": "registryTokenProxy",
          "type": "address"
        }
      ],
      "name": "RegistryControllerInitialized",
      "type": "event"
    },
    {
      "anonymous": false,
      "inputs": [
        {
          "indexed": false,
          "internalType": "string",
          "name": "subdomain",
          "type": "string"
        },
        {
          "indexed": false,
          "internalType": "string",
          "name": "newRef",
          "type": "string"
        }
      ],
      "name": "RegistryEntryRefSet",
      "type": "event"
    },
    {
      "anonymous": false,
      "inputs": [
        {
          "indexed": false,
          "internalType": "string",
          "name": "newRef",
          "type": "string"
        }
      ],
      "name": "RegistryRefSet",
      "type": "event"
    },
    {
      "anonymous": false,
      "inputs": [
        {
          "indexed": false,
          "internalType": "uint256",
          "name": "newStakePrice",
          "type": "uint256"
        }
      ],
      "name": "StakePriceSet",
      "type": "event"
    },
    {
      "inputs": [],
      "name": "owner",
      "outputs": [
        {
          "internalType": "address",
          "name": "",
          "type": "address"
        }
      ],
      "stateMutability": "view",
      "type": "function",
      "constant": true
    },
    {
      "inputs": [],
      "name": "registryProxyAddress",
      "outputs": [
        {
          "internalType": "address",
          "name": "",
          "type": "address"
        }
      ],
      "stateMutability": "view",
      "type": "function",
      "constant": true
    },
    {
      "inputs": [],
      "name": "registryTokenAddress",
      "outputs": [
        {
          "internalType": "address payable",
          "name": "",
          "type": "address"
        }
      ],
      "stateMutability": "view",
      "type": "function",
      "constant": true
    },
    {
      "inputs": [],
      "name": "renounceOwnership",
      "outputs": [],
      "stateMutability": "nonpayable",
      "type": "function"
    },
    {
      "inputs": [],
      "name": "stakePrice",
      "outputs": [
        {
          "internalType": "uint256",
          "name": "",
          "type": "uint256"
        }
      ],
      "stateMutability": "view",
      "type": "function",
      "constant": true
    },
    {
      "inputs": [
        {
          "internalType": "address",
          "name": "newOwner",
          "type": "address"
        }
      ],
      "name": "transferOwnership",
      "outputs": [],
      "stateMutability": "nonpayable",
      "type": "function"
    },
    {
      "inputs": [
        {
          "internalType": "address",
          "name": "_registryProxy",
          "type": "address"
        },
        {
          "internalType": "contract RegistryToken",
          "name": "_registryTokenProxy",
          "type": "address"
        },
        {
          "internalType": "address",
          "name": "_owner",
          "type": "address"
        }
      ],
      "name": "initialize",
      "outputs": [],
      "stateMutability": "nonpayable",
      "type": "function"
    },
    {
      "inputs": [
        {
          "internalType": "uint256",
          "name": "_newStakePrice",
          "type": "uint256"
        }
      ],
      "name": "setStakePrice",
      "outputs": [],
      "stateMutability": "nonpayable",
      "type": "function"
    },
    {
      "inputs": [
        {
          "internalType": "string",
          "name": "_subdomain",
          "type": "string"
        },
        {
          "internalType": "string",
          "name": "_ref",
          "type": "string"
        }
      ],
      "name": "createRegistryEntry",
      "outputs": [],
      "stateMutability": "nonpayable",
      "type": "function"
    },
    {
      "inputs": [
        {
          "internalType": "string",
          "name": "_newRef",
          "type": "string"
        }
      ],
      "name": "setRef",
      "outputs": [],
      "stateMutability": "nonpayable",
      "type": "function"
    },
    {
      "inputs": [
        {
          "internalType": "string",
          "name": "_subdomain",
          "type": "string"
        },
        {
          "internalType": "string",
          "name": "_newRef",
          "type": "string"
        }
      ],
      "name": "setRegistryEntryRef",
      "outputs": [],
      "stateMutability": "nonpayable",
      "type": "function"
    },
    {
      "inputs": [],
      "name": "getRef",
      "outputs": [
        {
          "internalType": "string",
          "name": "",
          "type": "string"
        }
      ],
      "stateMutability": "nonpayable",
      "type": "function"
    },
    {
      "inputs": [],
      "name": "getStakePrice",
      "outputs": [
        {
          "internalType": "uint256",
          "name": "",
          "type": "uint256"
        }
      ],
      "stateMutability": "nonpayable",
      "type": "function"
    },
    {
      "inputs": [
        {
          "internalType": "string",
          "name": "_subdomain",
          "type": "string"
        }
      ],
      "name": "getRegistryEntryRef",
      "outputs": [
        {
          "internalType": "string",
          "name": "",
          "type": "string"
        }
      ],
      "stateMutability": "nonpayable",
      "type": "function"
    }
  ],
  "bytecode": "0x608060405234801561001057600080fd5b506119ba806100206000396000f3fe608060405234801561001057600080fd5b50600436106100ea5760003560e01c80635b999a381161008c578063a023cf6911610066578063a023cf69146103cb578063c0c53b8b146103d3578063c73e835c1461040b578063f2fde38b14610479576100ea565b80635b999a38146103a1578063715018a6146103bb5780638da5cb5b146103c3576100ea565b80631692f21f116100c85780631692f21f146102b65780631d6d32ba146103745780631d8e2f581461037c578063209df0fa14610384576100ea565b80630cc78476146100ef578063149adf5814610113578063164f25bf146101f6575b600080fd5b6100f761049f565b604080516001600160a01b039092168252519081900360200190f35b6101816004803603602081101561012957600080fd5b810190602081018135600160201b81111561014357600080fd5b82018360208201111561015557600080fd5b803590602001918460018302840111600160201b8311171561017657600080fd5b5090925090506104ae565b6040805160208082528351818301528351919283929083019185019080838360005b838110156101bb5781810151838201526020016101a3565b50505050905090810190601f1680156101e85780820380516001836020036101000a031916815260200191505b509250505060405180910390f35b6102b46004803603604081101561020c57600080fd5b810190602081018135600160201b81111561022657600080fd5b82018360208201111561023857600080fd5b803590602001918460018302840111600160201b8311171561025957600080fd5b919390929091602081019035600160201b81111561027657600080fd5b82018360208201111561028857600080fd5b803590602001918460018302840111600160201b831117156102a957600080fd5b509092509050610618565b005b6102b4600480360360408110156102cc57600080fd5b810190602081018135600160201b8111156102e657600080fd5b8201836020820111156102f857600080fd5b803590602001918460018302840111600160201b8311171561031957600080fd5b919390929091602081019035600160201b81111561033657600080fd5b82018360208201111561034857600080fd5b803590602001918460018302840111600160201b8311171561036957600080fd5b509092509050610a89565b610181610dd7565b6100f7610f0c565b6102b46004803603602081101561039a57600080fd5b5035610f1b565b6103a9611097565b60408051918252519081900360200190f35b6102b461110d565b6100f76111af565b6103a96111be565b6102b4600480360360608110156103e957600080fd5b506001600160a01b0381358116916020810135821691604090910135166111c4565b6102b46004803603602081101561042157600080fd5b810190602081018135600160201b81111561043b57600080fd5b82018360208201111561044d57600080fd5b803590602001918460018302840111600160201b8311171561046e57600080fd5b509092509050611300565b6102b46004803603602081101561048f57600080fd5b50356001600160a01b03166115c2565b6099546001600160a01b031681565b6098546040516302935beb60e31b8152602060048201908152602482018490526060926001600160a01b03169163149adf589186918691908190604401848480828437600081840152601f19601f820116905080830192505050935050505060006040518083038186803b15801561052557600080fd5b505afa158015610539573d6000803e3d6000fd5b505050506040513d6000823e601f3d908101601f19168201604052602081101561056257600080fd5b8101908080516040519392919084600160201b82111561058157600080fd5b90830190602082018581111561059657600080fd5b8251600160201b8111828201881017156105af57600080fd5b82525081516020918201929091019080838360005b838110156105dc5781810151838201526020016105c4565b50505050905090810190601f1680156106095780820380516001836020036101000a031916815260200191505b50604052505050905092915050565b6106206116bb565b6065546001600160a01b03908116911614610670576040805162461bcd60e51b81526020600482018190526024820152600080516020611937833981519152604482015290519081900360640190fd5b6098546040805163164f25bf60e01b815260048101918252604481018690526001600160a01b039092169163164f25bf9187918791879187919081906024810190606401878780828437600083820152601f01601f191690910184810383528581526020019050858580828437600081840152601f19601f8201169050808301925050509650505050505050600060405180830381600087803b15801561071657600080fd5b505af115801561072a573d6000803e3d6000fd5b5050609854604051630c822d7f60e41b815260206004820190815260248201889052600094506001600160a01b03909216925063c822d7f0918891889190819060440184848082843760008382015260408051601f909201601f1916909301965091945090925050508083038186803b1580156107a657600080fd5b505afa1580156107ba573d6000803e3d6000fd5b505050506040513d60408110156107d057600080fd5b505190506001811515146107e057fe5b606085858080601f016020809104026020016040519081016040528093929190818152602001838380828437600092019190915250506098546040516302935beb60e31b8152602060048201908152602482018b90529495506060946001600160a01b03909216935063149adf5892508a918a918190604401848480828437600081840152601f19601f820116905080830192505050935050505060006040518083038186803b15801561089357600080fd5b505afa1580156108a7573d6000803e3d6000fd5b505050506040513d6000823e601f3d908101601f1916820160405260208110156108d057600080fd5b8101908080516040519392919084600160201b8211156108ef57600080fd5b90830190602082018581111561090457600080fd5b8251600160201b81118282018810171561091d57600080fd5b82525081516020918201929091019080838360005b8381101561094a578181015183820152602001610932565b50505050905090810190601f1680156109775780820380516001836020036101000a031916815260200191505b5060405250505090507fc37bb6160ff34dd9db7b491c89af3a2b774a1896e2403831c879dac0710dfc728282604051808060200180602001838103835285818151815260200191508051906020019080838360005b838110156109e45781810151838201526020016109cc565b50505050905090810190601f168015610a115780820380516001836020036101000a031916815260200191505b50838103825284518152845160209182019186019080838360005b83811015610a44578181015183820152602001610a2c565b50505050905090810190601f168015610a715780820380516001836020036101000a031916815260200191505b5094505050505060405180910390a150505050505050565b610a916116bb565b6065546001600160a01b03908116911614610ae1576040805162461bcd60e51b81526020600482018190526024820152600080516020611937833981519152604482015290519081900360640190fd5b60985460408051631692f21f60e01b815260048101918252604481018690526001600160a01b0390921691631692f21f9187918791879187919081906024810190606401878780828437600083820152601f01601f191690910184810383528581526020019050858580828437600081840152601f19601f8201169050808301925050509650505050505050600060405180830381600087803b158015610b8757600080fd5b505af1158015610b9b573d6000803e3d6000fd5b50506098546040516302935beb60e31b815260206004820190815260248201889052606094506001600160a01b03909216925063149adf589188918891908190604401848480828437600081840152601f19601f820116905080830192505050935050505060006040518083038186803b158015610c1857600080fd5b505afa158015610c2c573d6000803e3d6000fd5b505050506040513d6000823e601f3d908101601f191682016040526020811015610c5557600080fd5b8101908080516040519392919084600160201b821115610c7457600080fd5b908301906020820185811115610c8957600080fd5b8251600160201b811182820188101715610ca257600080fd5b82525081516020918201929091019080838360005b83811015610ccf578181015183820152602001610cb7565b50505050905090810190601f168015610cfc5780820380516001836020036101000a031916815260200191505b5060405250505090507fff4960b4a54429205a8c3dc005334a3daabb0f3ad515ef46123f74e079abfc1a85858360405180806020018060200183810383528686828181526020019250808284376000838201819052601f909101601f191690920185810384528651815286516020918201939188019250908190849084905b83811015610d93578181015183820152602001610d7b565b50505050905090810190601f168015610dc05780820380516001836020036101000a031916815260200191505b509550505050505060405180910390a15050505050565b60985460408051630eb6995d60e11b815290516060926001600160a01b031691631d6d32ba916004808301926000929190829003018186803b158015610e1c57600080fd5b505afa158015610e30573d6000803e3d6000fd5b505050506040513d6000823e601f3d908101601f191682016040526020811015610e5957600080fd5b8101908080516040519392919084600160201b821115610e7857600080fd5b908301906020820185811115610e8d57600080fd5b8251600160201b811182820188101715610ea657600080fd5b82525081516020918201929091019080838360005b83811015610ed3578181015183820152602001610ebb565b50505050905090810190601f168015610f005780820380516001836020036101000a031916815260200191505b50604052505050905090565b609b546001600160a01b031681565b610f236116bb565b6065546001600160a01b03908116911614610f73576040805162461bcd60e51b81526020600482018190526024820152600080516020611937833981519152604482015290519081900360640190fd5b609a546040805163104ef87d60e11b81526004810184905290516001600160a01b039092169163209df0fa916024808201926020929091908290030181600087803b158015610fc157600080fd5b505af1158015610fd5573d6000803e3d6000fd5b505050506040513d6020811015610feb57600080fd5b5050609a546040805163a023cf6960e01b815290516001600160a01b039092169163a023cf6991600480820192602092909190829003018186803b15801561103257600080fd5b505afa158015611046573d6000803e3d6000fd5b505050506040513d602081101561105c57600080fd5b5051609c556040805182815290517f59b026b47a87053c766311bcf7903ea569f503b02471704897eac772fa03eacd9181900360200190a150565b609a546040805163a023cf6960e01b815290516000926001600160a01b03169163a023cf69916004808301926020929190829003018186803b1580156110dc57600080fd5b505afa1580156110f0573d6000803e3d6000fd5b505050506040513d602081101561110657600080fd5b5051905090565b6111156116bb565b6065546001600160a01b03908116911614611165576040805162461bcd60e51b81526020600482018190526024820152600080516020611937833981519152604482015290519081900360640190fd5b6065546040516000916001600160a01b0316907f8be0079c531659141344cd1fd0a4f28419497f9722a3daafe3b4186f6b6457e0908390a3606580546001600160a01b0319169055565b6065546001600160a01b031690565b609c5481565b600054610100900460ff16806111dd57506111dd6116bf565b806111eb575060005460ff16155b6112265760405162461bcd60e51b815260040180806020018281038252602e815260200180611957602e913960400191505060405180910390fd5b600054610100900460ff16158015611251576000805460ff1961ff0019909116610100171660011790555b6112596116c5565b611262826115c2565b609980546001600160a01b038087166001600160a01b031992831681179384905560988054841694831694909417909355609b805491871691831682179055609a8054909216811790915560408051928352602083019190915280517fdcdd2e9fad0d6d7ee3a5ecdc777668645858146ee4b8f33ee0edf553aef4983c9281900390910190a180156112fa576000805461ff00191690555b50505050565b6113086116bb565b6065546001600160a01b03908116911614611358576040805162461bcd60e51b81526020600482018190526024820152600080516020611937833981519152604482015290519081900360640190fd5b609854604051633ecf991160e21b8152602060048201908152602482018490526001600160a01b039092169163fb3e644491859185918190604401848480828437600081840152601f19601f8201169050808301925050509350505050600060405180830381600087803b1580156113cf57600080fd5b505af11580156113e3573d6000803e3d6000fd5b505050506060609860009054906101000a90046001600160a01b03166001600160a01b0316631d6d32ba6040518163ffffffff1660e01b815260040160006040518083038186803b15801561143757600080fd5b505afa15801561144b573d6000803e3d6000fd5b505050506040513d6000823e601f3d908101601f19168201604052602081101561147457600080fd5b8101908080516040519392919084600160201b82111561149357600080fd5b9083019060208201858111156114a857600080fd5b8251600160201b8111828201881017156114c157600080fd5b82525081516020918201929091019080838360005b838110156114ee5781810151838201526020016114d6565b50505050905090810190601f16801561151b5780820380516001836020036101000a031916815260200191505b5060405250505090507fe6a3d4ec4f69ac853579fb0336181042ec4d0a21b32de1a92b6dd6a2f904f5a0816040518080602001828103825283818151815260200191508051906020019080838360005b8381101561158357818101518382015260200161156b565b50505050905090810190601f1680156115b05780820380516001836020036101000a031916815260200191505b509250505060405180910390a1505050565b6115ca6116bb565b6065546001600160a01b0390811691161461161a576040805162461bcd60e51b81526020600482018190526024820152600080516020611937833981519152604482015290519081900360640190fd5b6001600160a01b03811661165f5760405162461bcd60e51b81526004018080602001828103825260268152602001806119116026913960400191505060405180910390fd5b6065546040516001600160a01b038084169216907f8be0079c531659141344cd1fd0a4f28419497f9722a3daafe3b4186f6b6457e090600090a3606580546001600160a01b0319166001600160a01b0392909216919091179055565b3390565b303b1590565b600054610100900460ff16806116de57506116de6116bf565b806116ec575060005460ff16155b6117275760405162461bcd60e51b815260040180806020018281038252602e815260200180611957602e913960400191505060405180910390fd5b600054610100900460ff16158015611752576000805460ff1961ff0019909116610100171660011790555b61175a611777565b611762611817565b8015611774576000805461ff00191690555b50565b600054610100900460ff168061179057506117906116bf565b8061179e575060005460ff16155b6117d95760405162461bcd60e51b815260040180806020018281038252602e815260200180611957602e913960400191505060405180910390fd5b600054610100900460ff16158015611762576000805460ff1961ff0019909116610100171660011790558015611774576000805461ff001916905550565b600054610100900460ff168061183057506118306116bf565b8061183e575060005460ff16155b6118795760405162461bcd60e51b815260040180806020018281038252602e815260200180611957602e913960400191505060405180910390fd5b600054610100900460ff161580156118a4576000805460ff1961ff0019909116610100171660011790555b60006118ae6116bb565b606580546001600160a01b0319166001600160a01b038316908117909155604051919250906000907f8be0079c531659141344cd1fd0a4f28419497f9722a3daafe3b4186f6b6457e0908290a3508015611774576000805461ff00191690555056fe4f776e61626c653a206e6577206f776e657220697320746865207a65726f20616464726573734f776e61626c653a2063616c6c6572206973206e6f7420746865206f776e6572436f6e747261637420696e7374616e63652068617320616c7265616479206265656e20696e697469616c697a6564a2646970667358221220be58694c66578704a771bddb575c233b91c4463f977713a25fc3c516f6d0623864736f6c63430006020033",
  "source": "pragma solidity 0.6.2;\n\n/**\n * @title RegistryController\n * @dev Create and interact with ZNS.\n*/\n\nimport './RegistryControllerI.sol';\nimport '../Registry/Registry.sol';\nimport '../RegistryToken/RegistryToken.sol';\nimport \"../../node_modules/@openzeppelin/contracts-ethereum-package/contracts/math/SafeMath.sol\";\nimport \"../../node_modules/@openzeppelin/contracts/proxy/TransparentUpgradeableProxy.sol\";\nimport \"../../node_modules/@openzeppelin/contracts-ethereum-package/contracts/access/Ownable.sol\";\n\ncontract RegistryController is RegistryControllerI, Initializable, OwnableUpgradeSafe {\n    using SafeMath for uint256;\n\n    Registry private registryFactory;\n\n    Registry private registryProxy;\n    address public registryProxyAddress;\n\n    RegistryToken private registryToken;\n    address payable public registryTokenAddress;\n\n    uint256 public stakePrice;\n\n    /// @notice Emitted when the RegistryController is initialized.\n    event RegistryControllerInitialized(address registryProxy, RegistryToken registryTokenProxy);\n\n    /// @notice Emitted when a new Registry is created.\n    event CreatedRegistry(address registryAddress, RegistryToken registryToken);\n\n    /// @notice Emitted when a Registry's stake price is updated.\n    event StakePriceSet(uint256 newStakePrice);\n\n    /// @notice Emitted when a new entry is created in a Registry.\n    event CreatedRegistryEntry(string subdomain, string ref);\n\n    /// @notice Emitted when a new a Registry 'ref' is updated.\n    event RegistryRefSet(string newRef);\n\n    /// @notice Emitted when a new a Registry Entry 'ref' is updated.\n    event RegistryEntryRefSet(string subdomain, string newRef);\n\n    /**\n     * @notice Initializes a new RegistryController after construction.\n     * @param _registryProxy The Registry address that the RegistryConroller will manage.\n     * @param _registryTokenProxy The RegistryToken address that the RegistryController will manage.\n     */\n\n    function initialize(address _registryProxy, RegistryToken _registryTokenProxy, address _owner)\n        external\n        override\n        initializer\n    {\n        __Ownable_init();\n        transferOwnership(_owner);\n        registryProxyAddress = _registryProxy;\n        registryProxy = Registry(registryProxyAddress);\n        \n        registryTokenAddress = payable(address(_registryTokenProxy));\n        registryToken = _registryTokenProxy;\n\n        emit RegistryControllerInitialized(_registryProxy, _registryTokenProxy);\n    }\n\n    /**\n     * @notice Sets a new stake price for a Registry's RegistryToken.\n     * @param _newStakePrice The new stake price to be used by the registry.\n     */\n\n    function setStakePrice(uint256 _newStakePrice)\n        external\n        override\n        onlyOwner\n    {\n        registryToken.setStakePrice(_newStakePrice);\n        stakePrice = registryToken.stakePrice();\n\n        emit StakePriceSet(_newStakePrice);\n    }\n\n    /**\n     * @notice Creates a new entry within a Registry.\n     * @param _subdomain The subdomain that will be utilized to reference the current Registry entry.\n     * @param _ref The user-defined reference (such as an index or url) that the Registry entry will point to.\n     */\n\n    function createRegistryEntry(\n        string calldata _subdomain,\n        string calldata _ref)\n        external\n        override\n        onlyOwner\n    {\n        registryProxy.createRegistryEntry(_subdomain, _ref);\n        (bool isRegistered, ) = registryProxy.isRegistered(_subdomain);\n        assert(isRegistered==true);\n\n        string memory currentRegistrySubdomain = _subdomain;\n        string memory currentRegistryRef = registryProxy.getRegistryEntryRef(_subdomain);\n        \n        emit CreatedRegistryEntry(currentRegistrySubdomain, currentRegistryRef);\n    }\n\n    /**\n     * @notice Updates a Registry's referece value.\n     * @param _newRef The new reference value to be updated to.\n     */\n\n    function setRef(\n        string calldata _newRef)\n        external\n        override\n        onlyOwner\n    {\n        registryProxy.setRegistryRef(_newRef);        \n        string memory currentRegistryRef = registryProxy.getRef();\n\n        emit RegistryRefSet(currentRegistryRef);\n    }\n\n    /**\n     * @notice Updates a Registry entries reference value.\n     * @param _subdomain The subdomain of the Registry entry to be updated.\n     * @param _newRef The new reference value to be updated in the Registry entry.\n     */\n\n    function setRegistryEntryRef(\n        string calldata _subdomain,\n        string calldata _newRef)\n        external\n        override\n        onlyOwner\n    {\n        registryProxy.setRegistryEntryRef(_subdomain, _newRef);\n        string memory currentRegistryEntryRef = registryProxy.getRegistryEntryRef(_subdomain);\n\n        emit RegistryEntryRefSet(_subdomain, currentRegistryEntryRef);\n    }\n    \n    function getRef() override external returns (string memory) {\n        return registryProxy.getRef();\n    }\n\n    function getStakePrice() override external returns (uint256) {\n        return registryToken.stakePrice();\n    }\n\n    function getRegistryEntryRef(string calldata _subdomain) override external returns (string memory) {\n        return registryProxy.getRegistryEntryRef(_subdomain);\n    }\n}",
  "sourcePath": "/Users/neo/Code/ZNS/contracts/RegistryController/RegistryController.sol",
  "compiler": {
    "name": "solc",
    "version": "0.6.2+commit.bacdbe57.Emscripten.clang"
  },
  "schemaVersion": "3.2.3",
  "updatedAt": "2020-09-24T18:11:07.960Z",
  "networkType": "ethereum",
  "devdoc": {
    "methods": {
      "createRegistryEntry(string,string)": {
        "params": {
          "_ref": "The user-defined reference (such as an index or url) that the Registry entry will point to.",
          "_subdomain": "The subdomain that will be utilized to reference the current Registry entry."
        }
      },
      "initialize(address,address,address)": {
        "params": {
          "_registryProxy": "The Registry address that the RegistryConroller will manage.",
          "_registryTokenProxy": "The RegistryToken address that the RegistryController will manage."
        }
      },
      "owner()": {
        "details": "Returns the address of the current owner."
      },
      "renounceOwnership()": {
        "details": "Leaves the contract without owner. It will not be possible to call `onlyOwner` functions anymore. Can only be called by the current owner.     * NOTE: Renouncing ownership will leave the contract without an owner, thereby removing any functionality that is only available to the owner."
      },
      "setRef(string)": {
        "params": {
          "_newRef": "The new reference value to be updated to."
        }
      },
      "setRegistryEntryRef(string,string)": {
        "params": {
          "_newRef": "The new reference value to be updated in the Registry entry.",
          "_subdomain": "The subdomain of the Registry entry to be updated."
        }
      },
      "setStakePrice(uint256)": {
        "params": {
          "_newStakePrice": "The new stake price to be used by the registry."
        }
      },
      "transferOwnership(address)": {
        "details": "Transfers ownership of the contract to a new account (`newOwner`). Can only be called by the current owner."
      }
    }
  },
  "userdoc": {
    "methods": {
      "createRegistryEntry(string,string)": {
        "notice": "Creates a new entry within a Registry."
      },
      "initialize(address,address,address)": {
        "notice": "Initializes a new RegistryController after construction."
      },
      "setRef(string)": {
        "notice": "Updates a Registry's referece value."
      },
      "setRegistryEntryRef(string,string)": {
        "notice": "Updates a Registry entries reference value."
      },
      "setStakePrice(uint256)": {
        "notice": "Sets a new stake price for a Registry's RegistryToken."
      }
    }
  }
}