{
  "contractName": "Registry",
  "abi": [
    {
      "inputs": [
        {
          "internalType": "string",
          "name": "_registryName",
          "type": "string"
        },
        {
          "internalType": "string",
          "name": "_registryType",
          "type": "string"
        },
        {
          "internalType": "address",
          "name": "_stakeTokenAddress",
          "type": "address"
        }
      ],
      "name": "init",
      "outputs": [
        {
          "internalType": "string",
          "name": "",
          "type": "string"
        },
        {
          "internalType": "string",
          "name": "",
          "type": "string"
        }
      ],
      "stateMutability": "nonpayable",
      "type": "function"
    },
    {
      "inputs": [
        {
          "internalType": "uint256",
          "name": "_stakePrice",
          "type": "uint256"
        }
      ],
      "name": "setStakePrice",
      "outputs": [
        {
          "internalType": "uint256",
          "name": "",
          "type": "uint256"
        }
      ],
      "stateMutability": "nonpayable",
      "type": "function"
    },
    {
      "inputs": [],
      "name": "getAddress",
      "outputs": [
        {
          "internalType": "address",
          "name": "",
          "type": "address"
        }
      ],
      "stateMutability": "view",
      "type": "function"
    }
  ],
  "bytecode": "0x608060405234801561001057600080fd5b506105de806100206000396000f3fe608060405234801561001057600080fd5b50600436106100415760003560e01c8063209df0fa1461004657806338cc4831146100885780636ee5741a146100d2575b600080fd5b6100726004803603602081101561005c57600080fd5b8101908080359060200190929190505050610329565b6040518082815260200191505060405180910390f35b61009061033c565b604051808273ffffffffffffffffffffffffffffffffffffffff1673ffffffffffffffffffffffffffffffffffffffff16815260200191505060405180910390f35b610242600480360360608110156100e857600080fd5b810190808035906020019064010000000081111561010557600080fd5b82018360208201111561011757600080fd5b8035906020019184600183028401116401000000008311171561013957600080fd5b91908080601f016020809104026020016040519081016040528093929190818152602001838380828437600081840152601f19601f8201169050808301925050505050505091929192908035906020019064010000000081111561019c57600080fd5b8201836020820111156101ae57600080fd5b803590602001918460018302840111640100000000831117156101d057600080fd5b91908080601f016020809104026020016040519081016040528093929190818152602001838380828437600081840152601f19601f820116905080830192505050505050509192919290803573ffffffffffffffffffffffffffffffffffffffff169060200190929190505050610349565b604051808060200180602001838103835285818151815260200191508051906020019080838360005b8381101561028657808201518184015260208101905061026b565b50505050905090810190601f1680156102b35780820380516001836020036101000a031916815260200191505b50838103825284818151815260200191508051906020019080838360005b838110156102ec5780820151818401526020810190506102d1565b50505050905090810190601f1680156103195780820380516001836020036101000a031916815260200191505b5094505050505060405180910390f35b6000816003819055506003549050919050565b6000803090508091505090565b6060808460009080519060200190610362929190610503565b508360019080519060200190610379929190610503565b5082600260006101000a81548173ffffffffffffffffffffffffffffffffffffffff021916908373ffffffffffffffffffffffffffffffffffffffff16021790555060006001818054600181600116156101000203166002900480601f0160208091040260200160405190810160405280929190818152602001828054600181600116156101000203166002900480156104545780601f1061042957610100808354040283529160200191610454565b820191906000526020600020905b81548152906001019060200180831161043757829003601f168201915b50505050509150808054600181600116156101000203166002900480601f0160208091040260200160405190810160405280929190818152602001828054600181600116156101000203166002900480156104f05780601f106104c5576101008083540402835291602001916104f0565b820191906000526020600020905b8154815290600101906020018083116104d357829003601f168201915b5050505050905091509150935093915050565b828054600181600116156101000203166002900490600052602060002090601f016020900481019282601f1061054457805160ff1916838001178555610572565b82800160010185558215610572579182015b82811115610571578251825591602001919060010190610556565b5b50905061057f9190610583565b5090565b6105a591905b808211156105a1576000816000905550600101610589565b5090565b9056fea26469706673582212209071a07c95d38213a054476cf93e4c1dd92e17d4e480effb69ed4c71d9b57ac664736f6c63430006020033",
  "source": "pragma solidity ^0.6.0;\n\n/**\n * @title Registry\n * @dev Manage individual Registry Entries\n*/\n\ncontract Registry {\n    string registryName;\n    string registryType;\n    address stakeTokenAddress;\n    uint256 stakePrice;\n\n    function init(string memory _registryName, string memory _registryType, address _stakeTokenAddress) \n    public returns (string memory, string memory) \n    {\n        registryName = _registryName;\n        registryType = _registryType;\n        stakeTokenAddress = _stakeTokenAddress;\n        return (registryName, registryType); // necessary?\n    }\n\n    function setStakePrice(uint256 _stakePrice) \n    public returns(uint256) \n    {\n        stakePrice = _stakePrice;\n        return stakePrice;\n    } \n\n    function getAddress() \n    public view returns (address) \n    {  \n       address contractAddress = address(this);\n       return contractAddress;\n    }\n}",
  "sourcePath": "/Users/neo/Code/ZNS/contracts/Registry.sol",
  "compiler": {
    "name": "solc",
    "version": "0.6.2+commit.bacdbe57.Emscripten.clang"
  },
  "schemaVersion": "3.2.3",
  "updatedAt": "2020-08-26T08:01:00.235Z",
  "devdoc": {
    "details": "Manage individual Registry Entries",
    "methods": {},
    "title": "Registry"
  },
  "userdoc": {
    "methods": {}
  }
}