{
  "contractName": "RegistryController",
  "abi": [
    {
      "anonymous": false,
      "inputs": [
        {
          "indexed": true,
          "internalType": "address",
          "name": "previousOwner",
          "type": "address"
        },
        {
          "indexed": true,
          "internalType": "address",
          "name": "newOwner",
          "type": "address"
        }
      ],
      "name": "OwnershipTransferred",
      "type": "event"
    },
    {
      "anonymous": false,
      "inputs": [
        {
          "indexed": false,
          "internalType": "address",
          "name": "registryAddress",
          "type": "address"
        },
        {
          "indexed": false,
          "internalType": "contract RegistryToken",
          "name": "registryToken",
          "type": "address"
        }
      ],
      "name": "createdRegistry",
      "type": "event"
    },
    {
      "anonymous": false,
      "inputs": [
        {
          "indexed": false,
          "internalType": "string",
          "name": "subdomain",
          "type": "string"
        },
        {
          "indexed": false,
          "internalType": "string",
          "name": "ref",
          "type": "string"
        }
      ],
      "name": "createdRegistryEntry",
      "type": "event"
    },
    {
      "anonymous": false,
      "inputs": [
        {
          "indexed": false,
          "internalType": "address",
          "name": "registryProxy",
          "type": "address"
        },
        {
          "indexed": false,
          "internalType": "contract RegistryToken",
          "name": "registryTokenProxy",
          "type": "address"
        }
      ],
      "name": "registryControllerInitialized",
      "type": "event"
    },
    {
      "anonymous": false,
      "inputs": [
        {
          "indexed": false,
          "internalType": "string",
          "name": "subdomain",
          "type": "string"
        },
        {
          "indexed": false,
          "internalType": "string",
          "name": "newRef",
          "type": "string"
        }
      ],
      "name": "registryEntryRefSet",
      "type": "event"
    },
    {
      "anonymous": false,
      "inputs": [
        {
          "indexed": false,
          "internalType": "string",
          "name": "newRef",
          "type": "string"
        }
      ],
      "name": "registryRefSet",
      "type": "event"
    },
    {
      "anonymous": false,
      "inputs": [
        {
          "indexed": false,
          "internalType": "uint256",
          "name": "newStakePrice",
          "type": "uint256"
        }
      ],
      "name": "stakePriceSet",
      "type": "event"
    },
    {
      "inputs": [],
      "name": "owner",
      "outputs": [
        {
          "internalType": "address",
          "name": "",
          "type": "address"
        }
      ],
      "stateMutability": "view",
      "type": "function"
    },
    {
      "inputs": [],
      "name": "registryProxyAddress",
      "outputs": [
        {
          "internalType": "address",
          "name": "",
          "type": "address"
        }
      ],
      "stateMutability": "view",
      "type": "function"
    },
    {
      "inputs": [],
      "name": "registryTokenAddress",
      "outputs": [
        {
          "internalType": "address payable",
          "name": "",
          "type": "address"
        }
      ],
      "stateMutability": "view",
      "type": "function"
    },
    {
      "inputs": [],
      "name": "renounceOwnership",
      "outputs": [],
      "stateMutability": "nonpayable",
      "type": "function"
    },
    {
      "inputs": [],
      "name": "stakePrice",
      "outputs": [
        {
          "internalType": "uint256",
          "name": "",
          "type": "uint256"
        }
      ],
      "stateMutability": "view",
      "type": "function"
    },
    {
      "inputs": [
        {
          "internalType": "address",
          "name": "newOwner",
          "type": "address"
        }
      ],
      "name": "transferOwnership",
      "outputs": [],
      "stateMutability": "nonpayable",
      "type": "function"
    },
    {
      "inputs": [
        {
          "internalType": "address",
          "name": "_registryProxy",
          "type": "address"
        },
        {
          "internalType": "contract RegistryToken",
          "name": "_registryTokenProxy",
          "type": "address"
        }
      ],
      "name": "initialize",
      "outputs": [],
      "stateMutability": "nonpayable",
      "type": "function"
    },
    {
      "inputs": [
        {
          "internalType": "uint256",
          "name": "_newStakePrice",
          "type": "uint256"
        }
      ],
      "name": "setStakePrice",
      "outputs": [],
      "stateMutability": "nonpayable",
      "type": "function"
    },
    {
      "inputs": [
        {
          "internalType": "string",
          "name": "_subdomain",
          "type": "string"
        },
        {
          "internalType": "string",
          "name": "_ref",
          "type": "string"
        }
      ],
      "name": "createRegistryEntry",
      "outputs": [],
      "stateMutability": "nonpayable",
      "type": "function"
    },
    {
      "inputs": [
        {
          "internalType": "string",
          "name": "_newRef",
          "type": "string"
        }
      ],
      "name": "setRef",
      "outputs": [],
      "stateMutability": "nonpayable",
      "type": "function"
    },
    {
      "inputs": [
        {
          "internalType": "string",
          "name": "_subdomain",
          "type": "string"
        },
        {
          "internalType": "string",
          "name": "_newRef",
          "type": "string"
        }
      ],
      "name": "setRegistryEntryRef",
      "outputs": [],
      "stateMutability": "nonpayable",
      "type": "function"
    },
    {
      "inputs": [],
      "name": "getRef",
      "outputs": [
        {
          "internalType": "string",
          "name": "",
          "type": "string"
        }
      ],
      "stateMutability": "nonpayable",
      "type": "function"
    },
    {
      "inputs": [],
      "name": "getStakePrice",
      "outputs": [
        {
          "internalType": "uint256",
          "name": "",
          "type": "uint256"
        }
      ],
      "stateMutability": "nonpayable",
      "type": "function"
    },
    {
      "inputs": [
        {
          "internalType": "string",
          "name": "_subdomain",
          "type": "string"
        }
      ],
      "name": "getRegistryEntryRef",
      "outputs": [
        {
          "internalType": "string",
          "name": "",
          "type": "string"
        }
      ],
      "stateMutability": "nonpayable",
      "type": "function"
    }
  ],
  "bytecode": "0x608060405234801561001057600080fd5b50611763806100206000396000f3fe608060405234801561001057600080fd5b50600436106100ea5760003560e01c8063485cc9551161008c5780638da5cb5b116100665780638da5cb5b146103f1578063a023cf69146103f9578063c73e835c14610401578063f2fde38b1461046f576100ea565b8063485cc955146103a15780635b999a38146103cf578063715018a6146103e9576100ea565b80631692f21f116100c85780631692f21f146102b65780631d6d32ba146103745780631d8e2f581461037c578063209df0fa14610384576100ea565b80630cc78476146100ef578063149adf5814610113578063164f25bf146101f6575b600080fd5b6100f7610495565b604080516001600160a01b039092168252519081900360200190f35b6101816004803603602081101561012957600080fd5b810190602081018135600160201b81111561014357600080fd5b82018360208201111561015557600080fd5b803590602001918460018302840111600160201b8311171561017657600080fd5b5090925090506104a4565b6040805160208082528351818301528351919283929083019185019080838360005b838110156101bb5781810151838201526020016101a3565b50505050905090810190601f1680156101e85780820380516001836020036101000a031916815260200191505b509250505060405180910390f35b6102b46004803603604081101561020c57600080fd5b810190602081018135600160201b81111561022657600080fd5b82018360208201111561023857600080fd5b803590602001918460018302840111600160201b8311171561025957600080fd5b919390929091602081019035600160201b81111561027657600080fd5b82018360208201111561028857600080fd5b803590602001918460018302840111600160201b831117156102a957600080fd5b50909250905061060e565b005b6102b4600480360360408110156102cc57600080fd5b810190602081018135600160201b8111156102e657600080fd5b8201836020820111156102f857600080fd5b803590602001918460018302840111600160201b8311171561031957600080fd5b919390929091602081019035600160201b81111561033657600080fd5b82018360208201111561034857600080fd5b803590602001918460018302840111600160201b8311171561036957600080fd5b509092509050610a27565b610181610d1d565b6100f7610e52565b6102b46004803603602081101561039a57600080fd5b5035610e61565b6102b4600480360360408110156103b757600080fd5b506001600160a01b0381358116916020013516610fef565b6103d7611121565b60408051918252519081900360200190f35b6102b4611197565b6100f761124b565b6103d761125a565b6102b46004803603602081101561041757600080fd5b810190602081018135600160201b81111561043157600080fd5b82018360208201111561044357600080fd5b803590602001918460018302840111600160201b8311171561046457600080fd5b509092509050611260565b6102b46004803603602081101561048557600080fd5b50356001600160a01b03166114ca565b6099546001600160a01b031681565b6098546040516302935beb60e31b8152602060048201908152602482018490526060926001600160a01b03169163149adf589186918691908190604401848480828437600081840152601f19601f820116905080830192505050935050505060006040518083038186803b15801561051b57600080fd5b505afa15801561052f573d6000803e3d6000fd5b505050506040513d6000823e601f3d908101601f19168201604052602081101561055857600080fd5b8101908080516040519392919084600160201b82111561057757600080fd5b90830190602082018581111561058c57600080fd5b8251600160201b8111828201881017156105a557600080fd5b82525081516020918201929091019080838360005b838110156105d25781810151838201526020016105ba565b50505050905090810190601f1680156105ff5780820380516001836020036101000a031916815260200191505b50604052505050905092915050565b6098546040805163164f25bf60e01b815260048101918252604481018690526001600160a01b039092169163164f25bf9187918791879187919081906024810190606401878780828437600083820152601f01601f191690910184810383528581526020019050858580828437600081840152601f19601f8201169050808301925050509650505050505050600060405180830381600087803b1580156106b457600080fd5b505af11580156106c8573d6000803e3d6000fd5b5050609854604051630c822d7f60e41b815260206004820190815260248201889052600094506001600160a01b03909216925063c822d7f0918891889190819060440184848082843760008382015260408051601f909201601f1916909301965091945090925050508083038186803b15801561074457600080fd5b505afa158015610758573d6000803e3d6000fd5b505050506040513d604081101561076e57600080fd5b5051905060018115151461077e57fe5b606085858080601f016020809104026020016040519081016040528093929190818152602001838380828437600092019190915250506098546040516302935beb60e31b8152602060048201908152602482018b90529495506060946001600160a01b03909216935063149adf5892508a918a918190604401848480828437600081840152601f19601f820116905080830192505050935050505060006040518083038186803b15801561083157600080fd5b505afa158015610845573d6000803e3d6000fd5b505050506040513d6000823e601f3d908101601f19168201604052602081101561086e57600080fd5b8101908080516040519392919084600160201b82111561088d57600080fd5b9083019060208201858111156108a257600080fd5b8251600160201b8111828201881017156108bb57600080fd5b82525081516020918201929091019080838360005b838110156108e85781810151838201526020016108d0565b50505050905090810190601f1680156109155780820380516001836020036101000a031916815260200191505b5060405250505090507f3fdde72950e6d9c53073a94114bea65c19a2076d1d4ff9390a70519dcbff22dd8282604051808060200180602001838103835285818151815260200191508051906020019080838360005b8381101561098257818101518382015260200161096a565b50505050905090810190601f1680156109af5780820380516001836020036101000a031916815260200191505b50838103825284518152845160209182019186019080838360005b838110156109e25781810151838201526020016109ca565b50505050905090810190601f168015610a0f5780820380516001836020036101000a031916815260200191505b5094505050505060405180910390a150505050505050565b60985460408051631692f21f60e01b815260048101918252604481018690526001600160a01b0390921691631692f21f9187918791879187919081906024810190606401878780828437600083820152601f01601f191690910184810383528581526020019050858580828437600081840152601f19601f8201169050808301925050509650505050505050600060405180830381600087803b158015610acd57600080fd5b505af1158015610ae1573d6000803e3d6000fd5b50506098546040516302935beb60e31b815260206004820190815260248201889052606094506001600160a01b03909216925063149adf589188918891908190604401848480828437600081840152601f19601f820116905080830192505050935050505060006040518083038186803b158015610b5e57600080fd5b505afa158015610b72573d6000803e3d6000fd5b505050506040513d6000823e601f3d908101601f191682016040526020811015610b9b57600080fd5b8101908080516040519392919084600160201b821115610bba57600080fd5b908301906020820185811115610bcf57600080fd5b8251600160201b811182820188101715610be857600080fd5b82525081516020918201929091019080838360005b83811015610c15578181015183820152602001610bfd565b50505050905090810190601f168015610c425780820380516001836020036101000a031916815260200191505b5060405250505090507f031e185f158a37b9e948528f98430fe8a62eec8309644711b009aa0bfae965c185858360405180806020018060200183810383528686828181526020019250808284376000838201819052601f909101601f191690920185810384528651815286516020918201939188019250908190849084905b83811015610cd9578181015183820152602001610cc1565b50505050905090810190601f168015610d065780820380516001836020036101000a031916815260200191505b509550505050505060405180910390a15050505050565b60985460408051630eb6995d60e11b815290516060926001600160a01b031691631d6d32ba916004808301926000929190829003018186803b158015610d6257600080fd5b505afa158015610d76573d6000803e3d6000fd5b505050506040513d6000823e601f3d908101601f191682016040526020811015610d9f57600080fd5b8101908080516040519392919084600160201b821115610dbe57600080fd5b908301906020820185811115610dd357600080fd5b8251600160201b811182820188101715610dec57600080fd5b82525081516020918201929091019080838360005b83811015610e19578181015183820152602001610e01565b50505050905090810190601f168015610e465780820380516001836020036101000a031916815260200191505b50604052505050905090565b609b546001600160a01b031681565b610e696115d5565b6065546001600160a01b03908116911614610ecb576040805162461bcd60e51b815260206004820181905260248201527f4f776e61626c653a2063616c6c6572206973206e6f7420746865206f776e6572604482015290519081900360640190fd5b609a546040805163104ef87d60e11b81526004810184905290516001600160a01b039092169163209df0fa916024808201926020929091908290030181600087803b158015610f1957600080fd5b505af1158015610f2d573d6000803e3d6000fd5b505050506040513d6020811015610f4357600080fd5b5050609a546040805163a023cf6960e01b815290516001600160a01b039092169163a023cf6991600480820192602092909190829003018186803b158015610f8a57600080fd5b505afa158015610f9e573d6000803e3d6000fd5b505050506040513d6020811015610fb457600080fd5b5051609c556040805182815290517f5443a9b3a4f844af7ea1bbffa88c16f6f6c35f174ae032da718b6285c6be869c9181900360200190a150565b600054610100900460ff168061100857506110086115d9565b80611016575060005460ff16155b6110515760405162461bcd60e51b815260040180806020018281038252602e815260200180611700602e913960400191505060405180910390fd5b600054610100900460ff1615801561107c576000805460ff1961ff0019909116610100171660011790555b6110846115df565b609980546001600160a01b038086166001600160a01b031992831681179384905560988054841694831694909417909355609b805491861691831682179055609a8054909216811790915560408051928352602083019190915280517f81bc37599d8daaee75b12342129cc1b062c2f8aa7e7ac6958fba02c558b859899281900390910190a1801561111c576000805461ff00191690555b505050565b609a546040805163a023cf6960e01b815290516000926001600160a01b03169163a023cf69916004808301926020929190829003018186803b15801561116657600080fd5b505afa15801561117a573d6000803e3d6000fd5b505050506040513d602081101561119057600080fd5b5051905090565b61119f6115d5565b6065546001600160a01b03908116911614611201576040805162461bcd60e51b815260206004820181905260248201527f4f776e61626c653a2063616c6c6572206973206e6f7420746865206f776e6572604482015290519081900360640190fd5b6065546040516000916001600160a01b0316907f8be0079c531659141344cd1fd0a4f28419497f9722a3daafe3b4186f6b6457e0908390a3606580546001600160a01b0319169055565b6065546001600160a01b031690565b609c5481565b609854604051633ecf991160e21b8152602060048201908152602482018490526001600160a01b039092169163fb3e644491859185918190604401848480828437600081840152601f19601f8201169050808301925050509350505050600060405180830381600087803b1580156112d757600080fd5b505af11580156112eb573d6000803e3d6000fd5b505050506060609860009054906101000a90046001600160a01b03166001600160a01b0316631d6d32ba6040518163ffffffff1660e01b815260040160006040518083038186803b15801561133f57600080fd5b505afa158015611353573d6000803e3d6000fd5b505050506040513d6000823e601f3d908101601f19168201604052602081101561137c57600080fd5b8101908080516040519392919084600160201b82111561139b57600080fd5b9083019060208201858111156113b057600080fd5b8251600160201b8111828201881017156113c957600080fd5b82525081516020918201929091019080838360005b838110156113f65781810151838201526020016113de565b50505050905090810190601f1680156114235780820380516001836020036101000a031916815260200191505b5060405250505090507f365ad25db963c5dbd43d3f4aa610e4a9ffd3bb23dae3841d9dbad208c212bee1816040518080602001828103825283818151815260200191508051906020019080838360005b8381101561148b578181015183820152602001611473565b50505050905090810190601f1680156114b85780820380516001836020036101000a031916815260200191505b509250505060405180910390a1505050565b6114d26115d5565b6065546001600160a01b03908116911614611534576040805162461bcd60e51b815260206004820181905260248201527f4f776e61626c653a2063616c6c6572206973206e6f7420746865206f776e6572604482015290519081900360640190fd5b6001600160a01b0381166115795760405162461bcd60e51b81526004018080602001828103825260268152602001806116da6026913960400191505060405180910390fd5b6065546040516001600160a01b038084169216907f8be0079c531659141344cd1fd0a4f28419497f9722a3daafe3b4186f6b6457e090600090a3606580546001600160a01b0319166001600160a01b0392909216919091179055565b3390565b303b1590565b600054610100900460ff16806115f857506115f86115d9565b80611606575060005460ff16155b6116415760405162461bcd60e51b815260040180806020018281038252602e815260200180611700602e913960400191505060405180910390fd5b600054610100900460ff1615801561166c576000805460ff1961ff0019909116610100171660011790555b60006116766115d5565b606580546001600160a01b0319166001600160a01b038316908117909155604051919250906000907f8be0079c531659141344cd1fd0a4f28419497f9722a3daafe3b4186f6b6457e0908290a35080156116d6576000805461ff00191690555b5056fe4f776e61626c653a206e6577206f776e657220697320746865207a65726f2061646472657373436f6e747261637420696e7374616e63652068617320616c7265616479206265656e20696e697469616c697a6564a2646970667358221220ad02c189d78ddbf88b86a08fabec42819a71481b84e36ceac83689ee6ace8b3064736f6c63430006020033",
  "source": "pragma solidity 0.6.2;\n\n/**\n * @title RegistryController\n * @dev Create and interact with ZNS.\n*/\n\nimport './RegistryControllerI.sol';\nimport '../Registry/Registry.sol';\nimport '../RegistryToken/RegistryToken.sol';\nimport \"../../node_modules/@openzeppelin/contracts-ethereum-package/contracts/math/SafeMath.sol\";\nimport \"../../node_modules/@openzeppelin/contracts/proxy/TransparentUpgradeableProxy.sol\";\nimport \"../../node_modules/@openzeppelin/contracts-ethereum-package/contracts/access/Ownable.sol\";\n\ncontract RegistryController is RegistryControllerI, Initializable, OwnableUpgradeSafe {\n    using SafeMath for uint256;\n\n    Registry registryFactory;\n\n    Registry registryProxy;\n    address public registryProxyAddress;\n\n    RegistryToken registryToken;\n    address payable public registryTokenAddress;\n\n    uint256 public stakePrice;\n\n    /// @notice Emitted when the RegistryController is initialized.\n    event registryControllerInitialized(address registryProxy, RegistryToken registryTokenProxy);\n\n    /// @notice Emitted when a new Registry is created.\n    event createdRegistry(address registryAddress, RegistryToken registryToken);\n\n    /// @notice Emitted when a Registry's stake price is updated.\n    event stakePriceSet(uint256 newStakePrice);\n\n    /// @notice Emitted when a new entry is created in a Registry.\n    event createdRegistryEntry(string subdomain, string ref);\n\n    /// @notice Emitted when a new a Registry 'ref' is updated.\n    event registryRefSet(string newRef);\n\n    /// @notice Emitted when a new a Registry Entry 'ref' is updated.\n    event registryEntryRefSet(string subdomain, string newRef);\n\n    /**\n     * @notice Initializes a new RegistryController after construction.\n     * @param _registryProxy The Registry address that the RegistryConroller will manage.\n     * @param _registryTokenProxy The RegistryToken address that the RegistryController will manage.\n     */\n\n    function initialize(address _registryProxy, RegistryToken _registryTokenProxy)\n        external\n        override\n        initializer\n    {\n        __Ownable_init_unchained();\n        registryProxyAddress = _registryProxy;\n        registryProxy = Registry(registryProxyAddress);\n        \n        registryTokenAddress = payable(address(_registryTokenProxy));\n        registryToken = _registryTokenProxy;\n\n        emit registryControllerInitialized(_registryProxy, _registryTokenProxy);\n    }\n\n    /**\n     * @notice Sets a new stake price for a Registry's RegistryToken.\n     * @param _newStakePrice The new stake price to be used by the registry.\n     */\n\n    function setStakePrice(uint256 _newStakePrice)\n        external\n        override\n        onlyOwner\n    {\n        registryToken.setStakePrice(_newStakePrice);\n        stakePrice = registryToken.stakePrice();\n\n        emit stakePriceSet(_newStakePrice);\n    }\n\n    /**\n     * @notice Creates a new entry within a Registry.\n     * @param _subdomain The subdomain that will be utilized to reference the current Registry entry.\n     * @param _ref The user-defined reference (such as an index or url) that the Registry entry will point to.\n     */\n\n    function createRegistryEntry(\n        string calldata _subdomain,\n        string calldata _ref)\n        external\n        override\n    {\n        registryProxy.createRegistryEntry(_subdomain, _ref);\n        (bool isRegistered, ) = registryProxy.isRegistered(_subdomain);\n        assert(isRegistered==true);\n\n        string memory currentRegistrySubdomain = _subdomain;\n        string memory currentRegistryRef = registryProxy.getRegistryEntryRef(_subdomain);\n        \n        emit createdRegistryEntry(currentRegistrySubdomain, currentRegistryRef);\n    }\n\n    /**\n     * @notice Updates a Registry's referece value.\n     * @param _newRef The new reference value to be updated to.\n     */\n\n    function setRef(\n        string calldata _newRef)\n        external\n        override\n    {\n        registryProxy.setRegistryRef(_newRef);        \n        string memory currentRegistryRef = registryProxy.getRef();\n\n        emit registryRefSet(currentRegistryRef);\n    }\n\n    /**\n     * @notice Updates a Registry entries reference value.\n     * @param _subdomain The subdomain of the Registry entry to be updated.\n     * @param _newRef The new reference value to be updated in the Registry entry.\n     */\n\n    function setRegistryEntryRef(\n        string calldata _subdomain,\n        string calldata _newRef)\n        external\n        override\n    {\n        registryProxy.setRegistryEntryRef(_subdomain, _newRef);\n        string memory currentRegistryEntryRef = registryProxy.getRegistryEntryRef(_subdomain);\n\n        emit registryEntryRefSet(_subdomain, currentRegistryEntryRef);\n    }\n    \n    function getRef() override external returns (string memory) {\n        return registryProxy.getRef();\n    }\n\n    function getStakePrice() override external returns (uint256) {\n        return registryToken.stakePrice();\n    }\n\n    function getRegistryEntryRef(string calldata _subdomain) override external returns (string memory) {\n        return registryProxy.getRegistryEntryRef(_subdomain);\n    }\n}",
  "sourcePath": "/Users/neo/Code/ZNS/contracts/RegistryController/RegistryController.sol",
  "compiler": {
    "name": "solc",
    "version": "0.6.2+commit.bacdbe57.Emscripten.clang"
  },
  "schemaVersion": "3.2.3",
  "updatedAt": "2020-09-23T00:24:37.995Z",
  "devdoc": {
    "methods": {
      "createRegistryEntry(string,string)": {
        "params": {
          "_ref": "The user-defined reference (such as an index or url) that the Registry entry will point to.",
          "_subdomain": "The subdomain that will be utilized to reference the current Registry entry."
        }
      },
      "initialize(address,address)": {
        "params": {
          "_registryProxy": "The Registry address that the RegistryConroller will manage.",
          "_registryTokenProxy": "The RegistryToken address that the RegistryController will manage."
        }
      },
      "owner()": {
        "details": "Returns the address of the current owner."
      },
      "renounceOwnership()": {
        "details": "Leaves the contract without owner. It will not be possible to call `onlyOwner` functions anymore. Can only be called by the current owner.     * NOTE: Renouncing ownership will leave the contract without an owner, thereby removing any functionality that is only available to the owner."
      },
      "setRef(string)": {
        "params": {
          "_newRef": "The new reference value to be updated to."
        }
      },
      "setRegistryEntryRef(string,string)": {
        "params": {
          "_newRef": "The new reference value to be updated in the Registry entry.",
          "_subdomain": "The subdomain of the Registry entry to be updated."
        }
      },
      "setStakePrice(uint256)": {
        "params": {
          "_newStakePrice": "The new stake price to be used by the registry."
        }
      },
      "transferOwnership(address)": {
        "details": "Transfers ownership of the contract to a new account (`newOwner`). Can only be called by the current owner."
      }
    }
  },
  "userdoc": {
    "methods": {
      "createRegistryEntry(string,string)": {
        "notice": "Creates a new entry within a Registry."
      },
      "initialize(address,address)": {
        "notice": "Initializes a new RegistryController after construction."
      },
      "setRef(string)": {
        "notice": "Updates a Registry's referece value."
      },
      "setRegistryEntryRef(string,string)": {
        "notice": "Updates a Registry entries reference value."
      },
      "setStakePrice(uint256)": {
        "notice": "Sets a new stake price for a Registry's RegistryToken."
      }
    }
  }
}