{
  "contractName": "RegistryController",
  "abi": [
    {
      "anonymous": false,
      "inputs": [
        {
          "indexed": true,
          "internalType": "address",
          "name": "previousOwner",
          "type": "address"
        },
        {
          "indexed": true,
          "internalType": "address",
          "name": "newOwner",
          "type": "address"
        }
      ],
      "name": "OwnershipTransferred",
      "type": "event"
    },
    {
      "anonymous": false,
      "inputs": [
        {
          "indexed": false,
          "internalType": "address",
          "name": "registryAddress",
          "type": "address"
        },
        {
          "indexed": false,
          "internalType": "contract RegistryToken",
          "name": "registryToken",
          "type": "address"
        }
      ],
      "name": "createdRegistry",
      "type": "event"
    },
    {
      "anonymous": false,
      "inputs": [
        {
          "indexed": false,
          "internalType": "string",
          "name": "subdomain",
          "type": "string"
        },
        {
          "indexed": false,
          "internalType": "string",
          "name": "ref",
          "type": "string"
        }
      ],
      "name": "createdRegistryEntry",
      "type": "event"
    },
    {
      "anonymous": false,
      "inputs": [
        {
          "indexed": false,
          "internalType": "address",
          "name": "registryProxy",
          "type": "address"
        },
        {
          "indexed": false,
          "internalType": "contract RegistryToken",
          "name": "registryTokenProxy",
          "type": "address"
        }
      ],
      "name": "registryControllerInitialized",
      "type": "event"
    },
    {
      "anonymous": false,
      "inputs": [
        {
          "indexed": false,
          "internalType": "string",
          "name": "subdomain",
          "type": "string"
        },
        {
          "indexed": false,
          "internalType": "string",
          "name": "newRef",
          "type": "string"
        }
      ],
      "name": "registryEntryRefSet",
      "type": "event"
    },
    {
      "anonymous": false,
      "inputs": [
        {
          "indexed": false,
          "internalType": "string",
          "name": "newRef",
          "type": "string"
        }
      ],
      "name": "registryRefSet",
      "type": "event"
    },
    {
      "anonymous": false,
      "inputs": [
        {
          "indexed": false,
          "internalType": "uint256",
          "name": "newStakePrice",
          "type": "uint256"
        }
      ],
      "name": "stakePriceSet",
      "type": "event"
    },
    {
      "inputs": [],
      "name": "owner",
      "outputs": [
        {
          "internalType": "address",
          "name": "",
          "type": "address"
        }
      ],
      "stateMutability": "view",
      "type": "function",
      "constant": true
    },
    {
      "inputs": [],
      "name": "registryProxyAddress",
      "outputs": [
        {
          "internalType": "address",
          "name": "",
          "type": "address"
        }
      ],
      "stateMutability": "view",
      "type": "function",
      "constant": true
    },
    {
      "inputs": [],
      "name": "registryTokenAddress",
      "outputs": [
        {
          "internalType": "address payable",
          "name": "",
          "type": "address"
        }
      ],
      "stateMutability": "view",
      "type": "function",
      "constant": true
    },
    {
      "inputs": [],
      "name": "renounceOwnership",
      "outputs": [],
      "stateMutability": "nonpayable",
      "type": "function"
    },
    {
      "inputs": [],
      "name": "stakePrice",
      "outputs": [
        {
          "internalType": "uint256",
          "name": "",
          "type": "uint256"
        }
      ],
      "stateMutability": "view",
      "type": "function",
      "constant": true
    },
    {
      "inputs": [
        {
          "internalType": "address",
          "name": "newOwner",
          "type": "address"
        }
      ],
      "name": "transferOwnership",
      "outputs": [],
      "stateMutability": "nonpayable",
      "type": "function"
    },
    {
      "inputs": [
        {
          "internalType": "address",
          "name": "_registryProxy",
          "type": "address"
        },
        {
          "internalType": "contract RegistryToken",
          "name": "_registryTokenProxy",
          "type": "address"
        },
        {
          "internalType": "address",
          "name": "_owner",
          "type": "address"
        }
      ],
      "name": "initialize",
      "outputs": [],
      "stateMutability": "nonpayable",
      "type": "function"
    },
    {
      "inputs": [
        {
          "internalType": "uint256",
          "name": "_newStakePrice",
          "type": "uint256"
        }
      ],
      "name": "setStakePrice",
      "outputs": [],
      "stateMutability": "nonpayable",
      "type": "function"
    },
    {
      "inputs": [
        {
          "internalType": "string",
          "name": "_subdomain",
          "type": "string"
        },
        {
          "internalType": "string",
          "name": "_ref",
          "type": "string"
        }
      ],
      "name": "createRegistryEntry",
      "outputs": [],
      "stateMutability": "nonpayable",
      "type": "function"
    },
    {
      "inputs": [
        {
          "internalType": "string",
          "name": "_newRef",
          "type": "string"
        }
      ],
      "name": "setRef",
      "outputs": [],
      "stateMutability": "nonpayable",
      "type": "function"
    },
    {
      "inputs": [
        {
          "internalType": "string",
          "name": "_subdomain",
          "type": "string"
        },
        {
          "internalType": "string",
          "name": "_newRef",
          "type": "string"
        }
      ],
      "name": "setRegistryEntryRef",
      "outputs": [],
      "stateMutability": "nonpayable",
      "type": "function"
    },
    {
      "inputs": [],
      "name": "getRef",
      "outputs": [
        {
          "internalType": "string",
          "name": "",
          "type": "string"
        }
      ],
      "stateMutability": "nonpayable",
      "type": "function"
    },
    {
      "inputs": [],
      "name": "getStakePrice",
      "outputs": [
        {
          "internalType": "uint256",
          "name": "",
          "type": "uint256"
        }
      ],
      "stateMutability": "nonpayable",
      "type": "function"
    },
    {
      "inputs": [
        {
          "internalType": "string",
          "name": "_subdomain",
          "type": "string"
        }
      ],
      "name": "getRegistryEntryRef",
      "outputs": [
        {
          "internalType": "string",
          "name": "",
          "type": "string"
        }
      ],
      "stateMutability": "nonpayable",
      "type": "function"
    },
    {
      "inputs": [
        {
          "internalType": "address payable",
          "name": "_transparentProxyAddress",
          "type": "address"
        }
      ],
      "name": "getTransparentProxyAdmin",
      "outputs": [
        {
          "internalType": "address",
          "name": "",
          "type": "address"
        }
      ],
      "stateMutability": "nonpayable",
      "type": "function"
    },
    {
      "inputs": [
        {
          "internalType": "address payable",
          "name": "_transparentProxyAddress",
          "type": "address"
        }
      ],
      "name": "getProxyImplementation",
      "outputs": [
        {
          "internalType": "address",
          "name": "",
          "type": "address"
        }
      ],
      "stateMutability": "nonpayable",
      "type": "function"
    },
    {
      "inputs": [
        {
          "internalType": "address payable",
          "name": "_transparentProxyAddress",
          "type": "address"
        },
        {
          "internalType": "address payable",
          "name": "_transparentProxyUpgradeAddress",
          "type": "address"
        }
      ],
      "name": "upgradeTransparentProxy",
      "outputs": [],
      "stateMutability": "nonpayable",
      "type": "function"
    }
  ],
  "bytecode": "0x608060405234801561001057600080fd5b50611b1a806100206000396000f3fe608060405234801561001057600080fd5b506004361061010b5760003560e01c80634c2ae66d116100a2578063a023cf6911610071578063a023cf6914610438578063c0c53b8b14610440578063c73e835c14610478578063f2fde38b146104e6578063fc683a091461050c5761010b565b80634c2ae66d146103e85780635b999a381461040e578063715018a6146104285780638da5cb5b146104305761010b565b80631d6d32ba116100de5780631d6d32ba146103955780631d8e2f581461039d578063204e1c7a146103a5578063209df0fa146103cb5761010b565b80630cc7847614610110578063149adf5814610134578063164f25bf146102175780631692f21f146102d7575b600080fd5b61011861053a565b604080516001600160a01b039092168252519081900360200190f35b6101a26004803603602081101561014a57600080fd5b810190602081018135600160201b81111561016457600080fd5b82018360208201111561017657600080fd5b803590602001918460018302840111600160201b8311171561019757600080fd5b509092509050610549565b6040805160208082528351818301528351919283929083019185019080838360005b838110156101dc5781810151838201526020016101c4565b50505050905090810190601f1680156102095780820380516001836020036101000a031916815260200191505b509250505060405180910390f35b6102d56004803603604081101561022d57600080fd5b810190602081018135600160201b81111561024757600080fd5b82018360208201111561025957600080fd5b803590602001918460018302840111600160201b8311171561027a57600080fd5b919390929091602081019035600160201b81111561029757600080fd5b8201836020820111156102a957600080fd5b803590602001918460018302840111600160201b831117156102ca57600080fd5b5090925090506106b3565b005b6102d5600480360360408110156102ed57600080fd5b810190602081018135600160201b81111561030757600080fd5b82018360208201111561031957600080fd5b803590602001918460018302840111600160201b8311171561033a57600080fd5b919390929091602081019035600160201b81111561035757600080fd5b82018360208201111561036957600080fd5b803590602001918460018302840111600160201b8311171561038a57600080fd5b509092509050610b24565b6101a2610e72565b610118610fa7565b610118600480360360208110156103bb57600080fd5b50356001600160a01b0316610fb6565b6102d5600480360360208110156103e157600080fd5b503561102a565b610118600480360360208110156103fe57600080fd5b50356001600160a01b03166111a6565b6104166111e7565b60408051918252519081900360200190f35b6102d561125d565b6101186112ff565b61041661130e565b6102d56004803603606081101561045657600080fd5b506001600160a01b038135811691602081013582169160409091013516611314565b6102d56004803603602081101561048e57600080fd5b810190602081018135600160201b8111156104a857600080fd5b8201836020820111156104ba57600080fd5b803590602001918460018302840111600160201b831117156104db57600080fd5b509092509050611450565b6102d5600480360360208110156104fc57600080fd5b50356001600160a01b03166116ba565b6102d56004803603604081101561052257600080fd5b506001600160a01b03813581169160200135166117b3565b6099546001600160a01b031681565b6098546040516302935beb60e31b8152602060048201908152602482018490526060926001600160a01b03169163149adf589186918691908190604401848480828437600081840152601f19601f820116905080830192505050935050505060006040518083038186803b1580156105c057600080fd5b505afa1580156105d4573d6000803e3d6000fd5b505050506040513d6000823e601f3d908101601f1916820160405260208110156105fd57600080fd5b8101908080516040519392919084600160201b82111561061c57600080fd5b90830190602082018581111561063157600080fd5b8251600160201b81118282018810171561064a57600080fd5b82525081516020918201929091019080838360005b8381101561067757818101518382015260200161065f565b50505050905090810190601f1680156106a45780820380516001836020036101000a031916815260200191505b50604052505050905092915050565b6106bb61181b565b6065546001600160a01b0390811691161461070b576040805162461bcd60e51b81526020600482018190526024820152600080516020611a97833981519152604482015290519081900360640190fd5b6098546040805163164f25bf60e01b815260048101918252604481018690526001600160a01b039092169163164f25bf9187918791879187919081906024810190606401878780828437600083820152601f01601f191690910184810383528581526020019050858580828437600081840152601f19601f8201169050808301925050509650505050505050600060405180830381600087803b1580156107b157600080fd5b505af11580156107c5573d6000803e3d6000fd5b5050609854604051630c822d7f60e41b815260206004820190815260248201889052600094506001600160a01b03909216925063c822d7f0918891889190819060440184848082843760008382015260408051601f909201601f1916909301965091945090925050508083038186803b15801561084157600080fd5b505afa158015610855573d6000803e3d6000fd5b505050506040513d604081101561086b57600080fd5b5051905060018115151461087b57fe5b606085858080601f016020809104026020016040519081016040528093929190818152602001838380828437600092019190915250506098546040516302935beb60e31b8152602060048201908152602482018b90529495506060946001600160a01b03909216935063149adf5892508a918a918190604401848480828437600081840152601f19601f820116905080830192505050935050505060006040518083038186803b15801561092e57600080fd5b505afa158015610942573d6000803e3d6000fd5b505050506040513d6000823e601f3d908101601f19168201604052602081101561096b57600080fd5b8101908080516040519392919084600160201b82111561098a57600080fd5b90830190602082018581111561099f57600080fd5b8251600160201b8111828201881017156109b857600080fd5b82525081516020918201929091019080838360005b838110156109e55781810151838201526020016109cd565b50505050905090810190601f168015610a125780820380516001836020036101000a031916815260200191505b5060405250505090507f3fdde72950e6d9c53073a94114bea65c19a2076d1d4ff9390a70519dcbff22dd8282604051808060200180602001838103835285818151815260200191508051906020019080838360005b83811015610a7f578181015183820152602001610a67565b50505050905090810190601f168015610aac5780820380516001836020036101000a031916815260200191505b50838103825284518152845160209182019186019080838360005b83811015610adf578181015183820152602001610ac7565b50505050905090810190601f168015610b0c5780820380516001836020036101000a031916815260200191505b5094505050505060405180910390a150505050505050565b610b2c61181b565b6065546001600160a01b03908116911614610b7c576040805162461bcd60e51b81526020600482018190526024820152600080516020611a97833981519152604482015290519081900360640190fd5b60985460408051631692f21f60e01b815260048101918252604481018690526001600160a01b0390921691631692f21f9187918791879187919081906024810190606401878780828437600083820152601f01601f191690910184810383528581526020019050858580828437600081840152601f19601f8201169050808301925050509650505050505050600060405180830381600087803b158015610c2257600080fd5b505af1158015610c36573d6000803e3d6000fd5b50506098546040516302935beb60e31b815260206004820190815260248201889052606094506001600160a01b03909216925063149adf589188918891908190604401848480828437600081840152601f19601f820116905080830192505050935050505060006040518083038186803b158015610cb357600080fd5b505afa158015610cc7573d6000803e3d6000fd5b505050506040513d6000823e601f3d908101601f191682016040526020811015610cf057600080fd5b8101908080516040519392919084600160201b821115610d0f57600080fd5b908301906020820185811115610d2457600080fd5b8251600160201b811182820188101715610d3d57600080fd5b82525081516020918201929091019080838360005b83811015610d6a578181015183820152602001610d52565b50505050905090810190601f168015610d975780820380516001836020036101000a031916815260200191505b5060405250505090507f031e185f158a37b9e948528f98430fe8a62eec8309644711b009aa0bfae965c185858360405180806020018060200183810383528686828181526020019250808284376000838201819052601f909101601f191690920185810384528651815286516020918201939188019250908190849084905b83811015610e2e578181015183820152602001610e16565b50505050905090810190601f168015610e5b5780820380516001836020036101000a031916815260200191505b509550505050505060405180910390a15050505050565b60985460408051630eb6995d60e11b815290516060926001600160a01b031691631d6d32ba916004808301926000929190829003018186803b158015610eb757600080fd5b505afa158015610ecb573d6000803e3d6000fd5b505050506040513d6000823e601f3d908101601f191682016040526020811015610ef457600080fd5b8101908080516040519392919084600160201b821115610f1357600080fd5b908301906020820185811115610f2857600080fd5b8251600160201b811182820188101715610f4157600080fd5b82525081516020918201929091019080838360005b83811015610f6e578181015183820152602001610f56565b50505050905090810190601f168015610f9b5780820380516001836020036101000a031916815260200191505b50604052505050905090565b609b546001600160a01b031681565b600080829050806001600160a01b0316635c60da1b6040518163ffffffff1660e01b8152600401602060405180830381600087803b158015610ff757600080fd5b505af115801561100b573d6000803e3d6000fd5b505050506040513d602081101561102157600080fd5b50519392505050565b61103261181b565b6065546001600160a01b03908116911614611082576040805162461bcd60e51b81526020600482018190526024820152600080516020611a97833981519152604482015290519081900360640190fd5b609a546040805163104ef87d60e11b81526004810184905290516001600160a01b039092169163209df0fa916024808201926020929091908290030181600087803b1580156110d057600080fd5b505af11580156110e4573d6000803e3d6000fd5b505050506040513d60208110156110fa57600080fd5b5050609a546040805163a023cf6960e01b815290516001600160a01b039092169163a023cf6991600480820192602092909190829003018186803b15801561114157600080fd5b505afa158015611155573d6000803e3d6000fd5b505050506040513d602081101561116b57600080fd5b5051609c556040805182815290517f5443a9b3a4f844af7ea1bbffa88c16f6f6c35f174ae032da718b6285c6be869c9181900360200190a150565b600080829050806001600160a01b031663f851a4406040518163ffffffff1660e01b8152600401602060405180830381600087803b158015610ff757600080fd5b609a546040805163a023cf6960e01b815290516000926001600160a01b03169163a023cf69916004808301926020929190829003018186803b15801561122c57600080fd5b505afa158015611240573d6000803e3d6000fd5b505050506040513d602081101561125657600080fd5b5051905090565b61126561181b565b6065546001600160a01b039081169116146112b5576040805162461bcd60e51b81526020600482018190526024820152600080516020611a97833981519152604482015290519081900360640190fd5b6065546040516000916001600160a01b0316907f8be0079c531659141344cd1fd0a4f28419497f9722a3daafe3b4186f6b6457e0908390a3606580546001600160a01b0319169055565b6065546001600160a01b031690565b609c5481565b600054610100900460ff168061132d575061132d61181f565b8061133b575060005460ff16155b6113765760405162461bcd60e51b815260040180806020018281038252602e815260200180611ab7602e913960400191505060405180910390fd5b600054610100900460ff161580156113a1576000805460ff1961ff0019909116610100171660011790555b6113a9611825565b6113b2826116ba565b609980546001600160a01b038087166001600160a01b031992831681179384905560988054841694831694909417909355609b805491871691831682179055609a8054909216811790915560408051928352602083019190915280517f81bc37599d8daaee75b12342129cc1b062c2f8aa7e7ac6958fba02c558b859899281900390910190a1801561144a576000805461ff00191690555b50505050565b609854604051633ecf991160e21b8152602060048201908152602482018490526001600160a01b039092169163fb3e644491859185918190604401848480828437600081840152601f19601f8201169050808301925050509350505050600060405180830381600087803b1580156114c757600080fd5b505af11580156114db573d6000803e3d6000fd5b505050506060609860009054906101000a90046001600160a01b03166001600160a01b0316631d6d32ba6040518163ffffffff1660e01b815260040160006040518083038186803b15801561152f57600080fd5b505afa158015611543573d6000803e3d6000fd5b505050506040513d6000823e601f3d908101601f19168201604052602081101561156c57600080fd5b8101908080516040519392919084600160201b82111561158b57600080fd5b9083019060208201858111156115a057600080fd5b8251600160201b8111828201881017156115b957600080fd5b82525081516020918201929091019080838360005b838110156115e65781810151838201526020016115ce565b50505050905090810190601f1680156116135780820380516001836020036101000a031916815260200191505b5060405250505090507f365ad25db963c5dbd43d3f4aa610e4a9ffd3bb23dae3841d9dbad208c212bee1816040518080602001828103825283818151815260200191508051906020019080838360005b8381101561167b578181015183820152602001611663565b50505050905090810190601f1680156116a85780820380516001836020036101000a031916815260200191505b509250505060405180910390a1505050565b6116c261181b565b6065546001600160a01b03908116911614611712576040805162461bcd60e51b81526020600482018190526024820152600080516020611a97833981519152604482015290519081900360640190fd5b6001600160a01b0381166117575760405162461bcd60e51b8152600401808060200182810382526026815260200180611a716026913960400191505060405180910390fd5b6065546040516001600160a01b038084169216907f8be0079c531659141344cd1fd0a4f28419497f9722a3daafe3b4186f6b6457e090600090a3606580546001600160a01b0319166001600160a01b0392909216919091179055565b60408051631b2ce7f360e11b81526001600160a01b03838116600483015291518492831691633659cfe691602480830192600092919082900301818387803b1580156117fe57600080fd5b505af1158015611812573d6000803e3d6000fd5b50505050505050565b3390565b303b1590565b600054610100900460ff168061183e575061183e61181f565b8061184c575060005460ff16155b6118875760405162461bcd60e51b815260040180806020018281038252602e815260200180611ab7602e913960400191505060405180910390fd5b600054610100900460ff161580156118b2576000805460ff1961ff0019909116610100171660011790555b6118ba6118d7565b6118c2611977565b80156118d4576000805461ff00191690555b50565b600054610100900460ff16806118f057506118f061181f565b806118fe575060005460ff16155b6119395760405162461bcd60e51b815260040180806020018281038252602e815260200180611ab7602e913960400191505060405180910390fd5b600054610100900460ff161580156118c2576000805460ff1961ff00199091166101001716600117905580156118d4576000805461ff001916905550565b600054610100900460ff1680611990575061199061181f565b8061199e575060005460ff16155b6119d95760405162461bcd60e51b815260040180806020018281038252602e815260200180611ab7602e913960400191505060405180910390fd5b600054610100900460ff16158015611a04576000805460ff1961ff0019909116610100171660011790555b6000611a0e61181b565b606580546001600160a01b0319166001600160a01b038316908117909155604051919250906000907f8be0079c531659141344cd1fd0a4f28419497f9722a3daafe3b4186f6b6457e0908290a35080156118d4576000805461ff00191690555056fe4f776e61626c653a206e6577206f776e657220697320746865207a65726f20616464726573734f776e61626c653a2063616c6c6572206973206e6f7420746865206f776e6572436f6e747261637420696e7374616e63652068617320616c7265616479206265656e20696e697469616c697a6564a26469706673582212202faf04f29f0fd4cee7f2eba8a4e833ffa78bddf75e680c94932d8fb0107e3dbb64736f6c63430006020033",
  "source": "pragma solidity 0.6.2;\n\n/**\n * @title RegistryController\n * @dev Create and interact with ZNS.\n*/\n\nimport './RegistryControllerI.sol';\nimport '../Registry/Registry.sol';\nimport '../RegistryToken/RegistryToken.sol';\nimport \"../../node_modules/@openzeppelin/contracts-ethereum-package/contracts/math/SafeMath.sol\";\nimport \"../../node_modules/@openzeppelin/contracts/proxy/TransparentUpgradeableProxy.sol\";\nimport \"../../node_modules/@openzeppelin/contracts-ethereum-package/contracts/access/Ownable.sol\";\n\ncontract RegistryController is RegistryControllerI, Initializable, OwnableUpgradeSafe {\n    using SafeMath for uint256;\n\n    Registry private registryFactory;\n\n    Registry private registryProxy;\n    address public registryProxyAddress;\n\n    RegistryToken private registryToken;\n    address payable public registryTokenAddress;\n\n    uint256 public stakePrice;\n\n    /// @notice Emitted when the RegistryController is initialized.\n    event registryControllerInitialized(address registryProxy, RegistryToken registryTokenProxy);\n\n    /// @notice Emitted when a new Registry is created.\n    event createdRegistry(address registryAddress, RegistryToken registryToken);\n\n    /// @notice Emitted when a Registry's stake price is updated.\n    event stakePriceSet(uint256 newStakePrice);\n\n    /// @notice Emitted when a new entry is created in a Registry.\n    event createdRegistryEntry(string subdomain, string ref);\n\n    /// @notice Emitted when a new a Registry 'ref' is updated.\n    event registryRefSet(string newRef);\n\n    /// @notice Emitted when a new a Registry Entry 'ref' is updated.\n    event registryEntryRefSet(string subdomain, string newRef);\n\n    /**\n     * @notice Initializes a new RegistryController after construction.\n     * @param _registryProxy The Registry address that the RegistryConroller will manage.\n     * @param _registryTokenProxy The RegistryToken address that the RegistryController will manage.\n     */\n\n    function initialize(address _registryProxy, RegistryToken _registryTokenProxy, address _owner)\n        external\n        override\n        initializer\n    {\n        __Ownable_init();\n        transferOwnership(_owner);\n        registryProxyAddress = _registryProxy;\n        registryProxy = Registry(registryProxyAddress);\n        \n        registryTokenAddress = payable(address(_registryTokenProxy));\n        registryToken = _registryTokenProxy;\n\n        emit registryControllerInitialized(_registryProxy, _registryTokenProxy);\n    }\n\n    /**\n     * @notice Sets a new stake price for a Registry's RegistryToken.\n     * @param _newStakePrice The new stake price to be used by the registry.\n     */\n\n    function setStakePrice(uint256 _newStakePrice)\n        external\n        override\n        onlyOwner\n    {\n        registryToken.setStakePrice(_newStakePrice);\n        stakePrice = registryToken.stakePrice();\n\n        emit stakePriceSet(_newStakePrice);\n    }\n\n    /**\n     * @notice Creates a new entry within a Registry.\n     * @param _subdomain The subdomain that will be utilized to reference the current Registry entry.\n     * @param _ref The user-defined reference (such as an index or url) that the Registry entry will point to.\n     */\n\n    function createRegistryEntry(\n        string calldata _subdomain,\n        string calldata _ref)\n        external\n        override\n        onlyOwner\n    {\n        registryProxy.createRegistryEntry(_subdomain, _ref);\n        (bool isRegistered, ) = registryProxy.isRegistered(_subdomain);\n        assert(isRegistered==true);\n\n        string memory currentRegistrySubdomain = _subdomain;\n        string memory currentRegistryRef = registryProxy.getRegistryEntryRef(_subdomain);\n        \n        emit createdRegistryEntry(currentRegistrySubdomain, currentRegistryRef);\n    }\n\n    /**\n     * @notice Updates a Registry's referece value.\n     * @param _newRef The new reference value to be updated to.\n     */\n\n    function setRef(\n        string calldata _newRef)\n        external\n        override\n        // onlyOwner\n    {\n        registryProxy.setRegistryRef(_newRef);        \n        string memory currentRegistryRef = registryProxy.getRef();\n\n        emit registryRefSet(currentRegistryRef);\n    }\n\n    /**\n     * @notice Updates a Registry entries reference value.\n     * @param _subdomain The subdomain of the Registry entry to be updated.\n     * @param _newRef The new reference value to be updated in the Registry entry.\n     */\n\n    function setRegistryEntryRef(\n        string calldata _subdomain,\n        string calldata _newRef)\n        external\n        override\n        onlyOwner\n    {\n        registryProxy.setRegistryEntryRef(_subdomain, _newRef);\n        string memory currentRegistryEntryRef = registryProxy.getRegistryEntryRef(_subdomain);\n\n        emit registryEntryRefSet(_subdomain, currentRegistryEntryRef);\n    }\n    \n    function getRef() override external returns (string memory) {\n        return registryProxy.getRef();\n    }\n\n    function getStakePrice() override external returns (uint256) {\n        return registryToken.stakePrice();\n    }\n\n    function getRegistryEntryRef(string calldata _subdomain) override external returns (string memory) {\n        return registryProxy.getRegistryEntryRef(_subdomain);\n    }\n\n    function getTransparentProxyAdmin(address payable _transparentProxyAddress) external override returns (address) {\n        TransparentUpgradeableProxy transparentProxy;\n        transparentProxy = TransparentUpgradeableProxy(_transparentProxyAddress);\n        return transparentProxy.admin();\n    }\n\n    function getProxyImplementation(address payable _transparentProxyAddress) external override returns (address) {\n        TransparentUpgradeableProxy transparentProxy;\n        transparentProxy = TransparentUpgradeableProxy(_transparentProxyAddress);\n        return transparentProxy.implementation();\n    }\n\n    function upgradeTransparentProxy(address payable _transparentProxyAddress, address payable _transparentProxyUpgradeAddress) external override {\n        TransparentUpgradeableProxy transparentProxy;\n        transparentProxy = TransparentUpgradeableProxy(_transparentProxyAddress);\n        transparentProxy.upgradeTo(_transparentProxyUpgradeAddress);\n    }\n\n}",
  "sourcePath": "/Users/neo/Code/ZNS/contracts/RegistryController/RegistryController.sol",
  "compiler": {
    "name": "solc",
    "version": "0.6.2+commit.bacdbe57.Emscripten.clang"
  },
  "schemaVersion": "3.2.3",
  "updatedAt": "2020-09-24T17:02:54.498Z",
  "networkType": "ethereum",
  "devdoc": {
    "methods": {
      "createRegistryEntry(string,string)": {
        "params": {
          "_ref": "The user-defined reference (such as an index or url) that the Registry entry will point to.",
          "_subdomain": "The subdomain that will be utilized to reference the current Registry entry."
        }
      },
      "initialize(address,address,address)": {
        "params": {
          "_registryProxy": "The Registry address that the RegistryConroller will manage.",
          "_registryTokenProxy": "The RegistryToken address that the RegistryController will manage."
        }
      },
      "owner()": {
        "details": "Returns the address of the current owner."
      },
      "renounceOwnership()": {
        "details": "Leaves the contract without owner. It will not be possible to call `onlyOwner` functions anymore. Can only be called by the current owner.     * NOTE: Renouncing ownership will leave the contract without an owner, thereby removing any functionality that is only available to the owner."
      },
      "setRef(string)": {
        "params": {
          "_newRef": "The new reference value to be updated to."
        }
      },
      "setRegistryEntryRef(string,string)": {
        "params": {
          "_newRef": "The new reference value to be updated in the Registry entry.",
          "_subdomain": "The subdomain of the Registry entry to be updated."
        }
      },
      "setStakePrice(uint256)": {
        "params": {
          "_newStakePrice": "The new stake price to be used by the registry."
        }
      },
      "transferOwnership(address)": {
        "details": "Transfers ownership of the contract to a new account (`newOwner`). Can only be called by the current owner."
      }
    }
  },
  "userdoc": {
    "methods": {
      "createRegistryEntry(string,string)": {
        "notice": "Creates a new entry within a Registry."
      },
      "initialize(address,address,address)": {
        "notice": "Initializes a new RegistryController after construction."
      },
      "setRef(string)": {
        "notice": "Updates a Registry's referece value."
      },
      "setRegistryEntryRef(string,string)": {
        "notice": "Updates a Registry entries reference value."
      },
      "setStakePrice(uint256)": {
        "notice": "Sets a new stake price for a Registry's RegistryToken."
      }
    }
  }
}