{
  "contractName": "ZNSDomain",
  "abi": [
    {
      "anonymous": false,
      "inputs": [
        {
          "indexed": true,
          "internalType": "address",
          "name": "owner",
          "type": "address"
        },
        {
          "indexed": true,
          "internalType": "address",
          "name": "approved",
          "type": "address"
        },
        {
          "indexed": true,
          "internalType": "uint256",
          "name": "tokenId",
          "type": "uint256"
        }
      ],
      "name": "Approval",
      "type": "event"
    },
    {
      "anonymous": false,
      "inputs": [
        {
          "indexed": true,
          "internalType": "address",
          "name": "owner",
          "type": "address"
        },
        {
          "indexed": true,
          "internalType": "address",
          "name": "operator",
          "type": "address"
        },
        {
          "indexed": false,
          "internalType": "bool",
          "name": "approved",
          "type": "bool"
        }
      ],
      "name": "ApprovalForAll",
      "type": "event"
    },
    {
      "anonymous": false,
      "inputs": [
        {
          "indexed": false,
          "internalType": "uint8",
          "name": "version",
          "type": "uint8"
        }
      ],
      "name": "Initialized",
      "type": "event"
    },
    {
      "anonymous": false,
      "inputs": [
        {
          "indexed": true,
          "internalType": "address",
          "name": "from",
          "type": "address"
        },
        {
          "indexed": true,
          "internalType": "address",
          "name": "to",
          "type": "address"
        },
        {
          "indexed": true,
          "internalType": "uint256",
          "name": "tokenId",
          "type": "uint256"
        }
      ],
      "name": "Transfer",
      "type": "event"
    },
    {
      "inputs": [
        {
          "internalType": "address",
          "name": "to",
          "type": "address"
        },
        {
          "internalType": "uint256",
          "name": "tokenId",
          "type": "uint256"
        }
      ],
      "name": "approve",
      "outputs": [],
      "stateMutability": "nonpayable",
      "type": "function"
    },
    {
      "inputs": [
        {
          "internalType": "address",
          "name": "owner",
          "type": "address"
        }
      ],
      "name": "balanceOf",
      "outputs": [
        {
          "internalType": "uint256",
          "name": "",
          "type": "uint256"
        }
      ],
      "stateMutability": "view",
      "type": "function"
    },
    {
      "inputs": [
        {
          "internalType": "uint256",
          "name": "tokenId",
          "type": "uint256"
        }
      ],
      "name": "getApproved",
      "outputs": [
        {
          "internalType": "address",
          "name": "",
          "type": "address"
        }
      ],
      "stateMutability": "view",
      "type": "function"
    },
    {
      "inputs": [],
      "name": "initialized",
      "outputs": [
        {
          "internalType": "bool",
          "name": "",
          "type": "bool"
        }
      ],
      "stateMutability": "view",
      "type": "function"
    },
    {
      "inputs": [
        {
          "internalType": "address",
          "name": "owner",
          "type": "address"
        },
        {
          "internalType": "address",
          "name": "operator",
          "type": "address"
        }
      ],
      "name": "isApprovedForAll",
      "outputs": [
        {
          "internalType": "bool",
          "name": "",
          "type": "bool"
        }
      ],
      "stateMutability": "view",
      "type": "function"
    },
    {
      "inputs": [],
      "name": "name",
      "outputs": [
        {
          "internalType": "string",
          "name": "",
          "type": "string"
        }
      ],
      "stateMutability": "view",
      "type": "function"
    },
    {
      "inputs": [
        {
          "internalType": "uint256",
          "name": "tokenId",
          "type": "uint256"
        }
      ],
      "name": "ownerOf",
      "outputs": [
        {
          "internalType": "address",
          "name": "",
          "type": "address"
        }
      ],
      "stateMutability": "view",
      "type": "function"
    },
    {
      "inputs": [
        {
          "internalType": "address",
          "name": "from",
          "type": "address"
        },
        {
          "internalType": "address",
          "name": "to",
          "type": "address"
        },
        {
          "internalType": "uint256",
          "name": "tokenId",
          "type": "uint256"
        }
      ],
      "name": "safeTransferFrom",
      "outputs": [],
      "stateMutability": "nonpayable",
      "type": "function"
    },
    {
      "inputs": [
        {
          "internalType": "address",
          "name": "from",
          "type": "address"
        },
        {
          "internalType": "address",
          "name": "to",
          "type": "address"
        },
        {
          "internalType": "uint256",
          "name": "tokenId",
          "type": "uint256"
        },
        {
          "internalType": "bytes",
          "name": "data",
          "type": "bytes"
        }
      ],
      "name": "safeTransferFrom",
      "outputs": [],
      "stateMutability": "nonpayable",
      "type": "function"
    },
    {
      "inputs": [
        {
          "internalType": "address",
          "name": "operator",
          "type": "address"
        },
        {
          "internalType": "bool",
          "name": "approved",
          "type": "bool"
        }
      ],
      "name": "setApprovalForAll",
      "outputs": [],
      "stateMutability": "nonpayable",
      "type": "function"
    },
    {
      "inputs": [
        {
          "internalType": "bytes4",
          "name": "interfaceId",
          "type": "bytes4"
        }
      ],
      "name": "supportsInterface",
      "outputs": [
        {
          "internalType": "bool",
          "name": "",
          "type": "bool"
        }
      ],
      "stateMutability": "view",
      "type": "function"
    },
    {
      "inputs": [],
      "name": "symbol",
      "outputs": [
        {
          "internalType": "string",
          "name": "",
          "type": "string"
        }
      ],
      "stateMutability": "view",
      "type": "function"
    },
    {
      "inputs": [
        {
          "internalType": "uint256",
          "name": "tokenId",
          "type": "uint256"
        }
      ],
      "name": "tokenURI",
      "outputs": [
        {
          "internalType": "string",
          "name": "",
          "type": "string"
        }
      ],
      "stateMutability": "view",
      "type": "function"
    },
    {
      "inputs": [
        {
          "internalType": "address",
          "name": "from",
          "type": "address"
        },
        {
          "internalType": "address",
          "name": "to",
          "type": "address"
        },
        {
          "internalType": "uint256",
          "name": "tokenId",
          "type": "uint256"
        }
      ],
      "name": "transferFrom",
      "outputs": [],
      "stateMutability": "nonpayable",
      "type": "function"
    },
    {
      "inputs": [],
      "name": "initialize",
      "outputs": [],
      "stateMutability": "nonpayable",
      "type": "function"
    },
    {
      "inputs": [
        {
          "internalType": "address",
          "name": "to",
          "type": "address"
        },
        {
          "internalType": "string",
          "name": "tokenURI",
          "type": "string"
        }
      ],
      "name": "mintDomain",
      "outputs": [
        {
          "internalType": "uint256",
          "name": "",
          "type": "uint256"
        }
      ],
      "stateMutability": "nonpayable",
      "type": "function"
    },
    {
      "inputs": [
        {
          "internalType": "uint256",
          "name": "tokenId",
          "type": "uint256"
        },
        {
          "internalType": "string",
          "name": "tokenURI",
          "type": "string"
        }
      ],
      "name": "setTokenURI",
      "outputs": [],
      "stateMutability": "nonpayable",
      "type": "function"
    },
    {
      "inputs": [
        {
          "internalType": "uint256",
          "name": "tokenId",
          "type": "uint256"
        }
      ],
      "name": "getTokenURI",
      "outputs": [
        {
          "internalType": "string",
          "name": "",
          "type": "string"
        }
      ],
      "stateMutability": "view",
      "type": "function"
    },
    {
      "inputs": [],
      "name": "totalSupply",
      "outputs": [
        {
          "internalType": "uint256",
          "name": "",
          "type": "uint256"
        }
      ],
      "stateMutability": "view",
      "type": "function"
    },
    {
      "inputs": [
        {
          "internalType": "uint256",
          "name": "tokenId",
          "type": "uint256"
        }
      ],
      "name": "burn",
      "outputs": [],
      "stateMutability": "nonpayable",
      "type": "function"
    }
  ],
  "bytecode": "0x608060405234801561001057600080fd5b50611bb4806100206000396000f3fe608060405234801561001057600080fd5b506004361061012c5760003560e01c806342966c68116100ad57806395d89b411161007157806395d89b4114610271578063a22cb46514610279578063b88d4fde1461028c578063c87b56dd1461029f578063e985e9c5146102b25761012c565b806342966c681461021d5780636352211e1461023057806370a08231146102435780637ed0b68e146102565780638129fc1c146102695761012c565b8063162094c4116100f4578063162094c4146101bb57806318160ddd146101ce57806323b872dd146101e45780633bb3a24d146101f757806342842e0e1461020a5761012c565b806301ffc9a71461013157806306fdde0314610159578063081812fc1461016e578063095ea7b314610199578063158ef93e146101ae575b600080fd5b61014461013f366004611892565b6102ee565b60405190151581526020015b60405180910390f35b610161610342565b60405161015091906119a9565b61018161017c3660046118ca565b6103d4565b6040516001600160a01b039091168152602001610150565b6101ac6101a7366004611869565b6103fb565b005b6098546101449060ff1681565b6101ac6101c93660046118e2565b610516565b6101d66105a9565b604051908152602001610150565b6101ac6101f236600461172f565b6105b9565b6101616102053660046118ca565b6105ea565b6101ac61021836600461172f565b610702565b6101ac61022b3660046118ca565b61071d565b61018161023e3660046118ca565b610793565b6101d66102513660046116e3565b6107f3565b6101d661026436600461181d565b610879565b6101ac610958565b610161610b2d565b6101ac6102873660046117e3565b610b3c565b6101ac61029a36600461176a565b610b4b565b6101616102ad3660046118ca565b610b83565b6101446102c03660046116fd565b6001600160a01b039182166000908152606a6020908152604080832093909416825291909152205460ff1690565b60006001600160e01b031982166380ac58cd60e01b148061031f57506001600160e01b03198216635b5e139f60e01b145b8061033a57506301ffc9a760e01b6001600160e01b03198316145b90505b919050565b60606065805461035190611b17565b80601f016020809104026020016040519081016040528092919081815260200182805461037d90611b17565b80156103ca5780601f1061039f576101008083540402835291602001916103ca565b820191906000526020600020905b8154815290600101906020018083116103ad57829003601f168201915b5050505050905090565b60006103df82610bf6565b506000908152606960205260409020546001600160a01b031690565b600061040682610793565b9050806001600160a01b0316836001600160a01b031614156104795760405162461bcd60e51b815260206004820152602160248201527f4552433732313a20617070726f76616c20746f2063757272656e74206f776e656044820152603960f91b60648201526084015b60405180910390fd5b336001600160a01b0382161480610495575061049581336102c0565b6105075760405162461bcd60e51b815260206004820152603d60248201527f4552433732313a20617070726f76652063616c6c6572206973206e6f7420746f60448201527f6b656e206f776e6572206f7220617070726f76656420666f7220616c6c0000006064820152608401610470565b6105118383610c55565b505050565b6000828152606760205260409020546001600160a01b031661058a5760405162461bcd60e51b815260206004820152602760248201527f5a4e53446f6d61696e3a2055524920736574206f66206e6f6e6578697374656e6044820152663a103a37b5b2b760c91b6064820152608401610470565b6000828152609960209081526040909120825161051192840190611566565b60006105b460975490565b905090565b6105c33382610cc3565b6105df5760405162461bcd60e51b8152600401610470906119bc565b610511838383610d42565b6000818152606760205260409020546060906001600160a01b03166106645760405162461bcd60e51b815260206004820152602a60248201527f5a4e53446f6d61696e3a2055524920717565727920666f72206e6f6e657869736044820152693a32b73a103a37b5b2b760b11b6064820152608401610470565b6000828152609960205260409020805461067d90611b17565b80601f01602080910402602001604051908101604052809291908181526020018280546106a990611b17565b80156106f65780601f106106cb576101008083540402835291602001916106f6565b820191906000526020600020905b8154815290600101906020018083116106d957829003601f168201915b50505050509050919050565b61051183838360405180602001604052806000815250610b4b565b6107273282610cc3565b6107875760405162461bcd60e51b815260206004820152602b60248201527f5a4e53446f6d61696e3a2063616c6c6572206973206e6f74206f776e6572206e60448201526a1bdc88185c1c1c9bdd995960aa1b6064820152608401610470565b61079081610ea6565b50565b6000818152606760205260408120546001600160a01b03168061033a5760405162461bcd60e51b8152602060048201526018602482015277115490cdcc8c4e881a5b9d985b1a59081d1bdad95b88125160421b6044820152606401610470565b60006001600160a01b03821661085d5760405162461bcd60e51b815260206004820152602960248201527f4552433732313a2061646472657373207a65726f206973206e6f7420612076616044820152683634b21037bbb732b960b91b6064820152608401610470565b506001600160a01b031660009081526068602052604090205490565b60006001600160a01b0383166108d15760405162461bcd60e51b815260206004820152601a60248201527f5a4e53446f6d61696e3a20496e76616c696420616464726573730000000000006044820152606401610470565b60008251116109225760405162461bcd60e51b815260206004820152601d60248201527f5a4e53446f6d61696e3a20546f6b656e2055524920697320656d7074790000006044820152606401610470565b610930609780546001019055565b600061093b60975490565b90506109478482610ee6565b6109518184610516565b9392505050565b600054610100900460ff16158080156109785750600054600160ff909116105b806109925750303b158015610992575060005460ff166001145b6109f55760405162461bcd60e51b815260206004820152602e60248201527f496e697469616c697a61626c653a20636f6e747261637420697320616c72656160448201526d191e481a5b9a5d1a585b1a5e995960921b6064820152608401610470565b6000805460ff191660011790558015610a18576000805461ff0019166101001790555b60985460ff1615610a7e5760405162461bcd60e51b815260206004820152602a60248201527f5a4e53446f6d61696e3a20436f6e747261637420697320616c726561647920696044820152691b9a5d1a585b1a5e995960b21b6064820152608401610470565b610ad86040518060400160405280601781526020017f5a65726f204e616d65205365727669636520285a4e5329000000000000000000815250604051806040016040528060038152602001625a4e5360e81b815250610f00565b6098805460ff191660011790558015610790576000805461ff0019169055604051600181527f7f26b83ff96e1f2b6a682f133852f6798a09c465da95921460cefb38474024989060200160405180910390a150565b60606066805461035190611b17565b610b47338383610f31565b5050565b610b553383610cc3565b610b715760405162461bcd60e51b8152600401610470906119bc565b610b7d84848484611000565b50505050565b6060610b8e82610bf6565b6000610ba560408051602081019091526000815290565b90506000815111610bc55760405180602001604052806000815250610951565b80610bcf84611033565b604051602001610be092919061193d565b6040516020818303038152906040529392505050565b6000818152606760205260409020546001600160a01b03166107905760405162461bcd60e51b8152602060048201526018602482015277115490cdcc8c4e881a5b9d985b1a59081d1bdad95b88125160421b6044820152606401610470565b600081815260696020526040902080546001600160a01b0319166001600160a01b0384169081179091558190610c8a82610793565b6001600160a01b03167f8c5be1e5ebec7d5bd14f71427d1e84f3dd0314c0f7b2291e5b200ac8c7c3b92560405160405180910390a45050565b600080610ccf83610793565b9050806001600160a01b0316846001600160a01b03161480610d1657506001600160a01b038082166000908152606a602090815260408083209388168352929052205460ff165b80610d3a5750836001600160a01b0316610d2f846103d4565b6001600160a01b0316145b949350505050565b826001600160a01b0316610d5582610793565b6001600160a01b031614610d7b5760405162461bcd60e51b815260040161047090611a5b565b6001600160a01b038216610ddd5760405162461bcd60e51b8152602060048201526024808201527f4552433732313a207472616e7366657220746f20746865207a65726f206164646044820152637265737360e01b6064820152608401610470565b826001600160a01b0316610df082610793565b6001600160a01b031614610e165760405162461bcd60e51b815260040161047090611a5b565b600081815260696020908152604080832080546001600160a01b03199081169091556001600160a01b0387811680865260688552838620805460001901905590871680865283862080546001019055868652606790945282852080549092168417909155905184937fddf252ad1be2c89b69c2b068fc378daa952ba7f163c4a11628f55a4df523b3ef91a4610511565b610eaf816110de565b60008181526099602052604090208054610ec890611b17565b159050610790576000818152609960205260408120610790916115ea565b610b47828260405180602001604052806000815250611174565b600054610100900460ff16610f275760405162461bcd60e51b815260040161047090611aa0565b610b4782826111a7565b816001600160a01b0316836001600160a01b03161415610f935760405162461bcd60e51b815260206004820152601960248201527f4552433732313a20617070726f766520746f2063616c6c6572000000000000006044820152606401610470565b6001600160a01b038381166000818152606a6020908152604080832094871680845294825291829020805460ff191686151590811790915591519182527f17307eab39ab6107e8899845ad3d59bd9653f200f220920489ca2b5937696c31910160405180910390a3505050565b61100b848484610d42565b611017848484846111f5565b610b7d5760405162461bcd60e51b815260040161047090611a09565b6060600061104083611302565b600101905060008167ffffffffffffffff81111561106e57634e487b7160e01b600052604160045260246000fd5b6040519080825280601f01601f191660200182016040528015611098576020820181803683370190505b5090508181016020015b600019016f181899199a1a9b1b9c1cb0b131b232b360811b600a86061a8153600a85049450846110d1576110d6565b6110a2565b509392505050565b60006110e982610793565b90506110f482610793565b600083815260696020908152604080832080546001600160a01b03199081169091556001600160a01b0385168085526068845282852080546000190190558785526067909352818420805490911690555192935084927fddf252ad1be2c89b69c2b068fc378daa952ba7f163c4a11628f55a4df523b3ef908390a4610b47565b61117e83836113da565b61118b60008484846111f5565b6105115760405162461bcd60e51b815260040161047090611a09565b600054610100900460ff166111ce5760405162461bcd60e51b815260040161047090611aa0565b81516111e1906065906020850190611566565b508051610511906066906020840190611566565b60006001600160a01b0384163b156112f757604051630a85bd0160e11b81526001600160a01b0385169063150b7a029061123990339089908890889060040161196c565b602060405180830381600087803b15801561125357600080fd5b505af1925050508015611283575060408051601f3d908101601f19168201909252611280918101906118ae565b60015b6112dd573d8080156112b1576040519150601f19603f3d011682016040523d82523d6000602084013e6112b6565b606091505b5080516112d55760405162461bcd60e51b815260040161047090611a09565b805181602001fd5b6001600160e01b031916630a85bd0160e11b149050610d3a565b506001949350505050565b60008072184f03e93ff9f4daa797ed6e38ed64bf6a1f0160401b83106113415772184f03e93ff9f4daa797ed6e38ed64bf6a1f0160401b830492506040015b6d04ee2d6d415b85acef8100000000831061136d576d04ee2d6d415b85acef8100000000830492506020015b662386f26fc10000831061138b57662386f26fc10000830492506010015b6305f5e10083106113a3576305f5e100830492506008015b61271083106113b757612710830492506004015b606483106113c9576064830492506002015b600a831061033a5760010192915050565b6001600160a01b0382166114305760405162461bcd60e51b815260206004820181905260248201527f4552433732313a206d696e7420746f20746865207a65726f20616464726573736044820152606401610470565b6000818152606760205260409020546001600160a01b0316156114955760405162461bcd60e51b815260206004820152601c60248201527f4552433732313a20746f6b656e20616c7265616479206d696e746564000000006044820152606401610470565b6000818152606760205260409020546001600160a01b0316156114fa5760405162461bcd60e51b815260206004820152601c60248201527f4552433732313a20746f6b656e20616c7265616479206d696e746564000000006044820152606401610470565b6001600160a01b038216600081815260686020908152604080832080546001019055848352606790915280822080546001600160a01b0319168417905551839291907fddf252ad1be2c89b69c2b068fc378daa952ba7f163c4a11628f55a4df523b3ef908290a4610b47565b82805461157290611b17565b90600052602060002090601f01602090048101928261159457600085556115da565b82601f106115ad57805160ff19168380011785556115da565b828001600101855582156115da579182015b828111156115da5782518255916020019190600101906115bf565b506115e6929150611622565b5090565b5080546115f690611b17565b6000825580601f106116085750610790565b601f01602090049060005260206000209081019061079091905b5b808211156115e65760008155600101611623565b600067ffffffffffffffff8084111561165257611652611b52565b604051601f8501601f19908116603f0116810190828211818310171561167a5761167a611b52565b8160405280935085815286868601111561169357600080fd5b858560208301376000602087830101525050509392505050565b80356001600160a01b038116811461033d57600080fd5b600082601f8301126116d4578081fd5b61095183833560208501611637565b6000602082840312156116f4578081fd5b610951826116ad565b6000806040838503121561170f578081fd5b611718836116ad565b9150611726602084016116ad565b90509250929050565b600080600060608486031215611743578081fd5b61174c846116ad565b925061175a602085016116ad565b9150604084013590509250925092565b6000806000806080858703121561177f578081fd5b611788856116ad565b9350611796602086016116ad565b925060408501359150606085013567ffffffffffffffff8111156117b8578182fd5b8501601f810187136117c8578182fd5b6117d787823560208401611637565b91505092959194509250565b600080604083850312156117f5578182fd5b6117fe836116ad565b915060208301358015158114611812578182fd5b809150509250929050565b6000806040838503121561182f578182fd5b611838836116ad565b9150602083013567ffffffffffffffff811115611853578182fd5b61185f858286016116c4565b9150509250929050565b6000806040838503121561187b578182fd5b611884836116ad565b946020939093013593505050565b6000602082840312156118a3578081fd5b813561095181611b68565b6000602082840312156118bf578081fd5b815161095181611b68565b6000602082840312156118db578081fd5b5035919050565b600080604083850312156118f4578182fd5b82359150602083013567ffffffffffffffff811115611853578182fd5b60008151808452611929816020860160208601611aeb565b601f01601f19169290920160200192915050565b6000835161194f818460208801611aeb565b835190830190611963818360208801611aeb565b01949350505050565b6001600160a01b038581168252841660208201526040810183905260806060820181905260009061199f90830184611911565b9695505050505050565b6000602082526109516020830184611911565b6020808252602d908201527f4552433732313a2063616c6c6572206973206e6f7420746f6b656e206f776e6560408201526c1c881bdc88185c1c1c9bdd9959609a1b606082015260800190565b60208082526032908201527f4552433732313a207472616e7366657220746f206e6f6e20455243373231526560408201527131b2b4bb32b91034b6b83632b6b2b73a32b960711b606082015260800190565b60208082526025908201527f4552433732313a207472616e736665722066726f6d20696e636f72726563742060408201526437bbb732b960d91b606082015260800190565b6020808252602b908201527f496e697469616c697a61626c653a20636f6e7472616374206973206e6f74206960408201526a6e697469616c697a696e6760a81b606082015260800190565b60005b83811015611b06578181015183820152602001611aee565b83811115610b7d5750506000910152565b600281046001821680611b2b57607f821691505b60208210811415611b4c57634e487b7160e01b600052602260045260246000fd5b50919050565b634e487b7160e01b600052604160045260246000fd5b6001600160e01b03198116811461079057600080fdfea264697066735822122038c5511f3c2379c8c622038e80c22d7385628c9866738533297355ef9ff183ca64736f6c63430008020033",
  "immutableReferences": {},
  "source": "/**\n  @title ZNSDomain\n  @dev Contract for issuing ZNS domains\n  SPDX-License-Identifier: MIT\n*/\n\npragma solidity ^0.8.0;\n\nimport \"@openzeppelin/contracts-upgradeable/token/ERC721/ERC721Upgradeable.sol\";\nimport \"@openzeppelin/contracts-upgradeable/utils/CountersUpgradeable.sol\";\nimport \"@openzeppelin/contracts-upgradeable/proxy/utils/Initializable.sol\";\nimport \"@openzeppelin/contracts-upgradeable/utils/math/SafeMathUpgradeable.sol\";\n\n/**\n * @title ZNSDomain\n * @dev ERC721 contract for Zero Name Service (ZNS) domains.\n*/\ncontract ZNSDomain is Initializable, ERC721Upgradeable {\n  using SafeMathUpgradeable for uint256;\n  using CountersUpgradeable for CountersUpgradeable.Counter;\n  CountersUpgradeable.Counter private _domainIds;\n  bool public initialized;\n\n  mapping(uint256 => string) private _tokenURIs;\n\n  /**\n   * @dev Initializes the contract.\n  */\n  function initialize() public initializer {\n    require(!initialized, \"ZNSDomain: Contract is already initialized\");\n    __ERC721_init(\"Zero Name Service (ZNS)\", \"ZNS\");\n    initialized = true;\n  }\n\n  /**\n   * @dev Mint a new domain.\n   * @param to The address to mint the domain to.\n   * @param tokenURI The URI of the domain metadata.\n   * @return The ID of the newly minted domain.\n  */\n  function mintDomain(address to, string memory tokenURI) external returns (uint256) {\n    // Validate inputs\n    require(to != address(0), \"ZNSDomain: Invalid address\");\n    require(bytes(tokenURI).length > 0, \"ZNSDomain: Token URI is empty\");\n\n    // Increment domain ID\n    _domainIds.increment();\n\n    // Mint new domain + set token URI\n    uint256 newDomainId = _domainIds.current();\n    _safeMint(to, newDomainId);\n    setTokenURI(newDomainId, tokenURI);\n    \n    return newDomainId;\n  }\n\n  /**\n   * @dev Sets the URI of the domain metadata.\n   * @param tokenId The ID of the domain to set the URI for.\n   * @param tokenURI The new URI for the domain metadata.\n  */\n  function setTokenURI(uint256 tokenId, string memory tokenURI) public {\n    require(_exists(tokenId), \"ZNSDomain: URI set of nonexistent token\");\n    _tokenURIs[tokenId] = tokenURI;\n  }\n\n  /**\n   * @dev Gets the URI of the domain metadata.\n   * @param tokenId The ID of the domain to get the URI for.\n   * @return The URI of the domain metadata.\n  */\n  function getTokenURI(uint256 tokenId) public view returns (string memory) {\n    require(_exists(tokenId), \"ZNSDomain: URI query for nonexistent token\");\n    return _tokenURIs[tokenId];\n  }\n\n  /**\n   * @dev Gets the total number of domains minted.\n   * @return The total number of domains minted.\n  */\n  function totalSupply() public view returns (uint256) {\n    return _domainIds.current();\n  }\n\n  /**\n   * @dev Burns a domain.\n   * @param tokenId The ID of the domain to burn.\n  */\n    function burn(uint256 tokenId) public {\n    require(_isApprovedOrOwner(tx.origin, tokenId), \"ZNSDomain: caller is not owner nor approved\");\n    _burn(tokenId);\n  }\n\n  /**\n    @dev Internal function to burn a domain.\n    @param tokenId uint256 ID of the token to be burned.\n    Requirements:\n    The caller must be approved or owner of the token.\n    The token must exist.\n  */\n    function _burn(uint256 tokenId) internal override(ERC721Upgradeable) {\n      super._burn(tokenId);\n      if (bytes(_tokenURIs[tokenId]).length != 0) {\n      delete _tokenURIs[tokenId];\n    }\n  }\n\n  uint256[49] private __gap;\n}",
  "sourcePath": "/Users/n3o/Code/zNS/contracts/ZNSDomain.sol",
  "compiler": {
    "name": "solc",
    "version": "0.8.2+commit.661d1103.Emscripten.clang"
  },
  "schemaVersion": "3.4.13",
  "updatedAt": "2023-05-08T04:11:52.637Z",
  "devdoc": {
    "details": "ERC721 contract for Zero Name Service (ZNS) domains.",
    "kind": "dev",
    "methods": {
      "approve(address,uint256)": {
        "details": "See {IERC721-approve}."
      },
      "balanceOf(address)": {
        "details": "See {IERC721-balanceOf}."
      },
      "burn(uint256)": {
        "details": "Burns a domain.",
        "params": {
          "tokenId": "The ID of the domain to burn."
        }
      },
      "getApproved(uint256)": {
        "details": "See {IERC721-getApproved}."
      },
      "getTokenURI(uint256)": {
        "details": "Gets the URI of the domain metadata.",
        "params": {
          "tokenId": "The ID of the domain to get the URI for."
        },
        "returns": {
          "_0": "The URI of the domain metadata."
        }
      },
      "initialize()": {
        "details": "Initializes the contract."
      },
      "isApprovedForAll(address,address)": {
        "details": "See {IERC721-isApprovedForAll}."
      },
      "mintDomain(address,string)": {
        "details": "Mint a new domain.",
        "params": {
          "to": "The address to mint the domain to.",
          "tokenURI": "The URI of the domain metadata."
        },
        "returns": {
          "_0": "The ID of the newly minted domain."
        }
      },
      "name()": {
        "details": "See {IERC721Metadata-name}."
      },
      "ownerOf(uint256)": {
        "details": "See {IERC721-ownerOf}."
      },
      "safeTransferFrom(address,address,uint256)": {
        "details": "See {IERC721-safeTransferFrom}."
      },
      "safeTransferFrom(address,address,uint256,bytes)": {
        "details": "See {IERC721-safeTransferFrom}."
      },
      "setApprovalForAll(address,bool)": {
        "details": "See {IERC721-setApprovalForAll}."
      },
      "setTokenURI(uint256,string)": {
        "details": "Sets the URI of the domain metadata.",
        "params": {
          "tokenId": "The ID of the domain to set the URI for.",
          "tokenURI": "The new URI for the domain metadata."
        }
      },
      "supportsInterface(bytes4)": {
        "details": "See {IERC165-supportsInterface}."
      },
      "symbol()": {
        "details": "See {IERC721Metadata-symbol}."
      },
      "tokenURI(uint256)": {
        "details": "See {IERC721Metadata-tokenURI}."
      },
      "totalSupply()": {
        "details": "Gets the total number of domains minted.",
        "returns": {
          "_0": "The total number of domains minted."
        }
      },
      "transferFrom(address,address,uint256)": {
        "details": "See {IERC721-transferFrom}."
      }
    },
    "title": "ZNSDomain",
    "version": 1
  },
  "userdoc": {
    "kind": "user",
    "methods": {},
    "version": 1
  }
}