{
  "contractName": "ZNSDomain",
  "abi": [
    {
      "anonymous": false,
      "inputs": [
        {
          "indexed": true,
          "internalType": "address",
          "name": "owner",
          "type": "address"
        },
        {
          "indexed": true,
          "internalType": "address",
          "name": "approved",
          "type": "address"
        },
        {
          "indexed": true,
          "internalType": "uint256",
          "name": "tokenId",
          "type": "uint256"
        }
      ],
      "name": "Approval",
      "type": "event"
    },
    {
      "anonymous": false,
      "inputs": [
        {
          "indexed": true,
          "internalType": "address",
          "name": "owner",
          "type": "address"
        },
        {
          "indexed": true,
          "internalType": "address",
          "name": "operator",
          "type": "address"
        },
        {
          "indexed": false,
          "internalType": "bool",
          "name": "approved",
          "type": "bool"
        }
      ],
      "name": "ApprovalForAll",
      "type": "event"
    },
    {
      "anonymous": false,
      "inputs": [
        {
          "indexed": false,
          "internalType": "uint8",
          "name": "version",
          "type": "uint8"
        }
      ],
      "name": "Initialized",
      "type": "event"
    },
    {
      "anonymous": false,
      "inputs": [
        {
          "indexed": true,
          "internalType": "address",
          "name": "from",
          "type": "address"
        },
        {
          "indexed": true,
          "internalType": "address",
          "name": "to",
          "type": "address"
        },
        {
          "indexed": true,
          "internalType": "uint256",
          "name": "tokenId",
          "type": "uint256"
        }
      ],
      "name": "Transfer",
      "type": "event"
    },
    {
      "inputs": [
        {
          "internalType": "address",
          "name": "to",
          "type": "address"
        },
        {
          "internalType": "uint256",
          "name": "tokenId",
          "type": "uint256"
        }
      ],
      "name": "approve",
      "outputs": [],
      "stateMutability": "nonpayable",
      "type": "function"
    },
    {
      "inputs": [
        {
          "internalType": "address",
          "name": "owner",
          "type": "address"
        }
      ],
      "name": "balanceOf",
      "outputs": [
        {
          "internalType": "uint256",
          "name": "",
          "type": "uint256"
        }
      ],
      "stateMutability": "view",
      "type": "function"
    },
    {
      "inputs": [
        {
          "internalType": "uint256",
          "name": "tokenId",
          "type": "uint256"
        }
      ],
      "name": "getApproved",
      "outputs": [
        {
          "internalType": "address",
          "name": "",
          "type": "address"
        }
      ],
      "stateMutability": "view",
      "type": "function"
    },
    {
      "inputs": [],
      "name": "initialized",
      "outputs": [
        {
          "internalType": "bool",
          "name": "",
          "type": "bool"
        }
      ],
      "stateMutability": "view",
      "type": "function"
    },
    {
      "inputs": [
        {
          "internalType": "address",
          "name": "owner",
          "type": "address"
        },
        {
          "internalType": "address",
          "name": "operator",
          "type": "address"
        }
      ],
      "name": "isApprovedForAll",
      "outputs": [
        {
          "internalType": "bool",
          "name": "",
          "type": "bool"
        }
      ],
      "stateMutability": "view",
      "type": "function"
    },
    {
      "inputs": [],
      "name": "name",
      "outputs": [
        {
          "internalType": "string",
          "name": "",
          "type": "string"
        }
      ],
      "stateMutability": "view",
      "type": "function"
    },
    {
      "inputs": [
        {
          "internalType": "uint256",
          "name": "tokenId",
          "type": "uint256"
        }
      ],
      "name": "ownerOf",
      "outputs": [
        {
          "internalType": "address",
          "name": "",
          "type": "address"
        }
      ],
      "stateMutability": "view",
      "type": "function"
    },
    {
      "inputs": [
        {
          "internalType": "address",
          "name": "from",
          "type": "address"
        },
        {
          "internalType": "address",
          "name": "to",
          "type": "address"
        },
        {
          "internalType": "uint256",
          "name": "tokenId",
          "type": "uint256"
        }
      ],
      "name": "safeTransferFrom",
      "outputs": [],
      "stateMutability": "nonpayable",
      "type": "function"
    },
    {
      "inputs": [
        {
          "internalType": "address",
          "name": "from",
          "type": "address"
        },
        {
          "internalType": "address",
          "name": "to",
          "type": "address"
        },
        {
          "internalType": "uint256",
          "name": "tokenId",
          "type": "uint256"
        },
        {
          "internalType": "bytes",
          "name": "data",
          "type": "bytes"
        }
      ],
      "name": "safeTransferFrom",
      "outputs": [],
      "stateMutability": "nonpayable",
      "type": "function"
    },
    {
      "inputs": [
        {
          "internalType": "address",
          "name": "operator",
          "type": "address"
        },
        {
          "internalType": "bool",
          "name": "approved",
          "type": "bool"
        }
      ],
      "name": "setApprovalForAll",
      "outputs": [],
      "stateMutability": "nonpayable",
      "type": "function"
    },
    {
      "inputs": [
        {
          "internalType": "bytes4",
          "name": "interfaceId",
          "type": "bytes4"
        }
      ],
      "name": "supportsInterface",
      "outputs": [
        {
          "internalType": "bool",
          "name": "",
          "type": "bool"
        }
      ],
      "stateMutability": "view",
      "type": "function"
    },
    {
      "inputs": [],
      "name": "symbol",
      "outputs": [
        {
          "internalType": "string",
          "name": "",
          "type": "string"
        }
      ],
      "stateMutability": "view",
      "type": "function"
    },
    {
      "inputs": [
        {
          "internalType": "uint256",
          "name": "tokenId",
          "type": "uint256"
        }
      ],
      "name": "tokenURI",
      "outputs": [
        {
          "internalType": "string",
          "name": "",
          "type": "string"
        }
      ],
      "stateMutability": "view",
      "type": "function"
    },
    {
      "inputs": [
        {
          "internalType": "address",
          "name": "from",
          "type": "address"
        },
        {
          "internalType": "address",
          "name": "to",
          "type": "address"
        },
        {
          "internalType": "uint256",
          "name": "tokenId",
          "type": "uint256"
        }
      ],
      "name": "transferFrom",
      "outputs": [],
      "stateMutability": "nonpayable",
      "type": "function"
    },
    {
      "inputs": [],
      "name": "initialize",
      "outputs": [],
      "stateMutability": "nonpayable",
      "type": "function"
    },
    {
      "inputs": [
        {
          "internalType": "address",
          "name": "to",
          "type": "address"
        },
        {
          "internalType": "string",
          "name": "tokenURI",
          "type": "string"
        }
      ],
      "name": "mintDomain",
      "outputs": [
        {
          "internalType": "uint256",
          "name": "",
          "type": "uint256"
        }
      ],
      "stateMutability": "nonpayable",
      "type": "function"
    },
    {
      "inputs": [
        {
          "internalType": "uint256",
          "name": "tokenId",
          "type": "uint256"
        },
        {
          "internalType": "string",
          "name": "tokenURI",
          "type": "string"
        }
      ],
      "name": "setTokenURI",
      "outputs": [],
      "stateMutability": "nonpayable",
      "type": "function"
    },
    {
      "inputs": [
        {
          "internalType": "uint256",
          "name": "tokenId",
          "type": "uint256"
        }
      ],
      "name": "getTokenURI",
      "outputs": [
        {
          "internalType": "string",
          "name": "",
          "type": "string"
        }
      ],
      "stateMutability": "view",
      "type": "function"
    },
    {
      "inputs": [],
      "name": "totalSupply",
      "outputs": [
        {
          "internalType": "uint256",
          "name": "",
          "type": "uint256"
        }
      ],
      "stateMutability": "view",
      "type": "function"
    },
    {
      "inputs": [
        {
          "internalType": "uint256",
          "name": "tokenId",
          "type": "uint256"
        },
        {
          "internalType": "address",
          "name": "owner",
          "type": "address"
        }
      ],
      "name": "burn",
      "outputs": [],
      "stateMutability": "nonpayable",
      "type": "function"
    }
  ],
  "bytecode": "0x608060405234801561001057600080fd5b50611c35806100206000396000f3fe608060405234801561001057600080fd5b506004361061012c5760003560e01c80636352211e116100ad578063a22cb46511610071578063a22cb46514610266578063b88d4fde14610279578063c87b56dd1461028c578063e985e9c51461029f578063fcd3533c146102db5761012c565b80636352211e1461021d57806370a08231146102305780637ed0b68e146102435780638129fc1c1461025657806395d89b411461025e5761012c565b8063162094c4116100f4578063162094c4146101bb57806318160ddd146101ce57806323b872dd146101e45780633bb3a24d146101f757806342842e0e1461020a5761012c565b806301ffc9a71461013157806306fdde0314610159578063081812fc1461016e578063095ea7b314610199578063158ef93e146101ae575b600080fd5b61014461013f3660046118f1565b6102ee565b60405190151581526020015b60405180910390f35b610161610342565b6040516101509190611a2a565b61018161017c366004611929565b6103d4565b6040516001600160a01b039091168152602001610150565b6101ac6101a73660046118c8565b6103fb565b005b6098546101449060ff1681565b6101ac6101c9366004611963565b610516565b6101d66105a9565b604051908152602001610150565b6101ac6101f236600461178e565b6105b9565b610161610205366004611929565b6105ea565b6101ac61021836600461178e565b610702565b61018161022b366004611929565b61071d565b6101d661023e366004611742565b61077d565b6101d661025136600461187c565b610803565b6101ac6108e2565b610161610ab8565b6101ac610274366004611842565b610ac7565b6101ac6102873660046117c9565b610ad6565b61016161029a366004611929565b610b0e565b6101446102ad36600461175c565b6001600160a01b039182166000908152606a6020908152604080832093909416825291909152205460ff1690565b6101ac6102e9366004611941565b610b81565b60006001600160e01b031982166380ac58cd60e01b148061031f57506001600160e01b03198216635b5e139f60e01b145b8061033a57506301ffc9a760e01b6001600160e01b03198316145b90505b919050565b60606065805461035190611b98565b80601f016020809104026020016040519081016040528092919081815260200182805461037d90611b98565b80156103ca5780601f1061039f576101008083540402835291602001916103ca565b820191906000526020600020905b8154815290600101906020018083116103ad57829003601f168201915b5050505050905090565b60006103df82610bf4565b506000908152606960205260409020546001600160a01b031690565b60006104068261071d565b9050806001600160a01b0316836001600160a01b031614156104795760405162461bcd60e51b815260206004820152602160248201527f4552433732313a20617070726f76616c20746f2063757272656e74206f776e656044820152603960f91b60648201526084015b60405180910390fd5b336001600160a01b0382161480610495575061049581336102ad565b6105075760405162461bcd60e51b815260206004820152603d60248201527f4552433732313a20617070726f76652063616c6c6572206973206e6f7420746f60448201527f6b656e206f776e6572206f7220617070726f76656420666f7220616c6c0000006064820152608401610470565b6105118383610c53565b505050565b6000828152606760205260409020546001600160a01b031661058a5760405162461bcd60e51b815260206004820152602760248201527f5a4e53446f6d61696e3a2055524920736574206f66206e6f6e6578697374656e6044820152663a103a37b5b2b760c91b6064820152608401610470565b60008281526099602090815260409091208251610511928401906115c5565b60006105b460975490565b905090565b6105c33382610cc1565b6105df5760405162461bcd60e51b815260040161047090611a3d565b610511838383610d40565b6000818152606760205260409020546060906001600160a01b03166106645760405162461bcd60e51b815260206004820152602a60248201527f5a4e53446f6d61696e3a2055524920717565727920666f72206e6f6e657869736044820152693a32b73a103a37b5b2b760b11b6064820152608401610470565b6000828152609960205260409020805461067d90611b98565b80601f01602080910402602001604051908101604052809291908181526020018280546106a990611b98565b80156106f65780601f106106cb576101008083540402835291602001916106f6565b820191906000526020600020905b8154815290600101906020018083116106d957829003601f168201915b50505050509050919050565b61051183838360405180602001604052806000815250610ad6565b6000818152606760205260408120546001600160a01b03168061033a5760405162461bcd60e51b8152602060048201526018602482015277115490cdcc8c4e881a5b9d985b1a59081d1bdad95b88125160421b6044820152606401610470565b60006001600160a01b0382166107e75760405162461bcd60e51b815260206004820152602960248201527f4552433732313a2061646472657373207a65726f206973206e6f7420612076616044820152683634b21037bbb732b960b91b6064820152608401610470565b506001600160a01b031660009081526068602052604090205490565b60006001600160a01b03831661085b5760405162461bcd60e51b815260206004820152601a60248201527f5a4e53446f6d61696e3a20496e76616c696420616464726573730000000000006044820152606401610470565b60008251116108ac5760405162461bcd60e51b815260206004820152601d60248201527f5a4e53446f6d61696e3a20546f6b656e2055524920697320656d7074790000006044820152606401610470565b6108ba609780546001019055565b60006108c560975490565b90506108d18482610ea4565b6108db8184610516565b9392505050565b600054610100900460ff16158080156109025750600054600160ff909116105b8061091c5750303b15801561091c575060005460ff166001145b61097f5760405162461bcd60e51b815260206004820152602e60248201527f496e697469616c697a61626c653a20636f6e747261637420697320616c72656160448201526d191e481a5b9a5d1a585b1a5e995960921b6064820152608401610470565b6000805460ff1916600117905580156109a2576000805461ff0019166101001790555b60985460ff1615610a085760405162461bcd60e51b815260206004820152602a60248201527f5a4e53446f6d61696e3a20436f6e747261637420697320616c726561647920696044820152691b9a5d1a585b1a5e995960b21b6064820152608401610470565b610a626040518060400160405280601781526020017f5a65726f204e616d65205365727669636520285a4e5329000000000000000000815250604051806040016040528060038152602001625a4e5360e81b815250610ebe565b6098805460ff191660011790558015610ab5576000805461ff0019169055604051600181527f7f26b83ff96e1f2b6a682f133852f6798a09c465da95921460cefb38474024989060200160405180910390a15b50565b60606066805461035190611b98565b610ad2338383610eef565b5050565b610ae03383610cc1565b610afc5760405162461bcd60e51b815260040161047090611a3d565b610b0884848484610fbe565b50505050565b6060610b1982610bf4565b6000610b3060408051602081019091526000815290565b90506000815111610b5057604051806020016040528060008152506108db565b80610b5a84610ff1565b604051602001610b6b9291906119be565b6040516020818303038152906040529392505050565b610b8b8183610cc1565b610beb5760405162461bcd60e51b815260206004820152602b60248201527f5a4e53446f6d61696e3a2063616c6c6572206973206e6f74206f776e6572206e60448201526a1bdc88185c1c1c9bdd995960aa1b6064820152608401610470565b610ad28261109c565b6000818152606760205260409020546001600160a01b0316610ab55760405162461bcd60e51b8152602060048201526018602482015277115490cdcc8c4e881a5b9d985b1a59081d1bdad95b88125160421b6044820152606401610470565b600081815260696020526040902080546001600160a01b0319166001600160a01b0384169081179091558190610c888261071d565b6001600160a01b03167f8c5be1e5ebec7d5bd14f71427d1e84f3dd0314c0f7b2291e5b200ac8c7c3b92560405160405180910390a45050565b600080610ccd8361071d565b9050806001600160a01b0316846001600160a01b03161480610d1457506001600160a01b038082166000908152606a602090815260408083209388168352929052205460ff165b80610d385750836001600160a01b0316610d2d846103d4565b6001600160a01b0316145b949350505050565b826001600160a01b0316610d538261071d565b6001600160a01b031614610d795760405162461bcd60e51b815260040161047090611adc565b6001600160a01b038216610ddb5760405162461bcd60e51b8152602060048201526024808201527f4552433732313a207472616e7366657220746f20746865207a65726f206164646044820152637265737360e01b6064820152608401610470565b826001600160a01b0316610dee8261071d565b6001600160a01b031614610e145760405162461bcd60e51b815260040161047090611adc565b600081815260696020908152604080832080546001600160a01b03199081169091556001600160a01b0387811680865260688552838620805460001901905590871680865283862080546001019055868652606790945282852080549092168417909155905184937fddf252ad1be2c89b69c2b068fc378daa952ba7f163c4a11628f55a4df523b3ef91a4610511565b610ad28282604051806020016040528060008152506110e6565b600054610100900460ff16610ee55760405162461bcd60e51b815260040161047090611b21565b610ad28282611119565b816001600160a01b0316836001600160a01b03161415610f515760405162461bcd60e51b815260206004820152601960248201527f4552433732313a20617070726f766520746f2063616c6c6572000000000000006044820152606401610470565b6001600160a01b038381166000818152606a6020908152604080832094871680845294825291829020805460ff191686151590811790915591519182527f17307eab39ab6107e8899845ad3d59bd9653f200f220920489ca2b5937696c31910160405180910390a3505050565b610fc9848484610d40565b610fd584848484611167565b610b085760405162461bcd60e51b815260040161047090611a8a565b60606000610ffe83611274565b600101905060008167ffffffffffffffff81111561102c57634e487b7160e01b600052604160045260246000fd5b6040519080825280601f01601f191660200182016040528015611056576020820181803683370190505b5090508181016020015b600019016f181899199a1a9b1b9c1cb0b131b232b360811b600a86061a8153600a850494508461108f57611094565b611060565b509392505050565b6110a58161134c565b600081815260996020526040902080546110be90611b98565b159050610ab55760008181526099602052604081206110dc91611649565b610ab560976113e2565b6110f08383611439565b6110fd6000848484611167565b6105115760405162461bcd60e51b815260040161047090611a8a565b600054610100900460ff166111405760405162461bcd60e51b815260040161047090611b21565b81516111539060659060208501906115c5565b5080516105119060669060208401906115c5565b60006001600160a01b0384163b1561126957604051630a85bd0160e11b81526001600160a01b0385169063150b7a02906111ab9033908990889088906004016119ed565b602060405180830381600087803b1580156111c557600080fd5b505af19250505080156111f5575060408051601f3d908101601f191682019092526111f29181019061190d565b60015b61124f573d808015611223576040519150601f19603f3d011682016040523d82523d6000602084013e611228565b606091505b5080516112475760405162461bcd60e51b815260040161047090611a8a565b805181602001fd5b6001600160e01b031916630a85bd0160e11b149050610d38565b506001949350505050565b60008072184f03e93ff9f4daa797ed6e38ed64bf6a1f0160401b83106112b35772184f03e93ff9f4daa797ed6e38ed64bf6a1f0160401b830492506040015b6d04ee2d6d415b85acef810000000083106112df576d04ee2d6d415b85acef8100000000830492506020015b662386f26fc1000083106112fd57662386f26fc10000830492506010015b6305f5e1008310611315576305f5e100830492506008015b612710831061132957612710830492506004015b6064831061133b576064830492506002015b600a831061033a5760010192915050565b60006113578261071d565b90506113628261071d565b600083815260696020908152604080832080546001600160a01b03199081169091556001600160a01b0385168085526068845282852080546000190190558785526067909352818420805490911690555192935084927fddf252ad1be2c89b69c2b068fc378daa952ba7f163c4a11628f55a4df523b3ef908390a4610ad2565b8054806114315760405162461bcd60e51b815260206004820152601b60248201527f436f756e7465723a2064656372656d656e74206f766572666c6f7700000000006044820152606401610470565b600019019055565b6001600160a01b03821661148f5760405162461bcd60e51b815260206004820181905260248201527f4552433732313a206d696e7420746f20746865207a65726f20616464726573736044820152606401610470565b6000818152606760205260409020546001600160a01b0316156114f45760405162461bcd60e51b815260206004820152601c60248201527f4552433732313a20746f6b656e20616c7265616479206d696e746564000000006044820152606401610470565b6000818152606760205260409020546001600160a01b0316156115595760405162461bcd60e51b815260206004820152601c60248201527f4552433732313a20746f6b656e20616c7265616479206d696e746564000000006044820152606401610470565b6001600160a01b038216600081815260686020908152604080832080546001019055848352606790915280822080546001600160a01b0319168417905551839291907fddf252ad1be2c89b69c2b068fc378daa952ba7f163c4a11628f55a4df523b3ef908290a4610ad2565b8280546115d190611b98565b90600052602060002090601f0160209004810192826115f35760008555611639565b82601f1061160c57805160ff1916838001178555611639565b82800160010185558215611639579182015b8281111561163957825182559160200191906001019061161e565b50611645929150611681565b5090565b50805461165590611b98565b6000825580601f106116675750610ab5565b601f016020900490600052602060002090810190610ab591905b5b808211156116455760008155600101611682565b600067ffffffffffffffff808411156116b1576116b1611bd3565b604051601f8501601f19908116603f011681019082821181831017156116d9576116d9611bd3565b816040528093508581528686860111156116f257600080fd5b858560208301376000602087830101525050509392505050565b80356001600160a01b038116811461033d57600080fd5b600082601f830112611733578081fd5b6108db83833560208501611696565b600060208284031215611753578081fd5b6108db8261170c565b6000806040838503121561176e578081fd5b6117778361170c565b91506117856020840161170c565b90509250929050565b6000806000606084860312156117a2578081fd5b6117ab8461170c565b92506117b96020850161170c565b9150604084013590509250925092565b600080600080608085870312156117de578081fd5b6117e78561170c565b93506117f56020860161170c565b925060408501359150606085013567ffffffffffffffff811115611817578182fd5b8501601f81018713611827578182fd5b61183687823560208401611696565b91505092959194509250565b60008060408385031215611854578182fd5b61185d8361170c565b915060208301358015158114611871578182fd5b809150509250929050565b6000806040838503121561188e578182fd5b6118978361170c565b9150602083013567ffffffffffffffff8111156118b2578182fd5b6118be85828601611723565b9150509250929050565b600080604083850312156118da578182fd5b6118e38361170c565b946020939093013593505050565b600060208284031215611902578081fd5b81356108db81611be9565b60006020828403121561191e578081fd5b81516108db81611be9565b60006020828403121561193a578081fd5b5035919050565b60008060408385031215611953578182fd5b823591506117856020840161170c565b60008060408385031215611975578182fd5b82359150602083013567ffffffffffffffff8111156118b2578182fd5b600081518084526119aa816020860160208601611b6c565b601f01601f19169290920160200192915050565b600083516119d0818460208801611b6c565b8351908301906119e4818360208801611b6c565b01949350505050565b6001600160a01b0385811682528416602082015260408101839052608060608201819052600090611a2090830184611992565b9695505050505050565b6000602082526108db6020830184611992565b6020808252602d908201527f4552433732313a2063616c6c6572206973206e6f7420746f6b656e206f776e6560408201526c1c881bdc88185c1c1c9bdd9959609a1b606082015260800190565b60208082526032908201527f4552433732313a207472616e7366657220746f206e6f6e20455243373231526560408201527131b2b4bb32b91034b6b83632b6b2b73a32b960711b606082015260800190565b60208082526025908201527f4552433732313a207472616e736665722066726f6d20696e636f72726563742060408201526437bbb732b960d91b606082015260800190565b6020808252602b908201527f496e697469616c697a61626c653a20636f6e7472616374206973206e6f74206960408201526a6e697469616c697a696e6760a81b606082015260800190565b60005b83811015611b87578181015183820152602001611b6f565b83811115610b085750506000910152565b600281046001821680611bac57607f821691505b60208210811415611bcd57634e487b7160e01b600052602260045260246000fd5b50919050565b634e487b7160e01b600052604160045260246000fd5b6001600160e01b031981168114610ab557600080fdfea26469706673582212203bdc1caba3c55e68a02b04d04b117f0c2b8d9dfa51c5215511bb850beaa913cf64736f6c63430008020033",
  "immutableReferences": {},
  "source": "/**\n  @title ZNSDomain\n  @dev Contract for issuing ZNS domains\n  SPDX-License-Identifier: MIT\n*/\n\npragma solidity ^0.8.0;\n\nimport \"@openzeppelin/contracts-upgradeable/token/ERC721/ERC721Upgradeable.sol\";\nimport \"@openzeppelin/contracts-upgradeable/utils/CountersUpgradeable.sol\";\nimport \"@openzeppelin/contracts-upgradeable/proxy/utils/Initializable.sol\";\nimport \"@openzeppelin/contracts-upgradeable/utils/math/SafeMathUpgradeable.sol\";\n\n/**\n * @title ZNSDomain\n * @dev ERC721 contract for Zero Name Service (ZNS) domains.\n*/\ncontract ZNSDomain is Initializable, ERC721Upgradeable {\n  using SafeMathUpgradeable for uint256;\n  using CountersUpgradeable for CountersUpgradeable.Counter;\n  CountersUpgradeable.Counter private _domainIds;\n  bool public initialized;\n\n  mapping(uint256 => string) private _tokenURIs;\n\n  /**\n   * @dev Initializes the contract.\n  */\n  function initialize() public initializer {\n    require(!initialized, \"ZNSDomain: Contract is already initialized\");\n    __ERC721_init(\"Zero Name Service (ZNS)\", \"ZNS\");\n    initialized = true;\n  }\n\n  /**\n   * @dev Mint a new domain.\n   * @param to The address to mint the domain to.\n   * @param tokenURI The URI of the domain metadata.\n   * @return The ID of the newly minted domain.\n  */\n  function mintDomain(address to, string memory tokenURI) external returns (uint256) {\n    // Validate inputs\n    require(to != address(0), \"ZNSDomain: Invalid address\");\n    require(bytes(tokenURI).length > 0, \"ZNSDomain: Token URI is empty\");\n\n    // Increment domain ID\n    _domainIds.increment();\n\n    // Mint new domain + set token URI\n    uint256 newDomainId = _domainIds.current();\n    _safeMint(to, newDomainId);\n    setTokenURI(newDomainId, tokenURI);\n    \n    return newDomainId;\n  }\n\n  /**\n   * @dev Sets the URI of the domain metadata.\n   * @param tokenId The ID of the domain to set the URI for.\n   * @param tokenURI The new URI for the domain metadata.\n  */\n  function setTokenURI(uint256 tokenId, string memory tokenURI) public {\n    require(_exists(tokenId), \"ZNSDomain: URI set of nonexistent token\");\n    _tokenURIs[tokenId] = tokenURI;\n  }\n\n  /**\n   * @dev Gets the URI of the domain metadata.\n   * @param tokenId The ID of the domain to get the URI for.\n   * @return The URI of the domain metadata.\n  */\n  function getTokenURI(uint256 tokenId) public view returns (string memory) {\n    require(_exists(tokenId), \"ZNSDomain: URI query for nonexistent token\");\n    return _tokenURIs[tokenId];\n  }\n\n  /**\n   * @dev Gets the total number of domains minted.\n   * @return The total number of domains minted.\n  */\n  function totalSupply() public view returns (uint256) {\n    return _domainIds.current();\n  }\n\n  /**\n   * @dev Burns a domain.\n   * @param tokenId The ID of the domain to burn.\n  */\n    function burn(uint256 tokenId, address owner) public {\n    require(_isApprovedOrOwner(owner, tokenId), \"ZNSDomain: caller is not owner nor approved\");\n    _burn(tokenId);\n  }\n\n  /**\n    @dev Internal function to burn a domain.\n    @param tokenId uint256 ID of the token to be burned.\n    Requirements:\n    The caller must be approved or owner of the token.\n    The token must exist.\n  */\n    function _burn(uint256 tokenId) internal override(ERC721Upgradeable) {\n      super._burn(tokenId);\n      if (bytes(_tokenURIs[tokenId]).length != 0) {\n      delete _tokenURIs[tokenId];\n      _domainIds.decrement();\n    }\n  }\n\n  uint256[49] private __gap;\n}",
  "sourcePath": "/Users/n3o/Code/zNS/contracts/ZNSDomain.sol",
  "compiler": {
    "name": "solc",
    "version": "0.8.2+commit.661d1103.Emscripten.clang"
  },
  "schemaVersion": "3.4.13",
  "updatedAt": "2023-05-08T07:08:16.731Z",
  "devdoc": {
    "details": "ERC721 contract for Zero Name Service (ZNS) domains.",
    "kind": "dev",
    "methods": {
      "approve(address,uint256)": {
        "details": "See {IERC721-approve}."
      },
      "balanceOf(address)": {
        "details": "See {IERC721-balanceOf}."
      },
      "burn(uint256,address)": {
        "details": "Burns a domain.",
        "params": {
          "tokenId": "The ID of the domain to burn."
        }
      },
      "getApproved(uint256)": {
        "details": "See {IERC721-getApproved}."
      },
      "getTokenURI(uint256)": {
        "details": "Gets the URI of the domain metadata.",
        "params": {
          "tokenId": "The ID of the domain to get the URI for."
        },
        "returns": {
          "_0": "The URI of the domain metadata."
        }
      },
      "initialize()": {
        "details": "Initializes the contract."
      },
      "isApprovedForAll(address,address)": {
        "details": "See {IERC721-isApprovedForAll}."
      },
      "mintDomain(address,string)": {
        "details": "Mint a new domain.",
        "params": {
          "to": "The address to mint the domain to.",
          "tokenURI": "The URI of the domain metadata."
        },
        "returns": {
          "_0": "The ID of the newly minted domain."
        }
      },
      "name()": {
        "details": "See {IERC721Metadata-name}."
      },
      "ownerOf(uint256)": {
        "details": "See {IERC721-ownerOf}."
      },
      "safeTransferFrom(address,address,uint256)": {
        "details": "See {IERC721-safeTransferFrom}."
      },
      "safeTransferFrom(address,address,uint256,bytes)": {
        "details": "See {IERC721-safeTransferFrom}."
      },
      "setApprovalForAll(address,bool)": {
        "details": "See {IERC721-setApprovalForAll}."
      },
      "setTokenURI(uint256,string)": {
        "details": "Sets the URI of the domain metadata.",
        "params": {
          "tokenId": "The ID of the domain to set the URI for.",
          "tokenURI": "The new URI for the domain metadata."
        }
      },
      "supportsInterface(bytes4)": {
        "details": "See {IERC165-supportsInterface}."
      },
      "symbol()": {
        "details": "See {IERC721Metadata-symbol}."
      },
      "tokenURI(uint256)": {
        "details": "See {IERC721Metadata-tokenURI}."
      },
      "totalSupply()": {
        "details": "Gets the total number of domains minted.",
        "returns": {
          "_0": "The total number of domains minted."
        }
      },
      "transferFrom(address,address,uint256)": {
        "details": "See {IERC721-transferFrom}."
      }
    },
    "title": "ZNSDomain",
    "version": 1
  },
  "userdoc": {
    "kind": "user",
    "methods": {},
    "version": 1
  }
}