{
  "contractName": "ZNSRegistrar",
  "abi": [
    {
      "anonymous": false,
      "inputs": [
        {
          "indexed": true,
          "internalType": "uint256",
          "name": "tokenId",
          "type": "uint256"
        },
        {
          "indexed": true,
          "internalType": "string",
          "name": "domainName",
          "type": "string"
        },
        {
          "indexed": true,
          "internalType": "address",
          "name": "owner",
          "type": "address"
        }
      ],
      "name": "DomainMinted",
      "type": "event"
    },
    {
      "anonymous": false,
      "inputs": [
        {
          "indexed": false,
          "internalType": "uint8",
          "name": "version",
          "type": "uint8"
        }
      ],
      "name": "Initialized",
      "type": "event"
    },
    {
      "inputs": [],
      "name": "domainCost",
      "outputs": [
        {
          "internalType": "uint256",
          "name": "",
          "type": "uint256"
        }
      ],
      "stateMutability": "view",
      "type": "function"
    },
    {
      "inputs": [],
      "name": "initialized",
      "outputs": [
        {
          "internalType": "bool",
          "name": "",
          "type": "bool"
        }
      ],
      "stateMutability": "view",
      "type": "function"
    },
    {
      "inputs": [],
      "name": "zeroToken",
      "outputs": [
        {
          "internalType": "contract IERC20Upgradeable",
          "name": "",
          "type": "address"
        }
      ],
      "stateMutability": "view",
      "type": "function"
    },
    {
      "inputs": [],
      "name": "znsDomain",
      "outputs": [
        {
          "internalType": "contract ZNSDomain",
          "name": "",
          "type": "address"
        }
      ],
      "stateMutability": "view",
      "type": "function"
    },
    {
      "inputs": [],
      "name": "znsStaking",
      "outputs": [
        {
          "internalType": "contract ZNSStaking",
          "name": "",
          "type": "address"
        }
      ],
      "stateMutability": "view",
      "type": "function"
    },
    {
      "inputs": [
        {
          "internalType": "contract ZNSDomain",
          "name": "_znsDomain",
          "type": "address"
        },
        {
          "internalType": "contract IERC20Upgradeable",
          "name": "_zeroToken",
          "type": "address"
        },
        {
          "internalType": "contract ZNSStaking",
          "name": "_znsStaking",
          "type": "address"
        },
        {
          "internalType": "uint256",
          "name": "_domainCost",
          "type": "uint256"
        }
      ],
      "name": "initialize",
      "outputs": [],
      "stateMutability": "nonpayable",
      "type": "function"
    },
    {
      "inputs": [
        {
          "internalType": "string",
          "name": "domainName",
          "type": "string"
        },
        {
          "internalType": "string",
          "name": "tokenURI",
          "type": "string"
        }
      ],
      "name": "mintDomain",
      "outputs": [],
      "stateMutability": "nonpayable",
      "type": "function"
    },
    {
      "inputs": [
        {
          "internalType": "uint256",
          "name": "tokenId",
          "type": "uint256"
        }
      ],
      "name": "destroyDomain",
      "outputs": [],
      "stateMutability": "nonpayable",
      "type": "function"
    },
    {
      "inputs": [
        {
          "internalType": "string",
          "name": "domainName",
          "type": "string"
        }
      ],
      "name": "domainNameToTokenId",
      "outputs": [
        {
          "internalType": "uint256",
          "name": "",
          "type": "uint256"
        }
      ],
      "stateMutability": "view",
      "type": "function"
    },
    {
      "inputs": [
        {
          "internalType": "string",
          "name": "domainName",
          "type": "string"
        }
      ],
      "name": "domainNameToTokenURI",
      "outputs": [
        {
          "internalType": "string",
          "name": "",
          "type": "string"
        }
      ],
      "stateMutability": "view",
      "type": "function"
    },
    {
      "inputs": [
        {
          "internalType": "uint256",
          "name": "tokenId",
          "type": "uint256"
        },
        {
          "internalType": "string",
          "name": "newTokenURI",
          "type": "string"
        }
      ],
      "name": "updateTokenURI",
      "outputs": [],
      "stateMutability": "nonpayable",
      "type": "function"
    },
    {
      "inputs": [
        {
          "internalType": "uint256",
          "name": "_newDomainCost",
          "type": "uint256"
        }
      ],
      "name": "setDomainCost",
      "outputs": [],
      "stateMutability": "nonpayable",
      "type": "function"
    }
  ],
  "bytecode": "0x608060405234801561001057600080fd5b506116e2806100206000396000f3fe608060405234801561001057600080fd5b50600436106100b45760003560e01c806353137a781161007157806353137a781461017a578063b70262671461018d578063cf756fdf146101a0578063db82219b146101b3578063e0db7c40146101c6578063f294bd92146101cf576100b4565b8063030a1d9b146100b95780630a4f878e146100e2578063158ef93e1461010357806317f641b71461012757806318e97fd1146101525780632ce443dd14610167575b600080fd5b6100cc6100c736600461137e565b6101e2565b6040516100d99190611525565b60405180910390f35b6100f56100f036600461137e565b6102da565b6040519081526020016100d9565b60365461011790600160a01b900460ff1681565b60405190151581526020016100d9565b60365461013a906001600160a01b031681565b6040516001600160a01b0390911681526020016100d9565b610165610160366004611442565b61033f565b005b610165610175366004611412565b603355565b610165610188366004611412565b61048a565b61016561019b3660046113b1565b610721565b6101656101ae36600461132e565b610c3c565b60345461013a906001600160a01b031681565b6100f560335481565b60355461013a906001600160a01b031681565b60606037826040516101f491906114e5565b908152604051908190036020019020546102295760405162461bcd60e51b815260040161022090611538565b60405180910390fd5b60378260405161023991906114e5565b9081526020016040518091039020600101805461025590611646565b80601f016020809104026020016040519081016040528092919081815260200182805461028190611646565b80156102ce5780601f106102a3576101008083540402835291602001916102ce565b820191906000526020600020905b8154815290600101906020018083116102b157829003601f168201915b50505050509050919050565b60006037826040516102ec91906114e5565b908152604051908190036020019020546103185760405162461bcd60e51b815260040161022090611538565b60378260405161032891906114e5565b908152604051908190036020019020549050919050565b6034546040516331a9108f60e11b81526004810185905233916001600160a01b031690636352211e9060240160206040518083038186803b15801561038357600080fd5b505afa158015610397573d6000803e3d6000fd5b505050506040513d601f19601f820116820180604052508101906103bb91906112eb565b6001600160a01b03161461041f5760405162461bcd60e51b815260206004820152602560248201527f43616c6c6572206973206e6f7420746865206f776e6572206f6620746865206460448201526437b6b0b4b760d91b6064820152608401610220565b603454604051630588253160e21b81526001600160a01b039091169063162094c490610453908690869086906004016115cb565b600060405180830381600087803b15801561046d57600080fd5b505af1158015610481573d6000803e3d6000fd5b50505050505050565b600081815260386020526040812080546104a390611646565b80601f01602080910402602001604051908101604052809291908181526020018280546104cf90611646565b801561051c5780601f106104f15761010080835404028352916020019161051c565b820191906000526020600020905b8154815290600101906020018083116104ff57829003601f168201915b50506034546040516331a9108f60e11b81526004810188905294955033946001600160a01b039091169350636352211e9250602401905060206040518083038186803b15801561056b57600080fd5b505afa15801561057f573d6000803e3d6000fd5b505050506040513d601f19601f820116820180604052508101906105a391906112eb565b6001600160a01b0316146106125760405162461bcd60e51b815260206004820152603060248201527f4f6e6c792074686520646f6d61696e206f776e65722063616e2077697468647260448201526f6177207374616b656420746f6b656e7360801b6064820152608401610220565b60365460405162676a6360e81b8152600481018490523360248201526001600160a01b039091169063676a630090604401600060405180830381600087803b15801561065d57600080fd5b505af1158015610671573d6000803e3d6000fd5b5050505060378160405161068591906114e5565b90815260405190819003602001902060008082556106a6600183018261118c565b505060008281526038602052604081206106bf9161118c565b603454604051630852cd8d60e31b8152600481018490526001600160a01b03909116906342966c6890602401600060405180830381600087803b15801561070557600080fd5b505af1158015610719573d6000803e3d6000fd5b505050505050565b610729610e10565b6033546035546040516370a0823160e01b81523360048201526001600160a01b03909116906370a082319060240160206040518083038186803b15801561076f57600080fd5b505afa158015610783573d6000803e3d6000fd5b505050506040513d601f19601f820116820180604052508101906107a7919061142a565b101561080b5760405162461bcd60e51b815260206004820152602d60248201527f5a4e535265676973747261723a20496e73756666696369656e74205a65726f2060448201526c546f6b656e2062616c616e636560981b6064820152608401610220565b603354603554604051636eb1769f60e11b81523360048201523060248201526001600160a01b039091169063dd62ed3e9060440160206040518083038186803b15801561085757600080fd5b505afa15801561086b573d6000803e3d6000fd5b505050506040513d601f19601f8201168201806040525081019061088f919061142a565b10156108f25760405162461bcd60e51b815260206004820152602c60248201527f5a4e535265676973747261723a20546f6b656e20616c6c6f77616e6365206e6f60448201526b1d081cdd59999a58da595b9d60a21b6064820152608401610220565b600060378360405161090491906114e5565b9081526040519081900360200190208054909150156109845760405162461bcd60e51b815260206004820152603660248201527f5a4e535265676973747261723a20446f6d61696e206e616d6520616c7265616460448201527503c9032bc34b9ba39903bb4ba34103a37b5b2b724b2160551b6064820152608401610220565b6036546001600160a01b03166109f35760405162461bcd60e51b815260206004820152602e60248201527f5a4e535265676973747261723a20496e76616c6964207374616b696e6720636f60448201526d6e7472616374206164647265737360901b6064820152608401610220565b603554603654603354610a16926001600160a01b03908116923392911690610e6a565b603454604051633f685b4760e11b81526000916001600160a01b031690637ed0b68e90610a499033908790600401611501565b602060405180830381600087803b158015610a6357600080fd5b505af1158015610a77573d6000803e3d6000fd5b505050506040513d601f19601f82011682018060405250810190610a9b919061142a565b603454604051630588253160e21b81529192506001600160a01b03169063162094c490610ace9084908790600401611601565b600060405180830381600087803b158015610ae857600080fd5b505af1158015610afc573d6000803e3d6000fd5b50505050604051806040016040528082815260200184815250603785604051610b2591906114e5565b9081526020016040518091039020600082015181600001556020820151816001019080519060200190610b599291906111cb565b50505060008181526038602090815260409091208551610b7b928701906111cb565b50603654603354604051635cab182160e11b81526004810184905260248101919091523360448201526001600160a01b039091169063b956304290606401600060405180830381600087803b158015610bd357600080fd5b505af1158015610be7573d6000803e3d6000fd5b5050604051339250610bfb915086906114e5565b6040519081900381209083907f0e431fa36c8fa113ab180c80dddb81b59911b7c16b785a5838ff15cd5fd0420490600090a45050610c3860018055565b5050565b600054610100900460ff1615808015610c5c5750600054600160ff909116105b80610c765750303b158015610c76575060005460ff166001145b610cd95760405162461bcd60e51b815260206004820152602e60248201527f496e697469616c697a61626c653a20636f6e747261637420697320616c72656160448201526d191e481a5b9a5d1a585b1a5e995960921b6064820152608401610220565b6000805460ff191660011790558015610cfc576000805461ff0019166101001790555b603654600160a01b900460ff1615610d6c5760405162461bcd60e51b815260206004820152602d60248201527f5a4e535265676973747261723a20436f6e747261637420697320616c7265616460448201526c1e481a5b9a5d1a585b1a5e9959609a1b6064820152608401610220565b610d74610ed0565b603480546001600160a01b03199081166001600160a01b0380891691909117909255603580548216838816179055603680546033869055600160a01b92169286169290921760ff60a01b19161790558015610e09576000805461ff0019169055604051600181527f7f26b83ff96e1f2b6a682f133852f6798a09c465da95921460cefb38474024989060200160405180910390a15b5050505050565b60026001541415610e635760405162461bcd60e51b815260206004820152601f60248201527f5265656e7472616e637947756172643a207265656e7472616e742063616c6c006044820152606401610220565b6002600155565b604080516001600160a01b0385811660248301528416604482015260648082018490528251808303909101815260849091019091526020810180516001600160e01b03166323b872dd60e01b179052610ec4908590610f01565b50505050565b60018055565b600054610100900460ff16610ef75760405162461bcd60e51b815260040161022090611580565b610eff610fd8565b565b6000610f56826040518060400160405280602081526020017f5361666545524332303a206c6f772d6c6576656c2063616c6c206661696c6564815250856001600160a01b0316610fff9092919063ffffffff16565b805190915015610fd35780806020019051810190610f74919061130e565b610fd35760405162461bcd60e51b815260206004820152602a60248201527f5361666545524332303a204552433230206f7065726174696f6e20646964206e6044820152691bdd081cdd58d8d9595960b21b6064820152608401610220565b505050565b600054610100900460ff16610eca5760405162461bcd60e51b815260040161022090611580565b606061100e8484600085611016565b949350505050565b6060824710156110775760405162461bcd60e51b815260206004820152602660248201527f416464726573733a20696e73756666696369656e742062616c616e636520666f6044820152651c8818d85b1b60d21b6064820152608401610220565b600080866001600160a01b0316858760405161109391906114e5565b60006040518083038185875af1925050503d80600081146110d0576040519150601f19603f3d011682016040523d82523d6000602084013e6110d5565b606091505b50915091506110e6878383876110f1565b979650505050505050565b6060831561115d578251611156576001600160a01b0385163b6111565760405162461bcd60e51b815260206004820152601d60248201527f416464726573733a2063616c6c20746f206e6f6e2d636f6e74726163740000006044820152606401610220565b508161100e565b61100e83838151156111725781518083602001fd5b8060405162461bcd60e51b81526004016102209190611525565b50805461119890611646565b6000825580601f106111aa57506111c8565b601f0160209004906000526020600020908101906111c8919061124f565b50565b8280546111d790611646565b90600052602060002090601f0160209004810192826111f9576000855561123f565b82601f1061121257805160ff191683800117855561123f565b8280016001018555821561123f579182015b8281111561123f578251825591602001919060010190611224565b5061124b92915061124f565b5090565b5b8082111561124b5760008155600101611250565b600082601f830112611274578081fd5b813567ffffffffffffffff8082111561128f5761128f611681565b604051601f8301601f19908116603f011681019082821181831017156112b7576112b7611681565b816040528381528660208588010111156112cf578485fd5b8360208701602083013792830160200193909352509392505050565b6000602082840312156112fc578081fd5b815161130781611697565b9392505050565b60006020828403121561131f578081fd5b81518015158114611307578182fd5b60008060008060808587031215611343578283fd5b843561134e81611697565b9350602085013561135e81611697565b9250604085013561136e81611697565b9396929550929360600135925050565b60006020828403121561138f578081fd5b813567ffffffffffffffff8111156113a5578182fd5b61100e84828501611264565b600080604083850312156113c3578182fd5b823567ffffffffffffffff808211156113da578384fd5b6113e686838701611264565b935060208501359150808211156113fb578283fd5b5061140885828601611264565b9150509250929050565b600060208284031215611423578081fd5b5035919050565b60006020828403121561143b578081fd5b5051919050565b600080600060408486031215611456578283fd5b83359250602084013567ffffffffffffffff80821115611474578384fd5b818601915086601f830112611487578384fd5b813581811115611495578485fd5b8760208285010111156114a6578485fd5b6020830194508093505050509250925092565b600081518084526114d181602086016020860161161a565b601f01601f19169290920160200192915050565b600082516114f781846020870161161a565b9190910192915050565b6001600160a01b038316815260406020820181905260009061100e908301846114b9565b60006020825261130760208301846114b9565b60208082526028908201527f5a4e535265676973747261723a20446f6d61696e206e616d6520646f6573206e6040820152671bdd08195e1a5cdd60c21b606082015260800190565b6020808252602b908201527f496e697469616c697a61626c653a20636f6e7472616374206973206e6f74206960408201526a6e697469616c697a696e6760a81b606082015260800190565b60008482526040602083015282604083015282846060840137818301606090810191909152601f909201601f1916010192915050565b60008382526040602083015261100e60408301846114b9565b60005b8381101561163557818101518382015260200161161d565b83811115610ec45750506000910152565b60028104600182168061165a57607f821691505b6020821081141561167b57634e487b7160e01b600052602260045260246000fd5b50919050565b634e487b7160e01b600052604160045260246000fd5b6001600160a01b03811681146111c857600080fdfea2646970667358221220437a572a9ddbdc4205c689b273841d986dd72c1065fa4526bea510ef1cf4ed1d64736f6c63430008020033",
  "immutableReferences": {},
  "source": "/**\n  @title ZNSRegistrar\n  @dev Contract for registering and updating ZNS domains\n  @notice This contract allows users to register Zero Name Service (ZNS) domains\n  @notice A ZNS domain is an ERC721 NFT token with a URI\n  @notice Each domain costs a specified amount of Zero Tokens\n  SPDX-License-Identifier: MIT\n*/\n\npragma solidity ^0.8.0;\n\nimport \"@openzeppelin/contracts-upgradeable/token/ERC20/IERC20Upgradeable.sol\";\nimport \"@openzeppelin/contracts-upgradeable/security/ReentrancyGuardUpgradeable.sol\";\nimport \"@openzeppelin/contracts-upgradeable/token/ERC20/utils/SafeERC20Upgradeable.sol\";\nimport \"@openzeppelin/contracts-upgradeable/utils/math/SafeMathUpgradeable.sol\";\nimport \"@openzeppelin/contracts-upgradeable/proxy/utils/Initializable.sol\";\nimport \"./ZNSDomain.sol\";\nimport \"./ZNSStaking.sol\";\n\ncontract ZNSRegistrar is Initializable, ReentrancyGuardUpgradeable {\n  using SafeMathUpgradeable for uint256;\n  uint256 public domainCost;\n  ZNSDomain public znsDomain;\n  IERC20Upgradeable public zeroToken;\n  ZNSStaking public znsStaking;\n  bool public initialized;\n\n  // To Do: Add hash of domain name to prevent duplicate and/orlong domain names\n  // To Do: Add domain name\n  // To Do: Add resolver\n\n  /**\n   * @dev Stores information about a registered domain.\n   * @param tokenId The token ID of the NFT representing the domain.\n   * @param tokenURI The metadata URI of the NFT representing the domain.\n  */\n  struct Domain {\n    uint256 tokenId;\n    string tokenURI;\n  }\n\n  mapping(string => Domain) private _domains;\n  mapping(uint256 => string) private _tokenIdsToDomains;\n\n  /**\n    @dev Event emitted when a domain is minted\n    @param tokenId The ID of the minted domain\n    @param domainName The name of the minted domain\n    @param owner The address of the domain owner\n  */\n  event DomainMinted(uint256 indexed tokenId, string indexed domainName, address indexed owner);\n\n  /**\n    @dev Initializes the ZNSRegistrar contract\n    @param _znsDomain The address of the ZNSDomain contract\n    @param _zeroToken The address of the Zero Token contract\n    @param _znsStaking The address of the ZNSStaking contract\n    @param _domainCost The cost of registering a domain in Zero Tokens\n  */\n  function initialize(ZNSDomain _znsDomain, IERC20Upgradeable _zeroToken, ZNSStaking _znsStaking, uint256 _domainCost) public initializer {\n    require(!initialized, \"ZNSRegistrar: Contract is already initialized\");\n    __ReentrancyGuard_init();\n    __ZNSRegistrar_init(_znsDomain, _zeroToken, _znsStaking, _domainCost);\n}\n\n  function __ZNSRegistrar_init(ZNSDomain _znsDomain, IERC20Upgradeable _zeroToken, ZNSStaking _znsStaking, uint256 _domainCost) internal {\n    znsDomain = _znsDomain;\n    zeroToken = _zeroToken;        \n    znsStaking = _znsStaking;\n    domainCost = _domainCost;\n    initialized = true;\n  }\n\n  /**\n    @dev Mints a new domain\n    @param domainName The name of the domain to be minted\n    @param tokenURI The URI of the domain token\n  */\n  function mintDomain(string memory domainName, string memory tokenURI) public nonReentrant {\n    require(zeroToken.balanceOf(msg.sender) >= domainCost, \"ZNSRegistrar: Insufficient Zero Token balance\");\n    require(zeroToken.allowance(msg.sender, address(this)) >= domainCost, \"ZNSRegistrar: Token allowance not sufficient\");\n\n    // Check if the domain name already exists\n    Domain storage existingDomain = _domains[domainName];\n    require(existingDomain.tokenId == 0, \"ZNSRegistrar: Domain name already exists with tokenId \");\n\n    // Ensure that the staking contract address is valid\n    require(address(znsStaking) != address(0), \"ZNSRegistrar: Invalid staking contract address\");\n\n    // Transfer tokens from sender directly to staking contract using SafeERC20\n    SafeERC20Upgradeable.safeTransferFrom(zeroToken, msg.sender, address(znsStaking), domainCost);\n\n    // Mint the domain\n    uint256 newDomainId = znsDomain.mintDomain(msg.sender, tokenURI);\n    znsDomain.setTokenURI(newDomainId, tokenURI);\n    _domains[domainName] = Domain(newDomainId, tokenURI);\n\n    // Store mapping between token ID and domain name\n    _tokenIdsToDomains[newDomainId] = domainName;\n\n    // Add stake\n    znsStaking.addStake(newDomainId, domainCost, msg.sender);\n\n    emit DomainMinted(newDomainId, domainName, msg.sender);\n  }\n\n  /**\n    * @dev Destroys a domain.\n    * @param tokenId The ID of the domain to be destroyed.\n  */\n  function destroyDomain(uint256 tokenId) public {\n    // Look up domain name by token ID\n    string memory domainName = _tokenIdsToDomains[tokenId];\n\n    // Check if the sender is the owner of the domain\n    require(znsDomain.ownerOf(tokenId) == msg.sender, \"Only the domain owner can withdraw staked tokens\");\n\n    // Withdraw the stake\n    znsStaking.withdrawStake(tokenId, msg.sender);\n\n    // Delete the domain from the _domains mapping\n    delete _domains[domainName];\n\n    // Delete the mapping between token ID and domain name\n    delete _tokenIdsToDomains[tokenId];\n\n    // Burn the domain\n    znsDomain.burn(tokenId);\n  }\n\n  /**\n    * @dev Gets the token ID associated with the given domain name.\n    * @param domainName The name of the domain to get the token ID for.\n    * @return The token ID of the domain.\n  */\n  function domainNameToTokenId(string memory domainName) public view returns (uint256) {\n    require(_domains[domainName].tokenId != 0, \"ZNSRegistrar: Domain name does not exist\");\n    return _domains[domainName].tokenId;\n  }\n\n  /**\n    * @dev Gets the token URI associated with the given domain name.\n    * @param domainName The name of the domain to get the token URI for.\n    * @return The token URI of the domain.\n  */\n  function domainNameToTokenURI(string memory domainName) public view returns (string memory) {\n    require(_domains[domainName].tokenId != 0, \"ZNSRegistrar: Domain name does not exist\");\n    return _domains[domainName].tokenURI;\n  }\n\n  /**\n    * @dev Updates the token URI of a given domain.\n    * @param tokenId The ID of the domain to update the token URI of.\n    * @param newTokenURI The new token URI for the domain.\n  */\n  function updateTokenURI(uint256 tokenId, string calldata newTokenURI) external {\n    require(znsDomain.ownerOf(tokenId) == msg.sender, \"Caller is not the owner of the domain\");\n    znsDomain.setTokenURI(tokenId, newTokenURI);\n  }\n\n  // To Do: Possibly offload to a separate pricing contract for upgradeability/modularity\n  \n  /**\n    * @dev Sets the cost of a domain.\n    * @param _newDomainCost The new cost for a domain.\n  */\n  function setDomainCost(uint256 _newDomainCost) public {\n    domainCost = _newDomainCost;\n  }\n\n  uint256[49] private __gap;\n}",
  "sourcePath": "/Users/n3o/Code/zNS/contracts/ZNSRegistrar.sol",
  "compiler": {
    "name": "solc",
    "version": "0.8.2+commit.661d1103.Emscripten.clang"
  },
  "schemaVersion": "3.4.13",
  "updatedAt": "2023-05-08T04:11:52.642Z",
  "devdoc": {
    "events": {
      "DomainMinted(uint256,string,address)": {
        "details": "Event emitted when a domain is minted",
        "params": {
          "domainName": "The name of the minted domain",
          "owner": "The address of the domain owner",
          "tokenId": "The ID of the minted domain"
        }
      }
    },
    "kind": "dev",
    "methods": {
      "destroyDomain(uint256)": {
        "details": "Destroys a domain.",
        "params": {
          "tokenId": "The ID of the domain to be destroyed."
        }
      },
      "domainNameToTokenId(string)": {
        "details": "Gets the token ID associated with the given domain name.",
        "params": {
          "domainName": "The name of the domain to get the token ID for."
        },
        "returns": {
          "_0": "The token ID of the domain."
        }
      },
      "domainNameToTokenURI(string)": {
        "details": "Gets the token URI associated with the given domain name.",
        "params": {
          "domainName": "The name of the domain to get the token URI for."
        },
        "returns": {
          "_0": "The token URI of the domain."
        }
      },
      "initialize(address,address,address,uint256)": {
        "details": "Initializes the ZNSRegistrar contract",
        "params": {
          "_domainCost": "The cost of registering a domain in Zero Tokens",
          "_zeroToken": "The address of the Zero Token contract",
          "_znsDomain": "The address of the ZNSDomain contract",
          "_znsStaking": "The address of the ZNSStaking contract"
        }
      },
      "mintDomain(string,string)": {
        "details": "Mints a new domain",
        "params": {
          "domainName": "The name of the domain to be minted",
          "tokenURI": "The URI of the domain token"
        }
      },
      "setDomainCost(uint256)": {
        "details": "Sets the cost of a domain.",
        "params": {
          "_newDomainCost": "The new cost for a domain."
        }
      },
      "updateTokenURI(uint256,string)": {
        "details": "Updates the token URI of a given domain.",
        "params": {
          "newTokenURI": "The new token URI for the domain.",
          "tokenId": "The ID of the domain to update the token URI of."
        }
      }
    },
    "version": 1
  },
  "userdoc": {
    "kind": "user",
    "methods": {},
    "version": 1
  }
}