{
  "contractName": "ZNSRegistrar",
  "abi": [
    {
      "anonymous": false,
      "inputs": [
        {
          "indexed": false,
          "internalType": "uint256",
          "name": "newDomainCost",
          "type": "uint256"
        }
      ],
      "name": "DomainCostSet",
      "type": "event"
    },
    {
      "anonymous": false,
      "inputs": [
        {
          "indexed": true,
          "internalType": "uint256",
          "name": "tokenId",
          "type": "uint256"
        },
        {
          "indexed": false,
          "internalType": "string",
          "name": "domainName",
          "type": "string"
        }
      ],
      "name": "DomainDestroyed",
      "type": "event"
    },
    {
      "anonymous": false,
      "inputs": [
        {
          "indexed": true,
          "internalType": "uint256",
          "name": "tokenId",
          "type": "uint256"
        },
        {
          "indexed": true,
          "internalType": "string",
          "name": "domainName",
          "type": "string"
        },
        {
          "indexed": true,
          "internalType": "address",
          "name": "owner",
          "type": "address"
        }
      ],
      "name": "DomainMinted",
      "type": "event"
    },
    {
      "anonymous": false,
      "inputs": [
        {
          "indexed": false,
          "internalType": "uint8",
          "name": "version",
          "type": "uint8"
        }
      ],
      "name": "Initialized",
      "type": "event"
    },
    {
      "anonymous": false,
      "inputs": [
        {
          "indexed": true,
          "internalType": "uint256",
          "name": "tokenId",
          "type": "uint256"
        },
        {
          "indexed": false,
          "internalType": "string",
          "name": "oldTokenURI",
          "type": "string"
        },
        {
          "indexed": false,
          "internalType": "string",
          "name": "newTokenURI",
          "type": "string"
        }
      ],
      "name": "TokenURIUpdated",
      "type": "event"
    },
    {
      "inputs": [],
      "name": "domainCost",
      "outputs": [
        {
          "internalType": "uint256",
          "name": "",
          "type": "uint256"
        }
      ],
      "stateMutability": "view",
      "type": "function"
    },
    {
      "inputs": [],
      "name": "initialized",
      "outputs": [
        {
          "internalType": "bool",
          "name": "",
          "type": "bool"
        }
      ],
      "stateMutability": "view",
      "type": "function"
    },
    {
      "inputs": [],
      "name": "zeroToken",
      "outputs": [
        {
          "internalType": "contract IERC20Upgradeable",
          "name": "",
          "type": "address"
        }
      ],
      "stateMutability": "view",
      "type": "function"
    },
    {
      "inputs": [],
      "name": "znsDomain",
      "outputs": [
        {
          "internalType": "contract ZNSDomain",
          "name": "",
          "type": "address"
        }
      ],
      "stateMutability": "view",
      "type": "function"
    },
    {
      "inputs": [],
      "name": "znsStaking",
      "outputs": [
        {
          "internalType": "contract ZNSStaking",
          "name": "",
          "type": "address"
        }
      ],
      "stateMutability": "view",
      "type": "function"
    },
    {
      "inputs": [
        {
          "internalType": "contract ZNSDomain",
          "name": "_znsDomain",
          "type": "address"
        },
        {
          "internalType": "contract IERC20Upgradeable",
          "name": "_zeroToken",
          "type": "address"
        },
        {
          "internalType": "contract ZNSStaking",
          "name": "_znsStaking",
          "type": "address"
        },
        {
          "internalType": "uint256",
          "name": "_domainCost",
          "type": "uint256"
        }
      ],
      "name": "initialize",
      "outputs": [],
      "stateMutability": "nonpayable",
      "type": "function"
    },
    {
      "inputs": [
        {
          "internalType": "string",
          "name": "domainName",
          "type": "string"
        },
        {
          "internalType": "string",
          "name": "tokenURI",
          "type": "string"
        }
      ],
      "name": "mintDomain",
      "outputs": [],
      "stateMutability": "nonpayable",
      "type": "function"
    },
    {
      "inputs": [
        {
          "internalType": "uint256",
          "name": "tokenId",
          "type": "uint256"
        }
      ],
      "name": "destroyDomain",
      "outputs": [],
      "stateMutability": "nonpayable",
      "type": "function"
    },
    {
      "inputs": [
        {
          "internalType": "string",
          "name": "domainName",
          "type": "string"
        }
      ],
      "name": "domainNameToTokenId",
      "outputs": [
        {
          "internalType": "uint256",
          "name": "",
          "type": "uint256"
        }
      ],
      "stateMutability": "view",
      "type": "function"
    },
    {
      "inputs": [
        {
          "internalType": "string",
          "name": "domainName",
          "type": "string"
        }
      ],
      "name": "domainNameToTokenURI",
      "outputs": [
        {
          "internalType": "string",
          "name": "",
          "type": "string"
        }
      ],
      "stateMutability": "view",
      "type": "function"
    },
    {
      "inputs": [
        {
          "internalType": "uint256",
          "name": "tokenId",
          "type": "uint256"
        },
        {
          "internalType": "string",
          "name": "newTokenURI",
          "type": "string"
        }
      ],
      "name": "updateTokenURI",
      "outputs": [],
      "stateMutability": "nonpayable",
      "type": "function"
    },
    {
      "inputs": [
        {
          "internalType": "uint256",
          "name": "_newDomainCost",
          "type": "uint256"
        }
      ],
      "name": "setDomainCost",
      "outputs": [],
      "stateMutability": "nonpayable",
      "type": "function"
    },
    {
      "inputs": [
        {
          "internalType": "string",
          "name": "domainName",
          "type": "string"
        }
      ],
      "name": "isDomainAvailable",
      "outputs": [
        {
          "internalType": "bool",
          "name": "",
          "type": "bool"
        }
      ],
      "stateMutability": "view",
      "type": "function"
    }
  ],
  "bytecode": "0x608060405234801561001057600080fd5b50611946806100206000396000f3fe608060405234801561001057600080fd5b50600436106100cf5760003560e01c806332752b091161008c578063cf756fdf11610066578063cf756fdf146101ce578063db82219b146101e1578063e0db7c40146101f4578063f294bd92146101fd576100cf565b806332752b091461019557806353137a78146101a8578063b7026267146101bb576100cf565b8063030a1d9b146100d45780630a4f878e146100fd578063158ef93e1461011e57806317f641b71461014257806318e97fd11461016d5780632ce443dd14610182575b600080fd5b6100e76100e23660046114d8565b610210565b6040516100f4919061171c565b60405180910390f35b61011061010b3660046114d8565b610308565b6040519081526020016100f4565b60365461013290600160a01b900460ff1681565b60405190151581526020016100f4565b603654610155906001600160a01b031681565b6040516001600160a01b0390911681526020016100f4565b61018061017b36600461160f565b61036d565b005b6101806101903660046115df565b610577565b6101326101a33660046114d8565b6105b2565b6101806101b63660046115df565b6105dc565b6101806101c936600461157e565b6108b1565b6101806101dc366004611488565b610dcc565b603454610155906001600160a01b031681565b61011060335481565b603554610155906001600160a01b031681565b606060378260405161022291906116dc565b908152604051908190036020019020546102575760405162461bcd60e51b815260040161024e9061175f565b60405180910390fd5b60378260405161026791906116dc565b90815260200160405180910390206001018054610283906118aa565b80601f01602080910402602001604051908101604052809291908181526020018280546102af906118aa565b80156102fc5780601f106102d1576101008083540402835291602001916102fc565b820191906000526020600020905b8154815290600101906020018083116102df57829003601f168201915b50505050509050919050565b600060378260405161031a91906116dc565b908152604051908190036020019020546103465760405162461bcd60e51b815260040161024e9061175f565b60378260405161035691906116dc565b908152604051908190036020019020549050919050565b6034546040516331a9108f60e11b81526004810185905233916001600160a01b031690636352211e9060240160206040518083038186803b1580156103b157600080fd5b505afa1580156103c5573d6000803e3d6000fd5b505050506040513d601f19601f820116820180604052508101906103e99190611445565b6001600160a01b03161461044d5760405162461bcd60e51b815260206004820152602560248201527f43616c6c6572206973206e6f7420746865206f776e6572206f6620746865206460448201526437b6b0b4b760d91b606482015260840161024e565b60345460405163c87b56dd60e01b8152600481018590526000916001600160a01b03169063c87b56dd9060240160006040518083038186803b15801561049257600080fd5b505afa1580156104a6573d6000803e3d6000fd5b505050506040513d6000823e601f3d908101601f191682016040526104ce919081019061150b565b603454604051630588253160e21b81529192506001600160a01b03169063162094c490610503908790879087906004016117f2565b600060405180830381600087803b15801561051d57600080fd5b505af1158015610531573d6000803e3d6000fd5b50505050837f31b096c6ff64a74a686605caa11c1eb1e36d3ab8079b1e117b5074d70d63ac7b8285856040516105699392919061172f565b60405180910390a250505050565b60338190556040518181527fbf2c607c454514f3cef123ecc239aaaab20e17016118a85f16708d05558ae5d69060200160405180910390a150565b60006037826040516105c491906116dc565b90815260405190819003602001902054159050919050565b600081815260386020526040812080546105f5906118aa565b80601f0160208091040260200160405190810160405280929190818152602001828054610621906118aa565b801561066e5780601f106106435761010080835404028352916020019161066e565b820191906000526020600020905b81548152906001019060200180831161065157829003601f168201915b50506034546040516331a9108f60e11b81526004810188905294955033946001600160a01b039091169350636352211e9250602401905060206040518083038186803b1580156106bd57600080fd5b505afa1580156106d1573d6000803e3d6000fd5b505050506040513d601f19601f820116820180604052508101906106f59190611445565b6001600160a01b0316146107645760405162461bcd60e51b815260206004820152603060248201527f4f6e6c792074686520646f6d61696e206f776e65722063616e2077697468647260448201526f6177207374616b656420746f6b656e7360801b606482015260840161024e565b60365460405162676a6360e81b8152600481018490523360248201526001600160a01b039091169063676a630090604401600060405180830381600087803b1580156107af57600080fd5b505af11580156107c3573d6000803e3d6000fd5b505050506037816040516107d791906116dc565b90815260405190819003602001902060008082556107f8600183018261131c565b505060008281526038602052604081206108119161131c565b603454604051633f34d4cf60e21b8152600481018490523360248201526001600160a01b039091169063fcd3533c90604401600060405180830381600087803b15801561085d57600080fd5b505af1158015610871573d6000803e3d6000fd5b50505050817ff5243b3cafa0f9d4539b9b57b928aa20a5b68a8f1c3ebc426bec84a482725c5c826040516108a5919061171c565b60405180910390a25050565b6108b9610fa0565b6033546035546040516370a0823160e01b81523360048201526001600160a01b03909116906370a082319060240160206040518083038186803b1580156108ff57600080fd5b505afa158015610913573d6000803e3d6000fd5b505050506040513d601f19601f8201168201806040525081019061093791906115f7565b101561099b5760405162461bcd60e51b815260206004820152602d60248201527f5a4e535265676973747261723a20496e73756666696369656e74205a65726f2060448201526c546f6b656e2062616c616e636560981b606482015260840161024e565b603354603554604051636eb1769f60e11b81523360048201523060248201526001600160a01b039091169063dd62ed3e9060440160206040518083038186803b1580156109e757600080fd5b505afa1580156109fb573d6000803e3d6000fd5b505050506040513d601f19601f82011682018060405250810190610a1f91906115f7565b1015610a825760405162461bcd60e51b815260206004820152602c60248201527f5a4e535265676973747261723a20546f6b656e20616c6c6f77616e6365206e6f60448201526b1d081cdd59999a58da595b9d60a21b606482015260840161024e565b6000603783604051610a9491906116dc565b908152604051908190036020019020805490915015610b145760405162461bcd60e51b815260206004820152603660248201527f5a4e535265676973747261723a20446f6d61696e206e616d6520616c7265616460448201527503c9032bc34b9ba39903bb4ba34103a37b5b2b724b2160551b606482015260840161024e565b6036546001600160a01b0316610b835760405162461bcd60e51b815260206004820152602e60248201527f5a4e535265676973747261723a20496e76616c6964207374616b696e6720636f60448201526d6e7472616374206164647265737360901b606482015260840161024e565b603554603654603354610ba6926001600160a01b03908116923392911690610ffa565b603454604051633f685b4760e11b81526000916001600160a01b031690637ed0b68e90610bd990339087906004016116f8565b602060405180830381600087803b158015610bf357600080fd5b505af1158015610c07573d6000803e3d6000fd5b505050506040513d601f19601f82011682018060405250810190610c2b91906115f7565b603454604051630588253160e21b81529192506001600160a01b03169063162094c490610c5e908490879060040161180c565b600060405180830381600087803b158015610c7857600080fd5b505af1158015610c8c573d6000803e3d6000fd5b50505050604051806040016040528082815260200184815250603785604051610cb591906116dc565b9081526020016040518091039020600082015181600001556020820151816001019080519060200190610ce992919061135b565b50505060008181526038602090815260409091208551610d0b9287019061135b565b50603654603354604051635cab182160e11b81526004810184905260248101919091523360448201526001600160a01b039091169063b956304290606401600060405180830381600087803b158015610d6357600080fd5b505af1158015610d77573d6000803e3d6000fd5b5050604051339250610d8b915086906116dc565b6040519081900381209083907f0e431fa36c8fa113ab180c80dddb81b59911b7c16b785a5838ff15cd5fd0420490600090a45050610dc860018055565b5050565b600054610100900460ff1615808015610dec5750600054600160ff909116105b80610e065750303b158015610e06575060005460ff166001145b610e695760405162461bcd60e51b815260206004820152602e60248201527f496e697469616c697a61626c653a20636f6e747261637420697320616c72656160448201526d191e481a5b9a5d1a585b1a5e995960921b606482015260840161024e565b6000805460ff191660011790558015610e8c576000805461ff0019166101001790555b603654600160a01b900460ff1615610efc5760405162461bcd60e51b815260206004820152602d60248201527f5a4e535265676973747261723a20436f6e747261637420697320616c7265616460448201526c1e481a5b9a5d1a585b1a5e9959609a1b606482015260840161024e565b610f04611060565b603480546001600160a01b03199081166001600160a01b0380891691909117909255603580548216838816179055603680546033869055600160a01b92169286169290921760ff60a01b19161790558015610f99576000805461ff0019169055604051600181527f7f26b83ff96e1f2b6a682f133852f6798a09c465da95921460cefb38474024989060200160405180910390a15b5050505050565b60026001541415610ff35760405162461bcd60e51b815260206004820152601f60248201527f5265656e7472616e637947756172643a207265656e7472616e742063616c6c00604482015260640161024e565b6002600155565b604080516001600160a01b0385811660248301528416604482015260648082018490528251808303909101815260849091019091526020810180516001600160e01b03166323b872dd60e01b179052611054908590611091565b50505050565b60018055565b600054610100900460ff166110875760405162461bcd60e51b815260040161024e906117a7565b61108f611168565b565b60006110e6826040518060400160405280602081526020017f5361666545524332303a206c6f772d6c6576656c2063616c6c206661696c6564815250856001600160a01b031661118f9092919063ffffffff16565b80519091501561116357808060200190518101906111049190611468565b6111635760405162461bcd60e51b815260206004820152602a60248201527f5361666545524332303a204552433230206f7065726174696f6e20646964206e6044820152691bdd081cdd58d8d9595960b21b606482015260840161024e565b505050565b600054610100900460ff1661105a5760405162461bcd60e51b815260040161024e906117a7565b606061119e84846000856111a6565b949350505050565b6060824710156112075760405162461bcd60e51b815260206004820152602660248201527f416464726573733a20696e73756666696369656e742062616c616e636520666f6044820152651c8818d85b1b60d21b606482015260840161024e565b600080866001600160a01b0316858760405161122391906116dc565b60006040518083038185875af1925050503d8060008114611260576040519150601f19603f3d011682016040523d82523d6000602084013e611265565b606091505b509150915061127687838387611281565b979650505050505050565b606083156112ed5782516112e6576001600160a01b0385163b6112e65760405162461bcd60e51b815260206004820152601d60248201527f416464726573733a2063616c6c20746f206e6f6e2d636f6e7472616374000000604482015260640161024e565b508161119e565b61119e83838151156113025781518083602001fd5b8060405162461bcd60e51b815260040161024e919061171c565b508054611328906118aa565b6000825580601f1061133a5750611358565b601f01602090049060005260206000209081019061135891906113df565b50565b828054611367906118aa565b90600052602060002090601f01602090048101928261138957600085556113cf565b82601f106113a257805160ff19168380011785556113cf565b828001600101855582156113cf579182015b828111156113cf5782518255916020019190600101906113b4565b506113db9291506113df565b5090565b5b808211156113db57600081556001016113e0565b600082601f830112611404578081fd5b813561141761141282611856565b611825565b81815284602083860101111561142b578283fd5b816020850160208301379081016020019190915292915050565b600060208284031215611456578081fd5b8151611461816118fb565b9392505050565b600060208284031215611479578081fd5b81518015158114611461578182fd5b6000806000806080858703121561149d578283fd5b84356114a8816118fb565b935060208501356114b8816118fb565b925060408501356114c8816118fb565b9396929550929360600135925050565b6000602082840312156114e9578081fd5b813567ffffffffffffffff8111156114ff578182fd5b61119e848285016113f4565b60006020828403121561151c578081fd5b815167ffffffffffffffff811115611532578182fd5b8201601f81018413611542578182fd5b805161155061141282611856565b818152856020838501011115611564578384fd5b61157582602083016020860161187e565b95945050505050565b60008060408385031215611590578182fd5b823567ffffffffffffffff808211156115a7578384fd5b6115b3868387016113f4565b935060208501359150808211156115c8578283fd5b506115d5858286016113f4565b9150509250929050565b6000602082840312156115f0578081fd5b5035919050565b600060208284031215611608578081fd5b5051919050565b600080600060408486031215611623578283fd5b83359250602084013567ffffffffffffffff80821115611641578384fd5b818601915086601f830112611654578384fd5b813581811115611662578485fd5b876020828501011115611673578485fd5b6020830194508093505050509250925092565b60008284528282602086013780602084860101526020601f19601f85011685010190509392505050565b600081518084526116c881602086016020860161187e565b601f01601f19169290920160200192915050565b600082516116ee81846020870161187e565b9190910192915050565b6001600160a01b038316815260406020820181905260009061119e908301846116b0565b60006020825261146160208301846116b0565b60006040825261174260408301866116b0565b8281036020840152611755818587611686565b9695505050505050565b60208082526028908201527f5a4e535265676973747261723a20446f6d61696e206e616d6520646f6573206e6040820152671bdd08195e1a5cdd60c21b606082015260800190565b6020808252602b908201527f496e697469616c697a61626c653a20636f6e7472616374206973206e6f74206960408201526a6e697469616c697a696e6760a81b606082015260800190565b600084825260406020830152611575604083018486611686565b60008382526040602083015261119e60408301846116b0565b604051601f8201601f1916810167ffffffffffffffff8111828210171561184e5761184e6118e5565b604052919050565b600067ffffffffffffffff821115611870576118706118e5565b50601f01601f191660200190565b60005b83811015611899578181015183820152602001611881565b838111156110545750506000910152565b6002810460018216806118be57607f821691505b602082108114156118df57634e487b7160e01b600052602260045260246000fd5b50919050565b634e487b7160e01b600052604160045260246000fd5b6001600160a01b038116811461135857600080fdfea26469706673582212203906aaa01031a0a8cc307acd4c1fdcc555c659eb6aa37021519217fa92f41d3b64736f6c63430008020033",
  "immutableReferences": {},
  "source": "/**\n  @title ZNSRegistrar\n  @dev Contract for registering and updating ZNS domains\n  @notice This contract allows users to register Zero Name Service (ZNS) domains\n  @notice A ZNS domain is an ERC721 NFT token with a URI\n  @notice Each domain costs a specified amount of Zero Tokens\n  SPDX-License-Identifier: MIT\n*/\n\npragma solidity ^0.8.0;\n\nimport \"@openzeppelin/contracts-upgradeable/token/ERC20/IERC20Upgradeable.sol\";\nimport \"@openzeppelin/contracts-upgradeable/security/ReentrancyGuardUpgradeable.sol\";\nimport \"@openzeppelin/contracts-upgradeable/token/ERC20/utils/SafeERC20Upgradeable.sol\";\nimport \"@openzeppelin/contracts-upgradeable/utils/math/SafeMathUpgradeable.sol\";\nimport \"@openzeppelin/contracts-upgradeable/proxy/utils/Initializable.sol\";\nimport \"./ZNSDomain.sol\";\nimport \"./ZNSStaking.sol\";\n\ncontract ZNSRegistrar is Initializable, ReentrancyGuardUpgradeable {\n  using SafeMathUpgradeable for uint256;\n  uint256 public domainCost;\n  ZNSDomain public znsDomain;\n  IERC20Upgradeable public zeroToken;\n  ZNSStaking public znsStaking;\n  bool public initialized;\n\n  // To Do: + resolver contract to struct\n  // To Do: + subdomainRegistrar contract to struct\n\n  /**\n   * @dev Stores information about a registered domain.\n   * @param tokenId The token ID of the NFT representing the domain.\n   * @param tokenURI The metadata URI of the NFT representing the domain.\n  */\n  struct Domain {\n    uint256 tokenId;\n    string tokenURI;\n  }\n\n  mapping(string => Domain) private _domains;\n  mapping(uint256 => string) private _tokenIdsToDomains;\n\n  /**\n    @dev Event emitted when a domain is minted\n    @param tokenId The ID of the minted domain\n    @param domainName The name of the minted domain\n    @param owner The address of the domain owner\n  */\n  event DomainMinted(uint256 indexed tokenId, string indexed domainName, address indexed owner);\n\n  /**\n    * @dev Emitted when the token URI of a domain is updated.\n    * @param tokenId The ID of the domain that had its token URI updated.\n    * @param oldTokenURI The old token URI of the domain.\n    * @param newTokenURI The new token URI of the domain.\n  */\n  event TokenURIUpdated(uint256 indexed tokenId, string oldTokenURI, string newTokenURI);\n\n  /**\n    * @dev Emitted when the cost of a domain is set.\n    * @param newDomainCost The new cost of a domain.\n    */\n  event DomainCostSet(uint256 newDomainCost);\n\n  /**\n    @dev Initializes the ZNSRegistrar contract\n    @param _znsDomain The address of the ZNSDomain contract\n    @param _zeroToken The address of the ZEROToken contract\n    @param _znsStaking The address of the ZNSStaking contract\n    @param _domainCost The cost of registering a domain in Zero Tokens\n  */\n  function initialize(ZNSDomain _znsDomain, IERC20Upgradeable _zeroToken, ZNSStaking _znsStaking, uint256 _domainCost) public initializer {\n    require(!initialized, \"ZNSRegistrar: Contract is already initialized\");\n    __ReentrancyGuard_init();\n    __ZNSRegistrar_init(_znsDomain, _zeroToken, _znsStaking, _domainCost);\n  }\n\n  /**\n    * @dev Emitted when a domain is destroyed.\n    * @param tokenId The ID of the destroyed domain.\n    * @param domainName The name of the destroyed domain.\n  */\n  event DomainDestroyed(uint256 indexed tokenId, string domainName);\n\n  function __ZNSRegistrar_init(ZNSDomain _znsDomain, IERC20Upgradeable _zeroToken, ZNSStaking _znsStaking, uint256 _domainCost) internal {\n    znsDomain = _znsDomain;\n    zeroToken = _zeroToken;        \n    znsStaking = _znsStaking;\n    domainCost = _domainCost;\n    initialized = true;\n  }\n\n  /**\n    @dev Mints a new domain\n    @param domainName The name of the domain to be minted\n    @param tokenURI The URI of the domain token\n  */\n  function mintDomain(string memory domainName, string memory tokenURI) public nonReentrant {\n    require(zeroToken.balanceOf(msg.sender) >= domainCost, \"ZNSRegistrar: Insufficient Zero Token balance\");\n    require(zeroToken.allowance(msg.sender, address(this)) >= domainCost, \"ZNSRegistrar: Token allowance not sufficient\");\n\n    // Check if the domain name already exists\n    Domain storage existingDomain = _domains[domainName];\n    require(existingDomain.tokenId == 0, \"ZNSRegistrar: Domain name already exists with tokenId \");\n\n    // Ensure that the staking contract address is valid\n    require(address(znsStaking) != address(0), \"ZNSRegistrar: Invalid staking contract address\");\n\n    // Transfer tokens from sender directly to staking contract using SafeERC20\n    SafeERC20Upgradeable.safeTransferFrom(zeroToken, msg.sender, address(znsStaking), domainCost);\n\n    // Mint the domain\n    uint256 newDomainId = znsDomain.mintDomain(msg.sender, tokenURI);\n    znsDomain.setTokenURI(newDomainId, tokenURI);\n    _domains[domainName] = Domain(newDomainId, tokenURI);\n\n    // Store mapping between token ID and domain name\n    _tokenIdsToDomains[newDomainId] = domainName;\n\n    // Add stake\n    znsStaking.addStake(newDomainId, domainCost, msg.sender);\n\n    emit DomainMinted(newDomainId, domainName, msg.sender);\n  }\n\n  /**\n    * @dev Destroys a domain.\n    * @param tokenId The ID of the domain to be destroyed.\n  */\n  function destroyDomain(uint256 tokenId) public {\n    // Look up domain name by token ID\n    string memory domainName = _tokenIdsToDomains[tokenId];\n\n    // Check if the sender is the owner of the domain\n    require(znsDomain.ownerOf(tokenId) == msg.sender, \"Only the domain owner can withdraw staked tokens\");\n\n    // Withdraw the stake\n    znsStaking.withdrawStake(tokenId, msg.sender);\n\n    // Delete the domain from the _domains mapping\n    delete _domains[domainName];\n\n    // Delete the mapping between token ID and domain name\n    delete _tokenIdsToDomains[tokenId];\n\n    // Burn the domain\n    znsDomain.burn(tokenId, msg.sender);\n\n    // Emit the event\n    emit DomainDestroyed(tokenId, domainName);\n  }\n\n  /**\n    * @dev Gets the token ID associated with the given domain name.\n    * @param domainName The name of the domain to get the token ID for.\n    * @return The token ID of the domain.\n  */\n  function domainNameToTokenId(string memory domainName) public view returns (uint256) {\n    require(_domains[domainName].tokenId != 0, \"ZNSRegistrar: Domain name does not exist\");\n    return _domains[domainName].tokenId;\n  }\n\n  /**\n    * @dev Gets the token URI associated with the given domain name.\n    * @param domainName The name of the domain to get the token URI for.\n    * @return The token URI of the domain.\n  */\n  function domainNameToTokenURI(string memory domainName) public view returns (string memory) {\n    require(_domains[domainName].tokenId != 0, \"ZNSRegistrar: Domain name does not exist\");\n    return _domains[domainName].tokenURI;\n  }\n\n  /**\n    * @dev Updates the token URI of a given domain.\n    * @param tokenId The ID of the domain to update the token URI of.\n    * @param newTokenURI The new token URI for the domain.\n  */\n  function updateTokenURI(uint256 tokenId, string calldata newTokenURI) external {\n    // Check if the sender is the owner of the domain\n    require(znsDomain.ownerOf(tokenId) == msg.sender, \"Caller is not the owner of the domain\");\n\n    // Get the old token URI\n    string memory oldTokenURI = znsDomain.tokenURI(tokenId);\n\n    // Update the token URI\n    znsDomain.setTokenURI(tokenId, newTokenURI);\n\n    // Emit the event\n    emit TokenURIUpdated(tokenId, oldTokenURI, newTokenURI);\n  }\n\n  // To Do: Possibly offload to a separate pricing contract for upgradeability/modularity\n  \n  /**\n    * @dev Sets the cost of a domain.\n    * @param _newDomainCost The new cost for a domain.\n  */\n  function setDomainCost(uint256 _newDomainCost) public {\n    domainCost = _newDomainCost;\n    emit DomainCostSet(_newDomainCost);\n  }\n\n  /**\n    * @dev Checks to see whether or not a domainis is available.\n    * @param domainName The domain to check.\n    * @return bool\n  */\n  function isDomainAvailable(string memory domainName) public view returns (bool) {\n    return _domains[domainName].tokenId == 0;\n  }\n\n  uint256[49] private __gap;\n}",
  "sourcePath": "/Users/n3o/Code/zNS/contracts/ZNSRegistrar.sol",
  "compiler": {
    "name": "solc",
    "version": "0.8.2+commit.661d1103.Emscripten.clang"
  },
  "schemaVersion": "3.4.13",
  "updatedAt": "2023-05-08T07:08:16.733Z",
  "devdoc": {
    "events": {
      "DomainCostSet(uint256)": {
        "details": "Emitted when the cost of a domain is set.",
        "params": {
          "newDomainCost": "The new cost of a domain."
        }
      },
      "DomainDestroyed(uint256,string)": {
        "details": "Emitted when a domain is destroyed.",
        "params": {
          "domainName": "The name of the destroyed domain.",
          "tokenId": "The ID of the destroyed domain."
        }
      },
      "DomainMinted(uint256,string,address)": {
        "details": "Event emitted when a domain is minted",
        "params": {
          "domainName": "The name of the minted domain",
          "owner": "The address of the domain owner",
          "tokenId": "The ID of the minted domain"
        }
      },
      "TokenURIUpdated(uint256,string,string)": {
        "details": "Emitted when the token URI of a domain is updated.",
        "params": {
          "newTokenURI": "The new token URI of the domain.",
          "oldTokenURI": "The old token URI of the domain.",
          "tokenId": "The ID of the domain that had its token URI updated."
        }
      }
    },
    "kind": "dev",
    "methods": {
      "destroyDomain(uint256)": {
        "details": "Destroys a domain.",
        "params": {
          "tokenId": "The ID of the domain to be destroyed."
        }
      },
      "domainNameToTokenId(string)": {
        "details": "Gets the token ID associated with the given domain name.",
        "params": {
          "domainName": "The name of the domain to get the token ID for."
        },
        "returns": {
          "_0": "The token ID of the domain."
        }
      },
      "domainNameToTokenURI(string)": {
        "details": "Gets the token URI associated with the given domain name.",
        "params": {
          "domainName": "The name of the domain to get the token URI for."
        },
        "returns": {
          "_0": "The token URI of the domain."
        }
      },
      "initialize(address,address,address,uint256)": {
        "details": "Initializes the ZNSRegistrar contract",
        "params": {
          "_domainCost": "The cost of registering a domain in Zero Tokens",
          "_zeroToken": "The address of the ZEROToken contract",
          "_znsDomain": "The address of the ZNSDomain contract",
          "_znsStaking": "The address of the ZNSStaking contract"
        }
      },
      "isDomainAvailable(string)": {
        "details": "Checks to see whether or not a domainis is available.",
        "params": {
          "domainName": "The domain to check."
        },
        "returns": {
          "_0": "bool"
        }
      },
      "mintDomain(string,string)": {
        "details": "Mints a new domain",
        "params": {
          "domainName": "The name of the domain to be minted",
          "tokenURI": "The URI of the domain token"
        }
      },
      "setDomainCost(uint256)": {
        "details": "Sets the cost of a domain.",
        "params": {
          "_newDomainCost": "The new cost for a domain."
        }
      },
      "updateTokenURI(uint256,string)": {
        "details": "Updates the token URI of a given domain.",
        "params": {
          "newTokenURI": "The new token URI for the domain.",
          "tokenId": "The ID of the domain to update the token URI of."
        }
      }
    },
    "version": 1
  },
  "userdoc": {
    "kind": "user",
    "methods": {},
    "version": 1
  }
}