{
  "contractName": "ZNSStaking",
  "abi": [
    {
      "anonymous": false,
      "inputs": [
        {
          "indexed": false,
          "internalType": "uint8",
          "name": "version",
          "type": "uint8"
        }
      ],
      "name": "Initialized",
      "type": "event"
    },
    {
      "anonymous": false,
      "inputs": [
        {
          "indexed": true,
          "internalType": "uint256",
          "name": "tokenId",
          "type": "uint256"
        },
        {
          "indexed": false,
          "internalType": "uint256",
          "name": "amount",
          "type": "uint256"
        },
        {
          "indexed": false,
          "internalType": "uint256",
          "name": "startTime",
          "type": "uint256"
        },
        {
          "indexed": false,
          "internalType": "address",
          "name": "ownerOf",
          "type": "address"
        }
      ],
      "name": "StakeAdded",
      "type": "event"
    },
    {
      "anonymous": false,
      "inputs": [
        {
          "indexed": true,
          "internalType": "uint256",
          "name": "tokenId",
          "type": "uint256"
        },
        {
          "indexed": false,
          "internalType": "uint256",
          "name": "amount",
          "type": "uint256"
        },
        {
          "indexed": true,
          "internalType": "address",
          "name": "recipient",
          "type": "address"
        }
      ],
      "name": "StakeWithdrawn",
      "type": "event"
    },
    {
      "inputs": [
        {
          "internalType": "uint256",
          "name": "",
          "type": "uint256"
        }
      ],
      "name": "stakes",
      "outputs": [
        {
          "internalType": "uint256",
          "name": "amount",
          "type": "uint256"
        },
        {
          "internalType": "uint256",
          "name": "startTime",
          "type": "uint256"
        },
        {
          "internalType": "address",
          "name": "ownerOf",
          "type": "address"
        }
      ],
      "stateMutability": "view",
      "type": "function"
    },
    {
      "inputs": [],
      "name": "stakingToken",
      "outputs": [
        {
          "internalType": "contract IERC20Upgradeable",
          "name": "",
          "type": "address"
        }
      ],
      "stateMutability": "view",
      "type": "function"
    },
    {
      "inputs": [],
      "name": "znsDomain",
      "outputs": [
        {
          "internalType": "contract IERC721Upgradeable",
          "name": "",
          "type": "address"
        }
      ],
      "stateMutability": "view",
      "type": "function"
    },
    {
      "inputs": [
        {
          "internalType": "contract IERC721Upgradeable",
          "name": "_znsDomain",
          "type": "address"
        },
        {
          "internalType": "contract IERC20Upgradeable",
          "name": "_stakingToken",
          "type": "address"
        }
      ],
      "name": "initialize",
      "outputs": [],
      "stateMutability": "nonpayable",
      "type": "function"
    },
    {
      "inputs": [
        {
          "internalType": "uint256",
          "name": "tokenId",
          "type": "uint256"
        },
        {
          "internalType": "uint256",
          "name": "amount",
          "type": "uint256"
        },
        {
          "internalType": "address",
          "name": "recipient",
          "type": "address"
        }
      ],
      "name": "addStake",
      "outputs": [],
      "stateMutability": "nonpayable",
      "type": "function"
    },
    {
      "inputs": [
        {
          "internalType": "uint256",
          "name": "tokenId",
          "type": "uint256"
        },
        {
          "internalType": "address",
          "name": "recipient",
          "type": "address"
        }
      ],
      "name": "withdrawStake",
      "outputs": [],
      "stateMutability": "nonpayable",
      "type": "function"
    }
  ],
  "bytecode": "0x608060405234801561001057600080fd5b50610d53806100206000396000f3fe608060405234801561001057600080fd5b50600436106100625760003560e01c8063485cc95514610067578063676a63001461007c57806372f702f31461008f578063b9563042146100bf578063d5a44f86146100d2578063db82219b1461012d575b600080fd5b61007a610075366004610bc2565b610140565b005b61007a61008a366004610c2a565b610301565b6003546100a2906001600160a01b031681565b6040516001600160a01b0390911681526020015b60405180910390f35b61007a6100cd366004610c4e565b610612565b6101096100e0366004610bfa565b60016020819052600091825260409091208054918101546002909101546001600160a01b031683565b6040805193845260208401929092526001600160a01b0316908201526060016100b6565b6002546100a2906001600160a01b031681565b600054610100900460ff16158080156101605750600054600160ff909116105b8061017a5750303b15801561017a575060005460ff166001145b6101e25760405162461bcd60e51b815260206004820152602e60248201527f496e697469616c697a61626c653a20636f6e747261637420697320616c72656160448201526d191e481a5b9a5d1a585b1a5e995960921b60648201526084015b60405180910390fd5b6000805460ff191660011790558015610205576000805461ff0019166101001790555b60005462010000900460ff16156102725760405162461bcd60e51b815260206004820152602b60248201527f5a4e535374616b696e673a20436f6e747261637420697320616c72656164792060448201526a1a5b9a5d1a585b1a5e995960aa1b60648201526084016101d9565b6102a58383600280546001600160a01b039384166001600160a01b03199182161790915560038054929093169116179055565b6000805462ff000019166201000017905580156102fc576000805461ff0019169055604051600181527f7f26b83ff96e1f2b6a682f133852f6798a09c465da95921460cefb38474024989060200160405180910390a15b505050565b6002546040516331a9108f60e11b81526004810184905232916001600160a01b031690636352211e9060240160206040518083038186803b15801561034557600080fd5b505afa158015610359573d6000803e3d6000fd5b505050506040513d601f19601f8201168201806040525081019061037d9190610b7f565b6001600160a01b0316146103f05760405162461bcd60e51b815260206004820152603460248201527f5a4e535374616b696e673a204f6e6c792074686520646f6d61696e206f776e65604482015273722063616e207769746864726177207374616b6560601b60648201526084016101d9565b6001600160a01b03811661045b5760405162461bcd60e51b815260206004820152602c60248201527f5a4e535374616b696e673a20526563697069656e74206164647265737320636160448201526b6e6e6f74206265207a65726f60a01b60648201526084016101d9565b600082815260016020818152604092839020835160608101855281548082529382015492810192909252600201546001600160a01b0316928101929092526104fe5760405162461bcd60e51b815260206004820152603060248201527f5a4e535374616b696e673a204e6f207374616b6520666f756e6420666f72207460448201526f1a194819da5d995b881d1bdad95b925960821b60648201526084016101d9565b60408101516001600160a01b031632146105805760405162461bcd60e51b815260206004820152603760248201527f5a4e535374616b696e673a204f6e6c7920746865206f776e6572206f6620746860448201527f65207374616b652063616e20776974686472617720697400000000000000000060648201526084016101d9565b600083815260016020819052604082208281559081019190915560020180546001600160a01b031916905560035481516105c5916001600160a01b03169084906108e5565b816001600160a01b0316837f5da6d31e186e8cc19ef8d38e4a96a10deacfeaa0818a72b0e59956c67cb51828836000015160405161060591815260200190565b60405180910390a3505050565b6002546040516331a9108f60e11b8152600481018590526001600160a01b03838116921690636352211e9060240160206040518083038186803b15801561065857600080fd5b505afa15801561066c573d6000803e3d6000fd5b505050506040513d601f19601f820116820180604052508101906106909190610b7f565b6001600160a01b0316146106fe5760405162461bcd60e51b815260206004820152602f60248201527f5a4e535374616b696e673a204f6e6c792074686520646f6d61696e206f776e6560448201526e722063616e20616464207374616b6560881b60648201526084016101d9565b600082116107605760405162461bcd60e51b815260206004820152602960248201527f5a4e535374616b696e673a20416d6f756e74206d75737420626520677265617460448201526806572207468616e20360bc1b60648201526084016101d9565b6003546040516370a0823160e01b81523060048201526000916001600160a01b0316906370a082319060240160206040518083038186803b1580156107a457600080fd5b505afa1580156107b8573d6000803e3d6000fd5b505050506040513d601f19601f820116820180604052508101906107dc9190610c12565b9050828110156108415760405162461bcd60e51b815260206004820152602a60248201527f5a4e535374616b696e673a20496e73756666696369656e7420756e616c6c6f6360448201526961746564207374616b6560b01b60648201526084016101d9565b60408051606080820183528582524260208084018281523285870181815260008c8152600180865290899020975188559251928701929092559051600290950180546001600160a01b0319166001600160a01b03909616959095179094558451888152908101919091529283019190915285917f4cfbbe482d97e6911079b11f7f0ad69e1294e050ef95d683ab10a9129abcf497910160405180910390a250505050565b604080516001600160a01b03848116602483015260448083018590528351808403909101815260649092018352602080830180516001600160e01b031663a9059cbb60e01b17905283518085019094528084527f5361666545524332303a206c6f772d6c6576656c2063616c6c206661696c6564908401526102fc928692916000916109759185169084906109f2565b8051909150156102fc57808060200190518101906109939190610ba2565b6102fc5760405162461bcd60e51b815260206004820152602a60248201527f5361666545524332303a204552433230206f7065726174696f6e20646964206e6044820152691bdd081cdd58d8d9595960b21b60648201526084016101d9565b6060610a018484600085610a09565b949350505050565b606082471015610a6a5760405162461bcd60e51b815260206004820152602660248201527f416464726573733a20696e73756666696369656e742062616c616e636520666f6044820152651c8818d85b1b60d21b60648201526084016101d9565b600080866001600160a01b03168587604051610a869190610c86565b60006040518083038185875af1925050503d8060008114610ac3576040519150601f19603f3d011682016040523d82523d6000602084013e610ac8565b606091505b5091509150610ad987838387610ae4565b979650505050505050565b60608315610b50578251610b49576001600160a01b0385163b610b495760405162461bcd60e51b815260206004820152601d60248201527f416464726573733a2063616c6c20746f206e6f6e2d636f6e747261637400000060448201526064016101d9565b5081610a01565b610a018383815115610b655781518083602001fd5b8060405162461bcd60e51b81526004016101d99190610ca2565b600060208284031215610b90578081fd5b8151610b9b81610d05565b9392505050565b600060208284031215610bb3578081fd5b81518015158114610b9b578182fd5b60008060408385031215610bd4578081fd5b8235610bdf81610d05565b91506020830135610bef81610d05565b809150509250929050565b600060208284031215610c0b578081fd5b5035919050565b600060208284031215610c23578081fd5b5051919050565b60008060408385031215610c3c578182fd5b823591506020830135610bef81610d05565b600080600060608486031215610c62578081fd5b83359250602084013591506040840135610c7b81610d05565b809150509250925092565b60008251610c98818460208701610cd5565b9190910192915050565b6000602082528251806020840152610cc1816040850160208701610cd5565b601f01601f19169190910160400192915050565b60005b83811015610cf0578181015183820152602001610cd8565b83811115610cff576000848401525b50505050565b6001600160a01b0381168114610d1a57600080fd5b5056fea26469706673582212207df5f22be4f6ecfca981959d09ed6ed0367736dcdd328a47b6ac217b033f5b3764736f6c63430008020033",
  "immutableReferences": {},
  "source": "/**\n  @title ZNSStaking\n  @dev Contract for managing staking related to ZNS domains\n  SPDX-License-Identifier: MIT\n*/\n\npragma solidity ^0.8.0;\n\nimport \"@openzeppelin/contracts-upgradeable/token/ERC721/IERC721Upgradeable.sol\";\nimport \"@openzeppelin/contracts-upgradeable/token/ERC20/IERC20Upgradeable.sol\";\nimport \"@openzeppelin/contracts-upgradeable/utils/math/SafeMathUpgradeable.sol\";\nimport \"@openzeppelin/contracts-upgradeable/token/ERC20/utils/SafeERC20Upgradeable.sol\";\nimport \"@openzeppelin/contracts-upgradeable/proxy/utils/Initializable.sol\";\n\n/**\n * @title ZNSStaking\n * @dev Staking contract for Zero Name Service (ZNS) domains.\n*/\ncontract ZNSStaking is Initializable {\n  using SafeMathUpgradeable for uint256;\n  bool private _initialized;\n\n  struct Stake {\n    uint256 amount;\n    uint256 startTime;\n    address ownerOf;\n  }\n\n  mapping(uint256 => Stake) public stakes;\n\n  IERC721Upgradeable public znsDomain;\n  IERC20Upgradeable public stakingToken;\n\n  event StakeAdded(uint256 indexed tokenId, uint256 amount, uint256 startTime, address ownerOf);\n  event StakeWithdrawn(uint256 indexed tokenId, uint256 amount, address indexed recipient);\n\n  /**\n    @dev Initializes the contract with the addresses of ZNS domains and staking tokens.\n  */\n  function initialize(IERC721Upgradeable _znsDomain, IERC20Upgradeable _stakingToken) public initializer {\n    require(!_initialized, \"ZNSStaking: Contract is already initialized\");\n    __ZNSStaking_init(_znsDomain, _stakingToken);\n    _initialized = true;\n  }\n\n  function __ZNSStaking_init(IERC721Upgradeable _znsDomain, IERC20Upgradeable _stakingToken) internal {\n    znsDomain = _znsDomain;\n    stakingToken = _stakingToken;\n  }\n\n  /**\n    @dev Adds a stake to the contract for the given domain tokenId.\n    Only the owner of the domain can add a stake.\n    The amount of stake to be added must be greater than 0.\n    The unallocated stake in the contract must be greater than or equal to the amount of stake to be added.\n  */\n  function addStake(uint256 tokenId, uint256 amount, address recipient) public {\n    require(znsDomain.ownerOf(tokenId) == recipient, \"ZNSStaking: Only the domain owner can add stake\");\n    require(amount > 0, \"ZNSStaking: Amount must be greater than 0\");\n\n    // Check that the unallocated stake is enough for the stake being added\n    uint256 unallocatedStake = stakingToken.balanceOf(address(this));\n    require(unallocatedStake >= amount, \"ZNSStaking: Insufficient unallocated stake\");\n\n    // Add stake to the mapping with msg.sender as the owner\n    stakes[tokenId] = Stake(amount, block.timestamp, tx.origin);\n\n    emit StakeAdded(tokenId, amount, block.timestamp, tx.origin);\n  }\n\n  /**\n    @dev Withdraws the stake from the contract for the given domain tokenId.\n    Only the owner of the domain can withdraw the stake.\n    The recipient address must not be 0.\n  */\n  function withdrawStake(uint256 tokenId, address recipient) public {\n    require(znsDomain.ownerOf(tokenId) == tx.origin, \"ZNSStaking: Only the domain owner can withdraw stake\");\n    require(recipient != address(0), \"ZNSStaking: Recipient address cannot be zero\");\n\n    // Check that the stake exists\n    Stake memory stake = stakes[tokenId];\n    require(stake.amount > 0, \"ZNSStaking: No stake found for the given tokenId\");\n    require(stake.ownerOf == tx.origin, \"ZNSStaking: Only the owner of the stake can withdraw it\");\n\n    // Remove stake from mapping\n    delete stakes[tokenId];\n\n    // Transfer tokens back to domain owner\n    SafeERC20Upgradeable.safeTransfer(stakingToken, recipient, stake.amount);\n\n    emit StakeWithdrawn(tokenId, stake.amount, recipient);\n  }\n\n  // For storage layout future-proofing\n  uint256[49] private __gap;\n}",
  "sourcePath": "/Users/n3o/Code/zNS/contracts/ZNSStaking.sol",
  "compiler": {
    "name": "solc",
    "version": "0.8.2+commit.661d1103.Emscripten.clang"
  },
  "schemaVersion": "3.4.13",
  "updatedAt": "2023-05-08T04:11:52.647Z",
  "devdoc": {
    "details": "Staking contract for Zero Name Service (ZNS) domains.",
    "kind": "dev",
    "methods": {
      "addStake(uint256,uint256,address)": {
        "details": "Adds a stake to the contract for the given domain tokenId. Only the owner of the domain can add a stake. The amount of stake to be added must be greater than 0. The unallocated stake in the contract must be greater than or equal to the amount of stake to be added."
      },
      "initialize(address,address)": {
        "details": "Initializes the contract with the addresses of ZNS domains and staking tokens."
      },
      "withdrawStake(uint256,address)": {
        "details": "Withdraws the stake from the contract for the given domain tokenId. Only the owner of the domain can withdraw the stake. The recipient address must not be 0."
      }
    },
    "title": "ZNSStaking",
    "version": 1
  },
  "userdoc": {
    "kind": "user",
    "methods": {},
    "version": 1
  }
}